{"abi":[{"type":"constructor","inputs":[],"stateMutability":"nonpayable"},{"type":"function","name":"allowance","inputs":[{"name":"owner","type":"address","internalType":"address"},{"name":"spender","type":"address","internalType":"address"}],"outputs":[{"name":"","type":"uint256","internalType":"uint256"}],"stateMutability":"view"},{"type":"function","name":"approve","inputs":[{"name":"spender","type":"address","internalType":"address"},{"name":"amount","type":"uint256","internalType":"uint256"}],"outputs":[{"name":"","type":"bool","internalType":"bool"}],"stateMutability":"nonpayable"},{"type":"function","name":"balanceOf","inputs":[{"name":"account","type":"address","internalType":"address"}],"outputs":[{"name":"","type":"uint256","internalType":"uint256"}],"stateMutability":"view"},{"type":"function","name":"bridge","inputs":[],"outputs":[{"name":"","type":"address","internalType":"address"}],"stateMutability":"view"},{"type":"function","name":"burn","inputs":[{"name":"account","type":"address","internalType":"address"},{"name":"amount","type":"uint256","internalType":"uint256"}],"outputs":[{"name":"","type":"bool","internalType":"bool"}],"stateMutability":"nonpayable"},{"type":"function","name":"decimals","inputs":[],"outputs":[{"name":"","type":"uint8","internalType":"uint8"}],"stateMutability":"view"},{"type":"function","name":"decreaseAllowance","inputs":[{"name":"spender","type":"address","internalType":"address"},{"name":"subtractedValue","type":"uint256","internalType":"uint256"}],"outputs":[{"name":"","type":"bool","internalType":"bool"}],"stateMutability":"nonpayable"},{"type":"function","name":"increaseAllowance","inputs":[{"name":"spender","type":"address","internalType":"address"},{"name":"addedValue","type":"uint256","internalType":"uint256"}],"outputs":[{"name":"","type":"bool","internalType":"bool"}],"stateMutability":"nonpayable"},{"type":"function","name":"initialize","inputs":[{"name":"_rootToken","type":"address","internalType":"address"},{"name":"_name","type":"string","internalType":"string"},{"name":"_symbol","type":"string","internalType":"string"},{"name":"_decimals","type":"uint8","internalType":"uint8"}],"outputs":[],"stateMutability":"nonpayable"},{"type":"function","name":"mint","inputs":[{"name":"account","type":"address","internalType":"address"},{"name":"amount","type":"uint256","internalType":"uint256"}],"outputs":[{"name":"","type":"bool","internalType":"bool"}],"stateMutability":"nonpayable"},{"type":"function","name":"name","inputs":[],"outputs":[{"name":"","type":"string","internalType":"string"}],"stateMutability":"view"},{"type":"function","name":"rootToken","inputs":[],"outputs":[{"name":"","type":"address","internalType":"address"}],"stateMutability":"view"},{"type":"function","name":"symbol","inputs":[],"outputs":[{"name":"","type":"string","internalType":"string"}],"stateMutability":"view"},{"type":"function","name":"totalSupply","inputs":[],"outputs":[{"name":"","type":"uint256","internalType":"uint256"}],"stateMutability":"view"},{"type":"function","name":"transfer","inputs":[{"name":"to","type":"address","internalType":"address"},{"name":"amount","type":"uint256","internalType":"uint256"}],"outputs":[{"name":"","type":"bool","internalType":"bool"}],"stateMutability":"nonpayable"},{"type":"function","name":"transferFrom","inputs":[{"name":"from","type":"address","internalType":"address"},{"name":"to","type":"address","internalType":"address"},{"name":"amount","type":"uint256","internalType":"uint256"}],"outputs":[{"name":"","type":"bool","internalType":"bool"}],"stateMutability":"nonpayable"},{"type":"event","name":"Approval","inputs":[{"name":"owner","type":"address","indexed":true,"internalType":"address"},{"name":"spender","type":"address","indexed":true,"internalType":"address"},{"name":"value","type":"uint256","indexed":false,"internalType":"uint256"}],"anonymous":false},{"type":"event","name":"Initialized","inputs":[{"name":"version","type":"uint8","indexed":false,"internalType":"uint8"}],"anonymous":false},{"type":"event","name":"Transfer","inputs":[{"name":"from","type":"address","indexed":true,"internalType":"address"},{"name":"to","type":"address","indexed":true,"internalType":"address"},{"name":"value","type":"uint256","indexed":false,"internalType":"uint256"}],"anonymous":false}],"bytecode":{"object":"0x608060405234801561001057600080fd5b5061001961001e565b6100dd565b600054610100900460ff161561008a5760405162461bcd60e51b815260206004820152602760248201527f496e697469616c697a61626c653a20636f6e747261637420697320696e697469604482015266616c697a696e6760c81b606482015260840160405180910390fd5b60005460ff908116146100db576000805460ff191660ff9081179091556040519081527f7f26b83ff96e1f2b6a682f133852f6798a09c465da95921460cefb38474024989060200160405180910390a15b565b610f65806100ec6000396000f3fe608060405234801561001057600080fd5b50600436106101005760003560e01c806370a0823111610097578063a9059cbb11610066578063a9059cbb14610222578063dd62ed3e14610235578063e78cea9214610248578063f6d2ee861461025b57600080fd5b806370a08231146101cb57806395d89b41146101f45780639dc29fac146101fc578063a457c2d71461020f57600080fd5b806323b872dd116100d357806323b872dd14610183578063313ce5671461019657806339509351146101a557806340c10f19146101b857600080fd5b806306fdde0314610105578063095ea7b31461012357806318160ddd146101465780631f2d006514610158575b600080fd5b61010d610270565b60405161011a9190610b26565b60405180910390f35b610136610131366004610b90565b610302565b604051901515815260200161011a565b6035545b60405190815260200161011a565b60655461016b906001600160a01b031681565b6040516001600160a01b03909116815260200161011a565b610136610191366004610bba565b61031c565b6040516012815260200161011a565b6101366101b3366004610b90565b610340565b6101366101c6366004610b90565b610362565b61014a6101d9366004610bf6565b6001600160a01b031660009081526033602052604090205490565b61010d610377565b61013661020a366004610b90565b610386565b61013661021d366004610b90565b610392565b610136610230366004610b90565b610412565b61014a610243366004610c18565b610420565b60665461016b906001600160a01b031681565b61026e610269366004610cee565b61044b565b005b60606036805461027f90610d7b565b80601f01602080910402602001604051908101604052809291908181526020018280546102ab90610d7b565b80156102f85780601f106102cd576101008083540402835291602001916102f8565b820191906000526020600020905b8154815290600101906020018083116102db57829003601f168201915b5050505050905090565b60003361031081858561057d565b60019150505b92915050565b60003361032a8582856106a2565b61033585858561071c565b506001949350505050565b6000336103108185856103538383610420565b61035d9190610db5565b61057d565b600061036e83836108c7565b50600192915050565b60606037805461027f90610d7b565b600061036e8383610989565b600033816103a08286610420565b9050838110156104055760405162461bcd60e51b815260206004820152602560248201527f45524332303a2064656372656173656420616c6c6f77616e63652062656c6f77604482015264207a65726f60d81b60648201526084015b60405180910390fd5b610335828686840361057d565b60003361031081858561071c565b6001600160a01b03918216600090815260346020908152604080832093909416825291909152205490565b600054610100900460ff161580801561046b5750600054600160ff909116105b806104855750303b158015610485575060005460ff166001145b6104e85760405162461bcd60e51b815260206004820152602e60248201527f496e697469616c697a61626c653a20636f6e747261637420697320616c72656160448201526d191e481a5b9a5d1a585b1a5e995960921b60648201526084016103fc565b6000805460ff19166001179055801561050b576000805461ff0019166101001790555b6105158484610aba565b606580546001600160a01b0319166001600160a01b0387161790558015610576576000805461ff0019169055604051600181527f7f26b83ff96e1f2b6a682f133852f6798a09c465da95921460cefb38474024989060200160405180910390a15b5050505050565b6001600160a01b0383166105df5760405162461bcd60e51b8152602060048201526024808201527f45524332303a20617070726f76652066726f6d20746865207a65726f206164646044820152637265737360e01b60648201526084016103fc565b6001600160a01b0382166106405760405162461bcd60e51b815260206004820152602260248201527f45524332303a20617070726f766520746f20746865207a65726f206164647265604482015261737360f01b60648201526084016103fc565b6001600160a01b0383811660008181526034602090815260408083209487168084529482529182902085905590518481527f8c5be1e5ebec7d5bd14f71427d1e84f3dd0314c0f7b2291e5b200ac8c7c3b92591015b60405180910390a3505050565b60006106ae8484610420565b9050600019811461071657818110156107095760405162461bcd60e51b815260206004820152601d60248201527f45524332303a20696e73756666696369656e7420616c6c6f77616e636500000060448201526064016103fc565b610716848484840361057d565b50505050565b6001600160a01b0383166107805760405162461bcd60e51b815260206004820152602560248201527f45524332303a207472616e736665722066726f6d20746865207a65726f206164604482015264647265737360d81b60648201526084016103fc565b6001600160a01b0382166107e25760405162461bcd60e51b815260206004820152602360248201527f45524332303a207472616e7366657220746f20746865207a65726f206164647260448201526265737360e81b60648201526084016103fc565b6001600160a01b0383166000908152603360205260409020548181101561085a5760405162461bcd60e51b815260206004820152602660248201527f45524332303a207472616e7366657220616d6f756e7420657863656564732062604482015265616c616e636560d01b60648201526084016103fc565b6001600160a01b0380851660008181526033602052604080822086860390559286168082529083902080548601905591517fddf252ad1be2c89b69c2b068fc378daa952ba7f163c4a11628f55a4df523b3ef906108ba9086815260200190565b60405180910390a3610716565b6001600160a01b03821661091d5760405162461bcd60e51b815260206004820152601f60248201527f45524332303a206d696e7420746f20746865207a65726f20616464726573730060448201526064016103fc565b806035600082825461092f9190610db5565b90915550506001600160a01b0382166000818152603360209081526040808320805486019055518481527fddf252ad1be2c89b69c2b068fc378daa952ba7f163c4a11628f55a4df523b3ef910160405180910390a35b5050565b6001600160a01b0382166109e95760405162461bcd60e51b815260206004820152602160248201527f45524332303a206275726e2066726f6d20746865207a65726f206164647265736044820152607360f81b60648201526084016103fc565b6001600160a01b03821660009081526033602052604090205481811015610a5d5760405162461bcd60e51b815260206004820152602260248201527f45524332303a206275726e20616d6f756e7420657863656564732062616c616e604482015261636560f01b60648201526084016103fc565b6001600160a01b03831660008181526033602090815260408083208686039055603580548790039055518581529192917fddf252ad1be2c89b69c2b068fc378daa952ba7f163c4a11628f55a4df523b3ef9101610695565b505050565b600054610100900460ff16610ae15760405162461bcd60e51b81526004016103fc90610dd6565b6109858282600054610100900460ff16610b0d5760405162461bcd60e51b81526004016103fc90610dd6565b6036610b198382610e6f565b506037610ab58282610e6f565b600060208083528351808285015260005b81811015610b5357858101830151858201604001528201610b37565b506000604082860101526040601f19601f8301168501019250505092915050565b80356001600160a01b0381168114610b8b57600080fd5b919050565b60008060408385031215610ba357600080fd5b610bac83610b74565b946020939093013593505050565b600080600060608486031215610bcf57600080fd5b610bd884610b74565b9250610be660208501610b74565b9150604084013590509250925092565b600060208284031215610c0857600080fd5b610c1182610b74565b9392505050565b60008060408385031215610c2b57600080fd5b610c3483610b74565b9150610c4260208401610b74565b90509250929050565b634e487b7160e01b600052604160045260246000fd5b600082601f830112610c7257600080fd5b813567ffffffffffffffff80821115610c8d57610c8d610c4b565b604051601f8301601f19908116603f01168101908282118183101715610cb557610cb5610c4b565b81604052838152866020858801011115610cce57600080fd5b836020870160208301376000602085830101528094505050505092915050565b60008060008060808587031215610d0457600080fd5b610d0d85610b74565b9350602085013567ffffffffffffffff80821115610d2a57600080fd5b610d3688838901610c61565b94506040870135915080821115610d4c57600080fd5b50610d5987828801610c61565b925050606085013560ff81168114610d7057600080fd5b939692955090935050565b600181811c90821680610d8f57607f821691505b602082108103610daf57634e487b7160e01b600052602260045260246000fd5b50919050565b8082018082111561031657634e487b7160e01b600052601160045260246000fd5b6020808252602b908201527f496e697469616c697a61626c653a20636f6e7472616374206973206e6f74206960408201526a6e697469616c697a696e6760a81b606082015260800190565b601f821115610ab557600081815260208120601f850160051c81016020861015610e485750805b601f850160051c820191505b81811015610e6757828155600101610e54565b505050505050565b815167ffffffffffffffff811115610e8957610e89610c4b565b610e9d81610e978454610d7b565b84610e21565b602080601f831160018114610ed25760008415610eba5750858301515b600019600386901b1c1916600185901b178555610e67565b600085815260208120601f198616915b82811015610f0157888601518255948401946001909101908401610ee2565b5085821015610f1f5787850151600019600388901b60f8161c191681555b5050505050600190811b0190555056fea26469706673582212208c40b93878f9d72be2980ed5bf9e0d6bc4c182d1facd5cfb9345b005ff4e437164736f6c63430008130033","linkReferences":{}},"methodIdentifiers":{"allowance(address,address)":"dd62ed3e","approve(address,uint256)":"095ea7b3","balanceOf(address)":"70a08231","bridge()":"e78cea92","burn(address,uint256)":"9dc29fac","decimals()":"313ce567","decreaseAllowance(address,uint256)":"a457c2d7","increaseAllowance(address,uint256)":"39509351","initialize(address,string,string,uint8)":"f6d2ee86","mint(address,uint256)":"40c10f19","name()":"06fdde03","rootToken()":"1f2d0065","symbol()":"95d89b41","totalSupply()":"18160ddd","transfer(address,uint256)":"a9059cbb","transferFrom(address,address,uint256)":"23b872dd"},"id":78}