{"abi":[{"type":"constructor","inputs":[{"name":"_gateway","type":"address","internalType":"address"},{"name":"_initializerAddress","type":"address","internalType":"address"}],"stateMutability":"nonpayable"},{"type":"function","name":"BRIDGE_MANAGER_ROLE","inputs":[],"outputs":[{"name":"","type":"bytes32","internalType":"bytes32"}],"stateMutability":"view"},{"type":"function","name":"DEFAULT_ADMIN_ROLE","inputs":[],"outputs":[{"name":"","type":"bytes32","internalType":"bytes32"}],"stateMutability":"view"},{"type":"function","name":"GAS_SERVICE_MANAGER_ROLE","inputs":[],"outputs":[{"name":"","type":"bytes32","internalType":"bytes32"}],"stateMutability":"view"},{"type":"function","name":"TARGET_MANAGER_ROLE","inputs":[],"outputs":[{"name":"","type":"bytes32","internalType":"bytes32"}],"stateMutability":"view"},{"type":"function","name":"childBridge","inputs":[],"outputs":[{"name":"","type":"address","internalType":"contract IChildERC20Bridge"}],"stateMutability":"view"},{"type":"function","name":"execute","inputs":[{"name":"commandId","type":"bytes32","internalType":"bytes32"},{"name":"sourceChain","type":"string","internalType":"string"},{"name":"sourceAddress","type":"string","internalType":"string"},{"name":"payload","type":"bytes","internalType":"bytes"}],"outputs":[],"stateMutability":"nonpayable"},{"type":"function","name":"executeWithToken","inputs":[{"name":"commandId","type":"bytes32","internalType":"bytes32"},{"name":"sourceChain","type":"string","internalType":"string"},{"name":"sourceAddress","type":"string","internalType":"string"},{"name":"payload","type":"bytes","internalType":"bytes"},{"name":"tokenSymbol","type":"string","internalType":"string"},{"name":"amount","type":"uint256","internalType":"uint256"}],"outputs":[],"stateMutability":"nonpayable"},{"type":"function","name":"gasService","inputs":[],"outputs":[{"name":"","type":"address","internalType":"contract IAxelarGasService"}],"stateMutability":"view"},{"type":"function","name":"gateway","inputs":[],"outputs":[{"name":"","type":"address","internalType":"contract IAxelarGateway"}],"stateMutability":"view"},{"type":"function","name":"getRoleAdmin","inputs":[{"name":"role","type":"bytes32","internalType":"bytes32"}],"outputs":[{"name":"","type":"bytes32","internalType":"bytes32"}],"stateMutability":"view"},{"type":"function","name":"grantBridgeManagerRole","inputs":[{"name":"account","type":"address","internalType":"address"}],"outputs":[],"stateMutability":"nonpayable"},{"type":"function","name":"grantGasServiceManagerRole","inputs":[{"name":"account","type":"address","internalType":"address"}],"outputs":[],"stateMutability":"nonpayable"},{"type":"function","name":"grantRole","inputs":[{"name":"role","type":"bytes32","internalType":"bytes32"},{"name":"account","type":"address","internalType":"address"}],"outputs":[],"stateMutability":"nonpayable"},{"type":"function","name":"grantTargetManagerRole","inputs":[{"name":"account","type":"address","internalType":"address"}],"outputs":[],"stateMutability":"nonpayable"},{"type":"function","name":"hasRole","inputs":[{"name":"role","type":"bytes32","internalType":"bytes32"},{"name":"account","type":"address","internalType":"address"}],"outputs":[{"name":"","type":"bool","internalType":"bool"}],"stateMutability":"view"},{"type":"function","name":"initialize","inputs":[{"name":"_adaptorRoles","type":"tuple","internalType":"struct IChildAxelarBridgeAdaptor.InitializationRoles","components":[{"name":"defaultAdmin","type":"address","internalType":"address"},{"name":"bridgeManager","type":"address","internalType":"address"},{"name":"gasServiceManager","type":"address","internalType":"address"},{"name":"targetManager","type":"address","internalType":"address"}]},{"name":"_childBridge","type":"address","internalType":"address"},{"name":"_rootChainId","type":"string","internalType":"string"},{"name":"_rootBridgeAdaptor","type":"string","internalType":"string"},{"name":"_gasService","type":"address","internalType":"address"}],"outputs":[],"stateMutability":"nonpayable"},{"type":"function","name":"initializerAddress","inputs":[],"outputs":[{"name":"","type":"address","internalType":"address"}],"stateMutability":"view"},{"type":"function","name":"renounceRole","inputs":[{"name":"role","type":"bytes32","internalType":"bytes32"},{"name":"account","type":"address","internalType":"address"}],"outputs":[],"stateMutability":"nonpayable"},{"type":"function","name":"revokeBridgeManagerRole","inputs":[{"name":"account","type":"address","internalType":"address"}],"outputs":[],"stateMutability":"nonpayable"},{"type":"function","name":"revokeGasServiceManagerRole","inputs":[{"name":"account","type":"address","internalType":"address"}],"outputs":[],"stateMutability":"nonpayable"},{"type":"function","name":"revokeRole","inputs":[{"name":"role","type":"bytes32","internalType":"bytes32"},{"name":"account","type":"address","internalType":"address"}],"outputs":[],"stateMutability":"nonpayable"},{"type":"function","name":"revokeTargetManagerRole","inputs":[{"name":"account","type":"address","internalType":"address"}],"outputs":[],"stateMutability":"nonpayable"},{"type":"function","name":"rootBridgeAdaptor","inputs":[],"outputs":[{"name":"","type":"string","internalType":"string"}],"stateMutability":"view"},{"type":"function","name":"rootChainId","inputs":[],"outputs":[{"name":"","type":"string","internalType":"string"}],"stateMutability":"view"},{"type":"function","name":"sendMessage","inputs":[{"name":"payload","type":"bytes","internalType":"bytes"},{"name":"refundRecipient","type":"address","internalType":"address"}],"outputs":[],"stateMutability":"payable"},{"type":"function","name":"supportsInterface","inputs":[{"name":"interfaceId","type":"bytes4","internalType":"bytes4"}],"outputs":[{"name":"","type":"bool","internalType":"bool"}],"stateMutability":"view"},{"type":"function","name":"updateChildBridge","inputs":[{"name":"newChildBridge","type":"address","internalType":"address"}],"outputs":[],"stateMutability":"nonpayable"},{"type":"function","name":"updateGasService","inputs":[{"name":"newGasService","type":"address","internalType":"address"}],"outputs":[],"stateMutability":"nonpayable"},{"type":"function","name":"updateRootBridgeAdaptor","inputs":[{"name":"newRootBridgeAdaptor","type":"string","internalType":"string"}],"outputs":[],"stateMutability":"nonpayable"},{"type":"function","name":"updateRootChain","inputs":[{"name":"newRootChain","type":"string","internalType":"string"}],"outputs":[],"stateMutability":"nonpayable"},{"type":"event","name":"AdaptorExecute","inputs":[{"name":"sourceChain","type":"string","indexed":false,"internalType":"string"},{"name":"sourceAddress_","type":"string","indexed":false,"internalType":"string"},{"name":"payload_","type":"bytes","indexed":false,"internalType":"bytes"}],"anonymous":false},{"type":"event","name":"AxelarMessageSent","inputs":[{"name":"rootChain","type":"string","indexed":true,"internalType":"string"},{"name":"rootBridgeAdaptor","type":"string","indexed":true,"internalType":"string"},{"name":"payload","type":"bytes","indexed":true,"internalType":"bytes"}],"anonymous":false},{"type":"event","name":"ChildBridgeUpdated","inputs":[{"name":"oldRootBridge","type":"address","indexed":true,"internalType":"address"},{"name":"newRootBridge","type":"address","indexed":true,"internalType":"address"}],"anonymous":false},{"type":"event","name":"GasServiceUpdated","inputs":[{"name":"oldGasService","type":"address","indexed":true,"internalType":"address"},{"name":"newGasService","type":"address","indexed":true,"internalType":"address"}],"anonymous":false},{"type":"event","name":"Initialized","inputs":[{"name":"version","type":"uint8","indexed":false,"internalType":"uint8"}],"anonymous":false},{"type":"event","name":"RoleAdminChanged","inputs":[{"name":"role","type":"bytes32","indexed":true,"internalType":"bytes32"},{"name":"previousAdminRole","type":"bytes32","indexed":true,"internalType":"bytes32"},{"name":"newAdminRole","type":"bytes32","indexed":true,"internalType":"bytes32"}],"anonymous":false},{"type":"event","name":"RoleGranted","inputs":[{"name":"role","type":"bytes32","indexed":true,"internalType":"bytes32"},{"name":"account","type":"address","indexed":true,"internalType":"address"},{"name":"sender","type":"address","indexed":true,"internalType":"address"}],"anonymous":false},{"type":"event","name":"RoleRevoked","inputs":[{"name":"role","type":"bytes32","indexed":true,"internalType":"bytes32"},{"name":"account","type":"address","indexed":true,"internalType":"address"},{"name":"sender","type":"address","indexed":true,"internalType":"address"}],"anonymous":false},{"type":"event","name":"RootBridgeAdaptorUpdated","inputs":[{"name":"oldRootBridgeAdaptor","type":"string","indexed":false,"internalType":"string"},{"name":"newRootBridgeAdaptor","type":"string","indexed":false,"internalType":"string"}],"anonymous":false},{"type":"event","name":"RootChainUpdated","inputs":[{"name":"oldChildChain","type":"string","indexed":true,"internalType":"string"},{"name":"newChildChain","type":"string","indexed":true,"internalType":"string"}],"anonymous":false},{"type":"error","name":"CallerNotBridge","inputs":[]},{"type":"error","name":"InvalidAddress","inputs":[]},{"type":"error","name":"InvalidRootBridgeAdaptor","inputs":[]},{"type":"error","name":"InvalidRootChain","inputs":[]},{"type":"error","name":"InvalidSourceAddress","inputs":[]},{"type":"error","name":"InvalidSourceChain","inputs":[]},{"type":"error","name":"NoGas","inputs":[]},{"type":"error","name":"NotApprovedByGateway","inputs":[]},{"type":"error","name":"UnauthorizedInitializer","inputs":[]},{"type":"error","name":"UnsupportedOperation","inputs":[]},{"type":"error","name":"ZeroAddress","inputs":[]}],"bytecode":{"object":"0x60c06040523480156200001157600080fd5b5060405162002430380380620024308339810160408190526200003491620000bb565b816001600160a01b0381166200005d5760405163e6c4247b60e01b815260040160405180910390fd5b6001600160a01b0390811660805281166200008b5760405163d92e233d60e01b815260040160405180910390fd5b6001600160a01b031660a05250620000f3565b80516001600160a01b0381168114620000b657600080fd5b919050565b60008060408385031215620000cf57600080fd5b620000da836200009e565b9150620000ea602084016200009e565b90509250929050565b60805160a0516122fb620001356000396000818161055301526109400152600081816102510152818161065401528181610c4a015261110801526122fb6000f3fe6080604052600436106101cd5760003560e01c80636a22d8cc116100f7578063bd65599211610095578063e538c88a11610064578063e538c88a14610575578063f20755ba14610597578063f75e8512146105aa578063fab10bd6146105cc57600080fd5b8063bd655992146104df578063c50f763a146104ff578063d547741f14610521578063d6dc0b0d1461054157600080fd5b80638f2e3f38116100d15780638f2e3f381461046a57806391d148541461048a57806396d220ce146104aa578063a217fddf146104ca57600080fd5b80636a22d8cc1461040a5780637d9da79b1461042a5780638e6444a81461044a57600080fd5b80632f6a1e141161016f57806343153d9d1161013e57806343153d9d1461039557806349160658146103b5578063499fa04b146103d557806349ffc2e8146103ea57600080fd5b80632f6a1e141461031357806336568abe14610335578063381fe249146103555780633bed20e81461037557600080fd5b80631a98b2e0116101ab5780631a98b2e0146102735780631eed514814610295578063248a9ca3146102b55780632f2ff15d146102f357600080fd5b806301ffc9a7146101d25780630c1fc0ef14610207578063116191b61461023f575b600080fd5b3480156101de57600080fd5b506101f26101ed366004611804565b6105ec565b60405190151581526020015b60405180910390f35b34801561021357600080fd5b5060c954610227906001600160a01b031681565b6040516001600160a01b0390911681526020016101fe565b34801561024b57600080fd5b506102277f000000000000000000000000000000000000000000000000000000000000000081565b34801561027f57600080fd5b5061029361028e366004611877565b610623565b005b3480156102a157600080fd5b506102936102b036600461196d565b610717565b3480156102c157600080fd5b506102e56102d0366004611988565b60009081526065602052604090206001015490565b6040519081526020016101fe565b3480156102ff57600080fd5b5061029361030e3660046119a1565b61073e565b34801561031f57600080fd5b50610328610768565b6040516101fe9190611a1d565b34801561034157600080fd5b506102936103503660046119a1565b6107f6565b34801561036157600080fd5b50610293610370366004611afc565b610875565b34801561038157600080fd5b5061029361039036600461196d565b610b5a565b3480156103a157600080fd5b506102936103b036600461196d565b610bf6565b3480156103c157600080fd5b506102936103d0366004611be0565b610c19565b3480156103e157600080fd5b50610328610d01565b3480156103f657600080fd5b5061029361040536600461196d565b610d0e565b34801561041657600080fd5b5060cc54610227906001600160a01b031681565b34801561043657600080fd5b5061029361044536600461196d565b610daa565b34801561045657600080fd5b5061029361046536600461196d565b610dcd565b34801561047657600080fd5b50610293610485366004611c84565b610df0565b34801561049657600080fd5b506101f26104a53660046119a1565b610e8b565b3480156104b657600080fd5b506102936104c536600461196d565b610eb6565b3480156104d657600080fd5b506102e5600081565b3480156104eb57600080fd5b506102936104fa36600461196d565b610ed9565b34801561050b57600080fd5b506102e56000805160206122a683398151915281565b34801561052d57600080fd5b5061029361053c3660046119a1565b610ef8565b34801561054d57600080fd5b506102277f000000000000000000000000000000000000000000000000000000000000000081565b34801561058157600080fd5b506102e560008051602061226683398151915281565b6102936105a5366004611cc1565b610f1d565b3480156105b657600080fd5b506102e560008051602061228683398151915281565b3480156105d857600080fd5b506102936105e7366004611c84565b6111eb565b60006001600160e01b03198216637965db0b60e01b148061061d57506301ffc9a760e01b6001600160e01b03198316145b92915050565b60008585604051610635929190611d15565b604051908190038120631876eed960e01b825291506001600160a01b037f00000000000000000000000000000000000000000000000000000000000000001690631876eed990610699908e908e908e908e908e9089908d908d908d90600401611d4e565b6020604051808303816000875af11580156106b8573d6000803e3d6000fd5b505050506040513d601f19601f820116820180604052508101906106dc9190611dad565b6106f957604051631403112d60e21b815260040160405180910390fd5b61070a8a8a8a8a8a8a8a8a8a61126b565b5050505050505050505050565b600061072281611284565b61073a6000805160206122868339815191528361073e565b5050565b60008281526065602052604090206001015461075981611284565b6107638383611291565b505050565b60ca805461077590611dcf565b80601f01602080910402602001604051908101604052809291908181526020018280546107a190611dcf565b80156107ee5780601f106107c3576101008083540402835291602001916107ee565b820191906000526020600020905b8154815290600101906020018083116107d157829003601f168201915b505050505081565b6001600160a01b038116331461086b5760405162461bcd60e51b815260206004820152602f60248201527f416363657373436f6e74726f6c3a2063616e206f6e6c792072656e6f756e636560448201526e103937b632b9903337b91039b2b63360891b60648201526084015b60405180910390fd5b61073a8282611317565b600054610100900460ff16158080156108955750600054600160ff909116105b806108af5750303b1580156108af575060005460ff166001145b6109125760405162461bcd60e51b815260206004820152602e60248201527f496e697469616c697a61626c653a20636f6e747261637420697320616c72656160448201526d191e481a5b9a5d1a585b1a5e995960921b6064820152608401610862565b6000805460ff191660011790558015610935576000805461ff0019166101001790555b336001600160a01b037f0000000000000000000000000000000000000000000000000000000000000000161461097e57604051630d622feb60e01b815260040160405180910390fd5b6001600160a01b038516158061099b57506001600160a01b038216155b806109ae575085516001600160a01b0316155b806109c4575060208601516001600160a01b0316155b806109da575060408601516001600160a01b0316155b806109f0575060608601516001600160a01b0316155b15610a0e5760405163d92e233d60e01b815260040160405180910390fd5b8351600003610a305760405163087a1c6960e21b815260040160405180910390fd5b8251600003610a52576040516368dd592360e01b815260040160405180910390fd5b610a5a61137e565b8551610a6890600090611291565b610a846000805160206122868339815191528760200151611291565b610aa06000805160206122a68339815191528760400151611291565b610abc6000805160206122668339815191528760600151611291565b60c980546001600160a01b0319166001600160a01b03871617905560ca610ae38582611e4f565b5060cb610af08482611e4f565b5060cc80546001600160a01b0319166001600160a01b0384161790558015610b52576000805461ff0019169055604051600181527f7f26b83ff96e1f2b6a682f133852f6798a09c465da95921460cefb38474024989060200160405180910390a15b505050505050565b6000805160206122a6833981519152610b7281611284565b6001600160a01b038216610b995760405163d92e233d60e01b815260040160405180910390fd5b60cc546040516001600160a01b038085169216907fc16c19ecf2c72224b11dd867b8c81155fff05406123934f2b168e6c2e5521e4e90600090a35060cc80546001600160a01b0319166001600160a01b0392909216919091179055565b6000610c0181611284565b61073a6000805160206122a68339815191528361073e565b60008282604051610c2b929190611d15565b604051908190038120635f6970c360e01b825291506001600160a01b037f00000000000000000000000000000000000000000000000000000000000000001690635f6970c390610c89908b908b908b908b908b908990600401611f0f565b6020604051808303816000875af1158015610ca8573d6000803e3d6000fd5b505050506040513d601f19601f82011682018060405250810190610ccc9190611dad565b610ce957604051631403112d60e21b815260040160405180910390fd5b610cf78787878787876113eb565b5050505050505050565b60cb805461077590611dcf565b600080516020612286833981519152610d2681611284565b6001600160a01b038216610d4d5760405163d92e233d60e01b815260040160405180910390fd5b60c9546040516001600160a01b038085169216907f6f9636437788a7aad31d253f799dcbecaad643e4648745d94edb8a764304222290600090a35060c980546001600160a01b0319166001600160a01b0392909216919091179055565b6000610db581611284565b61073a60008051602061228683398151915283610ef8565b6000610dd881611284565b61073a60008051602061226683398151915283610ef8565b600080516020612266833981519152610e0881611284565b8151600003610e2a5760405163087a1c6960e21b815260040160405180910390fd5b81604051610e389190611f50565b604051809103902060ca604051610e4f9190611f6c565b604051908190038120907f6183be9e012a3957bddf0c0472947a53b2e977a12c84e8bfef63b8783d5c90d490600090a360ca6107638382611e4f565b60009182526065602090815260408084206001600160a01b0393909316845291905290205460ff1690565b6000610ec181611284565b61073a6000805160206122668339815191528361073e565b6000610ee481611284565b61073a6000805160206122a6833981519152835b600082815260656020526040902060010154610f1381611284565b6107638383611317565b34600003610f3e57604051631d3e008d60e21b815260040160405180910390fd5b60c9546001600160a01b03163314610f695760405163356a0b3d60e21b815260040160405180910390fd5b600060cb8054610f7890611dcf565b80601f0160208091040260200160405190810160405280929190818152602001828054610fa490611dcf565b8015610ff15780601f10610fc657610100808354040283529160200191610ff1565b820191906000526020600020905b815481529060010190602001808311610fd457829003601f168201915b50505050509050600060ca805461100790611dcf565b80601f016020809104026020016040519081016040528092919081815260200182805461103390611dcf565b80156110805780601f1061105557610100808354040283529160200191611080565b820191906000526020600020905b81548152906001019060200180831161106357829003601f168201915b505060cc54604051630c93e3bb60e01b81529495506001600160a01b031693630c93e3bb93503492506110c291503090869088908c908c908c90600401611fe2565b6000604051808303818588803b1580156110db57600080fd5b505af11580156110ef573d6000803e3d6000fd5b5050604051631c92115f60e01b81526001600160a01b037f0000000000000000000000000000000000000000000000000000000000000000169350631c92115f92506111469150849086908a908a90600401612042565b600060405180830381600087803b15801561116057600080fd5b505af1158015611174573d6000803e3d6000fd5b505050508484604051611188929190611d15565b60405180910390208260405161119e9190611f50565b6040518091039020826040516111b49190611f50565b604051908190038120907f4106fee90ed8efa9447954d90d963ce701bd49555bb6ac0878b19c1bb3d8207b90600090a45050505050565b60008051602061226683398151915261120381611284565b8151600003611225576040516368dd592360e01b815260040160405180910390fd5b7f99d62259a88b02f03c74040e7674052de98b7528940946348effa5ce0de0ae4160cb83604051611257929190612087565b60405180910390a160cb6107638382611e4f565b604051639ba6061b60e01b815260040160405180910390fd5b61128e81336115f6565b50565b61129b8282610e8b565b61073a5760008281526065602090815260408083206001600160a01b03851684529091529020805460ff191660011790556112d33390565b6001600160a01b0316816001600160a01b0316837f2f8788117e7eff1d82e926ec794901d17c78024a50270940304540a733656f0d60405160405180910390a45050565b6113218282610e8b565b1561073a5760008281526065602090815260408083206001600160a01b0385168085529252808320805460ff1916905551339285917ff6391f5c32d9c69d2a47ea670b442974b53935d1edc7fd64eb21e047a839171b9190a45050565b600054610100900460ff166113e95760405162461bcd60e51b815260206004820152602b60248201527f496e697469616c697a61626c653a20636f6e7472616374206973206e6f74206960448201526a6e697469616c697a696e6760a81b6064820152608401610862565b565b6114c786868080601f0160208091040260200160405190810160405280939291908181526020018383808284376000920191909152505060ca80549092506114339150611dcf565b80601f016020809104026020016040519081016040528092919081815260200182805461145f90611dcf565b80156114ac5780601f10611481576101008083540402835291602001916114ac565b820191906000526020600020905b81548152906001019060200180831161148f57829003601f168201915b50505050508051602091820120825192909101919091201490565b6114e457604051639284b19760e01b815260040160405180910390fd5b61152c84848080601f0160208091040260200160405190810160405280939291908181526020018383808284376000920191909152505060cb80549092506114339150611dcf565b6115495760405163063ce8cd60e31b815260040160405180910390fd5b7f8f0fcb451a538667ff38e9d1315b5c5c2139ef2dc620c3577a8106ea734fc3a886868686868660405161158296959493929190612126565b60405180910390a160c954604051631c9231df60e21b81526001600160a01b0390911690637248c77c906115bc908590859060040161216f565b600060405180830381600087803b1580156115d657600080fd5b505af11580156115ea573d6000803e3d6000fd5b50505050505050505050565b6116008282610e8b565b61073a5761160d8161164f565b611618836020611661565b604051602001611629929190612183565b60408051601f198184030181529082905262461bcd60e51b825261086291600401611a1d565b606061061d6001600160a01b03831660145b6060600061167083600261220e565b61167b906002612225565b67ffffffffffffffff81111561169357611693611a30565b6040519080825280601f01601f1916602001820160405280156116bd576020820181803683370190505b509050600360fc1b816000815181106116d8576116d8612238565b60200101906001600160f81b031916908160001a905350600f60fb1b8160018151811061170757611707612238565b60200101906001600160f81b031916908160001a905350600061172b84600261220e565b611736906001612225565b90505b60018111156117ae576f181899199a1a9b1b9c1cb0b131b232b360811b85600f166010811061176a5761176a612238565b1a60f81b82828151811061178057611780612238565b60200101906001600160f81b031916908160001a90535060049490941c936117a78161224e565b9050611739565b5083156117fd5760405162461bcd60e51b815260206004820181905260248201527f537472696e67733a20686578206c656e67746820696e73756666696369656e746044820152606401610862565b9392505050565b60006020828403121561181657600080fd5b81356001600160e01b0319811681146117fd57600080fd5b60008083601f84011261184057600080fd5b50813567ffffffffffffffff81111561185857600080fd5b60208301915083602082850101111561187057600080fd5b9250929050565b60008060008060008060008060008060c08b8d03121561189657600080fd5b8a35995060208b013567ffffffffffffffff808211156118b557600080fd5b6118c18e838f0161182e565b909b50995060408d01359150808211156118da57600080fd5b6118e68e838f0161182e565b909950975060608d01359150808211156118ff57600080fd5b61190b8e838f0161182e565b909750955060808d013591508082111561192457600080fd5b506119318d828e0161182e565b9150809450508092505060a08b013590509295989b9194979a5092959850565b80356001600160a01b038116811461196857600080fd5b919050565b60006020828403121561197f57600080fd5b6117fd82611951565b60006020828403121561199a57600080fd5b5035919050565b600080604083850312156119b457600080fd5b823591506119c460208401611951565b90509250929050565b60005b838110156119e85781810151838201526020016119d0565b50506000910152565b60008151808452611a098160208601602086016119cd565b601f01601f19169290920160200192915050565b6020815260006117fd60208301846119f1565b634e487b7160e01b600052604160045260246000fd5b6040516080810167ffffffffffffffff81118282101715611a6957611a69611a30565b60405290565b600082601f830112611a8057600080fd5b813567ffffffffffffffff80821115611a9b57611a9b611a30565b604051601f8301601f19908116603f01168101908282118183101715611ac357611ac3611a30565b81604052838152866020858801011115611adc57600080fd5b836020870160208301376000602085830101528094505050505092915050565b6000806000806000858703610100811215611b1657600080fd5b6080811215611b2457600080fd5b50611b2d611a46565b611b3687611951565b8152611b4460208801611951565b6020820152611b5560408801611951565b6040820152611b6660608801611951565b60608201529450611b7960808701611951565b935060a086013567ffffffffffffffff80821115611b9657600080fd5b611ba289838a01611a6f565b945060c0880135915080821115611bb857600080fd5b50611bc588828901611a6f565b925050611bd460e08701611951565b90509295509295909350565b60008060008060008060006080888a031215611bfb57600080fd5b87359650602088013567ffffffffffffffff80821115611c1a57600080fd5b611c268b838c0161182e565b909850965060408a0135915080821115611c3f57600080fd5b611c4b8b838c0161182e565b909650945060608a0135915080821115611c6457600080fd5b50611c718a828b0161182e565b989b979a50959850939692959293505050565b600060208284031215611c9657600080fd5b813567ffffffffffffffff811115611cad57600080fd5b611cb984828501611a6f565b949350505050565b600080600060408486031215611cd657600080fd5b833567ffffffffffffffff811115611ced57600080fd5b611cf98682870161182e565b9094509250611d0c905060208501611951565b90509250925092565b8183823760009101908152919050565b81835281816020850137506000828201602090810191909152601f909101601f19169091010190565b89815260c060208201526000611d6860c083018a8c611d25565b8281036040840152611d7b81898b611d25565b90508660608401528281036080840152611d96818688611d25565b9150508260a08301529a9950505050505050505050565b600060208284031215611dbf57600080fd5b815180151581146117fd57600080fd5b600181811c90821680611de357607f821691505b602082108103611e0357634e487b7160e01b600052602260045260246000fd5b50919050565b601f82111561076357600081815260208120601f850160051c81016020861015611e305750805b601f850160051c820191505b81811015610b5257828155600101611e3c565b815167ffffffffffffffff811115611e6957611e69611a30565b611e7d81611e778454611dcf565b84611e09565b602080601f831160018114611eb25760008415611e9a5750858301515b600019600386901b1c1916600185901b178555610b52565b600085815260208120601f198616915b82811015611ee157888601518255948401946001909101908401611ec2565b5085821015611eff5787850151600019600388901b60f8161c191681555b5050505050600190811b01905550565b868152608060208201526000611f29608083018789611d25565b8281036040840152611f3c818688611d25565b915050826060830152979650505050505050565b60008251611f628184602087016119cd565b9190910192915050565b6000808354611f7a81611dcf565b60018281168015611f925760018114611fa757611fd6565b60ff1984168752821515830287019450611fd6565b8760005260208060002060005b85811015611fcd5781548a820152908401908201611fb4565b50505082870194505b50929695505050505050565b600060018060a01b03808916835260a0602084015261200460a08401896119f1565b838103604085015261201681896119f1565b9050838103606085015261202b818789611d25565b925050808416608084015250979650505050505050565b60608152600061205560608301876119f1565b828103602084015261206781876119f1565b9050828103604084015261207c818587611d25565b979650505050505050565b60408152600080845461209981611dcf565b80604086015260606001808416600081146120bb57600181146120d557612106565b60ff1985168884015283151560051b880183019550612106565b8960005260208060002060005b868110156120fd5781548b82018701529084019082016120e2565b8a018501975050505b5050505050828103602084015261211d81856119f1565b95945050505050565b60608152600061213a60608301888a611d25565b828103602084015261214d818789611d25565b90508281036040840152612162818587611d25565b9998505050505050505050565b602081526000611cb9602083018486611d25565b7f416363657373436f6e74726f6c3a206163636f756e74200000000000000000008152600083516121bb8160178501602088016119cd565b7001034b99036b4b9b9b4b733903937b6329607d1b60179184019182015283516121ec8160288401602088016119cd565b01602801949350505050565b634e487b7160e01b600052601160045260246000fd5b808202811582820484141761061d5761061d6121f8565b8082018082111561061d5761061d6121f8565b634e487b7160e01b600052603260045260246000fd5b60008161225d5761225d6121f8565b50600019019056fe28a0840e09502c63ed1e83b95421995a3ea654657390bb15ac27b2b85aef53b277eacfcb6207f26b72edc4f15c48e5518843e7e98ccfd7e0d6c16f92ed1fef8d2b5bda39c23731c6890b6a6f985ff1c326c66dc20aa14dc2e50fc5ec656ecc35a2646970667358221220fdaf1fe48dfc60bfd10e0934e30f1f22e22a1e34d80933a10ca70978bf5783a964736f6c63430008130033","linkReferences":{}},"methodIdentifiers":{"BRIDGE_MANAGER_ROLE()":"f75e8512","DEFAULT_ADMIN_ROLE()":"a217fddf","GAS_SERVICE_MANAGER_ROLE()":"c50f763a","TARGET_MANAGER_ROLE()":"e538c88a","childBridge()":"0c1fc0ef","execute(bytes32,string,string,bytes)":"49160658","executeWithToken(bytes32,string,string,bytes,string,uint256)":"1a98b2e0","gasService()":"6a22d8cc","gateway()":"116191b6","getRoleAdmin(bytes32)":"248a9ca3","grantBridgeManagerRole(address)":"1eed5148","grantGasServiceManagerRole(address)":"43153d9d","grantRole(bytes32,address)":"2f2ff15d","grantTargetManagerRole(address)":"96d220ce","hasRole(bytes32,address)":"91d14854","initialize((address,address,address,address),address,string,string,address)":"381fe249","initializerAddress()":"d6dc0b0d","renounceRole(bytes32,address)":"36568abe","revokeBridgeManagerRole(address)":"7d9da79b","revokeGasServiceManagerRole(address)":"bd655992","revokeRole(bytes32,address)":"d547741f","revokeTargetManagerRole(address)":"8e6444a8","rootBridgeAdaptor()":"499fa04b","rootChainId()":"2f6a1e14","sendMessage(bytes,address)":"f20755ba","supportsInterface(bytes4)":"01ffc9a7","updateChildBridge(address)":"49ffc2e8","updateGasService(address)":"3bed20e8","updateRootBridgeAdaptor(string)":"fab10bd6","updateRootChain(string)":"8f2e3f38"},"id":52}