{"abi":[{"type":"function","name":"assertFail","inputs":[],"outputs":[],"stateMutability":"pure"}],"bytecode":{"object":"0x6080604052348015600f57600080fd5b5060898061001e6000396000f3fe6080604052348015600f57600080fd5b506004361060285760003560e01c806309ccaefb14602d575b600080fd5b60336035565b005b603b603d565b565b634e487b7160e01b600052600160045260246000fdfea26469706673582212203261b94049ca06378fa463836122ddbb849351f0575eb57441a036b2c722aab464736f6c63430008130033","linkReferences":{}},"methodIdentifiers":{"assertFail()":"09ccaefb"},"id":88}