{"abi":[{"type":"constructor","inputs":[{"name":"_gateway","type":"address","internalType":"address"},{"name":"_initializerAddress","type":"address","internalType":"address"}],"stateMutability":"nonpayable"},{"type":"function","name":"BRIDGE_MANAGER_ROLE","inputs":[],"outputs":[{"name":"","type":"bytes32","internalType":"bytes32"}],"stateMutability":"view"},{"type":"function","name":"DEFAULT_ADMIN_ROLE","inputs":[],"outputs":[{"name":"","type":"bytes32","internalType":"bytes32"}],"stateMutability":"view"},{"type":"function","name":"GAS_SERVICE_MANAGER_ROLE","inputs":[],"outputs":[{"name":"","type":"bytes32","internalType":"bytes32"}],"stateMutability":"view"},{"type":"function","name":"TARGET_MANAGER_ROLE","inputs":[],"outputs":[{"name":"","type":"bytes32","internalType":"bytes32"}],"stateMutability":"view"},{"type":"function","name":"childBridgeAdaptor","inputs":[],"outputs":[{"name":"","type":"string","internalType":"string"}],"stateMutability":"view"},{"type":"function","name":"childChainId","inputs":[],"outputs":[{"name":"","type":"string","internalType":"string"}],"stateMutability":"view"},{"type":"function","name":"execute","inputs":[{"name":"commandId","type":"bytes32","internalType":"bytes32"},{"name":"sourceChain","type":"string","internalType":"string"},{"name":"sourceAddress","type":"string","internalType":"string"},{"name":"payload","type":"bytes","internalType":"bytes"}],"outputs":[],"stateMutability":"nonpayable"},{"type":"function","name":"executeWithToken","inputs":[{"name":"commandId","type":"bytes32","internalType":"bytes32"},{"name":"sourceChain","type":"string","internalType":"string"},{"name":"sourceAddress","type":"string","internalType":"string"},{"name":"payload","type":"bytes","internalType":"bytes"},{"name":"tokenSymbol","type":"string","internalType":"string"},{"name":"amount","type":"uint256","internalType":"uint256"}],"outputs":[],"stateMutability":"nonpayable"},{"type":"function","name":"gasService","inputs":[],"outputs":[{"name":"","type":"address","internalType":"contract IAxelarGasService"}],"stateMutability":"view"},{"type":"function","name":"gateway","inputs":[],"outputs":[{"name":"","type":"address","internalType":"contract IAxelarGateway"}],"stateMutability":"view"},{"type":"function","name":"getRoleAdmin","inputs":[{"name":"role","type":"bytes32","internalType":"bytes32"}],"outputs":[{"name":"","type":"bytes32","internalType":"bytes32"}],"stateMutability":"view"},{"type":"function","name":"grantBridgeManagerRole","inputs":[{"name":"account","type":"address","internalType":"address"}],"outputs":[],"stateMutability":"nonpayable"},{"type":"function","name":"grantGasServiceManagerRole","inputs":[{"name":"account","type":"address","internalType":"address"}],"outputs":[],"stateMutability":"nonpayable"},{"type":"function","name":"grantRole","inputs":[{"name":"role","type":"bytes32","internalType":"bytes32"},{"name":"account","type":"address","internalType":"address"}],"outputs":[],"stateMutability":"nonpayable"},{"type":"function","name":"grantTargetManagerRole","inputs":[{"name":"account","type":"address","internalType":"address"}],"outputs":[],"stateMutability":"nonpayable"},{"type":"function","name":"hasRole","inputs":[{"name":"role","type":"bytes32","internalType":"bytes32"},{"name":"account","type":"address","internalType":"address"}],"outputs":[{"name":"","type":"bool","internalType":"bool"}],"stateMutability":"view"},{"type":"function","name":"initialize","inputs":[{"name":"_adaptorRoles","type":"tuple","internalType":"struct IRootAxelarBridgeAdaptor.InitializationRoles","components":[{"name":"defaultAdmin","type":"address","internalType":"address"},{"name":"bridgeManager","type":"address","internalType":"address"},{"name":"gasServiceManager","type":"address","internalType":"address"},{"name":"targetManager","type":"address","internalType":"address"}]},{"name":"_rootBridge","type":"address","internalType":"address"},{"name":"_childChainId","type":"string","internalType":"string"},{"name":"_childBridgeAdaptor","type":"string","internalType":"string"},{"name":"_gasService","type":"address","internalType":"address"}],"outputs":[],"stateMutability":"nonpayable"},{"type":"function","name":"initializerAddress","inputs":[],"outputs":[{"name":"","type":"address","internalType":"address"}],"stateMutability":"view"},{"type":"function","name":"renounceRole","inputs":[{"name":"role","type":"bytes32","internalType":"bytes32"},{"name":"account","type":"address","internalType":"address"}],"outputs":[],"stateMutability":"nonpayable"},{"type":"function","name":"revokeBridgeManagerRole","inputs":[{"name":"account","type":"address","internalType":"address"}],"outputs":[],"stateMutability":"nonpayable"},{"type":"function","name":"revokeGasServiceManagerRole","inputs":[{"name":"account","type":"address","internalType":"address"}],"outputs":[],"stateMutability":"nonpayable"},{"type":"function","name":"revokeRole","inputs":[{"name":"role","type":"bytes32","internalType":"bytes32"},{"name":"account","type":"address","internalType":"address"}],"outputs":[],"stateMutability":"nonpayable"},{"type":"function","name":"revokeTargetManagerRole","inputs":[{"name":"account","type":"address","internalType":"address"}],"outputs":[],"stateMutability":"nonpayable"},{"type":"function","name":"rootBridge","inputs":[],"outputs":[{"name":"","type":"address","internalType":"contract IRootERC20Bridge"}],"stateMutability":"view"},{"type":"function","name":"sendMessage","inputs":[{"name":"payload","type":"bytes","internalType":"bytes"},{"name":"refundRecipient","type":"address","internalType":"address"}],"outputs":[],"stateMutability":"payable"},{"type":"function","name":"supportsInterface","inputs":[{"name":"interfaceId","type":"bytes4","internalType":"bytes4"}],"outputs":[{"name":"","type":"bool","internalType":"bool"}],"stateMutability":"view"},{"type":"function","name":"updateChildBridgeAdaptor","inputs":[{"name":"newChildBridgeAdaptor","type":"string","internalType":"string"}],"outputs":[],"stateMutability":"nonpayable"},{"type":"function","name":"updateChildChain","inputs":[{"name":"newChildChain","type":"string","internalType":"string"}],"outputs":[],"stateMutability":"nonpayable"},{"type":"function","name":"updateGasService","inputs":[{"name":"newGasService","type":"address","internalType":"address"}],"outputs":[],"stateMutability":"nonpayable"},{"type":"function","name":"updateRootBridge","inputs":[{"name":"newRootBridge","type":"address","internalType":"address"}],"outputs":[],"stateMutability":"nonpayable"},{"type":"event","name":"AdaptorExecute","inputs":[{"name":"sourceChain","type":"string","indexed":false,"internalType":"string"},{"name":"sourceAddress_","type":"string","indexed":false,"internalType":"string"},{"name":"payload_","type":"bytes","indexed":false,"internalType":"bytes"}],"anonymous":false},{"type":"event","name":"AxelarMessageSent","inputs":[{"name":"childChain","type":"string","indexed":true,"internalType":"string"},{"name":"childBridgeAdaptor","type":"string","indexed":true,"internalType":"string"},{"name":"payload","type":"bytes","indexed":true,"internalType":"bytes"}],"anonymous":false},{"type":"event","name":"ChildBridgeAdaptorUpdated","inputs":[{"name":"oldChildBridgeAdaptor","type":"string","indexed":false,"internalType":"string"},{"name":"newChildBridgeAdaptor","type":"string","indexed":false,"internalType":"string"}],"anonymous":false},{"type":"event","name":"ChildChainUpdated","inputs":[{"name":"oldChildChain","type":"string","indexed":true,"internalType":"string"},{"name":"newChildChain","type":"string","indexed":true,"internalType":"string"}],"anonymous":false},{"type":"event","name":"GasServiceUpdated","inputs":[{"name":"oldGasService","type":"address","indexed":true,"internalType":"address"},{"name":"newGasService","type":"address","indexed":true,"internalType":"address"}],"anonymous":false},{"type":"event","name":"Initialized","inputs":[{"name":"version","type":"uint8","indexed":false,"internalType":"uint8"}],"anonymous":false},{"type":"event","name":"RoleAdminChanged","inputs":[{"name":"role","type":"bytes32","indexed":true,"internalType":"bytes32"},{"name":"previousAdminRole","type":"bytes32","indexed":true,"internalType":"bytes32"},{"name":"newAdminRole","type":"bytes32","indexed":true,"internalType":"bytes32"}],"anonymous":false},{"type":"event","name":"RoleGranted","inputs":[{"name":"role","type":"bytes32","indexed":true,"internalType":"bytes32"},{"name":"account","type":"address","indexed":true,"internalType":"address"},{"name":"sender","type":"address","indexed":true,"internalType":"address"}],"anonymous":false},{"type":"event","name":"RoleRevoked","inputs":[{"name":"role","type":"bytes32","indexed":true,"internalType":"bytes32"},{"name":"account","type":"address","indexed":true,"internalType":"address"},{"name":"sender","type":"address","indexed":true,"internalType":"address"}],"anonymous":false},{"type":"event","name":"RootBridgeUpdated","inputs":[{"name":"oldRootBridge","type":"address","indexed":true,"internalType":"address"},{"name":"newRootBridge","type":"address","indexed":true,"internalType":"address"}],"anonymous":false},{"type":"error","name":"CallerNotBridge","inputs":[]},{"type":"error","name":"InvalidAddress","inputs":[]},{"type":"error","name":"InvalidChildBridgeAdaptor","inputs":[]},{"type":"error","name":"InvalidChildChain","inputs":[]},{"type":"error","name":"InvalidSourceAddress","inputs":[]},{"type":"error","name":"InvalidSourceChain","inputs":[]},{"type":"error","name":"NoGas","inputs":[]},{"type":"error","name":"NotApprovedByGateway","inputs":[]},{"type":"error","name":"UnauthorizedInitializer","inputs":[]},{"type":"error","name":"UnsupportedOperation","inputs":[]},{"type":"error","name":"ZeroAddresses","inputs":[]}],"bytecode":{"object":"0x60c06040523480156200001157600080fd5b5060405162002430380380620024308339810160408190526200003491620000bb565b816001600160a01b0381166200005d5760405163e6c4247b60e01b815260040160405180910390fd5b6001600160a01b0390811660805281166200008b57604051630768aaa160e11b815260040160405180910390fd5b6001600160a01b031660a05250620000f3565b80516001600160a01b0381168114620000b657600080fd5b919050565b60008060408385031215620000cf57600080fd5b620000da836200009e565b9150620000ea602084016200009e565b90509250929050565b60805160a0516122fb62000135600039600081816105530152610a5b01526000818161023b0152818161077401528181610d65015261118801526122fb6000f3fe6080604052600436106101cd5760003560e01c80637d9da79b116100f7578063c50f763a11610095578063e4426af411610064578063e4426af414610575578063e538c88a14610595578063f20755ba146105b7578063f75e8512146105ca57600080fd5b8063c50f763a146104df578063cdea7c7014610501578063d547741f14610521578063d6dc0b0d1461054157600080fd5b806396d220ce116100d157806396d220ce14610475578063a217fddf14610495578063b14b0f56146104aa578063bd655992146104bf57600080fd5b80637d9da79b146104155780638e6444a81461043557806391d148541461045557600080fd5b806329529c0e1161016f5780633bed20e81161013e5780633bed20e81461039557806343153d9d146103b557806349160658146103d55780636a22d8cc146103f557600080fd5b806329529c0e146103135780632f2ff15d1461033557806336568abe14610355578063381fe2491461037557600080fd5b806317a0e3e2116101ab57806317a0e3e2146102755780631a98b2e0146102955780631eed5148146102b5578063248a9ca3146102d557600080fd5b806301ffc9a7146101d25780630bbf376614610207578063116191b614610229575b600080fd5b3480156101de57600080fd5b506101f26101ed366004611804565b6105ec565b60405190151581526020015b60405180910390f35b34801561021357600080fd5b506102276102223660046118fa565b610623565b005b34801561023557600080fd5b5061025d7f000000000000000000000000000000000000000000000000000000000000000081565b6040516001600160a01b0390911681526020016101fe565b34801561028157600080fd5b506102276102903660046118fa565b6106a8565b3480156102a157600080fd5b506102276102b0366004611980565b610743565b3480156102c157600080fd5b506102276102d0366004611a76565b610837565b3480156102e157600080fd5b506103056102f0366004611a91565b60009081526065602052604090206001015490565b6040519081526020016101fe565b34801561031f57600080fd5b5061032861085e565b6040516101fe9190611afa565b34801561034157600080fd5b50610227610350366004611b0d565b6108ec565b34801561036157600080fd5b50610227610370366004611b0d565b610911565b34801561038157600080fd5b50610227610390366004611b39565b610990565b3480156103a157600080fd5b506102276103b0366004611a76565b610c75565b3480156103c157600080fd5b506102276103d0366004611a76565b610d11565b3480156103e157600080fd5b506102276103f0366004611c1d565b610d34565b34801561040157600080fd5b5060cc5461025d906001600160a01b031681565b34801561042157600080fd5b50610227610430366004611a76565b610e1c565b34801561044157600080fd5b50610227610450366004611a76565b610e3f565b34801561046157600080fd5b506101f2610470366004611b0d565b610e62565b34801561048157600080fd5b50610227610490366004611a76565b610e8d565b3480156104a157600080fd5b50610305600081565b3480156104b657600080fd5b50610328610eb0565b3480156104cb57600080fd5b506102276104da366004611a76565b610ebd565b3480156104eb57600080fd5b506103056000805160206122a683398151915281565b34801561050d57600080fd5b5060c95461025d906001600160a01b031681565b34801561052d57600080fd5b5061022761053c366004611b0d565b610edc565b34801561054d57600080fd5b5061025d7f000000000000000000000000000000000000000000000000000000000000000081565b34801561058157600080fd5b50610227610590366004611a76565b610f01565b3480156105a157600080fd5b5061030560008051602061226683398151915281565b6102276105c5366004611cc1565b610f9d565b3480156105d657600080fd5b5061030560008051602061228683398151915281565b60006001600160e01b03198216637965db0b60e01b148061061d57506301ffc9a760e01b6001600160e01b03198316145b92915050565b60008051602061226683398151915261063b8161126b565b815160000361065d57604051636274539760e01b815260040160405180910390fd5b7ff00ceae7771e0c7402d98016ba8285ce49cecb3bb2f90273db478d0f3e65438360cb8360405161068f929190611d4f565b60405180910390a160cb6106a38382611e34565b505050565b6000805160206122668339815191526106c08161126b565b81516000036106e257604051639ca9321d60e01b815260040160405180910390fd5b816040516106f09190611ef4565b604051809103902060ca6040516107079190611f10565b604051908190038120907f138de77879ae397fdcc02c1ff4bb8615b0e008dfc8c5acee2259569c0f898a5e90600090a360ca6106a38382611e34565b60008585604051610755929190611f86565b604051908190038120631876eed960e01b825291506001600160a01b037f00000000000000000000000000000000000000000000000000000000000000001690631876eed9906107b9908e908e908e908e908e9089908d908d908d90600401611fbf565b6020604051808303816000875af11580156107d8573d6000803e3d6000fd5b505050506040513d601f19601f820116820180604052508101906107fc919061201e565b61081957604051631403112d60e21b815260040160405180910390fd5b61082a8a8a8a8a8a8a8a8a8a611278565b5050505050505050505050565b60006108428161126b565b61085a600080516020612286833981519152836108ec565b5050565b60cb805461086b90611d15565b80601f016020809104026020016040519081016040528092919081815260200182805461089790611d15565b80156108e45780601f106108b9576101008083540402835291602001916108e4565b820191906000526020600020905b8154815290600101906020018083116108c757829003601f168201915b505050505081565b6000828152606560205260409020600101546109078161126b565b6106a38383611291565b6001600160a01b03811633146109865760405162461bcd60e51b815260206004820152602f60248201527f416363657373436f6e74726f6c3a2063616e206f6e6c792072656e6f756e636560448201526e103937b632b9903337b91039b2b63360891b60648201526084015b60405180910390fd5b61085a8282611317565b600054610100900460ff16158080156109b05750600054600160ff909116105b806109ca5750303b1580156109ca575060005460ff166001145b610a2d5760405162461bcd60e51b815260206004820152602e60248201527f496e697469616c697a61626c653a20636f6e747261637420697320616c72656160448201526d191e481a5b9a5d1a585b1a5e995960921b606482015260840161097d565b6000805460ff191660011790558015610a50576000805461ff0019166101001790555b336001600160a01b037f00000000000000000000000000000000000000000000000000000000000000001614610a9957604051630d622feb60e01b815260040160405180910390fd5b6001600160a01b0385161580610ab657506001600160a01b038216155b80610ac9575085516001600160a01b0316155b80610adf575060208601516001600160a01b0316155b80610af5575060408601516001600160a01b0316155b80610b0b575060608601516001600160a01b0316155b15610b2957604051630768aaa160e11b815260040160405180910390fd5b8351600003610b4b57604051639ca9321d60e01b815260040160405180910390fd5b8251600003610b6d57604051636274539760e01b815260040160405180910390fd5b610b7561137e565b8551610b8390600090611291565b610b9f6000805160206122868339815191528760200151611291565b610bbb6000805160206122a68339815191528760400151611291565b610bd76000805160206122668339815191528760600151611291565b60c980546001600160a01b0319166001600160a01b03871617905560ca610bfe8582611e34565b5060cb610c0b8482611e34565b5060cc80546001600160a01b0319166001600160a01b0384161790558015610c6d576000805461ff0019169055604051600181527f7f26b83ff96e1f2b6a682f133852f6798a09c465da95921460cefb38474024989060200160405180910390a15b505050505050565b6000805160206122a6833981519152610c8d8161126b565b6001600160a01b038216610cb457604051630768aaa160e11b815260040160405180910390fd5b60cc546040516001600160a01b038085169216907fc16c19ecf2c72224b11dd867b8c81155fff05406123934f2b168e6c2e5521e4e90600090a35060cc80546001600160a01b0319166001600160a01b0392909216919091179055565b6000610d1c8161126b565b61085a6000805160206122a6833981519152836108ec565b60008282604051610d46929190611f86565b604051908190038120635f6970c360e01b825291506001600160a01b037f00000000000000000000000000000000000000000000000000000000000000001690635f6970c390610da4908b908b908b908b908b908990600401612040565b6020604051808303816000875af1158015610dc3573d6000803e3d6000fd5b505050506040513d601f19601f82011682018060405250810190610de7919061201e565b610e0457604051631403112d60e21b815260040160405180910390fd5b610e128787878787876113eb565b5050505050505050565b6000610e278161126b565b61085a60008051602061228683398151915283610edc565b6000610e4a8161126b565b61085a60008051602061226683398151915283610edc565b60009182526065602090815260408084206001600160a01b0393909316845291905290205460ff1690565b6000610e988161126b565b61085a600080516020612266833981519152836108ec565b60ca805461086b90611d15565b6000610ec88161126b565b61085a6000805160206122a6833981519152835b600082815260656020526040902060010154610ef78161126b565b6106a38383611317565b600080516020612286833981519152610f198161126b565b6001600160a01b038216610f4057604051630768aaa160e11b815260040160405180910390fd5b60c9546040516001600160a01b038085169216907f37d7d7ebc5e6a756792b1189a343a5b15a578581a6c81831c857abc27edefbbd90600090a35060c980546001600160a01b0319166001600160a01b0392909216919091179055565b34600003610fbe57604051631d3e008d60e21b815260040160405180910390fd5b60c9546001600160a01b03163314610fe95760405163356a0b3d60e21b815260040160405180910390fd5b600060cb8054610ff890611d15565b80601f016020809104026020016040519081016040528092919081815260200182805461102490611d15565b80156110715780601f1061104657610100808354040283529160200191611071565b820191906000526020600020905b81548152906001019060200180831161105457829003601f168201915b50505050509050600060ca805461108790611d15565b80601f01602080910402602001604051908101604052809291908181526020018280546110b390611d15565b80156111005780601f106110d557610100808354040283529160200191611100565b820191906000526020600020905b8154815290600101906020018083116110e357829003601f168201915b505060cc54604051630c93e3bb60e01b81529495506001600160a01b031693630c93e3bb935034925061114291503090869088908c908c908c90600401612081565b6000604051808303818588803b15801561115b57600080fd5b505af115801561116f573d6000803e3d6000fd5b5050604051631c92115f60e01b81526001600160a01b037f0000000000000000000000000000000000000000000000000000000000000000169350631c92115f92506111c69150849086908a908a906004016120e1565b600060405180830381600087803b1580156111e057600080fd5b505af11580156111f4573d6000803e3d6000fd5b505050508484604051611208929190611f86565b60405180910390208260405161121e9190611ef4565b6040518091039020826040516112349190611ef4565b604051908190038120907f4106fee90ed8efa9447954d90d963ce701bd49555bb6ac0878b19c1bb3d8207b90600090a45050505050565b61127581336115f6565b50565b604051639ba6061b60e01b815260040160405180910390fd5b61129b8282610e62565b61085a5760008281526065602090815260408083206001600160a01b03851684529091529020805460ff191660011790556112d33390565b6001600160a01b0316816001600160a01b0316837f2f8788117e7eff1d82e926ec794901d17c78024a50270940304540a733656f0d60405160405180910390a45050565b6113218282610e62565b1561085a5760008281526065602090815260408083206001600160a01b0385168085529252808320805460ff1916905551339285917ff6391f5c32d9c69d2a47ea670b442974b53935d1edc7fd64eb21e047a839171b9190a45050565b600054610100900460ff166113e95760405162461bcd60e51b815260206004820152602b60248201527f496e697469616c697a61626c653a20636f6e7472616374206973206e6f74206960448201526a6e697469616c697a696e6760a81b606482015260840161097d565b565b6114c786868080601f0160208091040260200160405190810160405280939291908181526020018383808284376000920191909152505060ca80549092506114339150611d15565b80601f016020809104026020016040519081016040528092919081815260200182805461145f90611d15565b80156114ac5780601f10611481576101008083540402835291602001916114ac565b820191906000526020600020905b81548152906001019060200180831161148f57829003601f168201915b50505050508051602091820120825192909101919091201490565b6114e457604051639284b19760e01b815260040160405180910390fd5b61152c84848080601f0160208091040260200160405190810160405280939291908181526020018383808284376000920191909152505060cb80549092506114339150611d15565b6115495760405163063ce8cd60e31b815260040160405180910390fd5b7f8f0fcb451a538667ff38e9d1315b5c5c2139ef2dc620c3577a8106ea734fc3a886868686868660405161158296959493929190612126565b60405180910390a160c954604051631c9231df60e21b81526001600160a01b0390911690637248c77c906115bc908590859060040161216f565b600060405180830381600087803b1580156115d657600080fd5b505af11580156115ea573d6000803e3d6000fd5b50505050505050505050565b6116008282610e62565b61085a5761160d8161164f565b611618836020611661565b604051602001611629929190612183565b60408051601f198184030181529082905262461bcd60e51b825261097d91600401611afa565b606061061d6001600160a01b03831660145b6060600061167083600261220e565b61167b906002612225565b67ffffffffffffffff8111156116935761169361182e565b6040519080825280601f01601f1916602001820160405280156116bd576020820181803683370190505b509050600360fc1b816000815181106116d8576116d8612238565b60200101906001600160f81b031916908160001a905350600f60fb1b8160018151811061170757611707612238565b60200101906001600160f81b031916908160001a905350600061172b84600261220e565b611736906001612225565b90505b60018111156117ae576f181899199a1a9b1b9c1cb0b131b232b360811b85600f166010811061176a5761176a612238565b1a60f81b82828151811061178057611780612238565b60200101906001600160f81b031916908160001a90535060049490941c936117a78161224e565b9050611739565b5083156117fd5760405162461bcd60e51b815260206004820181905260248201527f537472696e67733a20686578206c656e67746820696e73756666696369656e74604482015260640161097d565b9392505050565b60006020828403121561181657600080fd5b81356001600160e01b0319811681146117fd57600080fd5b634e487b7160e01b600052604160045260246000fd5b6040516080810167ffffffffffffffff811182821017156118675761186761182e565b60405290565b600082601f83011261187e57600080fd5b813567ffffffffffffffff808211156118995761189961182e565b604051601f8301601f19908116603f011681019082821181831017156118c1576118c161182e565b816040528381528660208588010111156118da57600080fd5b836020870160208301376000602085830101528094505050505092915050565b60006020828403121561190c57600080fd5b813567ffffffffffffffff81111561192357600080fd5b61192f8482850161186d565b949350505050565b60008083601f84011261194957600080fd5b50813567ffffffffffffffff81111561196157600080fd5b60208301915083602082850101111561197957600080fd5b9250929050565b60008060008060008060008060008060c08b8d03121561199f57600080fd5b8a35995060208b013567ffffffffffffffff808211156119be57600080fd5b6119ca8e838f01611937565b909b50995060408d01359150808211156119e357600080fd5b6119ef8e838f01611937565b909950975060608d0135915080821115611a0857600080fd5b611a148e838f01611937565b909750955060808d0135915080821115611a2d57600080fd5b50611a3a8d828e01611937565b9150809450508092505060a08b013590509295989b9194979a5092959850565b80356001600160a01b0381168114611a7157600080fd5b919050565b600060208284031215611a8857600080fd5b6117fd82611a5a565b600060208284031215611aa357600080fd5b5035919050565b60005b83811015611ac5578181015183820152602001611aad565b50506000910152565b60008151808452611ae6816020860160208601611aaa565b601f01601f19169290920160200192915050565b6020815260006117fd6020830184611ace565b60008060408385031215611b2057600080fd5b82359150611b3060208401611a5a565b90509250929050565b6000806000806000858703610100811215611b5357600080fd5b6080811215611b6157600080fd5b50611b6a611844565b611b7387611a5a565b8152611b8160208801611a5a565b6020820152611b9260408801611a5a565b6040820152611ba360608801611a5a565b60608201529450611bb660808701611a5a565b935060a086013567ffffffffffffffff80821115611bd357600080fd5b611bdf89838a0161186d565b945060c0880135915080821115611bf557600080fd5b50611c028882890161186d565b925050611c1160e08701611a5a565b90509295509295909350565b60008060008060008060006080888a031215611c3857600080fd5b87359650602088013567ffffffffffffffff80821115611c5757600080fd5b611c638b838c01611937565b909850965060408a0135915080821115611c7c57600080fd5b611c888b838c01611937565b909650945060608a0135915080821115611ca157600080fd5b50611cae8a828b01611937565b989b979a50959850939692959293505050565b600080600060408486031215611cd657600080fd5b833567ffffffffffffffff811115611ced57600080fd5b611cf986828701611937565b9094509250611d0c905060208501611a5a565b90509250925092565b600181811c90821680611d2957607f821691505b602082108103611d4957634e487b7160e01b600052602260045260246000fd5b50919050565b604081526000808454611d6181611d15565b8060408601526060600180841660008114611d835760018114611d9d57611dce565b60ff1985168884015283151560051b880183019550611dce565b8960005260208060002060005b86811015611dc55781548b8201870152908401908201611daa565b8a018501975050505b50505050508281036020840152611de58185611ace565b95945050505050565b601f8211156106a357600081815260208120601f850160051c81016020861015611e155750805b601f850160051c820191505b81811015610c6d57828155600101611e21565b815167ffffffffffffffff811115611e4e57611e4e61182e565b611e6281611e5c8454611d15565b84611dee565b602080601f831160018114611e975760008415611e7f5750858301515b600019600386901b1c1916600185901b178555610c6d565b600085815260208120601f198616915b82811015611ec657888601518255948401946001909101908401611ea7565b5085821015611ee45787850151600019600388901b60f8161c191681555b5050505050600190811b01905550565b60008251611f06818460208701611aaa565b9190910192915050565b6000808354611f1e81611d15565b60018281168015611f365760018114611f4b57611f7a565b60ff1984168752821515830287019450611f7a565b8760005260208060002060005b85811015611f715781548a820152908401908201611f58565b50505082870194505b50929695505050505050565b8183823760009101908152919050565b81835281816020850137506000828201602090810191909152601f909101601f19169091010190565b89815260c060208201526000611fd960c083018a8c611f96565b8281036040840152611fec81898b611f96565b90508660608401528281036080840152612007818688611f96565b9150508260a08301529a9950505050505050505050565b60006020828403121561203057600080fd5b815180151581146117fd57600080fd5b86815260806020820152600061205a608083018789611f96565b828103604084015261206d818688611f96565b915050826060830152979650505050505050565b600060018060a01b03808916835260a060208401526120a360a0840189611ace565b83810360408501526120b58189611ace565b905083810360608501526120ca818789611f96565b925050808416608084015250979650505050505050565b6060815260006120f46060830187611ace565b82810360208401526121068187611ace565b9050828103604084015261211b818587611f96565b979650505050505050565b60608152600061213a60608301888a611f96565b828103602084015261214d818789611f96565b90508281036040840152612162818587611f96565b9998505050505050505050565b60208152600061192f602083018486611f96565b7f416363657373436f6e74726f6c3a206163636f756e74200000000000000000008152600083516121bb816017850160208801611aaa565b7001034b99036b4b9b9b4b733903937b6329607d1b60179184019182015283516121ec816028840160208801611aaa565b01602801949350505050565b634e487b7160e01b600052601160045260246000fd5b808202811582820484141761061d5761061d6121f8565b8082018082111561061d5761061d6121f8565b634e487b7160e01b600052603260045260246000fd5b60008161225d5761225d6121f8565b50600019019056fe28a0840e09502c63ed1e83b95421995a3ea654657390bb15ac27b2b85aef53b277eacfcb6207f26b72edc4f15c48e5518843e7e98ccfd7e0d6c16f92ed1fef8d2b5bda39c23731c6890b6a6f985ff1c326c66dc20aa14dc2e50fc5ec656ecc35a2646970667358221220ce780e2e4d5816b79c845ca9d289cd542005f3f775f440020594097bcb7ab8b064736f6c63430008130033","linkReferences":{}},"methodIdentifiers":{"BRIDGE_MANAGER_ROLE()":"f75e8512","DEFAULT_ADMIN_ROLE()":"a217fddf","GAS_SERVICE_MANAGER_ROLE()":"c50f763a","TARGET_MANAGER_ROLE()":"e538c88a","childBridgeAdaptor()":"29529c0e","childChainId()":"b14b0f56","execute(bytes32,string,string,bytes)":"49160658","executeWithToken(bytes32,string,string,bytes,string,uint256)":"1a98b2e0","gasService()":"6a22d8cc","gateway()":"116191b6","getRoleAdmin(bytes32)":"248a9ca3","grantBridgeManagerRole(address)":"1eed5148","grantGasServiceManagerRole(address)":"43153d9d","grantRole(bytes32,address)":"2f2ff15d","grantTargetManagerRole(address)":"96d220ce","hasRole(bytes32,address)":"91d14854","initialize((address,address,address,address),address,string,string,address)":"381fe249","initializerAddress()":"d6dc0b0d","renounceRole(bytes32,address)":"36568abe","revokeBridgeManagerRole(address)":"7d9da79b","revokeGasServiceManagerRole(address)":"bd655992","revokeRole(bytes32,address)":"d547741f","revokeTargetManagerRole(address)":"8e6444a8","rootBridge()":"cdea7c70","sendMessage(bytes,address)":"f20755ba","supportsInterface(bytes4)":"01ffc9a7","updateChildBridgeAdaptor(string)":"0bbf3766","updateChildChain(string)":"17a0e3e2","updateGasService(address)":"3bed20e8","updateRootBridge(address)":"e4426af4"},"id":72}