{"abi":[{"type":"constructor","inputs":[],"stateMutability":"payable"},{"type":"function","name":"fuzz_activateWithdrawalQueue","inputs":[],"outputs":[],"stateMutability":"nonpayable"},{"type":"function","name":"fuzz_deactivateWithdrawalQueue","inputs":[],"outputs":[],"stateMutability":"nonpayable"},{"type":"function","name":"fuzz_deposit","inputs":[{"name":"rootTokenSelector","type":"uint8","internalType":"uint8"},{"name":"amount","type":"uint256","internalType":"uint256"},{"name":"value","type":"uint256","internalType":"uint256"}],"outputs":[],"stateMutability":"nonpayable"},{"type":"function","name":"fuzz_depositETH","inputs":[{"name":"amount","type":"uint256","internalType":"uint256"},{"name":"value","type":"uint256","internalType":"uint256"}],"outputs":[],"stateMutability":"nonpayable"},{"type":"function","name":"fuzz_depositTo","inputs":[{"name":"rootTokenSelector","type":"uint8","internalType":"uint8"},{"name":"receiverSelector","type":"uint8","internalType":"uint8"},{"name":"amount","type":"uint256","internalType":"uint256"},{"name":"value","type":"uint256","internalType":"uint256"}],"outputs":[],"stateMutability":"nonpayable"},{"type":"function","name":"fuzz_depositToETH","inputs":[{"name":"receiver","type":"uint8","internalType":"uint8"},{"name":"amount","type":"uint256","internalType":"uint256"},{"name":"value","type":"uint256","internalType":"uint256"}],"outputs":[],"stateMutability":"nonpayable"},{"type":"function","name":"fuzz_finaliseQueuedWithdrawal","inputs":[{"name":"receiverSelector","type":"uint8","internalType":"uint8"},{"name":"index","type":"uint256","internalType":"uint256"}],"outputs":[],"stateMutability":"nonpayable"},{"type":"function","name":"fuzz_finaliseQueuedWithdrawalsAggregated","inputs":[{"name":"receiverSelector","type":"uint8","internalType":"uint8"},{"name":"tokenSelector","type":"uint8","internalType":"uint8"},{"name":"length","type":"uint256","internalType":"uint256"},{"name":"entropy","type":"uint256","internalType":"uint256"}],"outputs":[],"stateMutability":"nonpayable"},{"type":"function","name":"fuzz_onMessageReceiveChild","inputs":[{"name":"isDeposit","type":"bool","internalType":"bool"},{"name":"rootTokenSelector","type":"uint8","internalType":"uint8"},{"name":"senderSelector","type":"uint8","internalType":"uint8"},{"name":"receiverSelector","type":"uint8","internalType":"uint8"},{"name":"amount","type":"uint256","internalType":"uint256"}],"outputs":[],"stateMutability":"nonpayable"},{"type":"function","name":"fuzz_onMessageReceiveRoot","inputs":[{"name":"isWithdraw","type":"bool","internalType":"bool"},{"name":"rootTokenSelector","type":"uint8","internalType":"uint8"},{"name":"withdrawerSelector","type":"uint8","internalType":"uint8"},{"name":"receiverSelector","type":"uint8","internalType":"uint8"},{"name":"amount","type":"uint256","internalType":"uint256"}],"outputs":[],"stateMutability":"nonpayable"},{"type":"function","name":"fuzz_pauseChild","inputs":[],"outputs":[],"stateMutability":"nonpayable"},{"type":"function","name":"fuzz_pauseRoot","inputs":[],"outputs":[],"stateMutability":"nonpayable"},{"type":"function","name":"fuzz_setRateControlThreshold","inputs":[{"name":"tokenSelector","type":"uint8","internalType":"uint8"},{"name":"capacity","type":"uint256","internalType":"uint256"},{"name":"refillRate","type":"uint256","internalType":"uint256"},{"name":"largeTransferThreshold","type":"uint256","internalType":"uint256"}],"outputs":[],"stateMutability":"nonpayable"},{"type":"function","name":"fuzz_setWithdrawalDelay","inputs":[{"name":"delay","type":"uint256","internalType":"uint256"}],"outputs":[],"stateMutability":"nonpayable"},{"type":"function","name":"fuzz_unpauseChild","inputs":[],"outputs":[],"stateMutability":"nonpayable"},{"type":"function","name":"fuzz_unpauseRoot","inputs":[],"outputs":[],"stateMutability":"nonpayable"},{"type":"function","name":"fuzz_updateImxCumulativeDepositLimit","inputs":[{"name":"newImxCumulativeDepositLimit","type":"uint256","internalType":"uint256"}],"outputs":[],"stateMutability":"nonpayable"},{"type":"function","name":"fuzz_withdraw","inputs":[{"name":"childTokenSelector","type":"uint8","internalType":"uint8"},{"name":"amount","type":"uint256","internalType":"uint256"},{"name":"value","type":"uint256","internalType":"uint256"}],"outputs":[],"stateMutability":"nonpayable"},{"type":"function","name":"fuzz_withdrawETH","inputs":[{"name":"amount","type":"uint256","internalType":"uint256"},{"name":"value","type":"uint256","internalType":"uint256"}],"outputs":[],"stateMutability":"nonpayable"},{"type":"function","name":"fuzz_withdrawETHTo","inputs":[{"name":"receiverSelector","type":"uint8","internalType":"uint8"},{"name":"amount","type":"uint256","internalType":"uint256"},{"name":"value","type":"uint256","internalType":"uint256"}],"outputs":[],"stateMutability":"nonpayable"},{"type":"function","name":"fuzz_withdrawIMX","inputs":[{"name":"amount","type":"uint256","internalType":"uint256"},{"name":"value","type":"uint256","internalType":"uint256"}],"outputs":[],"stateMutability":"nonpayable"},{"type":"function","name":"fuzz_withdrawIMXTo","inputs":[{"name":"receiverSelector","type":"uint8","internalType":"uint8"},{"name":"amount","type":"uint256","internalType":"uint256"},{"name":"value","type":"uint256","internalType":"uint256"}],"outputs":[],"stateMutability":"nonpayable"},{"type":"function","name":"fuzz_withdrawTo","inputs":[{"name":"childTokenSelector","type":"uint8","internalType":"uint8"},{"name":"receiverSelector","type":"uint8","internalType":"uint8"},{"name":"amount","type":"uint256","internalType":"uint256"},{"name":"value","type":"uint256","internalType":"uint256"}],"outputs":[],"stateMutability":"nonpayable"},{"type":"function","name":"fuzz_withdrawWIMX","inputs":[{"name":"amount","type":"uint256","internalType":"uint256"},{"name":"value","type":"uint256","internalType":"uint256"}],"outputs":[],"stateMutability":"nonpayable"},{"type":"function","name":"fuzz_withdrawWIMXTo","inputs":[{"name":"receiverSelector","type":"uint8","internalType":"uint8"},{"name":"amount","type":"uint256","internalType":"uint256"},{"name":"value","type":"uint256","internalType":"uint256"}],"outputs":[],"stateMutability":"nonpayable"},{"type":"function","name":"handler_activateWithdrawalQueue","inputs":[],"outputs":[],"stateMutability":"nonpayable"},{"type":"function","name":"handler_deactivateWithdrawalQueue","inputs":[],"outputs":[],"stateMutability":"nonpayable"},{"type":"function","name":"handler_deposit","inputs":[{"name":"rootTokenSelector","type":"uint8","internalType":"uint8"},{"name":"amount","type":"uint256","internalType":"uint256"},{"name":"value","type":"uint256","internalType":"uint256"}],"outputs":[],"stateMutability":"nonpayable"},{"type":"function","name":"handler_depositETH","inputs":[{"name":"amount","type":"uint256","internalType":"uint256"},{"name":"value","type":"uint256","internalType":"uint256"}],"outputs":[],"stateMutability":"nonpayable"},{"type":"function","name":"handler_depositTo","inputs":[{"name":"rootTokenSelector","type":"uint8","internalType":"uint8"},{"name":"receiverSelector","type":"uint8","internalType":"uint8"},{"name":"amount","type":"uint256","internalType":"uint256"},{"name":"value","type":"uint256","internalType":"uint256"}],"outputs":[],"stateMutability":"nonpayable"},{"type":"function","name":"handler_depositToETH","inputs":[{"name":"receiverSelector","type":"uint8","internalType":"uint8"},{"name":"amount","type":"uint256","internalType":"uint256"},{"name":"value","type":"uint256","internalType":"uint256"}],"outputs":[],"stateMutability":"nonpayable"},{"type":"function","name":"handler_finaliseQueuedWithdrawal","inputs":[{"name":"receiverSelector","type":"uint8","internalType":"uint8"},{"name":"index","type":"uint256","internalType":"uint256"}],"outputs":[],"stateMutability":"nonpayable"},{"type":"function","name":"handler_finaliseQueuedWithdrawalsAggregated","inputs":[{"name":"receiverSelector","type":"uint8","internalType":"uint8"},{"name":"tokenSelector","type":"uint8","internalType":"uint8"},{"name":"length","type":"uint256","internalType":"uint256"},{"name":"entropy","type":"uint256","internalType":"uint256"}],"outputs":[],"stateMutability":"nonpayable"},{"type":"function","name":"handler_onMessageReceiveChild","inputs":[{"name":"isDeposit","type":"bool","internalType":"bool"},{"name":"rootTokenSelector","type":"uint8","internalType":"uint8"},{"name":"senderSelector","type":"uint8","internalType":"uint8"},{"name":"receiverSelector","type":"uint8","internalType":"uint8"},{"name":"amount","type":"uint256","internalType":"uint256"}],"outputs":[],"stateMutability":"nonpayable"},{"type":"function","name":"handler_onMessageReceiveRoot","inputs":[{"name":"isWithdraw","type":"bool","internalType":"bool"},{"name":"rootTokenSelector","type":"uint8","internalType":"uint8"},{"name":"withdrawerSelector","type":"uint8","internalType":"uint8"},{"name":"receiverSelector","type":"uint8","internalType":"uint8"},{"name":"amount","type":"uint256","internalType":"uint256"}],"outputs":[],"stateMutability":"nonpayable"},{"type":"function","name":"handler_pauseChild","inputs":[],"outputs":[],"stateMutability":"nonpayable"},{"type":"function","name":"handler_pauseRoot","inputs":[],"outputs":[],"stateMutability":"nonpayable"},{"type":"function","name":"handler_setRateControlThreshold","inputs":[{"name":"tokenSelector","type":"uint8","internalType":"uint8"},{"name":"capacity","type":"uint256","internalType":"uint256"},{"name":"refillRate","type":"uint256","internalType":"uint256"},{"name":"largeTransferThreshold","type":"uint256","internalType":"uint256"}],"outputs":[],"stateMutability":"nonpayable"},{"type":"function","name":"handler_setWithdrawalDelay","inputs":[{"name":"delay","type":"uint256","internalType":"uint256"}],"outputs":[],"stateMutability":"nonpayable"},{"type":"function","name":"handler_unpauseChild","inputs":[],"outputs":[],"stateMutability":"nonpayable"},{"type":"function","name":"handler_unpauseRoot","inputs":[],"outputs":[],"stateMutability":"nonpayable"},{"type":"function","name":"handler_updateImxCumulativeDepositLimit","inputs":[{"name":"newImxCumulativeDepositLimit","type":"uint256","internalType":"uint256"}],"outputs":[],"stateMutability":"nonpayable"},{"type":"function","name":"handler_withdraw","inputs":[{"name":"childTokenSelector","type":"uint8","internalType":"uint8"},{"name":"amount","type":"uint256","internalType":"uint256"},{"name":"value","type":"uint256","internalType":"uint256"}],"outputs":[],"stateMutability":"nonpayable"},{"type":"function","name":"handler_withdrawETH","inputs":[{"name":"amount","type":"uint256","internalType":"uint256"},{"name":"value","type":"uint256","internalType":"uint256"}],"outputs":[],"stateMutability":"nonpayable"},{"type":"function","name":"handler_withdrawETHTo","inputs":[{"name":"receiverSelector","type":"uint8","internalType":"uint8"},{"name":"amount","type":"uint256","internalType":"uint256"},{"name":"value","type":"uint256","internalType":"uint256"}],"outputs":[],"stateMutability":"nonpayable"},{"type":"function","name":"handler_withdrawIMX","inputs":[{"name":"amount","type":"uint256","internalType":"uint256"},{"name":"value","type":"uint256","internalType":"uint256"}],"outputs":[],"stateMutability":"nonpayable"},{"type":"function","name":"handler_withdrawIMXTo","inputs":[{"name":"receiverSelector","type":"uint8","internalType":"uint8"},{"name":"amount","type":"uint256","internalType":"uint256"},{"name":"value","type":"uint256","internalType":"uint256"}],"outputs":[],"stateMutability":"nonpayable"},{"type":"function","name":"handler_withdrawTo","inputs":[{"name":"childTokenSelector","type":"uint8","internalType":"uint8"},{"name":"receiverSelector","type":"uint8","internalType":"uint8"},{"name":"amount","type":"uint256","internalType":"uint256"},{"name":"value","type":"uint256","internalType":"uint256"}],"outputs":[],"stateMutability":"nonpayable"},{"type":"function","name":"handler_withdrawWIMX","inputs":[{"name":"amount","type":"uint256","internalType":"uint256"},{"name":"value","type":"uint256","internalType":"uint256"}],"outputs":[],"stateMutability":"nonpayable"},{"type":"function","name":"handler_withdrawWIMXTo","inputs":[{"name":"receiverSelector","type":"uint8","internalType":"uint8"},{"name":"amount","type":"uint256","internalType":"uint256"},{"name":"value","type":"uint256","internalType":"uint256"}],"outputs":[],"stateMutability":"nonpayable"},{"type":"event","name":"ActivateWithdrawalQueueCall","inputs":[],"anonymous":false},{"type":"event","name":"DeactivateWithdrawalQueueCall","inputs":[],"anonymous":false},{"type":"event","name":"DepositCall","inputs":[{"name":"rootToken","type":"address","indexed":false,"internalType":"address"},{"name":"amount","type":"uint256","indexed":false,"internalType":"uint256"}],"anonymous":false},{"type":"event","name":"DepositETHCall","inputs":[{"name":"amount","type":"uint256","indexed":false,"internalType":"uint256"}],"anonymous":false},{"type":"event","name":"DepositToCall","inputs":[{"name":"rootToken","type":"address","indexed":false,"internalType":"address"},{"name":"receiver","type":"address","indexed":false,"internalType":"address"},{"name":"amount","type":"uint256","indexed":false,"internalType":"uint256"}],"anonymous":false},{"type":"event","name":"DepositToETHCall","inputs":[{"name":"receiver","type":"address","indexed":false,"internalType":"address"},{"name":"amount","type":"uint256","indexed":false,"internalType":"uint256"}],"anonymous":false},{"type":"event","name":"FinaliseQueuedWithdrawalCall","inputs":[{"name":"receiver","type":"address","indexed":false,"internalType":"address"},{"name":"index","type":"uint256","indexed":false,"internalType":"uint256"}],"anonymous":false},{"type":"event","name":"FinaliseQueuedWithdrawalsAggregatedCall","inputs":[{"name":"receiver","type":"address","indexed":false,"internalType":"address"},{"name":"token","type":"address","indexed":false,"internalType":"address"},{"name":"indices","type":"uint256[]","indexed":false,"internalType":"uint256[]"}],"anonymous":false},{"type":"event","name":"OnMessageReceiveChildCall","inputs":[{"name":"data","type":"bytes","indexed":false,"internalType":"bytes"}],"anonymous":false},{"type":"event","name":"OnMessageReceiveRootCall","inputs":[{"name":"data","type":"bytes","indexed":false,"internalType":"bytes"}],"anonymous":false},{"type":"event","name":"PauseChildCall","inputs":[],"anonymous":false},{"type":"event","name":"PauseRootCall","inputs":[],"anonymous":false},{"type":"event","name":"SetRateControlThresholdCall","inputs":[{"name":"token","type":"address","indexed":false,"internalType":"address"},{"name":"capacity","type":"uint256","indexed":false,"internalType":"uint256"},{"name":"refillRate","type":"uint256","indexed":false,"internalType":"uint256"},{"name":"largeTransferThreshold","type":"uint256","indexed":false,"internalType":"uint256"}],"anonymous":false},{"type":"event","name":"SetWithdrawalDelayCall","inputs":[{"name":"delay","type":"uint256","indexed":false,"internalType":"uint256"}],"anonymous":false},{"type":"event","name":"UnpauseChildCall","inputs":[],"anonymous":false},{"type":"event","name":"UnpauseRootCall","inputs":[],"anonymous":false},{"type":"event","name":"UpdateImxCumulativeDepositLimitCall","inputs":[{"name":"newImxCumulativeDepositLimit","type":"uint256","indexed":false,"internalType":"uint256"}],"anonymous":false},{"type":"event","name":"UpdateRootBridgeAdaptorCall","inputs":[{"name":"newRootBridgeAdaptor","type":"address","indexed":false,"internalType":"address"}],"anonymous":false},{"type":"event","name":"WithdrawCall","inputs":[{"name":"childToken","type":"address","indexed":false,"internalType":"address"},{"name":"amount","type":"uint256","indexed":false,"internalType":"uint256"}],"anonymous":false},{"type":"event","name":"WithdrawETHCall","inputs":[{"name":"amount","type":"uint256","indexed":false,"internalType":"uint256"}],"anonymous":false},{"type":"event","name":"WithdrawETHToCall","inputs":[{"name":"receiver","type":"address","indexed":false,"internalType":"address"},{"name":"amount","type":"uint256","indexed":false,"internalType":"uint256"}],"anonymous":false},{"type":"event","name":"WithdrawIMXCall","inputs":[{"name":"amount","type":"uint256","indexed":false,"internalType":"uint256"}],"anonymous":false},{"type":"event","name":"WithdrawIMXToCall","inputs":[{"name":"receiver","type":"address","indexed":false,"internalType":"address"},{"name":"amount","type":"uint256","indexed":false,"internalType":"uint256"}],"anonymous":false},{"type":"event","name":"WithdrawToCall","inputs":[{"name":"childToken","type":"address","indexed":false,"internalType":"address"},{"name":"receiver","type":"address","indexed":false,"internalType":"address"},{"name":"amount","type":"uint256","indexed":false,"internalType":"uint256"}],"anonymous":false},{"type":"event","name":"WithdrawWIMXCall","inputs":[{"name":"amount","type":"uint256","indexed":false,"internalType":"uint256"}],"anonymous":false},{"type":"event","name":"WithdrawWIMXToCall","inputs":[{"name":"receiver","type":"address","indexed":false,"internalType":"address"},{"name":"amount","type":"uint256","indexed":false,"internalType":"uint256"}],"anonymous":false},{"type":"error","name":"ClampFail","inputs":[{"name":"","type":"string","internalType":"string"}]},{"type":"error","name":"MultiCallFail","inputs":[{"name":"","type":"string","internalType":"string"}]}],"bytecode":{"object":"0x608060405260405163000000149063000023d9565b604051809103906000f0801580156300000032573d6000803e3d6000fd5b50600080546001600160a01b0319166001600160a01b0392909216919091179055604080516060810182526201000181526202000160208201526203000191810191909152630000008990600190600363000023e8565b506002805460ff191660011790556000546040516001600160a01b0390911690636945c5ea9063000000bc906300002457565b604051809103906000f08015801563000000da573d6000803e3d6000fd5b506040516001600160e01b031960e084901b1681526001600160a01b039091166004820152602401600060405180830381600087803b158015630000011e57600080fd5b505af11580156300000134573d6000803e3d6000fd5b50505050630000014a630000015d60201b60201c565b630000015663000004fc565b6300002828565b63000001696300000508565b630000017563000005eb565b6300000181630000068b565b630000018d6300000741565b630000019963000007e1565b63000001a56300000925565b63000001b16300000a04565b63000001bd6300000a9f565b63000001c96300000d42565b63000004546010805460038054600181810183557fc2575a0e9e593c00f959f8c92f12db2869c3395a3b0502d05e2516446f71f85b91820180546001600160a01b03199081166001600160a01b0396871617909155601280548554808501875585018054841691881691909117905560148054865480860188558601805485169189169190911790556011805487548087018955870180548616918a169190911790556013805488548088018a55880180548716918b169190911790556015805489548089018b55890180548816918c16919091179055600c80548a54808a018c558a0180548916918d16919091179055600f80548b54808b018d558b0180548a16918e16919091179055600d80548c54808c018e558c0180548b16918f16919091179055600e80548d54808d01909e559c909b0180548a169c8e169c909c17909b559b5460048054808b0182557f8a35acfbc15ff81a39ae7d344fd709f28e8600b4aa8c65c6b64bfe7fe36bd19b90810180548b16938f169390931790925596548754808b018955820180548a16918e1691909117905594548654808a018855860180548916918d169190911790555485548089018755850180548816918c1691909117905597548454808801909555939092018054851693891693909317909255905460058054808601825560008290527f036b6384b5eca791c62761152d0c79bb0604c104a5fb6f4eb0703f3154bb3db090810180548616938a169390931790925591548254808601845582018054851691891691909117905594548154808501835586018054841691881691909117905595548654808401885585018054831691871691909117905591548554918201909555909101805490911692909116919091179055565b63000004fa600754600680546001818101835560008390527ff652222313e28459528d920b65115c16c04f3efc82aaedc97be59f3f377c0d3f91820180546001600160a01b03199081166001600160a01b039687161790915560085484548084018655840180548316918716919091179055600a5484548084018655840180548316918716919091179055600b5484549283019094559101805490911691909216179055565b565b63000004fa63000016fa565b6040516300000518906300002465565b604051809103906000f0801580156300000536573d6000803e3d6000fd5b50600980546001600160a01b0319166001600160a01b03929092169182179055604051637b69774360e11b8152607b6004808301919091526080602483015260848201526315195cdd60e21b60a482015260c06044820152600360c4820152621514d560ea1b60e48201526012606482015263f6d2ee8690610104015b600060405180830381600087803b15801563000005cf57600080fd5b505af115801563000005e5573d6000803e3d6000fd5b50505050565b60405163000005fb906300002474565b604051809103906000f0801580156300000619573d6000803e3d6000fd5b50600a80546001600160a01b0319166001600160a01b0392909216919091179055604051630000064a906300002474565b604051809103906000f0801580156300000668573d6000803e3d6000fd5b50600b80546001600160a01b0319166001600160a01b0392909216919091179055565b604051630000069b906300002465565b604051809103906000f08015801563000006b9573d6000803e3d6000fd5b50600c80546001600160a01b0319166001600160a01b03929092169182179055604051637b69774360e11b8152607b600482015260806024820152600b60848201526a092dadaeae8c2c4d8ca40b60ab1b60a482015260c06044820152600360c4820152620929ab60eb1b60e48201526012606482015263f6d2ee86906101040163000005b3565b6040516300000751906300002483565b604051809103906000f080158015630000076f573d6000803e3d6000fd5b50600d80546001600160a01b0319166001600160a01b039290921691909117905560405163000007a0906300002492565b604051809103906000f08015801563000007be573d6000803e3d6000fd5b50600e80546001600160a01b0319166001600160a01b0392909216919091179055565b3060405163000007f29063000024a1565b6001600160a01b039091168152602001604051809103906000f0801580156300000820573d6000803e3d6000fd5b50600780546001600160a01b0319166001600160a01b039283169081179091556040805160c0810182523080825260208201818152828401828152606084018381526080850184815260a08601948552600b54600954600c54600e54995163f3dfce1d60e01b815289518d16600482015296518c16602488015294518b16604487015292518a1660648601529051891660848501529351881660a484015292871660c483015291861660e48201529085166101048201529190931661012482015263f3dfce1d90610144015b600060405180830381600087803b158015630000090857600080fd5b505af1158015630000091e573d6000803e3d6000fd5b5050505050565b3060405163000009369063000024b0565b6001600160a01b039091168152602001604051809103906000f0801580156300000964573d6000803e3d6000fd5b50600880546001600160a01b0319166001600160a01b039283169081179091556040805160a08101825230808252602082018190528183018190526060820181905260808201819052600a54600754600954600c54600d549651630800dd2760e01b81529598630800dd279763000008ec978b979683169695831695948316949383169391909216916969e10de76676d0800000919060040163000024d8565b600a5460085460405163189acdbd60e31b81526001600160a01b03918216600482015291169063c4d66de890602401600060405180830381600087803b1580156300000a4f57600080fd5b505af11580156300000a65573d6000803e3d6000fd5b5050600b5460075460405163189acdbd60e31b81526001600160a01b0391821660048201529116925063c4d66de8915060240163000005b3565b6040516300000aaf906300002465565b604051809103906000f0801580156300000acd573d6000803e3d6000fd5b50601080546001600160a01b0319166001600160a01b03929092169182178155604051637b69774360e11b8152607b60048201526080602482015260848101919091526f14da5e08149bdbdd08125b9a5d1a585b60821b60a482015260c06044820152600360c48201526236524960e81b60e48201526006606482015263f6d2ee869061010401600060405180830381600087803b1580156300000b7057600080fd5b505af11580156300000b86573d6000803e3d6000fd5b505050506040516300000b9a906300002465565b604051809103906000f0801580156300000bb8573d6000803e3d6000fd5b50601280546001600160a01b0319166001600160a01b03929092169182178155604051637b69774360e11b8152607b600482015260806024820152608481019190915271115a59da1d08149bdbdd08125b9a5d1a585b60721b60a482015260c06044820152600360c48201526238524960e81b60e48201526008606482015263f6d2ee869061010401600060405180830381600087803b1580156300000c5d57600080fd5b505af11580156300000c73573d6000803e3d6000fd5b505050506040516300000c87906300002465565b604051809103906000f0801580156300000ca5573d6000803e3d6000fd5b50601480546001600160a01b0319166001600160a01b03929092169182179055604051637b69774360e11b8152607b60048083019190915260806024830152601560848301527f456967687465656e20526f6f7420496e697469616c000000000000000000000060a483015260c0604483015260c4820152633138524960e01b60e48201526012606482015263f6d2ee86906101040163000005b3565b600b546007546040805163f645125560e01b815290516001600160a01b0393841693637248c77c93169163f64512559160048083019260209291908290030181865afa1580156300000d98573d6000803e3d6000fd5b505050506040513d601f19601f820116820180604052508101906300000dc09190630000258d565b6010546040805163313ce56760e01b815290516001600160a01b0390921691829163313ce5679160048083019260209291908290030181865afa1580156300000e0d573d6000803e3d6000fd5b505050506040513d601f19601f820116820180604052508101906300000e35919063000025a8565b6040516020016300000eb8939291909283526001600160a01b0391909116602083015260a0604083018190526013908301527f536978204368696c642047656e6572617465640000000000000000000000000060c083015260e0606083018190526003908301526236434760e81b61010083015260ff1660808201526101200190565b6040516020818303038152906040526040518263ffffffff1660e01b81526004016300000ee7919063000025d6565b600060405180830381600087803b1580156300000f0357600080fd5b505af11580156300000f19573d6000803e3d6000fd5b505060085460105460405163f4a120f760e01b81526001600160a01b0391821660048201529116925063f4a120f7915060019060240160206040518083038185885af11580156300000f6f573d6000803e3d6000fd5b50505050506040513d601f19601f820116820180604052508101906300000f9891906300002628565b601180546001600160a01b0319166001600160a01b03928316179055600754601054604051637efab4f560e01b81529083166004820152911690637efab4f590602401602060405180830381865afa1580156300000ffa573d6000803e3d6000fd5b505050506040513d601f19601f82011682018060405250810190630000102291906300002628565b6011546001600160a01b0390811691161463000010455763000010456300002655565b600b546007546040805163f645125560e01b815290516001600160a01b0393841693637248c77c93169163f64512559160048083019260209291908290030181865afa158015630000109b573d6000803e3d6000fd5b505050506040513d601f19601f8201168201806040525081019063000010c39190630000258d565b6012546040805163313ce56760e01b815290516001600160a01b0390921691829163313ce5679160048083019260209291908290030181865afa1580156300001110573d6000803e3d6000fd5b505050506040513d601f19601f820116820180604052508101906300001138919063000025a8565b60405160200163000011bb939291909283526001600160a01b0391909116602083015260a0604083018190526015908301527f4569676874204368696c642047656e657261746564000000000000000000000060c083015260e0606083018190526003908301526238434760e81b61010083015260ff1660808201526101200190565b6040516020818303038152906040526040518263ffffffff1660e01b815260040163000011ea919063000025d6565b600060405180830381600087803b158015630000120657600080fd5b505af1158015630000121c573d6000803e3d6000fd5b505060085460125460405163f4a120f760e01b81526001600160a01b0391821660048201529116925063f4a120f7915060019060240160206040518083038185885af11580156300001272573d6000803e3d6000fd5b50505050506040513d601f19601f82011682018060405250810190630000129b91906300002628565b601380546001600160a01b0319166001600160a01b03928316179055600754601254604051637efab4f560e01b81529083166004820152911690637efab4f590602401602060405180830381865afa15801563000012fd573d6000803e3d6000fd5b505050506040513d601f19601f82011682018060405250810190630000132591906300002628565b6013546001600160a01b0390811691161463000013485763000013486300002655565b600b546007546040805163f645125560e01b815290516001600160a01b0393841693637248c77c93169163f64512559160048083019260209291908290030181865afa158015630000139e573d6000803e3d6000fd5b505050506040513d601f19601f8201168201806040525081019063000013c69190630000258d565b6014546040805163313ce56760e01b815290516001600160a01b0390921691829163313ce5679160048083019260209291908290030181865afa1580156300001413573d6000803e3d6000fd5b505050506040513d601f19601f82011682018060405250810190630000143b919063000025a8565b60405160200163000014bf939291909283526001600160a01b0391909116602083015260a0604083018190526018908301527f456967687465656e204368696c642047656e657261746564000000000000000060c083015260e060608301819052600490830152633138434760e01b61010083015260ff1660808201526101200190565b6040516020818303038152906040526040518263ffffffff1660e01b815260040163000014ee919063000025d6565b600060405180830381600087803b158015630000150a57600080fd5b505af11580156300001520573d6000803e3d6000fd5b505060085460145460405163f4a120f760e01b81526001600160a01b0391821660048201529116925063f4a120f7915060019060240160206040518083038185885af11580156300001576573d6000803e3d6000fd5b50505050506040513d601f19601f82011682018060405250810190630000159f91906300002628565b601580546001600160a01b0319166001600160a01b03928316179055600754601454604051637efab4f560e01b81529083166004820152911690637efab4f590602401602060405180830381865afa1580156300001601573d6000803e3d6000fd5b505050506040513d601f19601f82011682018060405250810190630000162991906300002628565b6015546001600160a01b03908116911614630000164c57630000164c6300002655565b600760009054906101000a90046001600160a01b03166001600160a01b031663dee1ef0d6040518163ffffffff1660e01b8152600401602060405180830381865afa15801563000016a1573d6000803e3d6000fd5b505050506040513d601f19601f8201168201806040525081019063000016c991906300002628565b600f80546001600160a01b0319166001600160a01b0392909216918217905563000004fa5763000004fa6300002655565b600d546001546001600160a01b039091169063d0e30db090630000172a906969e10de76676d08000006300002681565b6040518263ffffffff1660e01b81526004016000604051808303818588803b158015630000175757600080fd5b505af1158015630000176d573d6000803e3d6000fd5b5050600e546001546001600160a01b03909116935063d0e30db0925063000017a291506969e10de76676d08000006300002681565b6040518263ffffffff1660e01b81526004016000604051808303818588803b15801563000017cf57600080fd5b505af115801563000017e5573d6000803e3d6000fd5b505050505060005b60015481101563000023d65760005b6004548110156300001d325760005b60065481101563000019b057737109709ecfa91a80626ff3989d68f67f5b1dd12d6001600160a01b031663ca669fa760018581548110630000185357630000185363000026a4565b60009182526020909120015460405160e083901b6001600160e01b03191681526001600160a01b039091166004820152602401600060405180830381600087803b15801563000018a257600080fd5b505af115801563000018b8573d6000803e3d6000fd5b505050506004828154811063000018d55763000018d563000026a4565b600091825260209091200154600680546001600160a01b039092169163095ea7b3919084908110630000190e57630000190e63000026a4565b60009182526020909120015460405160e083901b6001600160e01b03191681526001600160a01b0390911660048201526001600160801b0360248201526044016020604051808303816000875af1158015630000196f573d6000803e3d6000fd5b505050506040513d601f19601f820116820180604052508101906300001997919063000026ba565b508063000019a68163000026e0565b915050630000180b565b50600d54600480546001600160a01b03909216918390811063000019da5763000019da63000026a4565b6000918252602090912001546001600160a01b0316146300001d1a57600481815481106300001a0f576300001a0f63000026a4565b600091825260209091200154600180546001600160a01b03909216916340c10f199190859081106300001a48576300001a4863000026a4565b600091825260209091200154600480546001600160a01b0390921691859081106300001a7a576300001a7a63000026a4565b600091825260209182902001546040805163313ce56760e01b815290516001600160a01b039092169263313ce567926004808401938290030181865afa1580156300001aca573d6000803e3d6000fd5b505050506040513d601f19601f820116820180604052508101906300001af2919063000025a8565b6300001b0190600a6300002815565b6300001b1390633b9aca006300002681565b6040516001600160e01b031960e085901b1681526001600160a01b03909216600483015260248201526044016020604051808303816000875af11580156300001b60573d6000803e3d6000fd5b505050506040513d601f19601f820116820180604052508101906300001b88919063000026ba565b50600481815481106300001ba2576300001ba263000026a4565b600091825260209182902001546040805163313ce56760e01b815290516001600160a01b039092169263313ce567926004808401938290030181865afa1580156300001bf2573d6000803e3d6000fd5b505050506040513d601f19601f820116820180604052508101906300001c1a919063000025a8565b6300001c2990600a6300002815565b6300001c3b90633b9aca006300002681565b600482815481106300001c54576300001c5463000026a4565b600091825260209091200154600180546001600160a01b03909216916370a082319190869081106300001c8d576300001c8d63000026a4565b60009182526020909120015460405160e083901b6001600160e01b03191681526001600160a01b039091166004820152602401602060405180830381865afa1580156300001cdf573d6000803e3d6000fd5b505050506040513d601f19601f820116820180604052508101906300001d079190630000258d565b146300001d1a576300001d1a6300002655565b806300001d288163000026e0565b91505063000017fc565b5060005b6005548110156300001f035760005b6006548110156300001eea57737109709ecfa91a80626ff3989d68f67f5b1dd12d6001600160a01b031663ca669fa7600185815481106300001d8d576300001d8d63000026a4565b60009182526020909120015460405160e083901b6001600160e01b03191681526001600160a01b039091166004820152602401600060405180830381600087803b1580156300001ddc57600080fd5b505af11580156300001df2573d6000803e3d6000fd5b50505050600582815481106300001e0f576300001e0f63000026a4565b600091825260209091200154600680546001600160a01b039092169163095ea7b39190849081106300001e48576300001e4863000026a4565b60009182526020909120015460405160e083901b6001600160e01b03191681526001600160a01b0390911660048201526001600160801b0360248201526044016020604051808303816000875af11580156300001ea9573d6000803e3d6000fd5b505050506040513d601f19601f820116820180604052508101906300001ed1919063000026ba565b50806300001ee08163000026e0565b9150506300001d45565b50806300001ef98163000026e0565b9150506300001d36565b506000600182815481106300001f1f576300001f1f63000026a4565b60009182526020822001546040516001600160a01b03909116916969e10de76676d0800000919081818185875af1925050503d80600081146300001f81576040519150601f19603f3d011682016040523d82523d6000602084013e6300001f86565b606091505b50509050806300001f9d576300001f9d6300002655565b6969e10de76676d0800000600183815481106300001fc1576300001fc163000026a4565b6000918252602090912001546001600160a01b031631146300001fea576300001fea6300002655565b600d54600180546001600160a01b039092169163a9059cbb919085908110630000201a57630000201a63000026a4565b60009182526020909120015460405160e083901b6001600160e01b03191681526001600160a01b0390911660048201526969e10de76676d080000060248201526044016020604051808303816000875af1158015630000207e573d6000803e3d6000fd5b505050506040513d601f19601f8201168201806040525081019063000020a6919063000026ba565b50600d54600180546969e10de76676d0800000926001600160a01b0316916370a08231918690811063000020e05763000020e063000026a4565b60009182526020909120015460405160e083901b6001600160e01b03191681526001600160a01b039091166004820152602401602060405180830381865afa1580156300002132573d6000803e3d6000fd5b505050506040513d601f19601f82011682018060405250810190630000215a9190630000258d565b14630000216d57630000216d6300002655565b600e54600180546001600160a01b039092169163a9059cbb919085908110630000219d57630000219d63000026a4565b60009182526020909120015460405160e083901b6001600160e01b03191681526001600160a01b0390911660048201526969e10de76676d080000060248201526044016020604051808303816000875af11580156300002201573d6000803e3d6000fd5b505050506040513d601f19601f820116820180604052508101906300002229919063000026ba565b50600e54600180546969e10de76676d0800000926001600160a01b0316916370a082319186908110630000226357630000226363000026a4565b60009182526020909120015460405160e083901b6001600160e01b03191681526001600160a01b039091166004820152602401602060405180830381865afa15801563000022b5573d6000803e3d6000fd5b505050506040513d601f19601f8201168201806040525081019063000022dd9190630000258d565b1463000022f05763000022f06300002655565b600e54600180546001600160801b03926001600160a01b03169163dd62ed3e9186908110630000232657630000232663000026a4565b60009182526020909120015460075460405160e084901b6001600160e01b03191681526001600160a01b03928316600482015291166024820152604401602060405180830381865afa1580156300002382573d6000803e3d6000fd5b505050506040513d601f19601f8201168201806040525081019063000023aa9190630000258d565b1463000023bd5763000023bd6300002655565b508063000023cc8163000026e0565b91505063000017ed565b50565b6132f8806300010c3583390190565b8280548282559060005260206000209081019282156300002443579160200282015b82811115630000244357825182546001600160a01b0319166001600160a01b03909116178255602090920191600190910190630000240a565b50630000245392915063000024bf565b5090565b60a7806300013f2d83390190565b611973806300013fd483390190565b6102b580630001594783390190565b610a5d806300015bfc83390190565b610b5880630001665983390190565b612db98063000171b183390190565b614530806300019f6a83390190565b5b808211156300002453576000815560010163000024c0565b88516001600160a01b0390811682526020808b01518216908301526040808b01518216908301526060808b01518216908301526080808b0151821690830152881660a082015261018081016001600160a01b03881660c08301526001600160a01b03871660e08301526001600160a01b0386166101008301526001600160a01b0385166101208301528361014083015263000025806101608301846001600160a01b03169052565b9998505050505050505050565b60006020828403121563000025a157600080fd5b5051919050565b60006020828403121563000025bc57600080fd5b815160ff8116811463000025cf57600080fd5b9392505050565b600060208083528351808285015260005b8181101563000026075785810183015185820160400152820163000025e7565b506000604082860101526040601f19601f8301168501019250505092915050565b600060208284031215630000263c57600080fd5b81516001600160a01b038116811463000025cf57600080fd5b634e487b7160e01b600052600160045260246000fd5b634e487b7160e01b600052601160045260246000fd5b8082028115828204841417630000269e57630000269e630000266b565b92915050565b634e487b7160e01b600052603260045260246000fd5b60006020828403121563000026ce57600080fd5b8151801515811463000025cf57600080fd5b60006001820163000026f85763000026f8630000266b565b5060010190565b600181815b8085111563000027465781600019048211156300002728576300002728630000266b565b80851615630000273757918102915b93841c93908002906300002704565b509250929050565b600082630000276157506001630000269e565b81630000277257506000630000269e565b8160018114630000278e5760028114630000279a5763000027be565b6001915050630000269e565b60ff84111563000027b15763000027b1630000266b565b50506001821b630000269e565b5060208310610133831016604e8410600b841016171563000027e5575081810a630000269e565b63000027f3838363000026ff565b8060001904821115630000280d57630000280d630000266b565b029392505050565b600063000025cf60ff841683630000274e565b61e3fc8063000028396000396000f3fe608060405234801561001057600080fd5b50600436106102d65760003560e01c80639cc395f911610182578063c8e0c924116100e9578063e9152789116100a2578063f2ff2dd61161007c578063f2ff2dd6146105ce578063f42e1ccf146105e1578063fc6b5fd6146105f4578063ffbd1fae146105fc57600080fd5b8063e915278914610595578063ec1dbd09146105a8578063f2dee55f146105bb57600080fd5b8063c8e0c9241461052e578063d5a651f314610541578063db19212c14610554578063e0c3eefd14610567578063e76cb13f1461056f578063e80552f11461058257600080fd5b8063af3cfaa21161013b578063af3cfaa2146104bc578063b13518e7146104cf578063bd3cad56146104e2578063be850cfe146104f5578063c50847fb14610508578063c5247e271461051b57600080fd5b80639cc395f91461046b5780639f69533914610473578063a60ac68b14610486578063a7f90b8d1461048e578063aae97c9b14610496578063abd75ae4146104a957600080fd5b806342a4e3251161024157806379dd9f2b116101fa5780638d08c8a3116101d45780638d08c8a3146104355780638d7d6afe146104485780638dab8a7f146104505780639bb78ae01461046357600080fd5b806379dd9f2b146104075780637aa5be211461041a578063874651141461042257600080fd5b806342a4e325146103ab57806352bf94d8146103be578063530afc86146103c6578063573e2fb1146103ce578063678c58ff146103e15780637216408d146103f457600080fd5b80631f4a1a6a116102935780631f4a1a6a1461034f57806324c88a0c146103575780632c8b759b1461036a57806337ee3f3e14610372578063407504b314610385578063411fb0bd1461039857600080fd5b806307e10041146102db5780630cb2373c146102f057806312864dd8146103035780631533bd8f146103165780631b2c083b146103295780631cd507fc1461033c575b600080fd5b6102ee6102e936600461ba85565b61060f565b005b6102ee6102fe36600461bab6565b61070c565b6102ee61031136600461bafc565b61080c565b6102ee61032436600461bb37565b6108aa565b6102ee61033736600461ba85565b6109b2565b6102ee61034a36600461bb37565b610ac9565b6102ee610be9565b6102ee61036536600461bb6c565b610c6c565b6102ee610d4a565b6102ee61038036600461ba85565b610dc8565b6102ee61039336600461ba85565b610ea4565b6102ee6103a636600461bb98565b610f80565b6102ee6103b936600461bb37565b611008565b6102ee6110ed565b6102ee6111e1565b6102ee6103dc36600461bab6565b6112a7565b6102ee6103ef36600461bafc565b6113d0565b6102ee61040236600461bb37565b6114bc565b6102ee61041536600461bb37565b6115c3565b6102ee6116a8565b6102ee61043036600461bb98565b611726565b6102ee61044336600461bbbf565b611835565b6102ee611968565b6102ee61045e36600461bbbf565b611a3f565b6102ee611b25565b6102ee611beb565b6102ee61048136600461bb37565b611cb1565b6102ee611d96565b6102ee611e14565b6102ee6104a436600461ba85565b611e92565b6102ee6104b736600461bab6565b611f93565b6102ee6104ca36600461bb6c565b612080565b6102ee6104dd36600461ba85565b612256565b6102ee6104f036600461bb98565b612357565b6102ee61050336600461bb37565b6123df565b6102ee61051636600461bb37565b6124e6565b6102ee61052936600461bb37565b6125cb565b6102ee61053c36600461bb37565b6126c6565b6102ee61054f36600461ba85565b6127c5565b6102ee61056236600461bbbf565b6128a1565b6102ee6129e4565b6102ee61057d36600461bb98565b612aaa565b6102ee61059036600461ba85565b612b7f565b6102ee6105a336600461bb37565b612c74565b6102ee6105b636600461bb37565b612d6f565b6102ee6105c936600461bbbf565b612e54565b6102ee6105dc36600461bab6565b612f4a565b6102ee6105ef36600461bab6565b61303a565b6102ee61313f565b6102ee61060a36600461bab6565b613205565b60025460ff161561064c5761062533600161bc39565b600260016101000a8154816001600160a01b0302191690836001600160a01b031602179055505b6000610658838361330a565b6040805160018082528183019092529192506000919060208083019080368337019050509050600260019054906101000a90046001600160a01b0316816000815181106106a7576106a761bc76565b60200260200101906001600160a01b031690816001600160a01b0316815250506106d381610eee61350e565b6000806106e88460000151856020015161351e565b91509150610704828285610eee88600001518960200151613684565b505050505050565b60025460ff16156107495761072233600161bc39565b600260016101000a8154816001600160a01b0302191690836001600160a01b031602179055505b6000610757858585856136d8565b6040805160018082528183019092529192506000919060208083019080368337019050509050600260019054906101000a90046001600160a01b0316816000815181106107a6576107a661bc76565b60200260200101906001600160a01b031690816001600160a01b0316815250506107d481836020015161350e565b6000806107ee84600001518560200151866040015161394b565b915091506108028282858760200151613ab9565b5050505050505050565b60025460ff16156108495761082233600161bc39565b600260016101000a8154816001600160a01b0302191690836001600160a01b031602179055505b600061085785858585613af2565b60408051600081526020810190915281519192509061087790829061350e565b6000806108968460000151856020015186604001518760600151613e15565b915091506108028282858760000151613f29565b60025460ff16156108e7576108c033600161bc39565b600260016101000a8154816001600160a01b0302191690836001600160a01b031602179055505b60006108f4848484613f42565b6040805160018082528183019092529192506000919060208083019080368337019050509050600260019054906101000a90046001600160a01b0316816000815181106109435761094361bc76565b60200260200101906001600160a01b031690816001600160a01b03168152505061097181836000015161350e565b60008061098b8460000151856020015186604001516141ed565b915091506109a9828285876000015188602001518960400151614347565b50505050505050565b604080516024810184905260448082018490528251808303909101815260649091019091526020810180516001600160e01b031663e80552f160e01b1790526000806109fd8361437b565b9150915081610ac25760408051600180825281830190925260009160208083019080368337019050509050634931f50760e01b81600081518110610a4357610a4361bc76565b6001600160e01b031990921660209283029190910190910152600054604051634471b16360e11b81526001600160a01b03909116906388e362c690610a8e908590859060040161bcd1565b600060405180830381600087803b158015610aa857600080fd5b505af1158015610abc573d6000803e3d6000fd5b50505050505b5050505050565b6040805160ff851660248201526044810184905260648082018490528251808303909101815260849091019091526020810180516001600160e01b0316633238324960e21b179052600080610b1d8361437b565b91509150816107045760408051600180825281830190925260009160208083019080368337019050509050634931f50760e01b81600081518110610b6357610b6361bc76565b6001600160e01b031990921660209283029190910190910152600054604051634471b16360e11b81526001600160a01b03909116906388e362c690610bae908590859060040161bd1b565b600060405180830381600087803b158015610bc857600080fd5b505af1158015610bdc573d6000803e3d6000fd5b5050505050505050505050565b60025460ff1615610c2657610bff33600161bc39565b600260016101000a8154816001600160a01b0302191690836001600160a01b031602179055505b610c2e6143f4565b604080516000808252602082019092529050610c4b81600061350e565b600080610c566144c6565b91509150610c678282856000614588565b505050565b6040805160ff8416602482015260448082018490528251808303909101815260649091019091526020810180516001600160e01b031663579e7d5160e11b179052600080610cb98361437b565b9150915081610ac25760408051600180825281830190925260009160208083019080368337019050509050634931f50760e01b81600081518110610cff57610cff61bc76565b6001600160e01b031990921660209283029190910190910152600054604051634471b16360e11b81526001600160a01b03909116906388e362c690610a8e908590859060040161bd65565b60025460ff1615610d8757610d6033600161bc39565b600260016101000a8154816001600160a01b0302191690836001600160a01b031602179055505b610d8f6145a1565b604080516000808252602082019092529050610dac81600061350e565b600080610db7614671565b91509150610c6782828560006146e6565b604080516024810184905260448082018490528251808303909101815260649091019091526020810180516001600160e01b03166307e1004160e01b179052600080610e138361437b565b9150915081610ac25760408051600180825281830190925260009160208083019080368337019050509050634931f50760e01b81600081518110610e5957610e5961bc76565b6001600160e01b031990921660209283029190910190910152600054604051634471b16360e11b81526001600160a01b03909116906388e362c690610a8e908590859060040161bdaf565b604080516024810184905260448082018490528251808303909101815260649091019091526020810180516001600160e01b031663aae97c9b60e01b179052600080610eef8361437b565b9150915081610ac25760408051600180825281830190925260009160208083019080368337019050509050634931f50760e01b81600081518110610f3557610f3561bc76565b6001600160e01b031990921660209283029190910190910152600054604051634471b16360e11b81526001600160a01b03909116906388e362c690610a8e908590859060040161bdf9565b60025460ff1615610fbd57610f9633600161bc39565b600260016101000a8154816001600160a01b0302191690836001600160a01b031602179055505b6000610fc8826146ff565b6040805160008082526020820190925291925050610fe781600061350e565b600080610ff7846000015161479f565b91509150610ac28282856000614893565b6040805160ff851660248201526044810184905260648082018490528251808303909101815260849091019091526020810180516001600160e01b0316631533bd8f60e01b17905260008061105c8361437b565b91509150816107045760408051600180825281830190925260009160208083019080368337019050509050634931f50760e01b816000815181106110a2576110a261bc76565b6001600160e01b031990921660209283029190910190910152600054604051634471b16360e11b81526001600160a01b03909116906388e362c690610bae908590859060040161be43565b6040805160048152602481019091526020810180516001600160e01b031663a7f90b8d60e01b1790526000806111228361437b565b9150915081610c675760408051600180825281830190925260009160208083019080368337019050509050634931f50760e01b816000815181106111685761116861bc76565b6001600160e01b031990921660209283029190910190910152600054604051634471b16360e11b81526001600160a01b03909116906388e362c6906111b3908590859060040161be8d565b600060405180830381600087803b1580156111cd57600080fd5b505af1158015610802573d6000803e3d6000fd5b6040805160048152602481019091526020810180516001600160e01b03166346beb57f60e11b1790526000806112168361437b565b9150915081610c675760408051600180825281830190925260009160208083019080368337019050509050634931f50760e01b8160008151811061125c5761125c61bc76565b6001600160e01b031990921660209283029190910190910152600054604051634471b16360e11b81526001600160a01b03909116906388e362c6906111b3908590859060040161bed7565b6040805160ff8681166024830152851660448201526064810184905260848082018490528251808303909101815260a49091019091526020810180516001600160e01b031663f42e1ccf60e01b1790526000806113038361437b565b91509150816109a95760408051600180825281830190925260009160208083019080368337019050509050634931f50760e01b816000815181106113495761134961bc76565b6001600160e01b031990921660209283029190910190910152600054604051634471b16360e11b81526001600160a01b03909116906388e362c690611394908590859060040161bf21565b600060405180830381600087803b1580156113ae57600080fd5b505af11580156113c2573d6000803e3d6000fd5b505050505050505050505050565b6040805160ff86166024820152604481018590526064810184905260848082018490528251808303909101815260a49091019091526020810180516001600160e01b0316630250c9bb60e31b17905260008061142b8361437b565b91509150816109a95760408051600180825281830190925260009160208083019080368337019050509050634931f50760e01b816000815181106114715761147161bc76565b6001600160e01b031990921660209283029190910190910152600054604051634471b16360e11b81526001600160a01b03909116906388e362c690611394908590859060040161bf6b565b60025460ff16156114f9576114d233600161bc39565b600260016101000a8154816001600160a01b0302191690836001600160a01b031602179055505b60006115068484846148ac565b6040805160018082528183019092529192506000919060208083019080368337019050509050600260019054906101000a90046001600160a01b0316816000815181106115555761155561bc76565b6001600160a01b039283166020918202929092010152600e5461157a9183911661350e565b600080611594846000015185602001518660400151614b59565b915091506109a9828285600e60009054906101000a90046001600160a01b031688602001518960400151614c37565b6040805160ff851660248201526044810184905260648082018490528251808303909101815260849091019091526020810180516001600160e01b031663e915278960e01b1790526000806116178361437b565b91509150816107045760408051600180825281830190925260009160208083019080368337019050509050634931f50760e01b8160008151811061165d5761165d61bc76565b6001600160e01b031990921660209283029190910190910152600054604051634471b16360e11b81526001600160a01b03909116906388e362c690610bae908590859060040161bfb5565b60025460ff16156116e5576116be33600161bc39565b600260016101000a8154816001600160a01b0302191690836001600160a01b031602179055505b6116ed614c58565b60408051600080825260208201909252905061170a81600061350e565b600080611715614ced565b91509150610c678282856000614d62565b6040805160248082018490528251808303909101815260449091019091526020810180516001600160e01b0316635e9e56ab60e11b17905260008061176a8361437b565b915091508161182f5760408051600180825281830190925260009160208083019080368337019050509050634931f50760e01b816000815181106117b0576117b061bc76565b6001600160e01b031990921660209283029190910190910152600054604051634471b16360e11b81526001600160a01b03909116906388e362c6906117fb908590859060040161bfff565b600060405180830381600087803b15801561181557600080fd5b505af1158015611829573d6000803e3d6000fd5b50505050505b50505050565b60408051861515602482015260ff868116604483015285811660648301528416608482015260a48082018490528251808303909101815260c49091019091526020810180516001600160e01b03166336c6484b60e21b17905260008061189a8361437b565b91509150816108025760408051600180825281830190925260009160208083019080368337019050509050634931f50760e01b816000815181106118e0576118e061bc76565b6001600160e01b031990921660209283029190910190910152600054604051634471b16360e11b81526001600160a01b03909116906388e362c69061192b908590859060040161c049565b600060405180830381600087803b15801561194557600080fd5b505af1158015611959573d6000803e3d6000fd5b50505050505050505050505050565b60025460ff16156119a55761197e33600161bc39565b600260016101000a8154816001600160a01b0302191690836001600160a01b031602179055505b6119ad614d8e565b60408051600180825281830190925260009160208083019080368337019050509050600260019054906101000a90046001600160a01b0316816000815181106119f8576119f861bc76565b60200260200101906001600160a01b031690816001600160a01b031681525050611a2381600061350e565b600080611a2e614e53565b91509150610c678282856000614ec8565b60025460ff1615611a7c57611a5533600161bc39565b600260016101000a8154816001600160a01b0302191690836001600160a01b031602179055505b6000611a8b8686868686614ee1565b6040805160018082528183019092529192506000919060208083019080368337019050509050816040015181600081518110611ac957611ac961bc76565b60200260200101906001600160a01b031690816001600160a01b031681525050611af781836020015161350e565b600080611b07846000015161552f565b91509150611829828285876020015188606001518960400151615607565b6040805160048152602481019091526020810180516001600160e01b0316637aa5be2160e01b179052600080611b5a8361437b565b9150915081610c675760408051600180825281830190925260009160208083019080368337019050509050634931f50760e01b81600081518110611ba057611ba061bc76565b6001600160e01b031990921660209283029190910190910152600054604051634471b16360e11b81526001600160a01b03909116906388e362c6906111b3908590859060040161c093565b6040805160048152602481019091526020810180516001600160e01b0316630fa50d3560e11b179052600080611c208361437b565b9150915081610c675760408051600180825281830190925260009160208083019080368337019050509050634931f50760e01b81600081518110611c6657611c6661bc76565b6001600160e01b031990921660209283029190910190910152600054604051634471b16360e11b81526001600160a01b03909116906388e362c6906111b3908590859060040161c0dd565b6040805160ff851660248201526044810184905260648082018490528251808303909101815260849091019091526020810180516001600160e01b031663c5247e2760e01b179052600080611d058361437b565b91509150816107045760408051600180825281830190925260009160208083019080368337019050509050634931f50760e01b81600081518110611d4b57611d4b61bc76565b6001600160e01b031990921660209283029190910190910152600054604051634471b16360e11b81526001600160a01b03909116906388e362c690610bae908590859060040161c127565b60025460ff1615611dd357611dac33600161bc39565b600260016101000a8154816001600160a01b0302191690836001600160a01b031602179055505b611ddb61569e565b604080516000808252602082019092529050611df881600061350e565b600080611e03615762565b91509150610c6782828560006157d7565b60025460ff1615611e5157611e2a33600161bc39565b600260016101000a8154816001600160a01b0302191690836001600160a01b031602179055505b611e596157f0565b604080516000808252602082019092529050611e7681600061350e565b600080611e816158b4565b91509150610c678282856000615929565b60025460ff1615611ecf57611ea833600161bc39565b600260016101000a8154816001600160a01b0302191690836001600160a01b031602179055505b6000611edb8383615942565b6040805160018082528183019092529192506000919060208083019080368337019050509050600260019054906101000a90046001600160a01b031681600081518110611f2a57611f2a61bc76565b6001600160a01b039283166020918202929092010152600f54611f4f9183911661350e565b600080611f6484600001518560200151615b98565b91509150610704828285600f60009054906101000a90046001600160a01b031688600001518960200151615c75565b6040805160ff8681166024830152851660448201526064810184905260848082018490528251808303909101815260a49091019091526020810180516001600160e01b031663032c8dcf60e21b179052600080611fef8361437b565b91509150816109a95760408051600180825281830190925260009160208083019080368337019050509050634931f50760e01b816000815181106120355761203561bc76565b6001600160e01b031990921660209283029190910190910152600054604051634471b16360e11b81526001600160a01b03909116906388e362c690611394908590859060040161c171565b60025460ff16156120bd5761209633600161bc39565b600260016101000a8154816001600160a01b0302191690836001600160a01b031602179055505b60006120c98383615c96565b6040805160018082528183019092529192506000919060208083019080368337019050509050600260019054906101000a90046001600160a01b0316816000815181106121185761211861bc76565b6001600160a01b03929092166020928302919091019091015260408051600180825281830190925260009181602001602082028036833701905050905083816000815181106121695761216961bc76565b602090810291909101015260085483516040516314537f8f60e11b81526000926001600160a01b0316916328a6ff1e916121a89190869060040161c1eb565b600060405180830381865afa1580156121c5573d6000803e3d6000fd5b505050506040513d6000823e601f3d908101601f191682016040526121ed919081019061c2d4565b905061221783826000815181106122065761220661bc76565b60200260200101516020015161350e565b60008061222c86600001518760200151615ea1565b91509150610802828287866000815181106122495761224961bc76565b6020026020010151615ff9565b60025460ff16156122935761226c33600161bc39565b600260016101000a8154816001600160a01b0302191690836001600160a01b031602179055505b600061229f8383616035565b6040805160018082528183019092529192506000919060208083019080368337019050509050600260019054906101000a90046001600160a01b0316816000815181106122ee576122ee61bc76565b6001600160a01b039283166020918202929092010152600e546123139183911661350e565b60008061232884600001518560200151616147565b91509150610704828285600e60009054906101000a90046001600160a01b031688600001518960200151616224565b60025460ff16156123945761236d33600161bc39565b600260016101000a8154816001600160a01b0302191690836001600160a01b031602179055505b600061239f82616245565b60408051600080825260208201909252919250506123be81600061350e565b6000806123ce846000015161631b565b91509150610ac28282856000616386565b60025460ff161561241c576123f533600161bc39565b600260016101000a8154816001600160a01b0302191690836001600160a01b031602179055505b600061242984848461639f565b6040805160018082528183019092529192506000919060208083019080368337019050509050600260019054906101000a90046001600160a01b0316816000815181106124785761247861bc76565b6001600160a01b039283166020918202929092010152600f5461249d9183911661350e565b6000806124b7846000015185602001518660400151616653565b915091506109a9828285600f60009054906101000a90046001600160a01b031688602001518960400151616731565b6040805160ff851660248201526044810184905260648082018490528251808303909101815260849091019091526020810180516001600160e01b0316637216408d60e01b17905260008061253a8361437b565b91509150816107045760408051600180825281830190925260009160208083019080368337019050509050634931f50760e01b816000815181106125805761258061bc76565b6001600160e01b031990921660209283029190910190910152600054604051634471b16360e11b81526001600160a01b03909116906388e362c690610bae908590859060040161c3b1565b60025460ff1615612608576125e133600161bc39565b600260016101000a8154816001600160a01b0302191690836001600160a01b031602179055505b6000612615848484616752565b6040805160018082528183019092529192506000919060208083019080368337019050509050600260019054906101000a90046001600160a01b0316816000815181106126645761266461bc76565b60200260200101906001600160a01b031690816001600160a01b03168152505061269081610eee61350e565b6000806126aa8460000151856020015186604001516168d7565b915091506109a9828285610eee886020015189604001516169b5565b60025460ff1615612703576126dc33600161bc39565b600260016101000a8154816001600160a01b0302191690836001600160a01b031602179055505b60006127108484846169f1565b6040805160018082528183019092529192506000919060208083019080368337019050509050600260019054906101000a90046001600160a01b03168160008151811061275f5761275f61bc76565b60200260200101906001600160a01b031690816001600160a01b03168152505061278d81836000015161350e565b6000806127a7846000015185602001518660400151616add565b915091506109a9828285876000015188602001518960400151616bbb565b604080516024810184905260448082018490528251808303909101815260649091019091526020810180516001600160e01b031663b13518e760e01b1790526000806128108361437b565b9150915081610ac25760408051600180825281830190925260009160208083019080368337019050509050634931f50760e01b816000815181106128565761285661bc76565b6001600160e01b031990921660209283029190910190910152600054604051634471b16360e11b81526001600160a01b03909116906388e362c690610a8e908590859060040161c3fb565b60025460ff16156128de576128b733600161bc39565b600260016101000a8154816001600160a01b0302191690836001600160a01b031602179055505b60006128ed8686868686616c03565b604080516001808252818301909252919250600091906020808301908036833701905050905081608001518160008151811061292b5761292b61bc76565b6001600160a01b0392831660209182029290920181019190915260075490840151604051637efab4f560e01b815290831660048201526000929190911690637efab4f590602401602060405180830381865afa15801561298f573d6000803e3d6000fd5b505050506040513d601f19601f820116820180604052508101906129b3919061c445565b90506129bf828261350e565b6000806129cf8560000151616eea565b91509150610abc828286868960400151616fc2565b6040805160048152602481019091526020810180516001600160e01b0316632c8b759b60e01b179052600080612a198361437b565b9150915081610c675760408051600180825281830190925260009160208083019080368337019050509050634931f50760e01b81600081518110612a5f57612a5f61bc76565b6001600160e01b031990921660209283029190910190910152600054604051634471b16360e11b81526001600160a01b03909116906388e362c6906111b3908590859060040161c467565b6040805160248082018490528251808303909101815260449091019091526020810180516001600160e01b031663411fb0bd60e01b179052600080612aee8361437b565b915091508161182f5760408051600180825281830190925260009160208083019080368337019050509050634931f50760e01b81600081518110612b3457612b3461bc76565b6001600160e01b031990921660209283029190910190910152600054604051634471b16360e11b81526001600160a01b03909116906388e362c6906117fb908590859060040161c4b1565b60025460ff1615612bbc57612b9533600161bc39565b600260016101000a8154816001600160a01b0302191690836001600160a01b031602179055505b6000612bc8838361700f565b6040805160018082528183019092529192506000919060208083019080368337019050509050600260019054906101000a90046001600160a01b031681600081518110612c1757612c1761bc76565b60200260200101906001600160a01b031690816001600160a01b031681525050612c4381610eee61350e565b600080612c58846000015185602001516170cd565b91509150610704828285610eee886000015189602001516171aa565b60025460ff1615612cb157612c8a33600161bc39565b600260016101000a8154816001600160a01b0302191690836001600160a01b031602179055505b6000612cbe8484846171cb565b6040805160018082528183019092529192506000919060208083019080368337019050509050600260019054906101000a90046001600160a01b031681600081518110612d0d57612d0d61bc76565b60200260200101906001600160a01b031690816001600160a01b031681525050612d3981610eee61350e565b600080612d538460000151856020015186604001516172a2565b915091506109a9828285610eee88602001518960400151617380565b6040805160ff851660248201526044810184905260648082018490528251808303909101815260849091019091526020810180516001600160e01b0316635f42867f60e11b179052600080612dc38361437b565b91509150816107045760408051600180825281830190925260009160208083019080368337019050509050634931f50760e01b81600081518110612e0957612e0961bc76565b6001600160e01b031990921660209283029190910190910152600054604051634471b16360e11b81526001600160a01b03909116906388e362c690610bae908590859060040161c4fb565b60408051861515602482015260ff868116604483015285811660648301528416608482015260a48082018490528251808303909101815260c49091019091526020810180516001600160e01b0316638dab8a7f60e01b179052600080612eb98361437b565b91509150816108025760408051600180825281830190925260009160208083019080368337019050509050634931f50760e01b81600081518110612eff57612eff61bc76565b6001600160e01b031990921660209283029190910190910152600054604051634471b16360e11b81526001600160a01b03909116906388e362c69061192b908590859060040161c545565b6040805160ff8681166024830152851660448201526064810184905260848082018490528251808303909101815260a49091019091526020810180516001600160e01b031660016221702960e11b0319179052600080612fa98361437b565b91509150816109a95760408051600180825281830190925260009160208083019080368337019050509050634931f50760e01b81600081518110612fef57612fef61bc76565b6001600160e01b031990921660209283029190910190910152600054604051634471b16360e11b81526001600160a01b03909116906388e362c690611394908590859060040161c58f565b60025460ff16156130775761305033600161bc39565b600260016101000a8154816001600160a01b0302191690836001600160a01b031602179055505b6000613085858585856173ae565b6040805160018082528183019092529192506000919060208083019080368337019050509050600260019054906101000a90046001600160a01b0316816000815181106130d4576130d461bc76565b60200260200101906001600160a01b031690816001600160a01b03168152505061310281836000015161350e565b6000806131218460000151856020015186604001518760600151617694565b915091506108028282858760000151886040015189606001516177f2565b6040805160048152602481019091526020810180516001600160e01b031663a60ac68b60e01b1790526000806131748361437b565b9150915081610c675760408051600180825281830190925260009160208083019080368337019050509050634931f50760e01b816000815181106131ba576131ba61bc76565b6001600160e01b031990921660209283029190910190910152600054604051634471b16360e11b81526001600160a01b03909116906388e362c6906111b3908590859060040161c5d9565b60025460ff16156132425761321b33600161bc39565b600260016101000a8154816001600160a01b0302191690836001600160a01b031602179055505b600061325085858585617813565b6040805160018082528183019092529192506000919060208083019080368337019050509050600260019054906101000a90046001600160a01b03168160008151811061329f5761329f61bc76565b60200260200101906001600160a01b031690816001600160a01b0316815250506132cd81836000015161350e565b6000806132ec84600001518560200151866040015187606001516178f6565b915091506108028282858760000151886040015189606001516179d8565b6040805180820190915260008082526020820152600760009054906101000a90046001600160a01b03166001600160a01b0316635c975abb6040518163ffffffff1660e01b8152600401602060405180830381865afa158015613371573d6000803e3d6000fd5b505050506040513d601f19601f82011682018060405250810190613395919061c623565b80156133aa57506133a760644361c640565b15155b156133d157604051634931f50760e01b81526004016133c89061c662565b60405180910390fd5b60008054600254604051639e42244760e01b815260048101869052602481019390935261010090046001600160a01b039081163160448401521690639e422447906064016020604051808303816000875af1158015613434573d6000803e3d6000fd5b505050506040513d601f19601f82011682018060405250810190613458919061c699565b600080549193506001600160a01b0390911690639e42244790859061347f6103e88761c6b2565b6040516001600160e01b031960e086901b1681526004810193909352602483019190915260448201526064016020604051808303816000875af11580156134ca573d6000803e3d6000fd5b505050506040513d601f19601f820116820180604052508101906134ee919061c699565b925060405180604001604052808481526020018381525090505b92915050565b61351a600083836179f9565b5050565b600060607f53d0440f5fa1e1c8e5a02ad3324abb57a0cf066316cee9d857ab1bf8fdf6d4d68460405161355391815260200190565b60405180910390a160025460405163ca669fa760e01b81526101009091046001600160a01b0316600482015260008051602061cbd38339815191529063ca669fa790602401600060405180830381600087803b1580156135b257600080fd5b505af11580156135c6573d6000803e3d6000fd5b5050600754604051602481018890526001600160a01b039091169250620f42409150859063379970b960e21b906044015b60408051601f198184030181529181526020820180516001600160e01b03166001600160e01b0319909416939093179092529051613635919061c6e9565b600060405180830381858888f193505050503d8060008114613673576040519150601f19603f3d011682016040523d82523d6000602084013e613678565b606091505b50909590945092505050565b85156136cf576136948484617de9565b61369c617df5565b6136ae6136a9838361c705565b617ea4565b6136b782617f76565b6136c1858461801a565b6136ca85618023565b610704565b6136ca8561802e565b60408051606080820183526000808352602083015291810191909152600860009054906101000a90046001600160a01b03166001600160a01b0316635c975abb6040518163ffffffff1660e01b8152600401602060405180830381865afa158015613747573d6000803e3d6000fd5b505050506040513d601f19601f8201168201806040525081019061376b919061c623565b8015613780575061377d60644361c640565b15155b1561379e57604051634931f50760e01b81526004016133c89061c718565b60018054600091906137b39060ff891661c640565b815481106137c3576137c361bc76565b6000918252602082200154600480546001600160a01b039092169350906137ed9060ff891661c640565b815481106137fd576137fd61bc76565b6000918252602082200154600854604051637b1929b760e01b81526001600160a01b0386811660048301529283169450911690637b1929b790602401602060405180830381865afa158015613856573d6000803e3d6000fd5b505050506040513d601f19601f8201168201806040525081019061387a919061c699565b61388590600161c6b2565b60008054604051639e42244760e01b8152600481018a90526024810192909252604482018390529192506001600160a01b0390911690639e422447906064016020604051808303816000875af11580156138e3573d6000803e3d6000fd5b505050506040513d601f19601f82011682018060405250810190613907919061c699565b95506040518060600160405280846001600160a01b03168152602001836001600160a01b0316815260200161393d87898561819d565b905298975050505050505050565b600060607f5ae0a9e202e4415c68aba74bae98550c851ebb34fd8116c730c19f2dd76f59698585856040516139829392919061c747565b60405180910390a160025460405163ca669fa760e01b81526101009091046001600160a01b0316600482015260008051602061cbd38339815191529063ca669fa790602401600060405180830381600087803b1580156139e157600080fd5b505af11580156139f5573d6000803e3d6000fd5b50506008546040516001600160a01b039091169250620f42409150635d3a22ab60e01b90613a2b9089908990899060240161c747565b60408051601f198184030181529181526020820180516001600160e01b03166001600160e01b0319909416939093179092529051613a69919061c6e9565b60006040518083038160008787f1925050503d8060008114613aa7576040519150601f19603f3d011682016040523d82523d6000602084013e613aac565b606091505b5090969095509350505050565b8315613ae957613ac98282617de9565b613ad16182da565b613adb838261801a565b613ae483618356565b61182f565b613ae483618366565b613b26604051806080016040528060006001600160a01b031681526020016000815260200160008152602001600081525090565b6004805460009190613b3b9060ff891661c640565b81548110613b4b57613b4b61bc76565b60009182526020808320909101548254604080516318160ddd60e01b815290516001600160a01b0393841696509190921693639e422447938a93919287926318160ddd9260048083019391928290030181865afa158015613bb0573d6000803e3d6000fd5b505050506040513d601f19601f82011682018060405250810190613bd4919061c699565b6040516001600160e01b031960e086901b1681526004810193909352602483019190915260448201526064016020604051808303816000875af1158015613c1f573d6000803e3d6000fd5b505050506040513d601f19601f82011682018060405250810190613c43919061c699565b600080549196506001600160a01b0390911690639e422447908690613c6a610e108a61c6b2565b6040516001600160e01b031960e086901b1681526004810193909352602483019190915260448201526064016020604051808303816000875af1158015613cb5573d6000803e3d6000fd5b505050506040513d601f19601f82011682018060405250810190613cd9919061c699565b935060008054906101000a90046001600160a01b03166001600160a01b0316639e422447846000610e10856001600160a01b03166318160ddd6040518163ffffffff1660e01b8152600401602060405180830381865afa158015613d41573d6000803e3d6000fd5b505050506040513d601f19601f82011682018060405250810190613d65919061c699565b613d6f919061c6b2565b6040516001600160e01b031960e086901b1681526004810193909352602483019190915260448201526064016020604051808303816000875af1158015613dba573d6000803e3d6000fd5b505050506040513d601f19601f82011682018060405250810190613dde919061c699565b92506040518060800160405280826001600160a01b0316815260200186815260200185815260200184815250915050949350505050565b604080516001600160a01b03861681526020810185905290810183905260608181018390526000917f2e5ae25489a5a374f83388e88988b4099df329a1bebdae32bfc64df3afbbb0519060800160405180910390a1600854604080516001600160a01b038981166024830152604482018990526064820188905260848083018890528351808403909101815260a490920183526020820180516001600160e01b0316638f3a4e4f60e01b17905291519190921691620f424091613ed8919061c6e9565b60006040518083038160008787f1925050503d8060008114613f16576040519150601f19603f3d011682016040523d82523d6000602084013e613f1b565b606091505b509097909650945050505050565b8315613f3957613ad18282617de9565b613ae483618510565b613f6f604051806060016040528060006001600160a01b0316815260200160008152602001600081525090565b600760009054906101000a90046001600160a01b03166001600160a01b0316635c975abb6040518163ffffffff1660e01b8152600401602060405180830381865afa158015613fc2573d6000803e3d6000fd5b505050506040513d601f19601f82011682018060405250810190613fe6919061c623565b8015613ffb5750613ff860644361c640565b15155b1561401957604051634931f50760e01b81526004016133c89061c662565b600580546000919061402e9060ff881661c640565b8154811061403e5761403e61bc76565b600091825260208083209190910154604080516060810182526001600160a01b03928316808252855460025493516370a0823160e01b815261010090940485166004850152909650909493850193921691639e4224479189919087906370a0823190602401602060405180830381865afa1580156140c0573d6000803e3d6000fd5b505050506040513d601f19601f820116820180604052508101906140e4919061c699565b6040516001600160e01b031960e086901b1681526004810193909352602483019190915260448201526064016020604051808303816000875af115801561412f573d6000803e3d6000fd5b505050506040513d601f19601f82011682018060405250810190614153919061c699565b815260008054600254604051639e42244760e01b815260048101899052602481019390935261010090046001600160a01b039081163160448401526020909301921690639e422447906064016020604051808303816000875af11580156141be573d6000803e3d6000fd5b505050506040513d601f19601f820116820180604052508101906141e2919061c699565b905295945050505050565b600060607f1459c43301864a97be9e34b66228cfecac69df8cf00c45e6c731c63b46b95649858560405161422292919061c77c565b60405180910390a160025460405163ca669fa760e01b81526101009091046001600160a01b0316600482015260008051602061cbd38339815191529063ca669fa790602401600060405180830381600087803b15801561428157600080fd5b505af1158015614295573d6000803e3d6000fd5b50506007546040516001600160a01b039091169250620f42409150859063f3fef3a360e01b906142cb908a908a9060240161c77c565b60408051601f198184030181529181526020820180516001600160e01b03166001600160e01b0319909416939093179092529051614309919061c6e9565b600060405180830381858888f193505050503d8060008114613aa7576040519150601f19603f3d011682016040523d82523d6000602084013e613aac565b8515614372576143578484617de9565b61435f6185ee565b61436881617ea4565b6136b7838361866f565b6136ca85618702565b600080600080306001600160a01b031685604051614399919061c6e9565b600060405180830381855af49150503d80600081146143d4576040519150601f19603f3d011682016040523d82523d6000602084013e6143d9565b606091505b509150915081816143e99061c795565b935093505050915091565b600860009054906101000a90046001600160a01b03166001600160a01b031663a6f72cb86040518163ffffffff1660e01b8152600401602060405180830381865afa158015614447573d6000803e3d6000fd5b505050506040513d601f19601f8201168201806040525081019061446b919061c623565b156144c457604051634931f50760e01b815260206004820152602260248201527f5769746864726177616c20717565756520616c72656164792061637469766174604482015261195960f21b60648201526084016133c8565b565b6040516000906060907fd264fb881251dbca29ad3cc4171f725885ab40fcf428852297abc089ab45667f908390a160085460408051600481526024810182526020810180516001600160e01b03166357c5ddaf60e11b17905290516001600160a01b0390921691620f42409161453b9161c6e9565b60006040518083038160008787f1925050503d8060008114614579576040519150601f19603f3d011682016040523d82523d6000602084013e61457e565b606091505b5090939092509050565b831561459857613ad18282617de9565b613ae48361880a565b600860009054906101000a90046001600160a01b03166001600160a01b031663a6f72cb86040518163ffffffff1660e01b8152600401602060405180830381865afa1580156145f4573d6000803e3d6000fd5b505050506040513d601f19601f82011682018060405250810190614618919061c623565b6144c457604051634931f50760e01b8152602060048201526024808201527f5769746864726177616c20717565756520616c72656164792064656163746976604482015263185d195960e21b60648201526084016133c8565b6040516000906060907fe1654a6d6ae82b3af2f46b67edeeb9f8c37e247268742b7bbaf0fbe7b840c873908390a160085460408051600481526024810182526020810180516001600160e01b0316631657a6e560e01b17905290516001600160a01b0390921691620f42409161453b9161c6e9565b83156146f657613ad18282617de9565b613ae48361886b565b60408051602081019091526000815260408051602081019182905260008054639e42244760e01b9093526024820185905260448201526212750060648201529081906001600160a01b0316639e422447608483015b6020604051808303816000875af1158015614773573d6000803e3d6000fd5b505050506040513d601f19601f82011682018060405250810190614797919061c699565b905292915050565b600060607f6c88af2e860b3106752b1ed480b6ce08c8c686a2e99d5d6a97d5916b8387d7b6836040516147d491815260200190565b60405180910390a1600854604051602481018590526001600160a01b0390911690620f42409063d2c13da560e01b906044015b60408051601f198184030181529181526020820180516001600160e01b03166001600160e01b0319909416939093179092529051614845919061c6e9565b60006040518083038160008787f1925050503d8060008114614883576040519150601f19603f3d011682016040523d82523d6000602084013e614888565b606091505b509094909350915050565b83156148a357613ad18282617de9565b613ae4836188cc565b6148d9604051806060016040528060006001600160a01b0316815260200160008152602001600081525090565b600760009054906101000a90046001600160a01b03166001600160a01b0316635c975abb6040518163ffffffff1660e01b8152600401602060405180830381865afa15801561492c573d6000803e3d6000fd5b505050506040513d601f19601f82011682018060405250810190614950919061c623565b8015614965575061496260644361c640565b15155b1561498357604051634931f50760e01b81526004016133c89061c662565b6040518060600160405280600180805490508760ff166149a3919061c640565b815481106149b3576149b361bc76565b6000918252602080832091909101546001600160a01b0390811684528254600e546002546040516370a0823160e01b815261010090910484166004820152959093019490821693639e422447938a9391929116906370a0823190602401602060405180830381865afa158015614a2d573d6000803e3d6000fd5b505050506040513d601f19601f82011682018060405250810190614a51919061c699565b6040516001600160e01b031960e086901b1681526004810193909352602483019190915260448201526064016020604051808303816000875af1158015614a9c573d6000803e3d6000fd5b505050506040513d601f19601f82011682018060405250810190614ac0919061c699565b815260008054600254604051639e42244760e01b815260048101889052602481019390935261010090046001600160a01b039081163160448401526020909301921690639e422447906064016020604051808303816000875af1158015614b2b573d6000803e3d6000fd5b505050506040513d601f19601f82011682018060405250810190614b4f919061c699565b9052949350505050565b600060607fb5738938ad16b880ad3ffb4500186e8fda49d9ef933e5fbb2a69c245a9e5b41f8585604051614b8e92919061c77c565b60405180910390a160025460405163ca669fa760e01b81526101009091046001600160a01b0316600482015260008051602061cbd38339815191529063ca669fa790602401600060405180830381600087803b158015614bed57600080fd5b505af1158015614c01573d6000803e3d6000fd5b50506007546040516001600160a01b039091169250620f42409150859063274346b960e01b906142cb908a908a9060240161c77c565b8515614c4f57614c478484617de9565b61435f61892d565b6136ca856189ae565b600760009054906101000a90046001600160a01b03166001600160a01b0316635c975abb6040518163ffffffff1660e01b8152600401602060405180830381865afa158015614cab573d6000803e3d6000fd5b505050506040513d601f19601f82011682018060405250810190614ccf919061c623565b156144c457604051634931f50760e01b81526004016133c89061c662565b6040516000906060907f9477195fefea6b0c7f989d55d67a827b54bea6d222f81aa3ca0733846c9fa625908390a160075460408051600481526024810182526020810180516001600160e01b0316638456cb5960e01b17905290516001600160a01b0390921691620f42409161453b9161c6e9565b8315614d8557614d728282617de9565b614d7c838261801a565b613ae483618023565b613ae483618ab6565b600860009054906101000a90046001600160a01b03166001600160a01b0316635c975abb6040518163ffffffff1660e01b8152600401602060405180830381865afa158015614de1573d6000803e3d6000fd5b505050506040513d601f19601f82011682018060405250810190614e05919061c623565b156144c457604051634931f50760e01b815260206004820152601a60248201527f526f6f742062726964676520616c72656164792070617573656400000000000060448201526064016133c8565b6040516000906060907fccc926b5006b0f7bf30a599db80458f01890c0c778868e0705508bf14a44bf93908390a160085460408051600481526024810182526020810180516001600160e01b0316638456cb5960e01b17905290516001600160a01b0390921691620f42409161453b9161c6e9565b8315614ed857613ad18282617de9565b613ae483618b17565b60408051608081018252606080825260006020808401829052838501829052918301526008548351635c975abb60e01b8152935192936001600160a01b0390911692635c975abb926004808401939192918290030181865afa158015614f4b573d6000803e3d6000fd5b505050506040513d601f19601f82011682018060405250810190614f6f919061c623565b8015614f845750614f8160644361c640565b15155b15614fa257604051634931f50760e01b81526004016133c89061c718565b600480546001818101835560009283527f8a35acfbc15ff81a39ae7d344fd709f28e8600b4aa8c65c6b64bfe7fe36bd19b90910180546001600160a01b031916610eee1790558054614ff79060ff871661c640565b815481106150075761500761bc76565b6000918252602082200154600480546001600160a01b039092169350906150319060ff8a1661c640565b815481106150415761504161bc76565b60009182526020822001546001600160a01b03169150610eed19820161507f57600854615078906001600160a01b0316318261c6b2565b90506150fa565b6008546040516370a0823160e01b81526001600160a01b039182166004820152908316906370a0823190602401602060405180830381865afa1580156150c9573d6000803e3d6000fd5b505050506040513d601f19601f820116820180604052508101906150ed919061c699565b6150f7908261c6b2565b90505b6000805b60015481101561531a57600854600180546000926001600160a01b031691637b1929b791859081106151325761513261bc76565b60009182526020909120015460405160e083901b6001600160e01b03191681526001600160a01b039091166004820152602401602060405180830381865afa158015615182573d6000803e3d6000fd5b505050506040513d601f19601f820116820180604052508101906151a6919061c699565b905060148111156151fa57604051634931f50760e01b815260206004820152601c60248201527f546f6f206d616e792070656e64696e67207769746864726177616c730000000060448201526064016133c8565b600854600180546000926001600160a01b031691632bf8391191869081106152245761522461bc76565b600091825260208220015460405160e084901b6001600160e01b03191681526001600160a01b039182166004820152908a1660248201526044810191909152606481018590526014608482015260a401600060405180830381865afa158015615291573d6000803e3d6000fd5b505050506040513d6000823e601f3d908101601f191682016040526152b9919081019061c7cc565b905060005b8151811015615304578181815181106152d9576152d961bc76565b602002602001015160200151856152f0919061c6b2565b9450806152fc8161c88a565b9150506152be565b50505080806153129061c88a565b9150506150fe565b50600080546001600160a01b031690639e42244790889061533b858761c705565b6040516001600160e01b031960e086901b1681526004810193909352602483019190915260448201526064016020604051808303816000875af1158015615386573d6000803e3d6000fd5b505050506040513d601f19601f820116820180604052508101906153aa919061c699565b9550506000896153da577f9ab685290d33b4bfa7a76479497c2c3ac66df7ee4f480a88770a20f8a74919276153fc565b7f7a8dc26796a1e50e6e190b70259f58f6a4edd5b22280ceecc82b687b8e9828695b9050600081600480805490508c60ff16615416919061c640565b815481106154265761542661bc76565b600091825260209091200154600180546001600160a01b039092169161544f9060ff8e1661c640565b8154811061545f5761545f61bc76565b6000918252602091829020015460408051928301949094526001600160a01b039283169382019390935291811660608301528616608082015260a0810188905260c001604051602081830303815290604052905060048054806154c4576154c461c8a3565b6001900381819060005260206000200160006101000a8154906001600160a01b03021916905590556040518060800160405280828152602001856001600160a01b03168152602001866001600160a01b03168152602001888152509550505050505095945050505050565b600060607f9c42162f11f20a7e937df5743a2ca36d7fcd049bbf372d50953b5fe40592457283604051615562919061c8e5565b60405180910390a160025460405163ca669fa760e01b81526101009091046001600160a01b0316600482015260008051602061cbd38339815191529063ca669fa790602401600060405180830381600087803b1580156155c157600080fd5b505af11580156155d5573d6000803e3d6000fd5b5050600a546040516001600160a01b039091169250620f42409150631c9231df60e21b9061480790879060240161c8e5565b8515615695576156178484617de9565b61561f618b78565b61562a838284618bf4565b6156348382618cde565b61563d81618d99565b6156478383618e5e565b6156518383618f18565b61565a83619157565b6156658382846191d2565b6156708382846192fd565b615679836195b6565b6156828361968c565b61568c858461801a565b6136ca85618356565b6136ca8561972e565b600860009054906101000a90046001600160a01b03166001600160a01b0316635c975abb6040518163ffffffff1660e01b8152600401602060405180830381865afa1580156156f1573d6000803e3d6000fd5b505050506040513d601f19601f82011682018060405250810190615715919061c623565b6144c457604051634931f50760e01b815260206004820152601c60248201527f526f6f742062726964676520616c726561647920756e7061757365640000000060448201526064016133c8565b6040516000906060907f259554b3909e9bc140cf575a69d562d6c3f4ac460357f91e742b3041d84609b7908390a160085460408051600481526024810182526020810180516001600160e01b0316631fa5d41d60e11b17905290516001600160a01b0390921691620f42409161453b9161c6e9565b83156157e757613ad18282617de9565b613ae4836197fb565b600760009054906101000a90046001600160a01b03166001600160a01b0316635c975abb6040518163ffffffff1660e01b8152600401602060405180830381865afa158015615843573d6000803e3d6000fd5b505050506040513d601f19601f82011682018060405250810190615867919061c623565b6144c457604051634931f50760e01b815260206004820152601d60248201527f4368696c642062726964676520616c726561647920756e70617573656400000060448201526064016133c8565b6040516000906060907f89388cd0b34a8a3c564733b139b09f29ff04d5a0a4a2aaaa5dae67d33991564a908390a160075460408051600481526024810182526020810180516001600160e01b0316631fa5d41d60e11b17905290516001600160a01b0390921691620f42409161453b9161c6e9565b831561593957614d728282617de9565b613ae48361985c565b6040805180820190915260008082526020820152600760009054906101000a90046001600160a01b03166001600160a01b0316635c975abb6040518163ffffffff1660e01b8152600401602060405180830381865afa1580156159a9573d6000803e3d6000fd5b505050506040513d601f19601f820116820180604052508101906159cd919061c623565b80156159e257506159df60644361c640565b15155b15615a0057604051634931f50760e01b81526004016133c89061c662565b604080518082019182905260008054600f546002546370a0823160e01b9095526001600160a01b03610100909504851660448501529293849391811692639e422447928992166370a08231606487015b602060405180830381865afa158015615a6d573d6000803e3d6000fd5b505050506040513d601f19601f82011682018060405250810190615a91919061c699565b6040516001600160e01b031960e086901b1681526004810193909352602483019190915260448201526064016020604051808303816000875af1158015615adc573d6000803e3d6000fd5b505050506040513d601f19601f82011682018060405250810190615b00919061c699565b815260008054600254604051639e42244760e01b815260048101889052602481019390935261010090046001600160a01b039081163160448401526020909301921690639e422447906064016020604051808303816000875af1158015615b6b573d6000803e3d6000fd5b505050506040513d601f19601f82011682018060405250810190615b8f919061c699565b90529392505050565b600060607f3935ab91c98f22257ff456f753469e0c303e936ab733932e8dba667e13eaac1484604051615bcd91815260200190565b60405180910390a160025460405163ca669fa760e01b81526101009091046001600160a01b0316600482015260008051602061cbd38339815191529063ca669fa790602401600060405180830381600087803b158015615c2c57600080fd5b505af1158015615c40573d6000803e3d6000fd5b5050600754604051602481018890526001600160a01b039091169250620f4240915085906378a1085360e11b906044016135f7565b8515615c8d57615c858484617de9565b61435f6198bd565b6136ca8561993e565b6040805180820190915260008082526020820152600860009054906101000a90046001600160a01b03166001600160a01b0316635c975abb6040518163ffffffff1660e01b8152600401602060405180830381865afa158015615cfd573d6000803e3d6000fd5b505050506040513d601f19601f82011682018060405250810190615d21919061c623565b8015615d365750615d3360644361c640565b15155b15615d5457604051634931f50760e01b81526004016133c89061c718565b6001805460009190615d699060ff871661c640565b81548110615d7957615d7961bc76565b60009182526020822001548154600854604051637b1929b760e01b81526001600160a01b0393841660048201819052955091831693639e42244793889391921690637b1929b790602401602060405180830381865afa158015615de0573d6000803e3d6000fd5b505050506040513d601f19601f82011682018060405250810190615e04919061c699565b615e0f90600161c6b2565b6040516001600160e01b031960e086901b1681526004810193909352602483019190915260448201526064016020604051808303816000875af1158015615e5a573d6000803e3d6000fd5b505050506040513d601f19601f82011682018060405250810190615e7e919061c699565b604080518082019091526001600160a01b03909216825260208201529392505050565b600060607f4b9a9a5523fc8e2bce6ca787a9e8f29c335e45f30df8f44a2ce84ae9bd3d9ce08484604051615ed692919061c77c565b60405180910390a160025460405163ca669fa760e01b81526101009091046001600160a01b0316600482015260008051602061cbd38339815191529063ca669fa790602401600060405180830381600087803b158015615f3557600080fd5b505af1158015615f49573d6000803e3d6000fd5b50506008546040516001600160a01b039091169250620f42409150631d3d114760e11b90615f7d908890889060240161c77c565b60408051601f198184030181529181526020820180516001600160e01b03166001600160e01b0319909416939093179092529051615fbb919061c6e9565b60006040518083038160008787f1925050503d8060008114613673576040519150601f19603f3d011682016040523d82523d6000602084013e613678565b831561602c5761600d828260200151617de9565b616015619a46565b61601e81619ac2565b613adb83826020015161801a565b613ae483619b4a565b6040805180820190915260008082526020820152600760009054906101000a90046001600160a01b03166001600160a01b0316635c975abb6040518163ffffffff1660e01b8152600401602060405180830381865afa15801561609c573d6000803e3d6000fd5b505050506040513d601f19601f820116820180604052508101906160c0919061c623565b80156160d557506160d260644361c640565b15155b156160f357604051634931f50760e01b81526004016133c89061c662565b604080518082019182905260008054600e546002546370a0823160e01b9095526001600160a01b03610100909504851660448501529293849391811692639e422447928992166370a0823160648701615a50565b600060607fa07249f28460d6504034082ec86d4c66d419ad9113a397036275f3323efb4cc88460405161617c91815260200190565b60405180910390a160025460405163ca669fa760e01b81526101009091046001600160a01b0316600482015260008051602061cbd38339815191529063ca669fa790602401600060405180830381600087803b1580156161db57600080fd5b505af11580156161ef573d6000803e3d6000fd5b5050600754604051602481018890526001600160a01b039091169250620f42409150859063295b0f1b60e11b906044016135f7565b851561623c576162348484617de9565b61435f619c86565b6136ca85619d07565b60408051602081019091526000815260408051602080820180845260008054600c5463313ce56760e01b9093529451939485946001600160a01b0391821694639e422447948a9493169163313ce567916024808a019290818b030181865afa1580156162b5573d6000803e3d6000fd5b505050506040513d601f19601f820116820180604052508101906162d9919061c8f8565b6162ea9060ff16633b9aca0061c915565b6040516001600160e01b031960e086901b168152600481019390935260248301919091526044820152606401614754565b600060607ee32ffaa5185f123c75ac2361df2dba64631155324064b57691cf6ec6f2191a8360405161634f91815260200190565b60405180910390a1600854604051602481018590526001600160a01b0390911690620f424090636b46afeb60e11b90604401614807565b831561639657613ad18282617de9565b613ae483619e0f565b6163cc604051806060016040528060006001600160a01b0316815260200160008152602001600081525090565b600760009054906101000a90046001600160a01b03166001600160a01b0316635c975abb6040518163ffffffff1660e01b8152600401602060405180830381865afa15801561641f573d6000803e3d6000fd5b505050506040513d601f19601f82011682018060405250810190616443919061c623565b8015616458575061645560644361c640565b15155b1561647657604051634931f50760e01b81526004016133c89061c662565b60008054600254604051639e42244760e01b815260048101869052602481019390935261010090046001600160a01b039081163160448401521690639e422447906064016020604051808303816000875af11580156164d9573d6000803e3d6000fd5b505050506040513d601f19601f820116820180604052508101906164fd919061c699565b60008054600f546002546040516370a0823160e01b81526001600160a01b036101009092048216600482015294965091821693639e422447938893909216906370a0823190602401602060405180830381865afa158015616562573d6000803e3d6000fd5b505050506040513d601f19601f82011682018060405250810190616586919061c699565b6040516001600160e01b031960e086901b1681526004810193909352602483019190915260448201526064016020604051808303816000875af11580156165d1573d6000803e3d6000fd5b505050506040513d601f19601f820116820180604052508101906165f5919061c699565b92506040518060600160405280600180805490508760ff16616617919061c640565b815481106166275761662761bc76565b600091825260209182902001546001600160a01b03168252810185905260400183905290509392505050565b600060607f19bc3ad1938343e716202d2fc8101ecb500232e90b367b8148c01d87e5c938c2858560405161668892919061c77c565b60405180910390a160025460405163ca669fa760e01b81526101009091046001600160a01b0316600482015260008051602061cbd38339815191529063ca669fa790602401600060405180830381600087803b1580156166e757600080fd5b505af11580156166fb573d6000803e3d6000fd5b50506007546040516001600160a01b039091169250620f4240915085906334bdc4a560e11b906142cb908a908a9060240161c77c565b8515616749576167418484617de9565b61435f619eb7565b6136ca85619f38565b61677f604051806060016040528060006001600160a01b0316815260200160008152602001600081525090565b600860009054906101000a90046001600160a01b03166001600160a01b0316635c975abb6040518163ffffffff1660e01b8152600401602060405180830381865afa1580156167d2573d6000803e3d6000fd5b505050506040513d601f19601f820116820180604052508101906167f6919061c623565b801561680b575061680860644361c640565b15155b1561682957604051634931f50760e01b81526004016133c89061c718565b60008054600254604051639e42244760e01b815260048101869052602481019390935261010090046001600160a01b039081163160448401521690639e422447906064016020604051808303816000875af115801561688c573d6000803e3d6000fd5b505050506040513d601f19601f820116820180604052508101906168b0919061c699565b600080549193506001600160a01b0390911690639e4224479085906165866103e88761c6b2565b600060607f2e88014a020ed6830f1071923d8e0628a50b622e07eb98565e08edbaa42080e6858560405161690c92919061c77c565b60405180910390a160025460405163ca669fa760e01b81526101009091046001600160a01b0316600482015260008051602061cbd38339815191529063ca669fa790602401600060405180830381600087803b15801561696b57600080fd5b505af115801561697f573d6000803e3d6000fd5b50506008546040516001600160a01b039091169250620f424091508590637020821960e11b906142cb908a908a9060240161c77c565b85156169e8576169c58484617de9565b6169cd61a040565b6169df6169da838361c705565b61a0bc565b6156828261a160565b6136ca8561a204565b616a1e604051806060016040528060006001600160a01b0316815260200160008152602001600081525090565b600860009054906101000a90046001600160a01b03166001600160a01b0316635c975abb6040518163ffffffff1660e01b8152600401602060405180830381865afa158015616a71573d6000803e3d6000fd5b505050506040513d601f19601f82011682018060405250810190616a95919061c623565b8015616aaa5750616aa760644361c640565b15155b15616ac857604051634931f50760e01b81526004016133c89061c718565b600480546000919061402e9060ff881661c640565b600060607f38c8fe8b626b80782905358b527815bac33b5b91319504a856fe037ca85465cd8585604051616b1292919061c77c565b60405180910390a160025460405163ca669fa760e01b81526101009091046001600160a01b0316600482015260008051602061cbd38339815191529063ca669fa790602401600060405180830381600087803b158015616b7157600080fd5b505af1158015616b85573d6000803e3d6000fd5b50506008546040516001600160a01b039091169250620f4240915085906311f9fbc960e21b906142cb908a908a9060240161c77c565b8515616bfa57616bcb8484617de9565b616bd361a340565b616bdc8161a0bc565b616be6838361a3bc565b616bf0838361a47c565b615682838361a539565b6136ca8561a5e5565b6040805160a081018252606080825260006020830181905292820183905281018290526080810182905260048054919291616c419060ff891661c640565b81548110616c5157616c5161bc76565b600091825260209091200154600d546001600160a01b039182169250168103616c795750610eee5b600c546001600160a01b0390811690821603616d2f57600080546007546001600160a01b0391821692639e422447928792616cb9916103e891163161c6b2565b6040516001600160e01b031960e086901b1681526004810193909352602483019190915260448201526064016020604051808303816000875af1158015616d04573d6000803e3d6000fd5b505050506040513d601f19601f82011682018060405250810190616d28919061c699565b9250616db2565b60008054604051639e42244760e01b8152600481018690526024810192909252633b9aca0060448301526001600160a01b031690639e422447906064016020604051808303816000875af1158015616d8b573d6000803e3d6000fd5b505050506040513d601f19601f82011682018060405250810190616daf919061c699565b92505b600087616ddf577f9ab685290d33b4bfa7a76479497c2c3ac66df7ee4f480a88770a20f8a7491927616e01565b7f87a7811f4bfedea3d341ad165680ae306b01aaeacc205d227629cf157dd9f8215b60018054919250600091616e189060ff8a1661c640565b81548110616e2857616e2861bc76565b6000918252602082200154600180546001600160a01b03909216935090616e529060ff8a1661c640565b81548110616e6257616e6261bc76565b6000918252602091829020015460408051928301959095526001600160a01b039586168286018190529386166060830181905295166080820181905260a080830189905285518084039091018152610160830190955260c0820194855260e0820193909352610100810196909652506101208501929092526101409093015250949350505050565b600060607f922dccbb30e3cb381ec515eff8c12bb310dc32a0b4a26e9f9b093e54f7ff151f83604051616f1d919061c8e5565b60405180910390a160025460405163ca669fa760e01b81526101009091046001600160a01b0316600482015260008051602061cbd38339815191529063ca669fa790602401600060405180830381600087803b158015616f7c57600080fd5b505af1158015616f90573d6000803e3d6000fd5b5050600b546040516001600160a01b039091169250620f42409150631c9231df60e21b9061480790879060240161c8e5565b841561700657616fd28383617de9565b616fda61a721565b616fe4828261a7a2565b616fee828261a85e565b616ff8848361801a565b61700184618023565b610ac2565b6170018461a92e565b6040805180820190915260008082526020820152600860009054906101000a90046001600160a01b03166001600160a01b0316635c975abb6040518163ffffffff1660e01b8152600401602060405180830381865afa158015617076573d6000803e3d6000fd5b505050506040513d601f19601f8201168201806040525081019061709a919061c623565b80156170af57506170ac60644361c640565b15155b156133d157604051634931f50760e01b81526004016133c89061c718565b600060607f0f81ebe78d074e95a0d4f3c54ca4335c5db40f9a0f11c43e80ab185bb9feacef8460405161710291815260200190565b60405180910390a160025460405163ca669fa760e01b81526101009091046001600160a01b0316600482015260008051602061cbd38339815191529063ca669fa790602401600060405180830381600087803b15801561716157600080fd5b505af1158015617175573d6000803e3d6000fd5b5050600854604051602481018890526001600160a01b039091169250620f4240915085906329ac7ded60e11b906044016135f7565b85156171c2576171ba8484617de9565b6169cd61aa36565b6136ca8561aab2565b6171f8604051806060016040528060006001600160a01b0316815260200160008152602001600081525090565b600760009054906101000a90046001600160a01b03166001600160a01b0316635c975abb6040518163ffffffff1660e01b8152600401602060405180830381865afa15801561724b573d6000803e3d6000fd5b505050506040513d601f19601f8201168201806040525081019061726f919061c623565b8015617284575061728160644361c640565b15155b1561682957604051634931f50760e01b81526004016133c89061c662565b600060607f93ab6d11d21cd637d7045c1279c882ef4f5906046b604a2d26c62be64b8f142785856040516172d792919061c77c565b60405180910390a160025460405163ca669fa760e01b81526101009091046001600160a01b0316600482015260008051602061cbd38339815191529063ca669fa790602401600060405180830381600087803b15801561733657600080fd5b505af115801561734a573d6000803e3d6000fd5b50506007546040516001600160a01b039091169250620f42409150859063497fe97160e11b906142cb908a908a9060240161c77c565b85156173a5576173908484617de9565b61739861abee565b6136b76136a9838361c705565b6136ca8561ac6f565b604080516080810182526000808252602082018190529181018290526060810191909152600860009054906101000a90046001600160a01b03166001600160a01b0316635c975abb6040518163ffffffff1660e01b8152600401602060405180830381865afa158015617425573d6000803e3d6000fd5b505050506040513d601f19601f82011682018060405250810190617449919061c623565b801561745e575061745b60644361c640565b15155b1561747c57604051634931f50760e01b81526004016133c89061c718565b60048054600091906174919060ff891661c640565b815481106174a1576174a161bc76565b6000918252602091829020015460408051608081019091526001600160a01b03909116808252600180549194509192830191906174e19060ff8a1661c640565b815481106174f1576174f161bc76565b6000918252602080832091909101546001600160a01b03908116845282546002546040516370a0823160e01b815261010090910483166004820152949092019391811692639e422447928a928816906370a0823190602401602060405180830381865afa158015617566573d6000803e3d6000fd5b505050506040513d601f19601f8201168201806040525081019061758a919061c699565b6040516001600160e01b031960e086901b1681526004810193909352602483019190915260448201526064016020604051808303816000875af11580156175d5573d6000803e3d6000fd5b505050506040513d601f19601f820116820180604052508101906175f9919061c699565b815260008054600254604051639e42244760e01b815260048101899052602481019390935261010090046001600160a01b039081163160448401526020909301921690639e422447906064016020604051808303816000875af1158015617664573d6000803e3d6000fd5b505050506040513d601f19601f82011682018060405250810190617688919061c699565b90529695505050505050565b600060607f4136bf80fdaee64e0e2d7e17b2bda7823a28a97f1a04dd7eb5bea4065ec5813d8686866040516176cb9392919061c92c565b60405180910390a160025460405163ca669fa760e01b81526101009091046001600160a01b0316600482015260008051602061cbd38339815191529063ca669fa790602401600060405180830381600087803b15801561772a57600080fd5b505af115801561773e573d6000803e3d6000fd5b50506008546040516001600160a01b039091169250620f424091508590633c84c56760e21b90617776908b908b908b9060240161c92c565b60408051601f198184030181529181526020820180516001600160e01b03166001600160e01b03199094169390931790925290516177b4919061c6e9565b600060405180830381858888f193505050503d8060008114613f16576040519150601f19603f3d011682016040523d82523d6000602084013e613f1b565b851561780a576178028484617de9565b616bd361adb0565b6136ca8561ae2c565b604080516080810182526000808252602082018190529181018290526060810191909152600760009054906101000a90046001600160a01b03166001600160a01b0316635c975abb6040518163ffffffff1660e01b8152600401602060405180830381865afa15801561788a573d6000803e3d6000fd5b505050506040513d601f19601f820116820180604052508101906178ae919061c623565b80156178c357506178c060644361c640565b15155b156178e157604051634931f50760e01b81526004016133c89061c662565b60058054600091906174919060ff891661c640565b600060607fe73fe4464f85e5f49d03f1b0f255ada2a0ee282bb49e1af5d076d4daae14836586868660405161792d9392919061c92c565b60405180910390a160025460405163ca669fa760e01b81526101009091046001600160a01b0316600482015260008051602061cbd38339815191529063ca669fa790602401600060405180830381600087803b15801561798c57600080fd5b505af11580156179a0573d6000803e3d6000fd5b50506007546040516001600160a01b039091169250620f4240915085906361d9ad3f60e11b90617776908b908b908b9060240161c92c565b85156179f0576179e88484617de9565b61435f61af68565b6136ca8561afe9565b60005b8251811015617a3b57617a2984848381518110617a1b57617a1b61bc76565b60200260200101518461b0f1565b80617a338161c88a565b9150506179fc565b50617a46838261b190565b600860009054906101000a90046001600160a01b03166001600160a01b03166367e4e1896040518163ffffffff1660e01b8152600401602060405180830381865afa158015617a99573d6000803e3d6000fd5b505050506040513d601f19601f82011682018060405250810190617abd919061c699565b60ff8416600090815260166020526040902060020155600c54600854617aef916001600160a01b03908116911661b4ff565b60ff8416600090815260166020526040902060030155600d54600854617b21916001600160a01b03908116911661b4ff565b60ff8416600090815260166020526040902060040155600e54600754617b53916001600160a01b03908116911661b4ff565b60ff84166000908152601660209081526040918290206005810193909355600a546001600160a01b03908116316006850155600b54811631600780860191909155600880548316318187015590548216316009909501949094559254825163a7ab696160e01b8152925193169263a7ab69619260048082019392918290030181865afa158015617be7573d6000803e3d6000fd5b505050506040513d601f19601f82011682018060405250810190617c0b919061c699565b60ff8416600090815260166020908152604091829020600a01929092556008548151635c975abb60e01b815291516001600160a01b0390911692635c975abb92600480820193918290030181865afa158015617c6b573d6000803e3d6000fd5b505050506040513d601f19601f82011682018060405250810190617c8f919061c623565b60ff8416600090815260166020908152604091829020600b01805460ff1916931515939093179092556007548151635c975abb60e01b815291516001600160a01b0390911692635c975abb92600480820193918290030181865afa158015617cfb573d6000803e3d6000fd5b505050506040513d601f19601f82011682018060405250810190617d1f919061c623565b60ff8416600090815260166020908152604091829020600b0180549315156101000261ff00199094169390931790925560085481516314dee59760e31b815291516001600160a01b039091169263a6f72cb892600480820193918290030181865afa158015617d92573d6000803e3d6000fd5b505050506040513d601f19601f82011682018060405250810190617db6919061c623565b60ff9093166000908152601660205260409020600b018054931515620100000262ff000019909416939093179092555050565b61351a600183836179f9565b6001600052601660205260008051602061cfe583398151915254610100900460ff16156144c45760008054906101000a90046001600160a01b03166001600160a01b031663a15f9f07600060405180608001604052806044815260200161d3af604491396040518363ffffffff1660e01b8152600401617e7692919061c950565b600060405180830381600087803b158015617e9057600080fd5b505af115801561182f573d6000803e3d6000fd5b6000805460166020527f4c4dc693d7db52f85fe052106f4b4b920e78e8ef37dee82878a60ab8585faf50549180527f0263c2b778d062355049effc2dece97bc6547ff8a88a3258daa512061c2153e4546001600160a01b039091169163bc8d43a891617f1190859061c6b2565b6040518060a001604052806063815260200161cabb606391396040518463ffffffff1660e01b8152600401617f489392919061c96b565b600060405180830381600087803b158015617f6257600080fd5b505af1158015610ac2573d6000803e3d6000fd5b6000805460166020527f4c4dc693d7db52f85fe052106f4b4b920e78e8ef37dee82878a60ab8585faf52549180527f0263c2b778d062355049effc2dece97bc6547ff8a88a3258daa512061c2153e6546001600160a01b039091169163bc8d43a891617fe390859061c6b2565b6040518060c00160405280608e815260200161d245608e91396040518463ffffffff1660e01b8152600401617f489392919061c96b565b61351a8161b5d2565b61802b61b780565b50565b6001600052601660205260008051602061cfe583398151915254610100900460ff16156180585750565b6040805160038082526080820190925260009160208201606080368337019050509050631f2a200560e01b816000815181106180965761809661bc76565b6001600160e01b0319909216602092830291909101909101528051631d3e008d60e21b90829060019081106180cd576180cd61bc76565b6001600160e01b031990921660209283029190910190910152805163044044a560e21b90829060029081106181045761810461bc76565b6001600160e01b0319909216602092830291909101909101526000546001600160a01b03166388e362c66181378461c795565b8360405180606001604052806031815260200161de93603191396040518463ffffffff1660e01b815260040161816f9392919061c98a565b600060405180830381600087803b15801561818957600080fd5b505af1158015610704573d6000803e3d6000fd5b606060008367ffffffffffffffff8111156181ba576181ba61bc60565b6040519080825280602002602001820160405280156181e3578160200160208202803683370190505b50905060005b848110156182d157604080516020810188905290810182905260009060600160408051808303601f1901815290829052805160209091012060008054639e42244760e01b8452600484018390526024840191909152604483018890529092506001600160a01b031690639e422447906064016020604051808303816000875af115801561827a573d6000803e3d6000fd5b505050506040513d601f19601f8201168201806040525081019061829e919061c699565b9050808383815181106182b3576182b361bc76565b602090810291909101015250806182c98161c88a565b9150506181e9565b50949350505050565b6001600052601660205260008051602061cfe58339815191525460ff16156144c45760008054906101000a90046001600160a01b03166001600160a01b031663a15f9f0760006040518060800160405280605a815260200161d2d3605a91396040518363ffffffff1660e01b8152600401617e7692919061c950565b61835e61b7fd565b61802b61b8c9565b6001600052601660205260008051602061cfe58339815191525460ff161561838b5750565b60408051600580825260c082019092526000916020820160a08036833701905050905063c0876ed360e01b816000815181106183c9576183c961bc76565b6001600160e01b031990921660209283029190910190910152805163373a67e760e21b90829060019081106184005761840061bc76565b6001600160e01b03199092166020928302919091019091015280516337c6546160e01b90829060029081106184375761843761bc76565b6001600160e01b03199092166020928302919091019091015280516318301aa760e01b908290600390811061846e5761846e61bc76565b6001600160e01b0319909216602092830291909101909101528051632469ee5360e01b90829060049081106184a5576184a561bc76565b6001600160e01b0319909216602092830291909101909101526000546001600160a01b03166388e362c66184d88461c795565b8360405180608001604052806047815260200161d82f604791396040518463ffffffff1660e01b815260040161816f9392919061c98a565b6040805160028082526060820183526000926020830190803683370190505090506331278a8760e01b8160008151811061854c5761854c61bc76565b6001600160e01b0319909216602092830291909101909101528051636cbcfbe360e11b90829060019081106185835761858361bc76565b6001600160e01b0319909216602092830291909101909101526000546001600160a01b03166388e362c66185b68461c795565b836040518060600160405280602f815260200161cc68602f91396040518463ffffffff1660e01b815260040161816f9392919061c98a565b6001600052601660205260008051602061cfe583398151915254610100900460ff16156144c45760008054906101000a90046001600160a01b03166001600160a01b031663a15f9f07600060405180608001604052806041815260200161cbf3604191396040518363ffffffff1660e01b8152600401617e7692919061c950565b600080546001600160a01b03848116835260008051602061df948339815191526020908152604080852060019081015460008051602061da9d83398151915290935294209093015491169163bc8d43a8916186cb90859061c705565b6040518060a001604052806071815260200161cef4607191396040518463ffffffff1660e01b815260040161816f9392919061c96b565b6001600052601660205260008051602061cfe583398151915254610100900460ff161561872c5750565b604080516002808252606082018352600092602083019080368337019050509050631f2a200560e01b816000815181106187685761876861bc76565b6001600160e01b0319909216602092830291909101909101528051631d3e008d60e21b908290600190811061879f5761879f61bc76565b6001600160e01b0319909216602092830291909101909101526000546001600160a01b03166388e362c66187d28461c795565b836040518060600160405280602e815260200161d138602e91396040518463ffffffff1660e01b815260040161816f9392919061c98a565b6040805160008082526020820190925290546001600160a01b03166388e362c66188338461c795565b836040518060600160405280602f815260200161d061602f91396040518463ffffffff1660e01b815260040161816f9392919061c98a565b6040805160008082526020820190925290546001600160a01b03166388e362c66188948461c795565b8360405180606001604052806031815260200161d681603191396040518463ffffffff1660e01b815260040161816f9392919061c98a565b6040805160008082526020820190925290546001600160a01b03166388e362c66188f58461c795565b836040518060600160405280602a815260200161e245602a91396040518463ffffffff1660e01b815260040161816f9392919061c98a565b6001600052601660205260008051602061cfe583398151915254610100900460ff16156144c45760008054906101000a90046001600160a01b03166001600160a01b031663a15f9f07600060405180608001604052806047815260200161d63a604791396040518363ffffffff1660e01b8152600401617e7692919061c950565b6001600052601660205260008051602061cfe583398151915254610100900460ff16156189d85750565b604080516002808252606082018352600092602083019080368337019050509050631f2a200560e01b81600081518110618a1457618a1461bc76565b6001600160e01b0319909216602092830291909101909101528051631d3e008d60e21b9082906001908110618a4b57618a4b61bc76565b6001600160e01b0319909216602092830291909101909101526000546001600160a01b03166388e362c6618a7e8461c795565b8360405180606001604052806034815260200161cc34603491396040518463ffffffff1660e01b815260040161816f9392919061c98a565b6040805160008082526020820190925290546001600160a01b03166388e362c6618adf8461c795565b8360405180606001604052806033815260200161cd0a603391396040518463ffffffff1660e01b815260040161816f9392919061c98a565b6040805160008082526020820190925290546001600160a01b03166388e362c6618b408461c795565b8360405180606001604052806031815260200161cc97603191396040518463ffffffff1660e01b815260040161816f9392919061c98a565b6001600052601660205260008051602061cfe58339815191525460ff16156144c45760008054906101000a90046001600160a01b03166001600160a01b031663a15f9f0760006040518060800160405280605c815260200161d005605c91396040518363ffffffff1660e01b8152600401617e7692919061c950565b6001600160a01b038316600090815260008051602061df948339815191526020526040902060060154811115610c6757600080546001600160a01b03848116835260008051602061d38f833981519152602090815260408085205460008051602061d75a8339815191529092529093205491169163bc8d43a891618c7990600161c6b2565b6040518060c001604052806089815260200161e26f608991396040518463ffffffff1660e01b8152600401618cb09392919061c96b565b600060405180830381600087803b158015618cca57600080fd5b505af11580156109a9573d6000803e3d6000fd5b6001600160a01b038216600090815260008051602061df948339815191526020526040812060020154900361351a57600080546001600160a01b03838116835260008051602061d38f833981519152602090815260408085205460008051602061d75a8339815191529092529093205491169163bc8d43a891618d6290600161c6b2565b6040518060a001604052806080815260200161cf65608091396040518463ffffffff1660e01b815260040161816f9392919061c96b565b6000805260166020527f0263c2b778d062355049effc2dece97bc6547ff8a88a3258daa512061c2153e85462010000900460ff161561802b57600080546001600160a01b03838116835260008051602061d38f833981519152602090815260408085205460008051602061d75a8339815191529092529093205491169163bc8d43a891618e2790600161c6b2565b6040518060a00160405280607b815260200161de18607b91396040518463ffffffff1660e01b8152600401617f489392919061c96b565b80600003618e6a575050565b6001600160a01b038216600090815260008051602061df9483398151915260205260408120600201549003618e9d575050565b600080546001600160a01b03848116835260008051602061df9483398151915260209081526040938490206003810154600290910154855160e0810190965260b58087529390941694638c4fb57d949193919290919061d77a908301396040518463ffffffff1660e01b815260040161816f9392919061c96b565b600080546001600160a01b03848116835260008051602061da9d833981519152602052604080842060028101546003909101549151637ae2b5c760e01b815260048101919091526024810191909152911690637ae2b5c790604401602060405180830381865afa158015618f90573d6000803e3d6000fd5b505050506040513d601f19601f82011682018060405250810190618fb4919061c699565b600080546001600160a01b03868116835260008051602061da9d8339815191526020526040909220600401549293501690637ae2b5c790618ff5904261c705565b6001600160a01b038616600090815260008051602061da9d8339815191526020526040902060050154619028919061c915565b6001600160a01b038616600090815260008051602061da9d833981519152602052604090206002015461905c90859061c705565b6040516001600160e01b031960e085901b16815260048101929092526024820152604401602060405180830381865afa15801561909d573d6000803e3d6000fd5b505050506040513d601f19601f820116820180604052508101906190c1919061c699565b82106190cc57505050565b600080546001600160a01b03858116835260008051602061df948339815191526020908152604080852060039081015460008051602061da9d8339815191528452958290200154815161014081019092526101158083529390941694635c2b80f5949093909261e087908301396040518463ffffffff1660e01b8152600401618cb09392919061c96b565b600080546001600160a01b03838116835260008051602061df9483398151915260209081526040938490206003810154600290910154855160a08101909652607d808752939094169463bb35031a949193919290919061dafb908301396040518463ffffffff1660e01b8152600401617f489392919061c96b565b6000805260166020527f0263c2b778d062355049effc2dece97bc6547ff8a88a3258daa512061c2153e85462010000900460ff161561921057505050565b6001600160a01b038316600090815260008051602061df948339815191526020526040902060060154811061924457505050565b6001600160a01b038216600090815260008051602061d75a833981519152602090815260408083205460008051602061d38f833981519152909252909120540361928d57505050565b600080546001600160a01b03858116835260008051602061df9483398151915260209081526040808520600301548151610120810190925260ee808352939094169463bc8d43a89493909261d8bb908301396040518463ffffffff1660e01b8152600401618cb09392919061c96b565b6000805260166020527f0263c2b778d062355049effc2dece97bc6547ff8a88a3258daa512061c2153e85462010000900460ff161561933b57505050565b6001600160a01b038316600090815260008051602061df948339815191526020526040902060060154811061936f57505050565b600080546001600160a01b03858116835260008051602061da9d833981519152602052604080842060028101546003909101549151637ae2b5c760e01b815260048101919091526024810191909152911690637ae2b5c790604401602060405180830381865afa1580156193e7573d6000803e3d6000fd5b505050506040513d601f19601f8201168201806040525081019061940b919061c699565b600080546001600160a01b03878116835260008051602061da9d8339815191526020526040909220600401549293501690637ae2b5c790839061944e904261c705565b6001600160a01b038816600090815260008051602061da9d8339815191526020526040902060050154619481919061c915565b61948b919061c6b2565b6001600160a01b038716600090815260008051602061da9d83398151915260205260409081902060020154905160e084901b6001600160e01b031916815260048101929092526024820152604401602060405180830381865afa1580156194f6573d6000803e3d6000fd5b505050506040513d601f19601f8201168201806040525081019061951a919061c699565b8210156195275750505050565b600080546001600160a01b03858116835260008051602061d38f833981519152602090815260408085205460008051602061d75a8339815191529092529093205491169163bc8d43a89161957c90600161c6b2565b604051806101c00160405280610191815260200161db7861019191396040518463ffffffff1660e01b81526004016111b39392919061c96b565b6001600160a01b038116600090815260008051602061da9d8339815191526020526040902060030154158061961257506001600160a01b038116600090815260008051602061df94833981519152602052604090206003015415155b1561961a5750565b6000805460019091526016602090815260008051602061cfe58339815191525460408051610100810190915260d38082526001600160a01b039094169363a15f9f07936201000090930460ff169261cdec908301396040518363ffffffff1660e01b8152600401617f4892919061c950565b6001600160a01b038116600090815260008051602061df94833981519152602052604081206002015490036196be5750565b600080546001600160a01b03838116835260008051602061df94833981519152602090815260409384902060040154845160e0810190955260a9808652929093169363bc8d43a89392429261e19c908301396040518463ffffffff1660e01b8152600401617f489392919061c96b565b6001600052601660205260008051602061cfe58339815191525460ff16156197535750565b6040805160018082528183019092526000916020808301908036833701905050905063180a097760e01b816000815181106197905761979061bc76565b6001600160e01b0319909216602092830291909101909101526000546001600160a01b03166388e362c66197c38461c795565b8360405180608001604052806049815260200161d5f1604991396040518463ffffffff1660e01b815260040161816f9392919061c98a565b6040805160008082526020820190925290546001600160a01b03166388e362c66198248461c795565b8360405180606001604052806033815260200161dec4603391396040518463ffffffff1660e01b815260040161816f9392919061c98a565b6040805160008082526020820190925290546001600160a01b03166388e362c66198858461c795565b8360405180606001604052806035815260200161cebf603591396040518463ffffffff1660e01b815260040161816f9392919061c98a565b6001600052601660205260008051602061cfe583398151915254610100900460ff16156144c45760008054906101000a90046001600160a01b03166001600160a01b031663a15f9f07600060405180608001604052806044815260200161cd3d604491396040518363ffffffff1660e01b8152600401617e7692919061c950565b6001600052601660205260008051602061cfe583398151915254610100900460ff16156199685750565b604080516002808252606082018352600092602083019080368337019050509050631f2a200560e01b816000815181106199a4576199a461bc76565b6001600160e01b0319909216602092830291909101909101528051631d3e008d60e21b90829060019081106199db576199db61bc76565b6001600160e01b0319909216602092830291909101909101526000546001600160a01b03166388e362c6619a0e8461c795565b8360405180606001604052806031815260200161d0d6603191396040518463ffffffff1660e01b815260040161816f9392919061c98a565b6001600052601660205260008051602061cfe58339815191525460ff16156144c45760008054906101000a90046001600160a01b03166001600160a01b031663a15f9f07600060405180608001604052806050815260200161dd09605091396040518363ffffffff1660e01b8152600401617e7692919061c950565b60008054600190915260166020527f4c4dc693d7db52f85fe052106f4b4b920e78e8ef37dee82878a60ab8585faf535460608301516001600160a01b039092169163bb35031a91619b129161c6b2565b426040518060e0016040528060bf815260200161dd5960bf91396040518463ffffffff1660e01b8152600401617f489392919061c96b565b6001600052601660205260008051602061cfe58339815191525460ff1615619b6f5750565b604080516003808252608082019092526000916020820160608036833701905050905063c0876ed360e01b81600081518110619bad57619bad61bc76565b6001600160e01b031990921660209283029190910190910152805163373a67e760e21b9082906001908110619be457619be461bc76565b6001600160e01b03199092166020928302919091019091015280516337c6546160e01b9082906002908110619c1b57619c1b61bc76565b6001600160e01b0319909216602092830291909101909101526000546001600160a01b03166388e362c6619c4e8461c795565b836040518060600160405280603d815260200161d558603d91396040518463ffffffff1660e01b815260040161816f9392919061c98a565b6001600052601660205260008051602061cfe583398151915254610100900460ff16156144c45760008054906101000a90046001600160a01b03166001600160a01b031663a15f9f07600060405180608001604052806045815260200161d876604591396040518363ffffffff1660e01b8152600401617e7692919061c950565b6001600052601660205260008051602061cfe583398151915254610100900460ff1615619d315750565b604080516002808252606082018352600092602083019080368337019050509050631f2a200560e01b81600081518110619d6d57619d6d61bc76565b6001600160e01b0319909216602092830291909101909101528051631d3e008d60e21b9082906001908110619da457619da461bc76565b6001600160e01b0319909216602092830291909101909101526000546001600160a01b03166388e362c6619dd78461c795565b8360405180606001604052806032815260200161d213603291396040518463ffffffff1660e01b815260040161816f9392919061c98a565b604080516001808252818301909252600091602080830190803683370190505090506311897a1660e01b81600081518110619e4c57619e4c61bc76565b6001600160e01b0319909216602092830291909101909101526000546001600160a01b03166388e362c6619e7f8461c795565b8360405180608001604052806044815260200161d497604491396040518463ffffffff1660e01b815260040161816f9392919061c98a565b6001600052601660205260008051602061cfe583398151915254610100900460ff16156144c45760008054906101000a90046001600160a01b03166001600160a01b031663a15f9f07600060405180608001604052806046815260200161d451604691396040518363ffffffff1660e01b8152600401617e7692919061c950565b6001600052601660205260008051602061cfe583398151915254610100900460ff1615619f625750565b604080516002808252606082018352600092602083019080368337019050509050631f2a200560e01b81600081518110619f9e57619f9e61bc76565b6001600160e01b0319909216602092830291909101909101528051631d3e008d60e21b9082906001908110619fd557619fd561bc76565b6001600160e01b0319909216602092830291909101909101526000546001600160a01b03166388e362c661a0088461c795565b8360405180606001604052806033815260200161d1e0603391396040518463ffffffff1660e01b815260040161816f9392919061c98a565b6001600052601660205260008051602061cfe58339815191525460ff16156144c45760008054906101000a90046001600160a01b03166001600160a01b031663a15f9f07600060405180608001604052806044815260200161da59604491396040518363ffffffff1660e01b8152600401617e7692919061c950565b6000805460166020527f4c4dc693d7db52f85fe052106f4b4b920e78e8ef37dee82878a60ab8585faf4f549180527f0263c2b778d062355049effc2dece97bc6547ff8a88a3258daa512061c2153e3546001600160a01b039091169163bc8d43a89161a12990859061c6b2565b6040518060a001604052806062815260200161d32d606291396040518463ffffffff1660e01b8152600401617f489392919061c96b565b6000805460166020527f4c4dc693d7db52f85fe052106f4b4b920e78e8ef37dee82878a60ab8585faf51549180527f0263c2b778d062355049effc2dece97bc6547ff8a88a3258daa512061c2153e5546001600160a01b039091169163bc8d43a89161a1cd90859061c6b2565b6040518060c00160405280608c815260200161e33b608c91396040518463ffffffff1660e01b8152600401617f489392919061c96b565b6001600052601660205260008051602061cfe58339815191525460ff161561a2295750565b60408051600380825260808201909252600091602082016060803683370190505090506374f8023460e01b8160008151811061a2675761a26761bc76565b6001600160e01b0319909216602092830291909101909101528051631f2a200560e01b908290600190811061a29e5761a29e61bc76565b6001600160e01b031990921660209283029190910190910152805163044044a560e21b908290600290811061a2d55761a2d561bc76565b6001600160e01b0319909216602092830291909101909101526000546001600160a01b03166388e362c661a3088461c795565b8360405180606001604052806031815260200161d107603191396040518463ffffffff1660e01b815260040161816f9392919061c98a565b6001600052601660205260008051602061cfe58339815191525460ff16156144c45760008054906101000a90046001600160a01b03166001600160a01b031663a15f9f0760006040518060600160405280603f815260200161d9a9603f91396040518363ffffffff1660e01b8152600401617e7692919061c950565b600d546001600160a01b039081169083160361a3d6575050565b600080546001600160a01b0384811680845260008051602061df948339815191526020908152604080862060085485168088529083528187205493875260008051602061da9d83398151915283528187209087529091529093205491169163bc8d43a89161a44590859061c6b2565b6040518060a00160405280607d815260200161d4db607d91396040518463ffffffff1660e01b815260040161816f9392919061c96b565b600d546001600160a01b0383811691161461a495575050565b6000805460166020527f4c4dc693d7db52f85fe052106f4b4b920e78e8ef37dee82878a60ab8585faf51549180527f0263c2b778d062355049effc2dece97bc6547ff8a88a3258daa512061c2153e5546001600160a01b039091169163bc8d43a89161a50290859061c6b2565b6040518060a00160405280606b815260200161cd81606b91396040518463ffffffff1660e01b815260040161816f9392919061c96b565b600d546001600160a01b0383811691161461a552575050565b600080546001600160a01b03848116835260008051602061df948339815191526020908152604080852060019081015460008051602061da9d83398151915290935294209093015491169163bc8d43a89161a5ae90859061c705565b6040518060a001604052806064815260200161dff5606491396040518463ffffffff1660e01b815260040161816f9392919061c96b565b6001600052601660205260008051602061cfe58339815191525460ff161561a60a5750565b60408051600380825260808201909252600091602082016060803683370190505090506374f8023460e01b8160008151811061a6485761a64861bc76565b6001600160e01b0319909216602092830291909101909101528051631f2a200560e01b908290600190811061a67f5761a67f61bc76565b6001600160e01b031990921660209283029190910190910152805163cf79cc9b60e01b908290600290811061a6b65761a6b661bc76565b6001600160e01b0319909216602092830291909101909101526000546001600160a01b03166388e362c661a6e98461c795565b836040518060600160405280602c815260200161d5c5602c91396040518463ffffffff1660e01b815260040161816f9392919061c98a565b6001600052601660205260008051602061cfe583398151915254610100900460ff16156144c45760008054906101000a90046001600160a01b03166001600160a01b031663a15f9f0760006040518060800160405280605e815260200161d3f3605e91396040518363ffffffff1660e01b8152600401617e7692919061c950565b6001600160a01b038216610fff148061a7c257506001600160a01b038216155b1561a7cb575050565b600080546001600160a01b03848116835260008051602061df948339815191526020908152604080852060019081015460008051602061da9d83398151915290935294209093015491169163bc8d43a89161a82790859061c6b2565b6040518060a001604052806071815260200161d9e8607191396040518463ffffffff1660e01b815260040161816f9392919061c96b565b6001600160a01b038216610fff1480159061a88157506001600160a01b03821615155b1561a88a575050565b6000805460166020527f4c4dc693d7db52f85fe052106f4b4b920e78e8ef37dee82878a60ab8585faf52549180527f0263c2b778d062355049effc2dece97bc6547ff8a88a3258daa512061c2153e6546001600160a01b039091169163bc8d43a89161a8f790859061c705565b6040518060a001604052806076815260200161cb1e607691396040518463ffffffff1660e01b815260040161816f9392919061c96b565b6001600052601660205260008051602061cfe583398151915254610100900460ff161561a9585750565b60408051600280825260608201835260009260208301908036833701905050905063180a097760e01b8160008151811061a9945761a99461bc76565b6001600160e01b031990921660209283029190910190910152805163c7532eaf60e01b908290600190811061a9cb5761a9cb61bc76565b6001600160e01b0319909216602092830291909101909101526000546001600160a01b03166388e362c661a9fe8461c795565b836040518060800160405280604b815260200161d195604b91396040518463ffffffff1660e01b815260040161816f9392919061c98a565b6001600052601660205260008051602061cfe58339815191525460ff16156144c45760008054906101000a90046001600160a01b03166001600160a01b031663a15f9f07600060405180608001604052806042815260200161ccc8604291396040518363ffffffff1660e01b8152600401617e7692919061c950565b6001600052601660205260008051602061cfe58339815191525460ff161561aad75750565b60408051600380825260808201909252600091602082016060803683370190505090506374f8023460e01b8160008151811061ab155761ab1561bc76565b6001600160e01b0319909216602092830291909101909101528051631f2a200560e01b908290600190811061ab4c5761ab4c61bc76565b6001600160e01b031990921660209283029190910190910152805163044044a560e21b908290600290811061ab835761ab8361bc76565b6001600160e01b0319909216602092830291909101909101526000546001600160a01b03166388e362c661abb68461c795565b836040518060600160405280602f815260200161d166602f91396040518463ffffffff1660e01b815260040161816f9392919061c98a565b6001600052601660205260008051602061cfe583398151915254610100900460ff16156144c45760008054906101000a90046001600160a01b03166001600160a01b031663a15f9f07600060405180608001604052806046815260200161d090604691396040518363ffffffff1660e01b8152600401617e7692919061c950565b6001600052601660205260008051602061cfe583398151915254610100900460ff161561ac995750565b6040805160038082526080820190925260009160208201606080368337019050509050631f2a200560e01b8160008151811061acd75761acd761bc76565b6001600160e01b0319909216602092830291909101909101528051631d3e008d60e21b908290600190811061ad0e5761ad0e61bc76565b6001600160e01b031990921660209283029190910190910152805163044044a560e21b908290600290811061ad455761ad4561bc76565b6001600160e01b0319909216602092830291909101909101526000546001600160a01b03166388e362c661ad788461c795565b8360405180606001604052806033815260200161d6b2603391396040518463ffffffff1660e01b815260040161816f9392919061c98a565b6001600052601660205260008051602061cfe58339815191525460ff16156144c45760008054906101000a90046001600160a01b03166001600160a01b031663a15f9f07600060405180608001604052806041815260200161dfb4604191396040518363ffffffff1660e01b8152600401617e7692919061c950565b6001600052601660205260008051602061cfe58339815191525460ff161561ae515750565b60408051600380825260808201909252600091602082016060803683370190505090506374f8023460e01b8160008151811061ae8f5761ae8f61bc76565b6001600160e01b0319909216602092830291909101909101528051631f2a200560e01b908290600190811061aec65761aec661bc76565b6001600160e01b031990921660209283029190910190910152805163cf79cc9b60e01b908290600290811061aefd5761aefd61bc76565b6001600160e01b0319909216602092830291909101909101526000546001600160a01b03166388e362c661af308461c795565b836040518060600160405280602e815260200161e059602e91396040518463ffffffff1660e01b815260040161816f9392919061c98a565b6001600052601660205260008051602061cfe583398151915254610100900460ff16156144c45760008054906101000a90046001600160a01b03166001600160a01b031663a15f9f07600060405180608001604052806043815260200161e2f8604391396040518363ffffffff1660e01b8152600401617e7692919061c950565b6001600052601660205260008051602061cfe583398151915254610100900460ff161561b0135750565b604080516002808252606082018352600092602083019080368337019050509050631f2a200560e01b8160008151811061b04f5761b04f61bc76565b6001600160e01b0319909216602092830291909101909101528051631d3e008d60e21b908290600190811061b0865761b08661bc76565b6001600160e01b0319909216602092830291909101909101526000546001600160a01b03166388e362c661b0b98461c795565b8360405180606001604052806030815260200161d595603091396040518463ffffffff1660e01b815260040161816f9392919061c98a565b600854604051637b1929b760e01b81526001600160a01b03848116600483015290911690637b1929b790602401602060405180830381865afa15801561b13b573d6000803e3d6000fd5b505050506040513d601f19601f8201168201806040525081019061b15f919061c699565b60ff90931660009081526016602090815260408083206001600160a01b039095168352939052919091209190915550565b6001600160a01b03811661b1a2575050565b6001600160a01b038116610eee1461b24557806001600160a01b03166318160ddd6040518163ffffffff1660e01b8152600401602060405180830381865afa15801561b1f2573d6000803e3d6000fd5b505050506040513d601f19601f8201168201806040525081019061b216919061c699565b60ff831660009081526016602090815260408083206001600160a01b0386168452600190810190925290912001555b60005b60015481101561b2fb5761b283826001838154811061b2695761b26961bc76565b6000918252602090912001546001600160a01b031661b4ff565b60ff841660009081526016602090815260408083206001600160a01b0387168452600190810190925282208154909291908590811061b2c45761b2c461bc76565b60009182526020808320909101546001600160a01b031683528201929092526040019020558061b2f38161c88a565b91505061b248565b5060085461b3139082906001600160a01b031661b4ff565b60ff831660009081526016602090815260408083206001600160a01b03808716855260019091018352818420600854821685529092529091209190915560075461b35f9183911661b4ff565b60ff831660009081526016602090815260408083206001600160a01b038681168086526001909201845282852060075482168652909352818420949094556008549051631b34b1f560e11b81526004810194909452919283928392839291169063366963ea90602401608060405180830381865afa15801561b3e5573d6000803e3d6000fd5b505050506040513d601f19601f8201168201806040525081019061b409919061c9c8565b60ff8a1660009081526016602090815260408083206001600160a01b038d81168086526001909201909352928190206002810188905560038101879055600480820187905560059091018590556008549151634251948d60e11b81529081019390935295995093975091955093509116906384a3291a90602401602060405180830381865afa15801561b4a0573d6000803e3d6000fd5b505050506040513d601f19601f8201168201806040525081019061b4c4919061c699565b60ff90961660009081526016602090815260408083206001600160a01b03909816835260019097019052949094206006019490945550505050565b6000610eed196001600160a01b0384160161b52557506001600160a01b03811631613508565b6040516370a0823160e01b81526001600160a01b0383811660048301528416906370a0823190602401602060405180830381865afa15801561b56b573d6000803e3d6000fd5b505050506040513d601f19601f8201168201806040525081019061b58f919061c699565b9050613508565b825181101561b5c75761b5b584848381518110610c6757610c6761bc76565b8061b5bf8161c88a565b91505061b596565b50610c67838261b946565b6001600160a01b038116610eee148061b5f257506001600160a01b038116155b1561b5fa5750565b6000805b60015481101561b687576001600160a01b038316600090815260008051602061df9483398151915260205260408120600180549192918490811061b6445761b64461bc76565b60009182526020808320909101546001600160a01b0316835282019290925260400190205461b673908361c6b2565b91508061b67f8161c88a565b91505061b5fe565b506001600160a01b03808316600090815260008051602061df94833981519152602090815260408083206008549094168352929052205461b6c8908261c6b2565b6001600160a01b03808416600090815260008051602061df94833981519152602090815260408083206007549094168352929052205490915061b70b908261c6b2565b600080546001600160a01b03858116835260008051602061df94833981519152602090815260409384902060010154845160a081019095526075808652959650919092169363bc8d43a893869390919061d6e5908301396040518463ffffffff1660e01b815260040161816f9392919061c96b565b6000805460018252601660209081527f4c4dc693d7db52f85fe052106f4b4b920e78e8ef37dee82878a60ab8585faf4e546040805160608101909152603f8082526001600160a01b039094169463bc8d43a894929390929061cb94908301396040518463ffffffff1660e01b8152600401617e769392919061c96b565b600160005260166020527f4c4dc693d7db52f85fe052106f4b4b920e78e8ef37dee82878a60ab8585faf4b54156144c457600080546001909152601660209081527f4c4dc693d7db52f85fe052106f4b4b920e78e8ef37dee82878a60ab8585faf4c547f4c4dc693d7db52f85fe052106f4b4b920e78e8ef37dee82878a60ab8585faf4b546040805160c08101909152609d8082526001600160a01b039095169463bb35031a9461def7908301396040518463ffffffff1660e01b8152600401617e769392919061c96b565b6000805460018252601660209081527f4c4dc693d7db52f85fe052106f4b4b920e78e8ef37dee82878a60ab8585faf4d546040805160608101909152603e8082526001600160a01b039094169463bc8d43a894929390929061dabd908301396040518463ffffffff1660e01b8152600401617e769392919061c96b565b6000546040805163319af33360e01b81526004810191909152600f60448201526e02a37b5b2b71030b2323932b9b99d1608d1b60648201526001600160a01b0383811660248301529091169063319af33390608401600060405180830381600087803b15801561b9b557600080fd5b505af115801561b9c9573d6000803e3d6000fd5b5050506001600160a01b038216905061b9e0575050565b6001600160a01b038116610eee1461351a5760008054604080516306fdde0360e01b815290516001600160a01b0392831693634b5c4277938616926306fdde0392600480830193928290030181865afa15801561ba41573d6000803e3d6000fd5b505050506040513d6000823e601f3d908101601f1916820160405261ba69919081019061c9fe565b6040518263ffffffff1660e01b815260040161816f919061ca89565b6000806040838503121561ba9857600080fd5b50508035926020909101359150565b60ff8116811461802b57600080fd5b6000806000806080858703121561bacc57600080fd5b843561bad78161baa7565b9350602085013561bae78161baa7565b93969395505050506040820135916060013590565b6000806000806080858703121561bb1257600080fd5b843561bb1d8161baa7565b966020860135965060408601359560600135945092505050565b60008060006060848603121561bb4c57600080fd5b833561bb578161baa7565b95602085013595506040909401359392505050565b6000806040838503121561bb7f57600080fd5b823561bb8a8161baa7565b946020939093013593505050565b60006020828403121561bbaa57600080fd5b5035919050565b801515811461802b57600080fd5b600080600080600060a0868803121561bbd757600080fd5b853561bbe28161bbb1565b9450602086013561bbf28161baa7565b9350604086013561bc028161baa7565b9250606086013561bc128161baa7565b949793965091946080013592915050565b634e487b7160e01b600052601160045260246000fd5b6001600160a01b0381811683821601908082111561bc595761bc5961bc23565b5092915050565b634e487b7160e01b600052604160045260246000fd5b634e487b7160e01b600052603260045260246000fd5b600081518084526020808501945080840160005b8381101561bcc65781516001600160e01b0319168752958201959082019060010161bca0565b509495945050505050565b63ffffffff60e01b8316815260606020820152600061bcf3606083018461bc8c565b828103604093840152600781526653454c462d313560c81b6020820152919091019392505050565b63ffffffff60e01b8316815260606020820152600061bd3d606083018461bc8c565b828103604093840152600781526614d153118b4c4d60ca1b6020820152919091019392505050565b63ffffffff60e01b8316815260606020820152600061bd87606083018461bc8c565b82810360409384015260078152660a68a988c5a62760cb1b6020820152919091019392505050565b63ffffffff60e01b8316815260606020820152600061bdd1606083018461bc8c565b828103604093840152600781526653454c462d303760c81b6020820152919091019392505050565b63ffffffff60e01b8316815260606020820152600061be1b606083018461bc8c565b828103604093840152600781526653454c462d303560c81b6020820152919091019392505050565b63ffffffff60e01b8316815260606020820152600061be65606083018461bc8c565b828103604093840152600781526614d153118b4c0d60ca1b6020820152919091019392505050565b63ffffffff60e01b8316815260606020820152600061beaf606083018461bc8c565b828103604093840152600781526653454c462d303360c81b6020820152919091019392505050565b63ffffffff60e01b8316815260606020820152600061bef9606083018461bc8c565b828103604093840152600781526653454c462d323160c81b6020820152919091019392505050565b63ffffffff60e01b8316815260606020820152600061bf43606083018461bc8c565b828103604093840152600781526629a2a62316989b60c91b6020820152919091019392505050565b63ffffffff60e01b8316815260606020820152600061bf8d606083018461bc8c565b828103604093840152600781526629a2a62316991960c91b6020820152919091019392505050565b63ffffffff60e01b8316815260606020820152600061bfd7606083018461bc8c565b82810360409384015260078152660a68a988c5a60760cb1b6020820152919091019392505050565b63ffffffff60e01b8316815260606020820152600061c021606083018461bc8c565b828103604093840152600781526653454c462d323560c81b6020820152919091019392505050565b63ffffffff60e01b8316815260606020820152600061c06b606083018461bc8c565b828103604093840152600781526653454c462d303160c81b6020820152919091019392505050565b63ffffffff60e01b8316815260606020820152600061c0b5606083018461bc8c565b828103604093840152600781526629a2a62316981960c91b6020820152919091019392505050565b63ffffffff60e01b8316815260606020820152600061c0ff606083018461bc8c565b828103604093840152600781526629a2a62316989960c91b6020820152919091019392505050565b63ffffffff60e01b8316815260606020820152600061c149606083018461bc8c565b828103604093840152600781526653454c462d313760c81b6020820152919091019392505050565b63ffffffff60e01b8316815260606020820152600061c193606083018461bc8c565b828103604093840152600781526653454c462d313960c81b6020820152919091019392505050565b600081518084526020808501945080840160005b8381101561bcc65781518752958201959082019060010161c1cf565b6001600160a01b038316815260406020820181905260009061c20f9083018461c1bb565b949350505050565b6040516080810167ffffffffffffffff8111828210171561c23a5761c23a61bc60565b60405290565b6040516060810167ffffffffffffffff8111828210171561c23a5761c23a61bc60565b604051601f8201601f1916810167ffffffffffffffff8111828210171561c28c5761c28c61bc60565b604052919050565b600067ffffffffffffffff82111561c2ae5761c2ae61bc60565b5060051b60200190565b80516001600160a01b038116811461c2cf57600080fd5b919050565b6000602080838503121561c2e757600080fd5b825167ffffffffffffffff81111561c2fe57600080fd5b8301601f8101851361c30f57600080fd5b805161c32261c31d8261c294565b61c263565b81815260079190911b8201830190838101908783111561c34157600080fd5b928401925b8284101561c3a6576080848903121561c35f5760008081fd5b61c36761c217565b61c3708561c2b8565b815261c37d86860161c2b8565b81870152604085810151908201526060808601519082015282526080909301929084019061c346565b979650505050505050565b63ffffffff60e01b8316815260606020820152600061c3d3606083018461bc8c565b828103604093840152600781526653454c462d313160c81b6020820152919091019392505050565b63ffffffff60e01b8316815260606020820152600061c41d606083018461bc8c565b8281036040938401526007815266053454c462d31360cc1b6020820152919091019392505050565b60006020828403121561c45757600080fd5b61c4608261c2b8565b9392505050565b63ffffffff60e01b8316815260606020820152600061c489606083018461bc8c565b828103604093840152600781526653454c462d313360c81b6020820152919091019392505050565b63ffffffff60e01b8316815260606020820152600061c4d3606083018461bc8c565b828103604093840152600781526653454c462d323360c81b6020820152919091019392505050565b63ffffffff60e01b8316815260606020820152600061c51d606083018461bc8c565b828103604093840152600781526629a2a62316981b60c91b6020820152919091019392505050565b63ffffffff60e01b8316815260606020820152600061c567606083018461bc8c565b8281036040938401526007815266053454c462d32360cc1b6020820152919091019392505050565b63ffffffff60e01b8316815260606020820152600061c5b1606083018461bc8c565b828103604093840152600781526653454c462d303960c81b6020820152919091019392505050565b63ffffffff60e01b8316815260606020820152600061c5fb606083018461bc8c565b828103604093840152600781526614d153118b4c8d60ca1b6020820152919091019392505050565b60006020828403121561c63557600080fd5b815161c4608161bbb1565b60008261c65d57634e487b7160e01b600052601260045260246000fd5b500690565b6020808252601b908201527f4368696c642062726964676520616c7265616479207061757365640000000000604082015260600190565b60006020828403121561c6ab57600080fd5b5051919050565b808201808211156135085761350861bc23565b60005b8381101561c6e057818101518382015260200161c6c8565b50506000910152565b6000825161c6fb81846020870161c6c5565b9190910192915050565b818103818111156135085761350861bc23565b602080825260159082015274149bdbdd08189c9a5919d9481a5cc81c185d5cd959605a1b604082015260600190565b6001600160a01b0384811682528316602082015260606040820181905260009061c7739083018461c1bb565b95945050505050565b6001600160a01b03929092168252602082015260400190565b805160208201516001600160e01b0319808216929190600483101561c7c45780818460040360031b1b83161693505b505050919050565b6000602080838503121561c7df57600080fd5b825167ffffffffffffffff81111561c7f657600080fd5b8301601f8101851361c80757600080fd5b805161c81561c31d8261c294565b8181526060918202830184019184820191908884111561c83457600080fd5b938501935b8385101561c87e5780858a03121561c8515760008081fd5b61c85961c240565b855181528686015187820152604080870151908201528352938401939185019161c839565b50979650505050505050565b60006001820161c89c5761c89c61bc23565b5060010190565b634e487b7160e01b600052603160045260246000fd5b6000815180845261c8d181602086016020860161c6c5565b601f01601f19169290920160200192915050565b60208152600061c460602083018461c8b9565b60006020828403121561c90a57600080fd5b815161c4608161baa7565b80820281158282048414176135085761350861bc23565b6001600160a01b039384168152919092166020820152604081019190915260600190565b821515815260406020820152600061c20f604083018461c8b9565b83815282602082015260606040820152600061c773606083018461c8b9565b63ffffffff60e01b8416815260606020820152600061c9ac606083018561bc8c565b828103604084015261c9be818561c8b9565b9695505050505050565b6000806000806080858703121561c9de57600080fd5b505082516020840151604085015160609095015191969095509092509050565b60006020828403121561ca1057600080fd5b815167ffffffffffffffff8082111561ca2857600080fd5b818401915084601f83011261ca3c57600080fd5b81518181111561ca4e5761ca4e61bc60565b61ca61601f8201601f191660200161c263565b915080825285602082850101111561ca7857600080fd5b6182d181602084016020860161c6c5565b60408152600760408201526602a37b5b2b71d160cd1b606082015260806020820152600061c460608083018461c8b956fe42414c2d30343a20546865206e61746976652062616c616e6365206f6620746865206368696c642061646170746f7220696e637265617365732062792065786163746c792074686520676173206665657320706169642062792074686520757365727342414c2d30393a20546865206e61746976652062616c616e6365206f6620746865206368696c6420627269646765206465637265617365732062792065786163746c792074686520616d6f756e74206f6620726f6f7420455243323020494d58206465706f736974656420627920746865207573657242414c2d30323a205468652057494d582062616c616e6365206f6620746865206368696c64206272696467652073686f756c6420616c7761797320626520300000000000000000000000007109709ecfa91a80626ff3989d68f67f5b1dd12d50415553452d30383a20776974686472617720616c776179732072657665727473207768656e20746865206368696c642062726964676520697320706175736564434c445245562d31313a20776974686472617757494d58546f206e65766572207265766572747320756e65787065637465646c7952545245562d31313a2073657452617465436f6e74726f6c5468726573686f6c64206e65766572207265766572747352545245562d31303a20706175736520666f722074686520726f6f7420627269646765206e65766572207265766572747350415553452d30323a206465706f73697445544820616c776179732072657665727473207768656e2074686520726f6f742062726964676520697320706175736564434c445245562d30323a20706175736520666f7220746865206368696c6420627269646765206e65766572207265766572747350415553452d30393a20776974686472617745544820616c776179732072657665727473207768656e20746865206368696c64206272696467652069732070617573656442414c2d30363a20546865206e61746976652062616c616e6365206f662074686520726f6f742062726964676520696e637265617365732062792065786163746c792074686520616d6f756e74206f662057455448206465706f7369746564206279207468652075736572464c52542d31313a20496620746865206465707468206f662074686520746f6b656e206275636b6574206973206e6f6e2d7a65726f206265666f72652061207375636365737366756c207769746864726177616c206f6e2074686520726f6f742062726964676520616e6420746865206465707468206f662074686520746f6b656e206275636b6574206973207a65726f20616674657220746865207769746864726177616c2c207468656e20746865207769746864726177616c207175657565206d75737420626520616374697661746564434c445245562d30333a20756e706175736520666f7220746865206368696c6420627269646765206e65766572207265766572747353504c592d30343a2054686520746f74616c20737570706c79206f66206368696c6420455243323073206d757374206265206465637265617365642062792065786163746c792074686520616d6f756e74206f6620746f6b656e732077697468647261776e206279207468652075736572464c52542d30333a20496620746865206275636b657420636170616369747920666f72206120746f6b656e20697320302c207468656e20616e79207769746864726177616c206f66207468617420746f6b656e206d75737420626520616464656420746f2074686520757365722773207769746864726177616c2071756575654c4dc693d7db52f85fe052106f4b4b920e78e8ef37dee82878a60ab8585faf5450415553452d30373a206f6e4d6573736167655265636569766520666f722074686520726f6f742062726964676520616c776179732072657665727473207768656e2074686520726f6f74206272696467652069732070617573656452545245562d30313a2061637469766174655769746864726177616c5175657565206e65766572207265766572747350415553452d31323a207769746864726177494d58546f20616c776179732072657665727473207768656e20746865206368696c642062726964676520697320706175736564434c445245562d30353a207769746864726177455448206e65766572207265766572747320756e65787065637465646c7952545245562d30363a206465706f736974546f455448206e65766572207265766572747320756e65787065637465646c79434c445245562d30343a207769746864726177206e65766572207265766572747320756e65787065637465646c7952545245562d30343a206465706f736974455448206e65766572207265766572747320756e65787065637465646c79434c445245562d30313a206f6e4d6573736167655265636569766520666f7220746865206368696c6420627269646765206e65766572207265766572747320756e65787065637465646c79434c445245562d30363a207769746864726177455448546f206e65766572207265766572747320756e65787065637465646c79434c445245562d31303a20776974686472617757494d58206e65766572207265766572747320756e65787065637465646c7942414c2d30383a205768656e207769746864726177696e6720494d582c20746865206e61746976652062616c616e6365206f6620746865206368696c642062726964676520696e637265617365732062792065786163746c792074686520616d6f756e742077697468647261776e2062792074686520757365722c206d696e75732074686520676173206665657350415553452d30363a2066696e616c6973655175657565645769746864726177616c4167677265676174656420616c776179732072657665727473207768656e2074686520726f6f74206272696467652069732070617573656442414c2d30333a20546865206e61746976652062616c616e6365206f662074686520726f6f742061646170746f7220696e637265617365732062792065786163746c79207468652067617320666565732070616964206279207468652075736572734c4dc693d7db52f85fe052106f4b4b920e78e8ef37dee82878a60ab8585faf4950415553452d31313a207769746864726177494d5820616c776179732072657665727473207768656e20746865206368696c64206272696467652069732070617573656450415553452d31363a206f6e4d6573736167655265636569766520666f7220746865206368696c642062726964676520616c776179732072657665727473207768656e20746865206368696c64206272696467652069732070617573656450415553452d31303a207769746864726177455448546f20616c776179732072657665727473207768656e20746865206368696c64206272696467652069732070617573656452545245562d31343a20757064617465496d7843756d756c61746976654465706f7369744c696d6974206e65766572207265766572747320756e65787065637465646c7942414c2d30353a2054686520746f6b656e2062616c616e63652c206578636c7564696e6720574554482c206f662074686520726f6f742062726964676520696e637265617365732062792065786163746c792074686520616d6f756e74206f6620746f6b656e73206465706f736974656420627920746865207573657252545245562d30373a2066696e616c6973655175657565645769746864726177616c206e65766572207265766572747320756e65787065637465646c79434c445245562d30393a207769746864726177546f206e65766572207265766572747320756e65787065637465646c7952545245562d30333a206465706f736974206e65766572207265766572747320756e65787065637465646c7952545245562d30393a206f6e4d6573736167655265636569766520666f722074686520726f6f7420627269646765206e65766572207265766572747320756e65787065637465646c7950415553452d31353a20776974686472617757494d58546f20616c776179732072657665727473207768656e20746865206368696c64206272696467652069732070617573656452545245562d30323a20646561637469766174655769746864726177616c5175657565206e657665722072657665727473434c445245562d30383a207769746864726177494d58546f206e65766572207265766572747320756e65787065637465646c7953504c592d30313a205468652073756d206f662074686520746f6b656e2062616c616e636573206f662065616368207573657220616e642074686520627269646765732073686f756c642062652065786163746c7920657175616c20746f2074686520746f6b656e20746f74616c20737570706c790263c2b778d062355049effc2dece97bc6547ff8a88a3258daa512061c2153dd464c52542d30363a2041667465722061207375636365737366756c207769746864726177616c206f662061206e6f6e2d7a65726f20616d6f756e74206f6e2074686520726f6f74206272696467652c20696620746865206275636b6574206361706163697479206973206e6f74207a65726f2c207468656e2074686520746f6b656e206275636b6574206465707468206973206e6576657220657175616c20746f20746865206275636b657420636170616369747952545245562d30383a2066696e616c6973655175657565645769746864726177616c41676772656761746564206e65766572207265766572747320756e65787065637465646c7950415553452d31343a20776974686472617757494d5820616c776179732072657665727473207768656e20746865206368696c642062726964676520697320706175736564464c52542d30393a205768656e20746865207769746864726177616c5175657565206973206e6f74206163746976617465642c2061667465722061207375636365737366756c207769746864726177616c206f6620616e20616d6f756e74206c657373207468616e20746865206c617267655472616e736665725468726573686f6c64206f6e2074686520726f6f742062726964676520616e642061207769746864726177616c2077617320616464656420746f2074686520757365722773207769746864726177616c2071756575652c20746865206275636b657420646570746820697320616c77617973203050415553452d30313a206465706f73697420616c776179732072657665727473207768656e2074686520726f6f74206272696467652069732070617573656453504c592d30333a2054686520746f74616c20737570706c79206f66206368696c6420455243323073206d75737420626520696e637265617365642062792065786163746c792074686520616d6f756e74206f6620746f6b656e73206465706f736974656420627920746865207573657250415553452d30343a206465706f736974546f45544820616c776179732072657665727473207768656e2074686520726f6f7420627269646765206973207061757365640263c2b778d062355049effc2dece97bc6547ff8a88a3258daa512061c2153de42414c2d30313a2054686520574554482062616c616e6365206f662074686520726f6f74206272696467652073686f756c6420616c776179732062652030464c52542d30383a2041667465722061207375636365737366756c207769746864726177206f6e2074686520726f6f74206272696467652c20746865206275636b657420646570746820697320616c77617973206c657373207468616e206f7220657175616c20746f20746865206275636b6574206361706163697479464c52542d31303a205768656e20746865207769746864726177616c5175657565206973206e6f74206163746976617465642c2061667465722061207375636365737366756c207769746864726177616c206f6620616e20616d6f756e74206c657373207468616e20746865206c617267655472616e736665725468726573686f6c64206f6e2074686520726f6f74206272696467652c206966207468652077697468647261776e20616d6f756e742069732067726561746572206f7220657175616c20746f206d696e696d756d206f662074686520726566696c6c2072617465206d756c7469706c696564206279207468652074696d6520656c61707365642073696e6365206c617374207769746864726177616c20706c757320746865207072696f72207265616c206275636b657420646570746820616e6420746865206275636b65742063617061636974792c207468656e20746865207769746864726177616c206d75737420626520616464656420746f2074686520757365722773207769746864726177616c20717565756550415553452d30353a2066696e616c6973655175657565645769746864726177616c20616c776179732072657665727473207768656e2074686520726f6f742062726964676520697320706175736564464c52542d30353a2049662066696e616c6973655175657565645769746864726177616c206973207375636365737366756c6c792063616c6c65642c207468656e2074686520717565756564207769746864726177616c20696e697469617465642074696d657374616d7020706c757320746865207769746864726177616c2064656c6179206d757374206265206c657373207468616e206f7220657175616c20746f207468652063757272656e7420626c6f636b2074696d657374616d70464c52542d30343a204966207769746864726177616c517565756541637469766174656420697320747275652c207468656e20616e79207769746864726177616c206f6620616e7920746f6b656e206d75737420626520616464656420746f2074686520757365722773207769746864726177616c207175657565434c445245562d30373a207769746864726177494d58206e65766572207265766572747320756e65787065637465646c7952545245562d31333a20756e706175736520666f722074686520726f6f7420627269646765206e657665722072657665727473464c52542d30313a20496620696d7843756d756c61746976654465706f7369744c696d6974206973206e6f7420302c2074686520726f6f74494d5820746f6b656e2062616c616e6365206f662074686520726f6f74206272696467652073686f756c6420616c77617973206265206c657373207468616e206f7220657175616c20746f20696d7843756d756c61746976654465706f7369744c696d69744c4dc693d7db52f85fe052106f4b4b920e78e8ef37dee82878a60ab8585faf4a50415553452d30333a206465706f736974546f20616c776179732072657665727473207768656e2074686520726f6f74206272696467652069732070617573656453504c592d30323a2054686520746f74616c20737570706c79206f6620726f6f742057455448206d757374206265206465637265617365642062792074686520616d6f756e74206f662057455448206465706f736974656420627920746865207573657252545245562d30353a206465706f736974546f206e65766572207265766572747320756e65787065637465646c79464c52542d30373a2041667465722061207375636365737366756c207769746864726177206f6e2074686520726f6f74206272696467652c206966207468652077697468647261776e20616d6f756e74206973206c657373207468616e20746865206d696e696d756d206f662074686520726566696c6c2072617465206d756c7469706c696564206279207468652074696d6520656c61707365642073696e6365206c617374207769746864726177616c20616e6420746865206275636b6574206361706163697479206d696e757320746865207072696f72207265616c206275636b65742064657074682c207468656e20746865206275636b6574206465707468207374726963746c7920696e63726561736573464c52542d31323a2041667465722065616368207375636365737366756c207769746864726177616c206f6e2074686520726f6f742062726964676520666f72206120746f6b656e20776974682061206e6f6e2d7a65726f2063617061636974792c20746865206275636b657420726566696c6c54696d6520697320616c77617973207570646174656420746f207468652063757272656e7420626c6f636b2074696d657374616d7052545245562d31323a207365745769746864726177616c44656c6179206e657665722072657665727473464c52542d30323a20496620746865207769746864726177616c20616d6f756e742069732067726561746572207468616e20746865206c617267655472616e736665725468726573686f6c642c20746865207769746864726177616c206d75737420626520616464656420746f2074686520757365722773207769746864726177616c20717565756550415553452d31333a207769746864726177546f20616c776179732072657665727473207768656e20746865206368696c64206272696467652069732070617573656442414c2d30373a205768656e206465706f736974696e67204554482c20746865206e61746976652062616c616e6365206f662074686520726f6f742062726964676520696e637265617365732062792065786163746c792074686520616d6f756e74206465706f73697465642062792074686520757365722c206d696e757320746865206761732066656573a2646970667358221220cd9cbb8cfff40aa1f58f5de3fa0cc8a16a5578711af9fe904c99e9e1144b136964736f6c63430008130033608060405234801561001057600080fd5b506132d8806100206000396000f3fe608060405234801561001057600080fd5b50600436106104125760003560e01c80637e1ddd8011610220578063b60e72cc11610130578063e01e92d2116100b8578063f09ced9711610087578063f09ced9714610929578063f0f4b6521461093c578063f5bc3a711461094f578063f5c466f614610962578063fb9894b21461097557600080fd5b8063e01e92d2146108ca578063e894090d146108f0578063eef2538914610903578063f01ff64c1461091657600080fd5b8063c3b55635116100ff578063c3b5563514610876578063c5df2a3714610889578063d2a506041461089c578063de9b2232146108af578063df7cd77f146108b757600080fd5b8063b60e72cc1461082a578063bb35031a1461083d578063bc8d43a814610850578063c0e8def21461086357600080fd5b8063942732b2116101b3578063a98283e411610182578063a98283e4146107cb578063ac0c207b146107de578063aeef9c21146107f1578063b09c41b714610804578063b2f9799d1461081757600080fd5b8063942732b21461077f578063953e5e80146107925780639e422447146107a5578063a15f9f07146107b857600080fd5b8063846213a1116101ef578063846213a11461073357806388e362c6146107465780638c4fb57d146107595780638f5e514a1461076c57600080fd5b80637e1ddd80146106e75780638010bad3146106fa57806381fe57861461070d578063841ea11c1461072057600080fd5b8063319af33311610326578063568c1385116102ae5780636c9764b31161027d5780636c9764b3146106885780636d5433e61461069b57806372de77b5146106ae5780637ae2b5c7146106c15780637b8d0f0c146106d457600080fd5b8063568c13851461061f5780635c2b80f5146106325780636945c5ea146106455780636ace552c1461067557600080fd5b80633ccb5e26116102f55780633ccb5e26146105a857806341304fac146105bb57806342068767146105ce5780634b5c4277146105e15780634bde38c8146105f457600080fd5b8063319af3331461056f5780633692d61a146104fd5780633b6ddf03146105825780633ca6268e1461059557600080fd5b80631b55d07c116103a9578063213cde2c11610378578063213cde2c1461051057806323cdd8e8146105235780632d40851e146105365780632e17d472146105495780632ffde6031461055c57600080fd5b80631b55d07c146104c45780631b5ac4b5146104d75780631ba0399b146104ea5780631fc4755e146104fd57600080fd5b8063084ec410116103e5578063084ec4101461047857806309fd38991461048b5780631059bfc91461049e57806314ec1cc6146104b157600080fd5b806301b9e8271461041757806304fbe1c51461042c57806306cb00111461043f57806306f8234214610465575b600080fd5b61042a610425366004612329565b610988565b005b61042a61043a366004612388565b610a6b565b61045261044d3660046123d5565b610a79565b6040519081526020015b60405180910390f35b61042a610473366004612329565b610b4d565b610452610486366004612414565b610b6c565b6104526104993660046123d5565b610c09565b61042a6104ac366004612449565b610cfe565b61042a6104bf366004612329565b610d17565b6104526104d2366004612414565b610d91565b6104526104e53660046124ac565b610df3565b61042a6104f8366004612329565b610e13565b61042a61050b3660046124c5565b610e8d565b61042a61051e3660046124c5565b610e97565b61042a610531366004612449565b610ea1565b610452610544366004612414565b610eab565b610452610557366004612414565b610ec6565b61045261056a366004612414565b610ee1565b61042a61057d366004612520565b610f0a565b61042a610590366004612329565b610f14565b61042a6105a33660046124c5565b610f8e565b61042a6105b6366004612564565b610f98565b61042a6105c93660046125ab565b610fc9565b61042a6105dc366004612449565b610fd5565b61042a6105ef366004612449565b610fed565b600054610607906001600160a01b031681565b6040516001600160a01b03909116815260200161045c565b61045261062d3660046125df565b610ff7565b61042a610640366004612329565b61101a565b61042a610653366004612601565b600080546001600160a01b0319166001600160a01b0392909216919091179055565b61042a61068336600461263f565b611094565b61042a6106963660046126ed565b611158565b6104526106a93660046125df565b611288565b61042a6106bc366004612719565b61129e565b6104526106cf3660046125df565b611319565b6104526106e23660046127ea565b611328565b6104526106f53660046125df565b611337565b61042a610708366004612816565b611345565b61045261071b3660046125df565b6113ad565b61042a61072e366004612329565b6113bc565b61042a6107413660046128c2565b6113dc565b61042a6107543660046129ac565b611431565b61042a610767366004612329565b61149e565b61045261077a3660046125df565b611518565b61042a61078d366004612449565b611536565b6104526107a0366004612414565b611540565b6104526107b33660046127ea565b611556565b61042a6107c63660046129f2565b611565565b61042a6107d93660046124c5565b6115f5565b6104526107ec3660046125df565b6115ff565b61042a6107ff3660046125ab565b61160d565b61042a610812366004612a35565b611616565b610452610825366004612414565b61169b565b61042a6108383660046124c5565b6116d4565b61042a61084b366004612329565b6116de565b61042a61085e366004612329565b6116fe565b61042a610871366004612329565b61171d565b61042a610884366004612388565b61173c565b6104526108973660046125df565b611746565b61042a6108aa366004612329565b611754565b61042a611773565b61042a6108c5366004612b1c565b61177d565b6108dd6108d8366004612b48565b611843565b604051600f9190910b815260200161045c565b6104526108fe3660046125df565b611859565b610452610911366004612414565b611867565b6104526109243660046125df565b611888565b6104526109373660046125df565b611896565b61042a61094a366004612520565b6118a4565b61045261095d3660046125df565b6118ae565b61042a610970366004612449565b6118ba565b6104526109833660046125df565b6118c4565b818310610a6657600061099a846118d2565b905060006109a7846118d2565b905060006109d18383604051806040016040528060028152602001613e3d60f01b81525087611916565b90507f46d01dfbc4861b5b859d858d541e8b0046175a8dece70e24f892a3318f70e2bb81604051610a029190612bbb565b60405180910390a160008054604080516309ccaefb60e01b815290516001600160a01b03909216926309ccaefb92600480840193829003018186803b158015610a4a57600080fd5b505afa158015610a5e573d6000803e3d6000fd5b505050505050505b505050565b610a758282611948565b5050565b600083851080610a8857508285115b15610b42576000610a998585612be4565b610aa4906001612bf7565b610aae9087612c20565b610ab89086612bf7565b90508215610b3b576000610acb876118d2565b90506000610ad8836118d2565b905060008282604051602001610aef929190612c34565b60405160208183030381529060405290507f4cb9c134519750e09450a0c38d146fed2eced02dd651ef32c9e3488faa55c6f681604051610b2f9190612bbb565b60405180910390a15050505b9050610b45565b50835b949350505050565b818312610a66576000610b5f84611985565b905060006109a784611985565b600082841315610bff57828215610bf8576000610b8886611985565b90506000610b9583611985565b905060008282604051602001610bac929190612c34565b60405160208183030381529060405290507f4cb9c134519750e09450a0c38d146fed2eced02dd651ef32c9e3488faa55c6f681604051610bec9190612bbb565b60405180910390a15050505b9050610c02565b50825b9392505050565b600083851280610c1857508285135b15610b42576000610c298585612c8e565b610c34906001612cae565b9050600081610c438789612c8e565b610c4d9190612cd6565b90506000811215610c6557610c628282612cae565b90505b6000610c718288612cae565b90508415610cf4576000610c8489611985565b90506000610c9183611985565b905060008282604051602001610ca8929190612c34565b60405160208183030381529060405290507f4cb9c134519750e09450a0c38d146fed2eced02dd651ef32c9e3488faa55c6f681604051610ce89190612bbb565b60405180910390a15050505b9250610b45915050565b6000610d0a83836119e0565b9050610a66811583611565565b818314610a66576000610d2984611985565b90506000610d3684611985565b90506000610d60838360405180604001604052806002815260200161213d60f01b81525087611916565b90507f2d2d38c9a34df9887a6dcb2a54c1f79ff8bf9c4d4cafacd7d1f7277f57baab6f81604051610a029190612bbb565b6000828411610dec57610dbf836000196040518060800160405280605a8152602001613249605a913961149e565b6000610dcc846001612bf7565b90508215610bf8576000610ddf866118d2565b90506000610b95836118d2565b5082610c02565b600080821215610e0b57610e0682612cea565b610e0d565b815b92915050565b81831315610a66576000610e2684611985565b90506000610e3384611985565b90506000610e5c8383604051806040016040528060018152602001601f60f91b81525087611916565b90507f62bdda9a05cdbcdbf905cbad99c6ebdc098b6f0933d8f2eb3cfab7400b60251481604051610a029190612bbb565b610a758282611a41565b610a758282611a72565b610a758282611aa3565b6000828413610bff57828215610bf8576000610b8886611985565b6000828411610bff57828215610bf8576000610ddf866118d2565b6000828412610bff576000610ef7600185612c8e565b90508215610bf8576000610b8886611985565b610a758282611ad4565b81831215610a66576000610f2784611985565b90506000610f3484611985565b90506000610f5d8383604051806040016040528060018152602001600f60fa1b81525087611916565b90507f94424ed24fb39638b64817c737dd443f387aaa1486614da449b6686a642d6d6c81604051610a029190612bbb565b610a758282611b05565b816001600160a01b0316836001600160a01b031614610a66576000610fbc84611b36565b90506000610d3684611b36565b610fd281611c7d565b50565b6000610fe183836119e0565b9050610a668183611565565b610a758282611cb7565b6000818312156110105761100b8383612c8e565b610c02565b610c028284612c8e565b818311610a6657600061102c846118d2565b90506000611039846118d2565b905060006110638383604051806040016040528060028152602001613c3d60f01b81525087611916565b90507f707b8c56e4c211cf1321faeb4148237062228db2fcecc9be487e83a2680e7e5081604051610a029190612bbb565b6000600183516110a49190612be4565b90505b8015610a665760008184516110bc9190612be4565b6110c69084612c20565b905060008483815181106110dc576110dc612d06565b6020026020010151905060008583815181106110fa576110fa612d06565b602002602001015190508086858151811061111757611117612d06565b6020026020010181815250508186848151811061113657611136612d06565b602002602001018181525050505050808061115090612d1c565b9150506110a7565b6001600160e01b031983811690831614610a6657604080516001600160e01b0319858116602083015282516004818403018152602483018452908516604483015282516028818403018152604890920190925260006111b683611ce8565b905060006111c383611ce8565b905060006111ed838360405180604001604052806002815260200161213d60f01b81525089611916565b90507f2d2d38c9a34df9887a6dcb2a54c1f79ff8bf9c4d4cafacd7d1f7277f57baab6f8160405161121e9190612bbb565b60405180910390a160008054604080516309ccaefb60e01b815290516001600160a01b03909216926309ccaefb92600480840193829003018186803b15801561126657600080fd5b505afa15801561127a573d6000803e3d6000fd5b505050505050505050505050565b60008183116112975781610c02565b5090919050565b60006112aa86866119e0565b806112ba57506112ba86856119e0565b806112ca57506112ca86846119e0565b806112da57506112da86836119e0565b90506000858585856040516020016112f59493929190612d33565b60405160208183030381529060405290506113108282611565565b50505050505050565b60008183106112975781610c02565b6000610b458484846001610c09565b6000610c0283836001610eab565b600061135185856119e0565b80611361575061136185846119e0565b80611371575061137185836119e0565b9050600084848460405160200161138a93929190612dae565b60405160208183030381529060405290506113a58282611565565b505050505050565b60008183136112975781610c02565b81831015610a665760006113cf846118d2565b90506000610f34846118d2565b60006113e884846119e0565b806113f857506113f884836119e0565b90506000838360405160200161140f929190612e0b565b604051602081830303815290604052905061142a8282611565565b5050505050565b6000805b835181101561148d5783818151811061145057611450612d06565b60200260200101516001600160e01b031916856001600160e01b0319160361147b576001915061148d565b8061148581612e4a565b915050611435565b506114988183611565565b50505050565b818303610a665760006114b0846118d2565b905060006114bd846118d2565b905060006114e78383604051806040016040528060028152602001613d3d60f01b81525087611916565b90507fff4de080d2384f233e1a4fb3268e8f715d8802217ad2382235900a274dde76dd81604051610a029190612bbb565b60008183101561152c5761100b8383612be4565b610c028284612be4565b610a758282611ebb565b6000828413610dec576000610ef7846001612cae565b6000610b458484846001610a79565b81610a75577feb03ca8c87c7849bef8f54cfdd2c6b967b2734fe872f751978c34bb91e13d351816040516115999190612bbb565b60405180910390a160008054604080516309ccaefb60e01b815290516001600160a01b03909216926309ccaefb92600480840193829003018186803b1580156115e157600080fd5b505afa1580156113a5573d6000803e3d6000fd5b610a758282611eec565b6000610c0283836001610b6c565b610fd281611f1d565b60008060005b84518110156116775784818151811061163757611637612d06565b60200260200101516001600160e01b031916866001600160e01b031916036116655760019250809150611677565b8061166f81612e4a565b91505061161c565b5061142a8284838151811061168e5761168e612d06565b6020026020010151611565565b6000828410610bff576116c88360006040518060800160405280605181526020016131f86051913961149e565b6000610dcc8486612c20565b610a758282611f4c565b81831115610a665760006116f1846118d2565b90506000610e33846118d2565b818314610a66576000611710846118d2565b90506000610d36846118d2565b818303610a6657600061172f84611985565b905060006114bd84611985565b610a758282611f7d565b6000610c0283836001611867565b818313610a6657600061176684611985565b9050600061103984611985565b61177b611fae565b565b81151583151514610a66576000836117b2576040518060400160405280600581526020016466616c736560d81b8152506117d0565b604051806040016040528060048152602001637472756560e01b8152505b90506000836117fc576040518060400160405280600581526020016466616c736560d81b815250610d36565b604051806040016040528060048152602001637472756560e01b81525090506000610d60838360405180604001604052806002815260200161213d60f01b81525087611916565b60008082600f0b1215610e0b57610e0682612e63565b6000610c0283836001610ec6565b600082841115610bff57600061187e846001612bf7565b610dcc9086612c20565b6000610c0283836001610ee1565b6000610c0283836001611540565b610a758282611fd9565b6000610c0283836118ae565b610a75828261200a565b6000610c0283836001610d91565b606060a06040510180604052602081039150506000815280825b600183039250600a81066030018353600a9004806118ec5750819003601f19909101908152919050565b60608483858460405160200161192f9493929190612e92565b6040516020818303038152906040529050949350505050565b7ff9a6ee38cd6e0347cb8c6a74ff6a63ee77c626ba70466aadfa86f9272fa3b8988282604051611979929190612f1c565b60405180910390a15050565b606060008083121561199f5761199a83612cea565b6119a1565b825b90506119ac816118d2565b915060008312156119da57816040516020016119c89190612f40565b60405160208183030381529060405291505b50919050565b6000816040516020016119f39190612f69565b60405160208183030381529060405280519060200120611a128461203b565b604051602001611a229190612f69565b6040516020818303038152906040528051906020012014905092915050565b7f02d93529bba9d141e5e06733c52c7e6fbcb1149586adb5c24064b522ab26f1d78282604051611979929190612f85565b7f9baa6cc96f4ef57470cb9af41561fd39032f77ca4a067930807bb7d0d3386cbf8282604051611979929190612f85565b7fe8407a0209fa99ec3a7228aff140c3d3e68bd279391739c7e0b65cd406cc93b58282604051611979929190612fa7565b7f62ddffe5b5108385f7a590f100e1ee414ad9551a31f089e64e82998440785e1e8282604051611979929190612fd5565b7f6a837ff3973aa4181e7b9f07756f8b7ee366dd85a36655d2cb42cd47f10b96388282604051611979929190612f85565b60408051602880825260608281019093526000919060208201818036833701905050905060005b6014811015611c76576000611b73826013612be4565b611b7e906008612fff565b611b899060026130fa565b611b9c906001600160a01b038716613106565b60f81b9050600060108260f81c611bb3919061311a565b60f81b905060008160f81c6010611bca919061313c565b8360f81c611bd89190613158565b60f81b9050611be68261222b565b85611bf2866002612fff565b81518110611c0257611c02612d06565b60200101906001600160f81b031916908160001a905350611c228161222b565b85611c2e866002612fff565b611c39906001612bf7565b81518110611c4957611c49612d06565b60200101906001600160f81b031916908160001a9053505050508080611c6e90612e4a565b915050611b5d565b5092915050565b7fcf34ef537ac33ee1ac626ca1587a0a7e8e51561e5514f8cb36afa1c5102b3bab81604051611cac9190612bbb565b60405180910390a150565b7f27a8767ed172b48d7cf6dbb25d2840c5fa91ef78fa6e05c13c82763d099f03ca8282604051611979929190612fa7565b6060600082516002611cfa9190612fff565b611d05906002612bf7565b6001600160401b03811115611d1c57611d1c612266565b6040519080825280601f01601f191660200182016040528015611d46576020820181803683370190505b509050600360fc1b81600081518110611d6157611d61612d06565b60200101906001600160f81b031916908160001a905350600f60fb1b81600181518110611d9057611d90612d06565b60200101906001600160f81b031916908160001a90535060005b8351811015611c76576000848281518110611dc757611dc7612d06565b016020015160f881901c91506f181899199a1a9b1b9c1cb0b131b232b360811b9060fc1c60108110611dfb57611dfb612d06565b1a60f81b83611e0b846002612fff565b611e16906002612bf7565b81518110611e2657611e26612d06565b60200101906001600160f81b031916908160001a9053506f181899199a1a9b1b9c1cb0b131b232b360811b600f821660108110611e6557611e65612d06565b1a60f81b83611e75846002612fff565b611e80906003612bf7565b81518110611e9057611e90612d06565b60200101906001600160f81b031916908160001a905350508080611eb390612e4a565b915050611daa565b7ff169276b421e6d6b4430d1934bd14cc5436305ad11e2baa67140844bb13b7e7e8282604051611979929190612fa7565b7f4ef9664a46ffe035712aa3615617c7b5aa782326d58e8949db4bee48182041938282604051611979929190612f85565b7fb42604cb105a16c8f6db8a41e6b00c0c1b4826465e8bc504b3eb3e88b3e6a4a081604051611cac9190612bbb565b7f941296a39ea107bde685522318a4b6c2b544904a5dd82a512748ca2cf839bef78282604051611979929190612f85565b7f4c34c2f9a78632f29fa59aaed5514cb742fd9fbcfd7ccc2c03c85f2bbc621c478282604051611979929190612f1c565b6040517ff92d4a94d1d5014696dcfc65a0a061af97608eebd7fea0519ff4fdbca71bae9f90600090a1565b7fe5232ba17154fdf2ae11846af09e8bd8420aa21035026ac88db6cfb8c7b490128282604051611979929190612fd5565b7fadc81638cfe9dc2f2e4e4f759b26f2006a87eb612d65bcd2828f72b14c0584448282604051611979929190612fa7565b606081516024036121ce5760408051808201909152600e81526d50616e69632875696e743235362960901b6020909101527f4e487b71539e0164c9d29506cc725e49342bcac15e0927282bf30fedfe1c726860005b6004811015612123578181600481106120ab576120ab612d06565b1a60f81b6001600160f81b0319168482815181106120cb576120cb612d06565b01602001516001600160f81b03191614612111575050604080518082019091526013815272556e646566696e6564207369676e617475726560681b602082015292915050565b8061211b81612e4a565b915050612090565b50600060045b602481101561216a57600882901b915084818151811061214b5761214b612d06565b016020015160f81c91909117908061216281612e4a565b915050612129565b508060110361219b57505060408051808201909152600981526850616e69632831372960b81b602082015292915050565b5050604080518082019091526014815273556e646566696e65642070616e696320636f646560601b602082015292915050565b60448251101561221157505060408051808201909152601d81527f5472616e73616374696f6e2072657665727465642073696c656e746c79000000602082015290565b60048201915081806020019051810190610e0d9190613171565b6000600a60f883901c10156122525761224960f883901c60306131de565b60f81b92915050565b61224960f883901c60576131de565b919050565b634e487b7160e01b600052604160045260246000fd5b604051601f8201601f191681016001600160401b03811182821017156122a4576122a4612266565b604052919050565b60006001600160401b038211156122c5576122c5612266565b50601f01601f191660200190565b600082601f8301126122e457600080fd5b81356122f76122f2826122ac565b61227c565b81815284602083860101111561230c57600080fd5b816020850160208301376000918101602001919091529392505050565b60008060006060848603121561233e57600080fd5b833592506020840135915060408401356001600160401b0381111561236257600080fd5b61236e868287016122d3565b9150509250925092565b8035801515811461226157600080fd5b6000806040838503121561239b57600080fd5b82356001600160401b038111156123b157600080fd5b6123bd858286016122d3565b9250506123cc60208401612378565b90509250929050565b600080600080608085870312156123eb57600080fd5b84359350602085013592506040850135915061240960608601612378565b905092959194509250565b60008060006060848603121561242957600080fd5b833592506020840135915061244060408501612378565b90509250925092565b6000806040838503121561245c57600080fd5b82356001600160401b038082111561247357600080fd5b61247f868387016122d3565b9350602085013591508082111561249557600080fd5b506124a2858286016122d3565b9150509250929050565b6000602082840312156124be57600080fd5b5035919050565b600080604083850312156124d857600080fd5b82356001600160401b038111156124ee57600080fd5b6124fa858286016122d3565b95602094909401359450505050565b80356001600160a01b038116811461226157600080fd5b6000806040838503121561253357600080fd5b82356001600160401b0381111561254957600080fd5b612555858286016122d3565b9250506123cc60208401612509565b60008060006060848603121561257957600080fd5b61258284612509565b925061259060208501612509565b915060408401356001600160401b0381111561236257600080fd5b6000602082840312156125bd57600080fd5b81356001600160401b038111156125d357600080fd5b610b45848285016122d3565b600080604083850312156125f257600080fd5b50508035926020909101359150565b60006020828403121561261357600080fd5b610c0282612509565b60006001600160401b0382111561263557612635612266565b5060051b60200190565b6000806040838503121561265257600080fd5b82356001600160401b0381111561266857600080fd5b8301601f8101851361267957600080fd5b803560206126896122f28361261c565b82815260059290921b830181019181810190888411156126a857600080fd5b938201935b838510156126c6578435825293820193908201906126ad565b98969091013596505050505050565b80356001600160e01b03198116811461226157600080fd5b60008060006060848603121561270257600080fd5b61270b846126d5565b9250612590602085016126d5565b600080600080600060a0868803121561273157600080fd5b85356001600160401b038082111561274857600080fd5b61275489838a016122d3565b9650602088013591508082111561276a57600080fd5b61277689838a016122d3565b9550604088013591508082111561278c57600080fd5b61279889838a016122d3565b945060608801359150808211156127ae57600080fd5b6127ba89838a016122d3565b935060808801359150808211156127d057600080fd5b506127dd888289016122d3565b9150509295509295909350565b6000806000606084860312156127ff57600080fd5b505081359360208301359350604090920135919050565b6000806000806080858703121561282c57600080fd5b84356001600160401b038082111561284357600080fd5b61284f888389016122d3565b9550602087013591508082111561286557600080fd5b612871888389016122d3565b9450604087013591508082111561288757600080fd5b612893888389016122d3565b935060608701359150808211156128a957600080fd5b506128b6878288016122d3565b91505092959194509250565b6000806000606084860312156128d757600080fd5b83356001600160401b03808211156128ee57600080fd5b6128fa878388016122d3565b9450602086013591508082111561291057600080fd5b61291c878388016122d3565b9350604086013591508082111561293257600080fd5b5061236e868287016122d3565b600082601f83011261295057600080fd5b813560206129606122f28361261c565b82815260059290921b8401810191818101908684111561297f57600080fd5b8286015b848110156129a157612994816126d5565b8352918301918301612983565b509695505050505050565b6000806000606084860312156129c157600080fd5b6129ca846126d5565b925060208401356001600160401b03808211156129e657600080fd5b61291c8783880161293f565b60008060408385031215612a0557600080fd5b612a0e83612378565b915060208301356001600160401b03811115612a2957600080fd5b6124a2858286016122d3565b600080600060608486031215612a4a57600080fd5b612a53846126d5565b92506020808501356001600160401b0380821115612a7057600080fd5b612a7c8883890161293f565b94506040870135915080821115612a9257600080fd5b818701915087601f830112612aa657600080fd5b8135612ab46122f28261261c565b81815260059190911b8301840190848101908a831115612ad357600080fd5b8585015b83811015612b0b57803585811115612aef5760008081fd5b612afd8d89838a01016122d3565b845250918601918601612ad7565b508096505050505050509250925092565b600080600060608486031215612b3157600080fd5b612b3a84612378565b925061259060208501612378565b600060208284031215612b5a57600080fd5b813580600f0b8114610c0257600080fd5b60005b83811015612b86578181015183820152602001612b6e565b50506000910152565b60008151808452612ba7816020860160208601612b6b565b601f01601f19169290920160200192915050565b602081526000610c026020830184612b8f565b634e487b7160e01b600052601160045260246000fd5b81810381811115610e0d57610e0d612bce565b80820180821115610e0d57610e0d612bce565b634e487b7160e01b600052601260045260246000fd5b600082612c2f57612c2f612c0a565b500690565b6e021b630b6b834b733903b30b63ab29608d1b815260008351612c5e81600f850160208801612b6b565b630103a37960e51b600f918401918201528351612c82816013840160208801612b6b565b01601301949350505050565b8181036000831280158383131683831282161715611c7657611c76612bce565b8082018281126000831280158216821582161715612cce57612cce612bce565b505092915050565b600082612ce557612ce5612c0a565b500790565b6000600160ff1b8201612cff57612cff612bce565b5060000390565b634e487b7160e01b600052603260045260246000fd5b600081612d2b57612d2b612bce565b506000190190565b60008551612d45818460208a01612b6b565b80830190506301027a9160e51b8082528651612d68816004850160208b01612b6b565b600492019182018190528551612d85816008850160208a01612b6b565b60089201918201528351612da081600c840160208801612b6b565b01600c019695505050505050565b60008451612dc0818460208901612b6b565b80830190506301027a9160e51b8082528551612de3816004850160208a01612b6b565b60049201918201528351612dfe816008840160208801612b6b565b0160080195945050505050565b60008351612e1d818460208801612b6b565b6301027a9160e51b9083019081528351612e3e816004840160208801612b6b565b01600401949350505050565b600060018201612e5c57612e5c612bce565b5060010190565b600081600f0b6f7fffffffffffffffffffffffffffffff198103612e8957612e89612bce565b60000392915050565b68024b73b30b634b21d160bd1b815260008551612eb6816009850160208a01612b6b565b855190830190612ecd816009840160208a01612b6b565b8551910190612ee3816009840160208901612b6b565b69016103932b0b9b7b71d160b51b600992909101918201528351612f0e816013840160208801612b6b565b016013019695505050505050565b604081526000612f2f6040830185612b8f565b905082151560208301529392505050565b602d60f81b815260008251612f5c816001850160208701612b6b565b9190910160010192915050565b60008251612f7b818460208701612b6b565b9190910192915050565b604081526000612f986040830185612b8f565b90508260208301529392505050565b604081526000612fba6040830185612b8f565b8281036020840152612fcc8185612b8f565b95945050505050565b604081526000612fe86040830185612b8f565b905060018060a01b03831660208301529392505050565b8082028115828204841417610e0d57610e0d612bce565b600181815b8085111561305157816000190482111561303757613037612bce565b8085161561304457918102915b93841c939080029061301b565b509250929050565b60008261306857506001610e0d565b8161307557506000610e0d565b816001811461308b5760028114613095576130b1565b6001915050610e0d565b60ff8411156130a6576130a6612bce565b50506001821b610e0d565b5060208310610133831016604e8410600b84101617156130d4575081810a610e0d565b6130de8383613016565b80600019048211156130f2576130f2612bce565b029392505050565b6000610c028383613059565b60008261311557613115612c0a565b500490565b600060ff83168061312d5761312d612c0a565b8060ff84160491505092915050565b60ff8181168382160290811690818114611c7657611c76612bce565b60ff8281168282160390811115610e0d57610e0d612bce565b60006020828403121561318357600080fd5b81516001600160401b0381111561319957600080fd5b8201601f810184136131aa57600080fd5b80516131b86122f2826122ac565b8181528560208385010111156131cd57600080fd5b612fcc826020830160208601612b6b565b60ff8181168382160190811115610e0d57610e0d612bce56fe636c616d704c742063616e6e6f7420636c616d702076616c7565206120746f206265206c657373207468616e207a65726f2e20436865636b20796f757220696e707574732f617373756d7074696f6e732e636c616d7047742063616e6e6f7420636c616d702076616c7565206120746f206265206c6172676572207468616e2075696e743235362e6d61782e20436865636b20796f757220696e707574732f617373756d7074696f6e732ea2646970667358221220c1ab78af8ee6c8aab6467ac695987e0d246b71ca2537b72395f812f8aa8bd85f64736f6c634300081300336080604052348015600f57600080fd5b5060898061001e6000396000f3fe6080604052348015600f57600080fd5b506004361060285760003560e01c806309ccaefb14602d575b600080fd5b60336035565b005b603b603d565b565b634e487b7160e01b600052600160045260246000fdfea26469706673582212203261b94049ca06378fa463836122ddbb849351f0575eb57441a036b2c722aab464736f6c63430008130033608060405234801561001057600080fd5b50611953806100206000396000f3fe608060405234801561001057600080fd5b50600436106101215760003560e01c806340c10f19116100ad578063a457c2d711610071578063a457c2d71461028b578063a9059cbb1461029e578063dd62ed3e146102b1578063e78cea92146102c4578063f6d2ee86146102d557600080fd5b806340c10f191461021f57806370a082311461023257806395d89b411461025b5780639b77ef11146102635780639dc29fac1461027857600080fd5b80631f2d0065116100f45780631f2d00651461018c57806323b872dd146101b15780632d0335ab146101c4578063313ce567146101ed578063395093511461020c57600080fd5b806306fdde0314610126578063095ea7b3146101445780630c53c51c1461016757806318160ddd1461017a575b600080fd5b61012e6102e8565b60405161013b919061142b565b60405180910390f35b610157610152366004611461565b61037a565b604051901515815260200161013b565b61012e6101753660046114e5565b61039e565b603c545b60405190815260200161013b565b606d546001600160a01b03165b6040516001600160a01b03909116815260200161013b565b6101576101bf36600461155b565b610681565b61017e6101d2366004611597565b6001600160a01b031660009081526006602052604090205490565b606d54600160a01b900460ff1660405160ff909116815260200161013b565b61015761021a366004611461565b6106af565b61015761022d366004611461565b6106db565b61017e610240366004611597565b6001600160a01b03166000908152603a602052604090205490565b61012e61074b565b6102766102713660046115b2565b61075a565b005b610157610286366004611461565b610781565b610157610299366004611461565b6107e8565b6101576102ac366004611461565b61086e565b61017e6102bf3660046115cb565b610886565b606c546001600160a01b0316610199565b6102766102e33660046115fe565b6108b1565b6060603d80546102f790611682565b80601f016020809104026020016040519081016040528092919081815260200182805461032390611682565b80156103705780601f1061034557610100808354040283529160200191610370565b820191906000526020600020905b81548152906001019060200180831161035357829003601f168201915b5050505050905090565b600080610385610b31565b9050610392818585610b40565b60019150505b92915050565b606060006103e187878080601f016020809104026020016040519081016040528093929190818152602001838380828437600092019190915250610c6592505050565b90506001600160e01b031960003581169082160361046c5760405162461bcd60e51b815260206004820152603d60248201527f66756e6374696f6e5369676e61747572652063616e206e6f74206265206f662060448201527f657865637574654d6574615472616e73616374696f6e206d6574686f6400000060648201526084015b60405180910390fd5b604080516060810182526001600160a01b038a16600081815260066020908152848220548452808401929092528351601f8b0183900483028101830185528a815290938301918b908b9081908401838280828437600092019190915250505091525090506104dd8982888888610c80565b6105335760405162461bcd60e51b815260206004820152602160248201527f5369676e657220616e64207369676e617475726520646f206e6f74206d6174636044820152600d60fb1b6064820152608401610463565b600660008a6001600160a01b03166001600160a01b031681526020019081526020016000206000815460010191905081905550600080306001600160a01b03168a8a8d604051602001610588939291906116bc565b60408051601f19818403018152908290526105a2916116e2565b6000604051808303816000865af19150503d80600081146105df576040519150601f19603f3d011682016040523d82523d6000602084013e6105e4565b606091505b5091509150816106365760405162461bcd60e51b815260206004820152601c60248201527f46756e6374696f6e2063616c6c206e6f74207375636365737366756c000000006044820152606401610463565b7f5845892132946850460bff5a0083f71031bc5bf9aadcd40f1de79423eac9b10b8b338c8c60405161066b94939291906116fe565b60405180910390a19a9950505050505050505050565b60008061068c610b31565b9050610699858285610d5c565b6106a4858585610dd6565b506001949350505050565b6000806106ba610b31565b90506103928185856106cc8589610886565b6106d6919061174a565b610b40565b606c546000906001600160a01b031633146107385760405162461bcd60e51b815260206004820181905260248201527f4368696c6445524332303a204f6e6c79206272696467652063616e2063616c6c6044820152606401610463565b6107428383610f81565b50600192915050565b6060603e80546102f790611682565b336000908152600660205260408120805483929061077990849061174a565b909155505050565b606c546000906001600160a01b031633146107de5760405162461bcd60e51b815260206004820181905260248201527f4368696c6445524332303a204f6e6c79206272696467652063616e2063616c6c6044820152606401610463565b6107428383611043565b6000806107f3610b31565b905060006108018286610886565b9050838110156108615760405162461bcd60e51b815260206004820152602560248201527f45524332303a2064656372656173656420616c6c6f77616e63652062656c6f77604482015264207a65726f60d81b6064820152608401610463565b6106a48286868403610b40565b600080610879610b31565b9050610392818585610dd6565b6001600160a01b039182166000908152603b6020908152604080832093909416825291909152205490565b600754610100900460ff16158080156108d15750600754600160ff909116105b806108eb5750303b1580156108eb575060075460ff166001145b61094e5760405162461bcd60e51b815260206004820152602e60248201527f496e697469616c697a61626c653a20636f6e747261637420697320616c72656160448201526d191e481a5b9a5d1a585b1a5e995960921b6064820152608401610463565b6007805460ff191660011790558015610971576007805461ff0019166101001790555b6001600160a01b0387161580159061098857508415155b801561099357508215155b6109df5760405162461bcd60e51b815260206004820152601e60248201527f4368696c6445524332303a204241445f494e495449414c495a4154494f4e00006044820152606401610463565b606d805460ff8416600160a01b026001600160a81b03199091166001600160a01b038a1617179055606c80546001600160a01b03191633179055604080516020601f8801819004810282018101909252868152610a8a91889088908190840183828082843760009201919091525050604080516020601f8a01819004810282018101909252888152925088915087908190840183828082843760009201919091525061117492505050565b610ae286868080601f016020809104026020016040519081016040528093929190818152602001838380828437600092019190915250506040805180820190915260018152603160f81b602082015291506111a59050565b8015610b28576007805461ff0019169055604051600181527f7f26b83ff96e1f2b6a682f133852f6798a09c465da95921460cefb38474024989060200160405180910390a15b50505050505050565b6000610b3b611211565b905090565b6001600160a01b038316610ba25760405162461bcd60e51b8152602060048201526024808201527f45524332303a20617070726f76652066726f6d20746865207a65726f206164646044820152637265737360e01b6064820152608401610463565b6001600160a01b038216610c035760405162461bcd60e51b815260206004820152602260248201527f45524332303a20617070726f766520746f20746865207a65726f206164647265604482015261737360f01b6064820152608401610463565b6001600160a01b038381166000818152603b602090815260408083209487168084529482529182902085905590518481527f8c5be1e5ebec7d5bd14f71427d1e84f3dd0314c0f7b2291e5b200ac8c7c3b92591015b60405180910390a3505050565b60008151600003610c7857506000919050565b506020015190565b6000806001610c96610c918861126d565b6112ea565b6040805160008152602081018083529290925260ff861690820152606081018790526080810186905260a0016020604051602081039080840390855afa158015610ce4573d6000803e3d6000fd5b5050604051601f1901519150506001600160a01b038116610d3b5760405162461bcd60e51b8152602060048201526011602482015270496e76616c6964207369676e617475726560781b6044820152606401610463565b866001600160a01b0316816001600160a01b03161491505095945050505050565b6000610d688484610886565b90506000198114610dd05781811015610dc35760405162461bcd60e51b815260206004820152601d60248201527f45524332303a20696e73756666696369656e7420616c6c6f77616e63650000006044820152606401610463565b610dd08484848403610b40565b50505050565b6001600160a01b038316610e3a5760405162461bcd60e51b815260206004820152602560248201527f45524332303a207472616e736665722066726f6d20746865207a65726f206164604482015264647265737360d81b6064820152608401610463565b6001600160a01b038216610e9c5760405162461bcd60e51b815260206004820152602360248201527f45524332303a207472616e7366657220746f20746865207a65726f206164647260448201526265737360e81b6064820152608401610463565b6001600160a01b0383166000908152603a602052604090205481811015610f145760405162461bcd60e51b815260206004820152602660248201527f45524332303a207472616e7366657220616d6f756e7420657863656564732062604482015265616c616e636560d01b6064820152608401610463565b6001600160a01b038085166000818152603a602052604080822086860390559286168082529083902080548601905591517fddf252ad1be2c89b69c2b068fc378daa952ba7f163c4a11628f55a4df523b3ef90610f749086815260200190565b60405180910390a3610dd0565b6001600160a01b038216610fd75760405162461bcd60e51b815260206004820152601f60248201527f45524332303a206d696e7420746f20746865207a65726f2061646472657373006044820152606401610463565b80603c6000828254610fe9919061174a565b90915550506001600160a01b0382166000818152603a60209081526040808320805486019055518481527fddf252ad1be2c89b69c2b068fc378daa952ba7f163c4a11628f55a4df523b3ef910160405180910390a35b5050565b6001600160a01b0382166110a35760405162461bcd60e51b815260206004820152602160248201527f45524332303a206275726e2066726f6d20746865207a65726f206164647265736044820152607360f81b6064820152608401610463565b6001600160a01b0382166000908152603a6020526040902054818110156111175760405162461bcd60e51b815260206004820152602260248201527f45524332303a206275726e20616d6f756e7420657863656564732062616c616e604482015261636560f01b6064820152608401610463565b6001600160a01b0383166000818152603a602090815260408083208686039055603c80548790039055518581529192917fddf252ad1be2c89b69c2b068fc378daa952ba7f163c4a11628f55a4df523b3ef9101610c58565b505050565b600754610100900460ff1661119b5760405162461bcd60e51b81526004016104639061176b565b61103f8282611317565b815160208084019190912082519183019190912060038290556004819055466001557f8b73c3c69bb8fe3d512ecc4cf759cc79239f7b179b0ffacaa9a75d522b39400f6111f3818484611357565b600055600280546001600160a01b0319163017905560055550505050565b600030330361126757600080368080601f0160208091040260200160405190810160405280939291908181526020018383808284376000920191909152505050503601516001600160a01b0316915061126a9050565b50335b90565b60006040518060800160405280604381526020016118db60439139805160209182012083518483015160408087015180519086012090516112cd950193845260208401929092526001600160a01b03166040830152606082015260800190565b604051602081830303815290604052805190602001209050919050565b60006103986112f76113a0565b8360405161190160f01b8152600281019290925260228201526042902090565b600754610100900460ff1661133e5760405162461bcd60e51b81526004016104639061176b565b603d61134a838261181a565b50603e61116f828261181a565b6040805160208101859052908101839052606081018290524660808201523060a082015260009060c0016040516020818303038152906040528051906020012090509392505050565b6002546000906001600160a01b0316301480156113be575060015446145b156113ca575060005490565b610b3b600554600354600454611357565b60005b838110156113f65781810151838201526020016113de565b50506000910152565b600081518084526114178160208601602086016113db565b601f01601f19169290920160200192915050565b60208152600061143e60208301846113ff565b9392505050565b80356001600160a01b038116811461145c57600080fd5b919050565b6000806040838503121561147457600080fd5b61147d83611445565b946020939093013593505050565b60008083601f84011261149d57600080fd5b50813567ffffffffffffffff8111156114b557600080fd5b6020830191508360208285010111156114cd57600080fd5b9250929050565b803560ff8116811461145c57600080fd5b60008060008060008060a087890312156114fe57600080fd5b61150787611445565b9550602087013567ffffffffffffffff81111561152357600080fd5b61152f89828a0161148b565b909650945050604087013592506060870135915061154f608088016114d4565b90509295509295509295565b60008060006060848603121561157057600080fd5b61157984611445565b925061158760208501611445565b9150604084013590509250925092565b6000602082840312156115a957600080fd5b61143e82611445565b6000602082840312156115c457600080fd5b5035919050565b600080604083850312156115de57600080fd5b6115e783611445565b91506115f560208401611445565b90509250929050565b6000806000806000806080878903121561161757600080fd5b61162087611445565b9550602087013567ffffffffffffffff8082111561163d57600080fd5b6116498a838b0161148b565b9097509550604089013591508082111561166257600080fd5b5061166f89828a0161148b565b909450925061154f9050606088016114d4565b600181811c9082168061169657607f821691505b6020821081036116b657634e487b7160e01b600052602260045260246000fd5b50919050565b8284823760609190911b6bffffffffffffffffffffffff19169101908152601401919050565b600082516116f48184602087016113db565b9190910192915050565b6001600160a01b0385811682528416602082015260606040820181905281018290526000828460808401376000608084840101526080601f19601f850116830101905095945050505050565b8082018082111561039857634e487b7160e01b600052601160045260246000fd5b6020808252602b908201527f496e697469616c697a61626c653a20636f6e7472616374206973206e6f74206960408201526a6e697469616c697a696e6760a81b606082015260800190565b634e487b7160e01b600052604160045260246000fd5b601f82111561116f57600081815260208120601f850160051c810160208610156117f35750805b601f850160051c820191505b81811015611812578281556001016117ff565b505050505050565b815167ffffffffffffffff811115611834576118346117b6565b611848816118428454611682565b846117cc565b602080601f83116001811461187d57600084156118655750858301515b600019600386901b1c1916600185901b178555611812565b600085815260208120601f198616915b828110156118ac5788860151825594840194600190910190840161188d565b50858210156118ca5787850151600019600388901b60f8161c191681555b5050505050600190811b0190555056fe4d6574615472616e73616374696f6e2875696e74323536206e6f6e63652c616464726573732066726f6d2c62797465732066756e6374696f6e5369676e617475726529a2646970667358221220475d4ddcb726fea0b8e1abd552ba67d09bbce45a1a75416bff1ed2bf992a833e64736f6c63430008130033608060405234801561001057600080fd5b50610295806100206000396000f3fe6080604052600436106100345760003560e01c80637248c77c14610039578063c4d66de81461005b578063f20755ba14610098575b600080fd5b34801561004557600080fd5b5061005961005436600461015c565b6100ab565b005b34801561006757600080fd5b506100596100763660046101ba565b600180546001600160a01b0319166001600160a01b0392909216919091179055565b6100596100a63660046101dc565b505050565b600154604051631c9231df60e21b81526001600160a01b0390911690637248c77c906100dd9085908590600401610230565b600060405180830381600087803b1580156100f757600080fd5b505af115801561010b573d6000803e3d6000fd5b505050505050565b60008083601f84011261012557600080fd5b50813567ffffffffffffffff81111561013d57600080fd5b60208301915083602082850101111561015557600080fd5b9250929050565b6000806020838503121561016f57600080fd5b823567ffffffffffffffff81111561018657600080fd5b61019285828601610113565b90969095509350505050565b80356001600160a01b03811681146101b557600080fd5b919050565b6000602082840312156101cc57600080fd5b6101d58261019e565b9392505050565b6000806000604084860312156101f157600080fd5b833567ffffffffffffffff81111561020857600080fd5b61021486828701610113565b909450925061022790506020850161019e565b90509250925092565b60208152816020820152818360408301376000818301604090810191909152601f909201601f1916010191905056fea26469706673582212208c4b292033d1adc80dc3eebc6f53615d260635019e695290d7116d519cf2efec64736f6c6343000813003360c0604052600b60809081526a0aee4c2e0e0cac8408aa8960ab1b60a05260009061002a9082610112565b506040805180820190915260048152630ae8aa8960e31b60208201526001906100539082610112565b506002805460ff1916601217905534801561006d57600080fd5b506101d1565b634e487b7160e01b600052604160045260246000fd5b600181811c9082168061009d57607f821691505b6020821081036100bd57634e487b7160e01b600052602260045260246000fd5b50919050565b601f82111561010d57600081815260208120601f850160051c810160208610156100ea5750805b601f850160051c820191505b81811015610109578281556001016100f6565b5050505b505050565b81516001600160401b0381111561012b5761012b610073565b61013f816101398454610089565b846100c3565b602080601f831160018114610174576000841561015c5750858301515b600019600386901b1c1916600185901b178555610109565b600085815260208120601f198616915b828110156101a357888601518255948401946001909101908401610184565b50858210156101c15787850151600019600388901b60f8161c191681555b5050505050600190811b01905550565b61087d806101e06000396000f3fe6080604052600436106100a05760003560e01c8063313ce56711610064578063313ce5671461016c57806370a082311461019857806395d89b41146101c5578063a9059cbb146101da578063d0e30db0146101fa578063dd62ed3e1461020257600080fd5b806306fdde03146100b4578063095ea7b3146100df57806318160ddd1461010f57806323b872dd1461012c5780632e1a7d4d1461014c57600080fd5b366100af576100ad61023a565b005b600080fd5b3480156100c057600080fd5b506100c9610295565b6040516100d69190610659565b60405180910390f35b3480156100eb57600080fd5b506100ff6100fa3660046106c3565b610323565b60405190151581526020016100d6565b34801561011b57600080fd5b50475b6040519081526020016100d6565b34801561013857600080fd5b506100ff6101473660046106ed565b610390565b34801561015857600080fd5b506100ad610167366004610729565b61057f565b34801561017857600080fd5b506002546101869060ff1681565b60405160ff90911681526020016100d6565b3480156101a457600080fd5b5061011e6101b3366004610742565b60036020526000908152604090205481565b3480156101d157600080fd5b506100c9610638565b3480156101e657600080fd5b506100ff6101f53660046106c3565b610645565b6100ad61023a565b34801561020e57600080fd5b5061011e61021d36600461075d565b600460209081526000928352604080842090915290825290205481565b33600090815260036020526040812080543492906102599084906107a6565b909155505060405134815233907fe1fffcc4923d04b559f4d29a8bfc6cda04eb5b0d3c460751c2402c5c5cc9109c9060200160405180910390a2565b600080546102a2906107b9565b80601f01602080910402602001604051908101604052809291908181526020018280546102ce906107b9565b801561031b5780601f106102f05761010080835404028352916020019161031b565b820191906000526020600020905b8154815290600101906020018083116102fe57829003601f168201915b505050505081565b3360008181526004602090815260408083206001600160a01b038716808552925280832085905551919290917f8c5be1e5ebec7d5bd14f71427d1e84f3dd0314c0f7b2291e5b200ac8c7c3b9259061037e9086815260200190565b60405180910390a35060015b92915050565b6001600160a01b0383166000908152600360205260408120548211156103d15760405162461bcd60e51b81526004016103c8906107f3565b60405180910390fd5b6001600160a01b038416331480159061040f57506001600160a01b038416600090815260046020908152604080832033845290915290205460001914155b156104cc576001600160a01b03841660009081526004602090815260408083203384529091529020548211156104935760405162461bcd60e51b815260206004820152602360248201527f57726170706564204554483a20496e73756666696369656e7420616c6c6f77616044820152626e636560e81b60648201526084016103c8565b6001600160a01b0384166000908152600460209081526040808320338452909152812080548492906104c6908490610834565b90915550505b6001600160a01b038416600090815260036020526040812080548492906104f4908490610834565b90915550506001600160a01b038316600090815260036020526040812080548492906105219084906107a6565b92505081905550826001600160a01b0316846001600160a01b03167fddf252ad1be2c89b69c2b068fc378daa952ba7f163c4a11628f55a4df523b3ef8460405161056d91815260200190565b60405180910390a35060019392505050565b336000908152600360205260409020548111156105ae5760405162461bcd60e51b81526004016103c8906107f3565b33600090815260036020526040812080548392906105cd908490610834565b9091555050604051339082156108fc029083906000818181858888f193505050501580156105ff573d6000803e3d6000fd5b5060405181815233907f7fcf532c15f0a6db0bd6d0e038bea71d30d808c7d98cb3bf7268a95bf5081b659060200160405180910390a250565b600180546102a2906107b9565b6000610652338484610390565b9392505050565b600060208083528351808285015260005b818110156106865785810183015185820160400152820161066a565b506000604082860101526040601f19601f8301168501019250505092915050565b80356001600160a01b03811681146106be57600080fd5b919050565b600080604083850312156106d657600080fd5b6106df836106a7565b946020939093013593505050565b60008060006060848603121561070257600080fd5b61070b846106a7565b9250610719602085016106a7565b9150604084013590509250925092565b60006020828403121561073b57600080fd5b5035919050565b60006020828403121561075457600080fd5b610652826106a7565b6000806040838503121561077057600080fd5b610779836106a7565b9150610787602084016106a7565b90509250929050565b634e487b7160e01b600052601160045260246000fd5b8082018082111561038a5761038a610790565b600181811c908216806107cd57607f821691505b6020821081036107ed57634e487b7160e01b600052602260045260246000fd5b50919050565b60208082526021908201527f57726170706564204554483a20496e73756666696369656e742062616c616e636040820152606560f81b606082015260800190565b8181038181111561038a5761038a61079056fea2646970667358221220599064500d409702985f195f3a885ba475036cf0516e40f1f150c16104582e7b64736f6c6343000813003360c0604052600b60809081526a0aee4c2e0e0cac840929ab60ab1b60a05260009061002a9082610112565b506040805180820190915260048152630ae929ab60e31b60208201526001906100539082610112565b506002805460ff1916601217905534801561006d57600080fd5b506101d1565b634e487b7160e01b600052604160045260246000fd5b600181811c9082168061009d57607f821691505b6020821081036100bd57634e487b7160e01b600052602260045260246000fd5b50919050565b601f82111561010d57600081815260208120601f850160051c810160208610156100ea5750805b601f850160051c820191505b81811015610109578281556001016100f6565b5050505b505050565b81516001600160401b0381111561012b5761012b610073565b61013f816101398454610089565b846100c3565b602080601f831160018114610174576000841561015c5750858301515b600019600386901b1c1916600185901b178555610109565b600085815260208120601f198616915b828110156101a357888601518255948401946001909101908401610184565b50858210156101c15787850151600019600388901b60f8161c191681555b5050505050600190811b01905550565b610978806101e06000396000f3fe6080604052600436106100a05760003560e01c8063313ce56711610064578063313ce5671461016c57806370a082311461019857806395d89b41146101c5578063a9059cbb146101da578063d0e30db0146101fa578063dd62ed3e1461020257600080fd5b806306fdde03146100b4578063095ea7b3146100df57806318160ddd1461010f57806323b872dd1461012c5780632e1a7d4d1461014c57600080fd5b366100af576100ad61023a565b005b600080fd5b3480156100c057600080fd5b506100c9610295565b6040516100d69190610754565b60405180910390f35b3480156100eb57600080fd5b506100ff6100fa3660046107be565b610323565b60405190151581526020016100d6565b34801561011b57600080fd5b50475b6040519081526020016100d6565b34801561013857600080fd5b506100ff6101473660046107e8565b610390565b34801561015857600080fd5b506100ad610167366004610824565b61057f565b34801561017857600080fd5b506002546101869060ff1681565b60405160ff90911681526020016100d6565b3480156101a457600080fd5b5061011e6101b336600461083d565b60036020526000908152604090205481565b3480156101d157600080fd5b506100c9610615565b3480156101e657600080fd5b506100ff6101f53660046107be565b610622565b6100ad61023a565b34801561020e57600080fd5b5061011e61021d366004610858565b600460209081526000928352604080842090915290825290205481565b33600090815260036020526040812080543492906102599084906108a1565b909155505060405134815233907fe1fffcc4923d04b559f4d29a8bfc6cda04eb5b0d3c460751c2402c5c5cc9109c9060200160405180910390a2565b600080546102a2906108b4565b80601f01602080910402602001604051908101604052809291908181526020018280546102ce906108b4565b801561031b5780601f106102f05761010080835404028352916020019161031b565b820191906000526020600020905b8154815290600101906020018083116102fe57829003601f168201915b505050505081565b3360008181526004602090815260408083206001600160a01b038716808552925280832085905551919290917f8c5be1e5ebec7d5bd14f71427d1e84f3dd0314c0f7b2291e5b200ac8c7c3b9259061037e9086815260200190565b60405180910390a35060015b92915050565b6001600160a01b0383166000908152600360205260408120548211156103d15760405162461bcd60e51b81526004016103c8906108ee565b60405180910390fd5b6001600160a01b038416331480159061040f57506001600160a01b038416600090815260046020908152604080832033845290915290205460001914155b156104cc576001600160a01b03841660009081526004602090815260408083203384529091529020548211156104935760405162461bcd60e51b815260206004820152602360248201527f5772617070656420494d583a20496e73756666696369656e7420616c6c6f77616044820152626e636560e81b60648201526084016103c8565b6001600160a01b0384166000908152600460209081526040808320338452909152812080548492906104c690849061092f565b90915550505b6001600160a01b038416600090815260036020526040812080548492906104f490849061092f565b90915550506001600160a01b038316600090815260036020526040812080548492906105219084906108a1565b92505081905550826001600160a01b0316846001600160a01b03167fddf252ad1be2c89b69c2b068fc378daa952ba7f163c4a11628f55a4df523b3ef8460405161056d91815260200190565b60405180910390a35060019392505050565b336000908152600360205260409020548111156105ae5760405162461bcd60e51b81526004016103c8906108ee565b33600090815260036020526040812080548392906105cd90849061092f565b909155506105dd90503382610636565b60405181815233907f7fcf532c15f0a6db0bd6d0e038bea71d30d808c7d98cb3bf7268a95bf5081b659060200160405180910390a250565b600180546102a2906108b4565b600061062f338484610390565b9392505050565b804710156106865760405162461bcd60e51b815260206004820152601d60248201527f416464726573733a20696e73756666696369656e742062616c616e636500000060448201526064016103c8565b6000826001600160a01b03168260405160006040518083038185875af1925050503d80600081146106d3576040519150601f19603f3d011682016040523d82523d6000602084013e6106d8565b606091505b505090508061074f5760405162461bcd60e51b815260206004820152603a60248201527f416464726573733a20756e61626c6520746f2073656e642076616c75652c207260448201527f6563697069656e74206d6179206861766520726576657274656400000000000060648201526084016103c8565b505050565b600060208083528351808285015260005b8181101561078157858101830151858201604001528201610765565b506000604082860101526040601f19601f8301168501019250505092915050565b80356001600160a01b03811681146107b957600080fd5b919050565b600080604083850312156107d157600080fd5b6107da836107a2565b946020939093013593505050565b6000806000606084860312156107fd57600080fd5b610806846107a2565b9250610814602085016107a2565b9150604084013590509250925092565b60006020828403121561083657600080fd5b5035919050565b60006020828403121561084f57600080fd5b61062f826107a2565b6000806040838503121561086b57600080fd5b610874836107a2565b9150610882602084016107a2565b90509250929050565b634e487b7160e01b600052601160045260246000fd5b8082018082111561038a5761038a61088b565b600181811c908216806108c857607f821691505b6020821081036108e857634e487b7160e01b600052602260045260246000fd5b50919050565b60208082526021908201527f5772617070656420494d583a20496e73756666696369656e742062616c616e636040820152606560f81b606082015260800190565b8181038181111561038a5761038a61088b56fea2646970667358221220f1298d95be20667ecb5a10b9308bf9647d72726133f4dc80d2fc93e94384860164736f6c6343000813003360a06040523480156200001157600080fd5b5060405162002db938038062002db983398101604081905262000034916200006e565b6001600160a01b0381166200005c5760405163d92e233d60e01b815260040160405180910390fd5b6001600160a01b0316608052620000a0565b6000602082840312156200008157600080fd5b81516001600160a01b03811681146200009957600080fd5b9392505050565b608051612cf6620000c3600039600081816106d70152610e4d0152612cf66000f3fe60806040526004361061026b5760003560e01c806389c65d4111610144578063d6dc0b0d116100b6578063f14210a61161007a578063f14210a614610771578063f3dfce1d14610784578063f3fef3a3146107a4578063f6451255146107b7578063f865af08146107eb578063fb1bb9de1461080b57600080fd5b8063d6dc0b0d146106c5578063da51c71e146106f9578063de65c2e41461071b578063dee1ef0d1461072e578063e63ab1e91461074f57600080fd5b8063a217fddf11610108578063a217fddf146105f4578063b176806514610609578063b68ad1e41461063d578063c3b35a7e1461065e578063d41f177114610671578063d547741f146106a557600080fd5b806389c65d41146105605780638c956990146105805780638f70121f146105a157806391d14854146105c157806392ffd2e2146105e157600080fd5b80633f4ba83a116101dd5780636c11c21c116101a15780636c11c21c1461049c5780637248c77c146104bc57806377907d1d146104dc5780637ab5e3ae146104fe5780637efab4f5146105145780638456cb591461054b57600080fd5b80633f4ba83a1461042857806352b61e361461043d5780635c975abb1461045057806369053ed014610468578063697b894a1461048957600080fd5b80632540e2da1161022f5780632540e2da14610374578063274346b91461039457806329529c0e146103a75780632f2ff15d146103c857806332968782146103e857806336568abe1461040857600080fd5b8063011e1167146102ab57806301ffc9a7146102de5780630765c4051461030e57806318428c501461032e578063248a9ca31461033657600080fd5b366102a65761027861082d565b610132546001600160a01b031633146102a457604051630402506f60e01b815260040160405180910390fd5b005b600080fd5b3480156102b757600080fd5b506102c1610eee81565b6040516001600160a01b0390911681526020015b60405180910390f35b3480156102ea57600080fd5b506102fe6102f9366004612572565b61087a565b60405190151581526020016102d5565b34801561031a57600080fd5b506102a46103293660046125c1565b6108b1565b6102a461095c565b34801561034257600080fd5b506103666103513660046125de565b60009081526065602052604090206001015490565b6040519081526020016102d5565b34801561038057600080fd5b506102a461038f3660046125c1565b6109cd565b6102a46103a23660046125f7565b6109f4565b3480156103b357600080fd5b5061012e546102c1906001600160a01b031681565b3480156103d457600080fd5b506102a46103e3366004612623565b610a0c565b3480156103f457600080fd5b506102a46104033660046125c1565b610a36565b34801561041457600080fd5b506102a4610423366004612623565b610a59565b34801561043457600080fd5b506102a4610ad3565b6102a461044b3660046125de565b610af6565b34801561045c57600080fd5b5060975460ff166102fe565b34801561047457600080fd5b50610132546102c1906001600160a01b031681565b6102a46104973660046125f7565b610b0e565b3480156104a857600080fd5b506102a46104b73660046125c1565b610b26565b3480156104c857600080fd5b506102a46104d7366004612653565b610b49565b3480156104e857600080fd5b50610366600080516020612c6183398151915281565b34801561050a57600080fd5b506102c1610fff81565b34801561052057600080fd5b506102c161052f3660046125c1565b61012d602052600090815260409020546001600160a01b031681565b34801561055757600080fd5b506102a4610c8f565b34801561056c57600080fd5b506102a461057b3660046125c1565b610caf565b34801561058c57600080fd5b50610130546102c1906001600160a01b031681565b3480156105ad57600080fd5b506102a46105bc3660046125c1565b610cd2565b3480156105cd57600080fd5b506102fe6105dc366004612623565b610cf5565b6102a46105ef3660046125f7565b610d20565b34801561060057600080fd5b50610366600081565b34801561061557600080fd5b506103667f7a8dc26796a1e50e6e190b70259f58f6a4edd5b22280ceecc82b687b8e98286981565b34801561064957600080fd5b5061012f546102c1906001600160a01b031681565b6102a461066c3660046126c5565b610d2d565b34801561067d57600080fd5b506103667f87a7811f4bfedea3d341ad165680ae306b01aaeacc205d227629cf157dd9f82181565b3480156106b157600080fd5b506102a46106c0366004612623565b610d38565b3480156106d157600080fd5b506102c17f000000000000000000000000000000000000000000000000000000000000000081565b34801561070557600080fd5b50610366600080516020612c4183398151915281565b6102a46107293660046125de565b610d5d565b34801561073a57600080fd5b50610131546102c1906001600160a01b031681565b34801561075b57600080fd5b50610366600080516020612ca183398151915281565b6102a461077f3660046125de565b610d6a565b34801561079057600080fd5b506102a461079f366004612745565b610d82565b6102a46107b23660046125f7565b6111cb565b3480156107c357600080fd5b506103667f2cef46a936bdc5b7e6e8c71aa04560c41cf7d88bb26901a7e7f4936ff02accad81565b3480156107f757600080fd5b506102a46108063660046125c1565b6111d6565b34801561081757600080fd5b50610366600080516020612c8183398151915281565b60975460ff16156108785760405162461bcd60e51b815260206004820152601060248201526f14185d5cd8589b194e881c185d5cd95960821b60448201526064015b60405180910390fd5b565b60006001600160e01b03198216637965db0b60e01b14806108ab57506301ffc9a760e01b6001600160e01b03198316145b92915050565b600080516020612c418339815191526108c9816111f9565b6001600160a01b0382166108f05760405163d92e233d60e01b815260040160405180910390fd5b61012e54604080516001600160a01b03928316815291841660208301527f6295d9d82f5000a9dcc9019e6308fec486f74ee3f43489208a0e83b0f17fb1f6910160405180910390a15061012e80546001600160a01b0319166001600160a01b0392909216919091179055565b600080516020612c61833981519152610974816111f9565b3460000361099557604051637c946ed760e01b815260040160405180910390fd5b60405134815233907fed5ccca9e28db55e91a5eee6654c6ab321485b9586583e9f511dd0d65e3d95619060200160405180910390a250565b60006109d8816111f9565b6109f0600080516020612c8183398151915283610d38565b5050565b610132546109f0906001600160a01b03168383611203565b600082815260656020526040902060010154610a27816111f9565b610a318383611403565b505050565b6000610a41816111f9565b6109f0600080516020612c8183398151915283610a0c565b6001600160a01b0381163314610ac95760405162461bcd60e51b815260206004820152602f60248201527f416363657373436f6e74726f6c3a2063616e206f6e6c792072656e6f756e636560448201526e103937b632b9903337b91039b2b63360891b606482015260840161086f565b6109f08282611489565b600080516020612c81833981519152610aeb816111f9565b610af36114f0565b50565b61013254610af3906001600160a01b03163383611203565b610131546109f0906001600160a01b03168383611203565b6000610b31816111f9565b6109f0600080516020612ca183398151915283610a0c565b610b5161082d565b61012e546001600160a01b03163314610b7d5760405163122d54c760e11b815260040160405180910390fd5b60208111610bbf5760405163180a097760e01b815260206004820152600e60248201526d11185d18481d1bdbc81cda1bdc9d60921b604482015260640161086f565b6000610bce6020828486612828565b610bd791612852565b90507f2cef46a936bdc5b7e6e8c71aa04560c41cf7d88bb26901a7e7f4936ff02accad8103610c0a57610a318383611542565b7f87a7811f4bfedea3d341ad165680ae306b01aaeacc205d227629cf157dd9f8218103610c4657610a31610c418360208187612828565b61172e565b60405163180a097760e01b815260206004820152601c60248201527f556e737570706f7274656420616374696f6e207369676e617475726500000000604482015260640161086f565b600080516020612ca1833981519152610ca7816111f9565b610af36117ae565b6000610cba816111f9565b6109f0600080516020612c4183398151915283610d38565b6000610cdd816111f9565b6109f0600080516020612c4183398151915283610a0c565b60009182526065602090815260408084206001600160a01b0393909316845291905290205460ff1690565b6109f0610fff8383611203565b610a31838383611203565b600082815260656020526040902060010154610d53816111f9565b610a318383611489565b610af3610fff3383611203565b61013154610af3906001600160a01b03163383611203565b600054610100900460ff1615808015610da25750600054600160ff909116105b80610dbc5750303b158015610dbc575060005460ff166001145b610e1f5760405162461bcd60e51b815260206004820152602e60248201527f496e697469616c697a61626c653a20636f6e747261637420697320616c72656160448201526d191e481a5b9a5d1a585b1a5e995960921b606482015260840161086f565b6000805460ff191660011790558015610e42576000805461ff0019166101001790555b336001600160a01b037f00000000000000000000000000000000000000000000000000000000000000001614610e8b57604051630d622feb60e01b815260040160405180910390fd5b6001600160a01b0385161580610ea857506001600160a01b038416155b80610eba57506001600160a01b038316155b80610ecd575085516001600160a01b0316155b80610ee3575060208601516001600160a01b0316155b80610ef9575060408601516001600160a01b0316155b80610f0f575060608601516001600160a01b0316155b80610f25575060a08601516001600160a01b0316155b80610f3757506001600160a01b038216155b15610f555760405163d92e233d60e01b815260040160405180910390fd5b610f5d6117eb565b610f65611812565b610f6d611841565b8551610f7b90600090611403565b610f97600080516020612ca18339815191528760200151611403565b610fb3600080516020612c818339815191528760400151611403565b610fcf600080516020612c418339815191528760600151611403565b610feb600080516020612c618339815191528760800151611403565b611007600080516020612c618339815191528760a00151611403565b61012f80546001600160a01b038681166001600160a01b0319928316811790935561012e8054898316908416179055610130805487831690841617905561013280549186169190921617905560405161077760611b6020820152600091611087916034015b60405160208183030381529060405280519060200120611870565b604051637b69774360e11b8152610eee6004820152608060248201526008608482015267457468657265756d60c01b60a482015260c06044820152600360c48201526208aa8960eb1b60e4820152601260648201529091506001600160a01b0382169063f6d2ee869061010401600060405180830381600087803b15801561110e57600080fd5b505af1158015611122573d6000803e3d6000fd5b505061013180546001600160a01b039094166001600160a01b03199485168117909155610eee60005261012d6020527fad76b4044bfa734d1658e7587c3fd33991772c4284f450d12a829695b2e0bd04805490941617909255505080156111c3576000805461ff0019169055604051600181527f7f26b83ff96e1f2b6a682f133852f6798a09c465da95921460cefb38474024989060200160405180910390a15b505050505050565b6109f0823383611203565b60006111e1816111f9565b6109f0600080516020612ca183398151915283610d38565b610af3813361190d565b61120b611966565b61121361082d565b6001600160a01b038316158061123057506001600160a01b038216155b1561124e5760405163d92e233d60e01b815260040160405180910390fd5b8060000361126f57604051631f2a200560e01b815260040160405180910390fd5b3460000361129057604051631d3e008d60e21b815260040160405180910390fd5b6000610ffe196001600160a01b038516016112b5576112ae826119bf565b9050611302565b610132546001600160a01b03908116908516036112d5576112ae826119f4565b610131546001600160a01b03908116908516036112f5576112ae82611b4c565b6112ff8483611c00565b90505b604080517f7a8dc26796a1e50e6e190b70259f58f6a4edd5b22280ceecc82b687b8e98286960208201526001600160a01b0383811682840152336060830152858116608083015260a08083018690528351808403909101815260c0909201909252906000908616610fff146113775734611381565b6113818434612886565b61012e54604051637903aadd60e11b81529192506001600160a01b03169063f20755ba9083906113b790869033906004016128e9565b6000604051808303818588803b1580156113d057600080fd5b505af11580156113e4573d6000803e3d6000fd5b50505050506113f68387338888611e38565b505050610a31600160fb55565b61140d8282610cf5565b6109f05760008281526065602090815260408083206001600160a01b03851684529091529020805460ff191660011790556114453390565b6001600160a01b0316816001600160a01b0316837f2f8788117e7eff1d82e926ec794901d17c78024a50270940304540a733656f0d60405160405180910390a45050565b6114938282610cf5565b156109f05760008281526065602090815260408083206001600160a01b0385168085529252808320805460ff1916905551339285917ff6391f5c32d9c69d2a47ea670b442974b53935d1edc7fd64eb21e047a839171b9190a45050565b6114f8611fd5565b6097805460ff191690557f5db9ee0a495bf2e6ff9c91a7834c1ba4fdd244a5e8aa4e537bd38aeae4b073aa335b6040516001600160a01b03909116815260200160405180910390a1565b6000808080611553858701876129a0565b92975090955093509150506001600160a01b0384166115855760405163d92e233d60e01b815260040160405180910390fd5b610130546001600160a01b03908116908516036115b55760405163a9a43cf960e01b815260040160405180910390fd5b610eed196001600160a01b038516016115e15760405163e9edc9b360e01b815260040160405180910390fd5b6001600160a01b03848116600090815261012d6020526040902054161561161b57604051632a431ae760e11b815260040160405180910390fd5b61012f546040516bffffffffffffffffffffffff19606087901b166020820152600091611656916001600160a01b039091169060340161106c565b6001600160a01b03868116600090815261012d60205260409081902080546001600160a01b031916928416928317905551637b69774360e11b81529192509063f6d2ee86906116af908890889088908890600401612a3b565b600060405180830381600087803b1580156116c957600080fd5b505af11580156116dd573d6000803e3d6000fd5b5050604080516001600160a01b03808a168252851660208201527f46bd56f98e1b14fd35691959270a6e1edf7cb8fcd489e0f9dda89e46c0d1ff0d935001905060405180910390a150505050505050565b600080808061173f85870187612a86565b929650909450925090506001600160a01b038416158061176657506001600160a01b038216155b156117845760405163d92e233d60e01b815260040160405180910390fd5b6001600160a01b03808516600090815261012d60205260409020546111c39186911685858561201e565b6117b661082d565b6097805460ff191660011790557f62e78cea01bee320cd4e420270b5ea74000d11b0c9f74754ebdbfc544b05a2586115253390565b600054610100900460ff166108785760405162461bcd60e51b815260040161086f90612ad7565b600054610100900460ff166118395760405162461bcd60e51b815260040161086f90612ad7565b610878612251565b600054610100900460ff166118685760405162461bcd60e51b815260040161086f90612ad7565b610878612284565b6000763d602d80600a3d3981f3363d3d373d3d3d363d730000008360601b60e81c176000526e5af43d82803e903d91602b57fd5bf38360781b1760205281603760096000f590506001600160a01b0381166108ab5760405162461bcd60e51b815260206004820152601760248201527f455243313136373a2063726561746532206661696c6564000000000000000000604482015260640161086f565b6119178282610cf5565b6109f057611924816122ab565b61192f8360206122bd565b604051602001611940929190612b22565b60408051601f198184030181529082905262461bcd60e51b825261086f91600401612b97565b600260fb54036119b85760405162461bcd60e51b815260206004820152601f60248201527f5265656e7472616e637947756172643a207265656e7472616e742063616c6c00604482015260640161086f565b600260fb55565b6000813410156119e25760405163044044a560e21b815260040160405180910390fd5b5050610130546001600160a01b031690565b600080611a018347612baa565b610132546040516323b872dd60e01b8152336004820152306024820152604481018690529192506001600160a01b03169081906323b872dd906064016020604051808303816000875af1925050508015611a78575060408051601f3d908101601f19168201909252611a7591810190612bbd565b60015b611a95576040516395047e5b60e01b815260040160405180910390fd5b80611ab3576040516395047e5b60e01b815260040160405180910390fd5b50604051632e1a7d4d60e01b8152600481018590526001600160a01b03821690632e1a7d4d90602401600060405180830381600087803b158015611af657600080fd5b505af1158015611b0a573d6000803e3d6000fd5b50505050814714611b3757604051637244981560e11b81524760048201526024810183905260440161086f565b5050610130546001600160a01b031692915050565b61013154604051632770a7eb60e21b8152336004820152602481018390526000916001600160a01b031690639dc29fac906044016020604051808303816000875af1925050508015611bbb575060408051601f3d908101601f19168201909252611bb891810190612bbd565b60015b611bd857604051631bc5aabf60e21b815260040160405180910390fd5b80611bf657604051631bc5aabf60e21b815260040160405180910390fd5b5050610eee919050565b6000826001600160a01b03163b600003611c2d576040516323ed03c160e01b815260040160405180910390fd5b6000836001600160a01b0316631f2d00656040518163ffffffff1660e01b8152600401602060405180830381865afa158015611c6d573d6000803e3d6000fd5b505050506040513d601f19601f82011682018060405250810190611c919190612bdf565b90506001600160a01b038116611cba57604051634aa5ba3d60e11b815260040160405180910390fd5b6001600160a01b03818116600090815261012d6020526040902054811690851614611cf857604051633a3c22ef60e11b815260040160405180910390fd5b306001600160a01b0316846001600160a01b031663e78cea926040518163ffffffff1660e01b8152600401602060405180830381865afa158015611d40573d6000803e3d6000fd5b505050506040513d601f19601f82011682018060405250810190611d649190612bdf565b6001600160a01b031614611d8b5760405163356be02f60e21b815260040160405180910390fd5b604051632770a7eb60e21b8152336004820152602481018490526001600160a01b03851690639dc29fac906044016020604051808303816000875af1925050508015611df4575060408051601f3d908101601f19168201909252611df191810190612bbd565b60015b611e1157604051631bc5aabf60e21b815260040160405180910390fd5b80611e2f57604051631bc5aabf60e21b815260040160405180910390fd5b505b9392505050565b610ffe196001600160a01b03851601611ea757816001600160a01b0316836001600160a01b0316866001600160a01b03167f3e4d9c687d8d20e243edc9ad6a15250d794842c784344c271b3ed94ae88f076584604051611e9a91815260200190565b60405180910390a4611fc7565b610132546001600160a01b0390811690851603611f0d57816001600160a01b0316836001600160a01b0316866001600160a01b03167f01f445551c40ec1a713933e4fac6d7781f367bce8e456b301bf2029aa3033d7784604051611e9a91815260200190565b610131546001600160a01b0390811690851603611f7657816001600160a01b0316836001600160a01b03167fc90fe32d7d4db065e2824f5cfd3ea5a1d07f2c233a7a6580e9abb4300a0f905b83604051611f6991815260200190565b60405180910390a3611fc7565b604080516001600160a01b038581168252602082018490528085169287821692918916917f551b24e30eba08b2d4d57d1c6345eb47e4c49327402afff270e6591af43cc00091015b60405180910390a45b5050505050565b600160fb55565b60975460ff166108785760405162461bcd60e51b815260206004820152601460248201527314185d5cd8589b194e881b9bdd081c185d5cd95960621b604482015260640161086f565b610130546001600160a01b03908116908616036120af57804710156120565760405163c7532eaf60e01b815260040160405180910390fd5b6120608282612459565b816001600160a01b0316836001600160a01b0316866001600160a01b03167f8294ebca1c2aada95b98b62a8d705ba5d7be4bdb75901d3f0eeb35062b706c7984604051611e9a91815260200190565b6001600160a01b0384166120d657604051633a3c22ef60e11b815260040160405180910390fd5b836001600160a01b03163b600003612101576040516323ed03c160e01b815260040160405180910390fd5b6040516340c10f1960e01b81526001600160a01b038381166004830152602482018390528516906340c10f19906044016020604051808303816000875af192505050801561216c575060408051601f3d908101601f1916820190925261216991810190612bbd565b60015b6121885760405162ec6f7b60e31b815260040160405180910390fd5b806121a55760405162ec6f7b60e31b815260040160405180910390fd5b50610eed196001600160a01b0386160161220557604080516001600160a01b038581168252602082018490528085169287821692918916917fd1b4e24e81f1c901551420568a9447fd105593af143ae8b096c6385e4fb7ec869101611e9a565b604080516001600160a01b038581168252602082018490528085169287821692918916917f3207f1f801a6ba9b6005cb9dc97d8498df3407dc7b1c7a644c7b57997f4f03c59101611fbe565b600054610100900460ff166122785760405162461bcd60e51b815260040161086f90612ad7565b6097805460ff19169055565b600054610100900460ff16611fce5760405162461bcd60e51b815260040161086f90612ad7565b60606108ab6001600160a01b03831660145b606060006122cc836002612bfc565b6122d7906002612baa565b67ffffffffffffffff8111156122ef576122ef612706565b6040519080825280601f01601f191660200182016040528015612319576020820181803683370190505b509050600360fc1b8160008151811061233457612334612c13565b60200101906001600160f81b031916908160001a905350600f60fb1b8160018151811061236357612363612c13565b60200101906001600160f81b031916908160001a9053506000612387846002612bfc565b612392906001612baa565b90505b600181111561240a576f181899199a1a9b1b9c1cb0b131b232b360811b85600f16601081106123c6576123c6612c13565b1a60f81b8282815181106123dc576123dc612c13565b60200101906001600160f81b031916908160001a90535060049490941c9361240381612c29565b9050612395565b508315611e315760405162461bcd60e51b815260206004820181905260248201527f537472696e67733a20686578206c656e67746820696e73756666696369656e74604482015260640161086f565b804710156124a95760405162461bcd60e51b815260206004820152601d60248201527f416464726573733a20696e73756666696369656e742062616c616e6365000000604482015260640161086f565b6000826001600160a01b03168260405160006040518083038185875af1925050503d80600081146124f6576040519150601f19603f3d011682016040523d82523d6000602084013e6124fb565b606091505b5050905080610a315760405162461bcd60e51b815260206004820152603a60248201527f416464726573733a20756e61626c6520746f2073656e642076616c75652c207260448201527f6563697069656e74206d61792068617665207265766572746564000000000000606482015260840161086f565b60006020828403121561258457600080fd5b81356001600160e01b031981168114611e3157600080fd5b6001600160a01b0381168114610af357600080fd5b80356125bc8161259c565b919050565b6000602082840312156125d357600080fd5b8135611e318161259c565b6000602082840312156125f057600080fd5b5035919050565b6000806040838503121561260a57600080fd5b82356126158161259c565b946020939093013593505050565b6000806040838503121561263657600080fd5b8235915060208301356126488161259c565b809150509250929050565b6000806020838503121561266657600080fd5b823567ffffffffffffffff8082111561267e57600080fd5b818501915085601f83011261269257600080fd5b8135818111156126a157600080fd5b8660208285010111156126b357600080fd5b60209290920196919550909350505050565b6000806000606084860312156126da57600080fd5b83356126e58161259c565b925060208401356126f58161259c565b929592945050506040919091013590565b634e487b7160e01b600052604160045260246000fd5b60405160c0810167ffffffffffffffff8111828210171561273f5761273f612706565b60405290565b600080600080600085870361014081121561275f57600080fd5b60c081121561276d57600080fd5b5061277661271c565b86356127818161259c565b815260208701356127918161259c565b602082015260408701356127a48161259c565b604082015260608701356127b78161259c565b606082015260808701356127ca8161259c565b608082015260a08701356127dd8161259c565b60a082015294506127f060c087016125b1565b93506127fe60e087016125b1565b925061280d61010087016125b1565b915061281c61012087016125b1565b90509295509295909350565b6000808585111561283857600080fd5b8386111561284557600080fd5b5050820193919092039150565b803560208310156108ab57600019602084900360031b1b1692915050565b634e487b7160e01b600052601160045260246000fd5b818103818111156108ab576108ab612870565b60005b838110156128b457818101518382015260200161289c565b50506000910152565b600081518084526128d5816020860160208601612899565b601f01601f19169290920160200192915050565b6040815260006128fc60408301856128bd565b905060018060a01b03831660208301529392505050565b600082601f83011261292457600080fd5b813567ffffffffffffffff8082111561293f5761293f612706565b604051601f8301601f19908116603f0116810190828211818310171561296757612967612706565b8160405283815286602085880101111561298057600080fd5b836020870160208301376000602085830101528094505050505092915050565b600080600080600060a086880312156129b857600080fd5b8535945060208601356129ca8161259c565b9350604086013567ffffffffffffffff808211156129e757600080fd5b6129f389838a01612913565b94506060880135915080821115612a0957600080fd5b50612a1688828901612913565b925050608086013560ff81168114612a2d57600080fd5b809150509295509295909350565b6001600160a01b0385168152608060208201819052600090612a5f908301866128bd565b8281036040840152612a7181866128bd565b91505060ff8316606083015295945050505050565b60008060008060808587031215612a9c57600080fd5b8435612aa78161259c565b93506020850135612ab78161259c565b92506040850135612ac78161259c565b9396929550929360600135925050565b6020808252602b908201527f496e697469616c697a61626c653a20636f6e7472616374206973206e6f74206960408201526a6e697469616c697a696e6760a81b606082015260800190565b7f416363657373436f6e74726f6c3a206163636f756e7420000000000000000000815260008351612b5a816017850160208801612899565b7001034b99036b4b9b9b4b733903937b6329607d1b6017918401918201528351612b8b816028840160208801612899565b01602801949350505050565b602081526000611e3160208301846128bd565b808201808211156108ab576108ab612870565b600060208284031215612bcf57600080fd5b81518015158114611e3157600080fd5b600060208284031215612bf157600080fd5b8151611e318161259c565b80820281158282048414176108ab576108ab612870565b634e487b7160e01b600052603260045260246000fd5b600081612c3857612c38612870565b50600019019056fea6d0b532cacea090bc411482cd491720e2eac14d48ce5d0402b8851e0bb2aec10c91b50b605fcbfb31133354bdc6661ee7d4bee7add1ae6c16ec4a6cca22f7f882b32d9ab5100db08aeb9a0e08b422d14851ec118736590462bf9c085a6e9448539440820030c4994db4e31b6b800deafd503688728f932addfe7a410515c14ca2646970667358221220c974d5b6e113d5675052bb48427a2aef5f5b0b6906f806a7388189571fa76ba564736f6c6343000813003360a06040523480156200001157600080fd5b506040516200453038038062004530833981016040819052620000349162000070565b806001600160a01b0381166200005d5760405163d92e233d60e01b815260040160405180910390fd5b6001600160a01b031660805250620000a2565b6000602082840312156200008357600080fd5b81516001600160a01b03811681146200009b57600080fd5b9392505050565b60805161446b620000c560003960008181610a7301526119d1015261446b6000f3fe60806040526004361061039b5760003560e01c80638456cb59116101dc578063d2c13da511610102578063dee1ef0d116100a0578063f4a120f71161006f578063f4a120f714610b41578063f645125514610b54578063f865af0814610b88578063fb1bb9de14610ba857600080fd5b8063dee1ef0d14610ad8578063e041043214610af9578063e63ab1e914610b0c578063f213159c14610b2e57600080fd5b8063d68d5fd6116100dc578063d68d5fd614610a41578063d6dc0b0d14610a61578063d837671614610a95578063da51c71e14610ab657600080fd5b8063d2c13da5146109cd578063d41f1771146109ed578063d547741f14610a2157600080fd5b8063a217fddf1161017a578063af8bbb5e11610149578063af8bbb5e14610943578063b176806514610958578063b68ad1e41461098c578063c880d915146109ad57600080fd5b8063a217fddf14610734578063a6f72cb8146108f1578063a7ab69611461090c578063a8deae561461092357600080fd5b80638c956990116101b65780638c956990146108705780638f3a4e4f146108915780638f70121f146108b157806391d14854146108d157600080fd5b80638456cb591461080d57806384a3291a1461082257806389c65d411461085057600080fd5b80633a7a228e116102c15780636066ae871161025f5780637248c77c1161022e5780637248c77c146107695780637ab5e3ae146107895780637b1929b71461079f5780637efab4f5146107d657600080fd5b80636066ae87146106fd57806367e4e1891461071d57806368673a03146107345780636c11c21c1461074957600080fd5b8063499fa04b1161029b578063499fa04b146106915780635358fbda146106b25780635c975abb146106c55780635d3a22ab146106dd57600080fd5b80633a7a228e146106495780633f4ba83a1461066957806347e7ef241461067e57600080fd5b80632540e2da116103395780632f2ff15d116103085780632f2ff15d1461058657806332968782146105a657806336568abe146105c6578063366963ea146105e657600080fd5b80632540e2da146104ea57806326fe4fc31461050a57806328a6ff1e1461052c5780632bf839111461055957600080fd5b80630800dd27116103755780630800dd2714610456578063106d5726146104765780631657a6e514610497578063248a9ca3146104ac57600080fd5b8063011e1167146103d357806301ffc9a71461040657806307b2b7ad1461043657600080fd5b366103ce57610133546001600160a01b031633146103cc57604051630402506f60e01b815260040160405180910390fd5b005b600080fd5b3480156103df57600080fd5b506103e9610eee81565b6040516001600160a01b0390911681526020015b60405180910390f35b34801561041257600080fd5b506104266104213660046139ef565b610bca565b60405190151581526020016103fd565b34801561044257600080fd5b506103cc610451366004613a2e565b610c01565b34801561046257600080fd5b506103cc610471366004613afd565b610c28565b34801561048257600080fd5b5061012f546103e9906001600160a01b031681565b3480156104a357600080fd5b506103cc610d94565b3480156104b857600080fd5b506104dc6104c7366004613ba0565b60009081526065602052604090206001015490565b6040519081526020016103fd565b3480156104f657600080fd5b506103cc610505366004613a2e565b610db7565b34801561051657600080fd5b506104dc60008051602061441683398151915281565b34801561053857600080fd5b5061054c610547366004613c05565b610dda565b6040516103fd9190613c5a565b34801561056557600080fd5b50610579610574366004613cca565b610f9e565b6040516103fd9190613d1b565b34801561059257600080fd5b506103cc6105a1366004613d67565b611216565b3480156105b257600080fd5b506103cc6105c1366004613a2e565b611240565b3480156105d257600080fd5b506103cc6105e1366004613d67565b611263565b3480156105f257600080fd5b50610629610601366004613a2e565b6101676020526000908152604090208054600182015460028301546003909301549192909184565b6040805194855260208501939093529183015260608201526080016103fd565b34801561065557600080fd5b506103cc610664366004613d97565b6112dd565b34801561067557600080fd5b506103cc611333565b6103cc61068c366004613d97565b611353565b34801561069d57600080fd5b5061012e546103e9906001600160a01b031681565b6103cc6106c0366004613ba0565b61135e565b3480156106d157600080fd5b5060975460ff16610426565b3480156106e957600080fd5b506103cc6106f8366004613dc3565b611368565b34801561070957600080fd5b506103cc610718366004613a2e565b611469565b34801561072957600080fd5b506104dc6101345481565b34801561074057600080fd5b506104dc600081565b34801561075557600080fd5b506103cc610764366004613a2e565b61148c565b34801561077557600080fd5b506103cc610784366004613e28565b6114af565b34801561079557600080fd5b506103e9610fff81565b3480156107ab57600080fd5b506104dc6107ba366004613a2e565b6001600160a01b0316600090815261019b602052604090205490565b3480156107e257600080fd5b506103e96107f1366004613a2e565b61012d602052600090815260409020546001600160a01b031681565b34801561081957600080fd5b506103cc6115f5565b34801561082e57600080fd5b506104dc61083d366004613a2e565b6101cf6020526000908152604090205481565b34801561085c57600080fd5b506103cc61086b366004613a2e565b611615565b34801561087c57600080fd5b50610131546103e9906001600160a01b031681565b34801561089d57600080fd5b506103cc6108ac366004613e9a565b611638565b3480156108bd57600080fd5b506103cc6108cc366004613a2e565b611705565b3480156108dd57600080fd5b506104266108ec366004613d67565b611728565b3480156108fd57600080fd5b50610168546104269060ff1681565b34801561091857600080fd5b506104dc61019c5481565b34801561092f57600080fd5b506103cc61093e366004613a2e565b611753565b34801561094f57600080fd5b506103cc6117fe565b34801561096457600080fd5b506104dc7f7a8dc26796a1e50e6e190b70259f58f6a4edd5b22280ceecc82b687b8e98286981565b34801561099857600080fd5b50610130546103e9906001600160a01b031681565b3480156109b957600080fd5b506103cc6109c8366004613ed5565b61181e565b3480156109d957600080fd5b506103cc6109e8366004613ba0565b611837565b3480156109f957600080fd5b506104dc7f87a7811f4bfedea3d341ad165680ae306b01aaeacc205d227629cf157dd9f82181565b348015610a2d57600080fd5b506103cc610a3c366004613d67565b611858565b348015610a4d57600080fd5b506103cc610a5c366004613ba0565b61187d565b348015610a6d57600080fd5b506103e97f000000000000000000000000000000000000000000000000000000000000000081565b348015610aa157600080fd5b50610133546103e9906001600160a01b031681565b348015610ac257600080fd5b506104dc60008051602061439683398151915281565b348015610ae457600080fd5b50610132546103e9906001600160a01b031681565b6103cc610b07366004613d97565b611971565b348015610b1857600080fd5b506104dc6000805160206143d683398151915281565b6103cc610b3c366004613f65565b61197b565b6103e9610b4f366004613a2e565b611986565b348015610b6057600080fd5b506104dc7f2cef46a936bdc5b7e6e8c71aa04560c41cf7d88bb26901a7e7f4936ff02accad81565b348015610b9457600080fd5b506103cc610ba3366004613a2e565b611999565b348015610bb457600080fd5b506104dc6000805160206143b683398151915281565b60006001600160e01b03198216637965db0b60e01b1480610bfb57506301ffc9a760e01b6001600160e01b03198316145b92915050565b6000610c0c816119bc565b610c2460008051602061441683398151915283611216565b5050565b600054610100900460ff1615808015610c485750600054600160ff909116105b80610c625750303b158015610c62575060005460ff166001145b610cca5760405162461bcd60e51b815260206004820152602e60248201527f496e697469616c697a61626c653a20636f6e747261637420697320616c72656160448201526d191e481a5b9a5d1a585b1a5e995960921b60648201526084015b60405180910390fd5b6000805460ff191660011790558015610ced576000805461ff0019166101001790555b6001600160a01b038216610d145760405163d92e233d60e01b815260040160405180910390fd5b610d23898989898989896119c6565b610d2b611cb1565b610d436000805160206143f683398151915283611cbf565b8015610d89576000805461ff0019169055604051600181527f7f26b83ff96e1f2b6a682f133852f6798a09c465da95921460cefb38474024989060200160405180910390a15b505050505050505050565b6000805160206143f6833981519152610dac816119bc565b610db4611d45565b50565b6000610dc2816119bc565b610c246000805160206143b683398151915283611858565b6001600160a01b038316600090815261019b602052604090208054606091908367ffffffffffffffff811115610e1257610e12613a4b565b604051908082528060200260200182016040528015610e6457816020015b604080516080810182526000808252602080830182905292820181905260608201528252600019909201910181610e305790505b50925060005b8351811015610f945781868683818110610e8657610e86613fa6565b9050602002013510610eeb57604051806080016040528060006001600160a01b0316815260200160006001600160a01b03168152602001600081526020016000815250848281518110610edb57610edb613fa6565b6020026020010181905250610f82565b82868683818110610efe57610efe613fa6565b9050602002013581548110610f1557610f15613fa6565b600091825260209182902060408051608081018252600490930290910180546001600160a01b0390811684526001820154169383019390935260028301549082015260039091015460608201528451859083908110610f7657610f76613fa6565b60200260200101819052505b80610f8c81613fd2565b915050610e6a565b5050509392505050565b6001600160a01b038516600090815261019b602052604090206060908267ffffffffffffffff811115610fd357610fd3613a4b565b60405190808252806020026020018201604052801561102857816020015b61101560405180606001604052806000815260200160008152602001600081525090565b815260200190600190039081610ff15790505b5091506000808280549050861161103f5785611042565b82545b9050865b818110801561105457508583105b1561113657886001600160a01b031684828154811061107557611075613fa6565b60009182526020909120600160049092020101546001600160a01b0316036111245760405180606001604052808281526020018583815481106110ba576110ba613fa6565b90600052602060002090600402016002015481526020018583815481106110e3576110e3613fa6565b90600052602060002090600402016003015481525085848151811061110a5761110a613fa6565b6020026020010181905250828061112090613fd2565b9350505b8061112e81613fd2565b915050611046565b5084821461120a5760008267ffffffffffffffff81111561115957611159613a4b565b6040519080825280602002602001820160405280156111ae57816020015b61119b60405180606001604052806000815260200160008152602001600081525090565b8152602001906001900390816111775790505b50905060005b83811015611206578581815181106111ce576111ce613fa6565b60200260200101518282815181106111e8576111e8613fa6565b602002602001018190525080806111fe90613fd2565b9150506111b4565b5093505b50505095945050505050565b600082815260656020526040902060010154611231816119bc565b61123b8383611cbf565b505050565b600061124b816119bc565b610c246000805160206143b683398151915283611216565b6001600160a01b03811633146112d35760405162461bcd60e51b815260206004820152602f60248201527f416363657373436f6e74726f6c3a2063616e206f6e6c792072656e6f756e636560448201526e103937b632b9903337b91039b2b63360891b6064820152608401610cc1565b610c248282611d86565b6112e5611ded565b60008060006112f48585611e46565b6001600160a01b03808316600090815261012d60205260409020549396509194509250166113258382868986611ff7565b50505050610c24600160fb55565b6000805160206143b683398151915261134b816119bc565b610db46120e2565b610c2482338361212f565b610db4338261215b565b611370611ded565b6000819003611392576040516318301aa760e01b815260040160405180910390fd5b60008060005b8381101561142c576000806113c5898888868181106113b9576113b9613fa6565b90506020020135611e46565b919550925090506001600160a01b038083169089161461140b57604051632469ee5360e01b81526001600160a01b03808a16600483015283166024820152604401610cc1565b6114158186613feb565b94505050808061142490613fd2565b915050611398565b506001600160a01b03808616600090815261012d6020526040902054166114568682848a87611ff7565b505050611463600160fb55565b50505050565b6000611474816119bc565b610c2460008051602061441683398151915283611858565b6000611497816119bc565b610c246000805160206143d683398151915283611216565b6114b76121ca565b61012e546001600160a01b031633146114e35760405163122d54c760e11b815260040160405180910390fd5b602081116115255760405163180a097760e01b815260206004820152600e60248201526d11185d18481d1bdbc81cda1bdc9d60921b6044820152606401610cc1565b7f7a8dc26796a1e50e6e190b70259f58f6a4edd5b22280ceecc82b687b8e982869611554602060008486613ffe565b61155d91614028565b036115ac57610c246115728260208186613ffe565b8080601f01602080910402602001604051908101604052809392919081815260200183838082843760009201919091525061221092505050565b60405163180a097760e01b815260206004820152601c60248201527f556e737570706f7274656420616374696f6e207369676e6174757265000000006044820152606401610cc1565b6000805160206143d683398151915261160d816119bc565b610db461230f565b6000611620816119bc565b610c2460008051602061439683398151915283611858565b6000805160206143f6833981519152611650816119bc565b6001600160a01b03851660009081526101676020908152604080832080546003909101546101cf90935292205461168888888861234c565b6001600160a01b03881660008181526101cf602090815260409182902088905581518a8152908101899052908101879052606081018590526080810184905260a081018390527f300bef0f21f43f60e0c1798e3095fc7583e6832358453bef5e5af765a7b53e3d9060c00160405180910390a25050505050505050565b6000611710816119bc565b610c2460008051602061439683398151915283611216565b60009182526065602090815260408084206001600160a01b0393909316845291905290205460ff1690565b60008051602061439683398151915261176b816119bc565b6001600160a01b0382166117925760405163d92e233d60e01b815260040160405180910390fd5b61012e54604080516001600160a01b03928316815291841660208301527f9f505d2f223df1f36d2bbc40c8817da20509a9722f3fc09d005bb9d5df154210910160405180910390a15061012e80546001600160a01b0319166001600160a01b0392909216919091179055565b6000805160206143f6833981519152611816816119bc565b610db46123eb565b60405163f0e2219760e01b815260040160405180910390fd5b6000805160206143f683398151915261184f816119bc565b610c2482612429565b600082815260656020526040902060010154611873816119bc565b61123b8383611d86565b600080516020614416833981519152611895816119bc565b811580159061190f5750610131546040516370a0823160e01b81523060048201526001600160a01b03909116906370a0823190602401602060405180830381865afa1580156118e8573d6000803e3d6000fd5b505050506040513d601f19601f8201168201806040525081019061190c9190614046565b82105b1561192d576040516308c4bd0b60e11b815260040160405180910390fd5b6101345460408051918252602082018490527f20f79e1e156e9d4acad9184b2d8283c178ddb9638463180bf2176285b77ab76b910160405180910390a15061013455565b610c24828261215b565b61123b83838361212f565b60006119906121ca565b610bfb8261246f565b60006119a4816119bc565b610c246000805160206143d683398151915283611858565b610db48133612711565b336001600160a01b037f00000000000000000000000000000000000000000000000000000000000000001614611a0f57604051630d622feb60e01b815260040160405180910390fd5b6001600160a01b0386161580611a2c57506001600160a01b038516155b80611a3e57506001600160a01b038416155b80611a5057506001600160a01b038316155b80611a6257506001600160a01b038216155b80611a75575086516001600160a01b0316155b80611a8b575060208701516001600160a01b0316155b80611aa1575060408701516001600160a01b0316155b80611ab7575060608701516001600160a01b0316155b80611acd575060808701516001600160a01b0316155b15611aeb5760405163d92e233d60e01b815260040160405180910390fd5b611af361276a565b611afb612791565b611b036127c0565b8651611b1190600090611cbf565b611b2d6000805160206143d68339815191528860200151611cbf565b611b496000805160206143b68339815191528860400151611cbf565b611b656000805160206144168339815191528860600151611cbf565b611b816000805160206143968339815191528860800151611cbf565b61012f80546001600160a01b038781166001600160a01b03199283161790925561013080548784169083168117909155610131805487851690841617905561013380549386169390921692909217905560405161077760611b6020820152611c11919060340160408051601f19818403018152919052805160209091012061012f546001600160a01b03166127ef565b61013280546001600160a01b03199081166001600160a01b039384161790915561012e805482169883169890981790975561013491909155610131548116600081815261012d602052604080822080548a169093179092557fad76b4044bfa734d1658e7587c3fd33991772c4284f450d12a829695b2e0bd048054610eee908a168117909155610133549093168152208054909616179094555050505050565b611cbd62015180612429565b565b611cc98282611728565b610c245760008281526065602090815260408083206001600160a01b03851684529091529020805460ff19166001179055611d013390565b6001600160a01b0316816001600160a01b0316837f2f8788117e7eff1d82e926ec794901d17c78024a50270940304540a733656f0d60405160405180910390a45050565b610168805460ff191690556040513381527fca830263c7c51a7fd39e6424d29d9e7a11ce1250e908ee0763c2c921d7a3022b906020015b60405180910390a1565b611d908282611728565b15610c245760008281526065602090815260408083206001600160a01b0385168085529252808320805460ff1916905551339285917ff6391f5c32d9c69d2a47ea670b442974b53935d1edc7fd64eb21e047a839171b9190a45050565b600260fb5403611e3f5760405162461bcd60e51b815260206004820152601f60248201527f5265656e7472616e637947756172643a207265656e7472616e742063616c6c006044820152606401610cc1565b600260fb55565b6001600160a01b038216600090815261019b60205260408120805482918291808610611e8f5760405163c0876ed360e01b81526004810182905260248101879052604401610cc1565b6000828781548110611ea357611ea3613fa6565b600091825260209091206004909102018054600182015460028301546001600160a01b039283169950911696509450905084611f045760405163373a67e760e21b81526001600160a01b038916600482015260248101889052604401610cc1565b600061019c548260030154611f199190613feb565b905080421015611f45576040516337c6546160e01b815242600482015260248101829052604401610cc1565b838881548110611f5757611f57613fa6565b60009182526020822060049091020180546001600160a01b03199081168255600182018054909116905560028101829055600301556040516001600160a01b038a811691898216918916907f3d7c245d695cceb19fe0fa394d673c860b810a04592fe5415e980c651bb81b9290611fe4908a9042908f909283526020830191909152604082015260600190565b60405180910390a4505050509250925092565b611fff6121ca565b610eed196001600160a01b038616016120705761201c828261284b565b604080516001600160a01b038581168252602082018490528085169290871691610eee917f4327909ba044fbe8b04a4d999929cd91a03b30ebfae467b54c16353a44660f43910160405180910390a46120d4565b6120846001600160a01b0386168383612964565b604080516001600160a01b038581168252602082018490528085169287821692918916917f6e90696e59c60d3ffd22a244d98b9d73dae6642f03b99cd4d3e5aa852121443b910160405180910390a45b5050505050565b600160fb55565b6120ea6129c7565b6097805460ff191690557f5db9ee0a495bf2e6ff9c91a7834c1ba4fdd244a5e8aa4e537bd38aeae4b073aa335b6040516001600160a01b039091168152602001611d7c565b610133546001600160a01b03908116908416036121505761123b8282612a10565b61123b838383612ad8565b8034101561217c5760405163044044a560e21b815260040160405180910390fd5b6000612188823461405f565b612192904761405f565b90506121a1610eee8484612c57565b80471461123b57604051637244981560e11b815247600482015260248101829052604401610cc1565b60975460ff1615611cbd5760405162461bcd60e51b815260206004820152601060248201526f14185d5cd8589b194e881c185d5cd95960821b6044820152606401610cc1565b600080600080600061222186612f06565b9450945094509450945060006122378683612fe0565b905060008161225f57506001600160a01b03861660009081526101cf60205260409020548210155b6101685460ff16818061226f5750825b806122775750805b156123025761228885878a876130fb565b846001600160a01b0316866001600160a01b0316896001600160a01b03167fbdca490c3df14c1d2a133e5b1e2300a5086f2ddc3f90d5dc9ad1d50287df574b878688876040516122f594939291909384529115156020840152151560408301521515606082015260800190565b60405180910390a4610d89565b610d898888888888611ff7565b6123176121ca565b6097805460ff191660011790557f62e78cea01bee320cd4e420270b5ea74000d11b0c9f74754ebdbfc544b05a2586121173390565b6001600160a01b0383166123735760405163c1ab6dc160e01b815260040160405180910390fd5b81600003612394576040516331278a8760e01b815260040160405180910390fd5b806000036123b557604051636cbcfbe360e11b815260040160405180910390fd5b6001600160a01b03831660009081526101676020526040812080549091036123df57600181018390555b91825560039091015550565b610168805460ff191660011790556040513381527fe6f871681d402a779a934141b5608fb6f3226c91b5fc9d24d93b7dc83e4aceb690602001611d7c565b61019c80549082905560408051838152602081018390527f9c3f1b54b1487e018f1d0593ff5cf7fb625b2df6332c974a6cc56bb358879841910160405180910390a15050565b60003460000361249257604051631d3e008d60e21b815260040160405180910390fd5b6001600160a01b0382166124b95760405163d92e233d60e01b815260040160405180910390fd5b610131546001600160a01b03908116908316036124e95760405163a9a43cf960e01b815260040160405180910390fd5b610eed196001600160a01b038316016125155760405163e9edc9b360e01b815260040160405180910390fd5b610133546001600160a01b0390811690831603612545576040516311eba7e360e01b815260040160405180910390fd5b6001600160a01b03828116600090815261012d6020526040902054161561257f57604051632a431ae760e11b815260040160405180910390fd5b61012f54610130546040516bffffffffffffffffffffffff19606086901b1660208201526001600160a01b03928316926000926125d89291169060340160405160208183030381529060405280519060200120846127ef565b6001600160a01b03858116600090815261012d6020526040812080546001600160a01b03191692841692909217909155909150808061261687613204565b92509250925060007f2cef46a936bdc5b7e6e8c71aa04560c41cf7d88bb26901a7e7f4936ff02accad888585856040516020016126579594939291906140c2565b60408051601f198184030181529082905261012e54637903aadd60e11b83529092506001600160a01b03169063f20755ba90349061269b9085903390600401614114565b6000604051808303818588803b1580156126b457600080fd5b505af11580156126c8573d6000803e3d6000fd5b50506040516001600160a01b03808a1694508c1692507fadbf4fee5f2ebdb59bcf27cd835d152ca7931a51cb921c5f8fdc43cf7c1f33049150600090a350929695505050505050565b61271b8282611728565b610c245761272881613390565b6127338360206133a2565b60405160200161274492919061413e565b60408051601f198184030181529082905262461bcd60e51b8252610cc1916004016141b3565b600054610100900460ff16611cbd5760405162461bcd60e51b8152600401610cc1906141c6565b600054610100900460ff166127b85760405162461bcd60e51b8152600401610cc1906141c6565b611cbd613545565b600054610100900460ff166127e75760405162461bcd60e51b8152600401610cc1906141c6565b611cbd613578565b60405160388101919091526f5af43d82803e903d91602b57fd5bf3ff60248201526014810192909252733d602d80600a3d3981f3363d3d373d3d3d363d73825260588201526037600c8201206078820152605560439091012090565b8047101561289b5760405162461bcd60e51b815260206004820152601d60248201527f416464726573733a20696e73756666696369656e742062616c616e63650000006044820152606401610cc1565b6000826001600160a01b03168260405160006040518083038185875af1925050503d80600081146128e8576040519150601f19603f3d011682016040523d82523d6000602084013e6128ed565b606091505b505090508061123b5760405162461bcd60e51b815260206004820152603a60248201527f416464726573733a20756e61626c6520746f2073656e642076616c75652c207260448201527f6563697069656e74206d617920686176652072657665727465640000000000006064820152608401610cc1565b6040516001600160a01b03831660248201526044810182905261123b90849063a9059cbb60e01b906064015b60408051601f198184030181529190526020810180516001600160e01b03166001600160e01b03199093169290921790915261359f565b60975460ff16611cbd5760405162461bcd60e51b815260206004820152601460248201527314185d5cd8589b194e881b9bdd081c185d5cd95960621b6044820152606401610cc1565b6000612a1c8247613feb565b610133549091506001600160a01b0316612a3881333086613674565b61013354604051632e1a7d4d60e01b8152600481018590526001600160a01b0390911690632e1a7d4d90602401600060405180830381600087803b158015612a7f57600080fd5b505af1158015612a93573d6000803e3d6000fd5b50505050814714612ac057604051637244981560e11b815247600482015260248101839052604401610cc1565b61013354611463906001600160a01b03168585612c57565b6040516370a0823160e01b815230600482015260009082906001600160a01b038616906370a0823190602401602060405180830381865afa158015612b21573d6000803e3d6000fd5b505050506040513d601f19601f82011682018060405250810190612b459190614046565b612b4f9190613feb565b9050612b5c848484612c57565b6040516370a0823160e01b815230600482015281906001600160a01b038616906370a0823190602401602060405180830381865afa158015612ba2573d6000803e3d6000fd5b505050506040513d601f19601f82011682018060405250810190612bc69190614046565b14611463576040516370a0823160e01b81523060048201526001600160a01b038516906370a0823190602401602060405180830381865afa158015612c0f573d6000803e3d6000fd5b505050506040513d601f19601f82011682018060405250810190612c339190614046565b604051637244981560e11b8152600481019190915260248101829052604401610cc1565b612c5f611ded565b612c676121ca565b6101315461013454849183916001600160a01b0391821691841682148015612c8e57508015155b15612d28576040516370a0823160e01b8152306004820152819084906001600160a01b038516906370a0823190602401602060405180830381865afa158015612cdb573d6000803e3d6000fd5b505050506040513d601f19601f82011682018060405250810190612cff9190614046565b612d099190613feb565b1115612d285760405163cf79cc9b60e01b815260040160405180910390fd5b6001600160a01b0386161580612d4557506001600160a01b038716155b15612d635760405163d92e233d60e01b815260040160405180910390fd5b84600003612d8457604051631f2a200560e01b815260040160405180910390fd5b34600003612da557604051631d3e008d60e21b815260040160405180910390fd5b6001600160a01b03878116600090815261012d602052604090205416612dde57604051633a3c22ef60e11b815260040160405180910390fd5b610133546000906001600160a01b03898116911614612dfd5787612e01565b610eee5b604080517f87a7811f4bfedea3d341ad165680ae306b01aaeacc205d227629cf157dd9f82160208201526001600160a01b03838116828401523360608301528a8116608083015260a08083018b90528351808403909101815260c09092019092529192506000908a16610eee14612e785734612e82565b612e82883461405f565b61012e54604051637903aadd60e11b81529192506001600160a01b03169063f20755ba908390612eb89086903390600401614114565b6000604051808303818588803b158015612ed157600080fd5b505af1158015612ee5573d6000803e3d6000fd5b5050505050612ef58a8a8a6136ac565b5050505050505061123b600160fb55565b600080600080600085806020019051810190612f229190614211565b929750909450925090506001600160a01b038516612f535760405163d92e233d60e01b815260040160405180910390fd5b610131546001600160a01b0390811690861603612f7457610fff9350612fd7565b610eed196001600160a01b03861601612f9b57610132546001600160a01b03169350612fd7565b6001600160a01b03808616600090815261012d602052604090205416935083612fd757604051633a3c22ef60e11b815260040160405180910390fd5b91939590929450565b6001600160a01b038216600090815261016760205260408120805480830361305057846001600160a01b03167f63455daddfcbe1b76f2cf1d25b17dc8d8b54805d19a0a33035f2a9fb6178bf7d8560405161303d91815260200190565b60405180910390a2600192505050610bfb565b60008260030154836002015442613067919061405f565b6130719190614264565b83600101546130809190613feb565b4260028501559050818111156130935750805b8085106130df576040517f93634b349f9e42d781ffd65b7052280b7d3dd517717c267d448441b4716884cd90600090a1610168805460ff191660019081179091556000908401556130ef565b6130e9858261405f565b60018401555b50600095945050505050565b6001600160a01b03821661312d576040516329f8b6ed60e01b81526001600160a01b0385166004820152602401610cc1565b604080516080810182526001600160a01b0385811680835285821660208085018281528587018881524260608089018281528e8916600081815261019b88528c8120805460018082018355918352918990208d51600484029091018054918e166001600160a01b03199283161781559851918901805492909d16911617909a55935160028601555160039094019390935588518a815293840152968201859052949593947fdc3ff1d1a171333fabe1d0df7590fc79fe74e95fbbfe8aefff8b8c8961f4e02a910160405180910390a4505050505050565b60608060006060846001600160a01b03166306fdde036040518163ffffffff1660e01b8152600401600060405180830381865afa92505050801561326a57506040513d6000823e601f3d908101601f19168201604052613267919081019061427b565b60015b61328757604051633dd1b30560e01b815260040160405180910390fd5b90506060856001600160a01b03166395d89b416040518163ffffffff1660e01b8152600401600060405180830381865afa9250505080156132ea57506040513d6000823e601f3d908101601f191682016040526132e7919081019061427b565b60015b61330757604051633dd1b30560e01b815260040160405180910390fd5b90506000866001600160a01b031663313ce5676040518163ffffffff1660e01b8152600401602060405180830381865afa925050508015613365575060408051601f3d908101601f191682019092526133629181019061431d565b60015b61338257604051633dd1b30560e01b815260040160405180910390fd5b929791965091945092505050565b6060610bfb6001600160a01b03831660145b606060006133b1836002614264565b6133bc906002613feb565b67ffffffffffffffff8111156133d4576133d4613a4b565b6040519080825280601f01601f1916602001820160405280156133fe576020820181803683370190505b509050600360fc1b8160008151811061341957613419613fa6565b60200101906001600160f81b031916908160001a905350600f60fb1b8160018151811061344857613448613fa6565b60200101906001600160f81b031916908160001a905350600061346c846002614264565b613477906001613feb565b90505b60018111156134ef576f181899199a1a9b1b9c1cb0b131b232b360811b85600f16601081106134ab576134ab613fa6565b1a60f81b8282815181106134c1576134c1613fa6565b60200101906001600160f81b031916908160001a90535060049490941c936134e881614340565b905061347a565b50831561353e5760405162461bcd60e51b815260206004820181905260248201527f537472696e67733a20686578206c656e67746820696e73756666696369656e746044820152606401610cc1565b9392505050565b600054610100900460ff1661356c5760405162461bcd60e51b8152600401610cc1906141c6565b6097805460ff19169055565b600054610100900460ff166120db5760405162461bcd60e51b8152600401610cc1906141c6565b60006135f4826040518060400160405280602081526020017f5361666545524332303a206c6f772d6c6576656c2063616c6c206661696c6564815250856001600160a01b031661385f9092919063ffffffff16565b90508051600014806136155750808060200190518101906136159190614357565b61123b5760405162461bcd60e51b815260206004820152602a60248201527f5361666545524332303a204552433230206f7065726174696f6e20646964206e6044820152691bdd081cdd58d8d9595960b21b6064820152608401610cc1565b6040516001600160a01b03808516602483015283166044820152606481018290526114639085906323b872dd60e01b90608401612990565b610eed196001600160a01b03841601613715576101325460408051338152602081018490526001600160a01b0385811693811692908716917fd1b4e24e81f1c901551420568a9447fd105593af143ae8b096c6385e4fb7ec8691015b60405180910390a4505050565b610133546001600160a01b0390811690841603613779576101325460408051338152602081018490526001600160a01b0385811693811692908716917fa88fe860ecdd7b9e7311676f780fe08f0ed96990b74319e26ad505932d36890f9101613708565b610131546001600160a01b03908116908416036137ee5760408051338152602081018390526001600160a01b0380851692908616917f8294ebca1c2aada95b98b62a8d705ba5d7be4bdb75901d3f0eeb35062b706c79910160405180910390a361123b6001600160a01b038416333084613674565b6001600160a01b03838116600081815261012d6020908152604091829020548251338152918201869052868516941692917f3207f1f801a6ba9b6005cb9dc97d8498df3407dc7b1c7a644c7b57997f4f03c5910160405180910390a461123b6001600160a01b038416333084613674565b606061386e8484600085613876565b949350505050565b6060824710156138d75760405162461bcd60e51b815260206004820152602660248201527f416464726573733a20696e73756666696369656e742062616c616e636520666f6044820152651c8818d85b1b60d21b6064820152608401610cc1565b600080866001600160a01b031685876040516138f39190614379565b60006040518083038185875af1925050503d8060008114613930576040519150601f19603f3d011682016040523d82523d6000602084013e613935565b606091505b509150915061394687838387613951565b979650505050505050565b606083156139c05782516000036139b9576001600160a01b0385163b6139b95760405162461bcd60e51b815260206004820152601d60248201527f416464726573733a2063616c6c20746f206e6f6e2d636f6e74726163740000006044820152606401610cc1565b508161386e565b61386e83838151156139d55781518083602001fd5b8060405162461bcd60e51b8152600401610cc191906141b3565b600060208284031215613a0157600080fd5b81356001600160e01b03198116811461353e57600080fd5b6001600160a01b0381168114610db457600080fd5b600060208284031215613a4057600080fd5b813561353e81613a19565b634e487b7160e01b600052604160045260246000fd5b600060a08284031215613a7357600080fd5b60405160a0810181811067ffffffffffffffff82111715613a9657613a96613a4b565b6040529050808235613aa781613a19565b81526020830135613ab781613a19565b60208201526040830135613aca81613a19565b60408201526060830135613add81613a19565b60608201526080830135613af081613a19565b6080919091015292915050565b600080600080600080600080610180898b031215613b1a57600080fd5b613b248a8a613a61565b975060a0890135613b3481613a19565b965060c0890135613b4481613a19565b955060e0890135613b5481613a19565b9450610100890135613b6581613a19565b9350610120890135613b7681613a19565b92506101408901359150610160890135613b8f81613a19565b809150509295985092959890939650565b600060208284031215613bb257600080fd5b5035919050565b60008083601f840112613bcb57600080fd5b50813567ffffffffffffffff811115613be357600080fd5b6020830191508360208260051b8501011115613bfe57600080fd5b9250929050565b600080600060408486031215613c1a57600080fd5b8335613c2581613a19565b9250602084013567ffffffffffffffff811115613c4157600080fd5b613c4d86828701613bb9565b9497909650939450505050565b602080825282518282018190526000919060409081850190868401855b82811015613cbd57815180516001600160a01b03908116865287820151168786015285810151868601526060908101519085015260809093019290850190600101613c77565b5091979650505050505050565b600080600080600060a08688031215613ce257600080fd5b8535613ced81613a19565b94506020860135613cfd81613a19565b94979496505050506040830135926060810135926080909101359150565b602080825282518282018190526000919060409081850190868401855b82811015613cbd5781518051855286810151878601528501518585015260609093019290850190600101613d38565b60008060408385031215613d7a57600080fd5b823591506020830135613d8c81613a19565b809150509250929050565b60008060408385031215613daa57600080fd5b8235613db581613a19565b946020939093013593505050565b60008060008060608587031215613dd957600080fd5b8435613de481613a19565b93506020850135613df481613a19565b9250604085013567ffffffffffffffff811115613e1057600080fd5b613e1c87828801613bb9565b95989497509550505050565b60008060208385031215613e3b57600080fd5b823567ffffffffffffffff80821115613e5357600080fd5b818501915085601f830112613e6757600080fd5b813581811115613e7657600080fd5b866020828501011115613e8857600080fd5b60209290920196919550909350505050565b60008060008060808587031215613eb057600080fd5b8435613ebb81613a19565b966020860135965060408601359560600135945092505050565b6000806000806000806000610160888a031215613ef157600080fd5b613efb8989613a61565b965060a0880135613f0b81613a19565b955060c0880135613f1b81613a19565b945060e0880135613f2b81613a19565b9350610100880135613f3c81613a19565b9250610120880135613f4d81613a19565b80925050610140880135905092959891949750929550565b600080600060608486031215613f7a57600080fd5b8335613f8581613a19565b92506020840135613f9581613a19565b929592945050506040919091013590565b634e487b7160e01b600052603260045260246000fd5b634e487b7160e01b600052601160045260246000fd5b600060018201613fe457613fe4613fbc565b5060010190565b80820180821115610bfb57610bfb613fbc565b6000808585111561400e57600080fd5b8386111561401b57600080fd5b5050820193919092039150565b80356020831015610bfb57600019602084900360031b1b1692915050565b60006020828403121561405857600080fd5b5051919050565b81810381811115610bfb57610bfb613fbc565b60005b8381101561408d578181015183820152602001614075565b50506000910152565b600081518084526140ae816020860160208601614072565b601f01601f19169290920160200192915050565b8581526001600160a01b038516602082015260a0604082018190526000906140ec90830186614096565b82810360608401526140fe8186614096565b91505060ff831660808301529695505050505050565b6040815260006141276040830185614096565b905060018060a01b03831660208301529392505050565b7f416363657373436f6e74726f6c3a206163636f756e7420000000000000000000815260008351614176816017850160208801614072565b7001034b99036b4b9b9b4b733903937b6329607d1b60179184019182015283516141a7816028840160208801614072565b01602801949350505050565b60208152600061353e6020830184614096565b6020808252602b908201527f496e697469616c697a61626c653a20636f6e7472616374206973206e6f74206960408201526a6e697469616c697a696e6760a81b606082015260800190565b6000806000806080858703121561422757600080fd5b845161423281613a19565b602086015190945061424381613a19565b604086015190935061425481613a19565b6060959095015193969295505050565b8082028115828204841417610bfb57610bfb613fbc565b60006020828403121561428d57600080fd5b815167ffffffffffffffff808211156142a557600080fd5b818401915084601f8301126142b957600080fd5b8151818111156142cb576142cb613a4b565b604051601f8201601f19908116603f011681019083821181831017156142f3576142f3613a4b565b8160405282815287602084870101111561430c57600080fd5b613946836020830160208801614072565b60006020828403121561432f57600080fd5b815160ff8116811461353e57600080fd5b60008161434f5761434f613fbc565b506000190190565b60006020828403121561436957600080fd5b8151801515811461353e57600080fd5b6000825161438b818460208701614072565b919091019291505056fea6d0b532cacea090bc411482cd491720e2eac14d48ce5d0402b8851e0bb2aec182b32d9ab5100db08aeb9a0e08b422d14851ec118736590462bf9c085a6e9448539440820030c4994db4e31b6b800deafd503688728f932addfe7a410515c14cdcd3beafca8a1012a37a08a8968959a8e9278fafc576974c99735b24d5d8ae0f5b94a8cd68affa84315f488cc2e6e456f761d334859cae8a073ef8fe13fb0ee6a26469706673582212200c4cb60439b14da3ff7f118d7fb7d44acf9dd8c5bcc459d5a7d7dd6cb1a9ad0364736f6c63430008130033","linkReferences":{}},"methodIdentifiers":{"fuzz_activateWithdrawalQueue()":"9cc395f9","fuzz_deactivateWithdrawalQueue()":"e0c3eefd","fuzz_deposit(uint8,uint256,uint256)":"1cd507fc","fuzz_depositETH(uint256,uint256)":"1b2c083b","fuzz_depositTo(uint8,uint8,uint256,uint256)":"573e2fb1","fuzz_depositToETH(uint8,uint256,uint256)":"9f695339","fuzz_finaliseQueuedWithdrawal(uint8,uint256)":"24c88a0c","fuzz_finaliseQueuedWithdrawalsAggregated(uint8,uint8,uint256,uint256)":"abd75ae4","fuzz_onMessageReceiveChild(bool,uint8,uint8,uint8,uint256)":"8d08c8a3","fuzz_onMessageReceiveRoot(bool,uint8,uint8,uint8,uint256)":"f2dee55f","fuzz_pauseChild()":"9bb78ae0","fuzz_pauseRoot()":"530afc86","fuzz_setRateControlThreshold(uint8,uint256,uint256,uint256)":"678c58ff","fuzz_setWithdrawalDelay(uint256)":"e76cb13f","fuzz_unpauseChild()":"52bf94d8","fuzz_unpauseRoot()":"fc6b5fd6","fuzz_updateImxCumulativeDepositLimit(uint256)":"87465114","fuzz_withdraw(uint8,uint256,uint256)":"42a4e325","fuzz_withdrawETH(uint256,uint256)":"407504b3","fuzz_withdrawETHTo(uint8,uint256,uint256)":"ec1dbd09","fuzz_withdrawIMX(uint256,uint256)":"37ee3f3e","fuzz_withdrawIMXTo(uint8,uint256,uint256)":"79dd9f2b","fuzz_withdrawTo(uint8,uint8,uint256,uint256)":"f2ff2dd6","fuzz_withdrawWIMX(uint256,uint256)":"d5a651f3","fuzz_withdrawWIMXTo(uint8,uint256,uint256)":"c50847fb","handler_activateWithdrawalQueue()":"1f4a1a6a","handler_deactivateWithdrawalQueue()":"2c8b759b","handler_deposit(uint8,uint256,uint256)":"c8e0c924","handler_depositETH(uint256,uint256)":"e80552f1","handler_depositTo(uint8,uint8,uint256,uint256)":"f42e1ccf","handler_depositToETH(uint8,uint256,uint256)":"c5247e27","handler_finaliseQueuedWithdrawal(uint8,uint256)":"af3cfaa2","handler_finaliseQueuedWithdrawalsAggregated(uint8,uint8,uint256,uint256)":"0cb2373c","handler_onMessageReceiveChild(bool,uint8,uint8,uint8,uint256)":"db19212c","handler_onMessageReceiveRoot(bool,uint8,uint8,uint8,uint256)":"8dab8a7f","handler_pauseChild()":"7aa5be21","handler_pauseRoot()":"8d7d6afe","handler_setRateControlThreshold(uint8,uint256,uint256,uint256)":"12864dd8","handler_setWithdrawalDelay(uint256)":"411fb0bd","handler_unpauseChild()":"a7f90b8d","handler_unpauseRoot()":"a60ac68b","handler_updateImxCumulativeDepositLimit(uint256)":"bd3cad56","handler_withdraw(uint8,uint256,uint256)":"1533bd8f","handler_withdrawETH(uint256,uint256)":"aae97c9b","handler_withdrawETHTo(uint8,uint256,uint256)":"be850cfe","handler_withdrawIMX(uint256,uint256)":"07e10041","handler_withdrawIMXTo(uint8,uint256,uint256)":"e9152789","handler_withdrawTo(uint8,uint8,uint256,uint256)":"ffbd1fae","handler_withdrawWIMX(uint256,uint256)":"b13518e7","handler_withdrawWIMXTo(uint8,uint256,uint256)":"7216408d"},"id":122}