{"abi":[{"type":"constructor","inputs":[],"stateMutability":"nonpayable"},{"type":"function","name":"initialize","inputs":[{"name":"_bridge","type":"address","internalType":"address"}],"outputs":[],"stateMutability":"nonpayable"},{"type":"function","name":"onMessageReceive","inputs":[{"name":"data","type":"bytes","internalType":"bytes"}],"outputs":[],"stateMutability":"nonpayable"},{"type":"function","name":"sendMessage","inputs":[{"name":"payload","type":"bytes","internalType":"bytes"},{"name":"","type":"address","internalType":"address"}],"outputs":[],"stateMutability":"payable"}],"bytecode":{"object":"0x608060405234801561001057600080fd5b50610295806100206000396000f3fe6080604052600436106100345760003560e01c80637248c77c14610039578063c4d66de81461005b578063f20755ba14610098575b600080fd5b34801561004557600080fd5b5061005961005436600461015c565b6100ab565b005b34801561006757600080fd5b506100596100763660046101ba565b600180546001600160a01b0319166001600160a01b0392909216919091179055565b6100596100a63660046101dc565b505050565b600154604051631c9231df60e21b81526001600160a01b0390911690637248c77c906100dd9085908590600401610230565b600060405180830381600087803b1580156100f757600080fd5b505af115801561010b573d6000803e3d6000fd5b505050505050565b60008083601f84011261012557600080fd5b50813567ffffffffffffffff81111561013d57600080fd5b60208301915083602082850101111561015557600080fd5b9250929050565b6000806020838503121561016f57600080fd5b823567ffffffffffffffff81111561018657600080fd5b61019285828601610113565b90969095509350505050565b80356001600160a01b03811681146101b557600080fd5b919050565b6000602082840312156101cc57600080fd5b6101d58261019e565b9392505050565b6000806000604084860312156101f157600080fd5b833567ffffffffffffffff81111561020857600080fd5b61021486828701610113565b909450925061022790506020850161019e565b90509250925092565b60208152816020820152818360408301376000818301604090810191909152601f909201601f1916010191905056fea26469706673582212208c4b292033d1adc80dc3eebc6f53615d260635019e695290d7116d519cf2efec64736f6c63430008130033","linkReferences":{}},"methodIdentifiers":{"initialize(address)":"c4d66de8","onMessageReceive(bytes)":"7248c77c","sendMessage(bytes,address)":"f20755ba"},"id":137}