{"abi":[{"type":"function","name":"executeMetaTransaction","inputs":[{"name":"userAddress","type":"address","internalType":"address"},{"name":"functionSignature","type":"bytes","internalType":"bytes"},{"name":"sigR","type":"bytes32","internalType":"bytes32"},{"name":"sigS","type":"bytes32","internalType":"bytes32"},{"name":"sigV","type":"uint8","internalType":"uint8"}],"outputs":[{"name":"","type":"bytes","internalType":"bytes"}],"stateMutability":"nonpayable"},{"type":"function","name":"getNonce","inputs":[{"name":"user","type":"address","internalType":"address"}],"outputs":[{"name":"nonce","type":"uint256","internalType":"uint256"}],"stateMutability":"view"},{"type":"function","name":"invalidateNext","inputs":[{"name":"offset","type":"uint256","internalType":"uint256"}],"outputs":[],"stateMutability":"nonpayable"},{"type":"event","name":"MetaTransactionExecuted","inputs":[{"name":"userAddress","type":"address","indexed":false,"internalType":"address"},{"name":"relayerAddress","type":"address","indexed":false,"internalType":"address"},{"name":"functionSignature","type":"bytes","indexed":false,"internalType":"bytes"}],"anonymous":false}],"bytecode":{"object":"0x608060405234801561001057600080fd5b50610876806100206000396000f3fe608060405234801561001057600080fd5b50600436106100415760003560e01c80630c53c51c146100465780632d0335ab1461006f5780639b77ef11146100a6575b600080fd5b61005961005436600461060c565b6100bb565b60405161006691906106e0565b60405180910390f35b61009861007d366004610713565b6001600160a01b031660009081526006602052604090205490565b604051908152602001610066565b6100b96100b4366004610735565b61039e565b005b606060006100fe87878080601f0160208091040260200160405190810160405280939291908181526020018383808284376000920191909152506103c592505050565b90506001600160e01b03196000358116908216036101895760405162461bcd60e51b815260206004820152603d60248201527f66756e6374696f6e5369676e61747572652063616e206e6f74206265206f662060448201527f657865637574654d6574615472616e73616374696f6e206d6574686f6400000060648201526084015b60405180910390fd5b604080516060810182526001600160a01b038a16600081815260066020908152848220548452808401929092528351601f8b0183900483028101830185528a815290938301918b908b9081908401838280828437600092019190915250505091525090506101fa89828888886103e0565b6102505760405162461bcd60e51b815260206004820152602160248201527f5369676e657220616e64207369676e617475726520646f206e6f74206d6174636044820152600d60fb1b6064820152608401610180565b600660008a6001600160a01b03166001600160a01b031681526020019081526020016000206000815460010191905081905550600080306001600160a01b03168a8a8d6040516020016102a59392919061074e565b60408051601f19818403018152908290526102bf91610774565b6000604051808303816000865af19150503d80600081146102fc576040519150601f19603f3d011682016040523d82523d6000602084013e610301565b606091505b5091509150816103535760405162461bcd60e51b815260206004820152601c60248201527f46756e6374696f6e2063616c6c206e6f74207375636365737366756c000000006044820152606401610180565b7f5845892132946850460bff5a0083f71031bc5bf9aadcd40f1de79423eac9b10b8b338c8c6040516103889493929190610790565b60405180910390a19a9950505050505050505050565b33600090815260066020526040812080548392906103bd9084906107dc565b909155505050565b600081516000036103d857506000919050565b506020015190565b60008060016103f66103f1886104bc565b610539565b6040805160008152602081018083529290925260ff861690820152606081018790526080810186905260a0016020604051602081039080840390855afa158015610444573d6000803e3d6000fd5b5050604051601f1901519150506001600160a01b03811661049b5760405162461bcd60e51b8152602060048201526011602482015270496e76616c6964207369676e617475726560781b6044820152606401610180565b866001600160a01b0316816001600160a01b03161491505095945050505050565b60006040518060800160405280604381526020016107fe604391398051602091820120835184830151604080870151805190860120905161051c950193845260208401929092526001600160a01b03166040830152606082015260800190565b604051602081830303815290604052805190602001209050919050565b600061056661054661056c565b8360405161190160f01b8152600281019290925260228201526042902090565b92915050565b6002546000906001600160a01b03163014801561058a575060015446145b15610596575060005490565b6105eb6005546003546004546040805160208101859052908101839052606081018290524660808201523060a082015260009060c0016040516020818303038152906040528051906020012090509392505050565b905090565b80356001600160a01b038116811461060757600080fd5b919050565b60008060008060008060a0878903121561062557600080fd5b61062e876105f0565b9550602087013567ffffffffffffffff8082111561064b57600080fd5b818901915089601f83011261065f57600080fd5b81358181111561066e57600080fd5b8a602082850101111561068057600080fd5b6020830197508096505050506040870135925060608701359150608087013560ff811681146106ae57600080fd5b809150509295509295509295565b60005b838110156106d75781810151838201526020016106bf565b50506000910152565b60208152600082518060208401526106ff8160408501602087016106bc565b601f01601f19169190910160400192915050565b60006020828403121561072557600080fd5b61072e826105f0565b9392505050565b60006020828403121561074757600080fd5b5035919050565b8284823760609190911b6bffffffffffffffffffffffff19169101908152601401919050565b600082516107868184602087016106bc565b9190910192915050565b6001600160a01b0385811682528416602082015260606040820181905281018290526000828460808401376000608084840101526080601f19601f850116830101905095945050505050565b8082018082111561056657634e487b7160e01b600052601160045260246000fdfe4d6574615472616e73616374696f6e2875696e74323536206e6f6e63652c616464726573732066726f6d2c62797465732066756e6374696f6e5369676e617475726529a2646970667358221220a846b725c2d8c43b279cf05186723856dfeff58961bc62d82f86b139c00acc2564736f6c63430008130033","linkReferences":{}},"methodIdentifiers":{"executeMetaTransaction(address,bytes,bytes32,bytes32,uint8)":"0c53c51c","getNonce(address)":"2d0335ab","invalidateNext(uint256)":"9b77ef11"},"id":69}