{"abi":[{"type":"function","name":"allowance","inputs":[{"name":"owner","type":"address","internalType":"address"},{"name":"spender","type":"address","internalType":"address"}],"outputs":[{"name":"","type":"uint256","internalType":"uint256"}],"stateMutability":"view"},{"type":"function","name":"approve","inputs":[{"name":"spender","type":"address","internalType":"address"},{"name":"amount","type":"uint256","internalType":"uint256"}],"outputs":[{"name":"","type":"bool","internalType":"bool"}],"stateMutability":"nonpayable"},{"type":"function","name":"balanceOf","inputs":[{"name":"account","type":"address","internalType":"address"}],"outputs":[{"name":"","type":"uint256","internalType":"uint256"}],"stateMutability":"view"},{"type":"function","name":"bridge","inputs":[],"outputs":[{"name":"","type":"address","internalType":"address"}],"stateMutability":"view"},{"type":"function","name":"burn","inputs":[{"name":"","type":"address","internalType":"address"},{"name":"","type":"uint256","internalType":"uint256"}],"outputs":[{"name":"","type":"bool","internalType":"bool"}],"stateMutability":"nonpayable"},{"type":"function","name":"decimals","inputs":[],"outputs":[{"name":"","type":"uint8","internalType":"uint8"}],"stateMutability":"view"},{"type":"function","name":"decreaseAllowance","inputs":[{"name":"spender","type":"address","internalType":"address"},{"name":"subtractedValue","type":"uint256","internalType":"uint256"}],"outputs":[{"name":"","type":"bool","internalType":"bool"}],"stateMutability":"nonpayable"},{"type":"function","name":"executeMetaTransaction","inputs":[{"name":"userAddress","type":"address","internalType":"address"},{"name":"functionSignature","type":"bytes","internalType":"bytes"},{"name":"sigR","type":"bytes32","internalType":"bytes32"},{"name":"sigS","type":"bytes32","internalType":"bytes32"},{"name":"sigV","type":"uint8","internalType":"uint8"}],"outputs":[{"name":"","type":"bytes","internalType":"bytes"}],"stateMutability":"nonpayable"},{"type":"function","name":"getNonce","inputs":[{"name":"user","type":"address","internalType":"address"}],"outputs":[{"name":"nonce","type":"uint256","internalType":"uint256"}],"stateMutability":"view"},{"type":"function","name":"increaseAllowance","inputs":[{"name":"spender","type":"address","internalType":"address"},{"name":"addedValue","type":"uint256","internalType":"uint256"}],"outputs":[{"name":"","type":"bool","internalType":"bool"}],"stateMutability":"nonpayable"},{"type":"function","name":"initialize","inputs":[{"name":"rootToken_","type":"address","internalType":"address"},{"name":"name_","type":"string","internalType":"string"},{"name":"symbol_","type":"string","internalType":"string"},{"name":"decimals_","type":"uint8","internalType":"uint8"}],"outputs":[],"stateMutability":"nonpayable"},{"type":"function","name":"invalidateNext","inputs":[{"name":"offset","type":"uint256","internalType":"uint256"}],"outputs":[],"stateMutability":"nonpayable"},{"type":"function","name":"mint","inputs":[{"name":"account","type":"address","internalType":"address"},{"name":"amount","type":"uint256","internalType":"uint256"}],"outputs":[{"name":"","type":"bool","internalType":"bool"}],"stateMutability":"nonpayable"},{"type":"function","name":"name","inputs":[],"outputs":[{"name":"","type":"string","internalType":"string"}],"stateMutability":"view"},{"type":"function","name":"rootToken","inputs":[],"outputs":[{"name":"","type":"address","internalType":"address"}],"stateMutability":"view"},{"type":"function","name":"symbol","inputs":[],"outputs":[{"name":"","type":"string","internalType":"string"}],"stateMutability":"view"},{"type":"function","name":"totalSupply","inputs":[],"outputs":[{"name":"","type":"uint256","internalType":"uint256"}],"stateMutability":"view"},{"type":"function","name":"transfer","inputs":[{"name":"to","type":"address","internalType":"address"},{"name":"amount","type":"uint256","internalType":"uint256"}],"outputs":[{"name":"","type":"bool","internalType":"bool"}],"stateMutability":"nonpayable"},{"type":"function","name":"transferFrom","inputs":[{"name":"from","type":"address","internalType":"address"},{"name":"to","type":"address","internalType":"address"},{"name":"amount","type":"uint256","internalType":"uint256"}],"outputs":[{"name":"","type":"bool","internalType":"bool"}],"stateMutability":"nonpayable"},{"type":"event","name":"Approval","inputs":[{"name":"owner","type":"address","indexed":true,"internalType":"address"},{"name":"spender","type":"address","indexed":true,"internalType":"address"},{"name":"value","type":"uint256","indexed":false,"internalType":"uint256"}],"anonymous":false},{"type":"event","name":"Initialized","inputs":[{"name":"version","type":"uint8","indexed":false,"internalType":"uint8"}],"anonymous":false},{"type":"event","name":"MetaTransactionExecuted","inputs":[{"name":"userAddress","type":"address","indexed":false,"internalType":"address"},{"name":"relayerAddress","type":"address","indexed":false,"internalType":"address"},{"name":"functionSignature","type":"bytes","indexed":false,"internalType":"bytes"}],"anonymous":false},{"type":"event","name":"Transfer","inputs":[{"name":"from","type":"address","indexed":true,"internalType":"address"},{"name":"to","type":"address","indexed":true,"internalType":"address"},{"name":"value","type":"uint256","indexed":false,"internalType":"uint256"}],"anonymous":false}],"bytecode":{"object":"0x608060405234801561001057600080fd5b506117c2806100206000396000f3fe608060405234801561001057600080fd5b50600436106101215760003560e01c806340c10f19116100ad578063a457c2d711610071578063a457c2d71461028e578063a9059cbb146102a1578063dd62ed3e146102b4578063e78cea92146102c7578063f6d2ee86146102d857600080fd5b806340c10f191461021f57806370a082311461023257806395d89b411461025b5780639b77ef11146102635780639dc29fac1461027857600080fd5b80631f2d0065116100f45780631f2d00651461018c57806323b872dd146101b15780632d0335ab146101c4578063313ce567146101ed578063395093511461020c57600080fd5b806306fdde0314610126578063095ea7b3146101445780630c53c51c1461016757806318160ddd1461017a575b600080fd5b61012e6102eb565b60405161013b919061129a565b60405180910390f35b6101576101523660046112d0565b61037d565b604051901515815260200161013b565b61012e610175366004611354565b6103a1565b603c545b60405190815260200161013b565b606d546001600160a01b03165b6040516001600160a01b03909116815260200161013b565b6101576101bf3660046113ca565b610684565b61017e6101d2366004611406565b6001600160a01b031660009081526006602052604090205490565b606d54600160a01b900460ff1660405160ff909116815260200161013b565b61015761021a3660046112d0565b6106b2565b61015761022d3660046112d0565b6106de565b61017e610240366004611406565b6001600160a01b03166000908152603a602052604090205490565b61012e61074e565b610276610271366004611421565b61075d565b005b6101576102863660046112d0565b600092915050565b61015761029c3660046112d0565b610784565b6101576102af3660046112d0565b61080a565b61017e6102c236600461143a565b610822565b606c546001600160a01b0316610199565b6102766102e636600461146d565b61084d565b6060603d80546102fa906114f1565b80601f0160208091040260200160405190810160405280929190818152602001828054610326906114f1565b80156103735780601f1061034857610100808354040283529160200191610373565b820191906000526020600020905b81548152906001019060200180831161035657829003601f168201915b5050505050905090565b600080610388610acd565b9050610395818585610adc565b60019150505b92915050565b606060006103e487878080601f016020809104026020016040519081016040528093929190818152602001838380828437600092019190915250610c0092505050565b90506001600160e01b031960003581169082160361046f5760405162461bcd60e51b815260206004820152603d60248201527f66756e6374696f6e5369676e61747572652063616e206e6f74206265206f662060448201527f657865637574654d6574615472616e73616374696f6e206d6574686f6400000060648201526084015b60405180910390fd5b604080516060810182526001600160a01b038a16600081815260066020908152848220548452808401929092528351601f8b0183900483028101830185528a815290938301918b908b9081908401838280828437600092019190915250505091525090506104e08982888888610c1b565b6105365760405162461bcd60e51b815260206004820152602160248201527f5369676e657220616e64207369676e617475726520646f206e6f74206d6174636044820152600d60fb1b6064820152608401610466565b600660008a6001600160a01b03166001600160a01b031681526020019081526020016000206000815460010191905081905550600080306001600160a01b03168a8a8d60405160200161058b9392919061152b565b60408051601f19818403018152908290526105a591611551565b6000604051808303816000865af19150503d80600081146105e2576040519150601f19603f3d011682016040523d82523d6000602084013e6105e7565b606091505b5091509150816106395760405162461bcd60e51b815260206004820152601c60248201527f46756e6374696f6e2063616c6c206e6f74207375636365737366756c000000006044820152606401610466565b7f5845892132946850460bff5a0083f71031bc5bf9aadcd40f1de79423eac9b10b8b338c8c60405161066e949392919061156d565b60405180910390a19a9950505050505050505050565b60008061068f610acd565b905061069c858285610cf7565b6106a7858585610d71565b506001949350505050565b6000806106bd610acd565b90506103958185856106cf8589610822565b6106d991906115b9565b610adc565b606c546000906001600160a01b0316331461073b5760405162461bcd60e51b815260206004820181905260248201527f4368696c6445524332303a204f6e6c79206272696467652063616e2063616c6c6044820152606401610466565b6107458383610f1c565b50600192915050565b6060603e80546102fa906114f1565b336000908152600660205260408120805483929061077c9084906115b9565b909155505050565b60008061078f610acd565b9050600061079d8286610822565b9050838110156107fd5760405162461bcd60e51b815260206004820152602560248201527f45524332303a2064656372656173656420616c6c6f77616e63652062656c6f77604482015264207a65726f60d81b6064820152608401610466565b6106a78286868403610adc565b600080610815610acd565b9050610395818585610d71565b6001600160a01b039182166000908152603b6020908152604080832093909416825291909152205490565b600754610100900460ff161580801561086d5750600754600160ff909116105b806108875750303b158015610887575060075460ff166001145b6108ea5760405162461bcd60e51b815260206004820152602e60248201527f496e697469616c697a61626c653a20636f6e747261637420697320616c72656160448201526d191e481a5b9a5d1a585b1a5e995960921b6064820152608401610466565b6007805460ff19166001179055801561090d576007805461ff0019166101001790555b6001600160a01b0387161580159061092457508415155b801561092f57508215155b61097b5760405162461bcd60e51b815260206004820152601e60248201527f4368696c6445524332303a204241445f494e495449414c495a4154494f4e00006044820152606401610466565b606d805460ff8416600160a01b026001600160a81b03199091166001600160a01b038a1617179055606c80546001600160a01b03191633179055604080516020601f8801819004810282018101909252868152610a2691889088908190840183828082843760009201919091525050604080516020601f8a018190048102820181019092528881529250889150879081908401838280828437600092019190915250610fde92505050565b610a7e86868080601f016020809104026020016040519081016040528093929190818152602001838380828437600092019190915250506040805180820190915260018152603160f81b6020820152915061100f9050565b8015610ac4576007805461ff0019169055604051600181527f7f26b83ff96e1f2b6a682f133852f6798a09c465da95921460cefb38474024989060200160405180910390a15b50505050505050565b6000610ad761107b565b905090565b6001600160a01b038316610b3e5760405162461bcd60e51b8152602060048201526024808201527f45524332303a20617070726f76652066726f6d20746865207a65726f206164646044820152637265737360e01b6064820152608401610466565b6001600160a01b038216610b9f5760405162461bcd60e51b815260206004820152602260248201527f45524332303a20617070726f766520746f20746865207a65726f206164647265604482015261737360f01b6064820152608401610466565b6001600160a01b038381166000818152603b602090815260408083209487168084529482529182902085905590518481527f8c5be1e5ebec7d5bd14f71427d1e84f3dd0314c0f7b2291e5b200ac8c7c3b925910160405180910390a3505050565b60008151600003610c1357506000919050565b506020015190565b6000806001610c31610c2c886110d7565b611154565b6040805160008152602081018083529290925260ff861690820152606081018790526080810186905260a0016020604051602081039080840390855afa158015610c7f573d6000803e3d6000fd5b5050604051601f1901519150506001600160a01b038116610cd65760405162461bcd60e51b8152602060048201526011602482015270496e76616c6964207369676e617475726560781b6044820152606401610466565b866001600160a01b0316816001600160a01b03161491505095945050505050565b6000610d038484610822565b90506000198114610d6b5781811015610d5e5760405162461bcd60e51b815260206004820152601d60248201527f45524332303a20696e73756666696369656e7420616c6c6f77616e63650000006044820152606401610466565b610d6b8484848403610adc565b50505050565b6001600160a01b038316610dd55760405162461bcd60e51b815260206004820152602560248201527f45524332303a207472616e736665722066726f6d20746865207a65726f206164604482015264647265737360d81b6064820152608401610466565b6001600160a01b038216610e375760405162461bcd60e51b815260206004820152602360248201527f45524332303a207472616e7366657220746f20746865207a65726f206164647260448201526265737360e81b6064820152608401610466565b6001600160a01b0383166000908152603a602052604090205481811015610eaf5760405162461bcd60e51b815260206004820152602660248201527f45524332303a207472616e7366657220616d6f756e7420657863656564732062604482015265616c616e636560d01b6064820152608401610466565b6001600160a01b038085166000818152603a602052604080822086860390559286168082529083902080548601905591517fddf252ad1be2c89b69c2b068fc378daa952ba7f163c4a11628f55a4df523b3ef90610f0f9086815260200190565b60405180910390a3610d6b565b6001600160a01b038216610f725760405162461bcd60e51b815260206004820152601f60248201527f45524332303a206d696e7420746f20746865207a65726f2061646472657373006044820152606401610466565b80603c6000828254610f8491906115b9565b90915550506001600160a01b0382166000818152603a60209081526040808320805486019055518481527fddf252ad1be2c89b69c2b068fc378daa952ba7f163c4a11628f55a4df523b3ef910160405180910390a35b5050565b600754610100900460ff166110055760405162461bcd60e51b8152600401610466906115da565b610fda8282611186565b815160208084019190912082519183019190912060038290556004819055466001557f8b73c3c69bb8fe3d512ecc4cf759cc79239f7b179b0ffacaa9a75d522b39400f61105d8184846111c6565b600055600280546001600160a01b0319163017905560055550505050565b60003033036110d157600080368080601f0160208091040260200160405190810160405280939291908181526020018383808284376000920191909152505050503601516001600160a01b031691506110d49050565b50335b90565b600060405180608001604052806043815260200161174a6043913980516020918201208351848301516040808701518051908601209051611137950193845260208401929092526001600160a01b03166040830152606082015260800190565b604051602081830303815290604052805190602001209050919050565b600061039b61116161120f565b8360405161190160f01b8152600281019290925260228201526042902090565b505050565b600754610100900460ff166111ad5760405162461bcd60e51b8152600401610466906115da565b603d6111b98382611689565b50603e6111818282611689565b6040805160208101859052908101839052606081018290524660808201523060a082015260009060c0016040516020818303038152906040528051906020012090509392505050565b6002546000906001600160a01b03163014801561122d575060015446145b15611239575060005490565b610ad76005546003546004546111c6565b60005b8381101561126557818101518382015260200161124d565b50506000910152565b6000815180845261128681602086016020860161124a565b601f01601f19169290920160200192915050565b6020815260006112ad602083018461126e565b9392505050565b80356001600160a01b03811681146112cb57600080fd5b919050565b600080604083850312156112e357600080fd5b6112ec836112b4565b946020939093013593505050565b60008083601f84011261130c57600080fd5b50813567ffffffffffffffff81111561132457600080fd5b60208301915083602082850101111561133c57600080fd5b9250929050565b803560ff811681146112cb57600080fd5b60008060008060008060a0878903121561136d57600080fd5b611376876112b4565b9550602087013567ffffffffffffffff81111561139257600080fd5b61139e89828a016112fa565b90965094505060408701359250606087013591506113be60808801611343565b90509295509295509295565b6000806000606084860312156113df57600080fd5b6113e8846112b4565b92506113f6602085016112b4565b9150604084013590509250925092565b60006020828403121561141857600080fd5b6112ad826112b4565b60006020828403121561143357600080fd5b5035919050565b6000806040838503121561144d57600080fd5b611456836112b4565b9150611464602084016112b4565b90509250929050565b6000806000806000806080878903121561148657600080fd5b61148f876112b4565b9550602087013567ffffffffffffffff808211156114ac57600080fd5b6114b88a838b016112fa565b909750955060408901359150808211156114d157600080fd5b506114de89828a016112fa565b90945092506113be905060608801611343565b600181811c9082168061150557607f821691505b60208210810361152557634e487b7160e01b600052602260045260246000fd5b50919050565b8284823760609190911b6bffffffffffffffffffffffff19169101908152601401919050565b6000825161156381846020870161124a565b9190910192915050565b6001600160a01b0385811682528416602082015260606040820181905281018290526000828460808401376000608084840101526080601f19601f850116830101905095945050505050565b8082018082111561039b57634e487b7160e01b600052601160045260246000fd5b6020808252602b908201527f496e697469616c697a61626c653a20636f6e7472616374206973206e6f74206960408201526a6e697469616c697a696e6760a81b606082015260800190565b634e487b7160e01b600052604160045260246000fd5b601f82111561118157600081815260208120601f850160051c810160208610156116625750805b601f850160051c820191505b818110156116815782815560010161166e565b505050505050565b815167ffffffffffffffff8111156116a3576116a3611625565b6116b7816116b184546114f1565b8461163b565b602080601f8311600181146116ec57600084156116d45750858301515b600019600386901b1c1916600185901b178555611681565b600085815260208120601f198616915b8281101561171b578886015182559484019460019091019084016116fc565b50858210156117395787850151600019600388901b60f8161c191681555b5050505050600190811b0190555056fe4d6574615472616e73616374696f6e2875696e74323536206e6f6e63652c616464726573732066726f6d2c62797465732066756e6374696f6e5369676e617475726529a2646970667358221220693e13efa8876919ba2309c4be7266edc6799f7712025fbcb6fe30754aedd37664736f6c63430008130033","linkReferences":{}},"methodIdentifiers":{"allowance(address,address)":"dd62ed3e","approve(address,uint256)":"095ea7b3","balanceOf(address)":"70a08231","bridge()":"e78cea92","burn(address,uint256)":"9dc29fac","decimals()":"313ce567","decreaseAllowance(address,uint256)":"a457c2d7","executeMetaTransaction(address,bytes,bytes32,bytes32,uint8)":"0c53c51c","getNonce(address)":"2d0335ab","increaseAllowance(address,uint256)":"39509351","initialize(address,string,string,uint8)":"f6d2ee86","invalidateNext(uint256)":"9b77ef11","mint(address,uint256)":"40c10f19","name()":"06fdde03","rootToken()":"1f2d0065","symbol()":"95d89b41","totalSupply()":"18160ddd","transfer(address,uint256)":"a9059cbb","transferFrom(address,address,uint256)":"23b872dd"},"id":167}