{"abi":[{"type":"function","name":"childBridgeAdaptor","inputs":[],"outputs":[{"name":"","type":"string","internalType":"string"}],"stateMutability":"pure"},{"type":"function","name":"onMessageReceive","inputs":[{"name":"","type":"bytes","internalType":"bytes"}],"outputs":[],"stateMutability":"nonpayable"}],"bytecode":{"object":"0x608060405234801561001057600080fd5b506103bb806100206000396000f3fe608060405234801561001057600080fd5b50600436106100365760003560e01c806329529c0e1461003b5780637248c77c14610059575b600080fd5b61004361006d565b6040516100509190610242565b60405180910390f35b61006b610067366004610290565b5050565b005b606061007a61270f61007f565b905090565b60606100956001600160a01b038316601461009b565b92915050565b606060006100aa836002610318565b6100b590600261032f565b67ffffffffffffffff8111156100cd576100cd610342565b6040519080825280601f01601f1916602001820160405280156100f7576020820181803683370190505b509050600360fc1b8160008151811061011257610112610358565b60200101906001600160f81b031916908160001a905350600f60fb1b8160018151811061014157610141610358565b60200101906001600160f81b031916908160001a9053506000610165846002610318565b61017090600161032f565b90505b60018111156101e8576f181899199a1a9b1b9c1cb0b131b232b360811b85600f16601081106101a4576101a4610358565b1a60f81b8282815181106101ba576101ba610358565b60200101906001600160f81b031916908160001a90535060049490941c936101e18161036e565b9050610173565b50831561023b5760405162461bcd60e51b815260206004820181905260248201527f537472696e67733a20686578206c656e67746820696e73756666696369656e74604482015260640160405180910390fd5b9392505050565b600060208083528351808285015260005b8181101561026f57858101830151858201604001528201610253565b506000604082860101526040601f19601f8301168501019250505092915050565b600080602083850312156102a357600080fd5b823567ffffffffffffffff808211156102bb57600080fd5b818501915085601f8301126102cf57600080fd5b8135818111156102de57600080fd5b8660208285010111156102f057600080fd5b60209290920196919550909350505050565b634e487b7160e01b600052601160045260246000fd5b808202811582820484141761009557610095610302565b8082018082111561009557610095610302565b634e487b7160e01b600052604160045260246000fd5b634e487b7160e01b600052603260045260246000fd5b60008161037d5761037d610302565b50600019019056fea2646970667358221220827832cf5298417a6c9fe9ed7134886a8c1ae7c7ce95ca992f634ab2fceddedc64736f6c63430008130033","linkReferences":{}},"methodIdentifiers":{"childBridgeAdaptor()":"29529c0e","onMessageReceive(bytes)":"7248c77c"},"id":175}