{"abi":[{"type":"function","name":"callContract","inputs":[{"name":"childChain","type":"string","internalType":"string"},{"name":"childBridgeAdaptor","type":"string","internalType":"string"},{"name":"payload","type":"bytes","internalType":"bytes"}],"outputs":[],"stateMutability":"nonpayable"},{"type":"function","name":"validateContractCall","inputs":[{"name":"","type":"bytes32","internalType":"bytes32"},{"name":"","type":"string","internalType":"string"},{"name":"","type":"string","internalType":"string"},{"name":"","type":"bytes32","internalType":"bytes32"}],"outputs":[{"name":"","type":"bool","internalType":"bool"}],"stateMutability":"pure"},{"type":"function","name":"validateContractCallAndMint","inputs":[{"name":"","type":"bytes32","internalType":"bytes32"},{"name":"","type":"string","internalType":"string"},{"name":"","type":"string","internalType":"string"},{"name":"","type":"bytes32","internalType":"bytes32"},{"name":"","type":"string","internalType":"string"},{"name":"","type":"uint256","internalType":"uint256"}],"outputs":[{"name":"","type":"bool","internalType":"bool"}],"stateMutability":"pure"}],"bytecode":{"object":"0x608060405234801561001057600080fd5b506103ab806100206000396000f3fe608060405234801561001057600080fd5b50600436106100415760003560e01c80631876eed9146100465780631c92115f146100775780635f6970c31461008c575b600080fd5b6100636100543660046100ef565b60019998505050505050505050565b604051901515815260200160405180910390f35b61008a610085366004610257565b505050565b005b61006361009a3660046102f3565b60019695505050505050565b60008083601f8401126100b857600080fd5b50813567ffffffffffffffff8111156100d057600080fd5b6020830191508360208285010111156100e857600080fd5b9250929050565b600080600080600080600080600060c08a8c03121561010d57600080fd5b8935985060208a013567ffffffffffffffff8082111561012c57600080fd5b6101388d838e016100a6565b909a50985060408c013591508082111561015157600080fd5b61015d8d838e016100a6565b909850965060608c0135955060808c013591508082111561017d57600080fd5b5061018a8c828d016100a6565b9a9d999c50979a9699959894979660a00135949350505050565b634e487b7160e01b600052604160045260246000fd5b600067ffffffffffffffff808411156101d5576101d56101a4565b604051601f8501601f19908116603f011681019082821181831017156101fd576101fd6101a4565b8160405280935085815286868601111561021657600080fd5b858560208301376000602087830101525050509392505050565b600082601f83011261024157600080fd5b610250838335602085016101ba565b9392505050565b60008060006060848603121561026c57600080fd5b833567ffffffffffffffff8082111561028457600080fd5b61029087838801610230565b945060208601359150808211156102a657600080fd5b6102b287838801610230565b935060408601359150808211156102c857600080fd5b508401601f810186136102da57600080fd5b6102e9868235602084016101ba565b9150509250925092565b6000806000806000806080878903121561030c57600080fd5b86359550602087013567ffffffffffffffff8082111561032b57600080fd5b6103378a838b016100a6565b9097509550604089013591508082111561035057600080fd5b5061035d89828a016100a6565b979a969950949794969560609095013594935050505056fea2646970667358221220b02e07680785f7b4e21f594654b0026f0121f7e279a64b4e3288710e7928873064736f6c63430008130033","linkReferences":{}},"methodIdentifiers":{"callContract(string,string,bytes)":"1c92115f","validateContractCall(bytes32,string,string,bytes32)":"5f6970c3","validateContractCallAndMint(bytes32,string,string,bytes32,string,uint256)":"1876eed9"},"id":79}