{"abi":[{"type":"function","name":"sendMessage","inputs":[{"name":"","type":"bytes","internalType":"bytes"},{"name":"","type":"address","internalType":"address"}],"outputs":[],"stateMutability":"payable"}],"bytecode":{"object":"0x608060405234801561001057600080fd5b5060f28061001f6000396000f3fe608060405260043610601c5760003560e01c8063f20755ba146021575b600080fd5b6031602c3660046033565b505050565b005b600080600060408486031215604757600080fd5b833567ffffffffffffffff80821115605e57600080fd5b818601915086601f830112607157600080fd5b813581811115607f57600080fd5b876020828501011115609057600080fd5b602092830195509350508401356001600160a01b038116811460b157600080fd5b80915050925092509256fea26469706673582212204f9b794de54f0ff6847efa9708907728af20a2e3f1ae1cf6b36877fe5096515864736f6c63430008130033","linkReferences":{}},"methodIdentifiers":{"sendMessage(bytes,address)":"f20755ba"},"id":171}