{"abi":[{"type":"constructor","inputs":[{"name":"_initializerAddress","type":"address","internalType":"address"}],"stateMutability":"nonpayable"},{"type":"receive","stateMutability":"payable"},{"type":"function","name":"ADAPTOR_MANAGER_ROLE","inputs":[],"outputs":[{"name":"","type":"bytes32","internalType":"bytes32"}],"stateMutability":"view"},{"type":"function","name":"DEFAULT_ADMIN_ROLE","inputs":[],"outputs":[{"name":"","type":"bytes32","internalType":"bytes32"}],"stateMutability":"view"},{"type":"function","name":"DEPOSIT_SIG","inputs":[],"outputs":[{"name":"","type":"bytes32","internalType":"bytes32"}],"stateMutability":"view"},{"type":"function","name":"MAP_TOKEN_SIG","inputs":[],"outputs":[{"name":"","type":"bytes32","internalType":"bytes32"}],"stateMutability":"view"},{"type":"function","name":"NATIVE_ETH","inputs":[],"outputs":[{"name":"","type":"address","internalType":"address"}],"stateMutability":"view"},{"type":"function","name":"NATIVE_IMX","inputs":[],"outputs":[{"name":"","type":"address","internalType":"address"}],"stateMutability":"view"},{"type":"function","name":"PAUSER_ROLE","inputs":[],"outputs":[{"name":"","type":"bytes32","internalType":"bytes32"}],"stateMutability":"view"},{"type":"function","name":"UNLIMITED_DEPOSIT","inputs":[],"outputs":[{"name":"","type":"uint256","internalType":"uint256"}],"stateMutability":"view"},{"type":"function","name":"UNPAUSER_ROLE","inputs":[],"outputs":[{"name":"","type":"bytes32","internalType":"bytes32"}],"stateMutability":"view"},{"type":"function","name":"VARIABLE_MANAGER_ROLE","inputs":[],"outputs":[{"name":"","type":"bytes32","internalType":"bytes32"}],"stateMutability":"view"},{"type":"function","name":"WITHDRAW_SIG","inputs":[],"outputs":[{"name":"","type":"bytes32","internalType":"bytes32"}],"stateMutability":"view"},{"type":"function","name":"childERC20Bridge","inputs":[],"outputs":[{"name":"","type":"address","internalType":"address"}],"stateMutability":"view"},{"type":"function","name":"childETHToken","inputs":[],"outputs":[{"name":"","type":"address","internalType":"address"}],"stateMutability":"view"},{"type":"function","name":"childTokenTemplate","inputs":[],"outputs":[{"name":"","type":"address","internalType":"address"}],"stateMutability":"view"},{"type":"function","name":"deposit","inputs":[{"name":"rootToken","type":"address","internalType":"contract IERC20Metadata"},{"name":"amount","type":"uint256","internalType":"uint256"}],"outputs":[],"stateMutability":"payable"},{"type":"function","name":"depositETH","inputs":[{"name":"amount","type":"uint256","internalType":"uint256"}],"outputs":[],"stateMutability":"payable"},{"type":"function","name":"depositTo","inputs":[{"name":"rootToken","type":"address","internalType":"contract IERC20Metadata"},{"name":"receiver","type":"address","internalType":"address"},{"name":"amount","type":"uint256","internalType":"uint256"}],"outputs":[],"stateMutability":"payable"},{"type":"function","name":"depositToETH","inputs":[{"name":"receiver","type":"address","internalType":"address"},{"name":"amount","type":"uint256","internalType":"uint256"}],"outputs":[],"stateMutability":"payable"},{"type":"function","name":"getRoleAdmin","inputs":[{"name":"role","type":"bytes32","internalType":"bytes32"}],"outputs":[{"name":"","type":"bytes32","internalType":"bytes32"}],"stateMutability":"view"},{"type":"function","name":"grantAdaptorManagerRole","inputs":[{"name":"account","type":"address","internalType":"address"}],"outputs":[],"stateMutability":"nonpayable"},{"type":"function","name":"grantPauserRole","inputs":[{"name":"account","type":"address","internalType":"address"}],"outputs":[],"stateMutability":"nonpayable"},{"type":"function","name":"grantRole","inputs":[{"name":"role","type":"bytes32","internalType":"bytes32"},{"name":"account","type":"address","internalType":"address"}],"outputs":[],"stateMutability":"nonpayable"},{"type":"function","name":"grantUnpauserRole","inputs":[{"name":"account","type":"address","internalType":"address"}],"outputs":[],"stateMutability":"nonpayable"},{"type":"function","name":"grantVariableManagerRole","inputs":[{"name":"account","type":"address","internalType":"address"}],"outputs":[],"stateMutability":"nonpayable"},{"type":"function","name":"hasRole","inputs":[{"name":"role","type":"bytes32","internalType":"bytes32"},{"name":"account","type":"address","internalType":"address"}],"outputs":[{"name":"","type":"bool","internalType":"bool"}],"stateMutability":"view"},{"type":"function","name":"imxCumulativeDepositLimit","inputs":[],"outputs":[{"name":"","type":"uint256","internalType":"uint256"}],"stateMutability":"view"},{"type":"function","name":"initialize","inputs":[{"name":"newRoles","type":"tuple","internalType":"struct IRootERC20Bridge.InitializationRoles","components":[{"name":"defaultAdmin","type":"address","internalType":"address"},{"name":"pauser","type":"address","internalType":"address"},{"name":"unpauser","type":"address","internalType":"address"},{"name":"variableManager","type":"address","internalType":"address"},{"name":"adaptorManager","type":"address","internalType":"address"}]},{"name":"newRootBridgeAdaptor","type":"address","internalType":"address"},{"name":"newChildERC20Bridge","type":"address","internalType":"address"},{"name":"newChildTokenTemplate","type":"address","internalType":"address"},{"name":"newRootIMXToken","type":"address","internalType":"address"},{"name":"newRootWETHToken","type":"address","internalType":"address"},{"name":"newImxCumulativeDepositLimit","type":"uint256","internalType":"uint256"}],"outputs":[],"stateMutability":"nonpayable"},{"type":"function","name":"initializerAddress","inputs":[],"outputs":[{"name":"","type":"address","internalType":"address"}],"stateMutability":"view"},{"type":"function","name":"mapToken","inputs":[{"name":"rootToken","type":"address","internalType":"contract IERC20Metadata"}],"outputs":[{"name":"","type":"address","internalType":"address"}],"stateMutability":"payable"},{"type":"function","name":"onMessageReceive","inputs":[{"name":"data","type":"bytes","internalType":"bytes"}],"outputs":[],"stateMutability":"nonpayable"},{"type":"function","name":"pause","inputs":[],"outputs":[],"stateMutability":"nonpayable"},{"type":"function","name":"paused","inputs":[],"outputs":[{"name":"","type":"bool","internalType":"bool"}],"stateMutability":"view"},{"type":"function","name":"renounceRole","inputs":[{"name":"role","type":"bytes32","internalType":"bytes32"},{"name":"account","type":"address","internalType":"address"}],"outputs":[],"stateMutability":"nonpayable"},{"type":"function","name":"revokeAdaptorManagerRole","inputs":[{"name":"account","type":"address","internalType":"address"}],"outputs":[],"stateMutability":"nonpayable"},{"type":"function","name":"revokePauserRole","inputs":[{"name":"account","type":"address","internalType":"address"}],"outputs":[],"stateMutability":"nonpayable"},{"type":"function","name":"revokeRole","inputs":[{"name":"role","type":"bytes32","internalType":"bytes32"},{"name":"account","type":"address","internalType":"address"}],"outputs":[],"stateMutability":"nonpayable"},{"type":"function","name":"revokeUnpauserRole","inputs":[{"name":"account","type":"address","internalType":"address"}],"outputs":[],"stateMutability":"nonpayable"},{"type":"function","name":"revokeVariableManagerRole","inputs":[{"name":"account","type":"address","internalType":"address"}],"outputs":[],"stateMutability":"nonpayable"},{"type":"function","name":"rootBridgeAdaptor","inputs":[],"outputs":[{"name":"","type":"address","internalType":"contract IRootBridgeAdaptor"}],"stateMutability":"view"},{"type":"function","name":"rootIMXToken","inputs":[],"outputs":[{"name":"","type":"address","internalType":"address"}],"stateMutability":"view"},{"type":"function","name":"rootTokenToChildToken","inputs":[{"name":"","type":"address","internalType":"address"}],"outputs":[{"name":"","type":"address","internalType":"address"}],"stateMutability":"view"},{"type":"function","name":"rootWETHToken","inputs":[],"outputs":[{"name":"","type":"address","internalType":"address"}],"stateMutability":"view"},{"type":"function","name":"supportsInterface","inputs":[{"name":"interfaceId","type":"bytes4","internalType":"bytes4"}],"outputs":[{"name":"","type":"bool","internalType":"bool"}],"stateMutability":"view"},{"type":"function","name":"unpause","inputs":[],"outputs":[],"stateMutability":"nonpayable"},{"type":"function","name":"updateImxCumulativeDepositLimit","inputs":[{"name":"newImxCumulativeDepositLimit","type":"uint256","internalType":"uint256"}],"outputs":[],"stateMutability":"nonpayable"},{"type":"function","name":"updateRootBridgeAdaptor","inputs":[{"name":"newRootBridgeAdaptor","type":"address","internalType":"address"}],"outputs":[],"stateMutability":"nonpayable"},{"type":"event","name":"ChildChainERC20Deposit","inputs":[{"name":"rootToken","type":"address","indexed":true,"internalType":"address"},{"name":"childToken","type":"address","indexed":true,"internalType":"address"},{"name":"depositor","type":"address","indexed":false,"internalType":"address"},{"name":"receiver","type":"address","indexed":true,"internalType":"address"},{"name":"amount","type":"uint256","indexed":false,"internalType":"uint256"}],"anonymous":false},{"type":"event","name":"IMXDeposit","inputs":[{"name":"rootToken","type":"address","indexed":true,"internalType":"address"},{"name":"depositor","type":"address","indexed":false,"internalType":"address"},{"name":"receiver","type":"address","indexed":true,"internalType":"address"},{"name":"amount","type":"uint256","indexed":false,"internalType":"uint256"}],"anonymous":false},{"type":"event","name":"Initialized","inputs":[{"name":"version","type":"uint8","indexed":false,"internalType":"uint8"}],"anonymous":false},{"type":"event","name":"L1TokenMapped","inputs":[{"name":"rootToken","type":"address","indexed":true,"internalType":"address"},{"name":"childToken","type":"address","indexed":true,"internalType":"address"}],"anonymous":false},{"type":"event","name":"NativeEthDeposit","inputs":[{"name":"rootToken","type":"address","indexed":true,"internalType":"address"},{"name":"childToken","type":"address","indexed":true,"internalType":"address"},{"name":"depositor","type":"address","indexed":false,"internalType":"address"},{"name":"receiver","type":"address","indexed":true,"internalType":"address"},{"name":"amount","type":"uint256","indexed":false,"internalType":"uint256"}],"anonymous":false},{"type":"event","name":"NewImxDepositLimit","inputs":[{"name":"oldImxDepositLimit","type":"uint256","indexed":false,"internalType":"uint256"},{"name":"newImxDepositLimit","type":"uint256","indexed":false,"internalType":"uint256"}],"anonymous":false},{"type":"event","name":"Paused","inputs":[{"name":"account","type":"address","indexed":false,"internalType":"address"}],"anonymous":false},{"type":"event","name":"RoleAdminChanged","inputs":[{"name":"role","type":"bytes32","indexed":true,"internalType":"bytes32"},{"name":"previousAdminRole","type":"bytes32","indexed":true,"internalType":"bytes32"},{"name":"newAdminRole","type":"bytes32","indexed":true,"internalType":"bytes32"}],"anonymous":false},{"type":"event","name":"RoleGranted","inputs":[{"name":"role","type":"bytes32","indexed":true,"internalType":"bytes32"},{"name":"account","type":"address","indexed":true,"internalType":"address"},{"name":"sender","type":"address","indexed":true,"internalType":"address"}],"anonymous":false},{"type":"event","name":"RoleRevoked","inputs":[{"name":"role","type":"bytes32","indexed":true,"internalType":"bytes32"},{"name":"account","type":"address","indexed":true,"internalType":"address"},{"name":"sender","type":"address","indexed":true,"internalType":"address"}],"anonymous":false},{"type":"event","name":"RootBridgeAdaptorUpdated","inputs":[{"name":"oldRootBridgeAdaptor","type":"address","indexed":false,"internalType":"address"},{"name":"newRootBridgeAdaptor","type":"address","indexed":false,"internalType":"address"}],"anonymous":false},{"type":"event","name":"RootChainERC20Withdraw","inputs":[{"name":"rootToken","type":"address","indexed":true,"internalType":"address"},{"name":"childToken","type":"address","indexed":true,"internalType":"address"},{"name":"withdrawer","type":"address","indexed":false,"internalType":"address"},{"name":"receiver","type":"address","indexed":true,"internalType":"address"},{"name":"amount","type":"uint256","indexed":false,"internalType":"uint256"}],"anonymous":false},{"type":"event","name":"RootChainETHWithdraw","inputs":[{"name":"rootToken","type":"address","indexed":true,"internalType":"address"},{"name":"childToken","type":"address","indexed":true,"internalType":"address"},{"name":"withdrawer","type":"address","indexed":false,"internalType":"address"},{"name":"receiver","type":"address","indexed":true,"internalType":"address"},{"name":"amount","type":"uint256","indexed":false,"internalType":"uint256"}],"anonymous":false},{"type":"event","name":"Unpaused","inputs":[{"name":"account","type":"address","indexed":false,"internalType":"address"}],"anonymous":false},{"type":"event","name":"WETHDeposit","inputs":[{"name":"rootToken","type":"address","indexed":true,"internalType":"address"},{"name":"childToken","type":"address","indexed":true,"internalType":"address"},{"name":"depositor","type":"address","indexed":false,"internalType":"address"},{"name":"receiver","type":"address","indexed":true,"internalType":"address"},{"name":"amount","type":"uint256","indexed":false,"internalType":"uint256"}],"anonymous":false},{"type":"error","name":"AlreadyMapped","inputs":[]},{"type":"error","name":"BalanceInvariantCheckFailed","inputs":[{"name":"actualBalance","type":"uint256","internalType":"uint256"},{"name":"expectedBalance","type":"uint256","internalType":"uint256"}]},{"type":"error","name":"CantMapETH","inputs":[]},{"type":"error","name":"CantMapIMX","inputs":[]},{"type":"error","name":"CantMapWETH","inputs":[]},{"type":"error","name":"ImxDepositLimitExceeded","inputs":[]},{"type":"error","name":"ImxDepositLimitTooLow","inputs":[]},{"type":"error","name":"InsufficientValue","inputs":[]},{"type":"error","name":"InvalidChildChain","inputs":[]},{"type":"error","name":"InvalidData","inputs":[{"name":"reason","type":"string","internalType":"string"}]},{"type":"error","name":"NoGas","inputs":[]},{"type":"error","name":"NonWrappedNativeTransfer","inputs":[]},{"type":"error","name":"NotBridgeAdaptor","inputs":[]},{"type":"error","name":"NotMapped","inputs":[]},{"type":"error","name":"TokenNotSupported","inputs":[]},{"type":"error","name":"UnauthorizedInitializer","inputs":[]},{"type":"error","name":"ZeroAddress","inputs":[]},{"type":"error","name":"ZeroAmount","inputs":[]}],"bytecode":{"object":"0x60a06040523480156200001157600080fd5b50604051620031993803806200319983398101604081905262000034916200006e565b6001600160a01b0381166200005c5760405163d92e233d60e01b815260040160405180910390fd5b6001600160a01b0316608052620000a0565b6000602082840312156200008157600080fd5b81516001600160a01b03811681146200009957600080fd5b9392505050565b6080516130d6620000c36000396000818161073b015261120b01526130d66000f3fe6080604052600436106102815760003560e01c806389c65d411161014f578063d68d5fd6116100c1578063e63ab1e91161007a578063e63ab1e9146107d4578063f213159c146107f6578063f4a120f714610809578063f64512551461081c578063f865af0814610850578063fb1bb9de1461087057600080fd5b8063d68d5fd614610709578063d6dc0b0d14610729578063d83767161461075d578063da51c71e1461077e578063dee1ef0d146107a0578063e0410432146107c157600080fd5b8063a8deae5611610113578063a8deae5614610620578063b176806514610640578063b68ad1e414610674578063c880d91514610695578063d41f1771146106b5578063d547741f146106e957600080fd5b806389c65d411461059f5780638c956990146105bf5780638f70121f146105e057806391d1485414610600578063a217fddf146104e857600080fd5b806347e7ef24116101f357806368673a03116101ac57806368673a03146104e85780636c11c21c146104fd5780637248c77c1461051d5780637ab5e3ae1461053d5780637efab4f5146105535780638456cb591461058a57600080fd5b806347e7ef2414610452578063499fa04b146104655780635358fbda146104865780635c975abb146104995780636066ae87146104b157806367e4e189146104d157600080fd5b80632540e2da116102455780632540e2da1461039b57806326fe4fc3146103bb5780632f2ff15d146103dd57806332968782146103fd57806336568abe1461041d5780633f4ba83a1461043d57600080fd5b8063011e1167146102b957806301ffc9a7146102ec57806307b2b7ad1461031c578063106d57261461033c578063248a9ca31461035d57600080fd5b366102b457610133546001600160a01b031633146102b257604051630402506f60e01b815260040160405180910390fd5b005b600080fd5b3480156102c557600080fd5b506102cf610eee81565b6040516001600160a01b0390911681526020015b60405180910390f35b3480156102f857600080fd5b5061030c610307366004612991565b610892565b60405190151581526020016102e3565b34801561032857600080fd5b506102b26103373660046129db565b6108c9565b34801561034857600080fd5b5061012f546102cf906001600160a01b031681565b34801561036957600080fd5b5061038d6103783660046129f8565b60009081526065602052604090206001015490565b6040519081526020016102e3565b3480156103a757600080fd5b506102b26103b63660046129db565b6108f0565b3480156103c757600080fd5b5061038d60008051602061308183398151915281565b3480156103e957600080fd5b506102b26103f8366004612a11565b610913565b34801561040957600080fd5b506102b26104183660046129db565b61093d565b34801561042957600080fd5b506102b2610438366004612a11565b610960565b34801561044957600080fd5b506102b26109df565b6102b2610460366004612a41565b610a02565b34801561047157600080fd5b5061012e546102cf906001600160a01b031681565b6102b26104943660046129f8565b610a0d565b3480156104a557600080fd5b5060975460ff1661030c565b3480156104bd57600080fd5b506102b26104cc3660046129db565b610a17565b3480156104dd57600080fd5b5061038d6101345481565b3480156104f457600080fd5b5061038d600081565b34801561050957600080fd5b506102b26105183660046129db565b610a3a565b34801561052957600080fd5b506102b2610538366004612a6d565b610a5d565b34801561054957600080fd5b506102cf610fff81565b34801561055f57600080fd5b506102cf61056e3660046129db565b61012d602052600090815260409020546001600160a01b031681565b34801561059657600080fd5b506102b2610ba3565b3480156105ab57600080fd5b506102b26105ba3660046129db565b610bc3565b3480156105cb57600080fd5b50610131546102cf906001600160a01b031681565b3480156105ec57600080fd5b506102b26105fb3660046129db565b610be6565b34801561060c57600080fd5b5061030c61061b366004612a11565b610c09565b34801561062c57600080fd5b506102b261063b3660046129db565b610c34565b34801561064c57600080fd5b5061038d7f7a8dc26796a1e50e6e190b70259f58f6a4edd5b22280ceecc82b687b8e98286981565b34801561068057600080fd5b50610130546102cf906001600160a01b031681565b3480156106a157600080fd5b506102b26106b0366004612b1e565b610cdf565b3480156106c157600080fd5b5061038d7f87a7811f4bfedea3d341ad165680ae306b01aaeacc205d227629cf157dd9f82181565b3480156106f557600080fd5b506102b2610704366004612a11565b610dfe565b34801561071557600080fd5b506102b26107243660046129f8565b610e23565b34801561073557600080fd5b506102cf7f000000000000000000000000000000000000000000000000000000000000000081565b34801561076957600080fd5b50610133546102cf906001600160a01b031681565b34801561078a57600080fd5b5061038d60008051602061302183398151915281565b3480156107ac57600080fd5b50610132546102cf906001600160a01b031681565b6102b26107cf366004612a41565b610f17565b3480156107e057600080fd5b5061038d60008051602061306183398151915281565b6102b2610804366004612c09565b610f21565b6102cf6108173660046129db565b610f2c565b34801561082857600080fd5b5061038d7f2cef46a936bdc5b7e6e8c71aa04560c41cf7d88bb26901a7e7f4936ff02accad81565b34801561085c57600080fd5b506102b261086b3660046129db565b610f44565b34801561087c57600080fd5b5061038d60008051602061304183398151915281565b60006001600160e01b03198216637965db0b60e01b14806108c357506301ffc9a760e01b6001600160e01b03198316145b92915050565b60006108d481610f67565b6108ec60008051602061308183398151915283610913565b5050565b60006108fb81610f67565b6108ec60008051602061304183398151915283610dfe565b60008281526065602052604090206001015461092e81610f67565b6109388383610f71565b505050565b600061094881610f67565b6108ec60008051602061304183398151915283610913565b6001600160a01b03811633146109d55760405162461bcd60e51b815260206004820152602f60248201527f416363657373436f6e74726f6c3a2063616e206f6e6c792072656e6f756e636560448201526e103937b632b9903337b91039b2b63360891b60648201526084015b60405180910390fd5b6108ec8282610ff7565b6000805160206130418339815191526109f781610f67565b6109ff61105e565b50565b6108ec8233836110b0565b6109ff33826110dc565b6000610a2281610f67565b6108ec60008051602061308183398151915283610dfe565b6000610a4581610f67565b6108ec60008051602061306183398151915283610913565b610a6561114b565b61012e546001600160a01b03163314610a915760405163122d54c760e11b815260040160405180910390fd5b60208111610ad35760405163180a097760e01b815260206004820152600e60248201526d11185d18481d1bdbc81cda1bdc9d60921b60448201526064016109cc565b7f7a8dc26796a1e50e6e190b70259f58f6a4edd5b22280ceecc82b687b8e982869610b02602060008486612c4a565b610b0b91612c74565b03610b5a576108ec610b208260208186612c4a565b8080601f01602080910402602001604051908101604052809392919081815260200183838082843760009201919091525061119392505050565b60405163180a097760e01b815260206004820152601c60248201527f556e737570706f7274656420616374696f6e207369676e61747572650000000060448201526064016109cc565b600080516020613061833981519152610bbb81610f67565b6109ff6111c3565b6000610bce81610f67565b6108ec60008051602061302183398151915283610dfe565b6000610bf181610f67565b6108ec60008051602061302183398151915283610913565b60009182526065602090815260408084206001600160a01b0393909316845291905290205460ff1690565b600080516020613021833981519152610c4c81610f67565b6001600160a01b038216610c735760405163d92e233d60e01b815260040160405180910390fd5b61012e54604080516001600160a01b03928316815291841660208301527f9f505d2f223df1f36d2bbc40c8817da20509a9722f3fc09d005bb9d5df154210910160405180910390a15061012e80546001600160a01b0319166001600160a01b0392909216919091179055565b600054610100900460ff1615808015610cff5750600054600160ff909116105b80610d195750303b158015610d19575060005460ff166001145b610d7c5760405162461bcd60e51b815260206004820152602e60248201527f496e697469616c697a61626c653a20636f6e747261637420697320616c72656160448201526d191e481a5b9a5d1a585b1a5e995960921b60648201526084016109cc565b6000805460ff191660011790558015610d9f576000805461ff0019166101001790555b610dae88888888888888611200565b8015610df4576000805461ff0019169055604051600181527f7f26b83ff96e1f2b6a682f133852f6798a09c465da95921460cefb38474024989060200160405180910390a15b5050505050505050565b600082815260656020526040902060010154610e1981610f67565b6109388383610ff7565b600080516020613081833981519152610e3b81610f67565b8115801590610eb55750610131546040516370a0823160e01b81523060048201526001600160a01b03909116906370a0823190602401602060405180830381865afa158015610e8e573d6000803e3d6000fd5b505050506040513d601f19601f82011682018060405250810190610eb29190612c92565b82105b15610ed3576040516308c4bd0b60e11b815260040160405180910390fd5b6101345460408051918252602082018490527f20f79e1e156e9d4acad9184b2d8283c178ddb9638463180bf2176285b77ab76b910160405180910390a15061013455565b6108ec82826110dc565b6109388383836110b0565b6000610f3661114b565b6108c3826114eb565b919050565b6000610f4f81610f67565b6108ec60008051602061306183398151915283610dfe565b6109ff813361178d565b610f7b8282610c09565b6108ec5760008281526065602090815260408083206001600160a01b03851684529091529020805460ff19166001179055610fb33390565b6001600160a01b0316816001600160a01b0316837f2f8788117e7eff1d82e926ec794901d17c78024a50270940304540a733656f0d60405160405180910390a45050565b6110018282610c09565b156108ec5760008281526065602090815260408083206001600160a01b0385168085529252808320805460ff1916905551339285917ff6391f5c32d9c69d2a47ea670b442974b53935d1edc7fd64eb21e047a839171b9190a45050565b6110666117e6565b6097805460ff191690557f5db9ee0a495bf2e6ff9c91a7834c1ba4fdd244a5e8aa4e537bd38aeae4b073aa335b6040516001600160a01b03909116815260200160405180910390a1565b610133546001600160a01b03908116908416036110d157610938828261182f565b6109388383836118fd565b803410156110fd5760405163044044a560e21b815260040160405180910390fd5b60006111098234612cc1565b6111139047612cc1565b9050611122610eee8484611a7c565b80471461093857604051637244981560e11b8152476004820152602481018290526044016109cc565b60975460ff16156111915760405162461bcd60e51b815260206004820152601060248201526f14185d5cd8589b194e881c185d5cd95960821b60448201526064016109cc565b565b60008060008060006111a486611d2b565b945094509450945094506111bb8585858585611e05565b505050505050565b6111cb61114b565b6097805460ff191660011790557f62e78cea01bee320cd4e420270b5ea74000d11b0c9f74754ebdbfc544b05a2586110933390565b336001600160a01b037f0000000000000000000000000000000000000000000000000000000000000000161461124957604051630d622feb60e01b815260040160405180910390fd5b6001600160a01b038616158061126657506001600160a01b038516155b8061127857506001600160a01b038416155b8061128a57506001600160a01b038316155b8061129c57506001600160a01b038216155b806112af575086516001600160a01b0316155b806112c5575060208701516001600160a01b0316155b806112db575060408701516001600160a01b0316155b806112f1575060608701516001600160a01b0316155b80611307575060808701516001600160a01b0316155b156113255760405163d92e233d60e01b815260040160405180910390fd5b61132d611ee9565b611335611f10565b61133d611f3f565b865161134b90600090610f71565b6113676000805160206130618339815191528860200151610f71565b6113836000805160206130418339815191528860400151610f71565b61139f6000805160206130818339815191528860600151610f71565b6113bb6000805160206130218339815191528860800151610f71565b61012f80546001600160a01b038781166001600160a01b03199283161790925561013080548784169083168117909155610131805487851690841617905561013380549386169390921692909217905560405161077760611b602082015261144b919060340160408051601f19818403018152919052805160209091012061012f546001600160a01b0316611f6e565b61013280546001600160a01b03199081166001600160a01b039384161790915561012e805482169883169890981790975561013491909155610131548116600081815261012d602052604080822080548a169093179092557fad76b4044bfa734d1658e7587c3fd33991772c4284f450d12a829695b2e0bd048054610eee908a168117909155610133549093168152208054909616179094555050505050565b60003460000361150e57604051631d3e008d60e21b815260040160405180910390fd5b6001600160a01b0382166115355760405163d92e233d60e01b815260040160405180910390fd5b610131546001600160a01b03908116908316036115655760405163a9a43cf960e01b815260040160405180910390fd5b610eed196001600160a01b038316016115915760405163e9edc9b360e01b815260040160405180910390fd5b610133546001600160a01b03908116908316036115c1576040516311eba7e360e01b815260040160405180910390fd5b6001600160a01b03828116600090815261012d602052604090205416156115fb57604051632a431ae760e11b815260040160405180910390fd5b61012f54610130546040516bffffffffffffffffffffffff19606086901b1660208201526001600160a01b0392831692600092611654929116906034016040516020818303038152906040528051906020012084611f6e565b6001600160a01b03858116600090815261012d6020526040812080546001600160a01b03191692841692909217909155909150808061169287611fca565b92509250925060007f2cef46a936bdc5b7e6e8c71aa04560c41cf7d88bb26901a7e7f4936ff02accad888585856040516020016116d3959493929190612d24565b60408051601f198184030181529082905261012e54637903aadd60e11b83529092506001600160a01b03169063f20755ba9034906117179085903390600401612d76565b6000604051808303818588803b15801561173057600080fd5b505af1158015611744573d6000803e3d6000fd5b50506040516001600160a01b03808a1694508c1692507fadbf4fee5f2ebdb59bcf27cd835d152ca7931a51cb921c5f8fdc43cf7c1f33049150600090a350929695505050505050565b6117978282610c09565b6108ec576117a481612156565b6117af836020612168565b6040516020016117c0929190612da0565b60408051601f198184030181529082905262461bcd60e51b82526109cc91600401612e15565b60975460ff166111915760405162461bcd60e51b815260206004820152601460248201527314185d5cd8589b194e881b9bdd081c185d5cd95960621b60448201526064016109cc565b600061183b8247612e28565b610133549091506001600160a01b03166118578133308661230b565b61013354604051632e1a7d4d60e01b8152600481018590526001600160a01b0390911690632e1a7d4d90602401600060405180830381600087803b15801561189e57600080fd5b505af11580156118b2573d6000803e3d6000fd5b505050508147146118df57604051637244981560e11b8152476004820152602481018390526044016109cc565b610133546118f7906001600160a01b03168585611a7c565b50505050565b6040516370a0823160e01b815230600482015260009082906001600160a01b038616906370a0823190602401602060405180830381865afa158015611946573d6000803e3d6000fd5b505050506040513d601f19601f8201168201806040525081019061196a9190612c92565b6119749190612e28565b9050611981848484611a7c565b6040516370a0823160e01b815230600482015281906001600160a01b038616906370a0823190602401602060405180830381865afa1580156119c7573d6000803e3d6000fd5b505050506040513d601f19601f820116820180604052508101906119eb9190612c92565b146118f7576040516370a0823160e01b81523060048201526001600160a01b038516906370a0823190602401602060405180830381865afa158015611a34573d6000803e3d6000fd5b505050506040513d601f19601f82011682018060405250810190611a589190612c92565b604051637244981560e11b81526004810191909152602481018290526044016109cc565b611a84612376565b611a8c61114b565b6101315461013454849183916001600160a01b0391821691841682148015611ab357508015155b15611b4d576040516370a0823160e01b8152306004820152819084906001600160a01b038516906370a0823190602401602060405180830381865afa158015611b00573d6000803e3d6000fd5b505050506040513d601f19601f82011682018060405250810190611b249190612c92565b611b2e9190612e28565b1115611b4d5760405163cf79cc9b60e01b815260040160405180910390fd5b6001600160a01b0386161580611b6a57506001600160a01b038716155b15611b885760405163d92e233d60e01b815260040160405180910390fd5b84600003611ba957604051631f2a200560e01b815260040160405180910390fd5b34600003611bca57604051631d3e008d60e21b815260040160405180910390fd5b6001600160a01b03878116600090815261012d602052604090205416611c0357604051633a3c22ef60e11b815260040160405180910390fd5b610133546000906001600160a01b03898116911614611c225787611c26565b610eee5b604080517f87a7811f4bfedea3d341ad165680ae306b01aaeacc205d227629cf157dd9f82160208201526001600160a01b03838116828401523360608301528a8116608083015260a08083018b90528351808403909101815260c09092019092529192506000908a16610eee14611c9d5734611ca7565b611ca78834612cc1565b61012e54604051637903aadd60e11b81529192506001600160a01b03169063f20755ba908390611cdd9086903390600401612d76565b6000604051808303818588803b158015611cf657600080fd5b505af1158015611d0a573d6000803e3d6000fd5b5050505050611d1a8a8a8a6123cf565b50505050505050610938600160fb55565b600080600080600085806020019051810190611d479190612e3b565b929750909450925090506001600160a01b038516611d785760405163d92e233d60e01b815260040160405180910390fd5b610131546001600160a01b0390811690861603611d9957610fff9350611dfc565b610eed196001600160a01b03861601611dc057610132546001600160a01b03169350611dfc565b6001600160a01b03808616600090815261012d602052604090205416935083611dfc57604051633a3c22ef60e11b815260040160405180910390fd5b91939590929450565b611e0d61114b565b610eed196001600160a01b03861601611e7e57611e2a8282612589565b604080516001600160a01b038581168252602082018490528085169290871691610eee917f4327909ba044fbe8b04a4d999929cd91a03b30ebfae467b54c16353a44660f43910160405180910390a4611ee2565b611e926001600160a01b03861683836126a2565b604080516001600160a01b038581168252602082018490528085169287821692918916917f6e90696e59c60d3ffd22a244d98b9d73dae6642f03b99cd4d3e5aa852121443b910160405180910390a45b5050505050565b600054610100900460ff166111915760405162461bcd60e51b81526004016109cc90612e8e565b600054610100900460ff16611f375760405162461bcd60e51b81526004016109cc90612e8e565b6111916126d2565b600054610100900460ff16611f665760405162461bcd60e51b81526004016109cc90612e8e565b611191612705565b60405160388101919091526f5af43d82803e903d91602b57fd5bf3ff60248201526014810192909252733d602d80600a3d3981f3363d3d373d3d3d363d73825260588201526037600c8201206078820152605560439091012090565b60608060006060846001600160a01b03166306fdde036040518163ffffffff1660e01b8152600401600060405180830381865afa92505050801561203057506040513d6000823e601f3d908101601f1916820160405261202d9190810190612ed9565b60015b61204d57604051633dd1b30560e01b815260040160405180910390fd5b90506060856001600160a01b03166395d89b416040518163ffffffff1660e01b8152600401600060405180830381865afa9250505080156120b057506040513d6000823e601f3d908101601f191682016040526120ad9190810190612ed9565b60015b6120cd57604051633dd1b30560e01b815260040160405180910390fd5b90506000866001600160a01b031663313ce5676040518163ffffffff1660e01b8152600401602060405180830381865afa92505050801561212b575060408051601f3d908101601f1916820190925261212891810190612f7b565b60015b61214857604051633dd1b30560e01b815260040160405180910390fd5b929791965091945092505050565b60606108c36001600160a01b03831660145b60606000612177836002612f9e565b612182906002612e28565b67ffffffffffffffff81111561219a5761219a612adf565b6040519080825280601f01601f1916602001820160405280156121c4576020820181803683370190505b509050600360fc1b816000815181106121df576121df612fb5565b60200101906001600160f81b031916908160001a905350600f60fb1b8160018151811061220e5761220e612fb5565b60200101906001600160f81b031916908160001a9053506000612232846002612f9e565b61223d906001612e28565b90505b60018111156122b5576f181899199a1a9b1b9c1cb0b131b232b360811b85600f166010811061227157612271612fb5565b1a60f81b82828151811061228757612287612fb5565b60200101906001600160f81b031916908160001a90535060049490941c936122ae81612fcb565b9050612240565b5083156123045760405162461bcd60e51b815260206004820181905260248201527f537472696e67733a20686578206c656e67746820696e73756666696369656e7460448201526064016109cc565b9392505050565b6040516001600160a01b03808516602483015283166044820152606481018290526118f79085906323b872dd60e01b906084015b60408051601f198184030181529190526020810180516001600160e01b03166001600160e01b03199093169290921790915261272c565b600260fb54036123c85760405162461bcd60e51b815260206004820152601f60248201527f5265656e7472616e637947756172643a207265656e7472616e742063616c6c0060448201526064016109cc565b600260fb55565b610eed196001600160a01b03841601612438576101325460408051338152602081018490526001600160a01b0385811693811692908716917fd1b4e24e81f1c901551420568a9447fd105593af143ae8b096c6385e4fb7ec8691015b60405180910390a4505050565b610133546001600160a01b039081169084160361249c576101325460408051338152602081018490526001600160a01b0385811693811692908716917fa88fe860ecdd7b9e7311676f780fe08f0ed96990b74319e26ad505932d36890f910161242b565b610131546001600160a01b03908116908416036125115760408051338152602081018390526001600160a01b0380851692908616917f8294ebca1c2aada95b98b62a8d705ba5d7be4bdb75901d3f0eeb35062b706c79910160405180910390a36109386001600160a01b03841633308461230b565b6001600160a01b03838116600081815261012d6020908152604091829020548251338152918201869052868516941692917f3207f1f801a6ba9b6005cb9dc97d8498df3407dc7b1c7a644c7b57997f4f03c5910160405180910390a46109386001600160a01b03841633308461230b565b600160fb55565b804710156125d95760405162461bcd60e51b815260206004820152601d60248201527f416464726573733a20696e73756666696369656e742062616c616e636500000060448201526064016109cc565b6000826001600160a01b03168260405160006040518083038185875af1925050503d8060008114612626576040519150601f19603f3d011682016040523d82523d6000602084013e61262b565b606091505b50509050806109385760405162461bcd60e51b815260206004820152603a60248201527f416464726573733a20756e61626c6520746f2073656e642076616c75652c207260448201527f6563697069656e74206d6179206861766520726576657274656400000000000060648201526084016109cc565b6040516001600160a01b03831660248201526044810182905261093890849063a9059cbb60e01b9060640161233f565b600054610100900460ff166126f95760405162461bcd60e51b81526004016109cc90612e8e565b6097805460ff19169055565b600054610100900460ff166125825760405162461bcd60e51b81526004016109cc90612e8e565b6000612781826040518060400160405280602081526020017f5361666545524332303a206c6f772d6c6576656c2063616c6c206661696c6564815250856001600160a01b03166128019092919063ffffffff16565b90508051600014806127a25750808060200190518101906127a29190612fe2565b6109385760405162461bcd60e51b815260206004820152602a60248201527f5361666545524332303a204552433230206f7065726174696f6e20646964206e6044820152691bdd081cdd58d8d9595960b21b60648201526084016109cc565b60606128108484600085612818565b949350505050565b6060824710156128795760405162461bcd60e51b815260206004820152602660248201527f416464726573733a20696e73756666696369656e742062616c616e636520666f6044820152651c8818d85b1b60d21b60648201526084016109cc565b600080866001600160a01b031685876040516128959190613004565b60006040518083038185875af1925050503d80600081146128d2576040519150601f19603f3d011682016040523d82523d6000602084013e6128d7565b606091505b50915091506128e8878383876128f3565b979650505050505050565b6060831561296257825160000361295b576001600160a01b0385163b61295b5760405162461bcd60e51b815260206004820152601d60248201527f416464726573733a2063616c6c20746f206e6f6e2d636f6e747261637400000060448201526064016109cc565b5081612810565b61281083838151156129775781518083602001fd5b8060405162461bcd60e51b81526004016109cc9190612e15565b6000602082840312156129a357600080fd5b81356001600160e01b03198116811461230457600080fd5b6001600160a01b03811681146109ff57600080fd5b8035610f3f816129bb565b6000602082840312156129ed57600080fd5b8135612304816129bb565b600060208284031215612a0a57600080fd5b5035919050565b60008060408385031215612a2457600080fd5b823591506020830135612a36816129bb565b809150509250929050565b60008060408385031215612a5457600080fd5b8235612a5f816129bb565b946020939093013593505050565b60008060208385031215612a8057600080fd5b823567ffffffffffffffff80821115612a9857600080fd5b818501915085601f830112612aac57600080fd5b813581811115612abb57600080fd5b866020828501011115612acd57600080fd5b60209290920196919550909350505050565b634e487b7160e01b600052604160045260246000fd5b60405160a0810167ffffffffffffffff81118282101715612b1857612b18612adf565b60405290565b6000806000806000806000878903610160811215612b3b57600080fd5b60a0811215612b4957600080fd5b50612b52612af5565b8835612b5d816129bb565b81526020890135612b6d816129bb565b60208201526040890135612b80816129bb565b60408201526060890135612b93816129bb565b60608201526080890135612ba6816129bb565b60808201529650612bb960a089016129d0565b9550612bc760c089016129d0565b9450612bd560e089016129d0565b9350612be461010089016129d0565b9250612bf361012089016129d0565b9150610140880135905092959891949750929550565b600080600060608486031215612c1e57600080fd5b8335612c29816129bb565b92506020840135612c39816129bb565b929592945050506040919091013590565b60008085851115612c5a57600080fd5b83861115612c6757600080fd5b5050820193919092039150565b803560208310156108c357600019602084900360031b1b1692915050565b600060208284031215612ca457600080fd5b5051919050565b634e487b7160e01b600052601160045260246000fd5b818103818111156108c3576108c3612cab565b60005b83811015612cef578181015183820152602001612cd7565b50506000910152565b60008151808452612d10816020860160208601612cd4565b601f01601f19169290920160200192915050565b8581526001600160a01b038516602082015260a060408201819052600090612d4e90830186612cf8565b8281036060840152612d608186612cf8565b91505060ff831660808301529695505050505050565b604081526000612d896040830185612cf8565b905060018060a01b03831660208301529392505050565b7f416363657373436f6e74726f6c3a206163636f756e7420000000000000000000815260008351612dd8816017850160208801612cd4565b7001034b99036b4b9b9b4b733903937b6329607d1b6017918401918201528351612e09816028840160208801612cd4565b01602801949350505050565b6020815260006123046020830184612cf8565b808201808211156108c3576108c3612cab565b60008060008060808587031215612e5157600080fd5b8451612e5c816129bb565b6020860151909450612e6d816129bb565b6040860151909350612e7e816129bb565b6060959095015193969295505050565b6020808252602b908201527f496e697469616c697a61626c653a20636f6e7472616374206973206e6f74206960408201526a6e697469616c697a696e6760a81b606082015260800190565b600060208284031215612eeb57600080fd5b815167ffffffffffffffff80821115612f0357600080fd5b818401915084601f830112612f1757600080fd5b815181811115612f2957612f29612adf565b604051601f8201601f19908116603f01168101908382118183101715612f5157612f51612adf565b81604052828152876020848701011115612f6a57600080fd5b6128e8836020830160208801612cd4565b600060208284031215612f8d57600080fd5b815160ff8116811461230457600080fd5b80820281158282048414176108c3576108c3612cab565b634e487b7160e01b600052603260045260246000fd5b600081612fda57612fda612cab565b506000190190565b600060208284031215612ff457600080fd5b8151801515811461230457600080fd5b60008251613016818460208701612cd4565b919091019291505056fea6d0b532cacea090bc411482cd491720e2eac14d48ce5d0402b8851e0bb2aec182b32d9ab5100db08aeb9a0e08b422d14851ec118736590462bf9c085a6e9448539440820030c4994db4e31b6b800deafd503688728f932addfe7a410515c14c5b94a8cd68affa84315f488cc2e6e456f761d334859cae8a073ef8fe13fb0ee6a2646970667358221220c62b9b20c91c5e42d2b9b8306c2fd2471f4c1c625d60ab478655d496326d92f564736f6c63430008130033","linkReferences":{}},"methodIdentifiers":{"ADAPTOR_MANAGER_ROLE()":"da51c71e","DEFAULT_ADMIN_ROLE()":"a217fddf","DEPOSIT_SIG()":"d41f1771","MAP_TOKEN_SIG()":"f6451255","NATIVE_ETH()":"011e1167","NATIVE_IMX()":"7ab5e3ae","PAUSER_ROLE()":"e63ab1e9","UNLIMITED_DEPOSIT()":"68673a03","UNPAUSER_ROLE()":"fb1bb9de","VARIABLE_MANAGER_ROLE()":"26fe4fc3","WITHDRAW_SIG()":"b1768065","childERC20Bridge()":"106d5726","childETHToken()":"dee1ef0d","childTokenTemplate()":"b68ad1e4","deposit(address,uint256)":"47e7ef24","depositETH(uint256)":"5358fbda","depositTo(address,address,uint256)":"f213159c","depositToETH(address,uint256)":"e0410432","getRoleAdmin(bytes32)":"248a9ca3","grantAdaptorManagerRole(address)":"8f70121f","grantPauserRole(address)":"6c11c21c","grantRole(bytes32,address)":"2f2ff15d","grantUnpauserRole(address)":"32968782","grantVariableManagerRole(address)":"07b2b7ad","hasRole(bytes32,address)":"91d14854","imxCumulativeDepositLimit()":"67e4e189","initialize((address,address,address,address,address),address,address,address,address,address,uint256)":"c880d915","initializerAddress()":"d6dc0b0d","mapToken(address)":"f4a120f7","onMessageReceive(bytes)":"7248c77c","pause()":"8456cb59","paused()":"5c975abb","renounceRole(bytes32,address)":"36568abe","revokeAdaptorManagerRole(address)":"89c65d41","revokePauserRole(address)":"f865af08","revokeRole(bytes32,address)":"d547741f","revokeUnpauserRole(address)":"2540e2da","revokeVariableManagerRole(address)":"6066ae87","rootBridgeAdaptor()":"499fa04b","rootIMXToken()":"8c956990","rootTokenToChildToken(address)":"7efab4f5","rootWETHToken()":"d8376716","supportsInterface(bytes4)":"01ffc9a7","unpause()":"3f4ba83a","updateImxCumulativeDepositLimit(uint256)":"d68d5fd6","updateRootBridgeAdaptor(address)":"a8deae56"},"id":73}