{"abi":[{"type":"function","name":"onMessageReceive","inputs":[{"name":"","type":"bytes","internalType":"bytes"}],"outputs":[],"stateMutability":"nonpayable"}],"bytecode":{"object":"0x608060405234801561001057600080fd5b5060e18061001f6000396000f3fe6080604052348015600f57600080fd5b506004361060285760003560e01c80637248c77c14602d575b600080fd5b603c6038366004603e565b5050565b005b60008060208385031215605057600080fd5b823567ffffffffffffffff80821115606757600080fd5b818501915085601f830112607a57600080fd5b813581811115608857600080fd5b866020828501011115609957600080fd5b6020929092019691955090935050505056fea26469706673582212207217bd5ea02c374d063e9d6741afbc3e3623df50806bfbe76c942744d24b5ee864736f6c63430008130033","linkReferences":{}},"methodIdentifiers":{"onMessageReceive(bytes)":"7248c77c"},"id":170}