{"abi":[{"type":"constructor","inputs":[{"name":"_initializerAddress","type":"address","internalType":"address"}],"stateMutability":"nonpayable"},{"type":"receive","stateMutability":"payable"},{"type":"function","name":"ADAPTOR_MANAGER_ROLE","inputs":[],"outputs":[{"name":"","type":"bytes32","internalType":"bytes32"}],"stateMutability":"view"},{"type":"function","name":"DEFAULT_ADMIN_ROLE","inputs":[],"outputs":[{"name":"","type":"bytes32","internalType":"bytes32"}],"stateMutability":"view"},{"type":"function","name":"DEPOSIT_SIG","inputs":[],"outputs":[{"name":"","type":"bytes32","internalType":"bytes32"}],"stateMutability":"view"},{"type":"function","name":"MAP_TOKEN_SIG","inputs":[],"outputs":[{"name":"","type":"bytes32","internalType":"bytes32"}],"stateMutability":"view"},{"type":"function","name":"NATIVE_ETH","inputs":[],"outputs":[{"name":"","type":"address","internalType":"address"}],"stateMutability":"view"},{"type":"function","name":"NATIVE_IMX","inputs":[],"outputs":[{"name":"","type":"address","internalType":"address"}],"stateMutability":"view"},{"type":"function","name":"PAUSER_ROLE","inputs":[],"outputs":[{"name":"","type":"bytes32","internalType":"bytes32"}],"stateMutability":"view"},{"type":"function","name":"PRIVILEGED_DEPOSITOR_ROLE","inputs":[],"outputs":[{"name":"","type":"bytes32","internalType":"bytes32"}],"stateMutability":"view"},{"type":"function","name":"UNPAUSER_ROLE","inputs":[],"outputs":[{"name":"","type":"bytes32","internalType":"bytes32"}],"stateMutability":"view"},{"type":"function","name":"WITHDRAW_SIG","inputs":[],"outputs":[{"name":"","type":"bytes32","internalType":"bytes32"}],"stateMutability":"view"},{"type":"function","name":"childBridgeAdaptor","inputs":[],"outputs":[{"name":"","type":"address","internalType":"contract IChildBridgeAdaptor"}],"stateMutability":"view"},{"type":"function","name":"childETHToken","inputs":[],"outputs":[{"name":"","type":"address","internalType":"address"}],"stateMutability":"view"},{"type":"function","name":"childTokenTemplate","inputs":[],"outputs":[{"name":"","type":"address","internalType":"address"}],"stateMutability":"view"},{"type":"function","name":"getRoleAdmin","inputs":[{"name":"role","type":"bytes32","internalType":"bytes32"}],"outputs":[{"name":"","type":"bytes32","internalType":"bytes32"}],"stateMutability":"view"},{"type":"function","name":"grantAdaptorManagerRole","inputs":[{"name":"account","type":"address","internalType":"address"}],"outputs":[],"stateMutability":"nonpayable"},{"type":"function","name":"grantPauserRole","inputs":[{"name":"account","type":"address","internalType":"address"}],"outputs":[],"stateMutability":"nonpayable"},{"type":"function","name":"grantRole","inputs":[{"name":"role","type":"bytes32","internalType":"bytes32"},{"name":"account","type":"address","internalType":"address"}],"outputs":[],"stateMutability":"nonpayable"},{"type":"function","name":"grantUnpauserRole","inputs":[{"name":"account","type":"address","internalType":"address"}],"outputs":[],"stateMutability":"nonpayable"},{"type":"function","name":"hasRole","inputs":[{"name":"role","type":"bytes32","internalType":"bytes32"},{"name":"account","type":"address","internalType":"address"}],"outputs":[{"name":"","type":"bool","internalType":"bool"}],"stateMutability":"view"},{"type":"function","name":"initialize","inputs":[{"name":"newRoles","type":"tuple","internalType":"struct IChildERC20Bridge.InitializationRoles","components":[{"name":"defaultAdmin","type":"address","internalType":"address"},{"name":"pauser","type":"address","internalType":"address"},{"name":"unpauser","type":"address","internalType":"address"},{"name":"adaptorManager","type":"address","internalType":"address"},{"name":"initialDepositor","type":"address","internalType":"address"},{"name":"treasuryManager","type":"address","internalType":"address"}]},{"name":"newBridgeAdaptor","type":"address","internalType":"address"},{"name":"newChildTokenTemplate","type":"address","internalType":"address"},{"name":"newRootIMXToken","type":"address","internalType":"address"},{"name":"newWIMXToken","type":"address","internalType":"address"}],"outputs":[],"stateMutability":"nonpayable"},{"type":"function","name":"initializerAddress","inputs":[],"outputs":[{"name":"","type":"address","internalType":"address"}],"stateMutability":"view"},{"type":"function","name":"onMessageReceive","inputs":[{"name":"data","type":"bytes","internalType":"bytes"}],"outputs":[],"stateMutability":"nonpayable"},{"type":"function","name":"pause","inputs":[],"outputs":[],"stateMutability":"nonpayable"},{"type":"function","name":"paused","inputs":[],"outputs":[{"name":"","type":"bool","internalType":"bool"}],"stateMutability":"view"},{"type":"function","name":"privilegedDeposit","inputs":[],"outputs":[],"stateMutability":"payable"},{"type":"function","name":"renounceRole","inputs":[{"name":"role","type":"bytes32","internalType":"bytes32"},{"name":"account","type":"address","internalType":"address"}],"outputs":[],"stateMutability":"nonpayable"},{"type":"function","name":"revokeAdaptorManagerRole","inputs":[{"name":"account","type":"address","internalType":"address"}],"outputs":[],"stateMutability":"nonpayable"},{"type":"function","name":"revokePauserRole","inputs":[{"name":"account","type":"address","internalType":"address"}],"outputs":[],"stateMutability":"nonpayable"},{"type":"function","name":"revokeRole","inputs":[{"name":"role","type":"bytes32","internalType":"bytes32"},{"name":"account","type":"address","internalType":"address"}],"outputs":[],"stateMutability":"nonpayable"},{"type":"function","name":"revokeUnpauserRole","inputs":[{"name":"account","type":"address","internalType":"address"}],"outputs":[],"stateMutability":"nonpayable"},{"type":"function","name":"rootIMXToken","inputs":[],"outputs":[{"name":"","type":"address","internalType":"address"}],"stateMutability":"view"},{"type":"function","name":"rootTokenToChildToken","inputs":[{"name":"","type":"address","internalType":"address"}],"outputs":[{"name":"","type":"address","internalType":"address"}],"stateMutability":"view"},{"type":"function","name":"supportsInterface","inputs":[{"name":"interfaceId","type":"bytes4","internalType":"bytes4"}],"outputs":[{"name":"","type":"bool","internalType":"bool"}],"stateMutability":"view"},{"type":"function","name":"unpause","inputs":[],"outputs":[],"stateMutability":"nonpayable"},{"type":"function","name":"updateChildBridgeAdaptor","inputs":[{"name":"newBridgeAdaptor","type":"address","internalType":"address"}],"outputs":[],"stateMutability":"nonpayable"},{"type":"function","name":"wIMXToken","inputs":[],"outputs":[{"name":"","type":"address","internalType":"address"}],"stateMutability":"view"},{"type":"function","name":"withdraw","inputs":[{"name":"childToken","type":"address","internalType":"contract IChildERC20"},{"name":"amount","type":"uint256","internalType":"uint256"}],"outputs":[],"stateMutability":"payable"},{"type":"function","name":"withdrawETH","inputs":[{"name":"amount","type":"uint256","internalType":"uint256"}],"outputs":[],"stateMutability":"payable"},{"type":"function","name":"withdrawETHTo","inputs":[{"name":"receiver","type":"address","internalType":"address"},{"name":"amount","type":"uint256","internalType":"uint256"}],"outputs":[],"stateMutability":"payable"},{"type":"function","name":"withdrawIMX","inputs":[{"name":"amount","type":"uint256","internalType":"uint256"}],"outputs":[],"stateMutability":"payable"},{"type":"function","name":"withdrawIMXTo","inputs":[{"name":"receiver","type":"address","internalType":"address"},{"name":"amount","type":"uint256","internalType":"uint256"}],"outputs":[],"stateMutability":"payable"},{"type":"function","name":"withdrawTo","inputs":[{"name":"childToken","type":"address","internalType":"contract IChildERC20"},{"name":"receiver","type":"address","internalType":"address"},{"name":"amount","type":"uint256","internalType":"uint256"}],"outputs":[],"stateMutability":"payable"},{"type":"function","name":"withdrawWIMX","inputs":[{"name":"amount","type":"uint256","internalType":"uint256"}],"outputs":[],"stateMutability":"payable"},{"type":"function","name":"withdrawWIMXTo","inputs":[{"name":"receiver","type":"address","internalType":"address"},{"name":"amount","type":"uint256","internalType":"uint256"}],"outputs":[],"stateMutability":"payable"},{"type":"event","name":"ChildBridgeAdaptorUpdated","inputs":[{"name":"oldChildBridgeAdaptor","type":"address","indexed":false,"internalType":"address"},{"name":"newChildBridgeAdaptor","type":"address","indexed":false,"internalType":"address"}],"anonymous":false},{"type":"event","name":"ChildChainERC20Deposit","inputs":[{"name":"rootToken","type":"address","indexed":true,"internalType":"address"},{"name":"childToken","type":"address","indexed":true,"internalType":"address"},{"name":"depositor","type":"address","indexed":false,"internalType":"address"},{"name":"receiver","type":"address","indexed":true,"internalType":"address"},{"name":"amount","type":"uint256","indexed":false,"internalType":"uint256"}],"anonymous":false},{"type":"event","name":"ChildChainERC20Withdraw","inputs":[{"name":"rootToken","type":"address","indexed":true,"internalType":"address"},{"name":"childToken","type":"address","indexed":true,"internalType":"address"},{"name":"depositor","type":"address","indexed":false,"internalType":"address"},{"name":"receiver","type":"address","indexed":true,"internalType":"address"},{"name":"amount","type":"uint256","indexed":false,"internalType":"uint256"}],"anonymous":false},{"type":"event","name":"ChildChainEthWithdraw","inputs":[{"name":"depositor","type":"address","indexed":true,"internalType":"address"},{"name":"receiver","type":"address","indexed":true,"internalType":"address"},{"name":"amount","type":"uint256","indexed":false,"internalType":"uint256"}],"anonymous":false},{"type":"event","name":"ChildChainNativeIMXWithdraw","inputs":[{"name":"rootToken","type":"address","indexed":true,"internalType":"address"},{"name":"depositor","type":"address","indexed":true,"internalType":"address"},{"name":"receiver","type":"address","indexed":true,"internalType":"address"},{"name":"amount","type":"uint256","indexed":false,"internalType":"uint256"}],"anonymous":false},{"type":"event","name":"ChildChainWrappedIMXWithdraw","inputs":[{"name":"rootToken","type":"address","indexed":true,"internalType":"address"},{"name":"depositor","type":"address","indexed":true,"internalType":"address"},{"name":"receiver","type":"address","indexed":true,"internalType":"address"},{"name":"amount","type":"uint256","indexed":false,"internalType":"uint256"}],"anonymous":false},{"type":"event","name":"IMXDeposit","inputs":[{"name":"rootToken","type":"address","indexed":true,"internalType":"address"},{"name":"depositor","type":"address","indexed":true,"internalType":"address"},{"name":"receiver","type":"address","indexed":true,"internalType":"address"},{"name":"amount","type":"uint256","indexed":false,"internalType":"uint256"}],"anonymous":false},{"type":"event","name":"Initialized","inputs":[{"name":"version","type":"uint8","indexed":false,"internalType":"uint8"}],"anonymous":false},{"type":"event","name":"L2TokenMapped","inputs":[{"name":"rootToken","type":"address","indexed":false,"internalType":"address"},{"name":"childToken","type":"address","indexed":false,"internalType":"address"}],"anonymous":false},{"type":"event","name":"NativeEthDeposit","inputs":[{"name":"rootToken","type":"address","indexed":true,"internalType":"address"},{"name":"childToken","type":"address","indexed":true,"internalType":"address"},{"name":"depositor","type":"address","indexed":false,"internalType":"address"},{"name":"receiver","type":"address","indexed":true,"internalType":"address"},{"name":"amount","type":"uint256","indexed":false,"internalType":"uint256"}],"anonymous":false},{"type":"event","name":"Paused","inputs":[{"name":"account","type":"address","indexed":false,"internalType":"address"}],"anonymous":false},{"type":"event","name":"PrivilegedDeposit","inputs":[{"name":"depositor","type":"address","indexed":true,"internalType":"address"},{"name":"amount","type":"uint256","indexed":false,"internalType":"uint256"}],"anonymous":false},{"type":"event","name":"RoleAdminChanged","inputs":[{"name":"role","type":"bytes32","indexed":true,"internalType":"bytes32"},{"name":"previousAdminRole","type":"bytes32","indexed":true,"internalType":"bytes32"},{"name":"newAdminRole","type":"bytes32","indexed":true,"internalType":"bytes32"}],"anonymous":false},{"type":"event","name":"RoleGranted","inputs":[{"name":"role","type":"bytes32","indexed":true,"internalType":"bytes32"},{"name":"account","type":"address","indexed":true,"internalType":"address"},{"name":"sender","type":"address","indexed":true,"internalType":"address"}],"anonymous":false},{"type":"event","name":"RoleRevoked","inputs":[{"name":"role","type":"bytes32","indexed":true,"internalType":"bytes32"},{"name":"account","type":"address","indexed":true,"internalType":"address"},{"name":"sender","type":"address","indexed":true,"internalType":"address"}],"anonymous":false},{"type":"event","name":"Unpaused","inputs":[{"name":"account","type":"address","indexed":false,"internalType":"address"}],"anonymous":false},{"type":"error","name":"AlreadyMapped","inputs":[]},{"type":"error","name":"BalanceInvariantCheckFailed","inputs":[{"name":"actualBalance","type":"uint256","internalType":"uint256"},{"name":"expectedBalance","type":"uint256","internalType":"uint256"}]},{"type":"error","name":"BridgeNotSet","inputs":[]},{"type":"error","name":"BurnFailed","inputs":[]},{"type":"error","name":"CantMapETH","inputs":[]},{"type":"error","name":"CantMapIMX","inputs":[]},{"type":"error","name":"EmptyTokenContract","inputs":[]},{"type":"error","name":"IncorrectBridgeAddress","inputs":[]},{"type":"error","name":"InsufficientIMX","inputs":[]},{"type":"error","name":"InsufficientValue","inputs":[]},{"type":"error","name":"InvalidData","inputs":[{"name":"reason","type":"string","internalType":"string"}]},{"type":"error","name":"MintFailed","inputs":[]},{"type":"error","name":"NoGas","inputs":[]},{"type":"error","name":"NonWrappedNativeTransfer","inputs":[]},{"type":"error","name":"NotBridgeAdaptor","inputs":[]},{"type":"error","name":"NotMapped","inputs":[]},{"type":"error","name":"TransferWIMXFailed","inputs":[]},{"type":"error","name":"UnauthorizedInitializer","inputs":[]},{"type":"error","name":"ZeroAddress","inputs":[]},{"type":"error","name":"ZeroAddressRootToken","inputs":[]},{"type":"error","name":"ZeroAmount","inputs":[]},{"type":"error","name":"ZeroValue","inputs":[]}],"bytecode":{"object":"0x60a06040523480156200001157600080fd5b5060405162002db938038062002db983398101604081905262000034916200006e565b6001600160a01b0381166200005c5760405163d92e233d60e01b815260040160405180910390fd5b6001600160a01b0316608052620000a0565b6000602082840312156200008157600080fd5b81516001600160a01b03811681146200009957600080fd5b9392505050565b608051612cf6620000c3600039600081816106d70152610e4d0152612cf66000f3fe60806040526004361061026b5760003560e01c806389c65d4111610144578063d6dc0b0d116100b6578063f14210a61161007a578063f14210a614610771578063f3dfce1d14610784578063f3fef3a3146107a4578063f6451255146107b7578063f865af08146107eb578063fb1bb9de1461080b57600080fd5b8063d6dc0b0d146106c5578063da51c71e146106f9578063de65c2e41461071b578063dee1ef0d1461072e578063e63ab1e91461074f57600080fd5b8063a217fddf11610108578063a217fddf146105f4578063b176806514610609578063b68ad1e41461063d578063c3b35a7e1461065e578063d41f177114610671578063d547741f146106a557600080fd5b806389c65d41146105605780638c956990146105805780638f70121f146105a157806391d14854146105c157806392ffd2e2146105e157600080fd5b80633f4ba83a116101dd5780636c11c21c116101a15780636c11c21c1461049c5780637248c77c146104bc57806377907d1d146104dc5780637ab5e3ae146104fe5780637efab4f5146105145780638456cb591461054b57600080fd5b80633f4ba83a1461042857806352b61e361461043d5780635c975abb1461045057806369053ed014610468578063697b894a1461048957600080fd5b80632540e2da1161022f5780632540e2da14610374578063274346b91461039457806329529c0e146103a75780632f2ff15d146103c857806332968782146103e857806336568abe1461040857600080fd5b8063011e1167146102ab57806301ffc9a7146102de5780630765c4051461030e57806318428c501461032e578063248a9ca31461033657600080fd5b366102a65761027861082d565b610132546001600160a01b031633146102a457604051630402506f60e01b815260040160405180910390fd5b005b600080fd5b3480156102b757600080fd5b506102c1610eee81565b6040516001600160a01b0390911681526020015b60405180910390f35b3480156102ea57600080fd5b506102fe6102f9366004612572565b61087a565b60405190151581526020016102d5565b34801561031a57600080fd5b506102a46103293660046125c1565b6108b1565b6102a461095c565b34801561034257600080fd5b506103666103513660046125de565b60009081526065602052604090206001015490565b6040519081526020016102d5565b34801561038057600080fd5b506102a461038f3660046125c1565b6109cd565b6102a46103a23660046125f7565b6109f4565b3480156103b357600080fd5b5061012e546102c1906001600160a01b031681565b3480156103d457600080fd5b506102a46103e3366004612623565b610a0c565b3480156103f457600080fd5b506102a46104033660046125c1565b610a36565b34801561041457600080fd5b506102a4610423366004612623565b610a59565b34801561043457600080fd5b506102a4610ad3565b6102a461044b3660046125de565b610af6565b34801561045c57600080fd5b5060975460ff166102fe565b34801561047457600080fd5b50610132546102c1906001600160a01b031681565b6102a46104973660046125f7565b610b0e565b3480156104a857600080fd5b506102a46104b73660046125c1565b610b26565b3480156104c857600080fd5b506102a46104d7366004612653565b610b49565b3480156104e857600080fd5b50610366600080516020612c6183398151915281565b34801561050a57600080fd5b506102c1610fff81565b34801561052057600080fd5b506102c161052f3660046125c1565b61012d602052600090815260409020546001600160a01b031681565b34801561055757600080fd5b506102a4610c8f565b34801561056c57600080fd5b506102a461057b3660046125c1565b610caf565b34801561058c57600080fd5b50610130546102c1906001600160a01b031681565b3480156105ad57600080fd5b506102a46105bc3660046125c1565b610cd2565b3480156105cd57600080fd5b506102fe6105dc366004612623565b610cf5565b6102a46105ef3660046125f7565b610d20565b34801561060057600080fd5b50610366600081565b34801561061557600080fd5b506103667f7a8dc26796a1e50e6e190b70259f58f6a4edd5b22280ceecc82b687b8e98286981565b34801561064957600080fd5b5061012f546102c1906001600160a01b031681565b6102a461066c3660046126c5565b610d2d565b34801561067d57600080fd5b506103667f87a7811f4bfedea3d341ad165680ae306b01aaeacc205d227629cf157dd9f82181565b3480156106b157600080fd5b506102a46106c0366004612623565b610d38565b3480156106d157600080fd5b506102c17f000000000000000000000000000000000000000000000000000000000000000081565b34801561070557600080fd5b50610366600080516020612c4183398151915281565b6102a46107293660046125de565b610d5d565b34801561073a57600080fd5b50610131546102c1906001600160a01b031681565b34801561075b57600080fd5b50610366600080516020612ca183398151915281565b6102a461077f3660046125de565b610d6a565b34801561079057600080fd5b506102a461079f366004612745565b610d82565b6102a46107b23660046125f7565b6111cb565b3480156107c357600080fd5b506103667f2cef46a936bdc5b7e6e8c71aa04560c41cf7d88bb26901a7e7f4936ff02accad81565b3480156107f757600080fd5b506102a46108063660046125c1565b6111d6565b34801561081757600080fd5b50610366600080516020612c8183398151915281565b60975460ff16156108785760405162461bcd60e51b815260206004820152601060248201526f14185d5cd8589b194e881c185d5cd95960821b60448201526064015b60405180910390fd5b565b60006001600160e01b03198216637965db0b60e01b14806108ab57506301ffc9a760e01b6001600160e01b03198316145b92915050565b600080516020612c418339815191526108c9816111f9565b6001600160a01b0382166108f05760405163d92e233d60e01b815260040160405180910390fd5b61012e54604080516001600160a01b03928316815291841660208301527f6295d9d82f5000a9dcc9019e6308fec486f74ee3f43489208a0e83b0f17fb1f6910160405180910390a15061012e80546001600160a01b0319166001600160a01b0392909216919091179055565b600080516020612c61833981519152610974816111f9565b3460000361099557604051637c946ed760e01b815260040160405180910390fd5b60405134815233907fed5ccca9e28db55e91a5eee6654c6ab321485b9586583e9f511dd0d65e3d95619060200160405180910390a250565b60006109d8816111f9565b6109f0600080516020612c8183398151915283610d38565b5050565b610132546109f0906001600160a01b03168383611203565b600082815260656020526040902060010154610a27816111f9565b610a318383611403565b505050565b6000610a41816111f9565b6109f0600080516020612c8183398151915283610a0c565b6001600160a01b0381163314610ac95760405162461bcd60e51b815260206004820152602f60248201527f416363657373436f6e74726f6c3a2063616e206f6e6c792072656e6f756e636560448201526e103937b632b9903337b91039b2b63360891b606482015260840161086f565b6109f08282611489565b600080516020612c81833981519152610aeb816111f9565b610af36114f0565b50565b61013254610af3906001600160a01b03163383611203565b610131546109f0906001600160a01b03168383611203565b6000610b31816111f9565b6109f0600080516020612ca183398151915283610a0c565b610b5161082d565b61012e546001600160a01b03163314610b7d5760405163122d54c760e11b815260040160405180910390fd5b60208111610bbf5760405163180a097760e01b815260206004820152600e60248201526d11185d18481d1bdbc81cda1bdc9d60921b604482015260640161086f565b6000610bce6020828486612828565b610bd791612852565b90507f2cef46a936bdc5b7e6e8c71aa04560c41cf7d88bb26901a7e7f4936ff02accad8103610c0a57610a318383611542565b7f87a7811f4bfedea3d341ad165680ae306b01aaeacc205d227629cf157dd9f8218103610c4657610a31610c418360208187612828565b61172e565b60405163180a097760e01b815260206004820152601c60248201527f556e737570706f7274656420616374696f6e207369676e617475726500000000604482015260640161086f565b600080516020612ca1833981519152610ca7816111f9565b610af36117ae565b6000610cba816111f9565b6109f0600080516020612c4183398151915283610d38565b6000610cdd816111f9565b6109f0600080516020612c4183398151915283610a0c565b60009182526065602090815260408084206001600160a01b0393909316845291905290205460ff1690565b6109f0610fff8383611203565b610a31838383611203565b600082815260656020526040902060010154610d53816111f9565b610a318383611489565b610af3610fff3383611203565b61013154610af3906001600160a01b03163383611203565b600054610100900460ff1615808015610da25750600054600160ff909116105b80610dbc5750303b158015610dbc575060005460ff166001145b610e1f5760405162461bcd60e51b815260206004820152602e60248201527f496e697469616c697a61626c653a20636f6e747261637420697320616c72656160448201526d191e481a5b9a5d1a585b1a5e995960921b606482015260840161086f565b6000805460ff191660011790558015610e42576000805461ff0019166101001790555b336001600160a01b037f00000000000000000000000000000000000000000000000000000000000000001614610e8b57604051630d622feb60e01b815260040160405180910390fd5b6001600160a01b0385161580610ea857506001600160a01b038416155b80610eba57506001600160a01b038316155b80610ecd575085516001600160a01b0316155b80610ee3575060208601516001600160a01b0316155b80610ef9575060408601516001600160a01b0316155b80610f0f575060608601516001600160a01b0316155b80610f25575060a08601516001600160a01b0316155b80610f3757506001600160a01b038216155b15610f555760405163d92e233d60e01b815260040160405180910390fd5b610f5d6117eb565b610f65611812565b610f6d611841565b8551610f7b90600090611403565b610f97600080516020612ca18339815191528760200151611403565b610fb3600080516020612c818339815191528760400151611403565b610fcf600080516020612c418339815191528760600151611403565b610feb600080516020612c618339815191528760800151611403565b611007600080516020612c618339815191528760a00151611403565b61012f80546001600160a01b038681166001600160a01b0319928316811790935561012e8054898316908416179055610130805487831690841617905561013280549186169190921617905560405161077760611b6020820152600091611087916034015b60405160208183030381529060405280519060200120611870565b604051637b69774360e11b8152610eee6004820152608060248201526008608482015267457468657265756d60c01b60a482015260c06044820152600360c48201526208aa8960eb1b60e4820152601260648201529091506001600160a01b0382169063f6d2ee869061010401600060405180830381600087803b15801561110e57600080fd5b505af1158015611122573d6000803e3d6000fd5b505061013180546001600160a01b039094166001600160a01b03199485168117909155610eee60005261012d6020527fad76b4044bfa734d1658e7587c3fd33991772c4284f450d12a829695b2e0bd04805490941617909255505080156111c3576000805461ff0019169055604051600181527f7f26b83ff96e1f2b6a682f133852f6798a09c465da95921460cefb38474024989060200160405180910390a15b505050505050565b6109f0823383611203565b60006111e1816111f9565b6109f0600080516020612ca183398151915283610d38565b610af3813361190d565b61120b611966565b61121361082d565b6001600160a01b038316158061123057506001600160a01b038216155b1561124e5760405163d92e233d60e01b815260040160405180910390fd5b8060000361126f57604051631f2a200560e01b815260040160405180910390fd5b3460000361129057604051631d3e008d60e21b815260040160405180910390fd5b6000610ffe196001600160a01b038516016112b5576112ae826119bf565b9050611302565b610132546001600160a01b03908116908516036112d5576112ae826119f4565b610131546001600160a01b03908116908516036112f5576112ae82611b4c565b6112ff8483611c00565b90505b604080517f7a8dc26796a1e50e6e190b70259f58f6a4edd5b22280ceecc82b687b8e98286960208201526001600160a01b0383811682840152336060830152858116608083015260a08083018690528351808403909101815260c0909201909252906000908616610fff146113775734611381565b6113818434612886565b61012e54604051637903aadd60e11b81529192506001600160a01b03169063f20755ba9083906113b790869033906004016128e9565b6000604051808303818588803b1580156113d057600080fd5b505af11580156113e4573d6000803e3d6000fd5b50505050506113f68387338888611e38565b505050610a31600160fb55565b61140d8282610cf5565b6109f05760008281526065602090815260408083206001600160a01b03851684529091529020805460ff191660011790556114453390565b6001600160a01b0316816001600160a01b0316837f2f8788117e7eff1d82e926ec794901d17c78024a50270940304540a733656f0d60405160405180910390a45050565b6114938282610cf5565b156109f05760008281526065602090815260408083206001600160a01b0385168085529252808320805460ff1916905551339285917ff6391f5c32d9c69d2a47ea670b442974b53935d1edc7fd64eb21e047a839171b9190a45050565b6114f8611fd5565b6097805460ff191690557f5db9ee0a495bf2e6ff9c91a7834c1ba4fdd244a5e8aa4e537bd38aeae4b073aa335b6040516001600160a01b03909116815260200160405180910390a1565b6000808080611553858701876129a0565b92975090955093509150506001600160a01b0384166115855760405163d92e233d60e01b815260040160405180910390fd5b610130546001600160a01b03908116908516036115b55760405163a9a43cf960e01b815260040160405180910390fd5b610eed196001600160a01b038516016115e15760405163e9edc9b360e01b815260040160405180910390fd5b6001600160a01b03848116600090815261012d6020526040902054161561161b57604051632a431ae760e11b815260040160405180910390fd5b61012f546040516bffffffffffffffffffffffff19606087901b166020820152600091611656916001600160a01b039091169060340161106c565b6001600160a01b03868116600090815261012d60205260409081902080546001600160a01b031916928416928317905551637b69774360e11b81529192509063f6d2ee86906116af908890889088908890600401612a3b565b600060405180830381600087803b1580156116c957600080fd5b505af11580156116dd573d6000803e3d6000fd5b5050604080516001600160a01b03808a168252851660208201527f46bd56f98e1b14fd35691959270a6e1edf7cb8fcd489e0f9dda89e46c0d1ff0d935001905060405180910390a150505050505050565b600080808061173f85870187612a86565b929650909450925090506001600160a01b038416158061176657506001600160a01b038216155b156117845760405163d92e233d60e01b815260040160405180910390fd5b6001600160a01b03808516600090815261012d60205260409020546111c39186911685858561201e565b6117b661082d565b6097805460ff191660011790557f62e78cea01bee320cd4e420270b5ea74000d11b0c9f74754ebdbfc544b05a2586115253390565b600054610100900460ff166108785760405162461bcd60e51b815260040161086f90612ad7565b600054610100900460ff166118395760405162461bcd60e51b815260040161086f90612ad7565b610878612251565b600054610100900460ff166118685760405162461bcd60e51b815260040161086f90612ad7565b610878612284565b6000763d602d80600a3d3981f3363d3d373d3d3d363d730000008360601b60e81c176000526e5af43d82803e903d91602b57fd5bf38360781b1760205281603760096000f590506001600160a01b0381166108ab5760405162461bcd60e51b815260206004820152601760248201527f455243313136373a2063726561746532206661696c6564000000000000000000604482015260640161086f565b6119178282610cf5565b6109f057611924816122ab565b61192f8360206122bd565b604051602001611940929190612b22565b60408051601f198184030181529082905262461bcd60e51b825261086f91600401612b97565b600260fb54036119b85760405162461bcd60e51b815260206004820152601f60248201527f5265656e7472616e637947756172643a207265656e7472616e742063616c6c00604482015260640161086f565b600260fb55565b6000813410156119e25760405163044044a560e21b815260040160405180910390fd5b5050610130546001600160a01b031690565b600080611a018347612baa565b610132546040516323b872dd60e01b8152336004820152306024820152604481018690529192506001600160a01b03169081906323b872dd906064016020604051808303816000875af1925050508015611a78575060408051601f3d908101601f19168201909252611a7591810190612bbd565b60015b611a95576040516395047e5b60e01b815260040160405180910390fd5b80611ab3576040516395047e5b60e01b815260040160405180910390fd5b50604051632e1a7d4d60e01b8152600481018590526001600160a01b03821690632e1a7d4d90602401600060405180830381600087803b158015611af657600080fd5b505af1158015611b0a573d6000803e3d6000fd5b50505050814714611b3757604051637244981560e11b81524760048201526024810183905260440161086f565b5050610130546001600160a01b031692915050565b61013154604051632770a7eb60e21b8152336004820152602481018390526000916001600160a01b031690639dc29fac906044016020604051808303816000875af1925050508015611bbb575060408051601f3d908101601f19168201909252611bb891810190612bbd565b60015b611bd857604051631bc5aabf60e21b815260040160405180910390fd5b80611bf657604051631bc5aabf60e21b815260040160405180910390fd5b5050610eee919050565b6000826001600160a01b03163b600003611c2d576040516323ed03c160e01b815260040160405180910390fd5b6000836001600160a01b0316631f2d00656040518163ffffffff1660e01b8152600401602060405180830381865afa158015611c6d573d6000803e3d6000fd5b505050506040513d601f19601f82011682018060405250810190611c919190612bdf565b90506001600160a01b038116611cba57604051634aa5ba3d60e11b815260040160405180910390fd5b6001600160a01b03818116600090815261012d6020526040902054811690851614611cf857604051633a3c22ef60e11b815260040160405180910390fd5b306001600160a01b0316846001600160a01b031663e78cea926040518163ffffffff1660e01b8152600401602060405180830381865afa158015611d40573d6000803e3d6000fd5b505050506040513d601f19601f82011682018060405250810190611d649190612bdf565b6001600160a01b031614611d8b5760405163356be02f60e21b815260040160405180910390fd5b604051632770a7eb60e21b8152336004820152602481018490526001600160a01b03851690639dc29fac906044016020604051808303816000875af1925050508015611df4575060408051601f3d908101601f19168201909252611df191810190612bbd565b60015b611e1157604051631bc5aabf60e21b815260040160405180910390fd5b80611e2f57604051631bc5aabf60e21b815260040160405180910390fd5b505b9392505050565b610ffe196001600160a01b03851601611ea757816001600160a01b0316836001600160a01b0316866001600160a01b03167f3e4d9c687d8d20e243edc9ad6a15250d794842c784344c271b3ed94ae88f076584604051611e9a91815260200190565b60405180910390a4611fc7565b610132546001600160a01b0390811690851603611f0d57816001600160a01b0316836001600160a01b0316866001600160a01b03167f01f445551c40ec1a713933e4fac6d7781f367bce8e456b301bf2029aa3033d7784604051611e9a91815260200190565b610131546001600160a01b0390811690851603611f7657816001600160a01b0316836001600160a01b03167fc90fe32d7d4db065e2824f5cfd3ea5a1d07f2c233a7a6580e9abb4300a0f905b83604051611f6991815260200190565b60405180910390a3611fc7565b604080516001600160a01b038581168252602082018490528085169287821692918916917f551b24e30eba08b2d4d57d1c6345eb47e4c49327402afff270e6591af43cc00091015b60405180910390a45b5050505050565b600160fb55565b60975460ff166108785760405162461bcd60e51b815260206004820152601460248201527314185d5cd8589b194e881b9bdd081c185d5cd95960621b604482015260640161086f565b610130546001600160a01b03908116908616036120af57804710156120565760405163c7532eaf60e01b815260040160405180910390fd5b6120608282612459565b816001600160a01b0316836001600160a01b0316866001600160a01b03167f8294ebca1c2aada95b98b62a8d705ba5d7be4bdb75901d3f0eeb35062b706c7984604051611e9a91815260200190565b6001600160a01b0384166120d657604051633a3c22ef60e11b815260040160405180910390fd5b836001600160a01b03163b600003612101576040516323ed03c160e01b815260040160405180910390fd5b6040516340c10f1960e01b81526001600160a01b038381166004830152602482018390528516906340c10f19906044016020604051808303816000875af192505050801561216c575060408051601f3d908101601f1916820190925261216991810190612bbd565b60015b6121885760405162ec6f7b60e31b815260040160405180910390fd5b806121a55760405162ec6f7b60e31b815260040160405180910390fd5b50610eed196001600160a01b0386160161220557604080516001600160a01b038581168252602082018490528085169287821692918916917fd1b4e24e81f1c901551420568a9447fd105593af143ae8b096c6385e4fb7ec869101611e9a565b604080516001600160a01b038581168252602082018490528085169287821692918916917f3207f1f801a6ba9b6005cb9dc97d8498df3407dc7b1c7a644c7b57997f4f03c59101611fbe565b600054610100900460ff166122785760405162461bcd60e51b815260040161086f90612ad7565b6097805460ff19169055565b600054610100900460ff16611fce5760405162461bcd60e51b815260040161086f90612ad7565b60606108ab6001600160a01b03831660145b606060006122cc836002612bfc565b6122d7906002612baa565b67ffffffffffffffff8111156122ef576122ef612706565b6040519080825280601f01601f191660200182016040528015612319576020820181803683370190505b509050600360fc1b8160008151811061233457612334612c13565b60200101906001600160f81b031916908160001a905350600f60fb1b8160018151811061236357612363612c13565b60200101906001600160f81b031916908160001a9053506000612387846002612bfc565b612392906001612baa565b90505b600181111561240a576f181899199a1a9b1b9c1cb0b131b232b360811b85600f16601081106123c6576123c6612c13565b1a60f81b8282815181106123dc576123dc612c13565b60200101906001600160f81b031916908160001a90535060049490941c9361240381612c29565b9050612395565b508315611e315760405162461bcd60e51b815260206004820181905260248201527f537472696e67733a20686578206c656e67746820696e73756666696369656e74604482015260640161086f565b804710156124a95760405162461bcd60e51b815260206004820152601d60248201527f416464726573733a20696e73756666696369656e742062616c616e6365000000604482015260640161086f565b6000826001600160a01b03168260405160006040518083038185875af1925050503d80600081146124f6576040519150601f19603f3d011682016040523d82523d6000602084013e6124fb565b606091505b5050905080610a315760405162461bcd60e51b815260206004820152603a60248201527f416464726573733a20756e61626c6520746f2073656e642076616c75652c207260448201527f6563697069656e74206d61792068617665207265766572746564000000000000606482015260840161086f565b60006020828403121561258457600080fd5b81356001600160e01b031981168114611e3157600080fd5b6001600160a01b0381168114610af357600080fd5b80356125bc8161259c565b919050565b6000602082840312156125d357600080fd5b8135611e318161259c565b6000602082840312156125f057600080fd5b5035919050565b6000806040838503121561260a57600080fd5b82356126158161259c565b946020939093013593505050565b6000806040838503121561263657600080fd5b8235915060208301356126488161259c565b809150509250929050565b6000806020838503121561266657600080fd5b823567ffffffffffffffff8082111561267e57600080fd5b818501915085601f83011261269257600080fd5b8135818111156126a157600080fd5b8660208285010111156126b357600080fd5b60209290920196919550909350505050565b6000806000606084860312156126da57600080fd5b83356126e58161259c565b925060208401356126f58161259c565b929592945050506040919091013590565b634e487b7160e01b600052604160045260246000fd5b60405160c0810167ffffffffffffffff8111828210171561273f5761273f612706565b60405290565b600080600080600085870361014081121561275f57600080fd5b60c081121561276d57600080fd5b5061277661271c565b86356127818161259c565b815260208701356127918161259c565b602082015260408701356127a48161259c565b604082015260608701356127b78161259c565b606082015260808701356127ca8161259c565b608082015260a08701356127dd8161259c565b60a082015294506127f060c087016125b1565b93506127fe60e087016125b1565b925061280d61010087016125b1565b915061281c61012087016125b1565b90509295509295909350565b6000808585111561283857600080fd5b8386111561284557600080fd5b5050820193919092039150565b803560208310156108ab57600019602084900360031b1b1692915050565b634e487b7160e01b600052601160045260246000fd5b818103818111156108ab576108ab612870565b60005b838110156128b457818101518382015260200161289c565b50506000910152565b600081518084526128d5816020860160208601612899565b601f01601f19169290920160200192915050565b6040815260006128fc60408301856128bd565b905060018060a01b03831660208301529392505050565b600082601f83011261292457600080fd5b813567ffffffffffffffff8082111561293f5761293f612706565b604051601f8301601f19908116603f0116810190828211818310171561296757612967612706565b8160405283815286602085880101111561298057600080fd5b836020870160208301376000602085830101528094505050505092915050565b600080600080600060a086880312156129b857600080fd5b8535945060208601356129ca8161259c565b9350604086013567ffffffffffffffff808211156129e757600080fd5b6129f389838a01612913565b94506060880135915080821115612a0957600080fd5b50612a1688828901612913565b925050608086013560ff81168114612a2d57600080fd5b809150509295509295909350565b6001600160a01b0385168152608060208201819052600090612a5f908301866128bd565b8281036040840152612a7181866128bd565b91505060ff8316606083015295945050505050565b60008060008060808587031215612a9c57600080fd5b8435612aa78161259c565b93506020850135612ab78161259c565b92506040850135612ac78161259c565b9396929550929360600135925050565b6020808252602b908201527f496e697469616c697a61626c653a20636f6e7472616374206973206e6f74206960408201526a6e697469616c697a696e6760a81b606082015260800190565b7f416363657373436f6e74726f6c3a206163636f756e7420000000000000000000815260008351612b5a816017850160208801612899565b7001034b99036b4b9b9b4b733903937b6329607d1b6017918401918201528351612b8b816028840160208801612899565b01602801949350505050565b602081526000611e3160208301846128bd565b808201808211156108ab576108ab612870565b600060208284031215612bcf57600080fd5b81518015158114611e3157600080fd5b600060208284031215612bf157600080fd5b8151611e318161259c565b80820281158282048414176108ab576108ab612870565b634e487b7160e01b600052603260045260246000fd5b600081612c3857612c38612870565b50600019019056fea6d0b532cacea090bc411482cd491720e2eac14d48ce5d0402b8851e0bb2aec10c91b50b605fcbfb31133354bdc6661ee7d4bee7add1ae6c16ec4a6cca22f7f882b32d9ab5100db08aeb9a0e08b422d14851ec118736590462bf9c085a6e9448539440820030c4994db4e31b6b800deafd503688728f932addfe7a410515c14ca2646970667358221220c974d5b6e113d5675052bb48427a2aef5f5b0b6906f806a7388189571fa76ba564736f6c63430008130033","linkReferences":{}},"methodIdentifiers":{"ADAPTOR_MANAGER_ROLE()":"da51c71e","DEFAULT_ADMIN_ROLE()":"a217fddf","DEPOSIT_SIG()":"d41f1771","MAP_TOKEN_SIG()":"f6451255","NATIVE_ETH()":"011e1167","NATIVE_IMX()":"7ab5e3ae","PAUSER_ROLE()":"e63ab1e9","PRIVILEGED_DEPOSITOR_ROLE()":"77907d1d","UNPAUSER_ROLE()":"fb1bb9de","WITHDRAW_SIG()":"b1768065","childBridgeAdaptor()":"29529c0e","childETHToken()":"dee1ef0d","childTokenTemplate()":"b68ad1e4","getRoleAdmin(bytes32)":"248a9ca3","grantAdaptorManagerRole(address)":"8f70121f","grantPauserRole(address)":"6c11c21c","grantRole(bytes32,address)":"2f2ff15d","grantUnpauserRole(address)":"32968782","hasRole(bytes32,address)":"91d14854","initialize((address,address,address,address,address,address),address,address,address,address)":"f3dfce1d","initializerAddress()":"d6dc0b0d","onMessageReceive(bytes)":"7248c77c","pause()":"8456cb59","paused()":"5c975abb","privilegedDeposit()":"18428c50","renounceRole(bytes32,address)":"36568abe","revokeAdaptorManagerRole(address)":"89c65d41","revokePauserRole(address)":"f865af08","revokeRole(bytes32,address)":"d547741f","revokeUnpauserRole(address)":"2540e2da","rootIMXToken()":"8c956990","rootTokenToChildToken(address)":"7efab4f5","supportsInterface(bytes4)":"01ffc9a7","unpause()":"3f4ba83a","updateChildBridgeAdaptor(address)":"0765c405","wIMXToken()":"69053ed0","withdraw(address,uint256)":"f3fef3a3","withdrawETH(uint256)":"f14210a6","withdrawETHTo(address,uint256)":"697b894a","withdrawIMX(uint256)":"de65c2e4","withdrawIMXTo(address,uint256)":"92ffd2e2","withdrawTo(address,address,uint256)":"c3b35a7e","withdrawWIMX(uint256)":"52b61e36","withdrawWIMXTo(address,uint256)":"274346b9"},"id":54}