{"abi":[{"type":"function","name":"handler_activateWithdrawalQueue","inputs":[],"outputs":[],"stateMutability":"nonpayable"},{"type":"function","name":"handler_deactivateWithdrawalQueue","inputs":[],"outputs":[],"stateMutability":"nonpayable"},{"type":"function","name":"handler_deposit","inputs":[{"name":"rootTokenSelector","type":"uint8","internalType":"uint8"},{"name":"amount","type":"uint256","internalType":"uint256"},{"name":"value","type":"uint256","internalType":"uint256"}],"outputs":[],"stateMutability":"nonpayable"},{"type":"function","name":"handler_depositETH","inputs":[{"name":"amount","type":"uint256","internalType":"uint256"},{"name":"value","type":"uint256","internalType":"uint256"}],"outputs":[],"stateMutability":"nonpayable"},{"type":"function","name":"handler_depositTo","inputs":[{"name":"rootTokenSelector","type":"uint8","internalType":"uint8"},{"name":"receiverSelector","type":"uint8","internalType":"uint8"},{"name":"amount","type":"uint256","internalType":"uint256"},{"name":"value","type":"uint256","internalType":"uint256"}],"outputs":[],"stateMutability":"nonpayable"},{"type":"function","name":"handler_depositToETH","inputs":[{"name":"receiverSelector","type":"uint8","internalType":"uint8"},{"name":"amount","type":"uint256","internalType":"uint256"},{"name":"value","type":"uint256","internalType":"uint256"}],"outputs":[],"stateMutability":"nonpayable"},{"type":"function","name":"handler_finaliseQueuedWithdrawal","inputs":[{"name":"receiverSelector","type":"uint8","internalType":"uint8"},{"name":"index","type":"uint256","internalType":"uint256"}],"outputs":[],"stateMutability":"nonpayable"},{"type":"function","name":"handler_finaliseQueuedWithdrawalsAggregated","inputs":[{"name":"receiverSelector","type":"uint8","internalType":"uint8"},{"name":"tokenSelector","type":"uint8","internalType":"uint8"},{"name":"length","type":"uint256","internalType":"uint256"},{"name":"entropy","type":"uint256","internalType":"uint256"}],"outputs":[],"stateMutability":"nonpayable"},{"type":"function","name":"handler_onMessageReceiveRoot","inputs":[{"name":"isWithdraw","type":"bool","internalType":"bool"},{"name":"rootTokenSelector","type":"uint8","internalType":"uint8"},{"name":"withdrawerSelector","type":"uint8","internalType":"uint8"},{"name":"receiverSelector","type":"uint8","internalType":"uint8"},{"name":"amount","type":"uint256","internalType":"uint256"}],"outputs":[],"stateMutability":"nonpayable"},{"type":"function","name":"handler_pauseRoot","inputs":[],"outputs":[],"stateMutability":"nonpayable"},{"type":"function","name":"handler_setRateControlThreshold","inputs":[{"name":"tokenSelector","type":"uint8","internalType":"uint8"},{"name":"capacity","type":"uint256","internalType":"uint256"},{"name":"refillRate","type":"uint256","internalType":"uint256"},{"name":"largeTransferThreshold","type":"uint256","internalType":"uint256"}],"outputs":[],"stateMutability":"nonpayable"},{"type":"function","name":"handler_setWithdrawalDelay","inputs":[{"name":"delay","type":"uint256","internalType":"uint256"}],"outputs":[],"stateMutability":"nonpayable"},{"type":"function","name":"handler_unpauseRoot","inputs":[],"outputs":[],"stateMutability":"nonpayable"},{"type":"function","name":"handler_updateImxCumulativeDepositLimit","inputs":[{"name":"newImxCumulativeDepositLimit","type":"uint256","internalType":"uint256"}],"outputs":[],"stateMutability":"nonpayable"},{"type":"event","name":"ActivateWithdrawalQueueCall","inputs":[],"anonymous":false},{"type":"event","name":"DeactivateWithdrawalQueueCall","inputs":[],"anonymous":false},{"type":"event","name":"DepositCall","inputs":[{"name":"rootToken","type":"address","indexed":false,"internalType":"address"},{"name":"amount","type":"uint256","indexed":false,"internalType":"uint256"}],"anonymous":false},{"type":"event","name":"DepositETHCall","inputs":[{"name":"amount","type":"uint256","indexed":false,"internalType":"uint256"}],"anonymous":false},{"type":"event","name":"DepositToCall","inputs":[{"name":"rootToken","type":"address","indexed":false,"internalType":"address"},{"name":"receiver","type":"address","indexed":false,"internalType":"address"},{"name":"amount","type":"uint256","indexed":false,"internalType":"uint256"}],"anonymous":false},{"type":"event","name":"DepositToETHCall","inputs":[{"name":"receiver","type":"address","indexed":false,"internalType":"address"},{"name":"amount","type":"uint256","indexed":false,"internalType":"uint256"}],"anonymous":false},{"type":"event","name":"FinaliseQueuedWithdrawalCall","inputs":[{"name":"receiver","type":"address","indexed":false,"internalType":"address"},{"name":"index","type":"uint256","indexed":false,"internalType":"uint256"}],"anonymous":false},{"type":"event","name":"FinaliseQueuedWithdrawalsAggregatedCall","inputs":[{"name":"receiver","type":"address","indexed":false,"internalType":"address"},{"name":"token","type":"address","indexed":false,"internalType":"address"},{"name":"indices","type":"uint256[]","indexed":false,"internalType":"uint256[]"}],"anonymous":false},{"type":"event","name":"OnMessageReceiveChildCall","inputs":[{"name":"data","type":"bytes","indexed":false,"internalType":"bytes"}],"anonymous":false},{"type":"event","name":"OnMessageReceiveRootCall","inputs":[{"name":"data","type":"bytes","indexed":false,"internalType":"bytes"}],"anonymous":false},{"type":"event","name":"PauseChildCall","inputs":[],"anonymous":false},{"type":"event","name":"PauseRootCall","inputs":[],"anonymous":false},{"type":"event","name":"SetRateControlThresholdCall","inputs":[{"name":"token","type":"address","indexed":false,"internalType":"address"},{"name":"capacity","type":"uint256","indexed":false,"internalType":"uint256"},{"name":"refillRate","type":"uint256","indexed":false,"internalType":"uint256"},{"name":"largeTransferThreshold","type":"uint256","indexed":false,"internalType":"uint256"}],"anonymous":false},{"type":"event","name":"SetWithdrawalDelayCall","inputs":[{"name":"delay","type":"uint256","indexed":false,"internalType":"uint256"}],"anonymous":false},{"type":"event","name":"UnpauseChildCall","inputs":[],"anonymous":false},{"type":"event","name":"UnpauseRootCall","inputs":[],"anonymous":false},{"type":"event","name":"UpdateImxCumulativeDepositLimitCall","inputs":[{"name":"newImxCumulativeDepositLimit","type":"uint256","indexed":false,"internalType":"uint256"}],"anonymous":false},{"type":"event","name":"UpdateRootBridgeAdaptorCall","inputs":[{"name":"newRootBridgeAdaptor","type":"address","indexed":false,"internalType":"address"}],"anonymous":false},{"type":"event","name":"WithdrawCall","inputs":[{"name":"childToken","type":"address","indexed":false,"internalType":"address"},{"name":"amount","type":"uint256","indexed":false,"internalType":"uint256"}],"anonymous":false},{"type":"event","name":"WithdrawETHCall","inputs":[{"name":"amount","type":"uint256","indexed":false,"internalType":"uint256"}],"anonymous":false},{"type":"event","name":"WithdrawETHToCall","inputs":[{"name":"receiver","type":"address","indexed":false,"internalType":"address"},{"name":"amount","type":"uint256","indexed":false,"internalType":"uint256"}],"anonymous":false},{"type":"event","name":"WithdrawIMXCall","inputs":[{"name":"amount","type":"uint256","indexed":false,"internalType":"uint256"}],"anonymous":false},{"type":"event","name":"WithdrawIMXToCall","inputs":[{"name":"receiver","type":"address","indexed":false,"internalType":"address"},{"name":"amount","type":"uint256","indexed":false,"internalType":"uint256"}],"anonymous":false},{"type":"event","name":"WithdrawToCall","inputs":[{"name":"childToken","type":"address","indexed":false,"internalType":"address"},{"name":"receiver","type":"address","indexed":false,"internalType":"address"},{"name":"amount","type":"uint256","indexed":false,"internalType":"uint256"}],"anonymous":false},{"type":"event","name":"WithdrawWIMXCall","inputs":[{"name":"amount","type":"uint256","indexed":false,"internalType":"uint256"}],"anonymous":false},{"type":"event","name":"WithdrawWIMXToCall","inputs":[{"name":"receiver","type":"address","indexed":false,"internalType":"address"},{"name":"amount","type":"uint256","indexed":false,"internalType":"uint256"}],"anonymous":false},{"type":"error","name":"ClampFail","inputs":[{"name":"","type":"string","internalType":"string"}]},{"type":"error","name":"MultiCallFail","inputs":[{"name":"","type":"string","internalType":"string"}]}],"bytecode":{"object":"0x6080604052604051620000129062000142565b604051809103906000f0801580156200002f573d6000803e3d6000fd5b50600080546001600160a01b0319166001600160a01b03929092169190911790556040805160608101825262010001815262020001602082015262030001918101919091526200008490600190600362000150565b506002805460ff191660011790553480156200009f57600080fd5b506000546040516001600160a01b0390911690636945c5ea90620000c390620001ba565b604051809103906000f080158015620000e0573d6000803e3d6000fd5b506040516001600160e01b031960e084901b1681526001600160a01b039091166004820152602401600060405180830381600087803b1580156200012357600080fd5b505af115801562000138573d6000803e3d6000fd5b50505050620001de565b6132f8806200841883390190565b828054828255906000526020600020908101928215620001a8579160200282015b82811115620001a857825182546001600160a01b0319166001600160a01b0390911617825560209092019160019091019062000171565b50620001b6929150620001c7565b5090565b60a7806200b71083390190565b5b80821115620001b65760008155600101620001c8565b61822a80620001ee6000396000f3fe608060405234801561001057600080fd5b50600436106100ea5760003560e01c8063a60ac68b1161008c578063c5247e2711610066578063c5247e2714610183578063c8e0c92414610196578063e80552f1146101a9578063f42e1ccf146101bc57600080fd5b8063a60ac68b14610155578063af3cfaa21461015d578063bd3cad561461017057600080fd5b80632c8b759b116100c85780632c8b759b1461011f578063411fb0bd146101275780638d7d6afe1461013a5780638dab8a7f1461014257600080fd5b80630cb2373c146100ef57806312864dd8146101045780631f4a1a6a14610117575b600080fd5b6101026100fd3660046167fe565b6101cf565b005b610102610112366004616844565b6102cf565b61010261036d565b6101026103f0565b61010261013536600461687f565b61046e565b6101026104fd565b6101026101503660046168a6565b6105d4565b6101026106c5565b61010261016b36600461690a565b610743565b61010261017e36600461687f565b610919565b610102610191366004616936565b6109a1565b6101026101a4366004616936565b610aa5565b6101026101b736600461696b565b610ba4565b6101026101ca3660046167fe565b610ca1565b60025460ff161561020c576101e53360016169a3565b600260016101000a8154816001600160a01b0302191690836001600160a01b031602179055505b600061021a85858585610da6565b6040805160018082528183019092529192506000919060208083019080368337019050509050600260019054906101000a90046001600160a01b031681600081518110610269576102696169e0565b60200260200101906001600160a01b031690816001600160a01b031681525050610297818360200151611022565b6000806102b1846000015185602001518660400151611032565b915091506102c582828587602001516111a6565b5050505050505050565b60025460ff161561030c576102e53360016169a3565b600260016101000a8154816001600160a01b0302191690836001600160a01b031602179055505b600061031a858585856111e5565b60408051600081526020810190915281519192509061033a908290611022565b6000806103598460000151856020015186604001518760600151611508565b915091506102c5828285876000015161161c565b60025460ff16156103aa576103833360016169a3565b600260016101000a8154816001600160a01b0302191690836001600160a01b031602179055505b6103b2611635565b6040805160008082526020820190925290506103cf816000611022565b6000806103da611707565b915091506103eb82828560006117c9565b505050565b60025460ff161561042d576104063360016169a3565b600260016101000a8154816001600160a01b0302191690836001600160a01b031602179055505b6104356117e2565b604080516000808252602082019092529050610452816000611022565b60008061045d6118b2565b915091506103eb8282856000611927565b60025460ff16156104ab576104843360016169a3565b600260016101000a8154816001600160a01b0302191690836001600160a01b031602179055505b60006104b682611940565b60408051600080825260208201909252919250506104d5816000611022565b6000806104e584600001516119e0565b915091506104f68282856000611ad4565b5050505050565b60025460ff161561053a576105133360016169a3565b600260016101000a8154816001600160a01b0302191690836001600160a01b031602179055505b610542611aed565b60408051600180825281830190925260009160208083019080368337019050509050600260019054906101000a90046001600160a01b03168160008151811061058d5761058d6169e0565b60200260200101906001600160a01b031690816001600160a01b0316815250506105b8816000611022565b6000806105c3611bb2565b915091506103eb8282856000611c27565b60025460ff1615610611576105ea3360016169a3565b600260016101000a8154816001600160a01b0302191690836001600160a01b031602179055505b60006106208686868686611c40565b604080516001808252818301909252919250600091906020808301908036833701905050905081604001518160008151811061065e5761065e6169e0565b60200260200101906001600160a01b031690816001600160a01b03168152505061068c818360200151611022565b60008061069c846000015161228e565b915091506106ba82828587602001518860600151896040015161236c565b505050505050505050565b60025460ff1615610702576106db3360016169a3565b600260016101000a8154816001600160a01b0302191690836001600160a01b031602179055505b61070a612408565b604080516000808252602082019092529050610727816000611022565b6000806107326124cc565b915091506103eb8282856000612541565b60025460ff1615610780576107593360016169a3565b600260016101000a8154816001600160a01b0302191690836001600160a01b031602179055505b600061078c838361255a565b6040805160018082528183019092529192506000919060208083019080368337019050509050600260019054906101000a90046001600160a01b0316816000815181106107db576107db6169e0565b6001600160a01b039290921660209283029190910190910152604080516001808252818301909252600091816020016020820280368337019050509050838160008151811061082c5761082c6169e0565b602090810291909101015260085483516040516314537f8f60e11b81526000926001600160a01b0316916328a6ff1e9161086b91908690600401616a31565b600060405180830381865afa158015610888573d6000803e3d6000fd5b505050506040513d6000823e601f3d908101601f191682016040526108b09190810190616b1a565b90506108da83826000815181106108c9576108c96169e0565b602002602001015160200151611022565b6000806108ef8660000151876020015161276c565b915091506102c58282878660008151811061090c5761090c6169e0565b60200260200101516128d8565b60025460ff16156109565761092f3360016169a3565b600260016101000a8154816001600160a01b0302191690836001600160a01b031602179055505b600061096182612914565b6040805160008082526020820190925291925050610980816000611022565b60008061099084600001516129ea565b915091506104f68282856000612a55565b60025460ff16156109de576109b73360016169a3565b600260016101000a8154816001600160a01b0302191690836001600160a01b031602179055505b60006109eb848484612a6e565b6040805160018082528183019092529192506000919060208083019080368337019050509050600260019054906101000a90046001600160a01b031681600081518110610a3a57610a3a6169e0565b60200260200101906001600160a01b031690816001600160a01b031681525050610a6681610eee611022565b600080610a80846000015185602001518660400151612cc0565b91509150610a9c828285610eee88602001518960400151612e2e565b50505050505050565b60025460ff1615610ae257610abb3360016169a3565b600260016101000a8154816001600160a01b0302191690836001600160a01b031602179055505b6000610aef848484612e6a565b6040805160018082528183019092529192506000919060208083019080368337019050509050600260019054906101000a90046001600160a01b031681600081518110610b3e57610b3e6169e0565b60200260200101906001600160a01b031690816001600160a01b031681525050610b6c818360000151611022565b600080610b86846000015185602001518660400151613115565b91509150610a9c82828587600001518860200151896040015161320b565b60025460ff1615610be157610bba3360016169a3565b600260016101000a8154816001600160a01b0302191690836001600160a01b031602179055505b6000610bed8383613253565b6040805160018082528183019092529192506000919060208083019080368337019050509050600260019054906101000a90046001600160a01b031681600081518110610c3c57610c3c6169e0565b60200260200101906001600160a01b031690816001600160a01b031681525050610c6881610eee611022565b600080610c7d84600001518560200151613449565b91509150610c99828285610eee88600001518960200151613592565b505050505050565b60025460ff1615610cde57610cb73360016169a3565b600260016101000a8154816001600160a01b0302191690836001600160a01b031602179055505b6000610cec858585856135b3565b6040805160018082528183019092529192506000919060208083019080368337019050509050600260019054906101000a90046001600160a01b031681600081518110610d3b57610d3b6169e0565b60200260200101906001600160a01b031690816001600160a01b031681525050610d69818360000151611022565b600080610d888460000151856020015186604001518760600151613899565b915091506102c5828285876000015188604001518960600151613a05565b60408051606080820183526000808352602083015291810191909152600860009054906101000a90046001600160a01b03166001600160a01b0316635c975abb6040518163ffffffff1660e01b8152600401602060405180830381865afa158015610e15573d6000803e3d6000fd5b505050506040513d601f19601f82011682018060405250810190610e399190616bf7565b8015610e4e5750610e4b606443616c1b565b15155b15610e7557604051634931f50760e01b8152600401610e6c90616c3d565b60405180910390fd5b6001805460009190610e8a9060ff8916616c1b565b81548110610e9a57610e9a6169e0565b6000918252602082200154600480546001600160a01b03909216935090610ec49060ff8916616c1b565b81548110610ed457610ed46169e0565b6000918252602082200154600854604051637b1929b760e01b81526001600160a01b0386811660048301529283169450911690637b1929b790602401602060405180830381865afa158015610f2d573d6000803e3d6000fd5b505050506040513d601f19601f82011682018060405250810190610f519190616c6c565b610f5c906001616c85565b60008054604051639e42244760e01b8152600481018a90526024810192909252604482018390529192506001600160a01b0390911690639e422447906064016020604051808303816000875af1158015610fba573d6000803e3d6000fd5b505050506040513d601f19601f82011682018060405250810190610fde9190616c6c565b95506040518060600160405280846001600160a01b03168152602001836001600160a01b03168152602001611014878985613a26565b905298975050505050505050565b61102e60008383613b63565b5050565b600060607f5ae0a9e202e4415c68aba74bae98550c851ebb34fd8116c730c19f2dd76f596985858560405161106993929190616c98565b60405180910390a160025460405163ca669fa760e01b81526101009091046001600160a01b03166004820152737109709ecfa91a80626ff3989d68f67f5b1dd12d9063ca669fa790602401600060405180830381600087803b1580156110ce57600080fd5b505af11580156110e2573d6000803e3d6000fd5b50506008546040516001600160a01b039091169250620f42409150635d3a22ab60e01b9061111890899089908990602401616c98565b60408051601f198184030181529181526020820180516001600160e01b03166001600160e01b03199094169390931790925290516111569190616cf1565b60006040518083038160008787f1925050503d8060008114611194576040519150601f19603f3d011682016040523d82523d6000602084013e611199565b606091505b5090969095509350505050565b83156111d6576111b68282613f53565b6111be613f5f565b6111c88382614009565b6111d183614012565b6111df565b6111df83614025565b50505050565b611219604051806080016040528060006001600160a01b031681526020016000815260200160008152602001600081525090565b600480546000919061122e9060ff8916616c1b565b8154811061123e5761123e6169e0565b60009182526020808320909101548254604080516318160ddd60e01b815290516001600160a01b0393841696509190921693639e422447938a93919287926318160ddd9260048083019391928290030181865afa1580156112a3573d6000803e3d6000fd5b505050506040513d601f19601f820116820180604052508101906112c79190616c6c565b6040516001600160e01b031960e086901b1681526004810193909352602483019190915260448201526064016020604051808303816000875af1158015611312573d6000803e3d6000fd5b505050506040513d601f19601f820116820180604052508101906113369190616c6c565b600080549196506001600160a01b0390911690639e42244790869061135d610e108a616c85565b6040516001600160e01b031960e086901b1681526004810193909352602483019190915260448201526064016020604051808303816000875af11580156113a8573d6000803e3d6000fd5b505050506040513d601f19601f820116820180604052508101906113cc9190616c6c565b935060008054906101000a90046001600160a01b03166001600160a01b0316639e422447846000610e10856001600160a01b03166318160ddd6040518163ffffffff1660e01b8152600401602060405180830381865afa158015611434573d6000803e3d6000fd5b505050506040513d601f19601f820116820180604052508101906114589190616c6c565b6114629190616c85565b6040516001600160e01b031960e086901b1681526004810193909352602483019190915260448201526064016020604051808303816000875af11580156114ad573d6000803e3d6000fd5b505050506040513d601f19601f820116820180604052508101906114d19190616c6c565b92506040518060800160405280826001600160a01b0316815260200186815260200185815260200184815250915050949350505050565b604080516001600160a01b03861681526020810185905290810183905260608181018390526000917f2e5ae25489a5a374f83388e88988b4099df329a1bebdae32bfc64df3afbbb0519060800160405180910390a1600854604080516001600160a01b038981166024830152604482018990526064820188905260848083018890528351808403909101815260a490920183526020820180516001600160e01b0316638f3a4e4f60e01b17905291519190921691620f4240916115cb9190616cf1565b60006040518083038160008787f1925050503d8060008114611609576040519150601f19603f3d011682016040523d82523d6000602084013e61160e565b606091505b509097909650945050505050565b831561162c576111be8282613f53565b6111df836141fd565b600860009054906101000a90046001600160a01b03166001600160a01b031663a6f72cb86040518163ffffffff1660e01b8152600401602060405180830381865afa158015611688573d6000803e3d6000fd5b505050506040513d601f19601f820116820180604052508101906116ac9190616bf7565b1561170557604051634931f50760e01b815260206004820152602260248201527f5769746864726177616c20717565756520616c72656164792061637469766174604482015261195960f21b6064820152608401610e6c565b565b6040516000906060907fd264fb881251dbca29ad3cc4171f725885ab40fcf428852297abc089ab45667f908390a160085460408051600481526024810182526020810180516001600160e01b03166357c5ddaf60e11b17905290516001600160a01b0390921691620f42409161177c91616cf1565b60006040518083038160008787f1925050503d80600081146117ba576040519150601f19603f3d011682016040523d82523d6000602084013e6117bf565b606091505b5090939092509050565b83156117d9576111be8282613f53565b6111df836142db565b600860009054906101000a90046001600160a01b03166001600160a01b031663a6f72cb86040518163ffffffff1660e01b8152600401602060405180830381865afa158015611835573d6000803e3d6000fd5b505050506040513d601f19601f820116820180604052508101906118599190616bf7565b61170557604051634931f50760e01b8152602060048201526024808201527f5769746864726177616c20717565756520616c72656164792064656163746976604482015263185d195960e21b6064820152608401610e6c565b6040516000906060907fe1654a6d6ae82b3af2f46b67edeeb9f8c37e247268742b7bbaf0fbe7b840c873908390a160085460408051600481526024810182526020810180516001600160e01b0316631657a6e560e01b17905290516001600160a01b0390921691620f42409161177c91616cf1565b8315611937576111be8282613f53565b6111df8361433c565b60408051602081019091526000815260408051602081019182905260008054639e42244760e01b9093526024820185905260448201526212750060648201529081906001600160a01b0316639e422447608483015b6020604051808303816000875af11580156119b4573d6000803e3d6000fd5b505050506040513d601f19601f820116820180604052508101906119d89190616c6c565b905292915050565b600060607f6c88af2e860b3106752b1ed480b6ce08c8c686a2e99d5d6a97d5916b8387d7b683604051611a1591815260200190565b60405180910390a1600854604051602481018590526001600160a01b0390911690620f42409063d2c13da560e01b906044015b60408051601f198184030181529181526020820180516001600160e01b03166001600160e01b0319909416939093179092529051611a869190616cf1565b60006040518083038160008787f1925050503d8060008114611ac4576040519150601f19603f3d011682016040523d82523d6000602084013e611ac9565b606091505b509094909350915050565b8315611ae4576111be8282613f53565b6111df8361439d565b600860009054906101000a90046001600160a01b03166001600160a01b0316635c975abb6040518163ffffffff1660e01b8152600401602060405180830381865afa158015611b40573d6000803e3d6000fd5b505050506040513d601f19601f82011682018060405250810190611b649190616bf7565b1561170557604051634931f50760e01b815260206004820152601a60248201527f526f6f742062726964676520616c7265616479207061757365640000000000006044820152606401610e6c565b6040516000906060907fccc926b5006b0f7bf30a599db80458f01890c0c778868e0705508bf14a44bf93908390a160085460408051600481526024810182526020810180516001600160e01b0316638456cb5960e01b17905290516001600160a01b0390921691620f42409161177c91616cf1565b8315611c37576111be8282613f53565b6111df836143fe565b60408051608081018252606080825260006020808401829052838501829052918301526008548351635c975abb60e01b8152935192936001600160a01b0390911692635c975abb926004808401939192918290030181865afa158015611caa573d6000803e3d6000fd5b505050506040513d601f19601f82011682018060405250810190611cce9190616bf7565b8015611ce35750611ce0606443616c1b565b15155b15611d0157604051634931f50760e01b8152600401610e6c90616c3d565b600480546001818101835560009283527f8a35acfbc15ff81a39ae7d344fd709f28e8600b4aa8c65c6b64bfe7fe36bd19b90910180546001600160a01b031916610eee1790558054611d569060ff8716616c1b565b81548110611d6657611d666169e0565b6000918252602082200154600480546001600160a01b03909216935090611d909060ff8a16616c1b565b81548110611da057611da06169e0565b60009182526020822001546001600160a01b03169150610eed198201611dde57600854611dd7906001600160a01b03163182616c85565b9050611e59565b6008546040516370a0823160e01b81526001600160a01b039182166004820152908316906370a0823190602401602060405180830381865afa158015611e28573d6000803e3d6000fd5b505050506040513d601f19601f82011682018060405250810190611e4c9190616c6c565b611e569082616c85565b90505b6000805b60015481101561207957600854600180546000926001600160a01b031691637b1929b79185908110611e9157611e916169e0565b60009182526020909120015460405160e083901b6001600160e01b03191681526001600160a01b039091166004820152602401602060405180830381865afa158015611ee1573d6000803e3d6000fd5b505050506040513d601f19601f82011682018060405250810190611f059190616c6c565b90506014811115611f5957604051634931f50760e01b815260206004820152601c60248201527f546f6f206d616e792070656e64696e67207769746864726177616c73000000006044820152606401610e6c565b600854600180546000926001600160a01b031691632bf839119186908110611f8357611f836169e0565b600091825260208220015460405160e084901b6001600160e01b03191681526001600160a01b039182166004820152908a1660248201526044810191909152606481018590526014608482015260a401600060405180830381865afa158015611ff0573d6000803e3d6000fd5b505050506040513d6000823e601f3d908101601f191682016040526120189190810190616d0d565b905060005b815181101561206357818181518110612038576120386169e0565b6020026020010151602001518561204f9190616c85565b94508061205b81616dcb565b91505061201d565b505050808061207190616dcb565b915050611e5d565b50600080546001600160a01b031690639e42244790889061209a8587616de4565b6040516001600160e01b031960e086901b1681526004810193909352602483019190915260448201526064016020604051808303816000875af11580156120e5573d6000803e3d6000fd5b505050506040513d601f19601f820116820180604052508101906121099190616c6c565b955050600089612139577f9ab685290d33b4bfa7a76479497c2c3ac66df7ee4f480a88770a20f8a749192761215b565b7f7a8dc26796a1e50e6e190b70259f58f6a4edd5b22280ceecc82b687b8e9828695b9050600081600480805490508c60ff166121759190616c1b565b81548110612185576121856169e0565b600091825260209091200154600180546001600160a01b03909216916121ae9060ff8e16616c1b565b815481106121be576121be6169e0565b6000918252602091829020015460408051928301949094526001600160a01b039283169382019390935291811660608301528616608082015260a0810188905260c0016040516020818303038152906040529050600480548061222357612223616df7565b6001900381819060005260206000200160006101000a8154906001600160a01b03021916905590556040518060800160405280828152602001856001600160a01b03168152602001866001600160a01b03168152602001888152509550505050505095945050505050565b600060607f9c42162f11f20a7e937df5743a2ca36d7fcd049bbf372d50953b5fe405924572836040516122c19190616e39565b60405180910390a160025460405163ca669fa760e01b81526101009091046001600160a01b03166004820152737109709ecfa91a80626ff3989d68f67f5b1dd12d9063ca669fa790602401600060405180830381600087803b15801561232657600080fd5b505af115801561233a573d6000803e3d6000fd5b5050600a546040516001600160a01b039091169250620f42409150631c9231df60e21b90611a48908790602401616e39565b85156123ff5761237c8484613f53565b61238461445f565b61238f8382846144db565b61239983826145c5565b6123a281614680565b6123ac8383614773565b6123b6838361482d565b6123bf83614a6c565b6123ca838284614ae7565b6123d5838284614c12565b6123de83614ef9565b6123e783614fcf565b6123f18584614009565b6123fa85614012565b610c99565b6123fa85615071565b600860009054906101000a90046001600160a01b03166001600160a01b0316635c975abb6040518163ffffffff1660e01b8152600401602060405180830381865afa15801561245b573d6000803e3d6000fd5b505050506040513d601f19601f8201168201806040525081019061247f9190616bf7565b61170557604051634931f50760e01b815260206004820152601c60248201527f526f6f742062726964676520616c726561647920756e706175736564000000006044820152606401610e6c565b6040516000906060907f259554b3909e9bc140cf575a69d562d6c3f4ac460357f91e742b3041d84609b7908390a160085460408051600481526024810182526020810180516001600160e01b0316631fa5d41d60e11b17905290516001600160a01b0390921691620f42409161177c91616cf1565b8315612551576111be8282613f53565b6111df8361513e565b6040805180820190915260008082526020820152600860009054906101000a90046001600160a01b03166001600160a01b0316635c975abb6040518163ffffffff1660e01b8152600401602060405180830381865afa1580156125c1573d6000803e3d6000fd5b505050506040513d601f19601f820116820180604052508101906125e59190616bf7565b80156125fa57506125f7606443616c1b565b15155b1561261857604051634931f50760e01b8152600401610e6c90616c3d565b600180546000919061262d9060ff8716616c1b565b8154811061263d5761263d6169e0565b60009182526020822001548154600854604051637b1929b760e01b81526001600160a01b0393841660048201819052955091831693639e42244793889391921690637b1929b790602401602060405180830381865afa1580156126a4573d6000803e3d6000fd5b505050506040513d601f19601f820116820180604052508101906126c89190616c6c565b6126d3906001616c85565b6040516001600160e01b031960e086901b1681526004810193909352602483019190915260448201526064016020604051808303816000875af115801561271e573d6000803e3d6000fd5b505050506040513d601f19601f820116820180604052508101906127429190616c6c565b92506040518060400160405280826001600160a01b03168152602001848152509150505b92915050565b604080516001600160a01b0384168152602081018390526000916060917f4b9a9a5523fc8e2bce6ca787a9e8f29c335e45f30df8f44a2ce84ae9bd3d9ce0910160405180910390a160025460405163ca669fa760e01b81526101009091046001600160a01b03166004820152737109709ecfa91a80626ff3989d68f67f5b1dd12d9063ca669fa790602401600060405180830381600087803b15801561281157600080fd5b505af1158015612825573d6000803e3d6000fd5b5050600854604080516001600160a01b03898116602483015260448083018a905283518084039091018152606490920183526020820180516001600160e01b0316631d3d114760e11b1790529151919092169350620f424092506128899190616cf1565b60006040518083038160008787f1925050503d80600081146128c7576040519150601f19603f3d011682016040523d82523d6000602084013e6128cc565b606091505b50909590945092505050565b831561290b576128ec828260200151613f53565b6128f461519f565b6128fd8161521b565b6111c8838260200151614009565b6111df836152a3565b60408051602081019091526000815260408051602080820180845260008054600c5463313ce56760e01b9093529451939485946001600160a01b0391821694639e422447948a9493169163313ce567916024808a019290818b030181865afa158015612984573d6000803e3d6000fd5b505050506040513d601f19601f820116820180604052508101906129a89190616e4c565b6129b99060ff16633b9aca00616e69565b6040516001600160e01b031960e086901b168152600481019390935260248301919091526044820152606401611995565b600060607ee32ffaa5185f123c75ac2361df2dba64631155324064b57691cf6ec6f2191a83604051612a1e91815260200190565b60405180910390a1600854604051602481018590526001600160a01b0390911690620f424090636b46afeb60e11b90604401611a48565b8315612a65576111be8282613f53565b6111df836153df565b612a9b604051806060016040528060006001600160a01b0316815260200160008152602001600081525090565b600860009054906101000a90046001600160a01b03166001600160a01b0316635c975abb6040518163ffffffff1660e01b8152600401602060405180830381865afa158015612aee573d6000803e3d6000fd5b505050506040513d601f19601f82011682018060405250810190612b129190616bf7565b8015612b275750612b24606443616c1b565b15155b15612b4557604051634931f50760e01b8152600401610e6c90616c3d565b60008054600254604051639e42244760e01b815260048101869052602481019390935261010090046001600160a01b039081163160448401521690639e422447906064016020604051808303816000875af1158015612ba8573d6000803e3d6000fd5b505050506040513d601f19601f82011682018060405250810190612bcc9190616c6c565b600080549193506001600160a01b0390911690639e422447908590612bf36103e887616c85565b6040516001600160e01b031960e086901b1681526004810193909352602483019190915260448201526064016020604051808303816000875af1158015612c3e573d6000803e3d6000fd5b505050506040513d601f19601f82011682018060405250810190612c629190616c6c565b92506040518060600160405280600180805490508760ff16612c849190616c1b565b81548110612c9457612c946169e0565b600091825260209182902001546001600160a01b03168252810185905260400183905290509392505050565b604080516001600160a01b0385168152602081018490526000916060917f2e88014a020ed6830f1071923d8e0628a50b622e07eb98565e08edbaa42080e6910160405180910390a160025460405163ca669fa760e01b81526101009091046001600160a01b03166004820152737109709ecfa91a80626ff3989d68f67f5b1dd12d9063ca669fa790602401600060405180830381600087803b158015612d6557600080fd5b505af1158015612d79573d6000803e3d6000fd5b50506008546040516001600160a01b038981166024830152604482018990529091169250620f424091508590637020821960e11b906064015b60408051601f198184030181529181526020820180516001600160e01b03166001600160e01b0319909416939093179092529051612df09190616cf1565b600060405180830381858888f193505050503d8060008114611194576040519150601f19603f3d011682016040523d82523d6000602084013e611199565b8515612e6157612e3e8484613f53565b612e46615487565b612e58612e538383616de4565b615503565b6123e7826155a7565b6123fa8561564b565b612e97604051806060016040528060006001600160a01b0316815260200160008152602001600081525090565b600860009054906101000a90046001600160a01b03166001600160a01b0316635c975abb6040518163ffffffff1660e01b8152600401602060405180830381865afa158015612eea573d6000803e3d6000fd5b505050506040513d601f19601f82011682018060405250810190612f0e9190616bf7565b8015612f235750612f20606443616c1b565b15155b15612f4157604051634931f50760e01b8152600401610e6c90616c3d565b6004805460009190612f569060ff8816616c1b565b81548110612f6657612f666169e0565b600091825260208083209190910154604080516060810182526001600160a01b03928316808252855460025493516370a0823160e01b815261010090940485166004850152909650909493850193921691639e4224479189919087906370a0823190602401602060405180830381865afa158015612fe8573d6000803e3d6000fd5b505050506040513d601f19601f8201168201806040525081019061300c9190616c6c565b6040516001600160e01b031960e086901b1681526004810193909352602483019190915260448201526064016020604051808303816000875af1158015613057573d6000803e3d6000fd5b505050506040513d601f19601f8201168201806040525081019061307b9190616c6c565b815260008054600254604051639e42244760e01b815260048101899052602481019390935261010090046001600160a01b039081163160448401526020909301921690639e422447906064016020604051808303816000875af11580156130e6573d6000803e3d6000fd5b505050506040513d601f19601f8201168201806040525081019061310a9190616c6c565b905295945050505050565b604080516001600160a01b0385168152602081018490526000916060917f38c8fe8b626b80782905358b527815bac33b5b91319504a856fe037ca85465cd910160405180910390a160025460405163ca669fa760e01b81526101009091046001600160a01b03166004820152737109709ecfa91a80626ff3989d68f67f5b1dd12d9063ca669fa790602401600060405180830381600087803b1580156131ba57600080fd5b505af11580156131ce573d6000803e3d6000fd5b50506008546040516001600160a01b038981166024830152604482018990529091169250620f4240915085906311f9fbc960e21b90606401612db2565b851561324a5761321b8484613f53565b613223615787565b61322c81615503565b6132368383615803565b61324083836158c3565b6123e78383615980565b6123fa85615a2c565b6040805180820190915260008082526020820152600860009054906101000a90046001600160a01b03166001600160a01b0316635c975abb6040518163ffffffff1660e01b8152600401602060405180830381865afa1580156132ba573d6000803e3d6000fd5b505050506040513d601f19601f820116820180604052508101906132de9190616bf7565b80156132f357506132f0606443616c1b565b15155b1561331157604051634931f50760e01b8152600401610e6c90616c3d565b60008054600254604051639e42244760e01b815260048101869052602481019390935261010090046001600160a01b039081163160448401521690639e422447906064016020604051808303816000875af1158015613374573d6000803e3d6000fd5b505050506040513d601f19601f820116820180604052508101906133989190616c6c565b600080549193506001600160a01b0390911690639e4224479085906133bf6103e887616c85565b6040516001600160e01b031960e086901b1681526004810193909352602483019190915260448201526064016020604051808303816000875af115801561340a573d6000803e3d6000fd5b505050506040513d601f19601f8201168201806040525081019061342e9190616c6c565b60408051808201909152908152602081019290925250919050565b600060607f0f81ebe78d074e95a0d4f3c54ca4335c5db40f9a0f11c43e80ab185bb9feacef8460405161347e91815260200190565b60405180910390a160025460405163ca669fa760e01b81526101009091046001600160a01b03166004820152737109709ecfa91a80626ff3989d68f67f5b1dd12d9063ca669fa790602401600060405180830381600087803b1580156134e357600080fd5b505af11580156134f7573d6000803e3d6000fd5b50506008546040805160248082018a905282518083039091018152604490910182526020810180516001600160e01b03166329ac7ded60e11b17905290516001600160a01b039092169350620f4240925086916135549190616cf1565b600060405180830381858888f193505050503d80600081146128c7576040519150601f19603f3d011682016040523d82523d6000602084013e6128cc565b85156135aa576135a28484613f53565b612e46615b68565b6123fa85615be4565b604080516080810182526000808252602082018190529181018290526060810191909152600860009054906101000a90046001600160a01b03166001600160a01b0316635c975abb6040518163ffffffff1660e01b8152600401602060405180830381865afa15801561362a573d6000803e3d6000fd5b505050506040513d601f19601f8201168201806040525081019061364e9190616bf7565b80156136635750613660606443616c1b565b15155b1561368157604051634931f50760e01b8152600401610e6c90616c3d565b60048054600091906136969060ff8916616c1b565b815481106136a6576136a66169e0565b6000918252602091829020015460408051608081019091526001600160a01b03909116808252600180549194509192830191906136e69060ff8a16616c1b565b815481106136f6576136f66169e0565b6000918252602080832091909101546001600160a01b03908116845282546002546040516370a0823160e01b815261010090910483166004820152949092019391811692639e422447928a928816906370a0823190602401602060405180830381865afa15801561376b573d6000803e3d6000fd5b505050506040513d601f19601f8201168201806040525081019061378f9190616c6c565b6040516001600160e01b031960e086901b1681526004810193909352602483019190915260448201526064016020604051808303816000875af11580156137da573d6000803e3d6000fd5b505050506040513d601f19601f820116820180604052508101906137fe9190616c6c565b815260008054600254604051639e42244760e01b815260048101899052602481019390935261010090046001600160a01b039081163160448401526020909301921690639e422447906064016020604051808303816000875af1158015613869573d6000803e3d6000fd5b505050506040513d601f19601f8201168201806040525081019061388d9190616c6c565b90529695505050505050565b604080516001600160a01b038087168252851660208201529081018390526000906060907f4136bf80fdaee64e0e2d7e17b2bda7823a28a97f1a04dd7eb5bea4065ec5813d90820160405180910390a160025460405163ca669fa760e01b81526101009091046001600160a01b03166004820152737109709ecfa91a80626ff3989d68f67f5b1dd12d9063ca669fa790602401600060405180830381600087803b15801561394657600080fd5b505af115801561395a573d6000803e3d6000fd5b5050600854604080516001600160a01b038b811660248301528a8116604483015260648083018b905283518084039091018152608490920183526020820180516001600160e01b0316633c84c56760e21b1790529151919092169350620f4240925086916139c791616cf1565b600060405180830381858888f193505050503d8060008114611609576040519150601f19603f3d011682016040523d82523d6000602084013e61160e565b8515613a1d57613a158484613f53565b613223615d20565b6123fa85615d9c565b606060008367ffffffffffffffff811115613a4357613a436169ca565b604051908082528060200260200182016040528015613a6c578160200160208202803683370190505b50905060005b84811015613b5a57604080516020810188905290810182905260009060600160408051808303601f1901815290829052805160209091012060008054639e42244760e01b8452600484018390526024840191909152604483018890529092506001600160a01b031690639e422447906064016020604051808303816000875af1158015613b03573d6000803e3d6000fd5b505050506040513d601f19601f82011682018060405250810190613b279190616c6c565b905080838381518110613b3c57613b3c6169e0565b60209081029190910101525080613b5281616dcb565b915050613a72565b50949350505050565b60005b8251811015613ba557613b9384848381518110613b8557613b856169e0565b602002602001015184615ed8565b80613b9d81616dcb565b915050613b66565b50613bb08382615f77565b600860009054906101000a90046001600160a01b03166001600160a01b03166367e4e1896040518163ffffffff1660e01b8152600401602060405180830381865afa158015613c03573d6000803e3d6000fd5b505050506040513d601f19601f82011682018060405250810190613c279190616c6c565b60ff8416600090815260166020526040902060020155600c54600854613c59916001600160a01b0390811691166162e6565b60ff8416600090815260166020526040902060030155600d54600854613c8b916001600160a01b0390811691166162e6565b60ff8416600090815260166020526040902060040155600e54600754613cbd916001600160a01b0390811691166162e6565b60ff84166000908152601660209081526040918290206005810193909355600a546001600160a01b03908116316006850155600b54811631600780860191909155600880548316318187015590548216316009909501949094559254825163a7ab696160e01b8152925193169263a7ab69619260048082019392918290030181865afa158015613d51573d6000803e3d6000fd5b505050506040513d601f19601f82011682018060405250810190613d759190616c6c565b60ff8416600090815260166020908152604091829020600a01929092556008548151635c975abb60e01b815291516001600160a01b0390911692635c975abb92600480820193918290030181865afa158015613dd5573d6000803e3d6000fd5b505050506040513d601f19601f82011682018060405250810190613df99190616bf7565b60ff8416600090815260166020908152604091829020600b01805460ff1916931515939093179092556007548151635c975abb60e01b815291516001600160a01b0390911692635c975abb92600480820193918290030181865afa158015613e65573d6000803e3d6000fd5b505050506040513d601f19601f82011682018060405250810190613e899190616bf7565b60ff8416600090815260166020908152604091829020600b0180549315156101000261ff00199094169390931790925560085481516314dee59760e31b815291516001600160a01b039091169263a6f72cb892600480820193918290030181865afa158015613efc573d6000803e3d6000fd5b505050506040513d601f19601f82011682018060405250810190613f209190616bf7565b60ff9093166000908152601660205260409020600b018054931515620100000262ff000019909416939093179092555050565b61102e60018383613b63565b600160005260166020526000805160206172b28339815191525460ff16156117055760008054906101000a90046001600160a01b03166001600160a01b031663a15f9f0760006040518060800160405280605a81526020016173bd605a91396040518363ffffffff1660e01b8152600401613fdb929190616e80565b600060405180830381600087803b158015613ff557600080fd5b505af11580156111df573d6000803e3d6000fd5b61102e816163b9565b61401a616567565b614022616633565b50565b600160005260166020526000805160206172b28339815191525460ff161561404a5750565b60408051600580825260c082019092526000916020820160a08036833701905050905063c0876ed360e01b81600081518110614088576140886169e0565b6001600160e01b031990921660209283029190910190910152805163373a67e760e21b90829060019081106140bf576140bf6169e0565b6001600160e01b03199092166020928302919091019091015280516337c6546160e01b90829060029081106140f6576140f66169e0565b6001600160e01b03199092166020928302919091019091015280516318301aa760e01b908290600390811061412d5761412d6169e0565b6001600160e01b0319909216602092830291909101909101528051632469ee5360e01b9082906004908110614164576141646169e0565b6001600160e01b0319909216602092830291909101909101526000546001600160a01b03166388e362c661419784616e9b565b83604051806080016040528060478152602001617787604791396040518463ffffffff1660e01b81526004016141cf93929190616ed2565b600060405180830381600087803b1580156141e957600080fd5b505af1158015610c99573d6000803e3d6000fd5b6040805160028082526060820183526000926020830190803683370190505090506331278a8760e01b81600081518110614239576142396169e0565b6001600160e01b0319909216602092830291909101909101528051636cbcfbe360e11b9082906001908110614270576142706169e0565b6001600160e01b0319909216602092830291909101909101526000546001600160a01b03166388e362c66142a384616e9b565b836040518060600160405280602f8152602001617052602f91396040518463ffffffff1660e01b81526004016141cf93929190616ed2565b6040805160008082526020820190925290546001600160a01b03166388e362c661430484616e9b565b836040518060600160405280602f815260200161732e602f91396040518463ffffffff1660e01b81526004016141cf93929190616ed2565b6040805160008082526020820190925290546001600160a01b03166388e362c661436584616e9b565b8360405180606001604052806031815260200161760c603191396040518463ffffffff1660e01b81526004016141cf93929190616ed2565b6040805160008082526020820190925290546001600160a01b03166388e362c66143c684616e9b565b836040518060600160405280602a81526020016180b6602a91396040518463ffffffff1660e01b81526004016141cf93929190616ed2565b6040805160008082526020820190925290546001600160a01b03166388e362c661442784616e9b565b83604051806060016040528060318152602001617081603191396040518463ffffffff1660e01b81526004016141cf93929190616ed2565b600160005260166020526000805160206172b28339815191525460ff16156117055760008054906101000a90046001600160a01b03166001600160a01b031663a15f9f0760006040518060800160405280605c81526020016172d2605c91396040518363ffffffff1660e01b8152600401613fdb929190616e80565b6001600160a01b0383166000908152600080516020617e0583398151915260205260409020600601548111156103eb57600080546001600160a01b03848116835260008051602061747983398151915260209081526040808520546000805160206176b28339815191529092529093205491169163bc8d43a891614560906001616c85565b6040518060c00160405280608981526020016180e0608991396040518463ffffffff1660e01b815260040161459793929190616f40565b600060405180830381600087803b1580156145b157600080fd5b505af1158015610a9c573d6000803e3d6000fd5b6001600160a01b0382166000908152600080516020617e058339815191526020526040812060020154900361102e57600080546001600160a01b03838116835260008051602061747983398151915260209081526040808520546000805160206176b28339815191529092529093205491169163bc8d43a891614649906001616c85565b6040518060a0016040528060808152602001617232608091396040518463ffffffff1660e01b81526004016141cf93929190616f40565b6000805260166020527f0263c2b778d062355049effc2dece97bc6547ff8a88a3258daa512061c2153e85462010000900460ff161561402257600080546001600160a01b03838116835260008051602061747983398151915260209081526040808520546000805160206176b28339815191529092529093205491169163bc8d43a89161470e906001616c85565b6040518060a00160405280607b8152602001617cba607b91396040518463ffffffff1660e01b815260040161474593929190616f40565b600060405180830381600087803b15801561475f57600080fd5b505af11580156104f6573d6000803e3d6000fd5b8060000361477f575050565b6001600160a01b0382166000908152600080516020617e05833981519152602052604081206002015490036147b2575050565b600080546001600160a01b038481168352600080516020617e0583398151915260209081526040938490206003810154600290910154855160e0810190965260b58087529390941694638c4fb57d94919391929091906176d2908301396040518463ffffffff1660e01b81526004016141cf93929190616f40565b600080546001600160a01b03848116835260008051602061793f833981519152602052604080842060028101546003909101549151637ae2b5c760e01b815260048101919091526024810191909152911690637ae2b5c790604401602060405180830381865afa1580156148a5573d6000803e3d6000fd5b505050506040513d601f19601f820116820180604052508101906148c99190616c6c565b600080546001600160a01b03868116835260008051602061793f8339815191526020526040909220600401549293501690637ae2b5c79061490a9042616de4565b6001600160a01b038616600090815260008051602061793f833981519152602052604090206005015461493d9190616e69565b6001600160a01b038616600090815260008051602061793f8339815191526020526040902060020154614971908590616de4565b6040516001600160e01b031960e085901b16815260048101929092526024820152604401602060405180830381865afa1580156149b2573d6000803e3d6000fd5b505050506040513d601f19601f820116820180604052508101906149d69190616c6c565b82106149e157505050565b600080546001600160a01b038581168352600080516020617e058339815191526020908152604080852060039081015460008051602061793f8339815191528452958290200154815161014081019092526101158083529390941694635c2b80f59490939092617ef8908301396040518463ffffffff1660e01b815260040161459793929190616f40565b600080546001600160a01b038381168352600080516020617e0583398151915260209081526040938490206003810154600290910154855160a08101909652607d808752939094169463bb35031a949193919290919061799d908301396040518463ffffffff1660e01b815260040161474593929190616f40565b6000805260166020527f0263c2b778d062355049effc2dece97bc6547ff8a88a3258daa512061c2153e85462010000900460ff1615614b2557505050565b6001600160a01b0383166000908152600080516020617e0583398151915260205260409020600601548110614b5957505050565b6001600160a01b03821660009081526000805160206176b283398151915260209081526040808320546000805160206174798339815191529092529091205403614ba257505050565b600080546001600160a01b038581168352600080516020617e0583398151915260209081526040808520600301548151610120810190925260ee808352939094169463bc8d43a8949390926177ce908301396040518463ffffffff1660e01b815260040161459793929190616f40565b6000805260166020527f0263c2b778d062355049effc2dece97bc6547ff8a88a3258daa512061c2153e85462010000900460ff1615614c5057505050565b6001600160a01b0383166000908152600080516020617e0583398151915260205260409020600601548110614c8457505050565b600080546001600160a01b03858116835260008051602061793f833981519152602052604080842060028101546003909101549151637ae2b5c760e01b815260048101919091526024810191909152911690637ae2b5c790604401602060405180830381865afa158015614cfc573d6000803e3d6000fd5b505050506040513d601f19601f82011682018060405250810190614d209190616c6c565b600080546001600160a01b03878116835260008051602061793f8339815191526020526040909220600401549293501690637ae2b5c7908390614d639042616de4565b6001600160a01b038816600090815260008051602061793f8339815191526020526040902060050154614d969190616e69565b614da09190616c85565b6001600160a01b038716600090815260008051602061793f83398151915260205260409081902060020154905160e084901b6001600160e01b031916815260048101929092526024820152604401602060405180830381865afa158015614e0b573d6000803e3d6000fd5b505050506040513d601f19601f82011682018060405250810190614e2f9190616c6c565b821015614e3c5750505050565b600080546001600160a01b03858116835260008051602061747983398151915260209081526040808520546000805160206176b28339815191529092529093205491169163bc8d43a891614e91906001616c85565b604051806101c001604052806101918152602001617a1a61019191396040518463ffffffff1660e01b8152600401614ecb93929190616f40565b600060405180830381600087803b158015614ee557600080fd5b505af11580156102c5573d6000803e3d6000fd5b6001600160a01b038116600090815260008051602061793f83398151915260205260409020600301541580614f5557506001600160a01b0381166000908152600080516020617e05833981519152602052604090206003015415155b15614f5d5750565b600080546001909152601660209081526000805160206172b28339815191525460408051610100810190915260d38082526001600160a01b039094169363a15f9f07936201000090930460ff169261715f908301396040518363ffffffff1660e01b8152600401614745929190616e80565b6001600160a01b0381166000908152600080516020617e05833981519152602052604081206002015490036150015750565b600080546001600160a01b038381168352600080516020617e05833981519152602090815260409384902060040154845160e0810190955260a9808652929093169363bc8d43a89392429261800d908301396040518463ffffffff1660e01b815260040161474593929190616f40565b600160005260166020526000805160206172b28339815191525460ff16156150965750565b6040805160018082528183019092526000916020808301908036833701905050905063180a097760e01b816000815181106150d3576150d36169e0565b6001600160e01b0319909216602092830291909101909101526000546001600160a01b03166388e362c661510684616e9b565b836040518060800160405280604981526020016175c3604991396040518463ffffffff1660e01b81526004016141cf93929190616ed2565b6040805160008082526020820190925290546001600160a01b03166388e362c661516784616e9b565b83604051806060016040528060338152602001617d35603391396040518463ffffffff1660e01b81526004016141cf93929190616ed2565b600160005260166020526000805160206172b28339815191525460ff16156117055760008054906101000a90046001600160a01b03166001600160a01b031663a15f9f076000604051806080016040528060508152602001617bab605091396040518363ffffffff1660e01b8152600401613fdb929190616e80565b60008054600190915260166020527f4c4dc693d7db52f85fe052106f4b4b920e78e8ef37dee82878a60ab8585faf535460608301516001600160a01b039092169163bb35031a9161526b91616c85565b426040518060e0016040528060bf8152602001617bfb60bf91396040518463ffffffff1660e01b815260040161474593929190616f40565b600160005260166020526000805160206172b28339815191525460ff16156152c85750565b604080516003808252608082019092526000916020820160608036833701905050905063c0876ed360e01b81600081518110615306576153066169e0565b6001600160e01b031990921660209283029190910190910152805163373a67e760e21b908290600190811061533d5761533d6169e0565b6001600160e01b03199092166020928302919091019091015280516337c6546160e01b9082906002908110615374576153746169e0565b6001600160e01b0319909216602092830291909101909101526000546001600160a01b03166388e362c66153a784616e9b565b836040518060600160405280603d815260200161755a603d91396040518463ffffffff1660e01b81526004016141cf93929190616ed2565b604080516001808252818301909252600091602080830190803683370190505090506311897a1660e01b8160008151811061541c5761541c6169e0565b6001600160e01b0319909216602092830291909101909101526000546001600160a01b03166388e362c661544f84616e9b565b83604051806080016040528060448152602001617499604491396040518463ffffffff1660e01b81526004016141cf93929190616ed2565b600160005260166020526000805160206172b28339815191525460ff16156117055760008054906101000a90046001600160a01b03166001600160a01b031663a15f9f0760006040518060800160405280604481526020016178fb604491396040518363ffffffff1660e01b8152600401613fdb929190616e80565b6000805460166020527f4c4dc693d7db52f85fe052106f4b4b920e78e8ef37dee82878a60ab8585faf4f549180527f0263c2b778d062355049effc2dece97bc6547ff8a88a3258daa512061c2153e3546001600160a01b039091169163bc8d43a891615570908590616c85565b6040518060a0016040528060628152602001617417606291396040518463ffffffff1660e01b815260040161474593929190616f40565b6000805460166020527f4c4dc693d7db52f85fe052106f4b4b920e78e8ef37dee82878a60ab8585faf51549180527f0263c2b778d062355049effc2dece97bc6547ff8a88a3258daa512061c2153e5546001600160a01b039091169163bc8d43a891615614908590616c85565b6040518060c00160405280608c8152602001618169608c91396040518463ffffffff1660e01b815260040161474593929190616f40565b600160005260166020526000805160206172b28339815191525460ff16156156705750565b60408051600380825260808201909252600091602082016060803683370190505090506374f8023460e01b816000815181106156ae576156ae6169e0565b6001600160e01b0319909216602092830291909101909101528051631f2a200560e01b90829060019081106156e5576156e56169e0565b6001600160e01b031990921660209283029190910190910152805163044044a560e21b908290600290811061571c5761571c6169e0565b6001600160e01b0319909216602092830291909101909101526000546001600160a01b03166388e362c661574f84616e9b565b8360405180606001604052806031815260200161735d603191396040518463ffffffff1660e01b81526004016141cf93929190616ed2565b600160005260166020526000805160206172b28339815191525460ff16156117055760008054906101000a90046001600160a01b03166001600160a01b031663a15f9f0760006040518060600160405280603f81526020016178bc603f91396040518363ffffffff1660e01b8152600401613fdb929190616e80565b600d546001600160a01b039081169083160361581d575050565b600080546001600160a01b03848116808452600080516020617e058339815191526020908152604080862060085485168088529083528187205493875260008051602061793f83398151915283528187209087529091529093205491169163bc8d43a89161588c908590616c85565b6040518060a00160405280607d81526020016174dd607d91396040518463ffffffff1660e01b81526004016141cf93929190616f40565b600d546001600160a01b038381169116146158dc575050565b6000805460166020527f4c4dc693d7db52f85fe052106f4b4b920e78e8ef37dee82878a60ab8585faf51549180527f0263c2b778d062355049effc2dece97bc6547ff8a88a3258daa512061c2153e5546001600160a01b039091169163bc8d43a891615949908590616c85565b6040518060a00160405280606b81526020016170f4606b91396040518463ffffffff1660e01b81526004016141cf93929190616f40565b600d546001600160a01b03838116911614615999575050565b600080546001600160a01b038481168352600080516020617e058339815191526020908152604080852060019081015460008051602061793f83398151915290935294209093015491169163bc8d43a8916159f5908590616de4565b6040518060a0016040528060648152602001617e66606491396040518463ffffffff1660e01b81526004016141cf93929190616f40565b600160005260166020526000805160206172b28339815191525460ff1615615a515750565b60408051600380825260808201909252600091602082016060803683370190505090506374f8023460e01b81600081518110615a8f57615a8f6169e0565b6001600160e01b0319909216602092830291909101909101528051631f2a200560e01b9082906001908110615ac657615ac66169e0565b6001600160e01b031990921660209283029190910190910152805163cf79cc9b60e01b9082906002908110615afd57615afd6169e0565b6001600160e01b0319909216602092830291909101909101526000546001600160a01b03166388e362c6615b3084616e9b565b836040518060600160405280602c8152602001617597602c91396040518463ffffffff1660e01b81526004016141cf93929190616ed2565b600160005260166020526000805160206172b28339815191525460ff16156117055760008054906101000a90046001600160a01b03166001600160a01b031663a15f9f0760006040518060800160405280604281526020016170b2604291396040518363ffffffff1660e01b8152600401613fdb929190616e80565b600160005260166020526000805160206172b28339815191525460ff1615615c095750565b60408051600380825260808201909252600091602082016060803683370190505090506374f8023460e01b81600081518110615c4757615c476169e0565b6001600160e01b0319909216602092830291909101909101528051631f2a200560e01b9082906001908110615c7e57615c7e6169e0565b6001600160e01b031990921660209283029190910190910152805163044044a560e21b9082906002908110615cb557615cb56169e0565b6001600160e01b0319909216602092830291909101909101526000546001600160a01b03166388e362c6615ce884616e9b565b836040518060600160405280602f815260200161738e602f91396040518463ffffffff1660e01b81526004016141cf93929190616ed2565b600160005260166020526000805160206172b28339815191525460ff16156117055760008054906101000a90046001600160a01b03166001600160a01b031663a15f9f076000604051806080016040528060418152602001617e25604191396040518363ffffffff1660e01b8152600401613fdb929190616e80565b600160005260166020526000805160206172b28339815191525460ff1615615dc15750565b60408051600380825260808201909252600091602082016060803683370190505090506374f8023460e01b81600081518110615dff57615dff6169e0565b6001600160e01b0319909216602092830291909101909101528051631f2a200560e01b9082906001908110615e3657615e366169e0565b6001600160e01b031990921660209283029190910190910152805163cf79cc9b60e01b9082906002908110615e6d57615e6d6169e0565b6001600160e01b0319909216602092830291909101909101526000546001600160a01b03166388e362c6615ea084616e9b565b836040518060600160405280602e8152602001617eca602e91396040518463ffffffff1660e01b81526004016141cf93929190616ed2565b600854604051637b1929b760e01b81526001600160a01b03848116600483015290911690637b1929b790602401602060405180830381865afa158015615f22573d6000803e3d6000fd5b505050506040513d601f19601f82011682018060405250810190615f469190616c6c565b60ff90931660009081526016602090815260408083206001600160a01b039095168352939052919091209190915550565b6001600160a01b038116615f89575050565b6001600160a01b038116610eee1461602c57806001600160a01b03166318160ddd6040518163ffffffff1660e01b8152600401602060405180830381865afa158015615fd9573d6000803e3d6000fd5b505050506040513d601f19601f82011682018060405250810190615ffd9190616c6c565b60ff831660009081526016602090815260408083206001600160a01b0386168452600190810190925290912001555b60005b6001548110156160e25761606a8260018381548110616050576160506169e0565b6000918252602090912001546001600160a01b03166162e6565b60ff841660009081526016602090815260408083206001600160a01b038716845260019081019092528220815490929190859081106160ab576160ab6169e0565b60009182526020808320909101546001600160a01b03168352820192909252604001902055806160da81616dcb565b91505061602f565b506008546160fa9082906001600160a01b03166162e6565b60ff831660009081526016602090815260408083206001600160a01b038087168552600190910183528184206008548216855290925290912091909155600754616146918391166162e6565b60ff831660009081526016602090815260408083206001600160a01b038681168086526001909201845282852060075482168652909352818420949094556008549051631b34b1f560e11b81526004810194909452919283928392839291169063366963ea90602401608060405180830381865afa1580156161cc573d6000803e3d6000fd5b505050506040513d601f19601f820116820180604052508101906161f09190616f5f565b60ff8a1660009081526016602090815260408083206001600160a01b038d81168086526001909201909352928190206002810188905560038101879055600480820187905560059091018590556008549151634251948d60e11b81529081019390935295995093975091955093509116906384a3291a90602401602060405180830381865afa158015616287573d6000803e3d6000fd5b505050506040513d601f19601f820116820180604052508101906162ab9190616c6c565b60ff90961660009081526016602090815260408083206001600160a01b03909816835260019097019052949094206006019490945550505050565b6000610eed196001600160a01b0384160161630c57506001600160a01b03811631612766565b6040516370a0823160e01b81526001600160a01b0383811660048301528416906370a0823190602401602060405180830381865afa158015616352573d6000803e3d6000fd5b505050506040513d601f19601f820116820180604052508101906163769190616c6c565b9050612766565b82518110156163ae5761639c848483815181106103eb576103eb6169e0565b806163a681616dcb565b91505061637d565b506103eb83826166b0565b6001600160a01b038116610eee14806163d957506001600160a01b038116155b156163e15750565b6000805b60015481101561646e576001600160a01b0383166000908152600080516020617e0583398151915260205260408120600180549192918490811061642b5761642b6169e0565b60009182526020808320909101546001600160a01b0316835282019290925260400190205461645a9083616c85565b91508061646681616dcb565b9150506163e5565b506001600160a01b038083166000908152600080516020617e0583398151915260209081526040808320600854909416835292905220546164af9082616c85565b6001600160a01b038084166000908152600080516020617e0583398151915260209081526040808320600754909416835292905220549091506164f29082616c85565b600080546001600160a01b038581168352600080516020617e05833981519152602090815260409384902060010154845160a081019095526075808652959650919092169363bc8d43a893869390919061763d908301396040518463ffffffff1660e01b81526004016141cf93929190616f40565b600160005260166020527f4c4dc693d7db52f85fe052106f4b4b920e78e8ef37dee82878a60ab8585faf4b541561170557600080546001909152601660209081527f4c4dc693d7db52f85fe052106f4b4b920e78e8ef37dee82878a60ab8585faf4c547f4c4dc693d7db52f85fe052106f4b4b920e78e8ef37dee82878a60ab8585faf4b546040805160c08101909152609d8082526001600160a01b039095169463bb35031a94617d68908301396040518463ffffffff1660e01b8152600401613fdb93929190616f40565b6000805460018252601660209081527f4c4dc693d7db52f85fe052106f4b4b920e78e8ef37dee82878a60ab8585faf4d546040805160608101909152603e8082526001600160a01b039094169463bc8d43a894929390929061795f908301396040518463ffffffff1660e01b8152600401613fdb93929190616f40565b6000546040805163319af33360e01b81526004810191909152600f60448201526e02a37b5b2b71030b2323932b9b99d1608d1b60648201526001600160a01b0383811660248301529091169063319af33390608401600060405180830381600087803b15801561671f57600080fd5b505af1158015616733573d6000803e3d6000fd5b5050506001600160a01b038216905061674a575050565b6001600160a01b038116610eee1461102e5760008054604080516306fdde0360e01b815290516001600160a01b0392831693634b5c4277938616926306fdde0392600480830193928290030181865afa1580156167ab573d6000803e3d6000fd5b505050506040513d6000823e601f3d908101601f191682016040526167d39190810190616f95565b6040518263ffffffff1660e01b81526004016141cf9190617020565b60ff8116811461402257600080fd5b6000806000806080858703121561681457600080fd5b843561681f816167ef565b9350602085013561682f816167ef565b93969395505050506040820135916060013590565b6000806000806080858703121561685a57600080fd5b8435616865816167ef565b966020860135965060408601359560600135945092505050565b60006020828403121561689157600080fd5b5035919050565b801515811461402257600080fd5b600080600080600060a086880312156168be57600080fd5b85356168c981616898565b945060208601356168d9816167ef565b935060408601356168e9816167ef565b925060608601356168f9816167ef565b949793965091946080013592915050565b6000806040838503121561691d57600080fd5b8235616928816167ef565b946020939093013593505050565b60008060006060848603121561694b57600080fd5b8335616956816167ef565b95602085013595506040909401359392505050565b6000806040838503121561697e57600080fd5b50508035926020909101359150565b634e487b7160e01b600052601160045260246000fd5b6001600160a01b038181168382160190808211156169c3576169c361698d565b5092915050565b634e487b7160e01b600052604160045260246000fd5b634e487b7160e01b600052603260045260246000fd5b600081518084526020808501945080840160005b83811015616a2657815187529582019590820190600101616a0a565b509495945050505050565b6001600160a01b0383168152604060208201819052600090616a55908301846169f6565b949350505050565b6040516080810167ffffffffffffffff81118282101715616a8057616a806169ca565b60405290565b6040516060810167ffffffffffffffff81118282101715616a8057616a806169ca565b604051601f8201601f1916810167ffffffffffffffff81118282101715616ad257616ad26169ca565b604052919050565b600067ffffffffffffffff821115616af457616af46169ca565b5060051b60200190565b80516001600160a01b0381168114616b1557600080fd5b919050565b60006020808385031215616b2d57600080fd5b825167ffffffffffffffff811115616b4457600080fd5b8301601f81018513616b5557600080fd5b8051616b68616b6382616ada565b616aa9565b81815260079190911b82018301908381019087831115616b8757600080fd5b928401925b82841015616bec5760808489031215616ba55760008081fd5b616bad616a5d565b616bb685616afe565b8152616bc3868601616afe565b818701526040858101519082015260608086015190820152825260809093019290840190616b8c565b979650505050505050565b600060208284031215616c0957600080fd5b8151616c1481616898565b9392505050565b600082616c3857634e487b7160e01b600052601260045260246000fd5b500690565b602080825260159082015274149bdbdd08189c9a5919d9481a5cc81c185d5cd959605a1b604082015260600190565b600060208284031215616c7e57600080fd5b5051919050565b808201808211156127665761276661698d565b6001600160a01b03848116825283166020820152606060408201819052600090616cc4908301846169f6565b95945050505050565b60005b83811015616ce8578181015183820152602001616cd0565b50506000910152565b60008251616d03818460208701616ccd565b9190910192915050565b60006020808385031215616d2057600080fd5b825167ffffffffffffffff811115616d3757600080fd5b8301601f81018513616d4857600080fd5b8051616d56616b6382616ada565b81815260609182028301840191848201919088841115616d7557600080fd5b938501935b83851015616dbf5780858a031215616d925760008081fd5b616d9a616a86565b8551815286860151878201526040808701519082015283529384019391850191616d7a565b50979650505050505050565b600060018201616ddd57616ddd61698d565b5060010190565b818103818111156127665761276661698d565b634e487b7160e01b600052603160045260246000fd5b60008151808452616e25816020860160208601616ccd565b601f01601f19169290920160200192915050565b602081526000616c146020830184616e0d565b600060208284031215616e5e57600080fd5b8151616c14816167ef565b80820281158282048414176127665761276661698d565b8215158152604060208201526000616a556040830184616e0d565b805160208201516001600160e01b03198082169291906004831015616eca5780818460040360031b1b83161693505b505050919050565b60006060820163ffffffff60e01b80871684526020606081860152828751808552608087019150828901945060005b81811015616f1f578551851683529483019491830191600101616f01565b50508581036040870152616f338188616e0d565b9998505050505050505050565b838152826020820152606060408201526000616cc46060830184616e0d565b60008060008060808587031215616f7557600080fd5b505082516020840151604085015160609095015191969095509092509050565b600060208284031215616fa757600080fd5b815167ffffffffffffffff80821115616fbf57600080fd5b818401915084601f830112616fd357600080fd5b815181811115616fe557616fe56169ca565b616ff8601f8201601f1916602001616aa9565b915080825285602082850101111561700f57600080fd5b613b5a816020840160208601616ccd565b60408152600760408201526602a37b5b2b71d160cd1b6060820152608060208201526000616c146080830184616e0d56fe52545245562d31313a2073657452617465436f6e74726f6c5468726573686f6c64206e65766572207265766572747352545245562d31303a20706175736520666f722074686520726f6f7420627269646765206e65766572207265766572747350415553452d30323a206465706f73697445544820616c776179732072657665727473207768656e2074686520726f6f74206272696467652069732070617573656442414c2d30363a20546865206e61746976652062616c616e6365206f662074686520726f6f742062726964676520696e637265617365732062792065786163746c792074686520616d6f756e74206f662057455448206465706f7369746564206279207468652075736572464c52542d31313a20496620746865206465707468206f662074686520746f6b656e206275636b6574206973206e6f6e2d7a65726f206265666f72652061207375636365737366756c207769746864726177616c206f6e2074686520726f6f742062726964676520616e6420746865206465707468206f662074686520746f6b656e206275636b6574206973207a65726f20616674657220746865207769746864726177616c2c207468656e20746865207769746864726177616c207175657565206d75737420626520616374697661746564464c52542d30333a20496620746865206275636b657420636170616369747920666f72206120746f6b656e20697320302c207468656e20616e79207769746864726177616c206f66207468617420746f6b656e206d75737420626520616464656420746f2074686520757365722773207769746864726177616c2071756575654c4dc693d7db52f85fe052106f4b4b920e78e8ef37dee82878a60ab8585faf5450415553452d30373a206f6e4d6573736167655265636569766520666f722074686520726f6f742062726964676520616c776179732072657665727473207768656e2074686520726f6f74206272696467652069732070617573656452545245562d30313a2061637469766174655769746864726177616c5175657565206e65766572207265766572747352545245562d30363a206465706f736974546f455448206e65766572207265766572747320756e65787065637465646c7952545245562d30343a206465706f736974455448206e65766572207265766572747320756e65787065637465646c7950415553452d30363a2066696e616c6973655175657565645769746864726177616c4167677265676174656420616c776179732072657665727473207768656e2074686520726f6f74206272696467652069732070617573656442414c2d30333a20546865206e61746976652062616c616e6365206f662074686520726f6f742061646170746f7220696e637265617365732062792065786163746c79207468652067617320666565732070616964206279207468652075736572734c4dc693d7db52f85fe052106f4b4b920e78e8ef37dee82878a60ab8585faf4952545245562d31343a20757064617465496d7843756d756c61746976654465706f7369744c696d6974206e65766572207265766572747320756e65787065637465646c7942414c2d30353a2054686520746f6b656e2062616c616e63652c206578636c7564696e6720574554482c206f662074686520726f6f742062726964676520696e637265617365732062792065786163746c792074686520616d6f756e74206f6620746f6b656e73206465706f736974656420627920746865207573657252545245562d30373a2066696e616c6973655175657565645769746864726177616c206e65766572207265766572747320756e65787065637465646c7952545245562d30333a206465706f736974206e65766572207265766572747320756e65787065637465646c7952545245562d30393a206f6e4d6573736167655265636569766520666f722074686520726f6f7420627269646765206e65766572207265766572747320756e65787065637465646c7952545245562d30323a20646561637469766174655769746864726177616c5175657565206e65766572207265766572747353504c592d30313a205468652073756d206f662074686520746f6b656e2062616c616e636573206f662065616368207573657220616e642074686520627269646765732073686f756c642062652065786163746c7920657175616c20746f2074686520746f6b656e20746f74616c20737570706c790263c2b778d062355049effc2dece97bc6547ff8a88a3258daa512061c2153dd464c52542d30363a2041667465722061207375636365737366756c207769746864726177616c206f662061206e6f6e2d7a65726f20616d6f756e74206f6e2074686520726f6f74206272696467652c20696620746865206275636b6574206361706163697479206973206e6f74207a65726f2c207468656e2074686520746f6b656e206275636b6574206465707468206973206e6576657220657175616c20746f20746865206275636b657420636170616369747952545245562d30383a2066696e616c6973655175657565645769746864726177616c41676772656761746564206e65766572207265766572747320756e65787065637465646c79464c52542d30393a205768656e20746865207769746864726177616c5175657565206973206e6f74206163746976617465642c2061667465722061207375636365737366756c207769746864726177616c206f6620616e20616d6f756e74206c657373207468616e20746865206c617267655472616e736665725468726573686f6c64206f6e2074686520726f6f742062726964676520616e642061207769746864726177616c2077617320616464656420746f2074686520757365722773207769746864726177616c2071756575652c20746865206275636b657420646570746820697320616c77617973203050415553452d30313a206465706f73697420616c776179732072657665727473207768656e2074686520726f6f74206272696467652069732070617573656450415553452d30343a206465706f736974546f45544820616c776179732072657665727473207768656e2074686520726f6f7420627269646765206973207061757365640263c2b778d062355049effc2dece97bc6547ff8a88a3258daa512061c2153de42414c2d30313a2054686520574554482062616c616e6365206f662074686520726f6f74206272696467652073686f756c6420616c776179732062652030464c52542d30383a2041667465722061207375636365737366756c207769746864726177206f6e2074686520726f6f74206272696467652c20746865206275636b657420646570746820697320616c77617973206c657373207468616e206f7220657175616c20746f20746865206275636b6574206361706163697479464c52542d31303a205768656e20746865207769746864726177616c5175657565206973206e6f74206163746976617465642c2061667465722061207375636365737366756c207769746864726177616c206f6620616e20616d6f756e74206c657373207468616e20746865206c617267655472616e736665725468726573686f6c64206f6e2074686520726f6f74206272696467652c206966207468652077697468647261776e20616d6f756e742069732067726561746572206f7220657175616c20746f206d696e696d756d206f662074686520726566696c6c2072617465206d756c7469706c696564206279207468652074696d6520656c61707365642073696e6365206c617374207769746864726177616c20706c757320746865207072696f72207265616c206275636b657420646570746820616e6420746865206275636b65742063617061636974792c207468656e20746865207769746864726177616c206d75737420626520616464656420746f2074686520757365722773207769746864726177616c20717565756550415553452d30353a2066696e616c6973655175657565645769746864726177616c20616c776179732072657665727473207768656e2074686520726f6f742062726964676520697320706175736564464c52542d30353a2049662066696e616c6973655175657565645769746864726177616c206973207375636365737366756c6c792063616c6c65642c207468656e2074686520717565756564207769746864726177616c20696e697469617465642074696d657374616d7020706c757320746865207769746864726177616c2064656c6179206d757374206265206c657373207468616e206f7220657175616c20746f207468652063757272656e7420626c6f636b2074696d657374616d70464c52542d30343a204966207769746864726177616c517565756541637469766174656420697320747275652c207468656e20616e79207769746864726177616c206f6620616e7920746f6b656e206d75737420626520616464656420746f2074686520757365722773207769746864726177616c20717565756552545245562d31333a20756e706175736520666f722074686520726f6f7420627269646765206e657665722072657665727473464c52542d30313a20496620696d7843756d756c61746976654465706f7369744c696d6974206973206e6f7420302c2074686520726f6f74494d5820746f6b656e2062616c616e6365206f662074686520726f6f74206272696467652073686f756c6420616c77617973206265206c657373207468616e206f7220657175616c20746f20696d7843756d756c61746976654465706f7369744c696d69744c4dc693d7db52f85fe052106f4b4b920e78e8ef37dee82878a60ab8585faf4a50415553452d30333a206465706f736974546f20616c776179732072657665727473207768656e2074686520726f6f74206272696467652069732070617573656453504c592d30323a2054686520746f74616c20737570706c79206f6620726f6f742057455448206d757374206265206465637265617365642062792074686520616d6f756e74206f662057455448206465706f736974656420627920746865207573657252545245562d30353a206465706f736974546f206e65766572207265766572747320756e65787065637465646c79464c52542d30373a2041667465722061207375636365737366756c207769746864726177206f6e2074686520726f6f74206272696467652c206966207468652077697468647261776e20616d6f756e74206973206c657373207468616e20746865206d696e696d756d206f662074686520726566696c6c2072617465206d756c7469706c696564206279207468652074696d6520656c61707365642073696e6365206c617374207769746864726177616c20616e6420746865206275636b6574206361706163697479206d696e757320746865207072696f72207265616c206275636b65742064657074682c207468656e20746865206275636b6574206465707468207374726963746c7920696e63726561736573464c52542d31323a2041667465722065616368207375636365737366756c207769746864726177616c206f6e2074686520726f6f742062726964676520666f72206120746f6b656e20776974682061206e6f6e2d7a65726f2063617061636974792c20746865206275636b657420726566696c6c54696d6520697320616c77617973207570646174656420746f207468652063757272656e7420626c6f636b2074696d657374616d7052545245562d31323a207365745769746864726177616c44656c6179206e657665722072657665727473464c52542d30323a20496620746865207769746864726177616c20616d6f756e742069732067726561746572207468616e20746865206c617267655472616e736665725468726573686f6c642c20746865207769746864726177616c206d75737420626520616464656420746f2074686520757365722773207769746864726177616c20717565756542414c2d30373a205768656e206465706f736974696e67204554482c20746865206e61746976652062616c616e6365206f662074686520726f6f742062726964676520696e637265617365732062792065786163746c792074686520616d6f756e74206465706f73697465642062792074686520757365722c206d696e757320746865206761732066656573a264697066735822122031d671692b542356eda666ad2e03fc6691c1e0f9d936fbb8f1cef2ea521be4a164736f6c63430008130033608060405234801561001057600080fd5b506132d8806100206000396000f3fe608060405234801561001057600080fd5b50600436106104125760003560e01c80637e1ddd8011610220578063b60e72cc11610130578063e01e92d2116100b8578063f09ced9711610087578063f09ced9714610929578063f0f4b6521461093c578063f5bc3a711461094f578063f5c466f614610962578063fb9894b21461097557600080fd5b8063e01e92d2146108ca578063e894090d146108f0578063eef2538914610903578063f01ff64c1461091657600080fd5b8063c3b55635116100ff578063c3b5563514610876578063c5df2a3714610889578063d2a506041461089c578063de9b2232146108af578063df7cd77f146108b757600080fd5b8063b60e72cc1461082a578063bb35031a1461083d578063bc8d43a814610850578063c0e8def21461086357600080fd5b8063942732b2116101b3578063a98283e411610182578063a98283e4146107cb578063ac0c207b146107de578063aeef9c21146107f1578063b09c41b714610804578063b2f9799d1461081757600080fd5b8063942732b21461077f578063953e5e80146107925780639e422447146107a5578063a15f9f07146107b857600080fd5b8063846213a1116101ef578063846213a11461073357806388e362c6146107465780638c4fb57d146107595780638f5e514a1461076c57600080fd5b80637e1ddd80146106e75780638010bad3146106fa57806381fe57861461070d578063841ea11c1461072057600080fd5b8063319af33311610326578063568c1385116102ae5780636c9764b31161027d5780636c9764b3146106885780636d5433e61461069b57806372de77b5146106ae5780637ae2b5c7146106c15780637b8d0f0c146106d457600080fd5b8063568c13851461061f5780635c2b80f5146106325780636945c5ea146106455780636ace552c1461067557600080fd5b80633ccb5e26116102f55780633ccb5e26146105a857806341304fac146105bb57806342068767146105ce5780634b5c4277146105e15780634bde38c8146105f457600080fd5b8063319af3331461056f5780633692d61a146104fd5780633b6ddf03146105825780633ca6268e1461059557600080fd5b80631b55d07c116103a9578063213cde2c11610378578063213cde2c1461051057806323cdd8e8146105235780632d40851e146105365780632e17d472146105495780632ffde6031461055c57600080fd5b80631b55d07c146104c45780631b5ac4b5146104d75780631ba0399b146104ea5780631fc4755e146104fd57600080fd5b8063084ec410116103e5578063084ec4101461047857806309fd38991461048b5780631059bfc91461049e57806314ec1cc6146104b157600080fd5b806301b9e8271461041757806304fbe1c51461042c57806306cb00111461043f57806306f8234214610465575b600080fd5b61042a610425366004612329565b610988565b005b61042a61043a366004612388565b610a6b565b61045261044d3660046123d5565b610a79565b6040519081526020015b60405180910390f35b61042a610473366004612329565b610b4d565b610452610486366004612414565b610b6c565b6104526104993660046123d5565b610c09565b61042a6104ac366004612449565b610cfe565b61042a6104bf366004612329565b610d17565b6104526104d2366004612414565b610d91565b6104526104e53660046124ac565b610df3565b61042a6104f8366004612329565b610e13565b61042a61050b3660046124c5565b610e8d565b61042a61051e3660046124c5565b610e97565b61042a610531366004612449565b610ea1565b610452610544366004612414565b610eab565b610452610557366004612414565b610ec6565b61045261056a366004612414565b610ee1565b61042a61057d366004612520565b610f0a565b61042a610590366004612329565b610f14565b61042a6105a33660046124c5565b610f8e565b61042a6105b6366004612564565b610f98565b61042a6105c93660046125ab565b610fc9565b61042a6105dc366004612449565b610fd5565b61042a6105ef366004612449565b610fed565b600054610607906001600160a01b031681565b6040516001600160a01b03909116815260200161045c565b61045261062d3660046125df565b610ff7565b61042a610640366004612329565b61101a565b61042a610653366004612601565b600080546001600160a01b0319166001600160a01b0392909216919091179055565b61042a61068336600461263f565b611094565b61042a6106963660046126ed565b611158565b6104526106a93660046125df565b611288565b61042a6106bc366004612719565b61129e565b6104526106cf3660046125df565b611319565b6104526106e23660046127ea565b611328565b6104526106f53660046125df565b611337565b61042a610708366004612816565b611345565b61045261071b3660046125df565b6113ad565b61042a61072e366004612329565b6113bc565b61042a6107413660046128c2565b6113dc565b61042a6107543660046129ac565b611431565b61042a610767366004612329565b61149e565b61045261077a3660046125df565b611518565b61042a61078d366004612449565b611536565b6104526107a0366004612414565b611540565b6104526107b33660046127ea565b611556565b61042a6107c63660046129f2565b611565565b61042a6107d93660046124c5565b6115f5565b6104526107ec3660046125df565b6115ff565b61042a6107ff3660046125ab565b61160d565b61042a610812366004612a35565b611616565b610452610825366004612414565b61169b565b61042a6108383660046124c5565b6116d4565b61042a61084b366004612329565b6116de565b61042a61085e366004612329565b6116fe565b61042a610871366004612329565b61171d565b61042a610884366004612388565b61173c565b6104526108973660046125df565b611746565b61042a6108aa366004612329565b611754565b61042a611773565b61042a6108c5366004612b1c565b61177d565b6108dd6108d8366004612b48565b611843565b604051600f9190910b815260200161045c565b6104526108fe3660046125df565b611859565b610452610911366004612414565b611867565b6104526109243660046125df565b611888565b6104526109373660046125df565b611896565b61042a61094a366004612520565b6118a4565b61045261095d3660046125df565b6118ae565b61042a610970366004612449565b6118ba565b6104526109833660046125df565b6118c4565b818310610a6657600061099a846118d2565b905060006109a7846118d2565b905060006109d18383604051806040016040528060028152602001613e3d60f01b81525087611916565b90507f46d01dfbc4861b5b859d858d541e8b0046175a8dece70e24f892a3318f70e2bb81604051610a029190612bbb565b60405180910390a160008054604080516309ccaefb60e01b815290516001600160a01b03909216926309ccaefb92600480840193829003018186803b158015610a4a57600080fd5b505afa158015610a5e573d6000803e3d6000fd5b505050505050505b505050565b610a758282611948565b5050565b600083851080610a8857508285115b15610b42576000610a998585612be4565b610aa4906001612bf7565b610aae9087612c20565b610ab89086612bf7565b90508215610b3b576000610acb876118d2565b90506000610ad8836118d2565b905060008282604051602001610aef929190612c34565b60405160208183030381529060405290507f4cb9c134519750e09450a0c38d146fed2eced02dd651ef32c9e3488faa55c6f681604051610b2f9190612bbb565b60405180910390a15050505b9050610b45565b50835b949350505050565b818312610a66576000610b5f84611985565b905060006109a784611985565b600082841315610bff57828215610bf8576000610b8886611985565b90506000610b9583611985565b905060008282604051602001610bac929190612c34565b60405160208183030381529060405290507f4cb9c134519750e09450a0c38d146fed2eced02dd651ef32c9e3488faa55c6f681604051610bec9190612bbb565b60405180910390a15050505b9050610c02565b50825b9392505050565b600083851280610c1857508285135b15610b42576000610c298585612c8e565b610c34906001612cae565b9050600081610c438789612c8e565b610c4d9190612cd6565b90506000811215610c6557610c628282612cae565b90505b6000610c718288612cae565b90508415610cf4576000610c8489611985565b90506000610c9183611985565b905060008282604051602001610ca8929190612c34565b60405160208183030381529060405290507f4cb9c134519750e09450a0c38d146fed2eced02dd651ef32c9e3488faa55c6f681604051610ce89190612bbb565b60405180910390a15050505b9250610b45915050565b6000610d0a83836119e0565b9050610a66811583611565565b818314610a66576000610d2984611985565b90506000610d3684611985565b90506000610d60838360405180604001604052806002815260200161213d60f01b81525087611916565b90507f2d2d38c9a34df9887a6dcb2a54c1f79ff8bf9c4d4cafacd7d1f7277f57baab6f81604051610a029190612bbb565b6000828411610dec57610dbf836000196040518060800160405280605a8152602001613249605a913961149e565b6000610dcc846001612bf7565b90508215610bf8576000610ddf866118d2565b90506000610b95836118d2565b5082610c02565b600080821215610e0b57610e0682612cea565b610e0d565b815b92915050565b81831315610a66576000610e2684611985565b90506000610e3384611985565b90506000610e5c8383604051806040016040528060018152602001601f60f91b81525087611916565b90507f62bdda9a05cdbcdbf905cbad99c6ebdc098b6f0933d8f2eb3cfab7400b60251481604051610a029190612bbb565b610a758282611a41565b610a758282611a72565b610a758282611aa3565b6000828413610bff57828215610bf8576000610b8886611985565b6000828411610bff57828215610bf8576000610ddf866118d2565b6000828412610bff576000610ef7600185612c8e565b90508215610bf8576000610b8886611985565b610a758282611ad4565b81831215610a66576000610f2784611985565b90506000610f3484611985565b90506000610f5d8383604051806040016040528060018152602001600f60fa1b81525087611916565b90507f94424ed24fb39638b64817c737dd443f387aaa1486614da449b6686a642d6d6c81604051610a029190612bbb565b610a758282611b05565b816001600160a01b0316836001600160a01b031614610a66576000610fbc84611b36565b90506000610d3684611b36565b610fd281611c7d565b50565b6000610fe183836119e0565b9050610a668183611565565b610a758282611cb7565b6000818312156110105761100b8383612c8e565b610c02565b610c028284612c8e565b818311610a6657600061102c846118d2565b90506000611039846118d2565b905060006110638383604051806040016040528060028152602001613c3d60f01b81525087611916565b90507f707b8c56e4c211cf1321faeb4148237062228db2fcecc9be487e83a2680e7e5081604051610a029190612bbb565b6000600183516110a49190612be4565b90505b8015610a665760008184516110bc9190612be4565b6110c69084612c20565b905060008483815181106110dc576110dc612d06565b6020026020010151905060008583815181106110fa576110fa612d06565b602002602001015190508086858151811061111757611117612d06565b6020026020010181815250508186848151811061113657611136612d06565b602002602001018181525050505050808061115090612d1c565b9150506110a7565b6001600160e01b031983811690831614610a6657604080516001600160e01b0319858116602083015282516004818403018152602483018452908516604483015282516028818403018152604890920190925260006111b683611ce8565b905060006111c383611ce8565b905060006111ed838360405180604001604052806002815260200161213d60f01b81525089611916565b90507f2d2d38c9a34df9887a6dcb2a54c1f79ff8bf9c4d4cafacd7d1f7277f57baab6f8160405161121e9190612bbb565b60405180910390a160008054604080516309ccaefb60e01b815290516001600160a01b03909216926309ccaefb92600480840193829003018186803b15801561126657600080fd5b505afa15801561127a573d6000803e3d6000fd5b505050505050505050505050565b60008183116112975781610c02565b5090919050565b60006112aa86866119e0565b806112ba57506112ba86856119e0565b806112ca57506112ca86846119e0565b806112da57506112da86836119e0565b90506000858585856040516020016112f59493929190612d33565b60405160208183030381529060405290506113108282611565565b50505050505050565b60008183106112975781610c02565b6000610b458484846001610c09565b6000610c0283836001610eab565b600061135185856119e0565b80611361575061136185846119e0565b80611371575061137185836119e0565b9050600084848460405160200161138a93929190612dae565b60405160208183030381529060405290506113a58282611565565b505050505050565b60008183136112975781610c02565b81831015610a665760006113cf846118d2565b90506000610f34846118d2565b60006113e884846119e0565b806113f857506113f884836119e0565b90506000838360405160200161140f929190612e0b565b604051602081830303815290604052905061142a8282611565565b5050505050565b6000805b835181101561148d5783818151811061145057611450612d06565b60200260200101516001600160e01b031916856001600160e01b0319160361147b576001915061148d565b8061148581612e4a565b915050611435565b506114988183611565565b50505050565b818303610a665760006114b0846118d2565b905060006114bd846118d2565b905060006114e78383604051806040016040528060028152602001613d3d60f01b81525087611916565b90507fff4de080d2384f233e1a4fb3268e8f715d8802217ad2382235900a274dde76dd81604051610a029190612bbb565b60008183101561152c5761100b8383612be4565b610c028284612be4565b610a758282611ebb565b6000828413610dec576000610ef7846001612cae565b6000610b458484846001610a79565b81610a75577feb03ca8c87c7849bef8f54cfdd2c6b967b2734fe872f751978c34bb91e13d351816040516115999190612bbb565b60405180910390a160008054604080516309ccaefb60e01b815290516001600160a01b03909216926309ccaefb92600480840193829003018186803b1580156115e157600080fd5b505afa1580156113a5573d6000803e3d6000fd5b610a758282611eec565b6000610c0283836001610b6c565b610fd281611f1d565b60008060005b84518110156116775784818151811061163757611637612d06565b60200260200101516001600160e01b031916866001600160e01b031916036116655760019250809150611677565b8061166f81612e4a565b91505061161c565b5061142a8284838151811061168e5761168e612d06565b6020026020010151611565565b6000828410610bff576116c88360006040518060800160405280605181526020016131f86051913961149e565b6000610dcc8486612c20565b610a758282611f4c565b81831115610a665760006116f1846118d2565b90506000610e33846118d2565b818314610a66576000611710846118d2565b90506000610d36846118d2565b818303610a6657600061172f84611985565b905060006114bd84611985565b610a758282611f7d565b6000610c0283836001611867565b818313610a6657600061176684611985565b9050600061103984611985565b61177b611fae565b565b81151583151514610a66576000836117b2576040518060400160405280600581526020016466616c736560d81b8152506117d0565b604051806040016040528060048152602001637472756560e01b8152505b90506000836117fc576040518060400160405280600581526020016466616c736560d81b815250610d36565b604051806040016040528060048152602001637472756560e01b81525090506000610d60838360405180604001604052806002815260200161213d60f01b81525087611916565b60008082600f0b1215610e0b57610e0682612e63565b6000610c0283836001610ec6565b600082841115610bff57600061187e846001612bf7565b610dcc9086612c20565b6000610c0283836001610ee1565b6000610c0283836001611540565b610a758282611fd9565b6000610c0283836118ae565b610a75828261200a565b6000610c0283836001610d91565b606060a06040510180604052602081039150506000815280825b600183039250600a81066030018353600a9004806118ec5750819003601f19909101908152919050565b60608483858460405160200161192f9493929190612e92565b6040516020818303038152906040529050949350505050565b7ff9a6ee38cd6e0347cb8c6a74ff6a63ee77c626ba70466aadfa86f9272fa3b8988282604051611979929190612f1c565b60405180910390a15050565b606060008083121561199f5761199a83612cea565b6119a1565b825b90506119ac816118d2565b915060008312156119da57816040516020016119c89190612f40565b60405160208183030381529060405291505b50919050565b6000816040516020016119f39190612f69565b60405160208183030381529060405280519060200120611a128461203b565b604051602001611a229190612f69565b6040516020818303038152906040528051906020012014905092915050565b7f02d93529bba9d141e5e06733c52c7e6fbcb1149586adb5c24064b522ab26f1d78282604051611979929190612f85565b7f9baa6cc96f4ef57470cb9af41561fd39032f77ca4a067930807bb7d0d3386cbf8282604051611979929190612f85565b7fe8407a0209fa99ec3a7228aff140c3d3e68bd279391739c7e0b65cd406cc93b58282604051611979929190612fa7565b7f62ddffe5b5108385f7a590f100e1ee414ad9551a31f089e64e82998440785e1e8282604051611979929190612fd5565b7f6a837ff3973aa4181e7b9f07756f8b7ee366dd85a36655d2cb42cd47f10b96388282604051611979929190612f85565b60408051602880825260608281019093526000919060208201818036833701905050905060005b6014811015611c76576000611b73826013612be4565b611b7e906008612fff565b611b899060026130fa565b611b9c906001600160a01b038716613106565b60f81b9050600060108260f81c611bb3919061311a565b60f81b905060008160f81c6010611bca919061313c565b8360f81c611bd89190613158565b60f81b9050611be68261222b565b85611bf2866002612fff565b81518110611c0257611c02612d06565b60200101906001600160f81b031916908160001a905350611c228161222b565b85611c2e866002612fff565b611c39906001612bf7565b81518110611c4957611c49612d06565b60200101906001600160f81b031916908160001a9053505050508080611c6e90612e4a565b915050611b5d565b5092915050565b7fcf34ef537ac33ee1ac626ca1587a0a7e8e51561e5514f8cb36afa1c5102b3bab81604051611cac9190612bbb565b60405180910390a150565b7f27a8767ed172b48d7cf6dbb25d2840c5fa91ef78fa6e05c13c82763d099f03ca8282604051611979929190612fa7565b6060600082516002611cfa9190612fff565b611d05906002612bf7565b6001600160401b03811115611d1c57611d1c612266565b6040519080825280601f01601f191660200182016040528015611d46576020820181803683370190505b509050600360fc1b81600081518110611d6157611d61612d06565b60200101906001600160f81b031916908160001a905350600f60fb1b81600181518110611d9057611d90612d06565b60200101906001600160f81b031916908160001a90535060005b8351811015611c76576000848281518110611dc757611dc7612d06565b016020015160f881901c91506f181899199a1a9b1b9c1cb0b131b232b360811b9060fc1c60108110611dfb57611dfb612d06565b1a60f81b83611e0b846002612fff565b611e16906002612bf7565b81518110611e2657611e26612d06565b60200101906001600160f81b031916908160001a9053506f181899199a1a9b1b9c1cb0b131b232b360811b600f821660108110611e6557611e65612d06565b1a60f81b83611e75846002612fff565b611e80906003612bf7565b81518110611e9057611e90612d06565b60200101906001600160f81b031916908160001a905350508080611eb390612e4a565b915050611daa565b7ff169276b421e6d6b4430d1934bd14cc5436305ad11e2baa67140844bb13b7e7e8282604051611979929190612fa7565b7f4ef9664a46ffe035712aa3615617c7b5aa782326d58e8949db4bee48182041938282604051611979929190612f85565b7fb42604cb105a16c8f6db8a41e6b00c0c1b4826465e8bc504b3eb3e88b3e6a4a081604051611cac9190612bbb565b7f941296a39ea107bde685522318a4b6c2b544904a5dd82a512748ca2cf839bef78282604051611979929190612f85565b7f4c34c2f9a78632f29fa59aaed5514cb742fd9fbcfd7ccc2c03c85f2bbc621c478282604051611979929190612f1c565b6040517ff92d4a94d1d5014696dcfc65a0a061af97608eebd7fea0519ff4fdbca71bae9f90600090a1565b7fe5232ba17154fdf2ae11846af09e8bd8420aa21035026ac88db6cfb8c7b490128282604051611979929190612fd5565b7fadc81638cfe9dc2f2e4e4f759b26f2006a87eb612d65bcd2828f72b14c0584448282604051611979929190612fa7565b606081516024036121ce5760408051808201909152600e81526d50616e69632875696e743235362960901b6020909101527f4e487b71539e0164c9d29506cc725e49342bcac15e0927282bf30fedfe1c726860005b6004811015612123578181600481106120ab576120ab612d06565b1a60f81b6001600160f81b0319168482815181106120cb576120cb612d06565b01602001516001600160f81b03191614612111575050604080518082019091526013815272556e646566696e6564207369676e617475726560681b602082015292915050565b8061211b81612e4a565b915050612090565b50600060045b602481101561216a57600882901b915084818151811061214b5761214b612d06565b016020015160f81c91909117908061216281612e4a565b915050612129565b508060110361219b57505060408051808201909152600981526850616e69632831372960b81b602082015292915050565b5050604080518082019091526014815273556e646566696e65642070616e696320636f646560601b602082015292915050565b60448251101561221157505060408051808201909152601d81527f5472616e73616374696f6e2072657665727465642073696c656e746c79000000602082015290565b60048201915081806020019051810190610e0d9190613171565b6000600a60f883901c10156122525761224960f883901c60306131de565b60f81b92915050565b61224960f883901c60576131de565b919050565b634e487b7160e01b600052604160045260246000fd5b604051601f8201601f191681016001600160401b03811182821017156122a4576122a4612266565b604052919050565b60006001600160401b038211156122c5576122c5612266565b50601f01601f191660200190565b600082601f8301126122e457600080fd5b81356122f76122f2826122ac565b61227c565b81815284602083860101111561230c57600080fd5b816020850160208301376000918101602001919091529392505050565b60008060006060848603121561233e57600080fd5b833592506020840135915060408401356001600160401b0381111561236257600080fd5b61236e868287016122d3565b9150509250925092565b8035801515811461226157600080fd5b6000806040838503121561239b57600080fd5b82356001600160401b038111156123b157600080fd5b6123bd858286016122d3565b9250506123cc60208401612378565b90509250929050565b600080600080608085870312156123eb57600080fd5b84359350602085013592506040850135915061240960608601612378565b905092959194509250565b60008060006060848603121561242957600080fd5b833592506020840135915061244060408501612378565b90509250925092565b6000806040838503121561245c57600080fd5b82356001600160401b038082111561247357600080fd5b61247f868387016122d3565b9350602085013591508082111561249557600080fd5b506124a2858286016122d3565b9150509250929050565b6000602082840312156124be57600080fd5b5035919050565b600080604083850312156124d857600080fd5b82356001600160401b038111156124ee57600080fd5b6124fa858286016122d3565b95602094909401359450505050565b80356001600160a01b038116811461226157600080fd5b6000806040838503121561253357600080fd5b82356001600160401b0381111561254957600080fd5b612555858286016122d3565b9250506123cc60208401612509565b60008060006060848603121561257957600080fd5b61258284612509565b925061259060208501612509565b915060408401356001600160401b0381111561236257600080fd5b6000602082840312156125bd57600080fd5b81356001600160401b038111156125d357600080fd5b610b45848285016122d3565b600080604083850312156125f257600080fd5b50508035926020909101359150565b60006020828403121561261357600080fd5b610c0282612509565b60006001600160401b0382111561263557612635612266565b5060051b60200190565b6000806040838503121561265257600080fd5b82356001600160401b0381111561266857600080fd5b8301601f8101851361267957600080fd5b803560206126896122f28361261c565b82815260059290921b830181019181810190888411156126a857600080fd5b938201935b838510156126c6578435825293820193908201906126ad565b98969091013596505050505050565b80356001600160e01b03198116811461226157600080fd5b60008060006060848603121561270257600080fd5b61270b846126d5565b9250612590602085016126d5565b600080600080600060a0868803121561273157600080fd5b85356001600160401b038082111561274857600080fd5b61275489838a016122d3565b9650602088013591508082111561276a57600080fd5b61277689838a016122d3565b9550604088013591508082111561278c57600080fd5b61279889838a016122d3565b945060608801359150808211156127ae57600080fd5b6127ba89838a016122d3565b935060808801359150808211156127d057600080fd5b506127dd888289016122d3565b9150509295509295909350565b6000806000606084860312156127ff57600080fd5b505081359360208301359350604090920135919050565b6000806000806080858703121561282c57600080fd5b84356001600160401b038082111561284357600080fd5b61284f888389016122d3565b9550602087013591508082111561286557600080fd5b612871888389016122d3565b9450604087013591508082111561288757600080fd5b612893888389016122d3565b935060608701359150808211156128a957600080fd5b506128b6878288016122d3565b91505092959194509250565b6000806000606084860312156128d757600080fd5b83356001600160401b03808211156128ee57600080fd5b6128fa878388016122d3565b9450602086013591508082111561291057600080fd5b61291c878388016122d3565b9350604086013591508082111561293257600080fd5b5061236e868287016122d3565b600082601f83011261295057600080fd5b813560206129606122f28361261c565b82815260059290921b8401810191818101908684111561297f57600080fd5b8286015b848110156129a157612994816126d5565b8352918301918301612983565b509695505050505050565b6000806000606084860312156129c157600080fd5b6129ca846126d5565b925060208401356001600160401b03808211156129e657600080fd5b61291c8783880161293f565b60008060408385031215612a0557600080fd5b612a0e83612378565b915060208301356001600160401b03811115612a2957600080fd5b6124a2858286016122d3565b600080600060608486031215612a4a57600080fd5b612a53846126d5565b92506020808501356001600160401b0380821115612a7057600080fd5b612a7c8883890161293f565b94506040870135915080821115612a9257600080fd5b818701915087601f830112612aa657600080fd5b8135612ab46122f28261261c565b81815260059190911b8301840190848101908a831115612ad357600080fd5b8585015b83811015612b0b57803585811115612aef5760008081fd5b612afd8d89838a01016122d3565b845250918601918601612ad7565b508096505050505050509250925092565b600080600060608486031215612b3157600080fd5b612b3a84612378565b925061259060208501612378565b600060208284031215612b5a57600080fd5b813580600f0b8114610c0257600080fd5b60005b83811015612b86578181015183820152602001612b6e565b50506000910152565b60008151808452612ba7816020860160208601612b6b565b601f01601f19169290920160200192915050565b602081526000610c026020830184612b8f565b634e487b7160e01b600052601160045260246000fd5b81810381811115610e0d57610e0d612bce565b80820180821115610e0d57610e0d612bce565b634e487b7160e01b600052601260045260246000fd5b600082612c2f57612c2f612c0a565b500690565b6e021b630b6b834b733903b30b63ab29608d1b815260008351612c5e81600f850160208801612b6b565b630103a37960e51b600f918401918201528351612c82816013840160208801612b6b565b01601301949350505050565b8181036000831280158383131683831282161715611c7657611c76612bce565b8082018281126000831280158216821582161715612cce57612cce612bce565b505092915050565b600082612ce557612ce5612c0a565b500790565b6000600160ff1b8201612cff57612cff612bce565b5060000390565b634e487b7160e01b600052603260045260246000fd5b600081612d2b57612d2b612bce565b506000190190565b60008551612d45818460208a01612b6b565b80830190506301027a9160e51b8082528651612d68816004850160208b01612b6b565b600492019182018190528551612d85816008850160208a01612b6b565b60089201918201528351612da081600c840160208801612b6b565b01600c019695505050505050565b60008451612dc0818460208901612b6b565b80830190506301027a9160e51b8082528551612de3816004850160208a01612b6b565b60049201918201528351612dfe816008840160208801612b6b565b0160080195945050505050565b60008351612e1d818460208801612b6b565b6301027a9160e51b9083019081528351612e3e816004840160208801612b6b565b01600401949350505050565b600060018201612e5c57612e5c612bce565b5060010190565b600081600f0b6f7fffffffffffffffffffffffffffffff198103612e8957612e89612bce565b60000392915050565b68024b73b30b634b21d160bd1b815260008551612eb6816009850160208a01612b6b565b855190830190612ecd816009840160208a01612b6b565b8551910190612ee3816009840160208901612b6b565b69016103932b0b9b7b71d160b51b600992909101918201528351612f0e816013840160208801612b6b565b016013019695505050505050565b604081526000612f2f6040830185612b8f565b905082151560208301529392505050565b602d60f81b815260008251612f5c816001850160208701612b6b565b9190910160010192915050565b60008251612f7b818460208701612b6b565b9190910192915050565b604081526000612f986040830185612b8f565b90508260208301529392505050565b604081526000612fba6040830185612b8f565b8281036020840152612fcc8185612b8f565b95945050505050565b604081526000612fe86040830185612b8f565b905060018060a01b03831660208301529392505050565b8082028115828204841417610e0d57610e0d612bce565b600181815b8085111561305157816000190482111561303757613037612bce565b8085161561304457918102915b93841c939080029061301b565b509250929050565b60008261306857506001610e0d565b8161307557506000610e0d565b816001811461308b5760028114613095576130b1565b6001915050610e0d565b60ff8411156130a6576130a6612bce565b50506001821b610e0d565b5060208310610133831016604e8410600b84101617156130d4575081810a610e0d565b6130de8383613016565b80600019048211156130f2576130f2612bce565b029392505050565b6000610c028383613059565b60008261311557613115612c0a565b500490565b600060ff83168061312d5761312d612c0a565b8060ff84160491505092915050565b60ff8181168382160290811690818114611c7657611c76612bce565b60ff8281168282160390811115610e0d57610e0d612bce565b60006020828403121561318357600080fd5b81516001600160401b0381111561319957600080fd5b8201601f810184136131aa57600080fd5b80516131b86122f2826122ac565b8181528560208385010111156131cd57600080fd5b612fcc826020830160208601612b6b565b60ff8181168382160190811115610e0d57610e0d612bce56fe636c616d704c742063616e6e6f7420636c616d702076616c7565206120746f206265206c657373207468616e207a65726f2e20436865636b20796f757220696e707574732f617373756d7074696f6e732e636c616d7047742063616e6e6f7420636c616d702076616c7565206120746f206265206c6172676572207468616e2075696e743235362e6d61782e20436865636b20796f757220696e707574732f617373756d7074696f6e732ea2646970667358221220c1ab78af8ee6c8aab6467ac695987e0d246b71ca2537b72395f812f8aa8bd85f64736f6c634300081300336080604052348015600f57600080fd5b5060898061001e6000396000f3fe6080604052348015600f57600080fd5b506004361060285760003560e01c806309ccaefb14602d575b600080fd5b60336035565b005b603b603d565b565b634e487b7160e01b600052600160045260246000fdfea26469706673582212203261b94049ca06378fa463836122ddbb849351f0575eb57441a036b2c722aab464736f6c63430008130033","linkReferences":{}},"methodIdentifiers":{"handler_activateWithdrawalQueue()":"1f4a1a6a","handler_deactivateWithdrawalQueue()":"2c8b759b","handler_deposit(uint8,uint256,uint256)":"c8e0c924","handler_depositETH(uint256,uint256)":"e80552f1","handler_depositTo(uint8,uint8,uint256,uint256)":"f42e1ccf","handler_depositToETH(uint8,uint256,uint256)":"c5247e27","handler_finaliseQueuedWithdrawal(uint8,uint256)":"af3cfaa2","handler_finaliseQueuedWithdrawalsAggregated(uint8,uint8,uint256,uint256)":"0cb2373c","handler_onMessageReceiveRoot(bool,uint8,uint8,uint8,uint256)":"8dab8a7f","handler_pauseRoot()":"8d7d6afe","handler_setRateControlThreshold(uint8,uint256,uint256,uint256)":"12864dd8","handler_setWithdrawalDelay(uint256)":"411fb0bd","handler_unpauseRoot()":"a60ac68b","handler_updateImxCumulativeDepositLimit(uint256)":"bd3cad56"},"id":130}