{"abi":[{"type":"constructor","inputs":[{"name":"admin","type":"address","internalType":"address"}],"stateMutability":"nonpayable"},{"type":"function","name":"ADAPTOR_MANAGER_ROLE","inputs":[],"outputs":[{"name":"","type":"bytes32","internalType":"bytes32"}],"stateMutability":"view"},{"type":"function","name":"DEFAULT_ADMIN_ROLE","inputs":[],"outputs":[{"name":"","type":"bytes32","internalType":"bytes32"}],"stateMutability":"view"},{"type":"function","name":"PAUSER_ROLE","inputs":[],"outputs":[{"name":"","type":"bytes32","internalType":"bytes32"}],"stateMutability":"view"},{"type":"function","name":"UNPAUSER_ROLE","inputs":[],"outputs":[{"name":"","type":"bytes32","internalType":"bytes32"}],"stateMutability":"view"},{"type":"function","name":"getRoleAdmin","inputs":[{"name":"role","type":"bytes32","internalType":"bytes32"}],"outputs":[{"name":"","type":"bytes32","internalType":"bytes32"}],"stateMutability":"view"},{"type":"function","name":"grantAdaptorManagerRole","inputs":[{"name":"account","type":"address","internalType":"address"}],"outputs":[],"stateMutability":"nonpayable"},{"type":"function","name":"grantPauserRole","inputs":[{"name":"account","type":"address","internalType":"address"}],"outputs":[],"stateMutability":"nonpayable"},{"type":"function","name":"grantRole","inputs":[{"name":"role","type":"bytes32","internalType":"bytes32"},{"name":"account","type":"address","internalType":"address"}],"outputs":[],"stateMutability":"nonpayable"},{"type":"function","name":"grantUnpauserRole","inputs":[{"name":"account","type":"address","internalType":"address"}],"outputs":[],"stateMutability":"nonpayable"},{"type":"function","name":"hasRole","inputs":[{"name":"role","type":"bytes32","internalType":"bytes32"},{"name":"account","type":"address","internalType":"address"}],"outputs":[{"name":"","type":"bool","internalType":"bool"}],"stateMutability":"view"},{"type":"function","name":"pause","inputs":[],"outputs":[],"stateMutability":"nonpayable"},{"type":"function","name":"paused","inputs":[],"outputs":[{"name":"","type":"bool","internalType":"bool"}],"stateMutability":"view"},{"type":"function","name":"renounceRole","inputs":[{"name":"role","type":"bytes32","internalType":"bytes32"},{"name":"account","type":"address","internalType":"address"}],"outputs":[],"stateMutability":"nonpayable"},{"type":"function","name":"revokeAdaptorManagerRole","inputs":[{"name":"account","type":"address","internalType":"address"}],"outputs":[],"stateMutability":"nonpayable"},{"type":"function","name":"revokePauserRole","inputs":[{"name":"account","type":"address","internalType":"address"}],"outputs":[],"stateMutability":"nonpayable"},{"type":"function","name":"revokeRole","inputs":[{"name":"role","type":"bytes32","internalType":"bytes32"},{"name":"account","type":"address","internalType":"address"}],"outputs":[],"stateMutability":"nonpayable"},{"type":"function","name":"revokeUnpauserRole","inputs":[{"name":"account","type":"address","internalType":"address"}],"outputs":[],"stateMutability":"nonpayable"},{"type":"function","name":"supportsInterface","inputs":[{"name":"interfaceId","type":"bytes4","internalType":"bytes4"}],"outputs":[{"name":"","type":"bool","internalType":"bool"}],"stateMutability":"view"},{"type":"function","name":"unpause","inputs":[],"outputs":[],"stateMutability":"nonpayable"},{"type":"event","name":"Initialized","inputs":[{"name":"version","type":"uint8","indexed":false,"internalType":"uint8"}],"anonymous":false},{"type":"event","name":"Paused","inputs":[{"name":"account","type":"address","indexed":false,"internalType":"address"}],"anonymous":false},{"type":"event","name":"RoleAdminChanged","inputs":[{"name":"role","type":"bytes32","indexed":true,"internalType":"bytes32"},{"name":"previousAdminRole","type":"bytes32","indexed":true,"internalType":"bytes32"},{"name":"newAdminRole","type":"bytes32","indexed":true,"internalType":"bytes32"}],"anonymous":false},{"type":"event","name":"RoleGranted","inputs":[{"name":"role","type":"bytes32","indexed":true,"internalType":"bytes32"},{"name":"account","type":"address","indexed":true,"internalType":"address"},{"name":"sender","type":"address","indexed":true,"internalType":"address"}],"anonymous":false},{"type":"event","name":"RoleRevoked","inputs":[{"name":"role","type":"bytes32","indexed":true,"internalType":"bytes32"},{"name":"account","type":"address","indexed":true,"internalType":"address"},{"name":"sender","type":"address","indexed":true,"internalType":"address"}],"anonymous":false},{"type":"event","name":"Unpaused","inputs":[{"name":"account","type":"address","indexed":false,"internalType":"address"}],"anonymous":false}],"bytecode":{"object":"0x608060405234801561001057600080fd5b50604051610cdf380380610cdf83398101604081905261002f916100f0565b61003a600082610040565b50610120565b61004a828261004e565b5050565b60008281526065602090815260408083206001600160a01b038516845290915290205460ff1661004a5760008281526065602090815260408083206001600160a01b03851684529091529020805460ff191660011790556100ac3390565b6001600160a01b0316816001600160a01b0316837f2f8788117e7eff1d82e926ec794901d17c78024a50270940304540a733656f0d60405160405180910390a45050565b60006020828403121561010257600080fd5b81516001600160a01b038116811461011957600080fd5b9392505050565b610bb08061012f6000396000f3fe608060405234801561001057600080fd5b50600436106101215760003560e01c80638456cb59116100ad578063d547741f11610071578063d547741f1461023c578063da51c71e1461024f578063e63ab1e914610276578063f865af081461028b578063fb1bb9de1461029e57600080fd5b80638456cb59146101f357806389c65d41146101fb5780638f70121f1461020e57806391d1485414610221578063a217fddf1461023457600080fd5b806332968782116100f457806332968782146101a757806336568abe146101ba5780633f4ba83a146101cd5780635c975abb146101d55780636c11c21c146101e057600080fd5b806301ffc9a714610126578063248a9ca31461014e5780632540e2da1461017f5780632f2ff15d14610194575b600080fd5b610139610134366004610945565b6102b3565b60405190151581526020015b60405180910390f35b61017161015c36600461096f565b60009081526065602052604090206001015490565b604051908152602001610145565b61019261018d3660046109a4565b6102ea565b005b6101926101a23660046109bf565b610311565b6101926101b53660046109a4565b61033b565b6101926101c83660046109bf565b61035e565b6101926103dd565b60975460ff16610139565b6101926101ee3660046109a4565b610400565b610192610423565b6101926102093660046109a4565b610443565b61019261021c3660046109a4565b610478565b61013961022f3660046109bf565b6104ad565b610171600081565b61019261024a3660046109bf565b6104d8565b6101717fa6d0b532cacea090bc411482cd491720e2eac14d48ce5d0402b8851e0bb2aec181565b610171600080516020610b5b83398151915281565b6101926102993660046109a4565b6104fd565b610171600080516020610b3b83398151915281565b60006001600160e01b03198216637965db0b60e01b14806102e457506301ffc9a760e01b6001600160e01b03198316145b92915050565b60006102f581610520565b61030d600080516020610b3b833981519152836104d8565b5050565b60008281526065602052604090206001015461032c81610520565b610336838361052a565b505050565b600061034681610520565b61030d600080516020610b3b83398151915283610311565b6001600160a01b03811633146103d35760405162461bcd60e51b815260206004820152602f60248201527f416363657373436f6e74726f6c3a2063616e206f6e6c792072656e6f756e636560448201526e103937b632b9903337b91039b2b63360891b60648201526084015b60405180910390fd5b61030d82826105b0565b600080516020610b3b8339815191526103f581610520565b6103fd610617565b50565b600061040b81610520565b61030d600080516020610b5b83398151915283610311565b600080516020610b5b83398151915261043b81610520565b6103fd610669565b600061044e81610520565b61030d7fa6d0b532cacea090bc411482cd491720e2eac14d48ce5d0402b8851e0bb2aec1836104d8565b600061048381610520565b61030d7fa6d0b532cacea090bc411482cd491720e2eac14d48ce5d0402b8851e0bb2aec183610311565b60009182526065602090815260408084206001600160a01b0393909316845291905290205460ff1690565b6000828152606560205260409020600101546104f381610520565b61033683836105b0565b600061050881610520565b61030d600080516020610b5b833981519152836104d8565b6103fd81336106a6565b61053482826104ad565b61030d5760008281526065602090815260408083206001600160a01b03851684529091529020805460ff1916600117905561056c3390565b6001600160a01b0316816001600160a01b0316837f2f8788117e7eff1d82e926ec794901d17c78024a50270940304540a733656f0d60405160405180910390a45050565b6105ba82826104ad565b1561030d5760008281526065602090815260408083206001600160a01b0385168085529252808320805460ff1916905551339285917ff6391f5c32d9c69d2a47ea670b442974b53935d1edc7fd64eb21e047a839171b9190a45050565b61061f6106ff565b6097805460ff191690557f5db9ee0a495bf2e6ff9c91a7834c1ba4fdd244a5e8aa4e537bd38aeae4b073aa335b6040516001600160a01b03909116815260200160405180910390a1565b61067161074a565b6097805460ff191660011790557f62e78cea01bee320cd4e420270b5ea74000d11b0c9f74754ebdbfc544b05a25861064c3390565b6106b082826104ad565b61030d576106bd81610790565b6106c88360206107a2565b6040516020016106d9929190610a0f565b60408051601f198184030181529082905262461bcd60e51b82526103ca91600401610a84565b60975460ff166107485760405162461bcd60e51b815260206004820152601460248201527314185d5cd8589b194e881b9bdd081c185d5cd95960621b60448201526064016103ca565b565b60975460ff16156107485760405162461bcd60e51b815260206004820152601060248201526f14185d5cd8589b194e881c185d5cd95960821b60448201526064016103ca565b60606102e46001600160a01b03831660145b606060006107b1836002610acd565b6107bc906002610ae4565b67ffffffffffffffff8111156107d4576107d4610af7565b6040519080825280601f01601f1916602001820160405280156107fe576020820181803683370190505b509050600360fc1b8160008151811061081957610819610b0d565b60200101906001600160f81b031916908160001a905350600f60fb1b8160018151811061084857610848610b0d565b60200101906001600160f81b031916908160001a905350600061086c846002610acd565b610877906001610ae4565b90505b60018111156108ef576f181899199a1a9b1b9c1cb0b131b232b360811b85600f16601081106108ab576108ab610b0d565b1a60f81b8282815181106108c1576108c1610b0d565b60200101906001600160f81b031916908160001a90535060049490941c936108e881610b23565b905061087a565b50831561093e5760405162461bcd60e51b815260206004820181905260248201527f537472696e67733a20686578206c656e67746820696e73756666696369656e7460448201526064016103ca565b9392505050565b60006020828403121561095757600080fd5b81356001600160e01b03198116811461093e57600080fd5b60006020828403121561098157600080fd5b5035919050565b80356001600160a01b038116811461099f57600080fd5b919050565b6000602082840312156109b657600080fd5b61093e82610988565b600080604083850312156109d257600080fd5b823591506109e260208401610988565b90509250929050565b60005b83811015610a065781810151838201526020016109ee565b50506000910152565b7f416363657373436f6e74726f6c3a206163636f756e7420000000000000000000815260008351610a478160178501602088016109eb565b7001034b99036b4b9b9b4b733903937b6329607d1b6017918401918201528351610a788160288401602088016109eb565b01602801949350505050565b6020815260008251806020840152610aa38160408501602087016109eb565b601f01601f19169190910160400192915050565b634e487b7160e01b600052601160045260246000fd5b80820281158282048414176102e4576102e4610ab7565b808201808211156102e4576102e4610ab7565b634e487b7160e01b600052604160045260246000fd5b634e487b7160e01b600052603260045260246000fd5b600081610b3257610b32610ab7565b50600019019056fe82b32d9ab5100db08aeb9a0e08b422d14851ec118736590462bf9c085a6e9448539440820030c4994db4e31b6b800deafd503688728f932addfe7a410515c14ca2646970667358221220c4a83ca94b4ebab8d35a4b605d22c7c9acbb7baa9c3dfb2a89b55f50570a4d3464736f6c63430008130033","linkReferences":{}},"methodIdentifiers":{"ADAPTOR_MANAGER_ROLE()":"da51c71e","DEFAULT_ADMIN_ROLE()":"a217fddf","PAUSER_ROLE()":"e63ab1e9","UNPAUSER_ROLE()":"fb1bb9de","getRoleAdmin(bytes32)":"248a9ca3","grantAdaptorManagerRole(address)":"8f70121f","grantPauserRole(address)":"6c11c21c","grantRole(bytes32,address)":"2f2ff15d","grantUnpauserRole(address)":"32968782","hasRole(bytes32,address)":"91d14854","pause()":"8456cb59","paused()":"5c975abb","renounceRole(bytes32,address)":"36568abe","revokeAdaptorManagerRole(address)":"89c65d41","revokePauserRole(address)":"f865af08","revokeRole(bytes32,address)":"d547741f","revokeUnpauserRole(address)":"2540e2da","supportsInterface(bytes4)":"01ffc9a7","unpause()":"3f4ba83a"},"id":191}