{"abi":[{"type":"constructor","inputs":[{"name":"_initializerAddress","type":"address","internalType":"address"}],"stateMutability":"nonpayable"},{"type":"receive","stateMutability":"payable"},{"type":"function","name":"ADAPTOR_MANAGER_ROLE","inputs":[],"outputs":[{"name":"","type":"bytes32","internalType":"bytes32"}],"stateMutability":"view"},{"type":"function","name":"DEFAULT_ADMIN_ROLE","inputs":[],"outputs":[{"name":"","type":"bytes32","internalType":"bytes32"}],"stateMutability":"view"},{"type":"function","name":"DEPOSIT_SIG","inputs":[],"outputs":[{"name":"","type":"bytes32","internalType":"bytes32"}],"stateMutability":"view"},{"type":"function","name":"MAP_TOKEN_SIG","inputs":[],"outputs":[{"name":"","type":"bytes32","internalType":"bytes32"}],"stateMutability":"view"},{"type":"function","name":"NATIVE_ETH","inputs":[],"outputs":[{"name":"","type":"address","internalType":"address"}],"stateMutability":"view"},{"type":"function","name":"NATIVE_IMX","inputs":[],"outputs":[{"name":"","type":"address","internalType":"address"}],"stateMutability":"view"},{"type":"function","name":"PAUSER_ROLE","inputs":[],"outputs":[{"name":"","type":"bytes32","internalType":"bytes32"}],"stateMutability":"view"},{"type":"function","name":"UNLIMITED_DEPOSIT","inputs":[],"outputs":[{"name":"","type":"uint256","internalType":"uint256"}],"stateMutability":"view"},{"type":"function","name":"UNPAUSER_ROLE","inputs":[],"outputs":[{"name":"","type":"bytes32","internalType":"bytes32"}],"stateMutability":"view"},{"type":"function","name":"VARIABLE_MANAGER_ROLE","inputs":[],"outputs":[{"name":"","type":"bytes32","internalType":"bytes32"}],"stateMutability":"view"},{"type":"function","name":"WITHDRAW_SIG","inputs":[],"outputs":[{"name":"","type":"bytes32","internalType":"bytes32"}],"stateMutability":"view"},{"type":"function","name":"activateWithdrawalQueue","inputs":[],"outputs":[],"stateMutability":"nonpayable"},{"type":"function","name":"childERC20Bridge","inputs":[],"outputs":[{"name":"","type":"address","internalType":"address"}],"stateMutability":"view"},{"type":"function","name":"childETHToken","inputs":[],"outputs":[{"name":"","type":"address","internalType":"address"}],"stateMutability":"view"},{"type":"function","name":"childTokenTemplate","inputs":[],"outputs":[{"name":"","type":"address","internalType":"address"}],"stateMutability":"view"},{"type":"function","name":"deactivateWithdrawalQueue","inputs":[],"outputs":[],"stateMutability":"nonpayable"},{"type":"function","name":"deposit","inputs":[{"name":"rootToken","type":"address","internalType":"contract IERC20Metadata"},{"name":"amount","type":"uint256","internalType":"uint256"}],"outputs":[],"stateMutability":"payable"},{"type":"function","name":"depositETH","inputs":[{"name":"amount","type":"uint256","internalType":"uint256"}],"outputs":[],"stateMutability":"payable"},{"type":"function","name":"depositTo","inputs":[{"name":"rootToken","type":"address","internalType":"contract IERC20Metadata"},{"name":"receiver","type":"address","internalType":"address"},{"name":"amount","type":"uint256","internalType":"uint256"}],"outputs":[],"stateMutability":"payable"},{"type":"function","name":"depositToETH","inputs":[{"name":"receiver","type":"address","internalType":"address"},{"name":"amount","type":"uint256","internalType":"uint256"}],"outputs":[],"stateMutability":"payable"},{"type":"function","name":"finaliseQueuedWithdrawal","inputs":[{"name":"receiver","type":"address","internalType":"address"},{"name":"index","type":"uint256","internalType":"uint256"}],"outputs":[],"stateMutability":"nonpayable"},{"type":"function","name":"finaliseQueuedWithdrawalsAggregated","inputs":[{"name":"receiver","type":"address","internalType":"address"},{"name":"token","type":"address","internalType":"address"},{"name":"indices","type":"uint256[]","internalType":"uint256[]"}],"outputs":[],"stateMutability":"nonpayable"},{"type":"function","name":"findPendingWithdrawals","inputs":[{"name":"receiver","type":"address","internalType":"address"},{"name":"token","type":"address","internalType":"address"},{"name":"startIndex","type":"uint256","internalType":"uint256"},{"name":"stopIndex","type":"uint256","internalType":"uint256"},{"name":"maxFind","type":"uint256","internalType":"uint256"}],"outputs":[{"name":"found","type":"tuple[]","internalType":"struct FlowRateWithdrawalQueue.FindPendingWithdrawal[]","components":[{"name":"index","type":"uint256","internalType":"uint256"},{"name":"amount","type":"uint256","internalType":"uint256"},{"name":"timestamp","type":"uint256","internalType":"uint256"}]}],"stateMutability":"view"},{"type":"function","name":"flowRateBuckets","inputs":[{"name":"","type":"address","internalType":"address"}],"outputs":[{"name":"capacity","type":"uint256","internalType":"uint256"},{"name":"depth","type":"uint256","internalType":"uint256"},{"name":"refillTime","type":"uint256","internalType":"uint256"},{"name":"refillRate","type":"uint256","internalType":"uint256"}],"stateMutability":"view"},{"type":"function","name":"getPendingWithdrawals","inputs":[{"name":"receiver","type":"address","internalType":"address"},{"name":"indices","type":"uint256[]","internalType":"uint256[]"}],"outputs":[{"name":"pending","type":"tuple[]","internalType":"struct FlowRateWithdrawalQueue.PendingWithdrawal[]","components":[{"name":"withdrawer","type":"address","internalType":"address"},{"name":"token","type":"address","internalType":"address"},{"name":"amount","type":"uint256","internalType":"uint256"},{"name":"timestamp","type":"uint256","internalType":"uint256"}]}],"stateMutability":"view"},{"type":"function","name":"getPendingWithdrawalsLength","inputs":[{"name":"receiver","type":"address","internalType":"address"}],"outputs":[{"name":"length","type":"uint256","internalType":"uint256"}],"stateMutability":"view"},{"type":"function","name":"getRoleAdmin","inputs":[{"name":"role","type":"bytes32","internalType":"bytes32"}],"outputs":[{"name":"","type":"bytes32","internalType":"bytes32"}],"stateMutability":"view"},{"type":"function","name":"grantAdaptorManagerRole","inputs":[{"name":"account","type":"address","internalType":"address"}],"outputs":[],"stateMutability":"nonpayable"},{"type":"function","name":"grantPauserRole","inputs":[{"name":"account","type":"address","internalType":"address"}],"outputs":[],"stateMutability":"nonpayable"},{"type":"function","name":"grantRole","inputs":[{"name":"role","type":"bytes32","internalType":"bytes32"},{"name":"account","type":"address","internalType":"address"}],"outputs":[],"stateMutability":"nonpayable"},{"type":"function","name":"grantUnpauserRole","inputs":[{"name":"account","type":"address","internalType":"address"}],"outputs":[],"stateMutability":"nonpayable"},{"type":"function","name":"grantVariableManagerRole","inputs":[{"name":"account","type":"address","internalType":"address"}],"outputs":[],"stateMutability":"nonpayable"},{"type":"function","name":"hasRole","inputs":[{"name":"role","type":"bytes32","internalType":"bytes32"},{"name":"account","type":"address","internalType":"address"}],"outputs":[{"name":"","type":"bool","internalType":"bool"}],"stateMutability":"view"},{"type":"function","name":"imxCumulativeDepositLimit","inputs":[],"outputs":[{"name":"","type":"uint256","internalType":"uint256"}],"stateMutability":"view"},{"type":"function","name":"initialize","inputs":[{"name":"newRoles","type":"tuple","internalType":"struct IRootERC20Bridge.InitializationRoles","components":[{"name":"defaultAdmin","type":"address","internalType":"address"},{"name":"pauser","type":"address","internalType":"address"},{"name":"unpauser","type":"address","internalType":"address"},{"name":"variableManager","type":"address","internalType":"address"},{"name":"adaptorManager","type":"address","internalType":"address"}]},{"name":"newRootBridgeAdaptor","type":"address","internalType":"address"},{"name":"newChildERC20Bridge","type":"address","internalType":"address"},{"name":"newChildTokenTemplate","type":"address","internalType":"address"},{"name":"newRootIMXToken","type":"address","internalType":"address"},{"name":"newRootWETHToken","type":"address","internalType":"address"},{"name":"newImxCumulativeDepositLimit","type":"uint256","internalType":"uint256"},{"name":"rateAdmin","type":"address","internalType":"address"}],"outputs":[],"stateMutability":"nonpayable"},{"type":"function","name":"initialize","inputs":[{"name":"","type":"tuple","internalType":"struct IRootERC20Bridge.InitializationRoles","components":[{"name":"defaultAdmin","type":"address","internalType":"address"},{"name":"pauser","type":"address","internalType":"address"},{"name":"unpauser","type":"address","internalType":"address"},{"name":"variableManager","type":"address","internalType":"address"},{"name":"adaptorManager","type":"address","internalType":"address"}]},{"name":"","type":"address","internalType":"address"},{"name":"","type":"address","internalType":"address"},{"name":"","type":"address","internalType":"address"},{"name":"","type":"address","internalType":"address"},{"name":"","type":"address","internalType":"address"},{"name":"","type":"uint256","internalType":"uint256"}],"outputs":[],"stateMutability":"pure"},{"type":"function","name":"initializerAddress","inputs":[],"outputs":[{"name":"","type":"address","internalType":"address"}],"stateMutability":"view"},{"type":"function","name":"largeTransferThresholds","inputs":[{"name":"","type":"address","internalType":"address"}],"outputs":[{"name":"","type":"uint256","internalType":"uint256"}],"stateMutability":"view"},{"type":"function","name":"mapToken","inputs":[{"name":"rootToken","type":"address","internalType":"contract IERC20Metadata"}],"outputs":[{"name":"","type":"address","internalType":"address"}],"stateMutability":"payable"},{"type":"function","name":"onMessageReceive","inputs":[{"name":"data","type":"bytes","internalType":"bytes"}],"outputs":[],"stateMutability":"nonpayable"},{"type":"function","name":"pause","inputs":[],"outputs":[],"stateMutability":"nonpayable"},{"type":"function","name":"paused","inputs":[],"outputs":[{"name":"","type":"bool","internalType":"bool"}],"stateMutability":"view"},{"type":"function","name":"renounceRole","inputs":[{"name":"role","type":"bytes32","internalType":"bytes32"},{"name":"account","type":"address","internalType":"address"}],"outputs":[],"stateMutability":"nonpayable"},{"type":"function","name":"revokeAdaptorManagerRole","inputs":[{"name":"account","type":"address","internalType":"address"}],"outputs":[],"stateMutability":"nonpayable"},{"type":"function","name":"revokePauserRole","inputs":[{"name":"account","type":"address","internalType":"address"}],"outputs":[],"stateMutability":"nonpayable"},{"type":"function","name":"revokeRole","inputs":[{"name":"role","type":"bytes32","internalType":"bytes32"},{"name":"account","type":"address","internalType":"address"}],"outputs":[],"stateMutability":"nonpayable"},{"type":"function","name":"revokeUnpauserRole","inputs":[{"name":"account","type":"address","internalType":"address"}],"outputs":[],"stateMutability":"nonpayable"},{"type":"function","name":"revokeVariableManagerRole","inputs":[{"name":"account","type":"address","internalType":"address"}],"outputs":[],"stateMutability":"nonpayable"},{"type":"function","name":"rootBridgeAdaptor","inputs":[],"outputs":[{"name":"","type":"address","internalType":"contract IRootBridgeAdaptor"}],"stateMutability":"view"},{"type":"function","name":"rootIMXToken","inputs":[],"outputs":[{"name":"","type":"address","internalType":"address"}],"stateMutability":"view"},{"type":"function","name":"rootTokenToChildToken","inputs":[{"name":"","type":"address","internalType":"address"}],"outputs":[{"name":"","type":"address","internalType":"address"}],"stateMutability":"view"},{"type":"function","name":"rootWETHToken","inputs":[],"outputs":[{"name":"","type":"address","internalType":"address"}],"stateMutability":"view"},{"type":"function","name":"setRateControlThreshold","inputs":[{"name":"token","type":"address","internalType":"address"},{"name":"capacity","type":"uint256","internalType":"uint256"},{"name":"refillRate","type":"uint256","internalType":"uint256"},{"name":"largeTransferThreshold","type":"uint256","internalType":"uint256"}],"outputs":[],"stateMutability":"nonpayable"},{"type":"function","name":"setWithdrawalDelay","inputs":[{"name":"delay","type":"uint256","internalType":"uint256"}],"outputs":[],"stateMutability":"nonpayable"},{"type":"function","name":"supportsInterface","inputs":[{"name":"interfaceId","type":"bytes4","internalType":"bytes4"}],"outputs":[{"name":"","type":"bool","internalType":"bool"}],"stateMutability":"view"},{"type":"function","name":"unpause","inputs":[],"outputs":[],"stateMutability":"nonpayable"},{"type":"function","name":"updateImxCumulativeDepositLimit","inputs":[{"name":"newImxCumulativeDepositLimit","type":"uint256","internalType":"uint256"}],"outputs":[],"stateMutability":"nonpayable"},{"type":"function","name":"updateRootBridgeAdaptor","inputs":[{"name":"newRootBridgeAdaptor","type":"address","internalType":"address"}],"outputs":[],"stateMutability":"nonpayable"},{"type":"function","name":"withdrawalDelay","inputs":[],"outputs":[{"name":"","type":"uint256","internalType":"uint256"}],"stateMutability":"view"},{"type":"function","name":"withdrawalQueueActivated","inputs":[],"outputs":[{"name":"","type":"bool","internalType":"bool"}],"stateMutability":"view"},{"type":"event","name":"ActivatedWithdrawalQueue","inputs":[{"name":"who","type":"address","indexed":false,"internalType":"address"}],"anonymous":false},{"type":"event","name":"AutoActivatedWithdrawalQueue","inputs":[],"anonymous":false},{"type":"event","name":"ChildChainERC20Deposit","inputs":[{"name":"rootToken","type":"address","indexed":true,"internalType":"address"},{"name":"childToken","type":"address","indexed":true,"internalType":"address"},{"name":"depositor","type":"address","indexed":false,"internalType":"address"},{"name":"receiver","type":"address","indexed":true,"internalType":"address"},{"name":"amount","type":"uint256","indexed":false,"internalType":"uint256"}],"anonymous":false},{"type":"event","name":"DeactivatedWithdrawalQueue","inputs":[{"name":"who","type":"address","indexed":false,"internalType":"address"}],"anonymous":false},{"type":"event","name":"EnQueuedWithdrawal","inputs":[{"name":"token","type":"address","indexed":true,"internalType":"address"},{"name":"withdrawer","type":"address","indexed":true,"internalType":"address"},{"name":"receiver","type":"address","indexed":true,"internalType":"address"},{"name":"amount","type":"uint256","indexed":false,"internalType":"uint256"},{"name":"timestamp","type":"uint256","indexed":false,"internalType":"uint256"},{"name":"index","type":"uint256","indexed":false,"internalType":"uint256"}],"anonymous":false},{"type":"event","name":"IMXDeposit","inputs":[{"name":"rootToken","type":"address","indexed":true,"internalType":"address"},{"name":"depositor","type":"address","indexed":false,"internalType":"address"},{"name":"receiver","type":"address","indexed":true,"internalType":"address"},{"name":"amount","type":"uint256","indexed":false,"internalType":"uint256"}],"anonymous":false},{"type":"event","name":"Initialized","inputs":[{"name":"version","type":"uint8","indexed":false,"internalType":"uint8"}],"anonymous":false},{"type":"event","name":"L1TokenMapped","inputs":[{"name":"rootToken","type":"address","indexed":true,"internalType":"address"},{"name":"childToken","type":"address","indexed":true,"internalType":"address"}],"anonymous":false},{"type":"event","name":"NativeEthDeposit","inputs":[{"name":"rootToken","type":"address","indexed":true,"internalType":"address"},{"name":"childToken","type":"address","indexed":true,"internalType":"address"},{"name":"depositor","type":"address","indexed":false,"internalType":"address"},{"name":"receiver","type":"address","indexed":true,"internalType":"address"},{"name":"amount","type":"uint256","indexed":false,"internalType":"uint256"}],"anonymous":false},{"type":"event","name":"NewImxDepositLimit","inputs":[{"name":"oldImxDepositLimit","type":"uint256","indexed":false,"internalType":"uint256"},{"name":"newImxDepositLimit","type":"uint256","indexed":false,"internalType":"uint256"}],"anonymous":false},{"type":"event","name":"Paused","inputs":[{"name":"account","type":"address","indexed":false,"internalType":"address"}],"anonymous":false},{"type":"event","name":"ProcessedWithdrawal","inputs":[{"name":"token","type":"address","indexed":true,"internalType":"address"},{"name":"withdrawer","type":"address","indexed":true,"internalType":"address"},{"name":"receiver","type":"address","indexed":true,"internalType":"address"},{"name":"amount","type":"uint256","indexed":false,"internalType":"uint256"},{"name":"timestamp","type":"uint256","indexed":false,"internalType":"uint256"},{"name":"index","type":"uint256","indexed":false,"internalType":"uint256"}],"anonymous":false},{"type":"event","name":"QueuedWithdrawal","inputs":[{"name":"token","type":"address","indexed":true,"internalType":"address"},{"name":"withdrawer","type":"address","indexed":true,"internalType":"address"},{"name":"receiver","type":"address","indexed":true,"internalType":"address"},{"name":"amount","type":"uint256","indexed":false,"internalType":"uint256"},{"name":"delayWithdrawalLargeAmount","type":"bool","indexed":false,"internalType":"bool"},{"name":"delayWithdrawalUnknownToken","type":"bool","indexed":false,"internalType":"bool"},{"name":"withdrawalQueueActivated","type":"bool","indexed":false,"internalType":"bool"}],"anonymous":false},{"type":"event","name":"RateControlThresholdSet","inputs":[{"name":"token","type":"address","indexed":true,"internalType":"address"},{"name":"capacity","type":"uint256","indexed":false,"internalType":"uint256"},{"name":"refillRate","type":"uint256","indexed":false,"internalType":"uint256"},{"name":"largeTransferThreshold","type":"uint256","indexed":false,"internalType":"uint256"},{"name":"previousCapacity","type":"uint256","indexed":false,"internalType":"uint256"},{"name":"previousRefillRate","type":"uint256","indexed":false,"internalType":"uint256"},{"name":"previousLargeTransferThreshold","type":"uint256","indexed":false,"internalType":"uint256"}],"anonymous":false},{"type":"event","name":"RoleAdminChanged","inputs":[{"name":"role","type":"bytes32","indexed":true,"internalType":"bytes32"},{"name":"previousAdminRole","type":"bytes32","indexed":true,"internalType":"bytes32"},{"name":"newAdminRole","type":"bytes32","indexed":true,"internalType":"bytes32"}],"anonymous":false},{"type":"event","name":"RoleGranted","inputs":[{"name":"role","type":"bytes32","indexed":true,"internalType":"bytes32"},{"name":"account","type":"address","indexed":true,"internalType":"address"},{"name":"sender","type":"address","indexed":true,"internalType":"address"}],"anonymous":false},{"type":"event","name":"RoleRevoked","inputs":[{"name":"role","type":"bytes32","indexed":true,"internalType":"bytes32"},{"name":"account","type":"address","indexed":true,"internalType":"address"},{"name":"sender","type":"address","indexed":true,"internalType":"address"}],"anonymous":false},{"type":"event","name":"RootBridgeAdaptorUpdated","inputs":[{"name":"oldRootBridgeAdaptor","type":"address","indexed":false,"internalType":"address"},{"name":"newRootBridgeAdaptor","type":"address","indexed":false,"internalType":"address"}],"anonymous":false},{"type":"event","name":"RootChainERC20Withdraw","inputs":[{"name":"rootToken","type":"address","indexed":true,"internalType":"address"},{"name":"childToken","type":"address","indexed":true,"internalType":"address"},{"name":"withdrawer","type":"address","indexed":false,"internalType":"address"},{"name":"receiver","type":"address","indexed":true,"internalType":"address"},{"name":"amount","type":"uint256","indexed":false,"internalType":"uint256"}],"anonymous":false},{"type":"event","name":"RootChainETHWithdraw","inputs":[{"name":"rootToken","type":"address","indexed":true,"internalType":"address"},{"name":"childToken","type":"address","indexed":true,"internalType":"address"},{"name":"withdrawer","type":"address","indexed":false,"internalType":"address"},{"name":"receiver","type":"address","indexed":true,"internalType":"address"},{"name":"amount","type":"uint256","indexed":false,"internalType":"uint256"}],"anonymous":false},{"type":"event","name":"Unpaused","inputs":[{"name":"account","type":"address","indexed":false,"internalType":"address"}],"anonymous":false},{"type":"event","name":"WETHDeposit","inputs":[{"name":"rootToken","type":"address","indexed":true,"internalType":"address"},{"name":"childToken","type":"address","indexed":true,"internalType":"address"},{"name":"depositor","type":"address","indexed":false,"internalType":"address"},{"name":"receiver","type":"address","indexed":true,"internalType":"address"},{"name":"amount","type":"uint256","indexed":false,"internalType":"uint256"}],"anonymous":false},{"type":"event","name":"WithdrawalDelayUpdated","inputs":[{"name":"delay","type":"uint256","indexed":false,"internalType":"uint256"},{"name":"previousDelay","type":"uint256","indexed":false,"internalType":"uint256"}],"anonymous":false},{"type":"event","name":"WithdrawalForNonFlowRatedToken","inputs":[{"name":"token","type":"address","indexed":true,"internalType":"address"},{"name":"amount","type":"uint256","indexed":false,"internalType":"uint256"}],"anonymous":false},{"type":"error","name":"AlreadyMapped","inputs":[]},{"type":"error","name":"BalanceInvariantCheckFailed","inputs":[{"name":"actualBalance","type":"uint256","internalType":"uint256"},{"name":"expectedBalance","type":"uint256","internalType":"uint256"}]},{"type":"error","name":"CantMapETH","inputs":[]},{"type":"error","name":"CantMapIMX","inputs":[]},{"type":"error","name":"CantMapWETH","inputs":[]},{"type":"error","name":"ImxDepositLimitExceeded","inputs":[]},{"type":"error","name":"ImxDepositLimitTooLow","inputs":[]},{"type":"error","name":"IndexOutsideWithdrawalQueue","inputs":[{"name":"lengthOfQueue","type":"uint256","internalType":"uint256"},{"name":"requestedIndex","type":"uint256","internalType":"uint256"}]},{"type":"error","name":"InsufficientValue","inputs":[]},{"type":"error","name":"InvalidCapacity","inputs":[]},{"type":"error","name":"InvalidChildChain","inputs":[]},{"type":"error","name":"InvalidData","inputs":[{"name":"reason","type":"string","internalType":"string"}]},{"type":"error","name":"InvalidRefillRate","inputs":[]},{"type":"error","name":"InvalidToken","inputs":[]},{"type":"error","name":"MixedTokens","inputs":[{"name":"token","type":"address","internalType":"address"},{"name":"actualToken","type":"address","internalType":"address"}]},{"type":"error","name":"NoGas","inputs":[]},{"type":"error","name":"NonWrappedNativeTransfer","inputs":[]},{"type":"error","name":"NotBridgeAdaptor","inputs":[]},{"type":"error","name":"NotMapped","inputs":[]},{"type":"error","name":"ProvideAtLeastOneIndex","inputs":[]},{"type":"error","name":"TokenIsZero","inputs":[{"name":"receiver","type":"address","internalType":"address"}]},{"type":"error","name":"TokenNotSupported","inputs":[]},{"type":"error","name":"UnauthorizedInitializer","inputs":[]},{"type":"error","name":"WithdrawalAlreadyProcessed","inputs":[{"name":"receiver","type":"address","internalType":"address"},{"name":"index","type":"uint256","internalType":"uint256"}]},{"type":"error","name":"WithdrawalRequestTooEarly","inputs":[{"name":"timeNow","type":"uint256","internalType":"uint256"},{"name":"currentWithdrawalTime","type":"uint256","internalType":"uint256"}]},{"type":"error","name":"WrongInitializer","inputs":[]},{"type":"error","name":"ZeroAddress","inputs":[]},{"type":"error","name":"ZeroAmount","inputs":[]}],"bytecode":{"object":"0x60a06040523480156200001157600080fd5b506040516200453038038062004530833981016040819052620000349162000070565b806001600160a01b0381166200005d5760405163d92e233d60e01b815260040160405180910390fd5b6001600160a01b031660805250620000a2565b6000602082840312156200008357600080fd5b81516001600160a01b03811681146200009b57600080fd5b9392505050565b60805161446b620000c560003960008181610a7301526119d1015261446b6000f3fe60806040526004361061039b5760003560e01c80638456cb59116101dc578063d2c13da511610102578063dee1ef0d116100a0578063f4a120f71161006f578063f4a120f714610b41578063f645125514610b54578063f865af0814610b88578063fb1bb9de14610ba857600080fd5b8063dee1ef0d14610ad8578063e041043214610af9578063e63ab1e914610b0c578063f213159c14610b2e57600080fd5b8063d68d5fd6116100dc578063d68d5fd614610a41578063d6dc0b0d14610a61578063d837671614610a95578063da51c71e14610ab657600080fd5b8063d2c13da5146109cd578063d41f1771146109ed578063d547741f14610a2157600080fd5b8063a217fddf1161017a578063af8bbb5e11610149578063af8bbb5e14610943578063b176806514610958578063b68ad1e41461098c578063c880d915146109ad57600080fd5b8063a217fddf14610734578063a6f72cb8146108f1578063a7ab69611461090c578063a8deae561461092357600080fd5b80638c956990116101b65780638c956990146108705780638f3a4e4f146108915780638f70121f146108b157806391d14854146108d157600080fd5b80638456cb591461080d57806384a3291a1461082257806389c65d411461085057600080fd5b80633a7a228e116102c15780636066ae871161025f5780637248c77c1161022e5780637248c77c146107695780637ab5e3ae146107895780637b1929b71461079f5780637efab4f5146107d657600080fd5b80636066ae87146106fd57806367e4e1891461071d57806368673a03146107345780636c11c21c1461074957600080fd5b8063499fa04b1161029b578063499fa04b146106915780635358fbda146106b25780635c975abb146106c55780635d3a22ab146106dd57600080fd5b80633a7a228e146106495780633f4ba83a1461066957806347e7ef241461067e57600080fd5b80632540e2da116103395780632f2ff15d116103085780632f2ff15d1461058657806332968782146105a657806336568abe146105c6578063366963ea146105e657600080fd5b80632540e2da146104ea57806326fe4fc31461050a57806328a6ff1e1461052c5780632bf839111461055957600080fd5b80630800dd27116103755780630800dd2714610456578063106d5726146104765780631657a6e514610497578063248a9ca3146104ac57600080fd5b8063011e1167146103d357806301ffc9a71461040657806307b2b7ad1461043657600080fd5b366103ce57610133546001600160a01b031633146103cc57604051630402506f60e01b815260040160405180910390fd5b005b600080fd5b3480156103df57600080fd5b506103e9610eee81565b6040516001600160a01b0390911681526020015b60405180910390f35b34801561041257600080fd5b506104266104213660046139ef565b610bca565b60405190151581526020016103fd565b34801561044257600080fd5b506103cc610451366004613a2e565b610c01565b34801561046257600080fd5b506103cc610471366004613afd565b610c28565b34801561048257600080fd5b5061012f546103e9906001600160a01b031681565b3480156104a357600080fd5b506103cc610d94565b3480156104b857600080fd5b506104dc6104c7366004613ba0565b60009081526065602052604090206001015490565b6040519081526020016103fd565b3480156104f657600080fd5b506103cc610505366004613a2e565b610db7565b34801561051657600080fd5b506104dc60008051602061441683398151915281565b34801561053857600080fd5b5061054c610547366004613c05565b610dda565b6040516103fd9190613c5a565b34801561056557600080fd5b50610579610574366004613cca565b610f9e565b6040516103fd9190613d1b565b34801561059257600080fd5b506103cc6105a1366004613d67565b611216565b3480156105b257600080fd5b506103cc6105c1366004613a2e565b611240565b3480156105d257600080fd5b506103cc6105e1366004613d67565b611263565b3480156105f257600080fd5b50610629610601366004613a2e565b6101676020526000908152604090208054600182015460028301546003909301549192909184565b6040805194855260208501939093529183015260608201526080016103fd565b34801561065557600080fd5b506103cc610664366004613d97565b6112dd565b34801561067557600080fd5b506103cc611333565b6103cc61068c366004613d97565b611353565b34801561069d57600080fd5b5061012e546103e9906001600160a01b031681565b6103cc6106c0366004613ba0565b61135e565b3480156106d157600080fd5b5060975460ff16610426565b3480156106e957600080fd5b506103cc6106f8366004613dc3565b611368565b34801561070957600080fd5b506103cc610718366004613a2e565b611469565b34801561072957600080fd5b506104dc6101345481565b34801561074057600080fd5b506104dc600081565b34801561075557600080fd5b506103cc610764366004613a2e565b61148c565b34801561077557600080fd5b506103cc610784366004613e28565b6114af565b34801561079557600080fd5b506103e9610fff81565b3480156107ab57600080fd5b506104dc6107ba366004613a2e565b6001600160a01b0316600090815261019b602052604090205490565b3480156107e257600080fd5b506103e96107f1366004613a2e565b61012d602052600090815260409020546001600160a01b031681565b34801561081957600080fd5b506103cc6115f5565b34801561082e57600080fd5b506104dc61083d366004613a2e565b6101cf6020526000908152604090205481565b34801561085c57600080fd5b506103cc61086b366004613a2e565b611615565b34801561087c57600080fd5b50610131546103e9906001600160a01b031681565b34801561089d57600080fd5b506103cc6108ac366004613e9a565b611638565b3480156108bd57600080fd5b506103cc6108cc366004613a2e565b611705565b3480156108dd57600080fd5b506104266108ec366004613d67565b611728565b3480156108fd57600080fd5b50610168546104269060ff1681565b34801561091857600080fd5b506104dc61019c5481565b34801561092f57600080fd5b506103cc61093e366004613a2e565b611753565b34801561094f57600080fd5b506103cc6117fe565b34801561096457600080fd5b506104dc7f7a8dc26796a1e50e6e190b70259f58f6a4edd5b22280ceecc82b687b8e98286981565b34801561099857600080fd5b50610130546103e9906001600160a01b031681565b3480156109b957600080fd5b506103cc6109c8366004613ed5565b61181e565b3480156109d957600080fd5b506103cc6109e8366004613ba0565b611837565b3480156109f957600080fd5b506104dc7f87a7811f4bfedea3d341ad165680ae306b01aaeacc205d227629cf157dd9f82181565b348015610a2d57600080fd5b506103cc610a3c366004613d67565b611858565b348015610a4d57600080fd5b506103cc610a5c366004613ba0565b61187d565b348015610a6d57600080fd5b506103e97f000000000000000000000000000000000000000000000000000000000000000081565b348015610aa157600080fd5b50610133546103e9906001600160a01b031681565b348015610ac257600080fd5b506104dc60008051602061439683398151915281565b348015610ae457600080fd5b50610132546103e9906001600160a01b031681565b6103cc610b07366004613d97565b611971565b348015610b1857600080fd5b506104dc6000805160206143d683398151915281565b6103cc610b3c366004613f65565b61197b565b6103e9610b4f366004613a2e565b611986565b348015610b6057600080fd5b506104dc7f2cef46a936bdc5b7e6e8c71aa04560c41cf7d88bb26901a7e7f4936ff02accad81565b348015610b9457600080fd5b506103cc610ba3366004613a2e565b611999565b348015610bb457600080fd5b506104dc6000805160206143b683398151915281565b60006001600160e01b03198216637965db0b60e01b1480610bfb57506301ffc9a760e01b6001600160e01b03198316145b92915050565b6000610c0c816119bc565b610c2460008051602061441683398151915283611216565b5050565b600054610100900460ff1615808015610c485750600054600160ff909116105b80610c625750303b158015610c62575060005460ff166001145b610cca5760405162461bcd60e51b815260206004820152602e60248201527f496e697469616c697a61626c653a20636f6e747261637420697320616c72656160448201526d191e481a5b9a5d1a585b1a5e995960921b60648201526084015b60405180910390fd5b6000805460ff191660011790558015610ced576000805461ff0019166101001790555b6001600160a01b038216610d145760405163d92e233d60e01b815260040160405180910390fd5b610d23898989898989896119c6565b610d2b611cb1565b610d436000805160206143f683398151915283611cbf565b8015610d89576000805461ff0019169055604051600181527f7f26b83ff96e1f2b6a682f133852f6798a09c465da95921460cefb38474024989060200160405180910390a15b505050505050505050565b6000805160206143f6833981519152610dac816119bc565b610db4611d45565b50565b6000610dc2816119bc565b610c246000805160206143b683398151915283611858565b6001600160a01b038316600090815261019b602052604090208054606091908367ffffffffffffffff811115610e1257610e12613a4b565b604051908082528060200260200182016040528015610e6457816020015b604080516080810182526000808252602080830182905292820181905260608201528252600019909201910181610e305790505b50925060005b8351811015610f945781868683818110610e8657610e86613fa6565b9050602002013510610eeb57604051806080016040528060006001600160a01b0316815260200160006001600160a01b03168152602001600081526020016000815250848281518110610edb57610edb613fa6565b6020026020010181905250610f82565b82868683818110610efe57610efe613fa6565b9050602002013581548110610f1557610f15613fa6565b600091825260209182902060408051608081018252600490930290910180546001600160a01b0390811684526001820154169383019390935260028301549082015260039091015460608201528451859083908110610f7657610f76613fa6565b60200260200101819052505b80610f8c81613fd2565b915050610e6a565b5050509392505050565b6001600160a01b038516600090815261019b602052604090206060908267ffffffffffffffff811115610fd357610fd3613a4b565b60405190808252806020026020018201604052801561102857816020015b61101560405180606001604052806000815260200160008152602001600081525090565b815260200190600190039081610ff15790505b5091506000808280549050861161103f5785611042565b82545b9050865b818110801561105457508583105b1561113657886001600160a01b031684828154811061107557611075613fa6565b60009182526020909120600160049092020101546001600160a01b0316036111245760405180606001604052808281526020018583815481106110ba576110ba613fa6565b90600052602060002090600402016002015481526020018583815481106110e3576110e3613fa6565b90600052602060002090600402016003015481525085848151811061110a5761110a613fa6565b6020026020010181905250828061112090613fd2565b9350505b8061112e81613fd2565b915050611046565b5084821461120a5760008267ffffffffffffffff81111561115957611159613a4b565b6040519080825280602002602001820160405280156111ae57816020015b61119b60405180606001604052806000815260200160008152602001600081525090565b8152602001906001900390816111775790505b50905060005b83811015611206578581815181106111ce576111ce613fa6565b60200260200101518282815181106111e8576111e8613fa6565b602002602001018190525080806111fe90613fd2565b9150506111b4565b5093505b50505095945050505050565b600082815260656020526040902060010154611231816119bc565b61123b8383611cbf565b505050565b600061124b816119bc565b610c246000805160206143b683398151915283611216565b6001600160a01b03811633146112d35760405162461bcd60e51b815260206004820152602f60248201527f416363657373436f6e74726f6c3a2063616e206f6e6c792072656e6f756e636560448201526e103937b632b9903337b91039b2b63360891b6064820152608401610cc1565b610c248282611d86565b6112e5611ded565b60008060006112f48585611e46565b6001600160a01b03808316600090815261012d60205260409020549396509194509250166113258382868986611ff7565b50505050610c24600160fb55565b6000805160206143b683398151915261134b816119bc565b610db46120e2565b610c2482338361212f565b610db4338261215b565b611370611ded565b6000819003611392576040516318301aa760e01b815260040160405180910390fd5b60008060005b8381101561142c576000806113c5898888868181106113b9576113b9613fa6565b90506020020135611e46565b919550925090506001600160a01b038083169089161461140b57604051632469ee5360e01b81526001600160a01b03808a16600483015283166024820152604401610cc1565b6114158186613feb565b94505050808061142490613fd2565b915050611398565b506001600160a01b03808616600090815261012d6020526040902054166114568682848a87611ff7565b505050611463600160fb55565b50505050565b6000611474816119bc565b610c2460008051602061441683398151915283611858565b6000611497816119bc565b610c246000805160206143d683398151915283611216565b6114b76121ca565b61012e546001600160a01b031633146114e35760405163122d54c760e11b815260040160405180910390fd5b602081116115255760405163180a097760e01b815260206004820152600e60248201526d11185d18481d1bdbc81cda1bdc9d60921b6044820152606401610cc1565b7f7a8dc26796a1e50e6e190b70259f58f6a4edd5b22280ceecc82b687b8e982869611554602060008486613ffe565b61155d91614028565b036115ac57610c246115728260208186613ffe565b8080601f01602080910402602001604051908101604052809392919081815260200183838082843760009201919091525061221092505050565b60405163180a097760e01b815260206004820152601c60248201527f556e737570706f7274656420616374696f6e207369676e6174757265000000006044820152606401610cc1565b6000805160206143d683398151915261160d816119bc565b610db461230f565b6000611620816119bc565b610c2460008051602061439683398151915283611858565b6000805160206143f6833981519152611650816119bc565b6001600160a01b03851660009081526101676020908152604080832080546003909101546101cf90935292205461168888888861234c565b6001600160a01b03881660008181526101cf602090815260409182902088905581518a8152908101899052908101879052606081018590526080810184905260a081018390527f300bef0f21f43f60e0c1798e3095fc7583e6832358453bef5e5af765a7b53e3d9060c00160405180910390a25050505050505050565b6000611710816119bc565b610c2460008051602061439683398151915283611216565b60009182526065602090815260408084206001600160a01b0393909316845291905290205460ff1690565b60008051602061439683398151915261176b816119bc565b6001600160a01b0382166117925760405163d92e233d60e01b815260040160405180910390fd5b61012e54604080516001600160a01b03928316815291841660208301527f9f505d2f223df1f36d2bbc40c8817da20509a9722f3fc09d005bb9d5df154210910160405180910390a15061012e80546001600160a01b0319166001600160a01b0392909216919091179055565b6000805160206143f6833981519152611816816119bc565b610db46123eb565b60405163f0e2219760e01b815260040160405180910390fd5b6000805160206143f683398151915261184f816119bc565b610c2482612429565b600082815260656020526040902060010154611873816119bc565b61123b8383611d86565b600080516020614416833981519152611895816119bc565b811580159061190f5750610131546040516370a0823160e01b81523060048201526001600160a01b03909116906370a0823190602401602060405180830381865afa1580156118e8573d6000803e3d6000fd5b505050506040513d601f19601f8201168201806040525081019061190c9190614046565b82105b1561192d576040516308c4bd0b60e11b815260040160405180910390fd5b6101345460408051918252602082018490527f20f79e1e156e9d4acad9184b2d8283c178ddb9638463180bf2176285b77ab76b910160405180910390a15061013455565b610c24828261215b565b61123b83838361212f565b60006119906121ca565b610bfb8261246f565b60006119a4816119bc565b610c246000805160206143d683398151915283611858565b610db48133612711565b336001600160a01b037f00000000000000000000000000000000000000000000000000000000000000001614611a0f57604051630d622feb60e01b815260040160405180910390fd5b6001600160a01b0386161580611a2c57506001600160a01b038516155b80611a3e57506001600160a01b038416155b80611a5057506001600160a01b038316155b80611a6257506001600160a01b038216155b80611a75575086516001600160a01b0316155b80611a8b575060208701516001600160a01b0316155b80611aa1575060408701516001600160a01b0316155b80611ab7575060608701516001600160a01b0316155b80611acd575060808701516001600160a01b0316155b15611aeb5760405163d92e233d60e01b815260040160405180910390fd5b611af361276a565b611afb612791565b611b036127c0565b8651611b1190600090611cbf565b611b2d6000805160206143d68339815191528860200151611cbf565b611b496000805160206143b68339815191528860400151611cbf565b611b656000805160206144168339815191528860600151611cbf565b611b816000805160206143968339815191528860800151611cbf565b61012f80546001600160a01b038781166001600160a01b03199283161790925561013080548784169083168117909155610131805487851690841617905561013380549386169390921692909217905560405161077760611b6020820152611c11919060340160408051601f19818403018152919052805160209091012061012f546001600160a01b03166127ef565b61013280546001600160a01b03199081166001600160a01b039384161790915561012e805482169883169890981790975561013491909155610131548116600081815261012d602052604080822080548a169093179092557fad76b4044bfa734d1658e7587c3fd33991772c4284f450d12a829695b2e0bd048054610eee908a168117909155610133549093168152208054909616179094555050505050565b611cbd62015180612429565b565b611cc98282611728565b610c245760008281526065602090815260408083206001600160a01b03851684529091529020805460ff19166001179055611d013390565b6001600160a01b0316816001600160a01b0316837f2f8788117e7eff1d82e926ec794901d17c78024a50270940304540a733656f0d60405160405180910390a45050565b610168805460ff191690556040513381527fca830263c7c51a7fd39e6424d29d9e7a11ce1250e908ee0763c2c921d7a3022b906020015b60405180910390a1565b611d908282611728565b15610c245760008281526065602090815260408083206001600160a01b0385168085529252808320805460ff1916905551339285917ff6391f5c32d9c69d2a47ea670b442974b53935d1edc7fd64eb21e047a839171b9190a45050565b600260fb5403611e3f5760405162461bcd60e51b815260206004820152601f60248201527f5265656e7472616e637947756172643a207265656e7472616e742063616c6c006044820152606401610cc1565b600260fb55565b6001600160a01b038216600090815261019b60205260408120805482918291808610611e8f5760405163c0876ed360e01b81526004810182905260248101879052604401610cc1565b6000828781548110611ea357611ea3613fa6565b600091825260209091206004909102018054600182015460028301546001600160a01b039283169950911696509450905084611f045760405163373a67e760e21b81526001600160a01b038916600482015260248101889052604401610cc1565b600061019c548260030154611f199190613feb565b905080421015611f45576040516337c6546160e01b815242600482015260248101829052604401610cc1565b838881548110611f5757611f57613fa6565b60009182526020822060049091020180546001600160a01b03199081168255600182018054909116905560028101829055600301556040516001600160a01b038a811691898216918916907f3d7c245d695cceb19fe0fa394d673c860b810a04592fe5415e980c651bb81b9290611fe4908a9042908f909283526020830191909152604082015260600190565b60405180910390a4505050509250925092565b611fff6121ca565b610eed196001600160a01b038616016120705761201c828261284b565b604080516001600160a01b038581168252602082018490528085169290871691610eee917f4327909ba044fbe8b04a4d999929cd91a03b30ebfae467b54c16353a44660f43910160405180910390a46120d4565b6120846001600160a01b0386168383612964565b604080516001600160a01b038581168252602082018490528085169287821692918916917f6e90696e59c60d3ffd22a244d98b9d73dae6642f03b99cd4d3e5aa852121443b910160405180910390a45b5050505050565b600160fb55565b6120ea6129c7565b6097805460ff191690557f5db9ee0a495bf2e6ff9c91a7834c1ba4fdd244a5e8aa4e537bd38aeae4b073aa335b6040516001600160a01b039091168152602001611d7c565b610133546001600160a01b03908116908416036121505761123b8282612a10565b61123b838383612ad8565b8034101561217c5760405163044044a560e21b815260040160405180910390fd5b6000612188823461405f565b612192904761405f565b90506121a1610eee8484612c57565b80471461123b57604051637244981560e11b815247600482015260248101829052604401610cc1565b60975460ff1615611cbd5760405162461bcd60e51b815260206004820152601060248201526f14185d5cd8589b194e881c185d5cd95960821b6044820152606401610cc1565b600080600080600061222186612f06565b9450945094509450945060006122378683612fe0565b905060008161225f57506001600160a01b03861660009081526101cf60205260409020548210155b6101685460ff16818061226f5750825b806122775750805b156123025761228885878a876130fb565b846001600160a01b0316866001600160a01b0316896001600160a01b03167fbdca490c3df14c1d2a133e5b1e2300a5086f2ddc3f90d5dc9ad1d50287df574b878688876040516122f594939291909384529115156020840152151560408301521515606082015260800190565b60405180910390a4610d89565b610d898888888888611ff7565b6123176121ca565b6097805460ff191660011790557f62e78cea01bee320cd4e420270b5ea74000d11b0c9f74754ebdbfc544b05a2586121173390565b6001600160a01b0383166123735760405163c1ab6dc160e01b815260040160405180910390fd5b81600003612394576040516331278a8760e01b815260040160405180910390fd5b806000036123b557604051636cbcfbe360e11b815260040160405180910390fd5b6001600160a01b03831660009081526101676020526040812080549091036123df57600181018390555b91825560039091015550565b610168805460ff191660011790556040513381527fe6f871681d402a779a934141b5608fb6f3226c91b5fc9d24d93b7dc83e4aceb690602001611d7c565b61019c80549082905560408051838152602081018390527f9c3f1b54b1487e018f1d0593ff5cf7fb625b2df6332c974a6cc56bb358879841910160405180910390a15050565b60003460000361249257604051631d3e008d60e21b815260040160405180910390fd5b6001600160a01b0382166124b95760405163d92e233d60e01b815260040160405180910390fd5b610131546001600160a01b03908116908316036124e95760405163a9a43cf960e01b815260040160405180910390fd5b610eed196001600160a01b038316016125155760405163e9edc9b360e01b815260040160405180910390fd5b610133546001600160a01b0390811690831603612545576040516311eba7e360e01b815260040160405180910390fd5b6001600160a01b03828116600090815261012d6020526040902054161561257f57604051632a431ae760e11b815260040160405180910390fd5b61012f54610130546040516bffffffffffffffffffffffff19606086901b1660208201526001600160a01b03928316926000926125d89291169060340160405160208183030381529060405280519060200120846127ef565b6001600160a01b03858116600090815261012d6020526040812080546001600160a01b03191692841692909217909155909150808061261687613204565b92509250925060007f2cef46a936bdc5b7e6e8c71aa04560c41cf7d88bb26901a7e7f4936ff02accad888585856040516020016126579594939291906140c2565b60408051601f198184030181529082905261012e54637903aadd60e11b83529092506001600160a01b03169063f20755ba90349061269b9085903390600401614114565b6000604051808303818588803b1580156126b457600080fd5b505af11580156126c8573d6000803e3d6000fd5b50506040516001600160a01b03808a1694508c1692507fadbf4fee5f2ebdb59bcf27cd835d152ca7931a51cb921c5f8fdc43cf7c1f33049150600090a350929695505050505050565b61271b8282611728565b610c245761272881613390565b6127338360206133a2565b60405160200161274492919061413e565b60408051601f198184030181529082905262461bcd60e51b8252610cc1916004016141b3565b600054610100900460ff16611cbd5760405162461bcd60e51b8152600401610cc1906141c6565b600054610100900460ff166127b85760405162461bcd60e51b8152600401610cc1906141c6565b611cbd613545565b600054610100900460ff166127e75760405162461bcd60e51b8152600401610cc1906141c6565b611cbd613578565b60405160388101919091526f5af43d82803e903d91602b57fd5bf3ff60248201526014810192909252733d602d80600a3d3981f3363d3d373d3d3d363d73825260588201526037600c8201206078820152605560439091012090565b8047101561289b5760405162461bcd60e51b815260206004820152601d60248201527f416464726573733a20696e73756666696369656e742062616c616e63650000006044820152606401610cc1565b6000826001600160a01b03168260405160006040518083038185875af1925050503d80600081146128e8576040519150601f19603f3d011682016040523d82523d6000602084013e6128ed565b606091505b505090508061123b5760405162461bcd60e51b815260206004820152603a60248201527f416464726573733a20756e61626c6520746f2073656e642076616c75652c207260448201527f6563697069656e74206d617920686176652072657665727465640000000000006064820152608401610cc1565b6040516001600160a01b03831660248201526044810182905261123b90849063a9059cbb60e01b906064015b60408051601f198184030181529190526020810180516001600160e01b03166001600160e01b03199093169290921790915261359f565b60975460ff16611cbd5760405162461bcd60e51b815260206004820152601460248201527314185d5cd8589b194e881b9bdd081c185d5cd95960621b6044820152606401610cc1565b6000612a1c8247613feb565b610133549091506001600160a01b0316612a3881333086613674565b61013354604051632e1a7d4d60e01b8152600481018590526001600160a01b0390911690632e1a7d4d90602401600060405180830381600087803b158015612a7f57600080fd5b505af1158015612a93573d6000803e3d6000fd5b50505050814714612ac057604051637244981560e11b815247600482015260248101839052604401610cc1565b61013354611463906001600160a01b03168585612c57565b6040516370a0823160e01b815230600482015260009082906001600160a01b038616906370a0823190602401602060405180830381865afa158015612b21573d6000803e3d6000fd5b505050506040513d601f19601f82011682018060405250810190612b459190614046565b612b4f9190613feb565b9050612b5c848484612c57565b6040516370a0823160e01b815230600482015281906001600160a01b038616906370a0823190602401602060405180830381865afa158015612ba2573d6000803e3d6000fd5b505050506040513d601f19601f82011682018060405250810190612bc69190614046565b14611463576040516370a0823160e01b81523060048201526001600160a01b038516906370a0823190602401602060405180830381865afa158015612c0f573d6000803e3d6000fd5b505050506040513d601f19601f82011682018060405250810190612c339190614046565b604051637244981560e11b8152600481019190915260248101829052604401610cc1565b612c5f611ded565b612c676121ca565b6101315461013454849183916001600160a01b0391821691841682148015612c8e57508015155b15612d28576040516370a0823160e01b8152306004820152819084906001600160a01b038516906370a0823190602401602060405180830381865afa158015612cdb573d6000803e3d6000fd5b505050506040513d601f19601f82011682018060405250810190612cff9190614046565b612d099190613feb565b1115612d285760405163cf79cc9b60e01b815260040160405180910390fd5b6001600160a01b0386161580612d4557506001600160a01b038716155b15612d635760405163d92e233d60e01b815260040160405180910390fd5b84600003612d8457604051631f2a200560e01b815260040160405180910390fd5b34600003612da557604051631d3e008d60e21b815260040160405180910390fd5b6001600160a01b03878116600090815261012d602052604090205416612dde57604051633a3c22ef60e11b815260040160405180910390fd5b610133546000906001600160a01b03898116911614612dfd5787612e01565b610eee5b604080517f87a7811f4bfedea3d341ad165680ae306b01aaeacc205d227629cf157dd9f82160208201526001600160a01b03838116828401523360608301528a8116608083015260a08083018b90528351808403909101815260c09092019092529192506000908a16610eee14612e785734612e82565b612e82883461405f565b61012e54604051637903aadd60e11b81529192506001600160a01b03169063f20755ba908390612eb89086903390600401614114565b6000604051808303818588803b158015612ed157600080fd5b505af1158015612ee5573d6000803e3d6000fd5b5050505050612ef58a8a8a6136ac565b5050505050505061123b600160fb55565b600080600080600085806020019051810190612f229190614211565b929750909450925090506001600160a01b038516612f535760405163d92e233d60e01b815260040160405180910390fd5b610131546001600160a01b0390811690861603612f7457610fff9350612fd7565b610eed196001600160a01b03861601612f9b57610132546001600160a01b03169350612fd7565b6001600160a01b03808616600090815261012d602052604090205416935083612fd757604051633a3c22ef60e11b815260040160405180910390fd5b91939590929450565b6001600160a01b038216600090815261016760205260408120805480830361305057846001600160a01b03167f63455daddfcbe1b76f2cf1d25b17dc8d8b54805d19a0a33035f2a9fb6178bf7d8560405161303d91815260200190565b60405180910390a2600192505050610bfb565b60008260030154836002015442613067919061405f565b6130719190614264565b83600101546130809190613feb565b4260028501559050818111156130935750805b8085106130df576040517f93634b349f9e42d781ffd65b7052280b7d3dd517717c267d448441b4716884cd90600090a1610168805460ff191660019081179091556000908401556130ef565b6130e9858261405f565b60018401555b50600095945050505050565b6001600160a01b03821661312d576040516329f8b6ed60e01b81526001600160a01b0385166004820152602401610cc1565b604080516080810182526001600160a01b0385811680835285821660208085018281528587018881524260608089018281528e8916600081815261019b88528c8120805460018082018355918352918990208d51600484029091018054918e166001600160a01b03199283161781559851918901805492909d16911617909a55935160028601555160039094019390935588518a815293840152968201859052949593947fdc3ff1d1a171333fabe1d0df7590fc79fe74e95fbbfe8aefff8b8c8961f4e02a910160405180910390a4505050505050565b60608060006060846001600160a01b03166306fdde036040518163ffffffff1660e01b8152600401600060405180830381865afa92505050801561326a57506040513d6000823e601f3d908101601f19168201604052613267919081019061427b565b60015b61328757604051633dd1b30560e01b815260040160405180910390fd5b90506060856001600160a01b03166395d89b416040518163ffffffff1660e01b8152600401600060405180830381865afa9250505080156132ea57506040513d6000823e601f3d908101601f191682016040526132e7919081019061427b565b60015b61330757604051633dd1b30560e01b815260040160405180910390fd5b90506000866001600160a01b031663313ce5676040518163ffffffff1660e01b8152600401602060405180830381865afa925050508015613365575060408051601f3d908101601f191682019092526133629181019061431d565b60015b61338257604051633dd1b30560e01b815260040160405180910390fd5b929791965091945092505050565b6060610bfb6001600160a01b03831660145b606060006133b1836002614264565b6133bc906002613feb565b67ffffffffffffffff8111156133d4576133d4613a4b565b6040519080825280601f01601f1916602001820160405280156133fe576020820181803683370190505b509050600360fc1b8160008151811061341957613419613fa6565b60200101906001600160f81b031916908160001a905350600f60fb1b8160018151811061344857613448613fa6565b60200101906001600160f81b031916908160001a905350600061346c846002614264565b613477906001613feb565b90505b60018111156134ef576f181899199a1a9b1b9c1cb0b131b232b360811b85600f16601081106134ab576134ab613fa6565b1a60f81b8282815181106134c1576134c1613fa6565b60200101906001600160f81b031916908160001a90535060049490941c936134e881614340565b905061347a565b50831561353e5760405162461bcd60e51b815260206004820181905260248201527f537472696e67733a20686578206c656e67746820696e73756666696369656e746044820152606401610cc1565b9392505050565b600054610100900460ff1661356c5760405162461bcd60e51b8152600401610cc1906141c6565b6097805460ff19169055565b600054610100900460ff166120db5760405162461bcd60e51b8152600401610cc1906141c6565b60006135f4826040518060400160405280602081526020017f5361666545524332303a206c6f772d6c6576656c2063616c6c206661696c6564815250856001600160a01b031661385f9092919063ffffffff16565b90508051600014806136155750808060200190518101906136159190614357565b61123b5760405162461bcd60e51b815260206004820152602a60248201527f5361666545524332303a204552433230206f7065726174696f6e20646964206e6044820152691bdd081cdd58d8d9595960b21b6064820152608401610cc1565b6040516001600160a01b03808516602483015283166044820152606481018290526114639085906323b872dd60e01b90608401612990565b610eed196001600160a01b03841601613715576101325460408051338152602081018490526001600160a01b0385811693811692908716917fd1b4e24e81f1c901551420568a9447fd105593af143ae8b096c6385e4fb7ec8691015b60405180910390a4505050565b610133546001600160a01b0390811690841603613779576101325460408051338152602081018490526001600160a01b0385811693811692908716917fa88fe860ecdd7b9e7311676f780fe08f0ed96990b74319e26ad505932d36890f9101613708565b610131546001600160a01b03908116908416036137ee5760408051338152602081018390526001600160a01b0380851692908616917f8294ebca1c2aada95b98b62a8d705ba5d7be4bdb75901d3f0eeb35062b706c79910160405180910390a361123b6001600160a01b038416333084613674565b6001600160a01b03838116600081815261012d6020908152604091829020548251338152918201869052868516941692917f3207f1f801a6ba9b6005cb9dc97d8498df3407dc7b1c7a644c7b57997f4f03c5910160405180910390a461123b6001600160a01b038416333084613674565b606061386e8484600085613876565b949350505050565b6060824710156138d75760405162461bcd60e51b815260206004820152602660248201527f416464726573733a20696e73756666696369656e742062616c616e636520666f6044820152651c8818d85b1b60d21b6064820152608401610cc1565b600080866001600160a01b031685876040516138f39190614379565b60006040518083038185875af1925050503d8060008114613930576040519150601f19603f3d011682016040523d82523d6000602084013e613935565b606091505b509150915061394687838387613951565b979650505050505050565b606083156139c05782516000036139b9576001600160a01b0385163b6139b95760405162461bcd60e51b815260206004820152601d60248201527f416464726573733a2063616c6c20746f206e6f6e2d636f6e74726163740000006044820152606401610cc1565b508161386e565b61386e83838151156139d55781518083602001fd5b8060405162461bcd60e51b8152600401610cc191906141b3565b600060208284031215613a0157600080fd5b81356001600160e01b03198116811461353e57600080fd5b6001600160a01b0381168114610db457600080fd5b600060208284031215613a4057600080fd5b813561353e81613a19565b634e487b7160e01b600052604160045260246000fd5b600060a08284031215613a7357600080fd5b60405160a0810181811067ffffffffffffffff82111715613a9657613a96613a4b565b6040529050808235613aa781613a19565b81526020830135613ab781613a19565b60208201526040830135613aca81613a19565b60408201526060830135613add81613a19565b60608201526080830135613af081613a19565b6080919091015292915050565b600080600080600080600080610180898b031215613b1a57600080fd5b613b248a8a613a61565b975060a0890135613b3481613a19565b965060c0890135613b4481613a19565b955060e0890135613b5481613a19565b9450610100890135613b6581613a19565b9350610120890135613b7681613a19565b92506101408901359150610160890135613b8f81613a19565b809150509295985092959890939650565b600060208284031215613bb257600080fd5b5035919050565b60008083601f840112613bcb57600080fd5b50813567ffffffffffffffff811115613be357600080fd5b6020830191508360208260051b8501011115613bfe57600080fd5b9250929050565b600080600060408486031215613c1a57600080fd5b8335613c2581613a19565b9250602084013567ffffffffffffffff811115613c4157600080fd5b613c4d86828701613bb9565b9497909650939450505050565b602080825282518282018190526000919060409081850190868401855b82811015613cbd57815180516001600160a01b03908116865287820151168786015285810151868601526060908101519085015260809093019290850190600101613c77565b5091979650505050505050565b600080600080600060a08688031215613ce257600080fd5b8535613ced81613a19565b94506020860135613cfd81613a19565b94979496505050506040830135926060810135926080909101359150565b602080825282518282018190526000919060409081850190868401855b82811015613cbd5781518051855286810151878601528501518585015260609093019290850190600101613d38565b60008060408385031215613d7a57600080fd5b823591506020830135613d8c81613a19565b809150509250929050565b60008060408385031215613daa57600080fd5b8235613db581613a19565b946020939093013593505050565b60008060008060608587031215613dd957600080fd5b8435613de481613a19565b93506020850135613df481613a19565b9250604085013567ffffffffffffffff811115613e1057600080fd5b613e1c87828801613bb9565b95989497509550505050565b60008060208385031215613e3b57600080fd5b823567ffffffffffffffff80821115613e5357600080fd5b818501915085601f830112613e6757600080fd5b813581811115613e7657600080fd5b866020828501011115613e8857600080fd5b60209290920196919550909350505050565b60008060008060808587031215613eb057600080fd5b8435613ebb81613a19565b966020860135965060408601359560600135945092505050565b6000806000806000806000610160888a031215613ef157600080fd5b613efb8989613a61565b965060a0880135613f0b81613a19565b955060c0880135613f1b81613a19565b945060e0880135613f2b81613a19565b9350610100880135613f3c81613a19565b9250610120880135613f4d81613a19565b80925050610140880135905092959891949750929550565b600080600060608486031215613f7a57600080fd5b8335613f8581613a19565b92506020840135613f9581613a19565b929592945050506040919091013590565b634e487b7160e01b600052603260045260246000fd5b634e487b7160e01b600052601160045260246000fd5b600060018201613fe457613fe4613fbc565b5060010190565b80820180821115610bfb57610bfb613fbc565b6000808585111561400e57600080fd5b8386111561401b57600080fd5b5050820193919092039150565b80356020831015610bfb57600019602084900360031b1b1692915050565b60006020828403121561405857600080fd5b5051919050565b81810381811115610bfb57610bfb613fbc565b60005b8381101561408d578181015183820152602001614075565b50506000910152565b600081518084526140ae816020860160208601614072565b601f01601f19169290920160200192915050565b8581526001600160a01b038516602082015260a0604082018190526000906140ec90830186614096565b82810360608401526140fe8186614096565b91505060ff831660808301529695505050505050565b6040815260006141276040830185614096565b905060018060a01b03831660208301529392505050565b7f416363657373436f6e74726f6c3a206163636f756e7420000000000000000000815260008351614176816017850160208801614072565b7001034b99036b4b9b9b4b733903937b6329607d1b60179184019182015283516141a7816028840160208801614072565b01602801949350505050565b60208152600061353e6020830184614096565b6020808252602b908201527f496e697469616c697a61626c653a20636f6e7472616374206973206e6f74206960408201526a6e697469616c697a696e6760a81b606082015260800190565b6000806000806080858703121561422757600080fd5b845161423281613a19565b602086015190945061424381613a19565b604086015190935061425481613a19565b6060959095015193969295505050565b8082028115828204841417610bfb57610bfb613fbc565b60006020828403121561428d57600080fd5b815167ffffffffffffffff808211156142a557600080fd5b818401915084601f8301126142b957600080fd5b8151818111156142cb576142cb613a4b565b604051601f8201601f19908116603f011681019083821181831017156142f3576142f3613a4b565b8160405282815287602084870101111561430c57600080fd5b613946836020830160208801614072565b60006020828403121561432f57600080fd5b815160ff8116811461353e57600080fd5b60008161434f5761434f613fbc565b506000190190565b60006020828403121561436957600080fd5b8151801515811461353e57600080fd5b6000825161438b818460208701614072565b919091019291505056fea6d0b532cacea090bc411482cd491720e2eac14d48ce5d0402b8851e0bb2aec182b32d9ab5100db08aeb9a0e08b422d14851ec118736590462bf9c085a6e9448539440820030c4994db4e31b6b800deafd503688728f932addfe7a410515c14cdcd3beafca8a1012a37a08a8968959a8e9278fafc576974c99735b24d5d8ae0f5b94a8cd68affa84315f488cc2e6e456f761d334859cae8a073ef8fe13fb0ee6a26469706673582212200c4cb60439b14da3ff7f118d7fb7d44acf9dd8c5bcc459d5a7d7dd6cb1a9ad0364736f6c63430008130033","linkReferences":{}},"methodIdentifiers":{"ADAPTOR_MANAGER_ROLE()":"da51c71e","DEFAULT_ADMIN_ROLE()":"a217fddf","DEPOSIT_SIG()":"d41f1771","MAP_TOKEN_SIG()":"f6451255","NATIVE_ETH()":"011e1167","NATIVE_IMX()":"7ab5e3ae","PAUSER_ROLE()":"e63ab1e9","UNLIMITED_DEPOSIT()":"68673a03","UNPAUSER_ROLE()":"fb1bb9de","VARIABLE_MANAGER_ROLE()":"26fe4fc3","WITHDRAW_SIG()":"b1768065","activateWithdrawalQueue()":"af8bbb5e","childERC20Bridge()":"106d5726","childETHToken()":"dee1ef0d","childTokenTemplate()":"b68ad1e4","deactivateWithdrawalQueue()":"1657a6e5","deposit(address,uint256)":"47e7ef24","depositETH(uint256)":"5358fbda","depositTo(address,address,uint256)":"f213159c","depositToETH(address,uint256)":"e0410432","finaliseQueuedWithdrawal(address,uint256)":"3a7a228e","finaliseQueuedWithdrawalsAggregated(address,address,uint256[])":"5d3a22ab","findPendingWithdrawals(address,address,uint256,uint256,uint256)":"2bf83911","flowRateBuckets(address)":"366963ea","getPendingWithdrawals(address,uint256[])":"28a6ff1e","getPendingWithdrawalsLength(address)":"7b1929b7","getRoleAdmin(bytes32)":"248a9ca3","grantAdaptorManagerRole(address)":"8f70121f","grantPauserRole(address)":"6c11c21c","grantRole(bytes32,address)":"2f2ff15d","grantUnpauserRole(address)":"32968782","grantVariableManagerRole(address)":"07b2b7ad","hasRole(bytes32,address)":"91d14854","imxCumulativeDepositLimit()":"67e4e189","initialize((address,address,address,address,address),address,address,address,address,address,uint256)":"c880d915","initialize((address,address,address,address,address),address,address,address,address,address,uint256,address)":"0800dd27","initializerAddress()":"d6dc0b0d","largeTransferThresholds(address)":"84a3291a","mapToken(address)":"f4a120f7","onMessageReceive(bytes)":"7248c77c","pause()":"8456cb59","paused()":"5c975abb","renounceRole(bytes32,address)":"36568abe","revokeAdaptorManagerRole(address)":"89c65d41","revokePauserRole(address)":"f865af08","revokeRole(bytes32,address)":"d547741f","revokeUnpauserRole(address)":"2540e2da","revokeVariableManagerRole(address)":"6066ae87","rootBridgeAdaptor()":"499fa04b","rootIMXToken()":"8c956990","rootTokenToChildToken(address)":"7efab4f5","rootWETHToken()":"d8376716","setRateControlThreshold(address,uint256,uint256,uint256)":"8f3a4e4f","setWithdrawalDelay(uint256)":"d2c13da5","supportsInterface(bytes4)":"01ffc9a7","unpause()":"3f4ba83a","updateImxCumulativeDepositLimit(uint256)":"d68d5fd6","updateRootBridgeAdaptor(address)":"a8deae56","withdrawalDelay()":"a7ab6961","withdrawalQueueActivated()":"a6f72cb8"},"id":76}