{"abi":[{"type":"function","name":"payNativeGasForContractCall","inputs":[{"name":"sender","type":"address","internalType":"address"},{"name":"destinationChain","type":"string","internalType":"string"},{"name":"destinationAddress","type":"string","internalType":"string"},{"name":"payload","type":"bytes","internalType":"bytes"},{"name":"refundAddress","type":"address","internalType":"address"}],"outputs":[],"stateMutability":"payable"}],"bytecode":{"object":"0x608060405234801561001057600080fd5b50610193806100206000396000f3fe60806040526004361061001e5760003560e01c80630c93e3bb14610023575b600080fd5b61003b6100313660046100a2565b5050505050505050565b005b80356001600160a01b038116811461005457600080fd5b919050565b60008083601f84011261006b57600080fd5b50813567ffffffffffffffff81111561008357600080fd5b60208301915083602082850101111561009b57600080fd5b9250929050565b60008060008060008060008060a0898b0312156100be57600080fd5b6100c78961003d565b9750602089013567ffffffffffffffff808211156100e457600080fd5b6100f08c838d01610059565b909950975060408b013591508082111561010957600080fd5b6101158c838d01610059565b909750955060608b013591508082111561012e57600080fd5b5061013b8b828c01610059565b909450925061014e905060808a0161003d565b9050929598509295989093965056fea264697066735822122068d2a9bb059b5bc9b35e52422feb011637359e8483c23cb6ae1e3b32911f221364736f6c63430008130033","linkReferences":{}},"methodIdentifiers":{"payNativeGasForContractCall(address,string,string,bytes,address)":"0c93e3bb"},"id":168}