{"abi":[{"type":"constructor","inputs":[{"name":"admin","type":"address","internalType":"address"}],"stateMutability":"nonpayable"},{"type":"function","name":"BRIDGE_MANAGER_ROLE","inputs":[],"outputs":[{"name":"","type":"bytes32","internalType":"bytes32"}],"stateMutability":"view"},{"type":"function","name":"DEFAULT_ADMIN_ROLE","inputs":[],"outputs":[{"name":"","type":"bytes32","internalType":"bytes32"}],"stateMutability":"view"},{"type":"function","name":"GAS_SERVICE_MANAGER_ROLE","inputs":[],"outputs":[{"name":"","type":"bytes32","internalType":"bytes32"}],"stateMutability":"view"},{"type":"function","name":"TARGET_MANAGER_ROLE","inputs":[],"outputs":[{"name":"","type":"bytes32","internalType":"bytes32"}],"stateMutability":"view"},{"type":"function","name":"getRoleAdmin","inputs":[{"name":"role","type":"bytes32","internalType":"bytes32"}],"outputs":[{"name":"","type":"bytes32","internalType":"bytes32"}],"stateMutability":"view"},{"type":"function","name":"grantBridgeManagerRole","inputs":[{"name":"account","type":"address","internalType":"address"}],"outputs":[],"stateMutability":"nonpayable"},{"type":"function","name":"grantGasServiceManagerRole","inputs":[{"name":"account","type":"address","internalType":"address"}],"outputs":[],"stateMutability":"nonpayable"},{"type":"function","name":"grantRole","inputs":[{"name":"role","type":"bytes32","internalType":"bytes32"},{"name":"account","type":"address","internalType":"address"}],"outputs":[],"stateMutability":"nonpayable"},{"type":"function","name":"grantTargetManagerRole","inputs":[{"name":"account","type":"address","internalType":"address"}],"outputs":[],"stateMutability":"nonpayable"},{"type":"function","name":"hasRole","inputs":[{"name":"role","type":"bytes32","internalType":"bytes32"},{"name":"account","type":"address","internalType":"address"}],"outputs":[{"name":"","type":"bool","internalType":"bool"}],"stateMutability":"view"},{"type":"function","name":"renounceRole","inputs":[{"name":"role","type":"bytes32","internalType":"bytes32"},{"name":"account","type":"address","internalType":"address"}],"outputs":[],"stateMutability":"nonpayable"},{"type":"function","name":"revokeBridgeManagerRole","inputs":[{"name":"account","type":"address","internalType":"address"}],"outputs":[],"stateMutability":"nonpayable"},{"type":"function","name":"revokeGasServiceManagerRole","inputs":[{"name":"account","type":"address","internalType":"address"}],"outputs":[],"stateMutability":"nonpayable"},{"type":"function","name":"revokeRole","inputs":[{"name":"role","type":"bytes32","internalType":"bytes32"},{"name":"account","type":"address","internalType":"address"}],"outputs":[],"stateMutability":"nonpayable"},{"type":"function","name":"revokeTargetManagerRole","inputs":[{"name":"account","type":"address","internalType":"address"}],"outputs":[],"stateMutability":"nonpayable"},{"type":"function","name":"supportsInterface","inputs":[{"name":"interfaceId","type":"bytes4","internalType":"bytes4"}],"outputs":[{"name":"","type":"bool","internalType":"bool"}],"stateMutability":"view"},{"type":"event","name":"Initialized","inputs":[{"name":"version","type":"uint8","indexed":false,"internalType":"uint8"}],"anonymous":false},{"type":"event","name":"RoleAdminChanged","inputs":[{"name":"role","type":"bytes32","indexed":true,"internalType":"bytes32"},{"name":"previousAdminRole","type":"bytes32","indexed":true,"internalType":"bytes32"},{"name":"newAdminRole","type":"bytes32","indexed":true,"internalType":"bytes32"}],"anonymous":false},{"type":"event","name":"RoleGranted","inputs":[{"name":"role","type":"bytes32","indexed":true,"internalType":"bytes32"},{"name":"account","type":"address","indexed":true,"internalType":"address"},{"name":"sender","type":"address","indexed":true,"internalType":"address"}],"anonymous":false},{"type":"event","name":"RoleRevoked","inputs":[{"name":"role","type":"bytes32","indexed":true,"internalType":"bytes32"},{"name":"account","type":"address","indexed":true,"internalType":"address"},{"name":"sender","type":"address","indexed":true,"internalType":"address"}],"anonymous":false}],"bytecode":{"object":"0x608060405234801561001057600080fd5b50604051610b6b380380610b6b83398101604081905261002f916100f0565b61003a600082610040565b50610120565b61004a828261004e565b5050565b60008281526065602090815260408083206001600160a01b038516845290915290205460ff1661004a5760008281526065602090815260408083206001600160a01b03851684529091529020805460ff191660011790556100ac3390565b6001600160a01b0316816001600160a01b0316837f2f8788117e7eff1d82e926ec794901d17c78024a50270940304540a733656f0d60405160405180910390a45050565b60006020828403121561010257600080fd5b81516001600160a01b038116811461011957600080fd5b9392505050565b610a3c8061012f6000396000f3fe608060405234801561001057600080fd5b50600436106101005760003560e01c806391d1485411610097578063c50f763a11610066578063c50f763a14610213578063d547741f1461023a578063e538c88a1461024d578063f75e85121461027457600080fd5b806391d14854146101d257806396d220ce146101e5578063a217fddf146101f8578063bd6559921461020057600080fd5b806336568abe116100d357806336568abe1461018657806343153d9d146101995780637d9da79b146101ac5780638e6444a8146101bf57600080fd5b806301ffc9a7146101055780631eed51481461012d578063248a9ca3146101425780632f2ff15d14610173575b600080fd5b610118610113366004610811565b61029b565b60405190151581526020015b60405180910390f35b61014061013b366004610857565b6102d2565b005b610165610150366004610872565b60009081526065602052604090206001015490565b604051908152602001610124565b61014061018136600461088b565b61030b565b61014061019436600461088b565b610335565b6101406101a7366004610857565b6103b4565b6101406101ba366004610857565b6103e9565b6101406101cd366004610857565b61041e565b6101186101e036600461088b565b610453565b6101406101f3366004610857565b61047e565b610165600081565b61014061020e366004610857565b6104b3565b6101657f2b5bda39c23731c6890b6a6f985ff1c326c66dc20aa14dc2e50fc5ec656ecc3581565b61014061024836600461088b565b6104e4565b6101657f28a0840e09502c63ed1e83b95421995a3ea654657390bb15ac27b2b85aef53b281565b6101657f77eacfcb6207f26b72edc4f15c48e5518843e7e98ccfd7e0d6c16f92ed1fef8d81565b60006001600160e01b03198216637965db0b60e01b14806102cc57506301ffc9a760e01b6001600160e01b03198316145b92915050565b60006102dd81610509565b6103077f77eacfcb6207f26b72edc4f15c48e5518843e7e98ccfd7e0d6c16f92ed1fef8d8361030b565b5050565b60008281526065602052604090206001015461032681610509565b6103308383610516565b505050565b6001600160a01b03811633146103aa5760405162461bcd60e51b815260206004820152602f60248201527f416363657373436f6e74726f6c3a2063616e206f6e6c792072656e6f756e636560448201526e103937b632b9903337b91039b2b63360891b60648201526084015b60405180910390fd5b610307828261059c565b60006103bf81610509565b6103077f2b5bda39c23731c6890b6a6f985ff1c326c66dc20aa14dc2e50fc5ec656ecc358361030b565b60006103f481610509565b6103077f77eacfcb6207f26b72edc4f15c48e5518843e7e98ccfd7e0d6c16f92ed1fef8d836104e4565b600061042981610509565b6103077f28a0840e09502c63ed1e83b95421995a3ea654657390bb15ac27b2b85aef53b2836104e4565b60009182526065602090815260408084206001600160a01b0393909316845291905290205460ff1690565b600061048981610509565b6103077f28a0840e09502c63ed1e83b95421995a3ea654657390bb15ac27b2b85aef53b28361030b565b60006104be81610509565b6103077f2b5bda39c23731c6890b6a6f985ff1c326c66dc20aa14dc2e50fc5ec656ecc35835b6000828152606560205260409020600101546104ff81610509565b610330838361059c565b6105138133610603565b50565b6105208282610453565b6103075760008281526065602090815260408083206001600160a01b03851684529091529020805460ff191660011790556105583390565b6001600160a01b0316816001600160a01b0316837f2f8788117e7eff1d82e926ec794901d17c78024a50270940304540a733656f0d60405160405180910390a45050565b6105a68282610453565b156103075760008281526065602090815260408083206001600160a01b0385168085529252808320805460ff1916905551339285917ff6391f5c32d9c69d2a47ea670b442974b53935d1edc7fd64eb21e047a839171b9190a45050565b61060d8282610453565b6103075761061a8161065c565b61062583602061066e565b6040516020016106369291906108db565b60408051601f198184030181529082905262461bcd60e51b82526103a191600401610950565b60606102cc6001600160a01b03831660145b6060600061067d836002610999565b6106889060026109b0565b67ffffffffffffffff8111156106a0576106a06109c3565b6040519080825280601f01601f1916602001820160405280156106ca576020820181803683370190505b509050600360fc1b816000815181106106e5576106e56109d9565b60200101906001600160f81b031916908160001a905350600f60fb1b81600181518110610714576107146109d9565b60200101906001600160f81b031916908160001a9053506000610738846002610999565b6107439060016109b0565b90505b60018111156107bb576f181899199a1a9b1b9c1cb0b131b232b360811b85600f1660108110610777576107776109d9565b1a60f81b82828151811061078d5761078d6109d9565b60200101906001600160f81b031916908160001a90535060049490941c936107b4816109ef565b9050610746565b50831561080a5760405162461bcd60e51b815260206004820181905260248201527f537472696e67733a20686578206c656e67746820696e73756666696369656e7460448201526064016103a1565b9392505050565b60006020828403121561082357600080fd5b81356001600160e01b03198116811461080a57600080fd5b80356001600160a01b038116811461085257600080fd5b919050565b60006020828403121561086957600080fd5b61080a8261083b565b60006020828403121561088457600080fd5b5035919050565b6000806040838503121561089e57600080fd5b823591506108ae6020840161083b565b90509250929050565b60005b838110156108d25781810151838201526020016108ba565b50506000910152565b7f416363657373436f6e74726f6c3a206163636f756e74200000000000000000008152600083516109138160178501602088016108b7565b7001034b99036b4b9b9b4b733903937b6329607d1b60179184019182015283516109448160288401602088016108b7565b01602801949350505050565b602081526000825180602084015261096f8160408501602087016108b7565b601f01601f19169190910160400192915050565b634e487b7160e01b600052601160045260246000fd5b80820281158282048414176102cc576102cc610983565b808201808211156102cc576102cc610983565b634e487b7160e01b600052604160045260246000fd5b634e487b7160e01b600052603260045260246000fd5b6000816109fe576109fe610983565b50600019019056fea2646970667358221220716c738b8d9616bb122104894584b78eefc024df5210e6604726a14d3d53ccb764736f6c63430008130033","linkReferences":{}},"methodIdentifiers":{"BRIDGE_MANAGER_ROLE()":"f75e8512","DEFAULT_ADMIN_ROLE()":"a217fddf","GAS_SERVICE_MANAGER_ROLE()":"c50f763a","TARGET_MANAGER_ROLE()":"e538c88a","getRoleAdmin(bytes32)":"248a9ca3","grantBridgeManagerRole(address)":"1eed5148","grantGasServiceManagerRole(address)":"43153d9d","grantRole(bytes32,address)":"2f2ff15d","grantTargetManagerRole(address)":"96d220ce","hasRole(bytes32,address)":"91d14854","renounceRole(bytes32,address)":"36568abe","revokeBridgeManagerRole(address)":"7d9da79b","revokeGasServiceManagerRole(address)":"bd655992","revokeRole(bytes32,address)":"d547741f","revokeTargetManagerRole(address)":"8e6444a8","supportsInterface(bytes4)":"01ffc9a7"},"id":190}