{"abi":[{"type":"function","name":"ADDRESS_CHEATS","inputs":[],"outputs":[{"name":"","type":"address","internalType":"address"}],"stateMutability":"view"},{"type":"function","name":"PANIC_ALLOC_TOO_MUCH_MEMORY","inputs":[],"outputs":[{"name":"","type":"uint256","internalType":"uint256"}],"stateMutability":"view"},{"type":"function","name":"PANIC_ARITHMETIC","inputs":[],"outputs":[{"name":"","type":"uint256","internalType":"uint256"}],"stateMutability":"view"},{"type":"function","name":"PANIC_ARRAY_OUT_OF_BOUNDS","inputs":[],"outputs":[{"name":"","type":"uint256","internalType":"uint256"}],"stateMutability":"view"},{"type":"function","name":"PANIC_ASSERT","inputs":[],"outputs":[{"name":"","type":"uint256","internalType":"uint256"}],"stateMutability":"view"},{"type":"function","name":"PANIC_DIVISION_BY_ZERO","inputs":[],"outputs":[{"name":"","type":"uint256","internalType":"uint256"}],"stateMutability":"view"},{"type":"function","name":"PANIC_ENUM_OUT_OF_BOUNDS","inputs":[],"outputs":[{"name":"","type":"uint256","internalType":"uint256"}],"stateMutability":"view"},{"type":"function","name":"PANIC_GENERAL","inputs":[],"outputs":[{"name":"","type":"uint256","internalType":"uint256"}],"stateMutability":"view"},{"type":"function","name":"PANIC_POP_EMPTY_ARRAY","inputs":[],"outputs":[{"name":"","type":"uint256","internalType":"uint256"}],"stateMutability":"view"},{"type":"function","name":"PANIC_STORAGE_BYTES_ARRAY_ENCODING","inputs":[],"outputs":[{"name":"","type":"uint256","internalType":"uint256"}],"stateMutability":"view"},{"type":"function","name":"PANIC_ZERO_INIT_INTERNAL_FUNCTION","inputs":[],"outputs":[{"name":"","type":"uint256","internalType":"uint256"}],"stateMutability":"view"}],"bytecode":{"object":"0x61018461003a600b82828239805160001a60731461002d57634e487b7160e01b600052600060045260246000fd5b30600052607381538281f3fe73000000000000000000000000000000000000000030146080604052600436106100b35760003560e01c80636230fde51161007b5780636230fde5146100f35780636aa559551461012657806377d0b5341461012e57806385e2c31914610136578063a797916a1461013e578063e29328e41461014657600080fd5b80632cfa2cad146100b857806334c8a3d3146100d35780635491d30f146100db57806357773b7a146100e35780635b8c051a146100eb575b600080fd5b6100c0605181565b6040519081526020015b60405180910390f35b6100c0601281565b6100c0602281565b6100c0604181565b6100c0603281565b61010e737109709ecfa91a80626ff3989d68f67f5b1dd12d81565b6040516001600160a01b0390911681526020016100ca565b6100c0602181565b6100c0603181565b6100c0600181565b6100c0600081565b6100c060118156fea264697066735822122060f4e9e9393ecc28f4dcaaeb575c80f676860bbbdd048563d5fc175affcc27d664736f6c63430008130033","linkReferences":{}},"methodIdentifiers":{"ADDRESS_CHEATS()":"6230fde5","PANIC_ALLOC_TOO_MUCH_MEMORY()":"57773b7a","PANIC_ARITHMETIC()":"e29328e4","PANIC_ARRAY_OUT_OF_BOUNDS()":"5b8c051a","PANIC_ASSERT()":"85e2c319","PANIC_DIVISION_BY_ZERO()":"34c8a3d3","PANIC_ENUM_OUT_OF_BOUNDS()":"6aa55955","PANIC_GENERAL()":"a797916a","PANIC_POP_EMPTY_ARRAY()":"77d0b534","PANIC_STORAGE_BYTES_ARRAY_ENCODING()":"5491d30f","PANIC_ZERO_INIT_INTERNAL_FUNCTION()":"2cfa2cad"},"id":75}