{"abi":[{"type":"function","name":"fuzz_activateWithdrawalQueue","inputs":[],"outputs":[],"stateMutability":"nonpayable"},{"type":"function","name":"fuzz_deactivateWithdrawalQueue","inputs":[],"outputs":[],"stateMutability":"nonpayable"},{"type":"function","name":"fuzz_deposit","inputs":[{"name":"rootTokenSelector","type":"uint8","internalType":"uint8"},{"name":"amount","type":"uint256","internalType":"uint256"},{"name":"value","type":"uint256","internalType":"uint256"}],"outputs":[],"stateMutability":"nonpayable"},{"type":"function","name":"fuzz_depositETH","inputs":[{"name":"amount","type":"uint256","internalType":"uint256"},{"name":"value","type":"uint256","internalType":"uint256"}],"outputs":[],"stateMutability":"nonpayable"},{"type":"function","name":"fuzz_depositTo","inputs":[{"name":"rootTokenSelector","type":"uint8","internalType":"uint8"},{"name":"receiverSelector","type":"uint8","internalType":"uint8"},{"name":"amount","type":"uint256","internalType":"uint256"},{"name":"value","type":"uint256","internalType":"uint256"}],"outputs":[],"stateMutability":"nonpayable"},{"type":"function","name":"fuzz_depositToETH","inputs":[{"name":"receiver","type":"uint8","internalType":"uint8"},{"name":"amount","type":"uint256","internalType":"uint256"},{"name":"value","type":"uint256","internalType":"uint256"}],"outputs":[],"stateMutability":"nonpayable"},{"type":"function","name":"fuzz_finaliseQueuedWithdrawal","inputs":[{"name":"receiverSelector","type":"uint8","internalType":"uint8"},{"name":"index","type":"uint256","internalType":"uint256"}],"outputs":[],"stateMutability":"nonpayable"},{"type":"function","name":"fuzz_finaliseQueuedWithdrawalsAggregated","inputs":[{"name":"receiverSelector","type":"uint8","internalType":"uint8"},{"name":"tokenSelector","type":"uint8","internalType":"uint8"},{"name":"length","type":"uint256","internalType":"uint256"},{"name":"entropy","type":"uint256","internalType":"uint256"}],"outputs":[],"stateMutability":"nonpayable"},{"type":"function","name":"fuzz_onMessageReceiveRoot","inputs":[{"name":"isWithdraw","type":"bool","internalType":"bool"},{"name":"rootTokenSelector","type":"uint8","internalType":"uint8"},{"name":"withdrawerSelector","type":"uint8","internalType":"uint8"},{"name":"receiverSelector","type":"uint8","internalType":"uint8"},{"name":"amount","type":"uint256","internalType":"uint256"}],"outputs":[],"stateMutability":"nonpayable"},{"type":"function","name":"fuzz_pauseRoot","inputs":[],"outputs":[],"stateMutability":"nonpayable"},{"type":"function","name":"fuzz_setRateControlThreshold","inputs":[{"name":"tokenSelector","type":"uint8","internalType":"uint8"},{"name":"capacity","type":"uint256","internalType":"uint256"},{"name":"refillRate","type":"uint256","internalType":"uint256"},{"name":"largeTransferThreshold","type":"uint256","internalType":"uint256"}],"outputs":[],"stateMutability":"nonpayable"},{"type":"function","name":"fuzz_setWithdrawalDelay","inputs":[{"name":"delay","type":"uint256","internalType":"uint256"}],"outputs":[],"stateMutability":"nonpayable"},{"type":"function","name":"fuzz_unpauseRoot","inputs":[],"outputs":[],"stateMutability":"nonpayable"},{"type":"function","name":"fuzz_updateImxCumulativeDepositLimit","inputs":[{"name":"newImxCumulativeDepositLimit","type":"uint256","internalType":"uint256"}],"outputs":[],"stateMutability":"nonpayable"},{"type":"function","name":"handler_activateWithdrawalQueue","inputs":[],"outputs":[],"stateMutability":"nonpayable"},{"type":"function","name":"handler_deactivateWithdrawalQueue","inputs":[],"outputs":[],"stateMutability":"nonpayable"},{"type":"function","name":"handler_deposit","inputs":[{"name":"rootTokenSelector","type":"uint8","internalType":"uint8"},{"name":"amount","type":"uint256","internalType":"uint256"},{"name":"value","type":"uint256","internalType":"uint256"}],"outputs":[],"stateMutability":"nonpayable"},{"type":"function","name":"handler_depositETH","inputs":[{"name":"amount","type":"uint256","internalType":"uint256"},{"name":"value","type":"uint256","internalType":"uint256"}],"outputs":[],"stateMutability":"nonpayable"},{"type":"function","name":"handler_depositTo","inputs":[{"name":"rootTokenSelector","type":"uint8","internalType":"uint8"},{"name":"receiverSelector","type":"uint8","internalType":"uint8"},{"name":"amount","type":"uint256","internalType":"uint256"},{"name":"value","type":"uint256","internalType":"uint256"}],"outputs":[],"stateMutability":"nonpayable"},{"type":"function","name":"handler_depositToETH","inputs":[{"name":"receiverSelector","type":"uint8","internalType":"uint8"},{"name":"amount","type":"uint256","internalType":"uint256"},{"name":"value","type":"uint256","internalType":"uint256"}],"outputs":[],"stateMutability":"nonpayable"},{"type":"function","name":"handler_finaliseQueuedWithdrawal","inputs":[{"name":"receiverSelector","type":"uint8","internalType":"uint8"},{"name":"index","type":"uint256","internalType":"uint256"}],"outputs":[],"stateMutability":"nonpayable"},{"type":"function","name":"handler_finaliseQueuedWithdrawalsAggregated","inputs":[{"name":"receiverSelector","type":"uint8","internalType":"uint8"},{"name":"tokenSelector","type":"uint8","internalType":"uint8"},{"name":"length","type":"uint256","internalType":"uint256"},{"name":"entropy","type":"uint256","internalType":"uint256"}],"outputs":[],"stateMutability":"nonpayable"},{"type":"function","name":"handler_onMessageReceiveRoot","inputs":[{"name":"isWithdraw","type":"bool","internalType":"bool"},{"name":"rootTokenSelector","type":"uint8","internalType":"uint8"},{"name":"withdrawerSelector","type":"uint8","internalType":"uint8"},{"name":"receiverSelector","type":"uint8","internalType":"uint8"},{"name":"amount","type":"uint256","internalType":"uint256"}],"outputs":[],"stateMutability":"nonpayable"},{"type":"function","name":"handler_pauseRoot","inputs":[],"outputs":[],"stateMutability":"nonpayable"},{"type":"function","name":"handler_setRateControlThreshold","inputs":[{"name":"tokenSelector","type":"uint8","internalType":"uint8"},{"name":"capacity","type":"uint256","internalType":"uint256"},{"name":"refillRate","type":"uint256","internalType":"uint256"},{"name":"largeTransferThreshold","type":"uint256","internalType":"uint256"}],"outputs":[],"stateMutability":"nonpayable"},{"type":"function","name":"handler_setWithdrawalDelay","inputs":[{"name":"delay","type":"uint256","internalType":"uint256"}],"outputs":[],"stateMutability":"nonpayable"},{"type":"function","name":"handler_unpauseRoot","inputs":[],"outputs":[],"stateMutability":"nonpayable"},{"type":"function","name":"handler_updateImxCumulativeDepositLimit","inputs":[{"name":"newImxCumulativeDepositLimit","type":"uint256","internalType":"uint256"}],"outputs":[],"stateMutability":"nonpayable"},{"type":"event","name":"ActivateWithdrawalQueueCall","inputs":[],"anonymous":false},{"type":"event","name":"DeactivateWithdrawalQueueCall","inputs":[],"anonymous":false},{"type":"event","name":"DepositCall","inputs":[{"name":"rootToken","type":"address","indexed":false,"internalType":"address"},{"name":"amount","type":"uint256","indexed":false,"internalType":"uint256"}],"anonymous":false},{"type":"event","name":"DepositETHCall","inputs":[{"name":"amount","type":"uint256","indexed":false,"internalType":"uint256"}],"anonymous":false},{"type":"event","name":"DepositToCall","inputs":[{"name":"rootToken","type":"address","indexed":false,"internalType":"address"},{"name":"receiver","type":"address","indexed":false,"internalType":"address"},{"name":"amount","type":"uint256","indexed":false,"internalType":"uint256"}],"anonymous":false},{"type":"event","name":"DepositToETHCall","inputs":[{"name":"receiver","type":"address","indexed":false,"internalType":"address"},{"name":"amount","type":"uint256","indexed":false,"internalType":"uint256"}],"anonymous":false},{"type":"event","name":"FinaliseQueuedWithdrawalCall","inputs":[{"name":"receiver","type":"address","indexed":false,"internalType":"address"},{"name":"index","type":"uint256","indexed":false,"internalType":"uint256"}],"anonymous":false},{"type":"event","name":"FinaliseQueuedWithdrawalsAggregatedCall","inputs":[{"name":"receiver","type":"address","indexed":false,"internalType":"address"},{"name":"token","type":"address","indexed":false,"internalType":"address"},{"name":"indices","type":"uint256[]","indexed":false,"internalType":"uint256[]"}],"anonymous":false},{"type":"event","name":"OnMessageReceiveChildCall","inputs":[{"name":"data","type":"bytes","indexed":false,"internalType":"bytes"}],"anonymous":false},{"type":"event","name":"OnMessageReceiveRootCall","inputs":[{"name":"data","type":"bytes","indexed":false,"internalType":"bytes"}],"anonymous":false},{"type":"event","name":"PauseChildCall","inputs":[],"anonymous":false},{"type":"event","name":"PauseRootCall","inputs":[],"anonymous":false},{"type":"event","name":"SetRateControlThresholdCall","inputs":[{"name":"token","type":"address","indexed":false,"internalType":"address"},{"name":"capacity","type":"uint256","indexed":false,"internalType":"uint256"},{"name":"refillRate","type":"uint256","indexed":false,"internalType":"uint256"},{"name":"largeTransferThreshold","type":"uint256","indexed":false,"internalType":"uint256"}],"anonymous":false},{"type":"event","name":"SetWithdrawalDelayCall","inputs":[{"name":"delay","type":"uint256","indexed":false,"internalType":"uint256"}],"anonymous":false},{"type":"event","name":"UnpauseChildCall","inputs":[],"anonymous":false},{"type":"event","name":"UnpauseRootCall","inputs":[],"anonymous":false},{"type":"event","name":"UpdateImxCumulativeDepositLimitCall","inputs":[{"name":"newImxCumulativeDepositLimit","type":"uint256","indexed":false,"internalType":"uint256"}],"anonymous":false},{"type":"event","name":"UpdateRootBridgeAdaptorCall","inputs":[{"name":"newRootBridgeAdaptor","type":"address","indexed":false,"internalType":"address"}],"anonymous":false},{"type":"event","name":"WithdrawCall","inputs":[{"name":"childToken","type":"address","indexed":false,"internalType":"address"},{"name":"amount","type":"uint256","indexed":false,"internalType":"uint256"}],"anonymous":false},{"type":"event","name":"WithdrawETHCall","inputs":[{"name":"amount","type":"uint256","indexed":false,"internalType":"uint256"}],"anonymous":false},{"type":"event","name":"WithdrawETHToCall","inputs":[{"name":"receiver","type":"address","indexed":false,"internalType":"address"},{"name":"amount","type":"uint256","indexed":false,"internalType":"uint256"}],"anonymous":false},{"type":"event","name":"WithdrawIMXCall","inputs":[{"name":"amount","type":"uint256","indexed":false,"internalType":"uint256"}],"anonymous":false},{"type":"event","name":"WithdrawIMXToCall","inputs":[{"name":"receiver","type":"address","indexed":false,"internalType":"address"},{"name":"amount","type":"uint256","indexed":false,"internalType":"uint256"}],"anonymous":false},{"type":"event","name":"WithdrawToCall","inputs":[{"name":"childToken","type":"address","indexed":false,"internalType":"address"},{"name":"receiver","type":"address","indexed":false,"internalType":"address"},{"name":"amount","type":"uint256","indexed":false,"internalType":"uint256"}],"anonymous":false},{"type":"event","name":"WithdrawWIMXCall","inputs":[{"name":"amount","type":"uint256","indexed":false,"internalType":"uint256"}],"anonymous":false},{"type":"event","name":"WithdrawWIMXToCall","inputs":[{"name":"receiver","type":"address","indexed":false,"internalType":"address"},{"name":"amount","type":"uint256","indexed":false,"internalType":"uint256"}],"anonymous":false},{"type":"error","name":"ClampFail","inputs":[{"name":"","type":"string","internalType":"string"}]},{"type":"error","name":"MultiCallFail","inputs":[{"name":"","type":"string","internalType":"string"}]}],"bytecode":{"object":"0x6080604052604051620000129062000142565b604051809103906000f0801580156200002f573d6000803e3d6000fd5b50600080546001600160a01b0319166001600160a01b03929092169190911790556040805160608101825262010001815262020001602082015262030001918101919091526200008490600190600362000150565b506002805460ff191660011790553480156200009f57600080fd5b506000546040516001600160a01b0390911690636945c5ea90620000c390620001ba565b604051809103906000f080158015620000e0573d6000803e3d6000fd5b506040516001600160e01b031960e084901b1681526001600160a01b039091166004820152602401600060405180830381600087803b1580156200012357600080fd5b505af115801562000138573d6000803e3d6000fd5b50505050620001de565b6132f8806200976383390190565b828054828255906000526020600020908101928215620001a8579160200282015b82811115620001a857825182546001600160a01b0319166001600160a01b0390911617825560209092019160019091019062000171565b50620001b6929150620001c7565b5090565b60a7806200ca5b83390190565b5b80821115620001b65760008155600101620001c8565b61957580620001ee6000396000f3fe608060405234801561001057600080fd5b50600436106101c45760003560e01c80639cc395f9116100f9578063c8e0c92411610097578063e80552f111610071578063e80552f114610346578063f2dee55f14610359578063f42e1ccf1461036c578063fc6b5fd61461037f57600080fd5b8063c8e0c92414610318578063e0c3eefd1461032b578063e76cb13f1461033357600080fd5b8063abd75ae4116100d3578063abd75ae4146102cc578063af3cfaa2146102df578063bd3cad56146102f2578063c5247e271461030557600080fd5b80639cc395f9146102a95780639f695339146102b1578063a60ac68b146102c457600080fd5b8063411fb0bd11610166578063678c58ff11610140578063678c58ff14610268578063874651141461027b5780638d7d6afe1461028e5780638dab8a7f1461029657600080fd5b8063411fb0bd1461023a578063530afc861461024d578063573e2fb11461025557600080fd5b80631cd507fc116101a25780631cd507fc146102045780631f4a1a6a1461021757806324c88a0c1461021f5780632c8b759b1461023257600080fd5b80630cb2373c146101c957806312864dd8146101de5780631b2c083b146101f1575b600080fd5b6101dc6101d7366004617733565b610387565b005b6101dc6101ec366004617779565b610487565b6101dc6101ff3660046177b4565b610525565b6101dc6102123660046177d6565b61063c565b6101dc61075d565b6101dc61022d36600461780b565b6107e0565b6101dc6108be565b6101dc610248366004617837565b61093c565b6101dc6109c4565b6101dc610263366004617733565b610ab8565b6101dc610276366004617779565b610be2565b6101dc610289366004617837565b610cce565b6101dc610ddd565b6101dc6102a436600461785e565b610eb4565b6101dc610f9a565b6101dc6102bf3660046177d6565b611060565b6101dc611145565b6101dc6102da366004617733565b6111c3565b6101dc6102ed36600461780b565b6112b0565b6101dc610300366004617837565b611486565b6101dc6103133660046177d6565b61150e565b6101dc6103263660046177d6565b611609565b6101dc611708565b6101dc610341366004617837565b6117ce565b6101dc6103543660046177b4565b6118a3565b6101dc61036736600461785e565b611998565b6101dc61037a366004617733565b611acb565b6101dc611bd0565b60025460ff16156103c45761039d3360016178d8565b600260016101000a8154816001600160a01b0302191690836001600160a01b031602179055505b60006103d285858585611c96565b6040805160018082528183019092529192506000919060208083019080368337019050509050600260019054906101000a90046001600160a01b03168160008151811061042157610421617915565b60200260200101906001600160a01b031690816001600160a01b03168152505061044f818360200151611f12565b600080610469846000015185602001518660400151611f22565b9150915061047d8282858760200151612096565b5050505050505050565b60025460ff16156104c45761049d3360016178d8565b600260016101000a8154816001600160a01b0302191690836001600160a01b031602179055505b60006104d2858585856120cf565b6040805160008152602081019091528151919250906104f2908290611f12565b60008061051184600001518560200151866040015187606001516123f2565b9150915061047d8282858760000151612506565b604080516024810184905260448082018490528251808303909101815260649091019091526020810180516001600160e01b031663e80552f160e01b1790526000806105708361251f565b91509150816106355760408051600180825281830190925260009160208083019080368337019050509050634931f50760e01b816000815181106105b6576105b6617915565b6001600160e01b031990921660209283029190910190910152600054604051634471b16360e11b81526001600160a01b03909116906388e362c6906106019085908590600401617970565b600060405180830381600087803b15801561061b57600080fd5b505af115801561062f573d6000803e3d6000fd5b50505050505b5050505050565b6040805160ff851660248201526044810184905260648082018490528251808303909101815260849091019091526020810180516001600160e01b0316633238324960e21b1790526000806106908361251f565b91509150816107555760408051600180825281830190925260009160208083019080368337019050509050634931f50760e01b816000815181106106d6576106d6617915565b6001600160e01b031990921660209283029190910190910152600054604051634471b16360e11b81526001600160a01b03909116906388e362c69061072190859085906004016179ba565b600060405180830381600087803b15801561073b57600080fd5b505af115801561074f573d6000803e3d6000fd5b50505050505b505050505050565b60025460ff161561079a576107733360016178d8565b600260016101000a8154816001600160a01b0302191690836001600160a01b031602179055505b6107a2612598565b6040805160008082526020820190925290506107bf816000611f12565b6000806107ca61266a565b915091506107db828285600061272c565b505050565b6040805160ff8416602482015260448082018490528251808303909101815260649091019091526020810180516001600160e01b031663579e7d5160e11b17905260008061082d8361251f565b91509150816106355760408051600180825281830190925260009160208083019080368337019050509050634931f50760e01b8160008151811061087357610873617915565b6001600160e01b031990921660209283029190910190910152600054604051634471b16360e11b81526001600160a01b03909116906388e362c6906106019085908590600401617a04565b60025460ff16156108fb576108d43360016178d8565b600260016101000a8154816001600160a01b0302191690836001600160a01b031602179055505b610903612745565b604080516000808252602082019092529050610920816000611f12565b60008061092b612815565b915091506107db828285600061288a565b60025460ff1615610979576109523360016178d8565b600260016101000a8154816001600160a01b0302191690836001600160a01b031602179055505b6000610984826128a3565b60408051600080825260208201909252919250506109a3816000611f12565b6000806109b38460000151612943565b915091506106358282856000612a37565b6040805160048152602481019091526020810180516001600160e01b03166346beb57f60e11b1790526000806109f98361251f565b91509150816107db5760408051600180825281830190925260009160208083019080368337019050509050634931f50760e01b81600081518110610a3f57610a3f617915565b6001600160e01b031990921660209283029190910190910152600054604051634471b16360e11b81526001600160a01b03909116906388e362c690610a8a9085908590600401617a4e565b600060405180830381600087803b158015610aa457600080fd5b505af115801561047d573d6000803e3d6000fd5b6040805160ff8681166024830152851660448201526064810184905260848082018490528251808303909101815260a49091019091526020810180516001600160e01b031663f42e1ccf60e01b179052600080610b148361251f565b9150915081610bd95760408051600180825281830190925260009160208083019080368337019050509050634931f50760e01b81600081518110610b5a57610b5a617915565b6001600160e01b031990921660209283029190910190910152600054604051634471b16360e11b81526001600160a01b03909116906388e362c690610ba59085908590600401617a98565b600060405180830381600087803b158015610bbf57600080fd5b505af1158015610bd3573d6000803e3d6000fd5b50505050505b50505050505050565b6040805160ff86166024820152604481018590526064810184905260848082018490528251808303909101815260a49091019091526020810180516001600160e01b0316630250c9bb60e31b179052600080610c3d8361251f565b9150915081610bd95760408051600180825281830190925260009160208083019080368337019050509050634931f50760e01b81600081518110610c8357610c83617915565b6001600160e01b031990921660209283029190910190910152600054604051634471b16360e11b81526001600160a01b03909116906388e362c690610ba59085908590600401617ae2565b6040805160248082018490528251808303909101815260449091019091526020810180516001600160e01b0316635e9e56ab60e11b179052600080610d128361251f565b9150915081610dd75760408051600180825281830190925260009160208083019080368337019050509050634931f50760e01b81600081518110610d5857610d58617915565b6001600160e01b031990921660209283029190910190910152600054604051634471b16360e11b81526001600160a01b03909116906388e362c690610da39085908590600401617b2c565b600060405180830381600087803b158015610dbd57600080fd5b505af1158015610dd1573d6000803e3d6000fd5b50505050505b50505050565b60025460ff1615610e1a57610df33360016178d8565b600260016101000a8154816001600160a01b0302191690836001600160a01b031602179055505b610e22612a50565b60408051600180825281830190925260009160208083019080368337019050509050600260019054906101000a90046001600160a01b031681600081518110610e6d57610e6d617915565b60200260200101906001600160a01b031690816001600160a01b031681525050610e98816000611f12565b600080610ea3612b15565b915091506107db8282856000612b8a565b60025460ff1615610ef157610eca3360016178d8565b600260016101000a8154816001600160a01b0302191690836001600160a01b031602179055505b6000610f008686868686612ba3565b6040805160018082528183019092529192506000919060208083019080368337019050509050816040015181600081518110610f3e57610f3e617915565b60200260200101906001600160a01b031690816001600160a01b031681525050610f6c818360200151611f12565b600080610f7c84600001516131f1565b91509150610dd18282858760200151886060015189604001516132cf565b6040805160048152602481019091526020810180516001600160e01b0316630fa50d3560e11b179052600080610fcf8361251f565b91509150816107db5760408051600180825281830190925260009160208083019080368337019050509050634931f50760e01b8160008151811061101557611015617915565b6001600160e01b031990921660209283029190910190910152600054604051634471b16360e11b81526001600160a01b03909116906388e362c690610a8a9085908590600401617b76565b6040805160ff851660248201526044810184905260648082018490528251808303909101815260849091019091526020810180516001600160e01b031663c5247e2760e01b1790526000806110b48361251f565b91509150816107555760408051600180825281830190925260009160208083019080368337019050509050634931f50760e01b816000815181106110fa576110fa617915565b6001600160e01b031990921660209283029190910190910152600054604051634471b16360e11b81526001600160a01b03909116906388e362c6906107219085908590600401617bc0565b60025460ff16156111825761115b3360016178d8565b600260016101000a8154816001600160a01b0302191690836001600160a01b031602179055505b61118a61336b565b6040805160008082526020820190925290506111a7816000611f12565b6000806111b261342f565b915091506107db82828560006134a4565b6040805160ff8681166024830152851660448201526064810184905260848082018490528251808303909101815260a49091019091526020810180516001600160e01b031663032c8dcf60e21b17905260008061121f8361251f565b9150915081610bd95760408051600180825281830190925260009160208083019080368337019050509050634931f50760e01b8160008151811061126557611265617915565b6001600160e01b031990921660209283029190910190910152600054604051634471b16360e11b81526001600160a01b03909116906388e362c690610ba59085908590600401617c0a565b60025460ff16156112ed576112c63360016178d8565b600260016101000a8154816001600160a01b0302191690836001600160a01b031602179055505b60006112f983836134bd565b6040805160018082528183019092529192506000919060208083019080368337019050509050600260019054906101000a90046001600160a01b03168160008151811061134857611348617915565b6001600160a01b039290921660209283029190910190910152604080516001808252818301909252600091816020016020820280368337019050509050838160008151811061139957611399617915565b602090810291909101015260085483516040516314537f8f60e11b81526000926001600160a01b0316916328a6ff1e916113d891908690600401617c84565b600060405180830381865afa1580156113f5573d6000803e3d6000fd5b505050506040513d6000823e601f3d908101601f1916820160405261141d9190810190617d6d565b9050611447838260008151811061143657611436617915565b602002602001015160200151611f12565b60008061145c866000015187602001516136cf565b9150915061047d8282878660008151811061147957611479617915565b602002602001015161383b565b60025460ff16156114c35761149c3360016178d8565b600260016101000a8154816001600160a01b0302191690836001600160a01b031602179055505b60006114ce82613877565b60408051600080825260208201909252919250506114ed816000611f12565b6000806114fd846000015161394d565b9150915061063582828560006139b8565b60025460ff161561154b576115243360016178d8565b600260016101000a8154816001600160a01b0302191690836001600160a01b031602179055505b60006115588484846139d1565b6040805160018082528183019092529192506000919060208083019080368337019050509050600260019054906101000a90046001600160a01b0316816000815181106115a7576115a7617915565b60200260200101906001600160a01b031690816001600160a01b0316815250506115d381610eee611f12565b6000806115ed846000015185602001518660400151613c23565b91509150610bd9828285610eee88602001518960400151613d91565b60025460ff16156116465761161f3360016178d8565b600260016101000a8154816001600160a01b0302191690836001600160a01b031602179055505b6000611653848484613dcd565b6040805160018082528183019092529192506000919060208083019080368337019050509050600260019054906101000a90046001600160a01b0316816000815181106116a2576116a2617915565b60200260200101906001600160a01b031690816001600160a01b0316815250506116d0818360000151611f12565b6000806116ea846000015185602001518660400151614078565b91509150610bd982828587600001518860200151896040015161416e565b6040805160048152602481019091526020810180516001600160e01b0316632c8b759b60e01b17905260008061173d8361251f565b91509150816107db5760408051600180825281830190925260009160208083019080368337019050509050634931f50760e01b8160008151811061178357611783617915565b6001600160e01b031990921660209283029190910190910152600054604051634471b16360e11b81526001600160a01b03909116906388e362c690610a8a9085908590600401617e4a565b6040805160248082018490528251808303909101815260449091019091526020810180516001600160e01b031663411fb0bd60e01b1790526000806118128361251f565b9150915081610dd75760408051600180825281830190925260009160208083019080368337019050509050634931f50760e01b8160008151811061185857611858617915565b6001600160e01b031990921660209283029190910190910152600054604051634471b16360e11b81526001600160a01b03909116906388e362c690610da39085908590600401617e94565b60025460ff16156118e0576118b93360016178d8565b600260016101000a8154816001600160a01b0302191690836001600160a01b031602179055505b60006118ec83836141b6565b6040805160018082528183019092529192506000919060208083019080368337019050509050600260019054906101000a90046001600160a01b03168160008151811061193b5761193b617915565b60200260200101906001600160a01b031690816001600160a01b03168152505061196781610eee611f12565b60008061197c846000015185602001516143ac565b91509150610755828285610eee886000015189602001516144f5565b60408051861515602482015260ff868116604483015285811660648301528416608482015260a48082018490528251808303909101815260c49091019091526020810180516001600160e01b0316638dab8a7f60e01b1790526000806119fd8361251f565b915091508161047d5760408051600180825281830190925260009160208083019080368337019050509050634931f50760e01b81600081518110611a4357611a43617915565b6001600160e01b031990921660209283029190910190910152600054604051634471b16360e11b81526001600160a01b03909116906388e362c690611a8e9085908590600401617ede565b600060405180830381600087803b158015611aa857600080fd5b505af1158015611abc573d6000803e3d6000fd5b50505050505050505050505050565b60025460ff1615611b0857611ae13360016178d8565b600260016101000a8154816001600160a01b0302191690836001600160a01b031602179055505b6000611b1685858585614516565b6040805160018082528183019092529192506000919060208083019080368337019050509050600260019054906101000a90046001600160a01b031681600081518110611b6557611b65617915565b60200260200101906001600160a01b031690816001600160a01b031681525050611b93818360000151611f12565b600080611bb284600001518560200151866040015187606001516147fc565b9150915061047d828285876000015188604001518960600151614968565b6040805160048152602481019091526020810180516001600160e01b031663a60ac68b60e01b179052600080611c058361251f565b91509150816107db5760408051600180825281830190925260009160208083019080368337019050509050634931f50760e01b81600081518110611c4b57611c4b617915565b6001600160e01b031990921660209283029190910190910152600054604051634471b16360e11b81526001600160a01b03909116906388e362c690610a8a9085908590600401617f28565b60408051606080820183526000808352602083015291810191909152600860009054906101000a90046001600160a01b03166001600160a01b0316635c975abb6040518163ffffffff1660e01b8152600401602060405180830381865afa158015611d05573d6000803e3d6000fd5b505050506040513d601f19601f82011682018060405250810190611d299190617f72565b8015611d3e5750611d3b606443617f96565b15155b15611d6557604051634931f50760e01b8152600401611d5c90617fb8565b60405180910390fd5b6001805460009190611d7a9060ff8916617f96565b81548110611d8a57611d8a617915565b6000918252602082200154600480546001600160a01b03909216935090611db49060ff8916617f96565b81548110611dc457611dc4617915565b6000918252602082200154600854604051637b1929b760e01b81526001600160a01b0386811660048301529283169450911690637b1929b790602401602060405180830381865afa158015611e1d573d6000803e3d6000fd5b505050506040513d601f19601f82011682018060405250810190611e419190617fe7565b611e4c906001618000565b60008054604051639e42244760e01b8152600481018a90526024810192909252604482018390529192506001600160a01b0390911690639e422447906064016020604051808303816000875af1158015611eaa573d6000803e3d6000fd5b505050506040513d601f19601f82011682018060405250810190611ece9190617fe7565b95506040518060600160405280846001600160a01b03168152602001836001600160a01b03168152602001611f04878985614989565b905298975050505050505050565b611f1e60008383614ac6565b5050565b600060607f5ae0a9e202e4415c68aba74bae98550c851ebb34fd8116c730c19f2dd76f5969858585604051611f5993929190618013565b60405180910390a160025460405163ca669fa760e01b81526101009091046001600160a01b03166004820152737109709ecfa91a80626ff3989d68f67f5b1dd12d9063ca669fa790602401600060405180830381600087803b158015611fbe57600080fd5b505af1158015611fd2573d6000803e3d6000fd5b50506008546040516001600160a01b039091169250620f42409150635d3a22ab60e01b9061200890899089908990602401618013565b60408051601f198184030181529181526020820180516001600160e01b03166001600160e01b0319909416939093179092529051612046919061806c565b60006040518083038160008787f1925050503d8060008114612084576040519150601f19603f3d011682016040523d82523d6000602084013e612089565b606091505b5090969095509350505050565b83156120c6576120a68282614eb6565b6120ae614ec2565b6120b88382614f6c565b6120c183614f75565b610dd7565b6120c183614f88565b612103604051806080016040528060006001600160a01b031681526020016000815260200160008152602001600081525090565b60048054600091906121189060ff8916617f96565b8154811061212857612128617915565b60009182526020808320909101548254604080516318160ddd60e01b815290516001600160a01b0393841696509190921693639e422447938a93919287926318160ddd9260048083019391928290030181865afa15801561218d573d6000803e3d6000fd5b505050506040513d601f19601f820116820180604052508101906121b19190617fe7565b6040516001600160e01b031960e086901b1681526004810193909352602483019190915260448201526064016020604051808303816000875af11580156121fc573d6000803e3d6000fd5b505050506040513d601f19601f820116820180604052508101906122209190617fe7565b600080549196506001600160a01b0390911690639e422447908690612247610e108a618000565b6040516001600160e01b031960e086901b1681526004810193909352602483019190915260448201526064016020604051808303816000875af1158015612292573d6000803e3d6000fd5b505050506040513d601f19601f820116820180604052508101906122b69190617fe7565b935060008054906101000a90046001600160a01b03166001600160a01b0316639e422447846000610e10856001600160a01b03166318160ddd6040518163ffffffff1660e01b8152600401602060405180830381865afa15801561231e573d6000803e3d6000fd5b505050506040513d601f19601f820116820180604052508101906123429190617fe7565b61234c9190618000565b6040516001600160e01b031960e086901b1681526004810193909352602483019190915260448201526064016020604051808303816000875af1158015612397573d6000803e3d6000fd5b505050506040513d601f19601f820116820180604052508101906123bb9190617fe7565b92506040518060800160405280826001600160a01b0316815260200186815260200185815260200184815250915050949350505050565b604080516001600160a01b03861681526020810185905290810183905260608181018390526000917f2e5ae25489a5a374f83388e88988b4099df329a1bebdae32bfc64df3afbbb0519060800160405180910390a1600854604080516001600160a01b038981166024830152604482018990526064820188905260848083018890528351808403909101815260a490920183526020820180516001600160e01b0316638f3a4e4f60e01b17905291519190921691620f4240916124b5919061806c565b60006040518083038160008787f1925050503d80600081146124f3576040519150601f19603f3d011682016040523d82523d6000602084013e6124f8565b606091505b509097909650945050505050565b8315612516576120ae8282614eb6565b6120c183615160565b600080600080306001600160a01b03168560405161253d919061806c565b600060405180830381855af49150503d8060008114612578576040519150601f19603f3d011682016040523d82523d6000602084013e61257d565b606091505b5091509150818161258d90618088565b935093505050915091565b600860009054906101000a90046001600160a01b03166001600160a01b031663a6f72cb86040518163ffffffff1660e01b8152600401602060405180830381865afa1580156125eb573d6000803e3d6000fd5b505050506040513d601f19601f8201168201806040525081019061260f9190617f72565b1561266857604051634931f50760e01b815260206004820152602260248201527f5769746864726177616c20717565756520616c72656164792061637469766174604482015261195960f21b6064820152608401611d5c565b565b6040516000906060907fd264fb881251dbca29ad3cc4171f725885ab40fcf428852297abc089ab45667f908390a160085460408051600481526024810182526020810180516001600160e01b03166357c5ddaf60e11b17905290516001600160a01b0390921691620f4240916126df9161806c565b60006040518083038160008787f1925050503d806000811461271d576040519150601f19603f3d011682016040523d82523d6000602084013e612722565b606091505b5090939092509050565b831561273c576120ae8282614eb6565b6120c18361523e565b600860009054906101000a90046001600160a01b03166001600160a01b031663a6f72cb86040518163ffffffff1660e01b8152600401602060405180830381865afa158015612798573d6000803e3d6000fd5b505050506040513d601f19601f820116820180604052508101906127bc9190617f72565b61266857604051634931f50760e01b8152602060048201526024808201527f5769746864726177616c20717565756520616c72656164792064656163746976604482015263185d195960e21b6064820152608401611d5c565b6040516000906060907fe1654a6d6ae82b3af2f46b67edeeb9f8c37e247268742b7bbaf0fbe7b840c873908390a160085460408051600481526024810182526020810180516001600160e01b0316631657a6e560e01b17905290516001600160a01b0390921691620f4240916126df9161806c565b831561289a576120ae8282614eb6565b6120c18361529f565b60408051602081019091526000815260408051602081019182905260008054639e42244760e01b9093526024820185905260448201526212750060648201529081906001600160a01b0316639e422447608483015b6020604051808303816000875af1158015612917573d6000803e3d6000fd5b505050506040513d601f19601f8201168201806040525081019061293b9190617fe7565b905292915050565b600060607f6c88af2e860b3106752b1ed480b6ce08c8c686a2e99d5d6a97d5916b8387d7b68360405161297891815260200190565b60405180910390a1600854604051602481018590526001600160a01b0390911690620f42409063d2c13da560e01b906044015b60408051601f198184030181529181526020820180516001600160e01b03166001600160e01b03199094169390931790925290516129e9919061806c565b60006040518083038160008787f1925050503d8060008114612a27576040519150601f19603f3d011682016040523d82523d6000602084013e612a2c565b606091505b509094909350915050565b8315612a47576120ae8282614eb6565b6120c183615300565b600860009054906101000a90046001600160a01b03166001600160a01b0316635c975abb6040518163ffffffff1660e01b8152600401602060405180830381865afa158015612aa3573d6000803e3d6000fd5b505050506040513d601f19601f82011682018060405250810190612ac79190617f72565b1561266857604051634931f50760e01b815260206004820152601a60248201527f526f6f742062726964676520616c7265616479207061757365640000000000006044820152606401611d5c565b6040516000906060907fccc926b5006b0f7bf30a599db80458f01890c0c778868e0705508bf14a44bf93908390a160085460408051600481526024810182526020810180516001600160e01b0316638456cb5960e01b17905290516001600160a01b0390921691620f4240916126df9161806c565b8315612b9a576120ae8282614eb6565b6120c183615361565b60408051608081018252606080825260006020808401829052838501829052918301526008548351635c975abb60e01b8152935192936001600160a01b0390911692635c975abb926004808401939192918290030181865afa158015612c0d573d6000803e3d6000fd5b505050506040513d601f19601f82011682018060405250810190612c319190617f72565b8015612c465750612c43606443617f96565b15155b15612c6457604051634931f50760e01b8152600401611d5c90617fb8565b600480546001818101835560009283527f8a35acfbc15ff81a39ae7d344fd709f28e8600b4aa8c65c6b64bfe7fe36bd19b90910180546001600160a01b031916610eee1790558054612cb99060ff8716617f96565b81548110612cc957612cc9617915565b6000918252602082200154600480546001600160a01b03909216935090612cf39060ff8a16617f96565b81548110612d0357612d03617915565b60009182526020822001546001600160a01b03169150610eed198201612d4157600854612d3a906001600160a01b03163182618000565b9050612dbc565b6008546040516370a0823160e01b81526001600160a01b039182166004820152908316906370a0823190602401602060405180830381865afa158015612d8b573d6000803e3d6000fd5b505050506040513d601f19601f82011682018060405250810190612daf9190617fe7565b612db99082618000565b90505b6000805b600154811015612fdc57600854600180546000926001600160a01b031691637b1929b79185908110612df457612df4617915565b60009182526020909120015460405160e083901b6001600160e01b03191681526001600160a01b039091166004820152602401602060405180830381865afa158015612e44573d6000803e3d6000fd5b505050506040513d601f19601f82011682018060405250810190612e689190617fe7565b90506014811115612ebc57604051634931f50760e01b815260206004820152601c60248201527f546f6f206d616e792070656e64696e67207769746864726177616c73000000006044820152606401611d5c565b600854600180546000926001600160a01b031691632bf839119186908110612ee657612ee6617915565b600091825260208220015460405160e084901b6001600160e01b03191681526001600160a01b039182166004820152908a1660248201526044810191909152606481018590526014608482015260a401600060405180830381865afa158015612f53573d6000803e3d6000fd5b505050506040513d6000823e601f3d908101601f19168201604052612f7b91908101906180bf565b905060005b8151811015612fc657818181518110612f9b57612f9b617915565b60200260200101516020015185612fb29190618000565b945080612fbe8161817d565b915050612f80565b5050508080612fd49061817d565b915050612dc0565b50600080546001600160a01b031690639e422447908890612ffd8587618196565b6040516001600160e01b031960e086901b1681526004810193909352602483019190915260448201526064016020604051808303816000875af1158015613048573d6000803e3d6000fd5b505050506040513d601f19601f8201168201806040525081019061306c9190617fe7565b95505060008961309c577f9ab685290d33b4bfa7a76479497c2c3ac66df7ee4f480a88770a20f8a74919276130be565b7f7a8dc26796a1e50e6e190b70259f58f6a4edd5b22280ceecc82b687b8e9828695b9050600081600480805490508c60ff166130d89190617f96565b815481106130e8576130e8617915565b600091825260209091200154600180546001600160a01b03909216916131119060ff8e16617f96565b8154811061312157613121617915565b6000918252602091829020015460408051928301949094526001600160a01b039283169382019390935291811660608301528616608082015260a0810188905260c00160405160208183030381529060405290506004805480613186576131866181a9565b6001900381819060005260206000200160006101000a8154906001600160a01b03021916905590556040518060800160405280828152602001856001600160a01b03168152602001866001600160a01b03168152602001888152509550505050505095945050505050565b600060607f9c42162f11f20a7e937df5743a2ca36d7fcd049bbf372d50953b5fe4059245728360405161322491906181eb565b60405180910390a160025460405163ca669fa760e01b81526101009091046001600160a01b03166004820152737109709ecfa91a80626ff3989d68f67f5b1dd12d9063ca669fa790602401600060405180830381600087803b15801561328957600080fd5b505af115801561329d573d6000803e3d6000fd5b5050600a546040516001600160a01b039091169250620f42409150631c9231df60e21b906129ab9087906024016181eb565b8515613362576132df8484614eb6565b6132e76153c2565b6132f283828461543e565b6132fc8382615528565b613305816155e3565b61330f83836156d6565b6133198383615790565b613322836159cf565b61332d838284615a4a565b613338838284615b75565b61334183615e2e565b61334a83615f04565b6133548584614f6c565b61335d85614f75565b610755565b61335d85615fa6565b600860009054906101000a90046001600160a01b03166001600160a01b0316635c975abb6040518163ffffffff1660e01b8152600401602060405180830381865afa1580156133be573d6000803e3d6000fd5b505050506040513d601f19601f820116820180604052508101906133e29190617f72565b61266857604051634931f50760e01b815260206004820152601c60248201527f526f6f742062726964676520616c726561647920756e706175736564000000006044820152606401611d5c565b6040516000906060907f259554b3909e9bc140cf575a69d562d6c3f4ac460357f91e742b3041d84609b7908390a160085460408051600481526024810182526020810180516001600160e01b0316631fa5d41d60e11b17905290516001600160a01b0390921691620f4240916126df9161806c565b83156134b4576120ae8282614eb6565b6120c183616073565b6040805180820190915260008082526020820152600860009054906101000a90046001600160a01b03166001600160a01b0316635c975abb6040518163ffffffff1660e01b8152600401602060405180830381865afa158015613524573d6000803e3d6000fd5b505050506040513d601f19601f820116820180604052508101906135489190617f72565b801561355d575061355a606443617f96565b15155b1561357b57604051634931f50760e01b8152600401611d5c90617fb8565b60018054600091906135909060ff8716617f96565b815481106135a0576135a0617915565b60009182526020822001548154600854604051637b1929b760e01b81526001600160a01b0393841660048201819052955091831693639e42244793889391921690637b1929b790602401602060405180830381865afa158015613607573d6000803e3d6000fd5b505050506040513d601f19601f8201168201806040525081019061362b9190617fe7565b613636906001618000565b6040516001600160e01b031960e086901b1681526004810193909352602483019190915260448201526064016020604051808303816000875af1158015613681573d6000803e3d6000fd5b505050506040513d601f19601f820116820180604052508101906136a59190617fe7565b92506040518060400160405280826001600160a01b03168152602001848152509150505b92915050565b604080516001600160a01b0384168152602081018390526000916060917f4b9a9a5523fc8e2bce6ca787a9e8f29c335e45f30df8f44a2ce84ae9bd3d9ce0910160405180910390a160025460405163ca669fa760e01b81526101009091046001600160a01b03166004820152737109709ecfa91a80626ff3989d68f67f5b1dd12d9063ca669fa790602401600060405180830381600087803b15801561377457600080fd5b505af1158015613788573d6000803e3d6000fd5b5050600854604080516001600160a01b03898116602483015260448083018a905283518084039091018152606490920183526020820180516001600160e01b0316631d3d114760e11b1790529151919092169350620f424092506137ec919061806c565b60006040518083038160008787f1925050503d806000811461382a576040519150601f19603f3d011682016040523d82523d6000602084013e61382f565b606091505b50909590945092505050565b831561386e5761384f828260200151614eb6565b6138576160d4565b61386081616150565b6120b8838260200151614f6c565b6120c1836161d8565b60408051602081019091526000815260408051602080820180845260008054600c5463313ce56760e01b9093529451939485946001600160a01b0391821694639e422447948a9493169163313ce567916024808a019290818b030181865afa1580156138e7573d6000803e3d6000fd5b505050506040513d601f19601f8201168201806040525081019061390b91906181fe565b61391c9060ff16633b9aca0061821b565b6040516001600160e01b031960e086901b1681526004810193909352602483019190915260448201526064016128f8565b600060607ee32ffaa5185f123c75ac2361df2dba64631155324064b57691cf6ec6f2191a8360405161398191815260200190565b60405180910390a1600854604051602481018590526001600160a01b0390911690620f424090636b46afeb60e11b906044016129ab565b83156139c8576120ae8282614eb6565b6120c183616314565b6139fe604051806060016040528060006001600160a01b0316815260200160008152602001600081525090565b600860009054906101000a90046001600160a01b03166001600160a01b0316635c975abb6040518163ffffffff1660e01b8152600401602060405180830381865afa158015613a51573d6000803e3d6000fd5b505050506040513d601f19601f82011682018060405250810190613a759190617f72565b8015613a8a5750613a87606443617f96565b15155b15613aa857604051634931f50760e01b8152600401611d5c90617fb8565b60008054600254604051639e42244760e01b815260048101869052602481019390935261010090046001600160a01b039081163160448401521690639e422447906064016020604051808303816000875af1158015613b0b573d6000803e3d6000fd5b505050506040513d601f19601f82011682018060405250810190613b2f9190617fe7565b600080549193506001600160a01b0390911690639e422447908590613b566103e887618000565b6040516001600160e01b031960e086901b1681526004810193909352602483019190915260448201526064016020604051808303816000875af1158015613ba1573d6000803e3d6000fd5b505050506040513d601f19601f82011682018060405250810190613bc59190617fe7565b92506040518060600160405280600180805490508760ff16613be79190617f96565b81548110613bf757613bf7617915565b600091825260209182902001546001600160a01b03168252810185905260400183905290509392505050565b604080516001600160a01b0385168152602081018490526000916060917f2e88014a020ed6830f1071923d8e0628a50b622e07eb98565e08edbaa42080e6910160405180910390a160025460405163ca669fa760e01b81526101009091046001600160a01b03166004820152737109709ecfa91a80626ff3989d68f67f5b1dd12d9063ca669fa790602401600060405180830381600087803b158015613cc857600080fd5b505af1158015613cdc573d6000803e3d6000fd5b50506008546040516001600160a01b038981166024830152604482018990529091169250620f424091508590637020821960e11b906064015b60408051601f198184030181529181526020820180516001600160e01b03166001600160e01b0319909416939093179092529051613d53919061806c565b600060405180830381858888f193505050503d8060008114612084576040519150601f19603f3d011682016040523d82523d6000602084013e612089565b8515613dc457613da18484614eb6565b613da96163bc565b613dbb613db68383618196565b616438565b61334a826164dc565b61335d85616580565b613dfa604051806060016040528060006001600160a01b0316815260200160008152602001600081525090565b600860009054906101000a90046001600160a01b03166001600160a01b0316635c975abb6040518163ffffffff1660e01b8152600401602060405180830381865afa158015613e4d573d6000803e3d6000fd5b505050506040513d601f19601f82011682018060405250810190613e719190617f72565b8015613e865750613e83606443617f96565b15155b15613ea457604051634931f50760e01b8152600401611d5c90617fb8565b6004805460009190613eb99060ff8816617f96565b81548110613ec957613ec9617915565b600091825260208083209190910154604080516060810182526001600160a01b03928316808252855460025493516370a0823160e01b815261010090940485166004850152909650909493850193921691639e4224479189919087906370a0823190602401602060405180830381865afa158015613f4b573d6000803e3d6000fd5b505050506040513d601f19601f82011682018060405250810190613f6f9190617fe7565b6040516001600160e01b031960e086901b1681526004810193909352602483019190915260448201526064016020604051808303816000875af1158015613fba573d6000803e3d6000fd5b505050506040513d601f19601f82011682018060405250810190613fde9190617fe7565b815260008054600254604051639e42244760e01b815260048101899052602481019390935261010090046001600160a01b039081163160448401526020909301921690639e422447906064016020604051808303816000875af1158015614049573d6000803e3d6000fd5b505050506040513d601f19601f8201168201806040525081019061406d9190617fe7565b905295945050505050565b604080516001600160a01b0385168152602081018490526000916060917f38c8fe8b626b80782905358b527815bac33b5b91319504a856fe037ca85465cd910160405180910390a160025460405163ca669fa760e01b81526101009091046001600160a01b03166004820152737109709ecfa91a80626ff3989d68f67f5b1dd12d9063ca669fa790602401600060405180830381600087803b15801561411d57600080fd5b505af1158015614131573d6000803e3d6000fd5b50506008546040516001600160a01b038981166024830152604482018990529091169250620f4240915085906311f9fbc960e21b90606401613d15565b85156141ad5761417e8484614eb6565b6141866166bc565b61418f81616438565b6141998383616738565b6141a383836167f8565b61334a83836168b5565b61335d85616961565b6040805180820190915260008082526020820152600860009054906101000a90046001600160a01b03166001600160a01b0316635c975abb6040518163ffffffff1660e01b8152600401602060405180830381865afa15801561421d573d6000803e3d6000fd5b505050506040513d601f19601f820116820180604052508101906142419190617f72565b80156142565750614253606443617f96565b15155b1561427457604051634931f50760e01b8152600401611d5c90617fb8565b60008054600254604051639e42244760e01b815260048101869052602481019390935261010090046001600160a01b039081163160448401521690639e422447906064016020604051808303816000875af11580156142d7573d6000803e3d6000fd5b505050506040513d601f19601f820116820180604052508101906142fb9190617fe7565b600080549193506001600160a01b0390911690639e4224479085906143226103e887618000565b6040516001600160e01b031960e086901b1681526004810193909352602483019190915260448201526064016020604051808303816000875af115801561436d573d6000803e3d6000fd5b505050506040513d601f19601f820116820180604052508101906143919190617fe7565b60408051808201909152908152602081019290925250919050565b600060607f0f81ebe78d074e95a0d4f3c54ca4335c5db40f9a0f11c43e80ab185bb9feacef846040516143e191815260200190565b60405180910390a160025460405163ca669fa760e01b81526101009091046001600160a01b03166004820152737109709ecfa91a80626ff3989d68f67f5b1dd12d9063ca669fa790602401600060405180830381600087803b15801561444657600080fd5b505af115801561445a573d6000803e3d6000fd5b50506008546040805160248082018a905282518083039091018152604490910182526020810180516001600160e01b03166329ac7ded60e11b17905290516001600160a01b039092169350620f4240925086916144b7919061806c565b600060405180830381858888f193505050503d806000811461382a576040519150601f19603f3d011682016040523d82523d6000602084013e61382f565b851561450d576145058484614eb6565b613da9616a9d565b61335d85616b19565b604080516080810182526000808252602082018190529181018290526060810191909152600860009054906101000a90046001600160a01b03166001600160a01b0316635c975abb6040518163ffffffff1660e01b8152600401602060405180830381865afa15801561458d573d6000803e3d6000fd5b505050506040513d601f19601f820116820180604052508101906145b19190617f72565b80156145c657506145c3606443617f96565b15155b156145e457604051634931f50760e01b8152600401611d5c90617fb8565b60048054600091906145f99060ff8916617f96565b8154811061460957614609617915565b6000918252602091829020015460408051608081019091526001600160a01b03909116808252600180549194509192830191906146499060ff8a16617f96565b8154811061465957614659617915565b6000918252602080832091909101546001600160a01b03908116845282546002546040516370a0823160e01b815261010090910483166004820152949092019391811692639e422447928a928816906370a0823190602401602060405180830381865afa1580156146ce573d6000803e3d6000fd5b505050506040513d601f19601f820116820180604052508101906146f29190617fe7565b6040516001600160e01b031960e086901b1681526004810193909352602483019190915260448201526064016020604051808303816000875af115801561473d573d6000803e3d6000fd5b505050506040513d601f19601f820116820180604052508101906147619190617fe7565b815260008054600254604051639e42244760e01b815260048101899052602481019390935261010090046001600160a01b039081163160448401526020909301921690639e422447906064016020604051808303816000875af11580156147cc573d6000803e3d6000fd5b505050506040513d601f19601f820116820180604052508101906147f09190617fe7565b90529695505050505050565b604080516001600160a01b038087168252851660208201529081018390526000906060907f4136bf80fdaee64e0e2d7e17b2bda7823a28a97f1a04dd7eb5bea4065ec5813d90820160405180910390a160025460405163ca669fa760e01b81526101009091046001600160a01b03166004820152737109709ecfa91a80626ff3989d68f67f5b1dd12d9063ca669fa790602401600060405180830381600087803b1580156148a957600080fd5b505af11580156148bd573d6000803e3d6000fd5b5050600854604080516001600160a01b038b811660248301528a8116604483015260648083018b905283518084039091018152608490920183526020820180516001600160e01b0316633c84c56760e21b1790529151919092169350620f42409250869161492a9161806c565b600060405180830381858888f193505050503d80600081146124f3576040519150601f19603f3d011682016040523d82523d6000602084013e6124f8565b8515614980576149788484614eb6565b614186616c55565b61335d85616cd1565b606060008367ffffffffffffffff8111156149a6576149a66178ff565b6040519080825280602002602001820160405280156149cf578160200160208202803683370190505b50905060005b84811015614abd57604080516020810188905290810182905260009060600160408051808303601f1901815290829052805160209091012060008054639e42244760e01b8452600484018390526024840191909152604483018890529092506001600160a01b031690639e422447906064016020604051808303816000875af1158015614a66573d6000803e3d6000fd5b505050506040513d601f19601f82011682018060405250810190614a8a9190617fe7565b905080838381518110614a9f57614a9f617915565b60209081029190910101525080614ab58161817d565b9150506149d5565b50949350505050565b60005b8251811015614b0857614af684848381518110614ae857614ae8617915565b602002602001015184616e0d565b80614b008161817d565b915050614ac9565b50614b138382616eac565b600860009054906101000a90046001600160a01b03166001600160a01b03166367e4e1896040518163ffffffff1660e01b8152600401602060405180830381865afa158015614b66573d6000803e3d6000fd5b505050506040513d601f19601f82011682018060405250810190614b8a9190617fe7565b60ff8416600090815260166020526040902060020155600c54600854614bbc916001600160a01b03908116911661721b565b60ff8416600090815260166020526040902060030155600d54600854614bee916001600160a01b03908116911661721b565b60ff8416600090815260166020526040902060040155600e54600754614c20916001600160a01b03908116911661721b565b60ff84166000908152601660209081526040918290206005810193909355600a546001600160a01b03908116316006850155600b54811631600780860191909155600880548316318187015590548216316009909501949094559254825163a7ab696160e01b8152925193169263a7ab69619260048082019392918290030181865afa158015614cb4573d6000803e3d6000fd5b505050506040513d601f19601f82011682018060405250810190614cd89190617fe7565b60ff8416600090815260166020908152604091829020600a01929092556008548151635c975abb60e01b815291516001600160a01b0390911692635c975abb92600480820193918290030181865afa158015614d38573d6000803e3d6000fd5b505050506040513d601f19601f82011682018060405250810190614d5c9190617f72565b60ff8416600090815260166020908152604091829020600b01805460ff1916931515939093179092556007548151635c975abb60e01b815291516001600160a01b0390911692635c975abb92600480820193918290030181865afa158015614dc8573d6000803e3d6000fd5b505050506040513d601f19601f82011682018060405250810190614dec9190617f72565b60ff8416600090815260166020908152604091829020600b0180549315156101000261ff00199094169390931790925560085481516314dee59760e31b815291516001600160a01b039091169263a6f72cb892600480820193918290030181865afa158015614e5f573d6000803e3d6000fd5b505050506040513d601f19601f82011682018060405250810190614e839190617f72565b60ff9093166000908152601660205260409020600b018054931515620100000262ff000019909416939093179092555050565b611f1e60018383614ac6565b600160005260166020526000805160206185fd8339815191525460ff16156126685760008054906101000a90046001600160a01b03166001600160a01b031663a15f9f0760006040518060800160405280605a8152602001618708605a91396040518363ffffffff1660e01b8152600401614f3e929190618232565b600060405180830381600087803b158015614f5857600080fd5b505af1158015610dd7573d6000803e3d6000fd5b611f1e816172ee565b614f7d61749c565b614f85617568565b50565b600160005260166020526000805160206185fd8339815191525460ff1615614fad5750565b60408051600580825260c082019092526000916020820160a08036833701905050905063c0876ed360e01b81600081518110614feb57614feb617915565b6001600160e01b031990921660209283029190910190910152805163373a67e760e21b908290600190811061502257615022617915565b6001600160e01b03199092166020928302919091019091015280516337c6546160e01b908290600290811061505957615059617915565b6001600160e01b03199092166020928302919091019091015280516318301aa760e01b908290600390811061509057615090617915565b6001600160e01b0319909216602092830291909101909101528051632469ee5360e01b90829060049081106150c7576150c7617915565b6001600160e01b0319909216602092830291909101909101526000546001600160a01b03166388e362c66150fa84618088565b83604051806080016040528060478152602001618ad2604791396040518463ffffffff1660e01b81526004016151329392919061824d565b600060405180830381600087803b15801561514c57600080fd5b505af1158015610755573d6000803e3d6000fd5b6040805160028082526060820183526000926020830190803683370190505090506331278a8760e01b8160008151811061519c5761519c617915565b6001600160e01b0319909216602092830291909101909101528051636cbcfbe360e11b90829060019081106151d3576151d3617915565b6001600160e01b0319909216602092830291909101909101526000546001600160a01b03166388e362c661520684618088565b836040518060600160405280602f815260200161839d602f91396040518463ffffffff1660e01b81526004016151329392919061824d565b6040805160008082526020820190925290546001600160a01b03166388e362c661526784618088565b836040518060600160405280602f8152602001618679602f91396040518463ffffffff1660e01b81526004016151329392919061824d565b6040805160008082526020820190925290546001600160a01b03166388e362c66152c884618088565b83604051806060016040528060318152602001618957603191396040518463ffffffff1660e01b81526004016151329392919061824d565b6040805160008082526020820190925290546001600160a01b03166388e362c661532984618088565b836040518060600160405280602a8152602001619401602a91396040518463ffffffff1660e01b81526004016151329392919061824d565b6040805160008082526020820190925290546001600160a01b03166388e362c661538a84618088565b836040518060600160405280603181526020016183cc603191396040518463ffffffff1660e01b81526004016151329392919061824d565b600160005260166020526000805160206185fd8339815191525460ff16156126685760008054906101000a90046001600160a01b03166001600160a01b031663a15f9f0760006040518060800160405280605c815260200161861d605c91396040518363ffffffff1660e01b8152600401614f3e929190618232565b6001600160a01b038316600090815260008051602061915083398151915260205260409020600601548111156107db57600080546001600160a01b0384811683526000805160206187c483398151915260209081526040808520546000805160206189fd8339815191529092529093205491169163bc8d43a8916154c3906001618000565b6040518060c001604052806089815260200161942b608991396040518463ffffffff1660e01b81526004016154fa9392919061828b565b600060405180830381600087803b15801561551457600080fd5b505af1158015610bd9573d6000803e3d6000fd5b6001600160a01b038216600090815260008051602061915083398151915260205260408120600201549003611f1e57600080546001600160a01b0383811683526000805160206187c483398151915260209081526040808520546000805160206189fd8339815191529092529093205491169163bc8d43a8916155ac906001618000565b6040518060a001604052806080815260200161857d608091396040518463ffffffff1660e01b81526004016151329392919061828b565b6000805260166020527f0263c2b778d062355049effc2dece97bc6547ff8a88a3258daa512061c2153e85462010000900460ff1615614f8557600080546001600160a01b0383811683526000805160206187c483398151915260209081526040808520546000805160206189fd8339815191529092529093205491169163bc8d43a891615671906001618000565b6040518060a00160405280607b8152602001619005607b91396040518463ffffffff1660e01b81526004016156a89392919061828b565b600060405180830381600087803b1580156156c257600080fd5b505af1158015610635573d6000803e3d6000fd5b806000036156e2575050565b6001600160a01b038216600090815260008051602061915083398151915260205260408120600201549003615715575050565b600080546001600160a01b03848116835260008051602061915083398151915260209081526040938490206003810154600290910154855160e0810190965260b58087529390941694638c4fb57d9491939192909190618a1d908301396040518463ffffffff1660e01b81526004016151329392919061828b565b600080546001600160a01b038481168352600080516020618c8a833981519152602052604080842060028101546003909101549151637ae2b5c760e01b815260048101919091526024810191909152911690637ae2b5c790604401602060405180830381865afa158015615808573d6000803e3d6000fd5b505050506040513d601f19601f8201168201806040525081019061582c9190617fe7565b600080546001600160a01b038681168352600080516020618c8a8339815191526020526040909220600401549293501690637ae2b5c79061586d9042618196565b6001600160a01b0386166000908152600080516020618c8a83398151915260205260409020600501546158a0919061821b565b6001600160a01b0386166000908152600080516020618c8a83398151915260205260409020600201546158d4908590618196565b6040516001600160e01b031960e085901b16815260048101929092526024820152604401602060405180830381865afa158015615915573d6000803e3d6000fd5b505050506040513d601f19601f820116820180604052508101906159399190617fe7565b821061594457505050565b600080546001600160a01b03858116835260008051602061915083398151915260209081526040808520600390810154600080516020618c8a8339815191528452958290200154815161014081019092526101158083529390941694635c2b80f59490939092619243908301396040518463ffffffff1660e01b81526004016154fa9392919061828b565b600080546001600160a01b03838116835260008051602061915083398151915260209081526040938490206003810154600290910154855160a08101909652607d808752939094169463bb35031a9491939192909190618ce8908301396040518463ffffffff1660e01b81526004016156a89392919061828b565b6000805260166020527f0263c2b778d062355049effc2dece97bc6547ff8a88a3258daa512061c2153e85462010000900460ff1615615a8857505050565b6001600160a01b038316600090815260008051602061915083398151915260205260409020600601548110615abc57505050565b6001600160a01b03821660009081526000805160206189fd83398151915260209081526040808320546000805160206187c48339815191529092529091205403615b0557505050565b600080546001600160a01b03858116835260008051602061915083398151915260209081526040808520600301548151610120810190925260ee808352939094169463bc8d43a894939092618b19908301396040518463ffffffff1660e01b81526004016154fa9392919061828b565b6000805260166020527f0263c2b778d062355049effc2dece97bc6547ff8a88a3258daa512061c2153e85462010000900460ff1615615bb357505050565b6001600160a01b038316600090815260008051602061915083398151915260205260409020600601548110615be757505050565b600080546001600160a01b038581168352600080516020618c8a833981519152602052604080842060028101546003909101549151637ae2b5c760e01b815260048101919091526024810191909152911690637ae2b5c790604401602060405180830381865afa158015615c5f573d6000803e3d6000fd5b505050506040513d601f19601f82011682018060405250810190615c839190617fe7565b600080546001600160a01b038781168352600080516020618c8a8339815191526020526040909220600401549293501690637ae2b5c7908390615cc69042618196565b6001600160a01b0388166000908152600080516020618c8a8339815191526020526040902060050154615cf9919061821b565b615d039190618000565b6001600160a01b0387166000908152600080516020618c8a83398151915260205260409081902060020154905160e084901b6001600160e01b031916815260048101929092526024820152604401602060405180830381865afa158015615d6e573d6000803e3d6000fd5b505050506040513d601f19601f82011682018060405250810190615d929190617fe7565b821015615d9f5750505050565b600080546001600160a01b0385811683526000805160206187c483398151915260209081526040808520546000805160206189fd8339815191529092529093205491169163bc8d43a891615df4906001618000565b604051806101c001604052806101918152602001618d6561019191396040518463ffffffff1660e01b8152600401610a8a9392919061828b565b6001600160a01b0381166000908152600080516020618c8a83398151915260205260409020600301541580615e8a57506001600160a01b0381166000908152600080516020619150833981519152602052604090206003015415155b15615e925750565b600080546001909152601660209081526000805160206185fd8339815191525460408051610100810190915260d38082526001600160a01b039094169363a15f9f07936201000090930460ff16926184aa908301396040518363ffffffff1660e01b81526004016156a8929190618232565b6001600160a01b038116600090815260008051602061915083398151915260205260408120600201549003615f365750565b600080546001600160a01b038381168352600080516020619150833981519152602090815260409384902060040154845160e0810190955260a9808652929093169363bc8d43a893924292619358908301396040518463ffffffff1660e01b81526004016156a89392919061828b565b600160005260166020526000805160206185fd8339815191525460ff1615615fcb5750565b6040805160018082528183019092526000916020808301908036833701905050905063180a097760e01b8160008151811061600857616008617915565b6001600160e01b0319909216602092830291909101909101526000546001600160a01b03166388e362c661603b84618088565b8360405180608001604052806049815260200161890e604991396040518463ffffffff1660e01b81526004016151329392919061824d565b6040805160008082526020820190925290546001600160a01b03166388e362c661609c84618088565b83604051806060016040528060338152602001619080603391396040518463ffffffff1660e01b81526004016151329392919061824d565b600160005260166020526000805160206185fd8339815191525460ff16156126685760008054906101000a90046001600160a01b03166001600160a01b031663a15f9f076000604051806080016040528060508152602001618ef6605091396040518363ffffffff1660e01b8152600401614f3e929190618232565b60008054600190915260166020527f4c4dc693d7db52f85fe052106f4b4b920e78e8ef37dee82878a60ab8585faf535460608301516001600160a01b039092169163bb35031a916161a091618000565b426040518060e0016040528060bf8152602001618f4660bf91396040518463ffffffff1660e01b81526004016156a89392919061828b565b600160005260166020526000805160206185fd8339815191525460ff16156161fd5750565b604080516003808252608082019092526000916020820160608036833701905050905063c0876ed360e01b8160008151811061623b5761623b617915565b6001600160e01b031990921660209283029190910190910152805163373a67e760e21b908290600190811061627257616272617915565b6001600160e01b03199092166020928302919091019091015280516337c6546160e01b90829060029081106162a9576162a9617915565b6001600160e01b0319909216602092830291909101909101526000546001600160a01b03166388e362c66162dc84618088565b836040518060600160405280603d81526020016188a5603d91396040518463ffffffff1660e01b81526004016151329392919061824d565b604080516001808252818301909252600091602080830190803683370190505090506311897a1660e01b8160008151811061635157616351617915565b6001600160e01b0319909216602092830291909101909101526000546001600160a01b03166388e362c661638484618088565b836040518060800160405280604481526020016187e4604491396040518463ffffffff1660e01b81526004016151329392919061824d565b600160005260166020526000805160206185fd8339815191525460ff16156126685760008054906101000a90046001600160a01b03166001600160a01b031663a15f9f076000604051806080016040528060448152602001618c46604491396040518363ffffffff1660e01b8152600401614f3e929190618232565b6000805460166020527f4c4dc693d7db52f85fe052106f4b4b920e78e8ef37dee82878a60ab8585faf4f549180527f0263c2b778d062355049effc2dece97bc6547ff8a88a3258daa512061c2153e3546001600160a01b039091169163bc8d43a8916164a5908590618000565b6040518060a0016040528060628152602001618762606291396040518463ffffffff1660e01b81526004016156a89392919061828b565b6000805460166020527f4c4dc693d7db52f85fe052106f4b4b920e78e8ef37dee82878a60ab8585faf51549180527f0263c2b778d062355049effc2dece97bc6547ff8a88a3258daa512061c2153e5546001600160a01b039091169163bc8d43a891616549908590618000565b6040518060c00160405280608c81526020016194b4608c91396040518463ffffffff1660e01b81526004016156a89392919061828b565b600160005260166020526000805160206185fd8339815191525460ff16156165a55750565b60408051600380825260808201909252600091602082016060803683370190505090506374f8023460e01b816000815181106165e3576165e3617915565b6001600160e01b0319909216602092830291909101909101528051631f2a200560e01b908290600190811061661a5761661a617915565b6001600160e01b031990921660209283029190910190910152805163044044a560e21b908290600290811061665157616651617915565b6001600160e01b0319909216602092830291909101909101526000546001600160a01b03166388e362c661668484618088565b836040518060600160405280603181526020016186a8603191396040518463ffffffff1660e01b81526004016151329392919061824d565b600160005260166020526000805160206185fd8339815191525460ff16156126685760008054906101000a90046001600160a01b03166001600160a01b031663a15f9f0760006040518060600160405280603f8152602001618c07603f91396040518363ffffffff1660e01b8152600401614f3e929190618232565b600d546001600160a01b0390811690831603616752575050565b600080546001600160a01b0384811680845260008051602061915083398151915260209081526040808620600854851680885290835281872054938752600080516020618c8a83398151915283528187209087529091529093205491169163bc8d43a8916167c1908590618000565b6040518060a00160405280607d8152602001618828607d91396040518463ffffffff1660e01b81526004016151329392919061828b565b600d546001600160a01b03838116911614616811575050565b6000805460166020527f4c4dc693d7db52f85fe052106f4b4b920e78e8ef37dee82878a60ab8585faf51549180527f0263c2b778d062355049effc2dece97bc6547ff8a88a3258daa512061c2153e5546001600160a01b039091169163bc8d43a89161687e908590618000565b6040518060a00160405280606b815260200161843f606b91396040518463ffffffff1660e01b81526004016151329392919061828b565b600d546001600160a01b038381169116146168ce575050565b600080546001600160a01b03848116835260008051602061915083398151915260209081526040808520600190810154600080516020618c8a83398151915290935294209093015491169163bc8d43a89161692a908590618196565b6040518060a00160405280606481526020016191b1606491396040518463ffffffff1660e01b81526004016151329392919061828b565b600160005260166020526000805160206185fd8339815191525460ff16156169865750565b60408051600380825260808201909252600091602082016060803683370190505090506374f8023460e01b816000815181106169c4576169c4617915565b6001600160e01b0319909216602092830291909101909101528051631f2a200560e01b90829060019081106169fb576169fb617915565b6001600160e01b031990921660209283029190910190910152805163cf79cc9b60e01b9082906002908110616a3257616a32617915565b6001600160e01b0319909216602092830291909101909101526000546001600160a01b03166388e362c6616a6584618088565b836040518060600160405280602c81526020016188e2602c91396040518463ffffffff1660e01b81526004016151329392919061824d565b600160005260166020526000805160206185fd8339815191525460ff16156126685760008054906101000a90046001600160a01b03166001600160a01b031663a15f9f0760006040518060800160405280604281526020016183fd604291396040518363ffffffff1660e01b8152600401614f3e929190618232565b600160005260166020526000805160206185fd8339815191525460ff1615616b3e5750565b60408051600380825260808201909252600091602082016060803683370190505090506374f8023460e01b81600081518110616b7c57616b7c617915565b6001600160e01b0319909216602092830291909101909101528051631f2a200560e01b9082906001908110616bb357616bb3617915565b6001600160e01b031990921660209283029190910190910152805163044044a560e21b9082906002908110616bea57616bea617915565b6001600160e01b0319909216602092830291909101909101526000546001600160a01b03166388e362c6616c1d84618088565b836040518060600160405280602f81526020016186d9602f91396040518463ffffffff1660e01b81526004016151329392919061824d565b600160005260166020526000805160206185fd8339815191525460ff16156126685760008054906101000a90046001600160a01b03166001600160a01b031663a15f9f076000604051806080016040528060418152602001619170604191396040518363ffffffff1660e01b8152600401614f3e929190618232565b600160005260166020526000805160206185fd8339815191525460ff1615616cf65750565b60408051600380825260808201909252600091602082016060803683370190505090506374f8023460e01b81600081518110616d3457616d34617915565b6001600160e01b0319909216602092830291909101909101528051631f2a200560e01b9082906001908110616d6b57616d6b617915565b6001600160e01b031990921660209283029190910190910152805163cf79cc9b60e01b9082906002908110616da257616da2617915565b6001600160e01b0319909216602092830291909101909101526000546001600160a01b03166388e362c6616dd584618088565b836040518060600160405280602e8152602001619215602e91396040518463ffffffff1660e01b81526004016151329392919061824d565b600854604051637b1929b760e01b81526001600160a01b03848116600483015290911690637b1929b790602401602060405180830381865afa158015616e57573d6000803e3d6000fd5b505050506040513d601f19601f82011682018060405250810190616e7b9190617fe7565b60ff90931660009081526016602090815260408083206001600160a01b039095168352939052919091209190915550565b6001600160a01b038116616ebe575050565b6001600160a01b038116610eee14616f6157806001600160a01b03166318160ddd6040518163ffffffff1660e01b8152600401602060405180830381865afa158015616f0e573d6000803e3d6000fd5b505050506040513d601f19601f82011682018060405250810190616f329190617fe7565b60ff831660009081526016602090815260408083206001600160a01b0386168452600190810190925290912001555b60005b60015481101561701757616f9f8260018381548110616f8557616f85617915565b6000918252602090912001546001600160a01b031661721b565b60ff841660009081526016602090815260408083206001600160a01b03871684526001908101909252822081549092919085908110616fe057616fe0617915565b60009182526020808320909101546001600160a01b031683528201929092526040019020558061700f8161817d565b915050616f64565b5060085461702f9082906001600160a01b031661721b565b60ff831660009081526016602090815260408083206001600160a01b03808716855260019091018352818420600854821685529092529091209190915560075461707b9183911661721b565b60ff831660009081526016602090815260408083206001600160a01b038681168086526001909201845282852060075482168652909352818420949094556008549051631b34b1f560e11b81526004810194909452919283928392839291169063366963ea90602401608060405180830381865afa158015617101573d6000803e3d6000fd5b505050506040513d601f19601f8201168201806040525081019061712591906182aa565b60ff8a1660009081526016602090815260408083206001600160a01b038d81168086526001909201909352928190206002810188905560038101879055600480820187905560059091018590556008549151634251948d60e11b81529081019390935295995093975091955093509116906384a3291a90602401602060405180830381865afa1580156171bc573d6000803e3d6000fd5b505050506040513d601f19601f820116820180604052508101906171e09190617fe7565b60ff90961660009081526016602090815260408083206001600160a01b03909816835260019097019052949094206006019490945550505050565b6000610eed196001600160a01b0384160161724157506001600160a01b038116316136c9565b6040516370a0823160e01b81526001600160a01b0383811660048301528416906370a0823190602401602060405180830381865afa158015617287573d6000803e3d6000fd5b505050506040513d601f19601f820116820180604052508101906172ab9190617fe7565b90506136c9565b82518110156172e3576172d1848483815181106107db576107db617915565b806172db8161817d565b9150506172b2565b506107db83826175e5565b6001600160a01b038116610eee148061730e57506001600160a01b038116155b156173165750565b6000805b6001548110156173a3576001600160a01b038316600090815260008051602061915083398151915260205260408120600180549192918490811061736057617360617915565b60009182526020808320909101546001600160a01b0316835282019290925260400190205461738f9083618000565b91508061739b8161817d565b91505061731a565b506001600160a01b03808316600090815260008051602061915083398151915260209081526040808320600854909416835292905220546173e49082618000565b6001600160a01b03808416600090815260008051602061915083398151915260209081526040808320600754909416835292905220549091506174279082618000565b600080546001600160a01b038581168352600080516020619150833981519152602090815260409384902060010154845160a081019095526075808652959650919092169363bc8d43a8938693909190618988908301396040518463ffffffff1660e01b81526004016151329392919061828b565b600160005260166020527f4c4dc693d7db52f85fe052106f4b4b920e78e8ef37dee82878a60ab8585faf4b541561266857600080546001909152601660209081527f4c4dc693d7db52f85fe052106f4b4b920e78e8ef37dee82878a60ab8585faf4c547f4c4dc693d7db52f85fe052106f4b4b920e78e8ef37dee82878a60ab8585faf4b546040805160c08101909152609d8082526001600160a01b039095169463bb35031a946190b3908301396040518463ffffffff1660e01b8152600401614f3e9392919061828b565b6000805460018252601660209081527f4c4dc693d7db52f85fe052106f4b4b920e78e8ef37dee82878a60ab8585faf4d546040805160608101909152603e8082526001600160a01b039094169463bc8d43a8949293909290618caa908301396040518463ffffffff1660e01b8152600401614f3e9392919061828b565b6000546040805163319af33360e01b81526004810191909152600f60448201526e02a37b5b2b71030b2323932b9b99d1608d1b60648201526001600160a01b0383811660248301529091169063319af33390608401600060405180830381600087803b15801561765457600080fd5b505af1158015617668573d6000803e3d6000fd5b5050506001600160a01b038216905061767f575050565b6001600160a01b038116610eee14611f1e5760008054604080516306fdde0360e01b815290516001600160a01b0392831693634b5c4277938616926306fdde0392600480830193928290030181865afa1580156176e0573d6000803e3d6000fd5b505050506040513d6000823e601f3d908101601f1916820160405261770891908101906182e0565b6040518263ffffffff1660e01b8152600401615132919061836b565b60ff81168114614f8557600080fd5b6000806000806080858703121561774957600080fd5b843561775481617724565b9350602085013561776481617724565b93969395505050506040820135916060013590565b6000806000806080858703121561778f57600080fd5b843561779a81617724565b966020860135965060408601359560600135945092505050565b600080604083850312156177c757600080fd5b50508035926020909101359150565b6000806000606084860312156177eb57600080fd5b83356177f681617724565b95602085013595506040909401359392505050565b6000806040838503121561781e57600080fd5b823561782981617724565b946020939093013593505050565b60006020828403121561784957600080fd5b5035919050565b8015158114614f8557600080fd5b600080600080600060a0868803121561787657600080fd5b853561788181617850565b9450602086013561789181617724565b935060408601356178a181617724565b925060608601356178b181617724565b949793965091946080013592915050565b634e487b7160e01b600052601160045260246000fd5b6001600160a01b038181168382160190808211156178f8576178f86178c2565b5092915050565b634e487b7160e01b600052604160045260246000fd5b634e487b7160e01b600052603260045260246000fd5b600081518084526020808501945080840160005b838110156179655781516001600160e01b0319168752958201959082019060010161793f565b509495945050505050565b63ffffffff60e01b83168152606060208201526000617992606083018461792b565b828103604093840152600781526653454c462d313560c81b6020820152919091019392505050565b63ffffffff60e01b831681526060602082015260006179dc606083018461792b565b828103604093840152600781526614d153118b4c4d60ca1b6020820152919091019392505050565b63ffffffff60e01b83168152606060208201526000617a26606083018461792b565b82810360409384015260078152660a68a988c5a62760cb1b6020820152919091019392505050565b63ffffffff60e01b83168152606060208201526000617a70606083018461792b565b828103604093840152600781526653454c462d323160c81b6020820152919091019392505050565b63ffffffff60e01b83168152606060208201526000617aba606083018461792b565b828103604093840152600781526629a2a62316989b60c91b6020820152919091019392505050565b63ffffffff60e01b83168152606060208201526000617b04606083018461792b565b828103604093840152600781526629a2a62316991960c91b6020820152919091019392505050565b63ffffffff60e01b83168152606060208201526000617b4e606083018461792b565b828103604093840152600781526653454c462d323560c81b6020820152919091019392505050565b63ffffffff60e01b83168152606060208201526000617b98606083018461792b565b828103604093840152600781526629a2a62316989960c91b6020820152919091019392505050565b63ffffffff60e01b83168152606060208201526000617be2606083018461792b565b828103604093840152600781526653454c462d313760c81b6020820152919091019392505050565b63ffffffff60e01b83168152606060208201526000617c2c606083018461792b565b828103604093840152600781526653454c462d313960c81b6020820152919091019392505050565b600081518084526020808501945080840160005b8381101561796557815187529582019590820190600101617c68565b6001600160a01b0383168152604060208201819052600090617ca890830184617c54565b949350505050565b6040516080810167ffffffffffffffff81118282101715617cd357617cd36178ff565b60405290565b6040516060810167ffffffffffffffff81118282101715617cd357617cd36178ff565b604051601f8201601f1916810167ffffffffffffffff81118282101715617d2557617d256178ff565b604052919050565b600067ffffffffffffffff821115617d4757617d476178ff565b5060051b60200190565b80516001600160a01b0381168114617d6857600080fd5b919050565b60006020808385031215617d8057600080fd5b825167ffffffffffffffff811115617d9757600080fd5b8301601f81018513617da857600080fd5b8051617dbb617db682617d2d565b617cfc565b81815260079190911b82018301908381019087831115617dda57600080fd5b928401925b82841015617e3f5760808489031215617df85760008081fd5b617e00617cb0565b617e0985617d51565b8152617e16868601617d51565b818701526040858101519082015260608086015190820152825260809093019290840190617ddf565b979650505050505050565b63ffffffff60e01b83168152606060208201526000617e6c606083018461792b565b828103604093840152600781526653454c462d313360c81b6020820152919091019392505050565b63ffffffff60e01b83168152606060208201526000617eb6606083018461792b565b828103604093840152600781526653454c462d323360c81b6020820152919091019392505050565b63ffffffff60e01b83168152606060208201526000617f00606083018461792b565b8281036040938401526007815266053454c462d32360cc1b6020820152919091019392505050565b63ffffffff60e01b83168152606060208201526000617f4a606083018461792b565b828103604093840152600781526614d153118b4c8d60ca1b6020820152919091019392505050565b600060208284031215617f8457600080fd5b8151617f8f81617850565b9392505050565b600082617fb357634e487b7160e01b600052601260045260246000fd5b500690565b602080825260159082015274149bdbdd08189c9a5919d9481a5cc81c185d5cd959605a1b604082015260600190565b600060208284031215617ff957600080fd5b5051919050565b808201808211156136c9576136c96178c2565b6001600160a01b0384811682528316602082015260606040820181905260009061803f90830184617c54565b95945050505050565b60005b8381101561806357818101518382015260200161804b565b50506000910152565b6000825161807e818460208701618048565b9190910192915050565b805160208201516001600160e01b031980821692919060048310156180b75780818460040360031b1b83161693505b505050919050565b600060208083850312156180d257600080fd5b825167ffffffffffffffff8111156180e957600080fd5b8301601f810185136180fa57600080fd5b8051618108617db682617d2d565b8181526060918202830184019184820191908884111561812757600080fd5b938501935b838510156181715780858a0312156181445760008081fd5b61814c617cd9565b855181528686015187820152604080870151908201528352938401939185019161812c565b50979650505050505050565b60006001820161818f5761818f6178c2565b5060010190565b818103818111156136c9576136c96178c2565b634e487b7160e01b600052603160045260246000fd5b600081518084526181d7816020860160208601618048565b601f01601f19169290920160200192915050565b602081526000617f8f60208301846181bf565b60006020828403121561821057600080fd5b8151617f8f81617724565b80820281158282048414176136c9576136c96178c2565b8215158152604060208201526000617ca860408301846181bf565b63ffffffff60e01b8416815260606020820152600061826f606083018561792b565b828103604084015261828181856181bf565b9695505050505050565b83815282602082015260606040820152600061803f60608301846181bf565b600080600080608085870312156182c057600080fd5b505082516020840151604085015160609095015191969095509092509050565b6000602082840312156182f257600080fd5b815167ffffffffffffffff8082111561830a57600080fd5b818401915084601f83011261831e57600080fd5b815181811115618330576183306178ff565b618343601f8201601f1916602001617cfc565b915080825285602082850101111561835a57600080fd5b614abd816020840160208601618048565b60408152600760408201526602a37b5b2b71d160cd1b6060820152608060208201526000617f8f60808301846181bf56fe52545245562d31313a2073657452617465436f6e74726f6c5468726573686f6c64206e65766572207265766572747352545245562d31303a20706175736520666f722074686520726f6f7420627269646765206e65766572207265766572747350415553452d30323a206465706f73697445544820616c776179732072657665727473207768656e2074686520726f6f74206272696467652069732070617573656442414c2d30363a20546865206e61746976652062616c616e6365206f662074686520726f6f742062726964676520696e637265617365732062792065786163746c792074686520616d6f756e74206f662057455448206465706f7369746564206279207468652075736572464c52542d31313a20496620746865206465707468206f662074686520746f6b656e206275636b6574206973206e6f6e2d7a65726f206265666f72652061207375636365737366756c207769746864726177616c206f6e2074686520726f6f742062726964676520616e6420746865206465707468206f662074686520746f6b656e206275636b6574206973207a65726f20616674657220746865207769746864726177616c2c207468656e20746865207769746864726177616c207175657565206d75737420626520616374697661746564464c52542d30333a20496620746865206275636b657420636170616369747920666f72206120746f6b656e20697320302c207468656e20616e79207769746864726177616c206f66207468617420746f6b656e206d75737420626520616464656420746f2074686520757365722773207769746864726177616c2071756575654c4dc693d7db52f85fe052106f4b4b920e78e8ef37dee82878a60ab8585faf5450415553452d30373a206f6e4d6573736167655265636569766520666f722074686520726f6f742062726964676520616c776179732072657665727473207768656e2074686520726f6f74206272696467652069732070617573656452545245562d30313a2061637469766174655769746864726177616c5175657565206e65766572207265766572747352545245562d30363a206465706f736974546f455448206e65766572207265766572747320756e65787065637465646c7952545245562d30343a206465706f736974455448206e65766572207265766572747320756e65787065637465646c7950415553452d30363a2066696e616c6973655175657565645769746864726177616c4167677265676174656420616c776179732072657665727473207768656e2074686520726f6f74206272696467652069732070617573656442414c2d30333a20546865206e61746976652062616c616e6365206f662074686520726f6f742061646170746f7220696e637265617365732062792065786163746c79207468652067617320666565732070616964206279207468652075736572734c4dc693d7db52f85fe052106f4b4b920e78e8ef37dee82878a60ab8585faf4952545245562d31343a20757064617465496d7843756d756c61746976654465706f7369744c696d6974206e65766572207265766572747320756e65787065637465646c7942414c2d30353a2054686520746f6b656e2062616c616e63652c206578636c7564696e6720574554482c206f662074686520726f6f742062726964676520696e637265617365732062792065786163746c792074686520616d6f756e74206f6620746f6b656e73206465706f736974656420627920746865207573657252545245562d30373a2066696e616c6973655175657565645769746864726177616c206e65766572207265766572747320756e65787065637465646c7952545245562d30333a206465706f736974206e65766572207265766572747320756e65787065637465646c7952545245562d30393a206f6e4d6573736167655265636569766520666f722074686520726f6f7420627269646765206e65766572207265766572747320756e65787065637465646c7952545245562d30323a20646561637469766174655769746864726177616c5175657565206e65766572207265766572747353504c592d30313a205468652073756d206f662074686520746f6b656e2062616c616e636573206f662065616368207573657220616e642074686520627269646765732073686f756c642062652065786163746c7920657175616c20746f2074686520746f6b656e20746f74616c20737570706c790263c2b778d062355049effc2dece97bc6547ff8a88a3258daa512061c2153dd464c52542d30363a2041667465722061207375636365737366756c207769746864726177616c206f662061206e6f6e2d7a65726f20616d6f756e74206f6e2074686520726f6f74206272696467652c20696620746865206275636b6574206361706163697479206973206e6f74207a65726f2c207468656e2074686520746f6b656e206275636b6574206465707468206973206e6576657220657175616c20746f20746865206275636b657420636170616369747952545245562d30383a2066696e616c6973655175657565645769746864726177616c41676772656761746564206e65766572207265766572747320756e65787065637465646c79464c52542d30393a205768656e20746865207769746864726177616c5175657565206973206e6f74206163746976617465642c2061667465722061207375636365737366756c207769746864726177616c206f6620616e20616d6f756e74206c657373207468616e20746865206c617267655472616e736665725468726573686f6c64206f6e2074686520726f6f742062726964676520616e642061207769746864726177616c2077617320616464656420746f2074686520757365722773207769746864726177616c2071756575652c20746865206275636b657420646570746820697320616c77617973203050415553452d30313a206465706f73697420616c776179732072657665727473207768656e2074686520726f6f74206272696467652069732070617573656450415553452d30343a206465706f736974546f45544820616c776179732072657665727473207768656e2074686520726f6f7420627269646765206973207061757365640263c2b778d062355049effc2dece97bc6547ff8a88a3258daa512061c2153de42414c2d30313a2054686520574554482062616c616e6365206f662074686520726f6f74206272696467652073686f756c6420616c776179732062652030464c52542d30383a2041667465722061207375636365737366756c207769746864726177206f6e2074686520726f6f74206272696467652c20746865206275636b657420646570746820697320616c77617973206c657373207468616e206f7220657175616c20746f20746865206275636b6574206361706163697479464c52542d31303a205768656e20746865207769746864726177616c5175657565206973206e6f74206163746976617465642c2061667465722061207375636365737366756c207769746864726177616c206f6620616e20616d6f756e74206c657373207468616e20746865206c617267655472616e736665725468726573686f6c64206f6e2074686520726f6f74206272696467652c206966207468652077697468647261776e20616d6f756e742069732067726561746572206f7220657175616c20746f206d696e696d756d206f662074686520726566696c6c2072617465206d756c7469706c696564206279207468652074696d6520656c61707365642073696e6365206c617374207769746864726177616c20706c757320746865207072696f72207265616c206275636b657420646570746820616e6420746865206275636b65742063617061636974792c207468656e20746865207769746864726177616c206d75737420626520616464656420746f2074686520757365722773207769746864726177616c20717565756550415553452d30353a2066696e616c6973655175657565645769746864726177616c20616c776179732072657665727473207768656e2074686520726f6f742062726964676520697320706175736564464c52542d30353a2049662066696e616c6973655175657565645769746864726177616c206973207375636365737366756c6c792063616c6c65642c207468656e2074686520717565756564207769746864726177616c20696e697469617465642074696d657374616d7020706c757320746865207769746864726177616c2064656c6179206d757374206265206c657373207468616e206f7220657175616c20746f207468652063757272656e7420626c6f636b2074696d657374616d70464c52542d30343a204966207769746864726177616c517565756541637469766174656420697320747275652c207468656e20616e79207769746864726177616c206f6620616e7920746f6b656e206d75737420626520616464656420746f2074686520757365722773207769746864726177616c20717565756552545245562d31333a20756e706175736520666f722074686520726f6f7420627269646765206e657665722072657665727473464c52542d30313a20496620696d7843756d756c61746976654465706f7369744c696d6974206973206e6f7420302c2074686520726f6f74494d5820746f6b656e2062616c616e6365206f662074686520726f6f74206272696467652073686f756c6420616c77617973206265206c657373207468616e206f7220657175616c20746f20696d7843756d756c61746976654465706f7369744c696d69744c4dc693d7db52f85fe052106f4b4b920e78e8ef37dee82878a60ab8585faf4a50415553452d30333a206465706f736974546f20616c776179732072657665727473207768656e2074686520726f6f74206272696467652069732070617573656453504c592d30323a2054686520746f74616c20737570706c79206f6620726f6f742057455448206d757374206265206465637265617365642062792074686520616d6f756e74206f662057455448206465706f736974656420627920746865207573657252545245562d30353a206465706f736974546f206e65766572207265766572747320756e65787065637465646c79464c52542d30373a2041667465722061207375636365737366756c207769746864726177206f6e2074686520726f6f74206272696467652c206966207468652077697468647261776e20616d6f756e74206973206c657373207468616e20746865206d696e696d756d206f662074686520726566696c6c2072617465206d756c7469706c696564206279207468652074696d6520656c61707365642073696e6365206c617374207769746864726177616c20616e6420746865206275636b6574206361706163697479206d696e757320746865207072696f72207265616c206275636b65742064657074682c207468656e20746865206275636b6574206465707468207374726963746c7920696e63726561736573464c52542d31323a2041667465722065616368207375636365737366756c207769746864726177616c206f6e2074686520726f6f742062726964676520666f72206120746f6b656e20776974682061206e6f6e2d7a65726f2063617061636974792c20746865206275636b657420726566696c6c54696d6520697320616c77617973207570646174656420746f207468652063757272656e7420626c6f636b2074696d657374616d7052545245562d31323a207365745769746864726177616c44656c6179206e657665722072657665727473464c52542d30323a20496620746865207769746864726177616c20616d6f756e742069732067726561746572207468616e20746865206c617267655472616e736665725468726573686f6c642c20746865207769746864726177616c206d75737420626520616464656420746f2074686520757365722773207769746864726177616c20717565756542414c2d30373a205768656e206465706f736974696e67204554482c20746865206e61746976652062616c616e6365206f662074686520726f6f742062726964676520696e637265617365732062792065786163746c792074686520616d6f756e74206465706f73697465642062792074686520757365722c206d696e757320746865206761732066656573a2646970667358221220005382520792c298305830a839de111677cee5547034f43ebfabe28c061bcf6164736f6c63430008130033608060405234801561001057600080fd5b506132d8806100206000396000f3fe608060405234801561001057600080fd5b50600436106104125760003560e01c80637e1ddd8011610220578063b60e72cc11610130578063e01e92d2116100b8578063f09ced9711610087578063f09ced9714610929578063f0f4b6521461093c578063f5bc3a711461094f578063f5c466f614610962578063fb9894b21461097557600080fd5b8063e01e92d2146108ca578063e894090d146108f0578063eef2538914610903578063f01ff64c1461091657600080fd5b8063c3b55635116100ff578063c3b5563514610876578063c5df2a3714610889578063d2a506041461089c578063de9b2232146108af578063df7cd77f146108b757600080fd5b8063b60e72cc1461082a578063bb35031a1461083d578063bc8d43a814610850578063c0e8def21461086357600080fd5b8063942732b2116101b3578063a98283e411610182578063a98283e4146107cb578063ac0c207b146107de578063aeef9c21146107f1578063b09c41b714610804578063b2f9799d1461081757600080fd5b8063942732b21461077f578063953e5e80146107925780639e422447146107a5578063a15f9f07146107b857600080fd5b8063846213a1116101ef578063846213a11461073357806388e362c6146107465780638c4fb57d146107595780638f5e514a1461076c57600080fd5b80637e1ddd80146106e75780638010bad3146106fa57806381fe57861461070d578063841ea11c1461072057600080fd5b8063319af33311610326578063568c1385116102ae5780636c9764b31161027d5780636c9764b3146106885780636d5433e61461069b57806372de77b5146106ae5780637ae2b5c7146106c15780637b8d0f0c146106d457600080fd5b8063568c13851461061f5780635c2b80f5146106325780636945c5ea146106455780636ace552c1461067557600080fd5b80633ccb5e26116102f55780633ccb5e26146105a857806341304fac146105bb57806342068767146105ce5780634b5c4277146105e15780634bde38c8146105f457600080fd5b8063319af3331461056f5780633692d61a146104fd5780633b6ddf03146105825780633ca6268e1461059557600080fd5b80631b55d07c116103a9578063213cde2c11610378578063213cde2c1461051057806323cdd8e8146105235780632d40851e146105365780632e17d472146105495780632ffde6031461055c57600080fd5b80631b55d07c146104c45780631b5ac4b5146104d75780631ba0399b146104ea5780631fc4755e146104fd57600080fd5b8063084ec410116103e5578063084ec4101461047857806309fd38991461048b5780631059bfc91461049e57806314ec1cc6146104b157600080fd5b806301b9e8271461041757806304fbe1c51461042c57806306cb00111461043f57806306f8234214610465575b600080fd5b61042a610425366004612329565b610988565b005b61042a61043a366004612388565b610a6b565b61045261044d3660046123d5565b610a79565b6040519081526020015b60405180910390f35b61042a610473366004612329565b610b4d565b610452610486366004612414565b610b6c565b6104526104993660046123d5565b610c09565b61042a6104ac366004612449565b610cfe565b61042a6104bf366004612329565b610d17565b6104526104d2366004612414565b610d91565b6104526104e53660046124ac565b610df3565b61042a6104f8366004612329565b610e13565b61042a61050b3660046124c5565b610e8d565b61042a61051e3660046124c5565b610e97565b61042a610531366004612449565b610ea1565b610452610544366004612414565b610eab565b610452610557366004612414565b610ec6565b61045261056a366004612414565b610ee1565b61042a61057d366004612520565b610f0a565b61042a610590366004612329565b610f14565b61042a6105a33660046124c5565b610f8e565b61042a6105b6366004612564565b610f98565b61042a6105c93660046125ab565b610fc9565b61042a6105dc366004612449565b610fd5565b61042a6105ef366004612449565b610fed565b600054610607906001600160a01b031681565b6040516001600160a01b03909116815260200161045c565b61045261062d3660046125df565b610ff7565b61042a610640366004612329565b61101a565b61042a610653366004612601565b600080546001600160a01b0319166001600160a01b0392909216919091179055565b61042a61068336600461263f565b611094565b61042a6106963660046126ed565b611158565b6104526106a93660046125df565b611288565b61042a6106bc366004612719565b61129e565b6104526106cf3660046125df565b611319565b6104526106e23660046127ea565b611328565b6104526106f53660046125df565b611337565b61042a610708366004612816565b611345565b61045261071b3660046125df565b6113ad565b61042a61072e366004612329565b6113bc565b61042a6107413660046128c2565b6113dc565b61042a6107543660046129ac565b611431565b61042a610767366004612329565b61149e565b61045261077a3660046125df565b611518565b61042a61078d366004612449565b611536565b6104526107a0366004612414565b611540565b6104526107b33660046127ea565b611556565b61042a6107c63660046129f2565b611565565b61042a6107d93660046124c5565b6115f5565b6104526107ec3660046125df565b6115ff565b61042a6107ff3660046125ab565b61160d565b61042a610812366004612a35565b611616565b610452610825366004612414565b61169b565b61042a6108383660046124c5565b6116d4565b61042a61084b366004612329565b6116de565b61042a61085e366004612329565b6116fe565b61042a610871366004612329565b61171d565b61042a610884366004612388565b61173c565b6104526108973660046125df565b611746565b61042a6108aa366004612329565b611754565b61042a611773565b61042a6108c5366004612b1c565b61177d565b6108dd6108d8366004612b48565b611843565b604051600f9190910b815260200161045c565b6104526108fe3660046125df565b611859565b610452610911366004612414565b611867565b6104526109243660046125df565b611888565b6104526109373660046125df565b611896565b61042a61094a366004612520565b6118a4565b61045261095d3660046125df565b6118ae565b61042a610970366004612449565b6118ba565b6104526109833660046125df565b6118c4565b818310610a6657600061099a846118d2565b905060006109a7846118d2565b905060006109d18383604051806040016040528060028152602001613e3d60f01b81525087611916565b90507f46d01dfbc4861b5b859d858d541e8b0046175a8dece70e24f892a3318f70e2bb81604051610a029190612bbb565b60405180910390a160008054604080516309ccaefb60e01b815290516001600160a01b03909216926309ccaefb92600480840193829003018186803b158015610a4a57600080fd5b505afa158015610a5e573d6000803e3d6000fd5b505050505050505b505050565b610a758282611948565b5050565b600083851080610a8857508285115b15610b42576000610a998585612be4565b610aa4906001612bf7565b610aae9087612c20565b610ab89086612bf7565b90508215610b3b576000610acb876118d2565b90506000610ad8836118d2565b905060008282604051602001610aef929190612c34565b60405160208183030381529060405290507f4cb9c134519750e09450a0c38d146fed2eced02dd651ef32c9e3488faa55c6f681604051610b2f9190612bbb565b60405180910390a15050505b9050610b45565b50835b949350505050565b818312610a66576000610b5f84611985565b905060006109a784611985565b600082841315610bff57828215610bf8576000610b8886611985565b90506000610b9583611985565b905060008282604051602001610bac929190612c34565b60405160208183030381529060405290507f4cb9c134519750e09450a0c38d146fed2eced02dd651ef32c9e3488faa55c6f681604051610bec9190612bbb565b60405180910390a15050505b9050610c02565b50825b9392505050565b600083851280610c1857508285135b15610b42576000610c298585612c8e565b610c34906001612cae565b9050600081610c438789612c8e565b610c4d9190612cd6565b90506000811215610c6557610c628282612cae565b90505b6000610c718288612cae565b90508415610cf4576000610c8489611985565b90506000610c9183611985565b905060008282604051602001610ca8929190612c34565b60405160208183030381529060405290507f4cb9c134519750e09450a0c38d146fed2eced02dd651ef32c9e3488faa55c6f681604051610ce89190612bbb565b60405180910390a15050505b9250610b45915050565b6000610d0a83836119e0565b9050610a66811583611565565b818314610a66576000610d2984611985565b90506000610d3684611985565b90506000610d60838360405180604001604052806002815260200161213d60f01b81525087611916565b90507f2d2d38c9a34df9887a6dcb2a54c1f79ff8bf9c4d4cafacd7d1f7277f57baab6f81604051610a029190612bbb565b6000828411610dec57610dbf836000196040518060800160405280605a8152602001613249605a913961149e565b6000610dcc846001612bf7565b90508215610bf8576000610ddf866118d2565b90506000610b95836118d2565b5082610c02565b600080821215610e0b57610e0682612cea565b610e0d565b815b92915050565b81831315610a66576000610e2684611985565b90506000610e3384611985565b90506000610e5c8383604051806040016040528060018152602001601f60f91b81525087611916565b90507f62bdda9a05cdbcdbf905cbad99c6ebdc098b6f0933d8f2eb3cfab7400b60251481604051610a029190612bbb565b610a758282611a41565b610a758282611a72565b610a758282611aa3565b6000828413610bff57828215610bf8576000610b8886611985565b6000828411610bff57828215610bf8576000610ddf866118d2565b6000828412610bff576000610ef7600185612c8e565b90508215610bf8576000610b8886611985565b610a758282611ad4565b81831215610a66576000610f2784611985565b90506000610f3484611985565b90506000610f5d8383604051806040016040528060018152602001600f60fa1b81525087611916565b90507f94424ed24fb39638b64817c737dd443f387aaa1486614da449b6686a642d6d6c81604051610a029190612bbb565b610a758282611b05565b816001600160a01b0316836001600160a01b031614610a66576000610fbc84611b36565b90506000610d3684611b36565b610fd281611c7d565b50565b6000610fe183836119e0565b9050610a668183611565565b610a758282611cb7565b6000818312156110105761100b8383612c8e565b610c02565b610c028284612c8e565b818311610a6657600061102c846118d2565b90506000611039846118d2565b905060006110638383604051806040016040528060028152602001613c3d60f01b81525087611916565b90507f707b8c56e4c211cf1321faeb4148237062228db2fcecc9be487e83a2680e7e5081604051610a029190612bbb565b6000600183516110a49190612be4565b90505b8015610a665760008184516110bc9190612be4565b6110c69084612c20565b905060008483815181106110dc576110dc612d06565b6020026020010151905060008583815181106110fa576110fa612d06565b602002602001015190508086858151811061111757611117612d06565b6020026020010181815250508186848151811061113657611136612d06565b602002602001018181525050505050808061115090612d1c565b9150506110a7565b6001600160e01b031983811690831614610a6657604080516001600160e01b0319858116602083015282516004818403018152602483018452908516604483015282516028818403018152604890920190925260006111b683611ce8565b905060006111c383611ce8565b905060006111ed838360405180604001604052806002815260200161213d60f01b81525089611916565b90507f2d2d38c9a34df9887a6dcb2a54c1f79ff8bf9c4d4cafacd7d1f7277f57baab6f8160405161121e9190612bbb565b60405180910390a160008054604080516309ccaefb60e01b815290516001600160a01b03909216926309ccaefb92600480840193829003018186803b15801561126657600080fd5b505afa15801561127a573d6000803e3d6000fd5b505050505050505050505050565b60008183116112975781610c02565b5090919050565b60006112aa86866119e0565b806112ba57506112ba86856119e0565b806112ca57506112ca86846119e0565b806112da57506112da86836119e0565b90506000858585856040516020016112f59493929190612d33565b60405160208183030381529060405290506113108282611565565b50505050505050565b60008183106112975781610c02565b6000610b458484846001610c09565b6000610c0283836001610eab565b600061135185856119e0565b80611361575061136185846119e0565b80611371575061137185836119e0565b9050600084848460405160200161138a93929190612dae565b60405160208183030381529060405290506113a58282611565565b505050505050565b60008183136112975781610c02565b81831015610a665760006113cf846118d2565b90506000610f34846118d2565b60006113e884846119e0565b806113f857506113f884836119e0565b90506000838360405160200161140f929190612e0b565b604051602081830303815290604052905061142a8282611565565b5050505050565b6000805b835181101561148d5783818151811061145057611450612d06565b60200260200101516001600160e01b031916856001600160e01b0319160361147b576001915061148d565b8061148581612e4a565b915050611435565b506114988183611565565b50505050565b818303610a665760006114b0846118d2565b905060006114bd846118d2565b905060006114e78383604051806040016040528060028152602001613d3d60f01b81525087611916565b90507fff4de080d2384f233e1a4fb3268e8f715d8802217ad2382235900a274dde76dd81604051610a029190612bbb565b60008183101561152c5761100b8383612be4565b610c028284612be4565b610a758282611ebb565b6000828413610dec576000610ef7846001612cae565b6000610b458484846001610a79565b81610a75577feb03ca8c87c7849bef8f54cfdd2c6b967b2734fe872f751978c34bb91e13d351816040516115999190612bbb565b60405180910390a160008054604080516309ccaefb60e01b815290516001600160a01b03909216926309ccaefb92600480840193829003018186803b1580156115e157600080fd5b505afa1580156113a5573d6000803e3d6000fd5b610a758282611eec565b6000610c0283836001610b6c565b610fd281611f1d565b60008060005b84518110156116775784818151811061163757611637612d06565b60200260200101516001600160e01b031916866001600160e01b031916036116655760019250809150611677565b8061166f81612e4a565b91505061161c565b5061142a8284838151811061168e5761168e612d06565b6020026020010151611565565b6000828410610bff576116c88360006040518060800160405280605181526020016131f86051913961149e565b6000610dcc8486612c20565b610a758282611f4c565b81831115610a665760006116f1846118d2565b90506000610e33846118d2565b818314610a66576000611710846118d2565b90506000610d36846118d2565b818303610a6657600061172f84611985565b905060006114bd84611985565b610a758282611f7d565b6000610c0283836001611867565b818313610a6657600061176684611985565b9050600061103984611985565b61177b611fae565b565b81151583151514610a66576000836117b2576040518060400160405280600581526020016466616c736560d81b8152506117d0565b604051806040016040528060048152602001637472756560e01b8152505b90506000836117fc576040518060400160405280600581526020016466616c736560d81b815250610d36565b604051806040016040528060048152602001637472756560e01b81525090506000610d60838360405180604001604052806002815260200161213d60f01b81525087611916565b60008082600f0b1215610e0b57610e0682612e63565b6000610c0283836001610ec6565b600082841115610bff57600061187e846001612bf7565b610dcc9086612c20565b6000610c0283836001610ee1565b6000610c0283836001611540565b610a758282611fd9565b6000610c0283836118ae565b610a75828261200a565b6000610c0283836001610d91565b606060a06040510180604052602081039150506000815280825b600183039250600a81066030018353600a9004806118ec5750819003601f19909101908152919050565b60608483858460405160200161192f9493929190612e92565b6040516020818303038152906040529050949350505050565b7ff9a6ee38cd6e0347cb8c6a74ff6a63ee77c626ba70466aadfa86f9272fa3b8988282604051611979929190612f1c565b60405180910390a15050565b606060008083121561199f5761199a83612cea565b6119a1565b825b90506119ac816118d2565b915060008312156119da57816040516020016119c89190612f40565b60405160208183030381529060405291505b50919050565b6000816040516020016119f39190612f69565b60405160208183030381529060405280519060200120611a128461203b565b604051602001611a229190612f69565b6040516020818303038152906040528051906020012014905092915050565b7f02d93529bba9d141e5e06733c52c7e6fbcb1149586adb5c24064b522ab26f1d78282604051611979929190612f85565b7f9baa6cc96f4ef57470cb9af41561fd39032f77ca4a067930807bb7d0d3386cbf8282604051611979929190612f85565b7fe8407a0209fa99ec3a7228aff140c3d3e68bd279391739c7e0b65cd406cc93b58282604051611979929190612fa7565b7f62ddffe5b5108385f7a590f100e1ee414ad9551a31f089e64e82998440785e1e8282604051611979929190612fd5565b7f6a837ff3973aa4181e7b9f07756f8b7ee366dd85a36655d2cb42cd47f10b96388282604051611979929190612f85565b60408051602880825260608281019093526000919060208201818036833701905050905060005b6014811015611c76576000611b73826013612be4565b611b7e906008612fff565b611b899060026130fa565b611b9c906001600160a01b038716613106565b60f81b9050600060108260f81c611bb3919061311a565b60f81b905060008160f81c6010611bca919061313c565b8360f81c611bd89190613158565b60f81b9050611be68261222b565b85611bf2866002612fff565b81518110611c0257611c02612d06565b60200101906001600160f81b031916908160001a905350611c228161222b565b85611c2e866002612fff565b611c39906001612bf7565b81518110611c4957611c49612d06565b60200101906001600160f81b031916908160001a9053505050508080611c6e90612e4a565b915050611b5d565b5092915050565b7fcf34ef537ac33ee1ac626ca1587a0a7e8e51561e5514f8cb36afa1c5102b3bab81604051611cac9190612bbb565b60405180910390a150565b7f27a8767ed172b48d7cf6dbb25d2840c5fa91ef78fa6e05c13c82763d099f03ca8282604051611979929190612fa7565b6060600082516002611cfa9190612fff565b611d05906002612bf7565b6001600160401b03811115611d1c57611d1c612266565b6040519080825280601f01601f191660200182016040528015611d46576020820181803683370190505b509050600360fc1b81600081518110611d6157611d61612d06565b60200101906001600160f81b031916908160001a905350600f60fb1b81600181518110611d9057611d90612d06565b60200101906001600160f81b031916908160001a90535060005b8351811015611c76576000848281518110611dc757611dc7612d06565b016020015160f881901c91506f181899199a1a9b1b9c1cb0b131b232b360811b9060fc1c60108110611dfb57611dfb612d06565b1a60f81b83611e0b846002612fff565b611e16906002612bf7565b81518110611e2657611e26612d06565b60200101906001600160f81b031916908160001a9053506f181899199a1a9b1b9c1cb0b131b232b360811b600f821660108110611e6557611e65612d06565b1a60f81b83611e75846002612fff565b611e80906003612bf7565b81518110611e9057611e90612d06565b60200101906001600160f81b031916908160001a905350508080611eb390612e4a565b915050611daa565b7ff169276b421e6d6b4430d1934bd14cc5436305ad11e2baa67140844bb13b7e7e8282604051611979929190612fa7565b7f4ef9664a46ffe035712aa3615617c7b5aa782326d58e8949db4bee48182041938282604051611979929190612f85565b7fb42604cb105a16c8f6db8a41e6b00c0c1b4826465e8bc504b3eb3e88b3e6a4a081604051611cac9190612bbb565b7f941296a39ea107bde685522318a4b6c2b544904a5dd82a512748ca2cf839bef78282604051611979929190612f85565b7f4c34c2f9a78632f29fa59aaed5514cb742fd9fbcfd7ccc2c03c85f2bbc621c478282604051611979929190612f1c565b6040517ff92d4a94d1d5014696dcfc65a0a061af97608eebd7fea0519ff4fdbca71bae9f90600090a1565b7fe5232ba17154fdf2ae11846af09e8bd8420aa21035026ac88db6cfb8c7b490128282604051611979929190612fd5565b7fadc81638cfe9dc2f2e4e4f759b26f2006a87eb612d65bcd2828f72b14c0584448282604051611979929190612fa7565b606081516024036121ce5760408051808201909152600e81526d50616e69632875696e743235362960901b6020909101527f4e487b71539e0164c9d29506cc725e49342bcac15e0927282bf30fedfe1c726860005b6004811015612123578181600481106120ab576120ab612d06565b1a60f81b6001600160f81b0319168482815181106120cb576120cb612d06565b01602001516001600160f81b03191614612111575050604080518082019091526013815272556e646566696e6564207369676e617475726560681b602082015292915050565b8061211b81612e4a565b915050612090565b50600060045b602481101561216a57600882901b915084818151811061214b5761214b612d06565b016020015160f81c91909117908061216281612e4a565b915050612129565b508060110361219b57505060408051808201909152600981526850616e69632831372960b81b602082015292915050565b5050604080518082019091526014815273556e646566696e65642070616e696320636f646560601b602082015292915050565b60448251101561221157505060408051808201909152601d81527f5472616e73616374696f6e2072657665727465642073696c656e746c79000000602082015290565b60048201915081806020019051810190610e0d9190613171565b6000600a60f883901c10156122525761224960f883901c60306131de565b60f81b92915050565b61224960f883901c60576131de565b919050565b634e487b7160e01b600052604160045260246000fd5b604051601f8201601f191681016001600160401b03811182821017156122a4576122a4612266565b604052919050565b60006001600160401b038211156122c5576122c5612266565b50601f01601f191660200190565b600082601f8301126122e457600080fd5b81356122f76122f2826122ac565b61227c565b81815284602083860101111561230c57600080fd5b816020850160208301376000918101602001919091529392505050565b60008060006060848603121561233e57600080fd5b833592506020840135915060408401356001600160401b0381111561236257600080fd5b61236e868287016122d3565b9150509250925092565b8035801515811461226157600080fd5b6000806040838503121561239b57600080fd5b82356001600160401b038111156123b157600080fd5b6123bd858286016122d3565b9250506123cc60208401612378565b90509250929050565b600080600080608085870312156123eb57600080fd5b84359350602085013592506040850135915061240960608601612378565b905092959194509250565b60008060006060848603121561242957600080fd5b833592506020840135915061244060408501612378565b90509250925092565b6000806040838503121561245c57600080fd5b82356001600160401b038082111561247357600080fd5b61247f868387016122d3565b9350602085013591508082111561249557600080fd5b506124a2858286016122d3565b9150509250929050565b6000602082840312156124be57600080fd5b5035919050565b600080604083850312156124d857600080fd5b82356001600160401b038111156124ee57600080fd5b6124fa858286016122d3565b95602094909401359450505050565b80356001600160a01b038116811461226157600080fd5b6000806040838503121561253357600080fd5b82356001600160401b0381111561254957600080fd5b612555858286016122d3565b9250506123cc60208401612509565b60008060006060848603121561257957600080fd5b61258284612509565b925061259060208501612509565b915060408401356001600160401b0381111561236257600080fd5b6000602082840312156125bd57600080fd5b81356001600160401b038111156125d357600080fd5b610b45848285016122d3565b600080604083850312156125f257600080fd5b50508035926020909101359150565b60006020828403121561261357600080fd5b610c0282612509565b60006001600160401b0382111561263557612635612266565b5060051b60200190565b6000806040838503121561265257600080fd5b82356001600160401b0381111561266857600080fd5b8301601f8101851361267957600080fd5b803560206126896122f28361261c565b82815260059290921b830181019181810190888411156126a857600080fd5b938201935b838510156126c6578435825293820193908201906126ad565b98969091013596505050505050565b80356001600160e01b03198116811461226157600080fd5b60008060006060848603121561270257600080fd5b61270b846126d5565b9250612590602085016126d5565b600080600080600060a0868803121561273157600080fd5b85356001600160401b038082111561274857600080fd5b61275489838a016122d3565b9650602088013591508082111561276a57600080fd5b61277689838a016122d3565b9550604088013591508082111561278c57600080fd5b61279889838a016122d3565b945060608801359150808211156127ae57600080fd5b6127ba89838a016122d3565b935060808801359150808211156127d057600080fd5b506127dd888289016122d3565b9150509295509295909350565b6000806000606084860312156127ff57600080fd5b505081359360208301359350604090920135919050565b6000806000806080858703121561282c57600080fd5b84356001600160401b038082111561284357600080fd5b61284f888389016122d3565b9550602087013591508082111561286557600080fd5b612871888389016122d3565b9450604087013591508082111561288757600080fd5b612893888389016122d3565b935060608701359150808211156128a957600080fd5b506128b6878288016122d3565b91505092959194509250565b6000806000606084860312156128d757600080fd5b83356001600160401b03808211156128ee57600080fd5b6128fa878388016122d3565b9450602086013591508082111561291057600080fd5b61291c878388016122d3565b9350604086013591508082111561293257600080fd5b5061236e868287016122d3565b600082601f83011261295057600080fd5b813560206129606122f28361261c565b82815260059290921b8401810191818101908684111561297f57600080fd5b8286015b848110156129a157612994816126d5565b8352918301918301612983565b509695505050505050565b6000806000606084860312156129c157600080fd5b6129ca846126d5565b925060208401356001600160401b03808211156129e657600080fd5b61291c8783880161293f565b60008060408385031215612a0557600080fd5b612a0e83612378565b915060208301356001600160401b03811115612a2957600080fd5b6124a2858286016122d3565b600080600060608486031215612a4a57600080fd5b612a53846126d5565b92506020808501356001600160401b0380821115612a7057600080fd5b612a7c8883890161293f565b94506040870135915080821115612a9257600080fd5b818701915087601f830112612aa657600080fd5b8135612ab46122f28261261c565b81815260059190911b8301840190848101908a831115612ad357600080fd5b8585015b83811015612b0b57803585811115612aef5760008081fd5b612afd8d89838a01016122d3565b845250918601918601612ad7565b508096505050505050509250925092565b600080600060608486031215612b3157600080fd5b612b3a84612378565b925061259060208501612378565b600060208284031215612b5a57600080fd5b813580600f0b8114610c0257600080fd5b60005b83811015612b86578181015183820152602001612b6e565b50506000910152565b60008151808452612ba7816020860160208601612b6b565b601f01601f19169290920160200192915050565b602081526000610c026020830184612b8f565b634e487b7160e01b600052601160045260246000fd5b81810381811115610e0d57610e0d612bce565b80820180821115610e0d57610e0d612bce565b634e487b7160e01b600052601260045260246000fd5b600082612c2f57612c2f612c0a565b500690565b6e021b630b6b834b733903b30b63ab29608d1b815260008351612c5e81600f850160208801612b6b565b630103a37960e51b600f918401918201528351612c82816013840160208801612b6b565b01601301949350505050565b8181036000831280158383131683831282161715611c7657611c76612bce565b8082018281126000831280158216821582161715612cce57612cce612bce565b505092915050565b600082612ce557612ce5612c0a565b500790565b6000600160ff1b8201612cff57612cff612bce565b5060000390565b634e487b7160e01b600052603260045260246000fd5b600081612d2b57612d2b612bce565b506000190190565b60008551612d45818460208a01612b6b565b80830190506301027a9160e51b8082528651612d68816004850160208b01612b6b565b600492019182018190528551612d85816008850160208a01612b6b565b60089201918201528351612da081600c840160208801612b6b565b01600c019695505050505050565b60008451612dc0818460208901612b6b565b80830190506301027a9160e51b8082528551612de3816004850160208a01612b6b565b60049201918201528351612dfe816008840160208801612b6b565b0160080195945050505050565b60008351612e1d818460208801612b6b565b6301027a9160e51b9083019081528351612e3e816004840160208801612b6b565b01600401949350505050565b600060018201612e5c57612e5c612bce565b5060010190565b600081600f0b6f7fffffffffffffffffffffffffffffff198103612e8957612e89612bce565b60000392915050565b68024b73b30b634b21d160bd1b815260008551612eb6816009850160208a01612b6b565b855190830190612ecd816009840160208a01612b6b565b8551910190612ee3816009840160208901612b6b565b69016103932b0b9b7b71d160b51b600992909101918201528351612f0e816013840160208801612b6b565b016013019695505050505050565b604081526000612f2f6040830185612b8f565b905082151560208301529392505050565b602d60f81b815260008251612f5c816001850160208701612b6b565b9190910160010192915050565b60008251612f7b818460208701612b6b565b9190910192915050565b604081526000612f986040830185612b8f565b90508260208301529392505050565b604081526000612fba6040830185612b8f565b8281036020840152612fcc8185612b8f565b95945050505050565b604081526000612fe86040830185612b8f565b905060018060a01b03831660208301529392505050565b8082028115828204841417610e0d57610e0d612bce565b600181815b8085111561305157816000190482111561303757613037612bce565b8085161561304457918102915b93841c939080029061301b565b509250929050565b60008261306857506001610e0d565b8161307557506000610e0d565b816001811461308b5760028114613095576130b1565b6001915050610e0d565b60ff8411156130a6576130a6612bce565b50506001821b610e0d565b5060208310610133831016604e8410600b84101617156130d4575081810a610e0d565b6130de8383613016565b80600019048211156130f2576130f2612bce565b029392505050565b6000610c028383613059565b60008261311557613115612c0a565b500490565b600060ff83168061312d5761312d612c0a565b8060ff84160491505092915050565b60ff8181168382160290811690818114611c7657611c76612bce565b60ff8281168282160390811115610e0d57610e0d612bce565b60006020828403121561318357600080fd5b81516001600160401b0381111561319957600080fd5b8201601f810184136131aa57600080fd5b80516131b86122f2826122ac565b8181528560208385010111156131cd57600080fd5b612fcc826020830160208601612b6b565b60ff8181168382160190811115610e0d57610e0d612bce56fe636c616d704c742063616e6e6f7420636c616d702076616c7565206120746f206265206c657373207468616e207a65726f2e20436865636b20796f757220696e707574732f617373756d7074696f6e732e636c616d7047742063616e6e6f7420636c616d702076616c7565206120746f206265206c6172676572207468616e2075696e743235362e6d61782e20436865636b20796f757220696e707574732f617373756d7074696f6e732ea2646970667358221220c1ab78af8ee6c8aab6467ac695987e0d246b71ca2537b72395f812f8aa8bd85f64736f6c634300081300336080604052348015600f57600080fd5b5060898061001e6000396000f3fe6080604052348015600f57600080fd5b506004361060285760003560e01c806309ccaefb14602d575b600080fd5b60336035565b005b603b603d565b565b634e487b7160e01b600052600160045260246000fdfea26469706673582212203261b94049ca06378fa463836122ddbb849351f0575eb57441a036b2c722aab464736f6c63430008130033","linkReferences":{}},"methodIdentifiers":{"fuzz_activateWithdrawalQueue()":"9cc395f9","fuzz_deactivateWithdrawalQueue()":"e0c3eefd","fuzz_deposit(uint8,uint256,uint256)":"1cd507fc","fuzz_depositETH(uint256,uint256)":"1b2c083b","fuzz_depositTo(uint8,uint8,uint256,uint256)":"573e2fb1","fuzz_depositToETH(uint8,uint256,uint256)":"9f695339","fuzz_finaliseQueuedWithdrawal(uint8,uint256)":"24c88a0c","fuzz_finaliseQueuedWithdrawalsAggregated(uint8,uint8,uint256,uint256)":"abd75ae4","fuzz_onMessageReceiveRoot(bool,uint8,uint8,uint8,uint256)":"f2dee55f","fuzz_pauseRoot()":"530afc86","fuzz_setRateControlThreshold(uint8,uint256,uint256,uint256)":"678c58ff","fuzz_setWithdrawalDelay(uint256)":"e76cb13f","fuzz_unpauseRoot()":"fc6b5fd6","fuzz_updateImxCumulativeDepositLimit(uint256)":"87465114","handler_activateWithdrawalQueue()":"1f4a1a6a","handler_deactivateWithdrawalQueue()":"2c8b759b","handler_deposit(uint8,uint256,uint256)":"c8e0c924","handler_depositETH(uint256,uint256)":"e80552f1","handler_depositTo(uint8,uint8,uint256,uint256)":"f42e1ccf","handler_depositToETH(uint8,uint256,uint256)":"c5247e27","handler_finaliseQueuedWithdrawal(uint8,uint256)":"af3cfaa2","handler_finaliseQueuedWithdrawalsAggregated(uint8,uint8,uint256,uint256)":"0cb2373c","handler_onMessageReceiveRoot(bool,uint8,uint8,uint8,uint256)":"8dab8a7f","handler_pauseRoot()":"8d7d6afe","handler_setRateControlThreshold(uint8,uint256,uint256,uint256)":"12864dd8","handler_setWithdrawalDelay(uint256)":"411fb0bd","handler_unpauseRoot()":"a60ac68b","handler_updateImxCumulativeDepositLimit(uint256)":"bd3cad56"},"id":125}