{"abi":[{"type":"function","name":"fuzz_onMessageReceiveChild","inputs":[{"name":"isDeposit","type":"bool","internalType":"bool"},{"name":"rootTokenSelector","type":"uint8","internalType":"uint8"},{"name":"senderSelector","type":"uint8","internalType":"uint8"},{"name":"receiverSelector","type":"uint8","internalType":"uint8"},{"name":"amount","type":"uint256","internalType":"uint256"}],"outputs":[],"stateMutability":"nonpayable"},{"type":"function","name":"fuzz_pauseChild","inputs":[],"outputs":[],"stateMutability":"nonpayable"},{"type":"function","name":"fuzz_unpauseChild","inputs":[],"outputs":[],"stateMutability":"nonpayable"},{"type":"function","name":"fuzz_withdraw","inputs":[{"name":"childTokenSelector","type":"uint8","internalType":"uint8"},{"name":"amount","type":"uint256","internalType":"uint256"},{"name":"value","type":"uint256","internalType":"uint256"}],"outputs":[],"stateMutability":"nonpayable"},{"type":"function","name":"fuzz_withdrawETH","inputs":[{"name":"amount","type":"uint256","internalType":"uint256"},{"name":"value","type":"uint256","internalType":"uint256"}],"outputs":[],"stateMutability":"nonpayable"},{"type":"function","name":"fuzz_withdrawETHTo","inputs":[{"name":"receiverSelector","type":"uint8","internalType":"uint8"},{"name":"amount","type":"uint256","internalType":"uint256"},{"name":"value","type":"uint256","internalType":"uint256"}],"outputs":[],"stateMutability":"nonpayable"},{"type":"function","name":"fuzz_withdrawIMX","inputs":[{"name":"amount","type":"uint256","internalType":"uint256"},{"name":"value","type":"uint256","internalType":"uint256"}],"outputs":[],"stateMutability":"nonpayable"},{"type":"function","name":"fuzz_withdrawIMXTo","inputs":[{"name":"receiverSelector","type":"uint8","internalType":"uint8"},{"name":"amount","type":"uint256","internalType":"uint256"},{"name":"value","type":"uint256","internalType":"uint256"}],"outputs":[],"stateMutability":"nonpayable"},{"type":"function","name":"fuzz_withdrawTo","inputs":[{"name":"childTokenSelector","type":"uint8","internalType":"uint8"},{"name":"receiverSelector","type":"uint8","internalType":"uint8"},{"name":"amount","type":"uint256","internalType":"uint256"},{"name":"value","type":"uint256","internalType":"uint256"}],"outputs":[],"stateMutability":"nonpayable"},{"type":"function","name":"fuzz_withdrawWIMX","inputs":[{"name":"amount","type":"uint256","internalType":"uint256"},{"name":"value","type":"uint256","internalType":"uint256"}],"outputs":[],"stateMutability":"nonpayable"},{"type":"function","name":"fuzz_withdrawWIMXTo","inputs":[{"name":"receiverSelector","type":"uint8","internalType":"uint8"},{"name":"amount","type":"uint256","internalType":"uint256"},{"name":"value","type":"uint256","internalType":"uint256"}],"outputs":[],"stateMutability":"nonpayable"},{"type":"function","name":"handler_onMessageReceiveChild","inputs":[{"name":"isDeposit","type":"bool","internalType":"bool"},{"name":"rootTokenSelector","type":"uint8","internalType":"uint8"},{"name":"senderSelector","type":"uint8","internalType":"uint8"},{"name":"receiverSelector","type":"uint8","internalType":"uint8"},{"name":"amount","type":"uint256","internalType":"uint256"}],"outputs":[],"stateMutability":"nonpayable"},{"type":"function","name":"handler_pauseChild","inputs":[],"outputs":[],"stateMutability":"nonpayable"},{"type":"function","name":"handler_unpauseChild","inputs":[],"outputs":[],"stateMutability":"nonpayable"},{"type":"function","name":"handler_withdraw","inputs":[{"name":"childTokenSelector","type":"uint8","internalType":"uint8"},{"name":"amount","type":"uint256","internalType":"uint256"},{"name":"value","type":"uint256","internalType":"uint256"}],"outputs":[],"stateMutability":"nonpayable"},{"type":"function","name":"handler_withdrawETH","inputs":[{"name":"amount","type":"uint256","internalType":"uint256"},{"name":"value","type":"uint256","internalType":"uint256"}],"outputs":[],"stateMutability":"nonpayable"},{"type":"function","name":"handler_withdrawETHTo","inputs":[{"name":"receiverSelector","type":"uint8","internalType":"uint8"},{"name":"amount","type":"uint256","internalType":"uint256"},{"name":"value","type":"uint256","internalType":"uint256"}],"outputs":[],"stateMutability":"nonpayable"},{"type":"function","name":"handler_withdrawIMX","inputs":[{"name":"amount","type":"uint256","internalType":"uint256"},{"name":"value","type":"uint256","internalType":"uint256"}],"outputs":[],"stateMutability":"nonpayable"},{"type":"function","name":"handler_withdrawIMXTo","inputs":[{"name":"receiverSelector","type":"uint8","internalType":"uint8"},{"name":"amount","type":"uint256","internalType":"uint256"},{"name":"value","type":"uint256","internalType":"uint256"}],"outputs":[],"stateMutability":"nonpayable"},{"type":"function","name":"handler_withdrawTo","inputs":[{"name":"childTokenSelector","type":"uint8","internalType":"uint8"},{"name":"receiverSelector","type":"uint8","internalType":"uint8"},{"name":"amount","type":"uint256","internalType":"uint256"},{"name":"value","type":"uint256","internalType":"uint256"}],"outputs":[],"stateMutability":"nonpayable"},{"type":"function","name":"handler_withdrawWIMX","inputs":[{"name":"amount","type":"uint256","internalType":"uint256"},{"name":"value","type":"uint256","internalType":"uint256"}],"outputs":[],"stateMutability":"nonpayable"},{"type":"function","name":"handler_withdrawWIMXTo","inputs":[{"name":"receiverSelector","type":"uint8","internalType":"uint8"},{"name":"amount","type":"uint256","internalType":"uint256"},{"name":"value","type":"uint256","internalType":"uint256"}],"outputs":[],"stateMutability":"nonpayable"},{"type":"event","name":"ActivateWithdrawalQueueCall","inputs":[],"anonymous":false},{"type":"event","name":"DeactivateWithdrawalQueueCall","inputs":[],"anonymous":false},{"type":"event","name":"DepositCall","inputs":[{"name":"rootToken","type":"address","indexed":false,"internalType":"address"},{"name":"amount","type":"uint256","indexed":false,"internalType":"uint256"}],"anonymous":false},{"type":"event","name":"DepositETHCall","inputs":[{"name":"amount","type":"uint256","indexed":false,"internalType":"uint256"}],"anonymous":false},{"type":"event","name":"DepositToCall","inputs":[{"name":"rootToken","type":"address","indexed":false,"internalType":"address"},{"name":"receiver","type":"address","indexed":false,"internalType":"address"},{"name":"amount","type":"uint256","indexed":false,"internalType":"uint256"}],"anonymous":false},{"type":"event","name":"DepositToETHCall","inputs":[{"name":"receiver","type":"address","indexed":false,"internalType":"address"},{"name":"amount","type":"uint256","indexed":false,"internalType":"uint256"}],"anonymous":false},{"type":"event","name":"FinaliseQueuedWithdrawalCall","inputs":[{"name":"receiver","type":"address","indexed":false,"internalType":"address"},{"name":"index","type":"uint256","indexed":false,"internalType":"uint256"}],"anonymous":false},{"type":"event","name":"FinaliseQueuedWithdrawalsAggregatedCall","inputs":[{"name":"receiver","type":"address","indexed":false,"internalType":"address"},{"name":"token","type":"address","indexed":false,"internalType":"address"},{"name":"indices","type":"uint256[]","indexed":false,"internalType":"uint256[]"}],"anonymous":false},{"type":"event","name":"OnMessageReceiveChildCall","inputs":[{"name":"data","type":"bytes","indexed":false,"internalType":"bytes"}],"anonymous":false},{"type":"event","name":"OnMessageReceiveRootCall","inputs":[{"name":"data","type":"bytes","indexed":false,"internalType":"bytes"}],"anonymous":false},{"type":"event","name":"PauseChildCall","inputs":[],"anonymous":false},{"type":"event","name":"PauseRootCall","inputs":[],"anonymous":false},{"type":"event","name":"SetRateControlThresholdCall","inputs":[{"name":"token","type":"address","indexed":false,"internalType":"address"},{"name":"capacity","type":"uint256","indexed":false,"internalType":"uint256"},{"name":"refillRate","type":"uint256","indexed":false,"internalType":"uint256"},{"name":"largeTransferThreshold","type":"uint256","indexed":false,"internalType":"uint256"}],"anonymous":false},{"type":"event","name":"SetWithdrawalDelayCall","inputs":[{"name":"delay","type":"uint256","indexed":false,"internalType":"uint256"}],"anonymous":false},{"type":"event","name":"UnpauseChildCall","inputs":[],"anonymous":false},{"type":"event","name":"UnpauseRootCall","inputs":[],"anonymous":false},{"type":"event","name":"UpdateImxCumulativeDepositLimitCall","inputs":[{"name":"newImxCumulativeDepositLimit","type":"uint256","indexed":false,"internalType":"uint256"}],"anonymous":false},{"type":"event","name":"UpdateRootBridgeAdaptorCall","inputs":[{"name":"newRootBridgeAdaptor","type":"address","indexed":false,"internalType":"address"}],"anonymous":false},{"type":"event","name":"WithdrawCall","inputs":[{"name":"childToken","type":"address","indexed":false,"internalType":"address"},{"name":"amount","type":"uint256","indexed":false,"internalType":"uint256"}],"anonymous":false},{"type":"event","name":"WithdrawETHCall","inputs":[{"name":"amount","type":"uint256","indexed":false,"internalType":"uint256"}],"anonymous":false},{"type":"event","name":"WithdrawETHToCall","inputs":[{"name":"receiver","type":"address","indexed":false,"internalType":"address"},{"name":"amount","type":"uint256","indexed":false,"internalType":"uint256"}],"anonymous":false},{"type":"event","name":"WithdrawIMXCall","inputs":[{"name":"amount","type":"uint256","indexed":false,"internalType":"uint256"}],"anonymous":false},{"type":"event","name":"WithdrawIMXToCall","inputs":[{"name":"receiver","type":"address","indexed":false,"internalType":"address"},{"name":"amount","type":"uint256","indexed":false,"internalType":"uint256"}],"anonymous":false},{"type":"event","name":"WithdrawToCall","inputs":[{"name":"childToken","type":"address","indexed":false,"internalType":"address"},{"name":"receiver","type":"address","indexed":false,"internalType":"address"},{"name":"amount","type":"uint256","indexed":false,"internalType":"uint256"}],"anonymous":false},{"type":"event","name":"WithdrawWIMXCall","inputs":[{"name":"amount","type":"uint256","indexed":false,"internalType":"uint256"}],"anonymous":false},{"type":"event","name":"WithdrawWIMXToCall","inputs":[{"name":"receiver","type":"address","indexed":false,"internalType":"address"},{"name":"amount","type":"uint256","indexed":false,"internalType":"uint256"}],"anonymous":false},{"type":"error","name":"ClampFail","inputs":[{"name":"","type":"string","internalType":"string"}]},{"type":"error","name":"MultiCallFail","inputs":[{"name":"","type":"string","internalType":"string"}]}],"bytecode":{"object":"0x6080604052604051620000129062000142565b604051809103906000f0801580156200002f573d6000803e3d6000fd5b50600080546001600160a01b0319166001600160a01b03929092169190911790556040805160608101825262010001815262020001602082015262030001918101919091526200008490600190600362000150565b506002805460ff191660011790553480156200009f57600080fd5b506000546040516001600160a01b0390911690636945c5ea90620000c390620001ba565b604051809103906000f080158015620000e0573d6000803e3d6000fd5b506040516001600160e01b031960e084901b1681526001600160a01b039091166004820152602401600060405180830381600087803b1580156200012357600080fd5b505af115801562000138573d6000803e3d6000fd5b50505050620001de565b6132f88062006e0c83390190565b828054828255906000526020600020908101928215620001a8579160200282015b82811115620001a857825182546001600160a01b0319166001600160a01b0390911617825560209092019160019091019062000171565b50620001b6929150620001c7565b5090565b60a7806200a10483390190565b5b80821115620001b65760008155600101620001c8565b616c1e80620001ee6000396000f3fe608060405234801561001057600080fd5b50600436106101425760003560e01c8063a7f90b8d116100b8578063d5a651f31161007c578063d5a651f31461024d578063db19212c14610260578063e915278914610273578063ec1dbd0914610286578063f2ff2dd614610299578063ffbd1fae146102ac57600080fd5b8063a7f90b8d146101f9578063aae97c9b14610201578063b13518e714610214578063be850cfe14610227578063c50847fb1461023a57600080fd5b806352bf94d81161010a57806352bf94d8146101a85780637216408d146101b057806379dd9f2b146101c35780637aa5be21146101d65780638d08c8a3146101de5780639bb78ae0146101f157600080fd5b806307e10041146101475780631533bd8f1461015c57806337ee3f3e1461016f578063407504b31461018257806342a4e32514610195575b600080fd5b61015a610155366004615ba4565b6102bf565b005b61015a61016a366004615bdc565b6103bc565b61015a61017d366004615ba4565b6104c4565b61015a610190366004615ba4565b6105db565b61015a6101a3366004615bdc565b6106b7565b61015a6107d7565b61015a6101be366004615bdc565b6108d6565b61015a6101d1366004615bdc565b6109dd565b61015a610ac2565b61015a6101ec366004615c1d565b610b40565b61015a610c73565b61015a610d39565b61015a61020f366004615ba4565b610db7565b61015a610222366004615ba4565b610eb8565b61015a610235366004615bdc565b610fb9565b61015a610248366004615bdc565b6110c0565b61015a61025b366004615ba4565b6111a5565b61015a61026e366004615c1d565b611281565b61015a610281366004615bdc565b6113c4565b61015a610294366004615bdc565b6114bf565b61015a6102a7366004615c7b565b6115a4565b61015a6102ba366004615c7b565b6116d0565b60025460ff16156102fc576102d5336001615cd3565b600260016101000a8154816001600160a01b0302191690836001600160a01b031602179055505b600061030883836117d5565b6040805160018082528183019092529192506000919060208083019080368337019050509050600260019054906101000a90046001600160a01b03168160008151811061035757610357615d10565b60200260200101906001600160a01b031690816001600160a01b03168152505061038381610eee6119d9565b600080610398846000015185602001516119e9565b915091506103b4828285610eee88600001518960200151611b55565b505050505050565b60025460ff16156103f9576103d2336001615cd3565b600260016101000a8154816001600160a01b0302191690836001600160a01b031602179055505b6000610406848484611ba9565b6040805160018082528183019092529192506000919060208083019080368337019050509050600260019054906101000a90046001600160a01b03168160008151811061045557610455615d10565b60200260200101906001600160a01b031690816001600160a01b0316815250506104838183600001516119d9565b60008061049d846000015185602001518660400151611e54565b915091506104bb828285876000015188602001518960400151611fd4565b50505050505050565b604080516024810184905260448082018490528251808303909101815260649091019091526020810180516001600160e01b03166307e1004160e01b17905260008061050f83612008565b91509150816105d45760408051600180825281830190925260009160208083019080368337019050509050634931f50760e01b8160008151811061055557610555615d10565b6001600160e01b031990921660209283029190910190910152600054604051634471b16360e11b81526001600160a01b03909116906388e362c6906105a09085908590600401615d6b565b600060405180830381600087803b1580156105ba57600080fd5b505af11580156105ce573d6000803e3d6000fd5b50505050505b5050505050565b604080516024810184905260448082018490528251808303909101815260649091019091526020810180516001600160e01b031663aae97c9b60e01b17905260008061062683612008565b91509150816105d45760408051600180825281830190925260009160208083019080368337019050509050634931f50760e01b8160008151811061066c5761066c615d10565b6001600160e01b031990921660209283029190910190910152600054604051634471b16360e11b81526001600160a01b03909116906388e362c6906105a09085908590600401615db5565b6040805160ff851660248201526044810184905260648082018490528251808303909101815260849091019091526020810180516001600160e01b0316631533bd8f60e01b17905260008061070b83612008565b91509150816103b45760408051600180825281830190925260009160208083019080368337019050509050634931f50760e01b8160008151811061075157610751615d10565b6001600160e01b031990921660209283029190910190910152600054604051634471b16360e11b81526001600160a01b03909116906388e362c69061079c9085908590600401615dff565b600060405180830381600087803b1580156107b657600080fd5b505af11580156107ca573d6000803e3d6000fd5b5050505050505050505050565b6040805160048152602481019091526020810180516001600160e01b031663a7f90b8d60e01b17905260008061080c83612008565b91509150816108d15760408051600180825281830190925260009160208083019080368337019050509050634931f50760e01b8160008151811061085257610852615d10565b6001600160e01b031990921660209283029190910190910152600054604051634471b16360e11b81526001600160a01b03909116906388e362c69061089d9085908590600401615e49565b600060405180830381600087803b1580156108b757600080fd5b505af11580156108cb573d6000803e3d6000fd5b50505050505b505050565b60025460ff1615610913576108ec336001615cd3565b600260016101000a8154816001600160a01b0302191690836001600160a01b031602179055505b6000610920848484612081565b6040805160018082528183019092529192506000919060208083019080368337019050509050600260019054906101000a90046001600160a01b03168160008151811061096f5761096f615d10565b6001600160a01b039283166020918202929092010152600e54610994918391166119d9565b6000806109ae84600001518560200151866040015161232e565b915091506104bb828285600e60009054906101000a90046001600160a01b031688602001518960400151612424565b6040805160ff851660248201526044810184905260648082018490528251808303909101815260849091019091526020810180516001600160e01b031663e915278960e01b179052600080610a3183612008565b91509150816103b45760408051600180825281830190925260009160208083019080368337019050509050634931f50760e01b81600081518110610a7757610a77615d10565b6001600160e01b031990921660209283029190910190910152600054604051634471b16360e11b81526001600160a01b03909116906388e362c69061079c9085908590600401615e93565b60025460ff1615610aff57610ad8336001615cd3565b600260016101000a8154816001600160a01b0302191690836001600160a01b031602179055505b610b07612445565b604080516000808252602082019092529050610b248160006119d9565b600080610b2f6124dc565b915091506108d1828285600061259e565b60408051861515602482015260ff868116604483015285811660648301528416608482015260a48082018490528251808303909101815260c49091019091526020810180516001600160e01b03166336c6484b60e21b179052600080610ba583612008565b91509150816108cb5760408051600180825281830190925260009160208083019080368337019050509050634931f50760e01b81600081518110610beb57610beb615d10565b6001600160e01b031990921660209283029190910190910152600054604051634471b16360e11b81526001600160a01b03909116906388e362c690610c369085908590600401615edd565b600060405180830381600087803b158015610c5057600080fd5b505af1158015610c64573d6000803e3d6000fd5b50505050505050505050505050565b6040805160048152602481019091526020810180516001600160e01b0316637aa5be2160e01b179052600080610ca883612008565b91509150816108d15760408051600180825281830190925260009160208083019080368337019050509050634931f50760e01b81600081518110610cee57610cee615d10565b6001600160e01b031990921660209283029190910190910152600054604051634471b16360e11b81526001600160a01b03909116906388e362c69061089d9085908590600401615f27565b60025460ff1615610d7657610d4f336001615cd3565b600260016101000a8154816001600160a01b0302191690836001600160a01b031602179055505b610d7e6125d5565b604080516000808252602082019092529050610d9b8160006119d9565b600080610da6612699565b915091506108d1828285600061270e565b60025460ff1615610df457610dcd336001615cd3565b600260016101000a8154816001600160a01b0302191690836001600160a01b031602179055505b6000610e008383612727565b6040805160018082528183019092529192506000919060208083019080368337019050509050600260019054906101000a90046001600160a01b031681600081518110610e4f57610e4f615d10565b6001600160a01b039283166020918202929092010152600f54610e74918391166119d9565b600080610e898460000151856020015161297d565b915091506103b4828285600f60009054906101000a90046001600160a01b031688600001518960200151612a60565b60025460ff1615610ef557610ece336001615cd3565b600260016101000a8154816001600160a01b0302191690836001600160a01b031602179055505b6000610f018383612a81565b6040805160018082528183019092529192506000919060208083019080368337019050509050600260019054906101000a90046001600160a01b031681600081518110610f5057610f50615d10565b6001600160a01b039283166020918202929092010152600e54610f75918391166119d9565b600080610f8a84600001518560200151612b93565b915091506103b4828285600e60009054906101000a90046001600160a01b031688600001518960200151612c76565b60025460ff1615610ff657610fcf336001615cd3565b600260016101000a8154816001600160a01b0302191690836001600160a01b031602179055505b6000611003848484612c97565b6040805160018082528183019092529192506000919060208083019080368337019050509050600260019054906101000a90046001600160a01b03168160008151811061105257611052615d10565b6001600160a01b039283166020918202929092010152600f54611077918391166119d9565b600080611091846000015185602001518660400151612f4b565b915091506104bb828285600f60009054906101000a90046001600160a01b031688602001518960400151613041565b6040805160ff851660248201526044810184905260648082018490528251808303909101815260849091019091526020810180516001600160e01b0316637216408d60e01b17905260008061111483612008565b91509150816103b45760408051600180825281830190925260009160208083019080368337019050509050634931f50760e01b8160008151811061115a5761115a615d10565b6001600160e01b031990921660209283029190910190910152600054604051634471b16360e11b81526001600160a01b03909116906388e362c69061079c9085908590600401615f71565b604080516024810184905260448082018490528251808303909101815260649091019091526020810180516001600160e01b031663b13518e760e01b1790526000806111f083612008565b91509150816105d45760408051600180825281830190925260009160208083019080368337019050509050634931f50760e01b8160008151811061123657611236615d10565b6001600160e01b031990921660209283029190910190910152600054604051634471b16360e11b81526001600160a01b03909116906388e362c6906105a09085908590600401615fbb565b60025460ff16156112be57611297336001615cd3565b600260016101000a8154816001600160a01b0302191690836001600160a01b031602179055505b60006112cd8686868686613062565b604080516001808252818301909252919250600091906020808301908036833701905050905081608001518160008151811061130b5761130b615d10565b6001600160a01b0392831660209182029290920181019190915260075490840151604051637efab4f560e01b815290831660048201526000929190911690637efab4f590602401602060405180830381865afa15801561136f573d6000803e3d6000fd5b505050506040513d601f19601f820116820180604052508101906113939190616005565b905061139f82826119d9565b6000806113af8560000151613349565b915091506105ce8282868689604001516134b3565b60025460ff1615611401576113da336001615cd3565b600260016101000a8154816001600160a01b0302191690836001600160a01b031602179055505b600061140e848484613500565b6040805160018082528183019092529192506000919060208083019080368337019050509050600260019054906101000a90046001600160a01b03168160008151811061145d5761145d615d10565b60200260200101906001600160a01b031690816001600160a01b03168152505061148981610eee6119d9565b6000806114a3846000015185602001518660400151613685565b915091506104bb828285610eee8860200151896040015161377b565b6040805160ff851660248201526044810184905260648082018490528251808303909101815260849091019091526020810180516001600160e01b0316635f42867f60e11b17905260008061151383612008565b91509150816103b45760408051600180825281830190925260009160208083019080368337019050509050634931f50760e01b8160008151811061155957611559615d10565b6001600160e01b031990921660209283029190910190910152600054604051634471b16360e11b81526001600160a01b03909116906388e362c69061079c9085908590600401616035565b6040805160ff8681166024830152851660448201526064810184905260848082018490528251808303909101815260a49091019091526020810180516001600160e01b031660016221702960e11b031917905260008061160383612008565b91509150816104bb5760408051600180825281830190925260009160208083019080368337019050509050634931f50760e01b8160008151811061164957611649615d10565b6001600160e01b031990921660209283029190910190910152600054604051634471b16360e11b81526001600160a01b03909116906388e362c690611694908590859060040161607f565b600060405180830381600087803b1580156116ae57600080fd5b505af11580156116c2573d6000803e3d6000fd5b505050505050505050505050565b60025460ff161561170d576116e6336001615cd3565b600260016101000a8154816001600160a01b0302191690836001600160a01b031602179055505b600061171b858585856137a9565b6040805160018082528183019092529192506000919060208083019080368337019050509050600260019054906101000a90046001600160a01b03168160008151811061176a5761176a615d10565b60200260200101906001600160a01b031690816001600160a01b0316815250506117988183600001516119d9565b6000806117b78460000151856020015186604001518760600151613a8f565b915091506108cb828285876000015188604001518960600151613c0e565b6040805180820190915260008082526020820152600760009054906101000a90046001600160a01b03166001600160a01b0316635c975abb6040518163ffffffff1660e01b8152600401602060405180830381865afa15801561183c573d6000803e3d6000fd5b505050506040513d601f19601f8201168201806040525081019061186091906160c9565b801561187557506118726064436160e6565b15155b1561189c57604051634931f50760e01b815260040161189390616108565b60405180910390fd5b60008054600254604051639e42244760e01b815260048101869052602481019390935261010090046001600160a01b039081163160448401521690639e422447906064016020604051808303816000875af11580156118ff573d6000803e3d6000fd5b505050506040513d601f19601f82011682018060405250810190611923919061613f565b600080549193506001600160a01b0390911690639e42244790859061194a6103e887616158565b6040516001600160e01b031960e086901b1681526004810193909352602483019190915260448201526064016020604051808303816000875af1158015611995573d6000803e3d6000fd5b505050506040513d601f19601f820116820180604052508101906119b9919061613f565b925060405180604001604052808481526020018381525090505b92915050565b6119e560008383613c2f565b5050565b600060607f53d0440f5fa1e1c8e5a02ad3324abb57a0cf066316cee9d857ab1bf8fdf6d4d684604051611a1e91815260200190565b60405180910390a160025460405163ca669fa760e01b81526101009091046001600160a01b03166004820152737109709ecfa91a80626ff3989d68f67f5b1dd12d9063ca669fa790602401600060405180830381600087803b158015611a8357600080fd5b505af1158015611a97573d6000803e3d6000fd5b5050600754604051602481018890526001600160a01b039091169250620f42409150859063379970b960e21b906044015b60408051601f198184030181529181526020820180516001600160e01b03166001600160e01b0319909416939093179092529051611b06919061618f565b600060405180830381858888f193505050503d8060008114611b44576040519150601f19603f3d011682016040523d82523d6000602084013e611b49565b606091505b50909590945092505050565b8515611ba057611b65848461401f565b611b6d61402b565b611b7f611b7a83836161ab565b6140da565b611b88826141ac565b611b928584614250565b611b9b85614259565b6103b4565b611b9b85614264565b611bd6604051806060016040528060006001600160a01b0316815260200160008152602001600081525090565b600760009054906101000a90046001600160a01b03166001600160a01b0316635c975abb6040518163ffffffff1660e01b8152600401602060405180830381865afa158015611c29573d6000803e3d6000fd5b505050506040513d601f19601f82011682018060405250810190611c4d91906160c9565b8015611c625750611c5f6064436160e6565b15155b15611c8057604051634931f50760e01b815260040161189390616108565b6005805460009190611c959060ff88166160e6565b81548110611ca557611ca5615d10565b600091825260208083209190910154604080516060810182526001600160a01b03928316808252855460025493516370a0823160e01b815261010090940485166004850152909650909493850193921691639e4224479189919087906370a0823190602401602060405180830381865afa158015611d27573d6000803e3d6000fd5b505050506040513d601f19601f82011682018060405250810190611d4b919061613f565b6040516001600160e01b031960e086901b1681526004810193909352602483019190915260448201526064016020604051808303816000875af1158015611d96573d6000803e3d6000fd5b505050506040513d601f19601f82011682018060405250810190611dba919061613f565b815260008054600254604051639e42244760e01b815260048101899052602481019390935261010090046001600160a01b039081163160448401526020909301921690639e422447906064016020604051808303816000875af1158015611e25573d6000803e3d6000fd5b505050506040513d601f19601f82011682018060405250810190611e49919061613f565b905295945050505050565b604080516001600160a01b0385168152602081018490526000916060917f1459c43301864a97be9e34b66228cfecac69df8cf00c45e6c731c63b46b95649910160405180910390a160025460405163ca669fa760e01b81526101009091046001600160a01b03166004820152737109709ecfa91a80626ff3989d68f67f5b1dd12d9063ca669fa790602401600060405180830381600087803b158015611ef957600080fd5b505af1158015611f0d573d6000803e3d6000fd5b50506007546040516001600160a01b038981166024830152604482018990529091169250620f42409150859063f3fef3a360e01b906064015b60408051601f198184030181529181526020820180516001600160e01b03166001600160e01b0319909416939093179092529051611f84919061618f565b600060405180830381858888f193505050503d8060008114611fc2576040519150601f19603f3d011682016040523d82523d6000602084013e611fc7565b606091505b5090969095509350505050565b8515611fff57611fe4848461401f565b611fec6143d3565b611ff5816140da565b611b888383614454565b611b9b856144f9565b600080600080306001600160a01b031685604051612026919061618f565b600060405180830381855af49150503d8060008114612061576040519150601f19603f3d011682016040523d82523d6000602084013e612066565b606091505b50915091508181612076906161be565b935093505050915091565b6120ae604051806060016040528060006001600160a01b0316815260200160008152602001600081525090565b600760009054906101000a90046001600160a01b03166001600160a01b0316635c975abb6040518163ffffffff1660e01b8152600401602060405180830381865afa158015612101573d6000803e3d6000fd5b505050506040513d601f19601f8201168201806040525081019061212591906160c9565b801561213a57506121376064436160e6565b15155b1561215857604051634931f50760e01b815260040161189390616108565b6040518060600160405280600180805490508760ff1661217891906160e6565b8154811061218857612188615d10565b6000918252602080832091909101546001600160a01b0390811684528254600e546002546040516370a0823160e01b815261010090910484166004820152959093019490821693639e422447938a9391929116906370a0823190602401602060405180830381865afa158015612202573d6000803e3d6000fd5b505050506040513d601f19601f82011682018060405250810190612226919061613f565b6040516001600160e01b031960e086901b1681526004810193909352602483019190915260448201526064016020604051808303816000875af1158015612271573d6000803e3d6000fd5b505050506040513d601f19601f82011682018060405250810190612295919061613f565b815260008054600254604051639e42244760e01b815260048101889052602481019390935261010090046001600160a01b039081163160448401526020909301921690639e422447906064016020604051808303816000875af1158015612300573d6000803e3d6000fd5b505050506040513d601f19601f82011682018060405250810190612324919061613f565b9052949350505050565b604080516001600160a01b0385168152602081018490526000916060917fb5738938ad16b880ad3ffb4500186e8fda49d9ef933e5fbb2a69c245a9e5b41f910160405180910390a160025460405163ca669fa760e01b81526101009091046001600160a01b03166004820152737109709ecfa91a80626ff3989d68f67f5b1dd12d9063ca669fa790602401600060405180830381600087803b1580156123d357600080fd5b505af11580156123e7573d6000803e3d6000fd5b50506007546040516001600160a01b038981166024830152604482018990529091169250620f42409150859063274346b960e01b90606401611f46565b851561243c57612434848461401f565b611fec614601565b611b9b85614682565b600760009054906101000a90046001600160a01b03166001600160a01b0316635c975abb6040518163ffffffff1660e01b8152600401602060405180830381865afa158015612498573d6000803e3d6000fd5b505050506040513d601f19601f820116820180604052508101906124bc91906160c9565b156124da57604051634931f50760e01b815260040161189390616108565b565b6040516000906060907f9477195fefea6b0c7f989d55d67a827b54bea6d222f81aa3ca0733846c9fa625908390a160075460408051600481526024810182526020810180516001600160e01b0316638456cb5960e01b17905290516001600160a01b0390921691620f4240916125519161618f565b60006040518083038160008787f1925050503d806000811461258f576040519150601f19603f3d011682016040523d82523d6000602084013e612594565b606091505b5090939092509050565b83156125c6576125ae828261401f565b6125b88382614250565b6125c183614259565b6125cf565b6125cf8361478a565b50505050565b600760009054906101000a90046001600160a01b03166001600160a01b0316635c975abb6040518163ffffffff1660e01b8152600401602060405180830381865afa158015612628573d6000803e3d6000fd5b505050506040513d601f19601f8201168201806040525081019061264c91906160c9565b6124da57604051634931f50760e01b815260206004820152601d60248201527f4368696c642062726964676520616c726561647920756e7061757365640000006044820152606401611893565b6040516000906060907f89388cd0b34a8a3c564733b139b09f29ff04d5a0a4a2aaaa5dae67d33991564a908390a160075460408051600481526024810182526020810180516001600160e01b0316631fa5d41d60e11b17905290516001600160a01b0390921691620f4240916125519161618f565b831561271e576125ae828261401f565b6125cf836147eb565b6040805180820190915260008082526020820152600760009054906101000a90046001600160a01b03166001600160a01b0316635c975abb6040518163ffffffff1660e01b8152600401602060405180830381865afa15801561278e573d6000803e3d6000fd5b505050506040513d601f19601f820116820180604052508101906127b291906160c9565b80156127c757506127c46064436160e6565b15155b156127e557604051634931f50760e01b815260040161189390616108565b604080518082019182905260008054600f546002546370a0823160e01b9095526001600160a01b03610100909504851660448501529293849391811692639e422447928992166370a08231606487015b602060405180830381865afa158015612852573d6000803e3d6000fd5b505050506040513d601f19601f82011682018060405250810190612876919061613f565b6040516001600160e01b031960e086901b1681526004810193909352602483019190915260448201526064016020604051808303816000875af11580156128c1573d6000803e3d6000fd5b505050506040513d601f19601f820116820180604052508101906128e5919061613f565b815260008054600254604051639e42244760e01b815260048101889052602481019390935261010090046001600160a01b039081163160448401526020909301921690639e422447906064016020604051808303816000875af1158015612950573d6000803e3d6000fd5b505050506040513d601f19601f82011682018060405250810190612974919061613f565b90529392505050565b600060607f3935ab91c98f22257ff456f753469e0c303e936ab733932e8dba667e13eaac14846040516129b291815260200190565b60405180910390a160025460405163ca669fa760e01b81526101009091046001600160a01b03166004820152737109709ecfa91a80626ff3989d68f67f5b1dd12d9063ca669fa790602401600060405180830381600087803b158015612a1757600080fd5b505af1158015612a2b573d6000803e3d6000fd5b5050600754604051602481018890526001600160a01b039091169250620f4240915085906378a1085360e11b90604401611ac8565b8515612a7857612a70848461401f565b611fec61484c565b611b9b856148cd565b6040805180820190915260008082526020820152600760009054906101000a90046001600160a01b03166001600160a01b0316635c975abb6040518163ffffffff1660e01b8152600401602060405180830381865afa158015612ae8573d6000803e3d6000fd5b505050506040513d601f19601f82011682018060405250810190612b0c91906160c9565b8015612b215750612b1e6064436160e6565b15155b15612b3f57604051634931f50760e01b815260040161189390616108565b604080518082019182905260008054600e546002546370a0823160e01b9095526001600160a01b03610100909504851660448501529293849391811692639e422447928992166370a0823160648701612835565b600060607fa07249f28460d6504034082ec86d4c66d419ad9113a397036275f3323efb4cc884604051612bc891815260200190565b60405180910390a160025460405163ca669fa760e01b81526101009091046001600160a01b03166004820152737109709ecfa91a80626ff3989d68f67f5b1dd12d9063ca669fa790602401600060405180830381600087803b158015612c2d57600080fd5b505af1158015612c41573d6000803e3d6000fd5b5050600754604051602481018890526001600160a01b039091169250620f42409150859063295b0f1b60e11b90604401611ac8565b8515612c8e57612c86848461401f565b611fec6149d5565b611b9b85614a56565b612cc4604051806060016040528060006001600160a01b0316815260200160008152602001600081525090565b600760009054906101000a90046001600160a01b03166001600160a01b0316635c975abb6040518163ffffffff1660e01b8152600401602060405180830381865afa158015612d17573d6000803e3d6000fd5b505050506040513d601f19601f82011682018060405250810190612d3b91906160c9565b8015612d505750612d4d6064436160e6565b15155b15612d6e57604051634931f50760e01b815260040161189390616108565b60008054600254604051639e42244760e01b815260048101869052602481019390935261010090046001600160a01b039081163160448401521690639e422447906064016020604051808303816000875af1158015612dd1573d6000803e3d6000fd5b505050506040513d601f19601f82011682018060405250810190612df5919061613f565b60008054600f546002546040516370a0823160e01b81526001600160a01b036101009092048216600482015294965091821693639e422447938893909216906370a0823190602401602060405180830381865afa158015612e5a573d6000803e3d6000fd5b505050506040513d601f19601f82011682018060405250810190612e7e919061613f565b6040516001600160e01b031960e086901b1681526004810193909352602483019190915260448201526064016020604051808303816000875af1158015612ec9573d6000803e3d6000fd5b505050506040513d601f19601f82011682018060405250810190612eed919061613f565b92506040518060600160405280600180805490508760ff16612f0f91906160e6565b81548110612f1f57612f1f615d10565b600091825260209182902001546001600160a01b03168252810185905260400183905290509392505050565b604080516001600160a01b0385168152602081018490526000916060917f19bc3ad1938343e716202d2fc8101ecb500232e90b367b8148c01d87e5c938c2910160405180910390a160025460405163ca669fa760e01b81526101009091046001600160a01b03166004820152737109709ecfa91a80626ff3989d68f67f5b1dd12d9063ca669fa790602401600060405180830381600087803b158015612ff057600080fd5b505af1158015613004573d6000803e3d6000fd5b50506007546040516001600160a01b038981166024830152604482018990529091169250620f4240915085906334bdc4a560e11b90606401611f46565b851561305957613051848461401f565b611fec614b5e565b611b9b85614bdf565b6040805160a0810182526060808252600060208301819052928201839052810182905260808101829052600480549192916130a09060ff89166160e6565b815481106130b0576130b0615d10565b600091825260209091200154600d546001600160a01b0391821692501681036130d85750610eee5b600c546001600160a01b039081169082160361318e57600080546007546001600160a01b0391821692639e422447928792613118916103e8911631616158565b6040516001600160e01b031960e086901b1681526004810193909352602483019190915260448201526064016020604051808303816000875af1158015613163573d6000803e3d6000fd5b505050506040513d601f19601f82011682018060405250810190613187919061613f565b9250613211565b60008054604051639e42244760e01b8152600481018690526024810192909252633b9aca0060448301526001600160a01b031690639e422447906064016020604051808303816000875af11580156131ea573d6000803e3d6000fd5b505050506040513d601f19601f8201168201806040525081019061320e919061613f565b92505b60008761323e577f9ab685290d33b4bfa7a76479497c2c3ac66df7ee4f480a88770a20f8a7491927613260565b7f87a7811f4bfedea3d341ad165680ae306b01aaeacc205d227629cf157dd9f8215b600180549192506000916132779060ff8a166160e6565b8154811061328757613287615d10565b6000918252602082200154600180546001600160a01b039092169350906132b19060ff8a166160e6565b815481106132c1576132c1615d10565b6000918252602091829020015460408051928301959095526001600160a01b039586168286018190529386166060830181905295166080820181905260a080830189905285518084039091018152610160830190955260c0820194855260e0820193909352610100810196909652506101208501929092526101409093015250949350505050565b600060607f922dccbb30e3cb381ec515eff8c12bb310dc32a0b4a26e9f9b093e54f7ff151f8360405161337c9190616221565b60405180910390a160025460405163ca669fa760e01b81526101009091046001600160a01b03166004820152737109709ecfa91a80626ff3989d68f67f5b1dd12d9063ca669fa790602401600060405180830381600087803b1580156133e157600080fd5b505af11580156133f5573d6000803e3d6000fd5b5050600b546040516001600160a01b039091169250620f42409150631c9231df60e21b90613427908790602401616221565b60408051601f198184030181529181526020820180516001600160e01b03166001600160e01b0319909416939093179092529051613465919061618f565b60006040518083038160008787f1925050503d80600081146134a3576040519150601f19603f3d011682016040523d82523d6000602084013e6134a8565b606091505b509094909350915050565b84156134f7576134c3838361401f565b6134cb614ce7565b6134d58282614d68565b6134df8282614e36565b6134e98483614250565b6134f284614259565b6105d4565b6134f284614f06565b61352d604051806060016040528060006001600160a01b0316815260200160008152602001600081525090565b600760009054906101000a90046001600160a01b03166001600160a01b0316635c975abb6040518163ffffffff1660e01b8152600401602060405180830381865afa158015613580573d6000803e3d6000fd5b505050506040513d601f19601f820116820180604052508101906135a491906160c9565b80156135b957506135b66064436160e6565b15155b156135d757604051634931f50760e01b815260040161189390616108565b60008054600254604051639e42244760e01b815260048101869052602481019390935261010090046001600160a01b039081163160448401521690639e422447906064016020604051808303816000875af115801561363a573d6000803e3d6000fd5b505050506040513d601f19601f8201168201806040525081019061365e919061613f565b600080549193506001600160a01b0390911690639e422447908590612e7e6103e887616158565b604080516001600160a01b0385168152602081018490526000916060917f93ab6d11d21cd637d7045c1279c882ef4f5906046b604a2d26c62be64b8f1427910160405180910390a160025460405163ca669fa760e01b81526101009091046001600160a01b03166004820152737109709ecfa91a80626ff3989d68f67f5b1dd12d9063ca669fa790602401600060405180830381600087803b15801561372a57600080fd5b505af115801561373e573d6000803e3d6000fd5b50506007546040516001600160a01b038981166024830152604482018990529091169250620f42409150859063497fe97160e11b90606401611f46565b85156137a05761378b848461401f565b61379361500e565b611b88611b7a83836161ab565b611b9b8561508f565b604080516080810182526000808252602082018190529181018290526060810191909152600760009054906101000a90046001600160a01b03166001600160a01b0316635c975abb6040518163ffffffff1660e01b8152600401602060405180830381865afa158015613820573d6000803e3d6000fd5b505050506040513d601f19601f8201168201806040525081019061384491906160c9565b801561385957506138566064436160e6565b15155b1561387757604051634931f50760e01b815260040161189390616108565b600580546000919061388c9060ff89166160e6565b8154811061389c5761389c615d10565b6000918252602091829020015460408051608081019091526001600160a01b03909116808252600180549194509192830191906138dc9060ff8a166160e6565b815481106138ec576138ec615d10565b6000918252602080832091909101546001600160a01b03908116845282546002546040516370a0823160e01b815261010090910483166004820152949092019391811692639e422447928a928816906370a0823190602401602060405180830381865afa158015613961573d6000803e3d6000fd5b505050506040513d601f19601f82011682018060405250810190613985919061613f565b6040516001600160e01b031960e086901b1681526004810193909352602483019190915260448201526064016020604051808303816000875af11580156139d0573d6000803e3d6000fd5b505050506040513d601f19601f820116820180604052508101906139f4919061613f565b815260008054600254604051639e42244760e01b815260048101899052602481019390935261010090046001600160a01b039081163160448401526020909301921690639e422447906064016020604051808303816000875af1158015613a5f573d6000803e3d6000fd5b505050506040513d601f19601f82011682018060405250810190613a83919061613f565b90529695505050505050565b604080516001600160a01b038087168252851660208201529081018390526000906060907fe73fe4464f85e5f49d03f1b0f255ada2a0ee282bb49e1af5d076d4daae14836590820160405180910390a160025460405163ca669fa760e01b81526101009091046001600160a01b03166004820152737109709ecfa91a80626ff3989d68f67f5b1dd12d9063ca669fa790602401600060405180830381600087803b158015613b3c57600080fd5b505af1158015613b50573d6000803e3d6000fd5b5050600754604080516001600160a01b038b811660248301528a8116604483015260648083018b905283518084039091018152608490920183526020820180516001600160e01b03166361d9ad3f60e11b1790529151919092169350620f424092508691613bbd9161618f565b600060405180830381858888f193505050503d8060008114613bfb576040519150601f19603f3d011682016040523d82523d6000602084013e613c00565b606091505b509097909650945050505050565b8515613c2657613c1e848461401f565b611fec6151d0565b611b9b85615251565b60005b8251811015613c7157613c5f84848381518110613c5157613c51615d10565b602002602001015184615359565b80613c6981616234565b915050613c32565b50613c7c83826153f8565b600860009054906101000a90046001600160a01b03166001600160a01b03166367e4e1896040518163ffffffff1660e01b8152600401602060405180830381865afa158015613ccf573d6000803e3d6000fd5b505050506040513d601f19601f82011682018060405250810190613cf3919061613f565b60ff8416600090815260166020526040902060020155600c54600854613d25916001600160a01b039081169116615767565b60ff8416600090815260166020526040902060030155600d54600854613d57916001600160a01b039081169116615767565b60ff8416600090815260166020526040902060040155600e54600754613d89916001600160a01b039081169116615767565b60ff84166000908152601660209081526040918290206005810193909355600a546001600160a01b03908116316006850155600b54811631600780860191909155600880548316318187015590548216316009909501949094559254825163a7ab696160e01b8152925193169263a7ab69619260048082019392918290030181865afa158015613e1d573d6000803e3d6000fd5b505050506040513d601f19601f82011682018060405250810190613e41919061613f565b60ff8416600090815260166020908152604091829020600a01929092556008548151635c975abb60e01b815291516001600160a01b0390911692635c975abb92600480820193918290030181865afa158015613ea1573d6000803e3d6000fd5b505050506040513d601f19601f82011682018060405250810190613ec591906160c9565b60ff8416600090815260166020908152604091829020600b01805460ff1916931515939093179092556007548151635c975abb60e01b815291516001600160a01b0390911692635c975abb92600480820193918290030181865afa158015613f31573d6000803e3d6000fd5b505050506040513d601f19601f82011682018060405250810190613f5591906160c9565b60ff8416600090815260166020908152604091829020600b0180549315156101000261ff00199094169390931790925560085481516314dee59760e31b815291516001600160a01b039091169263a6f72cb892600480820193918290030181865afa158015613fc8573d6000803e3d6000fd5b505050506040513d601f19601f82011682018060405250810190613fec91906160c9565b60ff9093166000908152601660205260409020600b018054931515620100000262ff000019909416939093179092555050565b6119e560018383613c2f565b6001600052601660205260008051602061669583398151915254610100900460ff16156124da5760008054906101000a90046001600160a01b03166001600160a01b031663a15f9f076000604051806080016040528060448152602001616898604491396040518363ffffffff1660e01b81526004016140ac92919061624d565b600060405180830381600087803b1580156140c657600080fd5b505af11580156125cf573d6000803e3d6000fd5b6000805460166020527f4c4dc693d7db52f85fe052106f4b4b920e78e8ef37dee82878a60ab8585faf50549180527f0263c2b778d062355049effc2dece97bc6547ff8a88a3258daa512061c2153e4546001600160a01b039091169163bc8d43a891614147908590616158565b6040518060a00160405280606381526020016163eb606391396040518463ffffffff1660e01b815260040161417e93929190616270565b600060405180830381600087803b15801561419857600080fd5b505af11580156105d4573d6000803e3d6000fd5b6000805460166020527f4c4dc693d7db52f85fe052106f4b4b920e78e8ef37dee82878a60ab8585faf52549180527f0263c2b778d062355049effc2dece97bc6547ff8a88a3258daa512061c2153e6546001600160a01b039091169163bc8d43a891614219908590616158565b6040518060c00160405280608e815260200161680a608e91396040518463ffffffff1660e01b815260040161417e93929190616270565b6119e58161583a565b6142616159e8565b50565b6001600052601660205260008051602061669583398151915254610100900460ff161561428e5750565b6040805160038082526080820190925260009160208201606080368337019050509050631f2a200560e01b816000815181106142cc576142cc615d10565b6001600160e01b0319909216602092830291909101909101528051631d3e008d60e21b908290600190811061430357614303615d10565b6001600160e01b031990921660209283029190910190910152805163044044a560e21b908290600290811061433a5761433a615d10565b6001600160e01b0319909216602092830291909101909101526000546001600160a01b03166388e362c661436d846161be565b83604051806060016040528060318152602001616b55603191396040518463ffffffff1660e01b81526004016143a593929190616298565b600060405180830381600087803b1580156143bf57600080fd5b505af11580156103b4573d6000803e3d6000fd5b6001600052601660205260008051602061669583398151915254610100900460ff16156124da5760008054906101000a90046001600160a01b03166001600160a01b031663a15f9f076000604051806080016040528060418152602001616503604191396040518363ffffffff1660e01b81526004016140ac92919061624d565b600080546001600160a01b038481168352600080516020616b86833981519152602090815260408085206001908101547f0263c2b778d062355049effc2dece97bc6547ff8a88a3258daa512061c2153de90935294209093015491169163bc8d43a8916144c29085906161ab565b6040518060a0016040528060718152602001616624607191396040518463ffffffff1660e01b81526004016143a593929190616270565b6001600052601660205260008051602061669583398151915254610100900460ff16156145235750565b604080516002808252606082018352600092602083019080368337019050509050631f2a200560e01b8160008151811061455f5761455f615d10565b6001600160e01b0319909216602092830291909101909101528051631d3e008d60e21b908290600190811061459657614596615d10565b6001600160e01b0319909216602092830291909101909101526000546001600160a01b03166388e362c66145c9846161be565b836040518060600160405280602e815260200161672c602e91396040518463ffffffff1660e01b81526004016143a593929190616298565b6001600052601660205260008051602061669583398151915254610100900460ff16156124da5760008054906101000a90046001600160a01b03166001600160a01b031663a15f9f0760006040518060800160405280604781526020016169b0604791396040518363ffffffff1660e01b81526004016140ac92919061624d565b6001600052601660205260008051602061669583398151915254610100900460ff16156146ac5750565b604080516002808252606082018352600092602083019080368337019050509050631f2a200560e01b816000815181106146e8576146e8615d10565b6001600160e01b0319909216602092830291909101909101528051631d3e008d60e21b908290600190811061471f5761471f615d10565b6001600160e01b0319909216602092830291909101909101526000546001600160a01b03166388e362c6614752846161be565b83604051806060016040528060348152602001616544603491396040518463ffffffff1660e01b81526004016143a593929190616298565b6040805160008082526020820190925290546001600160a01b03166388e362c66147b3846161be565b83604051806060016040528060338152602001616578603391396040518463ffffffff1660e01b81526004016143a593929190616298565b6040805160008082526020820190925290546001600160a01b03166388e362c6614814846161be565b836040518060600160405280603581526020016165ef603591396040518463ffffffff1660e01b81526004016143a593929190616298565b6001600052601660205260008051602061669583398151915254610100900460ff16156124da5760008054906101000a90046001600160a01b03166001600160a01b031663a15f9f0760006040518060800160405280604481526020016165ab604491396040518363ffffffff1660e01b81526004016140ac92919061624d565b6001600052601660205260008051602061669583398151915254610100900460ff16156148f75750565b604080516002808252606082018352600092602083019080368337019050509050631f2a200560e01b8160008151811061493357614933615d10565b6001600160e01b0319909216602092830291909101909101528051631d3e008d60e21b908290600190811061496a5761496a615d10565b6001600160e01b0319909216602092830291909101909101526000546001600160a01b03166388e362c661499d846161be565b836040518060600160405280603181526020016166fb603191396040518463ffffffff1660e01b81526004016143a593929190616298565b6001600052601660205260008051602061669583398151915254610100900460ff16156124da5760008054906101000a90046001600160a01b03166001600160a01b031663a15f9f076000604051806080016040528060458152602001616a9f604591396040518363ffffffff1660e01b81526004016140ac92919061624d565b6001600052601660205260008051602061669583398151915254610100900460ff1615614a805750565b604080516002808252606082018352600092602083019080368337019050509050631f2a200560e01b81600081518110614abc57614abc615d10565b6001600160e01b0319909216602092830291909101909101528051631d3e008d60e21b9082906001908110614af357614af3615d10565b6001600160e01b0319909216602092830291909101909101526000546001600160a01b03166388e362c6614b26846161be565b836040518060600160405280603281526020016167d8603291396040518463ffffffff1660e01b81526004016143a593929190616298565b6001600052601660205260008051602061669583398151915254610100900460ff16156124da5760008054906101000a90046001600160a01b03166001600160a01b031663a15f9f07600060405180608001604052806046815260200161693a604691396040518363ffffffff1660e01b81526004016140ac92919061624d565b6001600052601660205260008051602061669583398151915254610100900460ff1615614c095750565b604080516002808252606082018352600092602083019080368337019050509050631f2a200560e01b81600081518110614c4557614c45615d10565b6001600160e01b0319909216602092830291909101909101528051631d3e008d60e21b9082906001908110614c7c57614c7c615d10565b6001600160e01b0319909216602092830291909101909101526000546001600160a01b03166388e362c6614caf846161be565b836040518060600160405280603381526020016167a5603391396040518463ffffffff1660e01b81526004016143a593929190616298565b6001600052601660205260008051602061669583398151915254610100900460ff16156124da5760008054906101000a90046001600160a01b03166001600160a01b031663a15f9f0760006040518060800160405280605e81526020016168dc605e91396040518363ffffffff1660e01b81526004016140ac92919061624d565b6001600160a01b038216610fff1480614d8857506001600160a01b038216155b15614d91575050565b600080546001600160a01b038481168352600080516020616b86833981519152602090815260408085206001908101547f0263c2b778d062355049effc2dece97bc6547ff8a88a3258daa512061c2153de90935294209093015491169163bc8d43a891614dff908590616158565b6040518060a0016040528060718152602001616ae4607191396040518463ffffffff1660e01b81526004016143a593929190616270565b6001600160a01b038216610fff14801590614e5957506001600160a01b03821615155b15614e62575050565b6000805460166020527f4c4dc693d7db52f85fe052106f4b4b920e78e8ef37dee82878a60ab8585faf52549180527f0263c2b778d062355049effc2dece97bc6547ff8a88a3258daa512061c2153e6546001600160a01b039091169163bc8d43a891614ecf9085906161ab565b6040518060a001604052806076815260200161644e607691396040518463ffffffff1660e01b81526004016143a593929190616270565b6001600052601660205260008051602061669583398151915254610100900460ff1615614f305750565b60408051600280825260608201835260009260208301908036833701905050905063180a097760e01b81600081518110614f6c57614f6c615d10565b6001600160e01b031990921660209283029190910190910152805163c7532eaf60e01b9082906001908110614fa357614fa3615d10565b6001600160e01b0319909216602092830291909101909101526000546001600160a01b03166388e362c6614fd6846161be565b836040518060800160405280604b815260200161675a604b91396040518463ffffffff1660e01b81526004016143a593929190616298565b6001600052601660205260008051602061669583398151915254610100900460ff16156124da5760008054906101000a90046001600160a01b03166001600160a01b031663a15f9f0760006040518060800160405280604681526020016166b5604691396040518363ffffffff1660e01b81526004016140ac92919061624d565b6001600052601660205260008051602061669583398151915254610100900460ff16156150b95750565b6040805160038082526080820190925260009160208201606080368337019050509050631f2a200560e01b816000815181106150f7576150f7615d10565b6001600160e01b0319909216602092830291909101909101528051631d3e008d60e21b908290600190811061512e5761512e615d10565b6001600160e01b031990921660209283029190910190910152805163044044a560e21b908290600290811061516557615165615d10565b6001600160e01b0319909216602092830291909101909101526000546001600160a01b03166388e362c6615198846161be565b836040518060600160405280603381526020016169f7603391396040518463ffffffff1660e01b81526004016143a593929190616298565b6001600052601660205260008051602061669583398151915254610100900460ff16156124da5760008054906101000a90046001600160a01b03166001600160a01b031663a15f9f076000604051806080016040528060438152602001616ba6604391396040518363ffffffff1660e01b81526004016140ac92919061624d565b6001600052601660205260008051602061669583398151915254610100900460ff161561527b5750565b604080516002808252606082018352600092602083019080368337019050509050631f2a200560e01b816000815181106152b7576152b7615d10565b6001600160e01b0319909216602092830291909101909101528051631d3e008d60e21b90829060019081106152ee576152ee615d10565b6001600160e01b0319909216602092830291909101909101526000546001600160a01b03166388e362c6615321846161be565b83604051806060016040528060308152602001616980603091396040518463ffffffff1660e01b81526004016143a593929190616298565b600854604051637b1929b760e01b81526001600160a01b03848116600483015290911690637b1929b790602401602060405180830381865afa1580156153a3573d6000803e3d6000fd5b505050506040513d601f19601f820116820180604052508101906153c7919061613f565b60ff90931660009081526016602090815260408083206001600160a01b039095168352939052919091209190915550565b6001600160a01b03811661540a575050565b6001600160a01b038116610eee146154ad57806001600160a01b03166318160ddd6040518163ffffffff1660e01b8152600401602060405180830381865afa15801561545a573d6000803e3d6000fd5b505050506040513d601f19601f8201168201806040525081019061547e919061613f565b60ff831660009081526016602090815260408083206001600160a01b0386168452600190810190925290912001555b60005b600154811015615563576154eb82600183815481106154d1576154d1615d10565b6000918252602090912001546001600160a01b0316615767565b60ff841660009081526016602090815260408083206001600160a01b0387168452600190810190925282208154909291908590811061552c5761552c615d10565b60009182526020808320909101546001600160a01b031683528201929092526040019020558061555b81616234565b9150506154b0565b5060085461557b9082906001600160a01b0316615767565b60ff831660009081526016602090815260408083206001600160a01b0380871685526001909101835281842060085482168552909252909120919091556007546155c791839116615767565b60ff831660009081526016602090815260408083206001600160a01b038681168086526001909201845282852060075482168652909352818420949094556008549051631b34b1f560e11b81526004810194909452919283928392839291169063366963ea90602401608060405180830381865afa15801561564d573d6000803e3d6000fd5b505050506040513d601f19601f8201168201806040525081019061567191906162d6565b60ff8a1660009081526016602090815260408083206001600160a01b038d81168086526001909201909352928190206002810188905560038101879055600480820187905560059091018590556008549151634251948d60e11b81529081019390935295995093975091955093509116906384a3291a90602401602060405180830381865afa158015615708573d6000803e3d6000fd5b505050506040513d601f19601f8201168201806040525081019061572c919061613f565b60ff90961660009081526016602090815260408083206001600160a01b03909816835260019097019052949094206006019490945550505050565b6000610eed196001600160a01b0384160161578d57506001600160a01b038116316119d3565b6040516370a0823160e01b81526001600160a01b0383811660048301528416906370a0823190602401602060405180830381865afa1580156157d3573d6000803e3d6000fd5b505050506040513d601f19601f820116820180604052508101906157f7919061613f565b90506119d3565b825181101561582f5761581d848483815181106108d1576108d1615d10565b8061582781616234565b9150506157fe565b506108d18382615a65565b6001600160a01b038116610eee148061585a57506001600160a01b038116155b156158625750565b6000805b6001548110156158ef576001600160a01b0383166000908152600080516020616b868339815191526020526040812060018054919291849081106158ac576158ac615d10565b60009182526020808320909101546001600160a01b031683528201929092526040019020546158db9083616158565b9150806158e781616234565b915050615866565b506001600160a01b038083166000908152600080516020616b8683398151915260209081526040808320600854909416835292905220546159309082616158565b6001600160a01b038084166000908152600080516020616b8683398151915260209081526040808320600754909416835292905220549091506159739082616158565b600080546001600160a01b038581168352600080516020616b86833981519152602090815260409384902060010154845160a081019095526075808652959650919092169363bc8d43a8938693909190616a2a908301396040518463ffffffff1660e01b81526004016143a593929190616270565b6000805460018252601660209081527f4c4dc693d7db52f85fe052106f4b4b920e78e8ef37dee82878a60ab8585faf4e546040805160608101909152603f8082526001600160a01b039094169463bc8d43a89492939092906164c4908301396040518463ffffffff1660e01b81526004016140ac93929190616270565b6000546040805163319af33360e01b81526004810191909152600f60448201526e02a37b5b2b71030b2323932b9b99d1608d1b60648201526001600160a01b0383811660248301529091169063319af33390608401600060405180830381600087803b158015615ad457600080fd5b505af1158015615ae8573d6000803e3d6000fd5b5050506001600160a01b0382169050615aff575050565b6001600160a01b038116610eee146119e55760008054604080516306fdde0360e01b815290516001600160a01b0392831693634b5c4277938616926306fdde0392600480830193928290030181865afa158015615b60573d6000803e3d6000fd5b505050506040513d6000823e601f3d908101601f19168201604052615b88919081019061630c565b6040518263ffffffff1660e01b81526004016143a591906163b9565b60008060408385031215615bb757600080fd5b50508035926020909101359150565b803560ff81168114615bd757600080fd5b919050565b600080600060608486031215615bf157600080fd5b615bfa84615bc6565b95602085013595506040909401359392505050565b801515811461426157600080fd5b600080600080600060a08688031215615c3557600080fd5b8535615c4081615c0f565b9450615c4e60208701615bc6565b9350615c5c60408701615bc6565b9250615c6a60608701615bc6565b949793965091946080013592915050565b60008060008060808587031215615c9157600080fd5b615c9a85615bc6565b9350615ca860208601615bc6565b93969395505050506040820135916060013590565b634e487b7160e01b600052601160045260246000fd5b6001600160a01b03818116838216019080821115615cf357615cf3615cbd565b5092915050565b634e487b7160e01b600052604160045260246000fd5b634e487b7160e01b600052603260045260246000fd5b600081518084526020808501945080840160005b83811015615d605781516001600160e01b03191687529582019590820190600101615d3a565b509495945050505050565b63ffffffff60e01b83168152606060208201526000615d8d6060830184615d26565b828103604093840152600781526653454c462d303760c81b6020820152919091019392505050565b63ffffffff60e01b83168152606060208201526000615dd76060830184615d26565b828103604093840152600781526653454c462d303560c81b6020820152919091019392505050565b63ffffffff60e01b83168152606060208201526000615e216060830184615d26565b828103604093840152600781526614d153118b4c0d60ca1b6020820152919091019392505050565b63ffffffff60e01b83168152606060208201526000615e6b6060830184615d26565b828103604093840152600781526653454c462d303360c81b6020820152919091019392505050565b63ffffffff60e01b83168152606060208201526000615eb56060830184615d26565b82810360409384015260078152660a68a988c5a60760cb1b6020820152919091019392505050565b63ffffffff60e01b83168152606060208201526000615eff6060830184615d26565b828103604093840152600781526653454c462d303160c81b6020820152919091019392505050565b63ffffffff60e01b83168152606060208201526000615f496060830184615d26565b828103604093840152600781526629a2a62316981960c91b6020820152919091019392505050565b63ffffffff60e01b83168152606060208201526000615f936060830184615d26565b828103604093840152600781526653454c462d313160c81b6020820152919091019392505050565b63ffffffff60e01b83168152606060208201526000615fdd6060830184615d26565b8281036040938401526007815266053454c462d31360cc1b6020820152919091019392505050565b60006020828403121561601757600080fd5b81516001600160a01b038116811461602e57600080fd5b9392505050565b63ffffffff60e01b831681526060602082015260006160576060830184615d26565b828103604093840152600781526629a2a62316981b60c91b6020820152919091019392505050565b63ffffffff60e01b831681526060602082015260006160a16060830184615d26565b828103604093840152600781526653454c462d303960c81b6020820152919091019392505050565b6000602082840312156160db57600080fd5b815161602e81615c0f565b60008261610357634e487b7160e01b600052601260045260246000fd5b500690565b6020808252601b908201527f4368696c642062726964676520616c7265616479207061757365640000000000604082015260600190565b60006020828403121561615157600080fd5b5051919050565b808201808211156119d3576119d3615cbd565b60005b8381101561618657818101518382015260200161616e565b50506000910152565b600082516161a181846020870161616b565b9190910192915050565b818103818111156119d3576119d3615cbd565b805160208201516001600160e01b031980821692919060048310156161ed5780818460040360031b1b83161693505b505050919050565b6000815180845261620d81602086016020860161616b565b601f01601f19169290920160200192915050565b60208152600061602e60208301846161f5565b60006001820161624657616246615cbd565b5060010190565b821515815260406020820152600061626860408301846161f5565b949350505050565b83815282602082015260606040820152600061628f60608301846161f5565b95945050505050565b63ffffffff60e01b841681526060602082015260006162ba6060830185615d26565b82810360408401526162cc81856161f5565b9695505050505050565b600080600080608085870312156162ec57600080fd5b505082516020840151604085015160609095015191969095509092509050565b60006020828403121561631e57600080fd5b815167ffffffffffffffff8082111561633657600080fd5b818401915084601f83011261634a57600080fd5b81518181111561635c5761635c615cfa565b604051601f8201601f19908116603f0116810190838211818310171561638457616384615cfa565b8160405282815287602084870101111561639d57600080fd5b6163ae83602083016020880161616b565b979650505050505050565b60408152600760408201526602a37b5b2b71d160cd1b606082015260806020820152600061602e60808301846161f556fe42414c2d30343a20546865206e61746976652062616c616e6365206f6620746865206368696c642061646170746f7220696e637265617365732062792065786163746c792074686520676173206665657320706169642062792074686520757365727342414c2d30393a20546865206e61746976652062616c616e6365206f6620746865206368696c6420627269646765206465637265617365732062792065786163746c792074686520616d6f756e74206f6620726f6f7420455243323020494d58206465706f736974656420627920746865207573657242414c2d30323a205468652057494d582062616c616e6365206f6620746865206368696c64206272696467652073686f756c6420616c77617973206265203050415553452d30383a20776974686472617720616c776179732072657665727473207768656e20746865206368696c642062726964676520697320706175736564434c445245562d31313a20776974686472617757494d58546f206e65766572207265766572747320756e65787065637465646c79434c445245562d30323a20706175736520666f7220746865206368696c6420627269646765206e65766572207265766572747350415553452d30393a20776974686472617745544820616c776179732072657665727473207768656e20746865206368696c642062726964676520697320706175736564434c445245562d30333a20756e706175736520666f7220746865206368696c6420627269646765206e65766572207265766572747353504c592d30343a2054686520746f74616c20737570706c79206f66206368696c6420455243323073206d757374206265206465637265617365642062792065786163746c792074686520616d6f756e74206f6620746f6b656e732077697468647261776e2062792074686520757365724c4dc693d7db52f85fe052106f4b4b920e78e8ef37dee82878a60ab8585faf5450415553452d31323a207769746864726177494d58546f20616c776179732072657665727473207768656e20746865206368696c642062726964676520697320706175736564434c445245562d30353a207769746864726177455448206e65766572207265766572747320756e65787065637465646c79434c445245562d30343a207769746864726177206e65766572207265766572747320756e65787065637465646c79434c445245562d30313a206f6e4d6573736167655265636569766520666f7220746865206368696c6420627269646765206e65766572207265766572747320756e65787065637465646c79434c445245562d30363a207769746864726177455448546f206e65766572207265766572747320756e65787065637465646c79434c445245562d31303a20776974686472617757494d58206e65766572207265766572747320756e65787065637465646c7942414c2d30383a205768656e207769746864726177696e6720494d582c20746865206e61746976652062616c616e6365206f6620746865206368696c642062726964676520696e637265617365732062792065786163746c792074686520616d6f756e742077697468647261776e2062792074686520757365722c206d696e75732074686520676173206665657350415553452d31313a207769746864726177494d5820616c776179732072657665727473207768656e20746865206368696c64206272696467652069732070617573656450415553452d31363a206f6e4d6573736167655265636569766520666f7220746865206368696c642062726964676520616c776179732072657665727473207768656e20746865206368696c64206272696467652069732070617573656450415553452d31303a207769746864726177455448546f20616c776179732072657665727473207768656e20746865206368696c642062726964676520697320706175736564434c445245562d30393a207769746864726177546f206e65766572207265766572747320756e65787065637465646c7950415553452d31353a20776974686472617757494d58546f20616c776179732072657665727473207768656e20746865206368696c642062726964676520697320706175736564434c445245562d30383a207769746864726177494d58546f206e65766572207265766572747320756e65787065637465646c7953504c592d30313a205468652073756d206f662074686520746f6b656e2062616c616e636573206f662065616368207573657220616e642074686520627269646765732073686f756c642062652065786163746c7920657175616c20746f2074686520746f6b656e20746f74616c20737570706c7950415553452d31343a20776974686472617757494d5820616c776179732072657665727473207768656e20746865206368696c64206272696467652069732070617573656453504c592d30333a2054686520746f74616c20737570706c79206f66206368696c6420455243323073206d75737420626520696e637265617365642062792065786163746c792074686520616d6f756e74206f6620746f6b656e73206465706f7369746564206279207468652075736572434c445245562d30373a207769746864726177494d58206e65766572207265766572747320756e65787065637465646c794c4dc693d7db52f85fe052106f4b4b920e78e8ef37dee82878a60ab8585faf4a50415553452d31333a207769746864726177546f20616c776179732072657665727473207768656e20746865206368696c642062726964676520697320706175736564a2646970667358221220f93efbdb7320cc1f1a23374540830dd832af7f0a5b1bb92f647e6d4ddfce303464736f6c63430008130033608060405234801561001057600080fd5b506132d8806100206000396000f3fe608060405234801561001057600080fd5b50600436106104125760003560e01c80637e1ddd8011610220578063b60e72cc11610130578063e01e92d2116100b8578063f09ced9711610087578063f09ced9714610929578063f0f4b6521461093c578063f5bc3a711461094f578063f5c466f614610962578063fb9894b21461097557600080fd5b8063e01e92d2146108ca578063e894090d146108f0578063eef2538914610903578063f01ff64c1461091657600080fd5b8063c3b55635116100ff578063c3b5563514610876578063c5df2a3714610889578063d2a506041461089c578063de9b2232146108af578063df7cd77f146108b757600080fd5b8063b60e72cc1461082a578063bb35031a1461083d578063bc8d43a814610850578063c0e8def21461086357600080fd5b8063942732b2116101b3578063a98283e411610182578063a98283e4146107cb578063ac0c207b146107de578063aeef9c21146107f1578063b09c41b714610804578063b2f9799d1461081757600080fd5b8063942732b21461077f578063953e5e80146107925780639e422447146107a5578063a15f9f07146107b857600080fd5b8063846213a1116101ef578063846213a11461073357806388e362c6146107465780638c4fb57d146107595780638f5e514a1461076c57600080fd5b80637e1ddd80146106e75780638010bad3146106fa57806381fe57861461070d578063841ea11c1461072057600080fd5b8063319af33311610326578063568c1385116102ae5780636c9764b31161027d5780636c9764b3146106885780636d5433e61461069b57806372de77b5146106ae5780637ae2b5c7146106c15780637b8d0f0c146106d457600080fd5b8063568c13851461061f5780635c2b80f5146106325780636945c5ea146106455780636ace552c1461067557600080fd5b80633ccb5e26116102f55780633ccb5e26146105a857806341304fac146105bb57806342068767146105ce5780634b5c4277146105e15780634bde38c8146105f457600080fd5b8063319af3331461056f5780633692d61a146104fd5780633b6ddf03146105825780633ca6268e1461059557600080fd5b80631b55d07c116103a9578063213cde2c11610378578063213cde2c1461051057806323cdd8e8146105235780632d40851e146105365780632e17d472146105495780632ffde6031461055c57600080fd5b80631b55d07c146104c45780631b5ac4b5146104d75780631ba0399b146104ea5780631fc4755e146104fd57600080fd5b8063084ec410116103e5578063084ec4101461047857806309fd38991461048b5780631059bfc91461049e57806314ec1cc6146104b157600080fd5b806301b9e8271461041757806304fbe1c51461042c57806306cb00111461043f57806306f8234214610465575b600080fd5b61042a610425366004612329565b610988565b005b61042a61043a366004612388565b610a6b565b61045261044d3660046123d5565b610a79565b6040519081526020015b60405180910390f35b61042a610473366004612329565b610b4d565b610452610486366004612414565b610b6c565b6104526104993660046123d5565b610c09565b61042a6104ac366004612449565b610cfe565b61042a6104bf366004612329565b610d17565b6104526104d2366004612414565b610d91565b6104526104e53660046124ac565b610df3565b61042a6104f8366004612329565b610e13565b61042a61050b3660046124c5565b610e8d565b61042a61051e3660046124c5565b610e97565b61042a610531366004612449565b610ea1565b610452610544366004612414565b610eab565b610452610557366004612414565b610ec6565b61045261056a366004612414565b610ee1565b61042a61057d366004612520565b610f0a565b61042a610590366004612329565b610f14565b61042a6105a33660046124c5565b610f8e565b61042a6105b6366004612564565b610f98565b61042a6105c93660046125ab565b610fc9565b61042a6105dc366004612449565b610fd5565b61042a6105ef366004612449565b610fed565b600054610607906001600160a01b031681565b6040516001600160a01b03909116815260200161045c565b61045261062d3660046125df565b610ff7565b61042a610640366004612329565b61101a565b61042a610653366004612601565b600080546001600160a01b0319166001600160a01b0392909216919091179055565b61042a61068336600461263f565b611094565b61042a6106963660046126ed565b611158565b6104526106a93660046125df565b611288565b61042a6106bc366004612719565b61129e565b6104526106cf3660046125df565b611319565b6104526106e23660046127ea565b611328565b6104526106f53660046125df565b611337565b61042a610708366004612816565b611345565b61045261071b3660046125df565b6113ad565b61042a61072e366004612329565b6113bc565b61042a6107413660046128c2565b6113dc565b61042a6107543660046129ac565b611431565b61042a610767366004612329565b61149e565b61045261077a3660046125df565b611518565b61042a61078d366004612449565b611536565b6104526107a0366004612414565b611540565b6104526107b33660046127ea565b611556565b61042a6107c63660046129f2565b611565565b61042a6107d93660046124c5565b6115f5565b6104526107ec3660046125df565b6115ff565b61042a6107ff3660046125ab565b61160d565b61042a610812366004612a35565b611616565b610452610825366004612414565b61169b565b61042a6108383660046124c5565b6116d4565b61042a61084b366004612329565b6116de565b61042a61085e366004612329565b6116fe565b61042a610871366004612329565b61171d565b61042a610884366004612388565b61173c565b6104526108973660046125df565b611746565b61042a6108aa366004612329565b611754565b61042a611773565b61042a6108c5366004612b1c565b61177d565b6108dd6108d8366004612b48565b611843565b604051600f9190910b815260200161045c565b6104526108fe3660046125df565b611859565b610452610911366004612414565b611867565b6104526109243660046125df565b611888565b6104526109373660046125df565b611896565b61042a61094a366004612520565b6118a4565b61045261095d3660046125df565b6118ae565b61042a610970366004612449565b6118ba565b6104526109833660046125df565b6118c4565b818310610a6657600061099a846118d2565b905060006109a7846118d2565b905060006109d18383604051806040016040528060028152602001613e3d60f01b81525087611916565b90507f46d01dfbc4861b5b859d858d541e8b0046175a8dece70e24f892a3318f70e2bb81604051610a029190612bbb565b60405180910390a160008054604080516309ccaefb60e01b815290516001600160a01b03909216926309ccaefb92600480840193829003018186803b158015610a4a57600080fd5b505afa158015610a5e573d6000803e3d6000fd5b505050505050505b505050565b610a758282611948565b5050565b600083851080610a8857508285115b15610b42576000610a998585612be4565b610aa4906001612bf7565b610aae9087612c20565b610ab89086612bf7565b90508215610b3b576000610acb876118d2565b90506000610ad8836118d2565b905060008282604051602001610aef929190612c34565b60405160208183030381529060405290507f4cb9c134519750e09450a0c38d146fed2eced02dd651ef32c9e3488faa55c6f681604051610b2f9190612bbb565b60405180910390a15050505b9050610b45565b50835b949350505050565b818312610a66576000610b5f84611985565b905060006109a784611985565b600082841315610bff57828215610bf8576000610b8886611985565b90506000610b9583611985565b905060008282604051602001610bac929190612c34565b60405160208183030381529060405290507f4cb9c134519750e09450a0c38d146fed2eced02dd651ef32c9e3488faa55c6f681604051610bec9190612bbb565b60405180910390a15050505b9050610c02565b50825b9392505050565b600083851280610c1857508285135b15610b42576000610c298585612c8e565b610c34906001612cae565b9050600081610c438789612c8e565b610c4d9190612cd6565b90506000811215610c6557610c628282612cae565b90505b6000610c718288612cae565b90508415610cf4576000610c8489611985565b90506000610c9183611985565b905060008282604051602001610ca8929190612c34565b60405160208183030381529060405290507f4cb9c134519750e09450a0c38d146fed2eced02dd651ef32c9e3488faa55c6f681604051610ce89190612bbb565b60405180910390a15050505b9250610b45915050565b6000610d0a83836119e0565b9050610a66811583611565565b818314610a66576000610d2984611985565b90506000610d3684611985565b90506000610d60838360405180604001604052806002815260200161213d60f01b81525087611916565b90507f2d2d38c9a34df9887a6dcb2a54c1f79ff8bf9c4d4cafacd7d1f7277f57baab6f81604051610a029190612bbb565b6000828411610dec57610dbf836000196040518060800160405280605a8152602001613249605a913961149e565b6000610dcc846001612bf7565b90508215610bf8576000610ddf866118d2565b90506000610b95836118d2565b5082610c02565b600080821215610e0b57610e0682612cea565b610e0d565b815b92915050565b81831315610a66576000610e2684611985565b90506000610e3384611985565b90506000610e5c8383604051806040016040528060018152602001601f60f91b81525087611916565b90507f62bdda9a05cdbcdbf905cbad99c6ebdc098b6f0933d8f2eb3cfab7400b60251481604051610a029190612bbb565b610a758282611a41565b610a758282611a72565b610a758282611aa3565b6000828413610bff57828215610bf8576000610b8886611985565b6000828411610bff57828215610bf8576000610ddf866118d2565b6000828412610bff576000610ef7600185612c8e565b90508215610bf8576000610b8886611985565b610a758282611ad4565b81831215610a66576000610f2784611985565b90506000610f3484611985565b90506000610f5d8383604051806040016040528060018152602001600f60fa1b81525087611916565b90507f94424ed24fb39638b64817c737dd443f387aaa1486614da449b6686a642d6d6c81604051610a029190612bbb565b610a758282611b05565b816001600160a01b0316836001600160a01b031614610a66576000610fbc84611b36565b90506000610d3684611b36565b610fd281611c7d565b50565b6000610fe183836119e0565b9050610a668183611565565b610a758282611cb7565b6000818312156110105761100b8383612c8e565b610c02565b610c028284612c8e565b818311610a6657600061102c846118d2565b90506000611039846118d2565b905060006110638383604051806040016040528060028152602001613c3d60f01b81525087611916565b90507f707b8c56e4c211cf1321faeb4148237062228db2fcecc9be487e83a2680e7e5081604051610a029190612bbb565b6000600183516110a49190612be4565b90505b8015610a665760008184516110bc9190612be4565b6110c69084612c20565b905060008483815181106110dc576110dc612d06565b6020026020010151905060008583815181106110fa576110fa612d06565b602002602001015190508086858151811061111757611117612d06565b6020026020010181815250508186848151811061113657611136612d06565b602002602001018181525050505050808061115090612d1c565b9150506110a7565b6001600160e01b031983811690831614610a6657604080516001600160e01b0319858116602083015282516004818403018152602483018452908516604483015282516028818403018152604890920190925260006111b683611ce8565b905060006111c383611ce8565b905060006111ed838360405180604001604052806002815260200161213d60f01b81525089611916565b90507f2d2d38c9a34df9887a6dcb2a54c1f79ff8bf9c4d4cafacd7d1f7277f57baab6f8160405161121e9190612bbb565b60405180910390a160008054604080516309ccaefb60e01b815290516001600160a01b03909216926309ccaefb92600480840193829003018186803b15801561126657600080fd5b505afa15801561127a573d6000803e3d6000fd5b505050505050505050505050565b60008183116112975781610c02565b5090919050565b60006112aa86866119e0565b806112ba57506112ba86856119e0565b806112ca57506112ca86846119e0565b806112da57506112da86836119e0565b90506000858585856040516020016112f59493929190612d33565b60405160208183030381529060405290506113108282611565565b50505050505050565b60008183106112975781610c02565b6000610b458484846001610c09565b6000610c0283836001610eab565b600061135185856119e0565b80611361575061136185846119e0565b80611371575061137185836119e0565b9050600084848460405160200161138a93929190612dae565b60405160208183030381529060405290506113a58282611565565b505050505050565b60008183136112975781610c02565b81831015610a665760006113cf846118d2565b90506000610f34846118d2565b60006113e884846119e0565b806113f857506113f884836119e0565b90506000838360405160200161140f929190612e0b565b604051602081830303815290604052905061142a8282611565565b5050505050565b6000805b835181101561148d5783818151811061145057611450612d06565b60200260200101516001600160e01b031916856001600160e01b0319160361147b576001915061148d565b8061148581612e4a565b915050611435565b506114988183611565565b50505050565b818303610a665760006114b0846118d2565b905060006114bd846118d2565b905060006114e78383604051806040016040528060028152602001613d3d60f01b81525087611916565b90507fff4de080d2384f233e1a4fb3268e8f715d8802217ad2382235900a274dde76dd81604051610a029190612bbb565b60008183101561152c5761100b8383612be4565b610c028284612be4565b610a758282611ebb565b6000828413610dec576000610ef7846001612cae565b6000610b458484846001610a79565b81610a75577feb03ca8c87c7849bef8f54cfdd2c6b967b2734fe872f751978c34bb91e13d351816040516115999190612bbb565b60405180910390a160008054604080516309ccaefb60e01b815290516001600160a01b03909216926309ccaefb92600480840193829003018186803b1580156115e157600080fd5b505afa1580156113a5573d6000803e3d6000fd5b610a758282611eec565b6000610c0283836001610b6c565b610fd281611f1d565b60008060005b84518110156116775784818151811061163757611637612d06565b60200260200101516001600160e01b031916866001600160e01b031916036116655760019250809150611677565b8061166f81612e4a565b91505061161c565b5061142a8284838151811061168e5761168e612d06565b6020026020010151611565565b6000828410610bff576116c88360006040518060800160405280605181526020016131f86051913961149e565b6000610dcc8486612c20565b610a758282611f4c565b81831115610a665760006116f1846118d2565b90506000610e33846118d2565b818314610a66576000611710846118d2565b90506000610d36846118d2565b818303610a6657600061172f84611985565b905060006114bd84611985565b610a758282611f7d565b6000610c0283836001611867565b818313610a6657600061176684611985565b9050600061103984611985565b61177b611fae565b565b81151583151514610a66576000836117b2576040518060400160405280600581526020016466616c736560d81b8152506117d0565b604051806040016040528060048152602001637472756560e01b8152505b90506000836117fc576040518060400160405280600581526020016466616c736560d81b815250610d36565b604051806040016040528060048152602001637472756560e01b81525090506000610d60838360405180604001604052806002815260200161213d60f01b81525087611916565b60008082600f0b1215610e0b57610e0682612e63565b6000610c0283836001610ec6565b600082841115610bff57600061187e846001612bf7565b610dcc9086612c20565b6000610c0283836001610ee1565b6000610c0283836001611540565b610a758282611fd9565b6000610c0283836118ae565b610a75828261200a565b6000610c0283836001610d91565b606060a06040510180604052602081039150506000815280825b600183039250600a81066030018353600a9004806118ec5750819003601f19909101908152919050565b60608483858460405160200161192f9493929190612e92565b6040516020818303038152906040529050949350505050565b7ff9a6ee38cd6e0347cb8c6a74ff6a63ee77c626ba70466aadfa86f9272fa3b8988282604051611979929190612f1c565b60405180910390a15050565b606060008083121561199f5761199a83612cea565b6119a1565b825b90506119ac816118d2565b915060008312156119da57816040516020016119c89190612f40565b60405160208183030381529060405291505b50919050565b6000816040516020016119f39190612f69565b60405160208183030381529060405280519060200120611a128461203b565b604051602001611a229190612f69565b6040516020818303038152906040528051906020012014905092915050565b7f02d93529bba9d141e5e06733c52c7e6fbcb1149586adb5c24064b522ab26f1d78282604051611979929190612f85565b7f9baa6cc96f4ef57470cb9af41561fd39032f77ca4a067930807bb7d0d3386cbf8282604051611979929190612f85565b7fe8407a0209fa99ec3a7228aff140c3d3e68bd279391739c7e0b65cd406cc93b58282604051611979929190612fa7565b7f62ddffe5b5108385f7a590f100e1ee414ad9551a31f089e64e82998440785e1e8282604051611979929190612fd5565b7f6a837ff3973aa4181e7b9f07756f8b7ee366dd85a36655d2cb42cd47f10b96388282604051611979929190612f85565b60408051602880825260608281019093526000919060208201818036833701905050905060005b6014811015611c76576000611b73826013612be4565b611b7e906008612fff565b611b899060026130fa565b611b9c906001600160a01b038716613106565b60f81b9050600060108260f81c611bb3919061311a565b60f81b905060008160f81c6010611bca919061313c565b8360f81c611bd89190613158565b60f81b9050611be68261222b565b85611bf2866002612fff565b81518110611c0257611c02612d06565b60200101906001600160f81b031916908160001a905350611c228161222b565b85611c2e866002612fff565b611c39906001612bf7565b81518110611c4957611c49612d06565b60200101906001600160f81b031916908160001a9053505050508080611c6e90612e4a565b915050611b5d565b5092915050565b7fcf34ef537ac33ee1ac626ca1587a0a7e8e51561e5514f8cb36afa1c5102b3bab81604051611cac9190612bbb565b60405180910390a150565b7f27a8767ed172b48d7cf6dbb25d2840c5fa91ef78fa6e05c13c82763d099f03ca8282604051611979929190612fa7565b6060600082516002611cfa9190612fff565b611d05906002612bf7565b6001600160401b03811115611d1c57611d1c612266565b6040519080825280601f01601f191660200182016040528015611d46576020820181803683370190505b509050600360fc1b81600081518110611d6157611d61612d06565b60200101906001600160f81b031916908160001a905350600f60fb1b81600181518110611d9057611d90612d06565b60200101906001600160f81b031916908160001a90535060005b8351811015611c76576000848281518110611dc757611dc7612d06565b016020015160f881901c91506f181899199a1a9b1b9c1cb0b131b232b360811b9060fc1c60108110611dfb57611dfb612d06565b1a60f81b83611e0b846002612fff565b611e16906002612bf7565b81518110611e2657611e26612d06565b60200101906001600160f81b031916908160001a9053506f181899199a1a9b1b9c1cb0b131b232b360811b600f821660108110611e6557611e65612d06565b1a60f81b83611e75846002612fff565b611e80906003612bf7565b81518110611e9057611e90612d06565b60200101906001600160f81b031916908160001a905350508080611eb390612e4a565b915050611daa565b7ff169276b421e6d6b4430d1934bd14cc5436305ad11e2baa67140844bb13b7e7e8282604051611979929190612fa7565b7f4ef9664a46ffe035712aa3615617c7b5aa782326d58e8949db4bee48182041938282604051611979929190612f85565b7fb42604cb105a16c8f6db8a41e6b00c0c1b4826465e8bc504b3eb3e88b3e6a4a081604051611cac9190612bbb565b7f941296a39ea107bde685522318a4b6c2b544904a5dd82a512748ca2cf839bef78282604051611979929190612f85565b7f4c34c2f9a78632f29fa59aaed5514cb742fd9fbcfd7ccc2c03c85f2bbc621c478282604051611979929190612f1c565b6040517ff92d4a94d1d5014696dcfc65a0a061af97608eebd7fea0519ff4fdbca71bae9f90600090a1565b7fe5232ba17154fdf2ae11846af09e8bd8420aa21035026ac88db6cfb8c7b490128282604051611979929190612fd5565b7fadc81638cfe9dc2f2e4e4f759b26f2006a87eb612d65bcd2828f72b14c0584448282604051611979929190612fa7565b606081516024036121ce5760408051808201909152600e81526d50616e69632875696e743235362960901b6020909101527f4e487b71539e0164c9d29506cc725e49342bcac15e0927282bf30fedfe1c726860005b6004811015612123578181600481106120ab576120ab612d06565b1a60f81b6001600160f81b0319168482815181106120cb576120cb612d06565b01602001516001600160f81b03191614612111575050604080518082019091526013815272556e646566696e6564207369676e617475726560681b602082015292915050565b8061211b81612e4a565b915050612090565b50600060045b602481101561216a57600882901b915084818151811061214b5761214b612d06565b016020015160f81c91909117908061216281612e4a565b915050612129565b508060110361219b57505060408051808201909152600981526850616e69632831372960b81b602082015292915050565b5050604080518082019091526014815273556e646566696e65642070616e696320636f646560601b602082015292915050565b60448251101561221157505060408051808201909152601d81527f5472616e73616374696f6e2072657665727465642073696c656e746c79000000602082015290565b60048201915081806020019051810190610e0d9190613171565b6000600a60f883901c10156122525761224960f883901c60306131de565b60f81b92915050565b61224960f883901c60576131de565b919050565b634e487b7160e01b600052604160045260246000fd5b604051601f8201601f191681016001600160401b03811182821017156122a4576122a4612266565b604052919050565b60006001600160401b038211156122c5576122c5612266565b50601f01601f191660200190565b600082601f8301126122e457600080fd5b81356122f76122f2826122ac565b61227c565b81815284602083860101111561230c57600080fd5b816020850160208301376000918101602001919091529392505050565b60008060006060848603121561233e57600080fd5b833592506020840135915060408401356001600160401b0381111561236257600080fd5b61236e868287016122d3565b9150509250925092565b8035801515811461226157600080fd5b6000806040838503121561239b57600080fd5b82356001600160401b038111156123b157600080fd5b6123bd858286016122d3565b9250506123cc60208401612378565b90509250929050565b600080600080608085870312156123eb57600080fd5b84359350602085013592506040850135915061240960608601612378565b905092959194509250565b60008060006060848603121561242957600080fd5b833592506020840135915061244060408501612378565b90509250925092565b6000806040838503121561245c57600080fd5b82356001600160401b038082111561247357600080fd5b61247f868387016122d3565b9350602085013591508082111561249557600080fd5b506124a2858286016122d3565b9150509250929050565b6000602082840312156124be57600080fd5b5035919050565b600080604083850312156124d857600080fd5b82356001600160401b038111156124ee57600080fd5b6124fa858286016122d3565b95602094909401359450505050565b80356001600160a01b038116811461226157600080fd5b6000806040838503121561253357600080fd5b82356001600160401b0381111561254957600080fd5b612555858286016122d3565b9250506123cc60208401612509565b60008060006060848603121561257957600080fd5b61258284612509565b925061259060208501612509565b915060408401356001600160401b0381111561236257600080fd5b6000602082840312156125bd57600080fd5b81356001600160401b038111156125d357600080fd5b610b45848285016122d3565b600080604083850312156125f257600080fd5b50508035926020909101359150565b60006020828403121561261357600080fd5b610c0282612509565b60006001600160401b0382111561263557612635612266565b5060051b60200190565b6000806040838503121561265257600080fd5b82356001600160401b0381111561266857600080fd5b8301601f8101851361267957600080fd5b803560206126896122f28361261c565b82815260059290921b830181019181810190888411156126a857600080fd5b938201935b838510156126c6578435825293820193908201906126ad565b98969091013596505050505050565b80356001600160e01b03198116811461226157600080fd5b60008060006060848603121561270257600080fd5b61270b846126d5565b9250612590602085016126d5565b600080600080600060a0868803121561273157600080fd5b85356001600160401b038082111561274857600080fd5b61275489838a016122d3565b9650602088013591508082111561276a57600080fd5b61277689838a016122d3565b9550604088013591508082111561278c57600080fd5b61279889838a016122d3565b945060608801359150808211156127ae57600080fd5b6127ba89838a016122d3565b935060808801359150808211156127d057600080fd5b506127dd888289016122d3565b9150509295509295909350565b6000806000606084860312156127ff57600080fd5b505081359360208301359350604090920135919050565b6000806000806080858703121561282c57600080fd5b84356001600160401b038082111561284357600080fd5b61284f888389016122d3565b9550602087013591508082111561286557600080fd5b612871888389016122d3565b9450604087013591508082111561288757600080fd5b612893888389016122d3565b935060608701359150808211156128a957600080fd5b506128b6878288016122d3565b91505092959194509250565b6000806000606084860312156128d757600080fd5b83356001600160401b03808211156128ee57600080fd5b6128fa878388016122d3565b9450602086013591508082111561291057600080fd5b61291c878388016122d3565b9350604086013591508082111561293257600080fd5b5061236e868287016122d3565b600082601f83011261295057600080fd5b813560206129606122f28361261c565b82815260059290921b8401810191818101908684111561297f57600080fd5b8286015b848110156129a157612994816126d5565b8352918301918301612983565b509695505050505050565b6000806000606084860312156129c157600080fd5b6129ca846126d5565b925060208401356001600160401b03808211156129e657600080fd5b61291c8783880161293f565b60008060408385031215612a0557600080fd5b612a0e83612378565b915060208301356001600160401b03811115612a2957600080fd5b6124a2858286016122d3565b600080600060608486031215612a4a57600080fd5b612a53846126d5565b92506020808501356001600160401b0380821115612a7057600080fd5b612a7c8883890161293f565b94506040870135915080821115612a9257600080fd5b818701915087601f830112612aa657600080fd5b8135612ab46122f28261261c565b81815260059190911b8301840190848101908a831115612ad357600080fd5b8585015b83811015612b0b57803585811115612aef5760008081fd5b612afd8d89838a01016122d3565b845250918601918601612ad7565b508096505050505050509250925092565b600080600060608486031215612b3157600080fd5b612b3a84612378565b925061259060208501612378565b600060208284031215612b5a57600080fd5b813580600f0b8114610c0257600080fd5b60005b83811015612b86578181015183820152602001612b6e565b50506000910152565b60008151808452612ba7816020860160208601612b6b565b601f01601f19169290920160200192915050565b602081526000610c026020830184612b8f565b634e487b7160e01b600052601160045260246000fd5b81810381811115610e0d57610e0d612bce565b80820180821115610e0d57610e0d612bce565b634e487b7160e01b600052601260045260246000fd5b600082612c2f57612c2f612c0a565b500690565b6e021b630b6b834b733903b30b63ab29608d1b815260008351612c5e81600f850160208801612b6b565b630103a37960e51b600f918401918201528351612c82816013840160208801612b6b565b01601301949350505050565b8181036000831280158383131683831282161715611c7657611c76612bce565b8082018281126000831280158216821582161715612cce57612cce612bce565b505092915050565b600082612ce557612ce5612c0a565b500790565b6000600160ff1b8201612cff57612cff612bce565b5060000390565b634e487b7160e01b600052603260045260246000fd5b600081612d2b57612d2b612bce565b506000190190565b60008551612d45818460208a01612b6b565b80830190506301027a9160e51b8082528651612d68816004850160208b01612b6b565b600492019182018190528551612d85816008850160208a01612b6b565b60089201918201528351612da081600c840160208801612b6b565b01600c019695505050505050565b60008451612dc0818460208901612b6b565b80830190506301027a9160e51b8082528551612de3816004850160208a01612b6b565b60049201918201528351612dfe816008840160208801612b6b565b0160080195945050505050565b60008351612e1d818460208801612b6b565b6301027a9160e51b9083019081528351612e3e816004840160208801612b6b565b01600401949350505050565b600060018201612e5c57612e5c612bce565b5060010190565b600081600f0b6f7fffffffffffffffffffffffffffffff198103612e8957612e89612bce565b60000392915050565b68024b73b30b634b21d160bd1b815260008551612eb6816009850160208a01612b6b565b855190830190612ecd816009840160208a01612b6b565b8551910190612ee3816009840160208901612b6b565b69016103932b0b9b7b71d160b51b600992909101918201528351612f0e816013840160208801612b6b565b016013019695505050505050565b604081526000612f2f6040830185612b8f565b905082151560208301529392505050565b602d60f81b815260008251612f5c816001850160208701612b6b565b9190910160010192915050565b60008251612f7b818460208701612b6b565b9190910192915050565b604081526000612f986040830185612b8f565b90508260208301529392505050565b604081526000612fba6040830185612b8f565b8281036020840152612fcc8185612b8f565b95945050505050565b604081526000612fe86040830185612b8f565b905060018060a01b03831660208301529392505050565b8082028115828204841417610e0d57610e0d612bce565b600181815b8085111561305157816000190482111561303757613037612bce565b8085161561304457918102915b93841c939080029061301b565b509250929050565b60008261306857506001610e0d565b8161307557506000610e0d565b816001811461308b5760028114613095576130b1565b6001915050610e0d565b60ff8411156130a6576130a6612bce565b50506001821b610e0d565b5060208310610133831016604e8410600b84101617156130d4575081810a610e0d565b6130de8383613016565b80600019048211156130f2576130f2612bce565b029392505050565b6000610c028383613059565b60008261311557613115612c0a565b500490565b600060ff83168061312d5761312d612c0a565b8060ff84160491505092915050565b60ff8181168382160290811690818114611c7657611c76612bce565b60ff8281168282160390811115610e0d57610e0d612bce565b60006020828403121561318357600080fd5b81516001600160401b0381111561319957600080fd5b8201601f810184136131aa57600080fd5b80516131b86122f2826122ac565b8181528560208385010111156131cd57600080fd5b612fcc826020830160208601612b6b565b60ff8181168382160190811115610e0d57610e0d612bce56fe636c616d704c742063616e6e6f7420636c616d702076616c7565206120746f206265206c657373207468616e207a65726f2e20436865636b20796f757220696e707574732f617373756d7074696f6e732e636c616d7047742063616e6e6f7420636c616d702076616c7565206120746f206265206c6172676572207468616e2075696e743235362e6d61782e20436865636b20796f757220696e707574732f617373756d7074696f6e732ea2646970667358221220c1ab78af8ee6c8aab6467ac695987e0d246b71ca2537b72395f812f8aa8bd85f64736f6c634300081300336080604052348015600f57600080fd5b5060898061001e6000396000f3fe6080604052348015600f57600080fd5b506004361060285760003560e01c806309ccaefb14602d575b600080fd5b60336035565b005b603b603d565b565b634e487b7160e01b600052600160045260246000fdfea26469706673582212203261b94049ca06378fa463836122ddbb849351f0575eb57441a036b2c722aab464736f6c63430008130033","linkReferences":{}},"methodIdentifiers":{"fuzz_onMessageReceiveChild(bool,uint8,uint8,uint8,uint256)":"8d08c8a3","fuzz_pauseChild()":"9bb78ae0","fuzz_unpauseChild()":"52bf94d8","fuzz_withdraw(uint8,uint256,uint256)":"42a4e325","fuzz_withdrawETH(uint256,uint256)":"407504b3","fuzz_withdrawETHTo(uint8,uint256,uint256)":"ec1dbd09","fuzz_withdrawIMX(uint256,uint256)":"37ee3f3e","fuzz_withdrawIMXTo(uint8,uint256,uint256)":"79dd9f2b","fuzz_withdrawTo(uint8,uint8,uint256,uint256)":"f2ff2dd6","fuzz_withdrawWIMX(uint256,uint256)":"d5a651f3","fuzz_withdrawWIMXTo(uint8,uint256,uint256)":"c50847fb","handler_onMessageReceiveChild(bool,uint8,uint8,uint8,uint256)":"db19212c","handler_pauseChild()":"7aa5be21","handler_unpauseChild()":"a7f90b8d","handler_withdraw(uint8,uint256,uint256)":"1533bd8f","handler_withdrawETH(uint256,uint256)":"aae97c9b","handler_withdrawETHTo(uint8,uint256,uint256)":"be850cfe","handler_withdrawIMX(uint256,uint256)":"07e10041","handler_withdrawIMXTo(uint8,uint256,uint256)":"e9152789","handler_withdrawTo(uint8,uint8,uint256,uint256)":"ffbd1fae","handler_withdrawWIMX(uint256,uint256)":"b13518e7","handler_withdrawWIMXTo(uint8,uint256,uint256)":"7216408d"},"id":124}